:100000000C948C160C9405340C9430340C945B34A2
:100010000C9476170C94EB170C9460180C94D5186C
:100020000C94201C0C94F31B0C94B6160C94491BD6
:100030000C94B6160C94B6160C94B6160C94191BA8
:100040000C94B6160C94B6160C9486340C94B61612
:100050000C946E370C94A4370C94B6160C94B61608
:100060000C947F1B0C94B6160C94B6160C94B61612
:100070000C94B6160C94B6160C94B6160C94B616D0
:100080000C94B6160C94B6160C94B616000000002C
:10009000003E5B4F5B3E3E6B4F6B3E1C3E7C3E1C0E
:1000A000183C7E3C181C577D571C1C5E7F5E1C0054
:1000B000183C1800FFE7C3E7FF0018241800FFE70B
:1000C000DBE7FF30483A060E2629792926407F05CE
:1000D0000507407F05253F5A3CE73C5A7F3E1C1CE4
:1000E00008081C1C3E7F14227F22145F5F005F5FA4
:1000F00006097F017F006689956A60606060609490
:10010000A2FFA29408047E040810207E2010080894
:100110002A1C08081C2A08081E101010100C1E0C9F
:100120001E0C30383E3830060E3E0E060000000031
:100130000000005F00000007000700147F147F1418
:10014000242A7F2A1223130864623649562050005D
:1001500008070300001C2241000041221C002A1C49
:100160007F1C2A08083E0808008070300008080834
:100170000808000060600020100804023E51494554
:100180003E00427F400072494949462141494D3372
:100190001814127F1027454545393C4A49493141D9
:1001A000211109073649494936464949291E0000A7
:1001B00014000000403400000008142241141414FC
:1001C0001414004122140802015909063E415D59E8
:1001D0004E7C1211127C7F494949363E41414122F1
:1001E0007F4141413E7F494949417F090909013E1B
:1001F000414151737F0808087F00417F4100204042
:10020000413F017F081422417F404040407F021C53
:10021000027F7F0408107F3E4141413E7F0909096A
:10022000063E4151215E7F09192946264949493236
:1002300003017F01033F4040403F1F2040201F3FFC
:100240004038403F63140814630304780403615981
:10025000494D43007F4141410204081020004141C3
:10026000417F04020102044040404040000307086F
:100270000020545478407F2844443838444444286B
:10028000384444287F385454541800087E09021812
:10029000A4A49C787F0804047800447D400020409A
:1002A000403D007F1028440000417F40007C0478DE
:1002B00004787C080404783844444438FC18242426
:1002C0001818242418FC7C080404084854545424A6
:1002D00004043F44243C4040207C1C2040201C3C23
:1002E0004030403C44281028444C9090907C44641A
:1002F000544C4400083641000000770000004136AD
:10030000080002010204023C2623263C1EA1A16132
:10031000123A4040207A3854545559215555794164
:100320002254547842215554784020545579400C39
:100330001E5272123955555559395454545939551C
:100340005454580000457C410002457D420001455F
:100350007C407D1211127DF0282528F07C545545F3
:10036000002054547C547C0A097F4932494949325F
:100370003A4444443A324A4848303A4141217A3A70
:1003800042402078009DA0A07D3D4242423D3D403C
:1003900040403D3C24FF2424487E4943662B2FFCEB
:1003A0002F2BFF0929F620C0887E09032054547999
:1003B000410000447D413048484A32384040227A6A
:1003C000007A0A0A727D0D19317D2629292F2826E7
:1003D0002929292630484D402038080808080808EF
:1003E0000808382F10C8ACBA2F102834FA00007B48
:1003F000000008142A142222142A1408550055005B
:1004000055AA55AA55AAFF55FF55FF000000FF0049
:10041000101010FF00141414FF001010FF00FF1044
:1004200010F010F0141414FC001414F700FF000076
:10043000FF00FF1414F404FC141417101F10101FF5
:10044000101F1414141F00101010F0000000001FE3
:10045000101010101F10101010F010000000FF10EE
:100460001010101010101010FF10000000FF1400EA
:1004700000FF00FF00001F10170000FC04F414141C
:100480001710171414F404F40000FF00F7141414E8
:1004900014141414F700F7141414171410101F1068
:1004A0001F141414F4141010F010F000001F101F8B
:1004B0000000001F14000000FC140000F010F010F9
:1004C00010FF10FF141414FF141010101F00000070
:1004D00000F010FFFFFFFFFFF0F0F0F0F0FFFFFF74
:1004E0000000000000FFFF0F0F0F0F0F38444438CB
:1004F00044FC4A4A4A347E02020606027E027E021A
:1005000063554941633844443C04407E201E200624
:10051000027E020299A5E7A5991C2A492A1C4C7261
:1005200001724C304A4D4D303048784830BC625AE8
:10053000463D3E494949007E0101017E2A2A2A2A78
:100540002A44445F444440514A444040444A514054
:100550000000FF0103E080FF000008086B6B083615
:1005600012362436060F090F060000181800000086
:100570001010003040FF0101001F01011E00191D75
:100580001712003C3C3C3C0000000000BF0004048B
:1005900005060406072026FFF919F919FA03D308FE
:1005A0005319D9200600C03009210E255B70093F80
:1005B000503164BE7DA00022102B51180A64F01B3C
:1005C00012A28488120100233F32C36F6A6406922C
:1005D000193886E0187264C891194866D003110F63
:1005E000443C10F14010998183060E1A3886D003DE
:1005F000110F443C10F140D0187264C8911948663C
:10060000E01882638801243090CB4E7AC2C5226301
:10061000E3C284884A84A41192464C127109136A79
:1006200089309D907262D0884123448990124EDCBB
:100630002C342C5C3A00254AFA4AB04B63051E1C48
:10064000974EE09861E3468D12386AD0C0516346F8
:100650008E1A3374CCB469449F190F6094A8F100CA
:10066000C69C169376CCB462468D1C336AA4A05106
:1006700003078D1A376CCCC061E9061E143B0800D5
:1006800026353453106BA593AE5C4986601982659C
:10069000481621A9362DE2B36A88AC2152C990329E
:1006A0004A48252176865CA172650CA17930844583
:1006B000A134A58A02270C245118090F5A081101E8
:1006C00000281DE84B6D5983C810224388D020DADA
:1006D00010A23F2A445784488D22358AD400291F0E
:1006E000E84B6D09A328224588D428425411A2BFA3
:1006F000294388A241140D223488D028002A186A80
:10070000C9B6490245051112628488168848994184
:10071000324DA020002B10104A706A84E9D9831F43
:1007200010234CCF002C0E65512D090FD448326296
:100730009240002D07A9C873093F2E08A550300923
:100740000F142F1A2843306972254CAA51C2A41ADB
:10075000254C2A61528D12269530C900301D0F4B51
:10076000504AE752AD6952A64429ADD2E1EF526931
:1007700055A24C9136ABD21D023110EA52507AC3C9
:10078000489579F0E018FDFF01321E104B504AE702
:1007900016B57161C644A965E9D215355AD4A48548
:1007A000179AB4E9831F103325104B504AE716B54A
:1007B0006952AA04B112E44890235BB4E049A368EB
:1007C000AD4D97D9AA224E1AAD3B05003426104BE9
:1007D000508A658B9ABC101D097243881121368698
:1007E000141942148D22438ACC30320F7E4092304D
:1007F000DD00351E0F4B502A6C7833962E4AB169B6
:10080000D28490D16AC9224BA6A8481346EA4C016B
:1008100036250F4B505AE614B16951A80431B494EF
:10082000142281C4850B33ABD2E12E55893245DACF
:10083000AC4A580A00371A104B500A7F40966C5940
:100840006ACB922D4BB62CD96AC9D6B46C0D01383F
:100850002A1143505A0757352A5355117244C8116B
:100860002147A45499AA96AD6A53AA44B99458A6AC
:100870002B61C688A3560B4F0139250F4B505A05E3
:1008800053AD6952A644A974B84BB5C6842728480D
:1008900011214B1619894245D8B04A580A003A0C22
:1008A000255A70090FD443F540013B12E55A6D09F2
:1008B0000FD443F5408D2423260904003C18104A28
:1008C00070EA624B1E53B4848DB29327D52D5CA77A
:1008D000F26C71013D0A8F51710A7F0F077F3E183C
:1008E000104A700AC2099F54B78E9DCACBD43059A2
:1008F000A4EC2461E1003F203053904AE716B57123
:1009000061C644A965E9D2153569F2E0499365C924
:10091000560F75D93A034060DDCB2DCCE701357F0A
:1009200010D8D8C9B2E58813230F82D47830D49573
:100930001833D99A21C388181A318A10A943C4469A
:10094000991A37CA10B95186C68D3A346ED4884187
:10095000E3468D18448AD0103284CA9019F460108E
:10096000A123C7461522481E2C79B0E5412223FD5C
:1009700020F87B104A0141343643F08AE64198075B
:10098000801C6BC5DA16295AA46891928548162AEC
:1009900058A85C3172C58A3D08F620D483410F0601
:1009A000152C53B448D1124617174232335B100B43
:1009B000AE1E847920E4819072260A962858A2609F
:1009C000898225CA157910E6419807421E8C28585D
:1009D000A2A43E7C90E2C18807421E014336354BFB
:1009E000107B68193A7B10E89A82454A9A285AA2E5
:1009F000A87A10E5419407511E447910E541940707
:100A000052B444D112068D142C73E8D083600ED9F1
:100A10002203442D3553100B0D1F847A20E8C19812
:100A200072474A162969A26889A26BF5A74B4B94B5
:100A30003451B248B9230FC63C10F420544300454A
:100A4000213253D00A0F443C10F140C40311A5EBEE
:100A5000F583200F823C08F22048E9FAFAC10F180A
:100A600046113053900A7F90B6DEBEF845D9FA6F32
:100A7000014733364B308B88193E7B20EAD01983EF
:100A8000458C9628BB1E447920E581940752EE0FD1
:100A9000C296285BC2680993464E217950E6C52864
:100AA00026C3120D48103353F00A25F55F3EF88334
:100AB00095FA5F16490925533009FF07054A132F98
:100AC0004B50AAF5FFA92ABD5AF3A0489B658700A1
:100AD0004B373453100B054D143451CE483133A5E8
:100AE0000C153255C658997245CC9530B8722543CD
:100AF00086ED8C182B64AA90A952868A992957A64C
:100B00009C9182264AAE344C0E3053900A65EBFF1E
:100B1000FFF6C10F084D473753700B275DBE7B10A2
:100B2000EE41B807E11E887A30CAC5A8112A468D61
:100B3000504186840A3224549021A164CC1025248B
:100B400088282141440909224A48105133628C9A6D
:100B5000336ACEA839A3A890A2428A2A4E273353DB
:100B6000100B25172E64C7AE5933578F54105251AE
:100B70004609192545D4105153421109559E75C790
:100B8000E196054F2D374B307B895BBE7B200A0DEC
:100B90002273664C1A295BA46C89D2FA7589B24516
:100BA000CA163169C69C2134A81E887BD9381D001D
:100BB00050203253D00AADDE3C08F240443113E5F8
:100BC00016EADD32130F443C08E28859E9FA6B005B
:100BD000513457CB4F7B895BBE7B200A0D22736655
:100BE0004C1A295BC2EC6AFD32CCBA21258A9520C9
:100BF000624A8D2944888C3D18F660D8837149C8B3
:100C00008312020052333353100B8F1E087930E2E7
:100C1000C188822BF5B04439130F843C08F320CCF3
:100C20000321E54C142C51B044C112054B142C5136
:100C3000B044C112055716532B334BD06A47D7B572
:100C40007A54C84CB922048B902452FCB4CA760E54
:100C5000D92237AE52658982254C997910C819CBB3
:100C60006300540E3343900AFF205CF1FAFFBF0388
:100C700055163353100B25F5FFBF5C67E2CC910787
:100C8000625E354C05005634344BD00A45959628A3
:100C900058A46091826508122A56A8582962C40A8D
:100CA000152B548E1041420409912442940851227C
:100CB00044D522C6DAB8F500080257523D4BF00B76
:100CC000C58C2DB38298B122C48C152166AC482105
:100CD00044650A212A5308512142880A111A328890
:100CE00054116A4815A1A418114A8A11A11D9141F5
:100CF00043C8111934842022948850224279ECA8E8
:100D000031B3C6CC1A334C90344172005833344B53
:100D1000D00A068B183362AC9055858A192958A4DD
:100D20006089A24A13233E6EFA34DAB42A4B983310
:100D300052AE8C2943A54A993156C49C0983065961
:100D400034344BD00A0619163166A658211B152BD0
:100D500054CC48C12205972A4D8CF8F4F1F200CA10
:100D600003280FA03C80F200CA03280FA03C80F2A9
:100D7000000A025A1B314B900A7F80B8AC516BCBF2
:100D80001AB5D6A8B5658D5A6BD4EC831F205B0EBF
:100D9000E8536D090F1AD1FFFF1F3D485C1F29431F
:100DA0003009E2C48D936ED83871C3C6891B364EA4
:100DB000BA61E3C40D1B276ED838095D0EE8436D98
:100DC000090F12D1FFFF1F3D685E19CED1745A245E
:100DD0000D5A870C15114244084D4388082122C33F
:100DE00030235F0852404D0A1F18600CA5507A0945
:100DF00043880C213200611F4F4A504AA898342979
:100E0000A42C19C1434B5A9C49960C99A2070F4C2C
:100E1000A42062860062213053900A84E927864824
:100E20002471F2C2508962E912E25D3A55255E38BA
:100E30002181864C2100631C4F4A505AE614B1614F
:100E400052A804A97468E92E19894225DAAC5267C0
:100E500008006420304B90CAF4232364501071F1D1
:100E6000A2D0B284F830598942269EA420838250B1
:100E70001902651E504A505A0655B17152A844B124
:100E8000740F3E604CB8189142451AB14A590C0093
:100E900066142A43705985CC9C29458C9A076F8823
:100EA000D1FF3700672930CB8C4A46C8A020E2E248
:100EB00045A165CA12E23099B212854C3C71838219
:100EC0009011C2C994953062C40D33440068162F46
:100ED00053900A64E93784482071E1C290B264E813
:100EE000F0BF23690C245330090F023EF883006AD7
:100EF0001106C42C29744E84FEFF4F1E9828010051
:100F00006B282F53700A64E967A94A102A42A60C7D
:100F10009142244A2553A56AD1A22265C89421543E
:100F2000841411522588252B6C0924533009FF8124
:100F3000026D305852D00B644895218122C50314AC
:100F40000FDE9C51550A193164C4901143460C19A7
:100F50003164C4901143460C193164C49011434666
:100F6000016E144F52900A64CA9048E1E2812165F3
:100F7000E8F07F47006F1D514A905A0757B57952E4
:100F8000AA4439752971994E5D895245DEB45A7863
:100F90000A00702330D38C0A640A9140E3E485A1EF
:100FA00012C59425C46132658B4ABC7042020D990A
:100FB0004284E96300711F30CB8C5A45C8A020E2FF
:100FC000E245A16509F161B212854C3C71928290B3
:100FD00011C2F40372134A52B009848CA078F02035
:100FE00050A952C4E89F017320504A705AE7163541
:100FF00029548458096225CA265CB74EE9BA74247C
:101000004A9570C30C11007413C94A7029A468F37F
:10101000800929FAAF8E9C31540075144F52900A02
:10102000E4F07F974AD103132E529029430076288B
:101030005142700AE5D4952855A454195284481198
:101040002A538A0C3132C4C890234190044112249F
:101050008F5E5BB8180077405942500BA54AA9AA89
:1010600082542922852A2973A60C993384C89C218D
:101070004466C41842444810214562CC086224C624
:101080008C204662CC086268D0993268CAA0299345
:10109000E488922305007823504A700AC5169928DF
:1010A00054A648A122C4D4A1344BD6E44974AA8AD8
:1010B000902A52A6500943CB0A792730CB6C0AC537
:1010C000342342AA48A122856854A450116244885E
:1010D00011219610C3A39696ADB4E449A3468902A4
:1010E0007A114E4A300A3F5858A1391BD6E5830F72
:1010F000167B1909D4AC49658C1C29448AFE512100
:1011000042E34895A2FFEA8CA1027C09E35B2D092A
:10111000FFC1007D1A09D4AC0985CC1C2A45FF55B6
:1011200029728308152245FFE4889942007E0FCE7C
:10113000D0722A434D2D31B2CAE81000A00600C07B
:101140003009A10E05536D090FD40E99170F3E50AB
:10115000A22E0FCB4EAAC1438B3CA68849932221D5
:10116000D4044922048D3032C2888823228E889884
:101170001481489829D166553A93A2830705A3277D
:101180001143506A0657357262A848B112C54A9495
:101190002351D87051560C4BD3B8301564843CF8A9
:1011A0008088302300A420EF49520A234F947840CE
:1011B000A20DAD888C1B326EC8B821A4C850D3E2F2
:1011C0000189122707A5261243500A0515962856AD
:1011D00086182942C408912342900849A4684D9377
:1011E00074E4923849472E89D33B00A60DE35B2D6A
:1011F000091FA407F3E08101A73510CC4C4AE8543D
:101200002D3252A6109942648C1E45896E519B3135
:10121000280831DB8CC42112488A34529812A9D98B
:1012200022C488102352A80C23560A4D01A80A8A0A
:10123000C07A0944704200A9503A43109BE8013437
:101240002657B028B9E1A3C6831833CC989851A883
:10125000468C22424AC4A061834A0D1B45683C006B
:1012600042E301101A0F80D07800A4868D2A346CD6
:1012700090292284860843356498A941E3010C2310
:101280004BB05C51E72A01AA1709CA9429654E8C14
:101290002934C6041333665890180FE60103AB22B5
:1012A000AC59514AC1C28812326804193424060D5F
:1012B0001934840C892225C81019344694A0600181
:1012C000AC0A5049720A7F40983EAD07A9C873091D
:1012D0003FAE503A43108BE901342657902CB9E1C8
:1012E000A3C6241A334891984183C88C1835918835
:1012F00051138910366A50B141A38A252B86AED886
:101300009861C5C690323568948851D30C19348AD7
:10131000C844C3460C1A0F6018E18105893A570981
:1013200000AF076AC07A091FB0144951B729658E0A
:101330008811218A5622C40839530400B114D04AB6
:10134000706A84E9D9831F10234CEF217CF00302DB
:10135000B216EAC17429665010396468DC30521440
:10136000152236ECC103B319EAC17439845010391F
:10137000646818A152E5C819327484049A3200B422
:101380000CA6607A2924884C330600B5152FD38C1F
:101390000AE4F07F974AD1830F42A0208296BE05CF
:1013A000B64BF1434D4A6D9C9C118446101A31692D
:1013B000C4A41193464C1A316904A1118446D4196E
:1013C0005167C495112A46A818A162848A112A4639
:1013D000A818A162848A112A46A818A162848A11D9
:1013E0002A46A818A162848A110300B70AA4D0353E
:1013F0001922588800B80E07D16C29A2242A442843
:10140000451100B90CE6D17439431E8499FF01BA25
:10141000150ACA942966904C31C88E460C1982C6AA
:101420003CB8070FBB218CD9510AC102891233681D
:1014300008192264880C1A326804193424060D1124
:101440002526582000BC461A4390FB60860A1D4999
:1014500074D8C97107070F1C3C6EF4B8D1C3860F4E
:101460001B3E6AD844C3880D1A556CCCB0C2A34445
:101470008C1D2564ECA02143478919394AD0C851F5
:10148000CB862D1B3C6EF4B8D14300BD42194B9066
:10149000FB20868A1C3A729CC18106C78E1B3C6C5D
:1014A000F4B0D1A3868F1A3E6890A94182108D199D
:1014B0004384CC9041130E9A6E2CB9A1E486921B02
:1014C0004A7024C1912407AA19A966A402BE4C1926
:1014D0004B702B6607A11C4484E0A0E9460D1A3628
:1014E00098D8D062638B8D35341EC0989183C60C1A
:1014F0001A3268C82022940C228364502133630C72
:101500008F1931769090B163C40C1D33E9987583BF
:10151000D60D1D3876E0D82100BF1E104B8D6A65B0
:101520006B0F35616A4B9A3C78D2D272D9A92A6185
:10153000E4849B36CC1001C040F643F06AE401918C
:1015400007441E107940E421340FC23C00E4582BBC
:10155000D6B648D122458B942C44B250C142E58A7C
:10156000912B56EC41B007A11E0C7A30A86099A2CD
:10157000458A9630BAB800C140F643F0CAE481907B
:1015800007421E087920E421350FC23C00E4582BA5
:10159000D6B648D122458B942C44B250C142E58A3C
:1015A000912B56EC41B007A11E0C7A30A86099A28D
:1015B000458A9630BAB800C241F643F0AAE20191DA
:1015C00007621EC090D183C643661E847900C8B1ED
:1015D00056AC6D91A2458A1629598864A18285CAA4
:1015E000152357ACD883600F423D18F46050C132C8
:1015F000458B142D61747101C33CD643F08A640499
:10160000AB552C863C74E6419807801C6BC5DA16F6
:10161000295AA46891928548162A58A85C3172C547
:101620008A3D08F620D483410F06152C53B448D1C7
:1016300012461717C43FF643F06A440813214C843E
:101640003011F2B0360FC23C00E4582BD6B648D168
:1016500022458B942C44B250C142E58A912B56EC22
:1016600041B007A11E0C7A30A86099A2458A963035
:10167000BAB800C543F643F09AE481480F22507887
:101680001081C28310221E087928CD03408EB562D6
:101690006D8B142D52B448C942240B152C54AE182E
:1016A000B962C51E047B10EAC1A007830A96295AB5
:1016B000A46809A38B0BC64B3F43108C0F4E3E38DA
:1016C000F9E0E0038445C88322431E5019F280CA22
:1016D0009007443D9842E4C114220FA6D0B352CFE4
:1016E0004A3D2BF5AA187910EF41BC07F0203C8049
:1016F00007E10194235EF08188820F4E3E38F94065
:1017000000C74515CCEC7A68193A7B10E89A8245F7
:101710004A16295AA2A87A10E5419407511E447925
:1017200010E541940752B444D112068D142C73E88D
:10173000D083600ED99E07211E907830E5018D0779
:1017400033DC3C809200C82CF253D03AE40190077D
:10175000401E007900E4813E10F140C403110F44A3
:1017600094AED70F823C08F220C88320A5EBEB078C
:101770003F60C925F253D09AA4E91EF003110F442B
:101780003C10F14044E97AFD20C883200F823C08D8
:1017900052BABE7EF00306CA2BF253D08AE2019001
:1017A000363B64E4A0F1E01E887820E281880722BD
:1017B0004AD7EB07411E047910E44190D2F5F58336
:1017C0001F30CB2AF253D03AD4912147861C19F20C
:1017D000903E10F140C403110F4494AED70F823CE9
:1017E00008F220C88320A5EBEB073F60CC0FE8434D
:1017F0003009A4E8B44CFDFFFF0500CD0FE85330DD
:101800004964E8B84CFDFFFF0D00CE14EA433049AF
:10181000E24899193262D0E052F5FFFF3700CF114C
:10182000EA4330094470421E5CA9FAFFFF1B00D056
:101830003C373BF03A2E1F847B20ECC1A852A80A0B
:101840001A2A68A864A192668A9629FA40D8036188
:101850000F8495295AA6689992854A162A59A86034
:10186000A962A71E087B20ECA13300D12FD353100F
:101870006B64442A5429863CD0920B17B263D7ACD0
:1018800099AB472A08A928A3848C92226A88A829A0
:10189000A188842ACFBAE370CB02D238F74B307BD1
:1018A000E4419107451E147950E4214CDCF2DD033C
:1018B000516810993363D248D922654B94D6AF4B07
:1018C000942D52B6884933E60CA141F540DCCBC6D5
:1018D000E900D338F74B30DBE4C19007431E0C79A5
:1018E00030E4214DDCF2DD03516810993363D248B6
:1018F000D922654B94D6AF4B942D52B6884933E626
:101900000CA141F540DCCBC6E900D439F74B30BB24
:10191000E2419107631EC490E183C64396B8E5BBDC
:1019200007A2D0203267C6A491B245CA9628AD5FFF
:1019300097285BA46C119366CC194283EA81B8970F
:101940008DD301D535D74B309B64442B562D863C27
:1019500074895BBE7B200A0D2273664C1A295BA436
:101960006C89D2FA7589B245CA163169C69C213490
:10197000A81E887BD9381D00D637F74B307B4448EA
:1019800013214D843411F2304FDCF2DD0351681025
:10199000993363D248D922654B94D6AF4B942D52DC
:1019A000B6884933E60CA141F540DCCBC6E900D747
:1019B000200F52702A21C38C1B516A8D096B56A5CA
:1019C0003B782ED51A13D6AC2A316E4CC82000D8DD
:1019D00049384B307BA9463519F560D4835168509E
:1019E000192C64F04C4134E548102938A444B9312D
:1019F000258A0D2A516A548942C34A941957A2CCA8
:101A0000B82225C6954158E6A02173A6D0A07A3009
:101A1000EC81B011CD062504D921F353105BE441CC
:101A20009007411E047910E48196D4FFFF729D89CE
:101A300033471E8879D5301500DA19F35310BBC42B
:101A4000E91E7049FDFF2FD7993873E48198570D2F
:101A50005301DB20F353109BE24110373C64E8A0B4
:101A6000F1004BEAFF7FB9CEC499230FC4BC6A983A
:101A70000A00DC20F353104B640892214886201999
:101A8000F21097D4FFFF729D8933471E8879D530B5
:101A90001500DD40F44BD0BAE4019007401E0079F8
:101AA00000E4811B6468C2989962856C54AC503123
:101AB00023058B145CAA3431E2D3C7CB03280FA0D3
:101AC0003C80F200CA03280FA03C80F200CA032821
:101AD0000800DE223253D00AA5AB6EF5E64190072E
:101AE000228A9928B750EF96997820E24190378E54
:101AF0004AD76B00DF333153904A2695B57153C8EE
:101B000048A922C48A102B42AA0C2133640C9139B3
:101B1000430609A913E44A9053983B6526C8A420BC
:101B20008384CC1932A500E0252F4B504A84098FBD
:101B30009E1E42544C9A1452968C1CA2252DCE24E3
:101B400043874CD18307265210314300E1242F4BA9
:101B5000509A44C9CE1E52544C9A1452968C1CA2D0
:101B6000252DCE2443874CD18307265210314300C4
:101B7000E2282F4B507A82891A1C326CD078C850D8
:101B8000316952485932728896B438930C1D3245E7
:101B90000F1E984841C40C01E3270F4B505A644470
:101BA000295225863C74A8983429A42C1939444B11
:101BB0005A9C49860E99A2070F4CA420628600E425
:101BC000290F4B503A4448112145841411F290A139
:101BD00062D2A490B264E4102D697126193A648A25
:101BE0001E3C309182881902E52B2F4B506A4485A8
:101BF000880C143250482142C98344C5A449216548
:101C0000C9C8215AD2E24CB264C8143D786022059A
:101C1000113304E6357A4AB05BA60AAA48F5E0D04B
:101C20008333850C152146093162458B957A60E432
:101C3000418A072A4A912D46B618B145861E3C08AE
:101C4000B262519A74C54C01E7252FCB4C5AE61469
:101C5000B16152A804B16468695B2C19894225DA24
:101C6000AC526754B4E0D283079A2C0600E82530C2
:101C70004B504AA4490F9F1E6283AAD8382954A208
:101C80001809720F3E604CB818914245DCB04A59B1
:101C90000C00E924304B509A6409CF1E7283AAD8F5
:101CA000382954A21809720F3E604CB81891424569
:101CB000DCB04A590C00EA28304B507AA2C99A1C71
:101CC000326ED078480DAA62E3A450896224C83DE0
:101CD000F88031E162440A1571C32A653100EB29AD
:101CE000104B503A4488112146841811F2901A542E
:101CF000C5C649A112C548907BF00163C2C58814CE
:101D00002AE28655CA6200EC10274B300984088D00
:101D10009A1E0819FAFF07ED112653302944A61917
:101D2000321E0011FAFF2700EE142A3B3049E24828
:101D300099193262D07880C4E8FFDF00EF100A3BC7
:101D400030094470421E2031FAFF3700F02B514B0E
:101D5000902AC249852B422EE5C97443CC0532999D
:101D60008C519B27A54A94539712CB74EA5699300D
:101D700063E44DAB85A700F11C0F53904A644429DE
:101D80005225863C4444CC9040E2E2812155E9F062
:101D90007F4700F223314B905AC4890FA71EF2836C
:101DA000ABDA3C2955A29CBA94B84CA7AE44A92200
:101DB0006F5A2D3C0500F323314B909A84494F4DC7
:101DC0001E160757B57952AA4439752971994E5D87
:101DD000895245DEB45A780A00F426314B908AC203
:101DE000091B1D3270D078880FAE6AF3A454897233
:101DF000EA52E2329DBA12A58ABC69B5F01400F528
:101E000025114B905A64C4295327863CE40757B5E3
:101E10007952AA4439752971994E5D895245DEB4CB
:101E20005A780A00F626114B903A9491214686186A
:101E300019F2101F5CD5E649A912E5D4A5C4653A8C
:101E400075254A1579D36AE12900F712104A706A9C
:101E500084690FE1831F90879030CD00F82E553AAA
:101E6000907A8746AD18F5991953C50C953A446A8E
:101E70000421424308911943A8C49842A70A99B281
:101E8000C6D8AB5723560D3A0700F9192F53903A8D
:101E900084098F9E1E2A72F8BF4BA5E88109172975
:101EA000C89421FA182F53908A44C9CE1E3A72F86A
:101EB000BF4BA5E881091729C89421FB1D2F53901A
:101EC0006A82891A1C326CD07868C8E1FF2E95A20C
:101ED00007265CA420538600FC1E2F53902A64081A
:101EE000912144861019F2302187FFBB548A1E9835
:101EF0007091824C1902FD2B10CC6C9A64299E1EA5
:101F0000CA629A952046A4509142F4A808A922C416
:101F100088104B9710E1514BCB565AF2A451A34471
:101F200001FE2410D48C0A84E92786482479F1C262
:101F3000D032650971984CD9A2122F9C904043A6CB
:101F40001061FA1800FF35F0CB6C3A448811214635
:101F5000841811F25015D3AC04A922858A14225397
:101F60008850914245481521468458BA84088F5AB2
:101F70005AB6D292278D1A250A0000000004FFFFEE
:101F80000000BF00030304050305060F14FFFC0C4B
:101F9000FC0CFD01EB042D0CF0200500184B210971
:101FA000C20C4D1C2C6904220A458A51485824A1B0
:101FB00000231BC908D3498412A14474881C42120F
:101FC000A14474881C4212A1442891012414E7FA08
:101FD000D2052B0749841223728B50220749310600
:101FE0002521CD085D4983B4A048141449C2A43802
:101FF00040148786E48010392212861463C4A8082E
:10200000002616CA0A59518D22A1484A9E499A2A89
:10201000B2916C76888D062707428A495802280CAF
:10202000F4DA4C49264AFA9B6824290EF4D84C88E5
:10203000463291FE229988002A0B55784DA5A48C32
:1020400026B1002B0D880AD589D50E0799580D00A9
:102050002C0952DA48502212002D0724384B1C025A
:102060002E06220A49102F0FC408CB258962215160
:102070002C248AA501300FC80853D12CA3221F4B52
:10208000131B0900310AC50A53C60E35FD01320F74
:10209000C80853D12CA322513ADCF170103312C876
:1020A0000853D12CA3A2744624174B131B090034E8
:1020B00013C808530E69129944A48B4C723848C552
:1020C0002A003511C808533989A535536C2C2E4D7B
:1020D0006C24003612C80853D12CA3B264741915AD
:1020E00089A5898D04370FC808533C48C552B1549F
:1020F000AC2A56043813C80853D12CA3A24424A3F5
:102100005946C5D2C446023912C80853D12CA3225D
:10211000B134394DC4A5898D043A08820C4BD021C5
:10212000043B0BB2DC4AD021948804003C0D880AA1
:10213000550B49A4E91C40260B3D0B681A553CC8B9
:10214000910E07013E0D880A5588D901D311A318B5
:10215000003F10C70AD5540E329A5438549543950F
:10216000004023EDEA605A8732392414AB90642191
:10217000594CA426528B89944821519A482687CEDF
:10218000E48022004119CB0859CE21734059229D89
:102190000C65B225A9E82039D8017480004214C921
:1021A0000A579C0E11619578A01C22C22AF1403971
:1021B000014317CA0AD9154FB389B40E9043E4906E
:1021C00039442A998D8E25004415CA0A59180F21C1
:1021D000E1442A919659AB12E1E4103202450EC84F
:1021E0000A553C90952F17B1F2E120460DC80A55CB
:1021F0003C90952F17B1CE004717CA0AD9154FB397
:1022000089B40E904384378A54321B1D62140148EE
:102210000CCA0A5988391F1EC67C164907C20A49CA
:102220007C184A0CC70AD3EA571AED20A9004B19AB
:10223000CB0A594827C2916C261A4AA665AB682872
:102240009B0947D28978004C0BC80A5588F5CF877F
:1022500083004D19CB0A5B4C5D6F87982516A1A8AA
:10226000505448911069441AD162024E15CA0A5955
:102270004C8D468A8C22238948229A842621BA0EC4
:102280004F16CB0ADB556F4B52C9B40EA003AA13ED
:10229000A96836BBD6005014C90A579C0E11619527
:1022A000F14039C90172801C20075119DBFADA5557
:1022B0006F4B52C9B40EA0036A2189A834A25DEF06
:1022C000A010005219CA0A591C42078954229508C5
:1022D0002787D021249C48255289B43A5312C90A31
:1022E00057D52EB3AAD95A07546B935B09005419DA
:1022F000CA08553C18E51039440E9143E41039449E
:102300000E9143E4102100550DCA0A5988F9E7E2FD
:10231000E41033015619CA085788C912A148281277
:10232000CA444291502425D30172881000571ECE12
:10233000085F088544215145A624222991649250C2
:1023400044482292A842B1502C94015814C90A570B
:10235000486B13998AB03A9E162532955955005903
:1023600019CA0857888B13A14C241449C974801CBE
:102370002287C821728810005A0FC80A553C48A706
:10238000AAC3A9EAF470105B0BF4DA4C1C46FA4FAE
:1023900087005C0DC4084BC462B234599A2C035DAB
:1023A0000BF4D84C1C42FA4F87015E0D785AD58940
:1023B000A53491162151005F0719D8521C046008FA
:1023C00033AC4D8464016111980AD3942E32E9C86C
:1023D0003292C824A7C9006211C80A5588B58C2E4C
:1023E000A32263E930918C00630E980A53D12CA389
:1023F000B2F268622301640FC80A556BB21C4645ED
:10240000C6D2E43411650F980A55D12CC2C3C13C21
:102410009AD84800660DC40A4D4926924344A42F19
:10242000006713D8CA544D24875191B134394DC433
:10243000A5898D04680DC80A5588B5500E34221F31
:10244000056909C20A49900E07026A0B03CBCA2824
:102450004AF42F17006B14C80A5388B59526925179
:10246000CD3411892632896C006C07C20A497C1868
:102470006D169C0A5D482893C32134A2C968329A1C
:102480008C26A3C9680A6E0C980A554828071A9129
:102490008F026F0E980A55D12CA322636962230123
:1024A0007012D8CA544846975191B1749848466200
:1024B000CD007110D8CA544D24875191B134394D93
:1024C000C43A720B950A4D480E2399DE00730E979D
:1024D0000AD3540E3263B576905400740DB40ACD0D
:1024E0008824878848A79100750B980A5508F9ED4C
:1024F00040A108760F98085308891291DE8854B1DC
:102500000C0077159C085BC864341591BE50648735
:10251000E0682A128B6400780F970A53C86812A5E6
:10252000DAAC2451A3097915D8C852088912994404
:102530002493C82432EA54AC3895027A0C97085197
:102540003CCE86C2D9EC707B0EF4DA4C4926225D73
:1025500064229D46027C0701CB483C087D0EF4DADC
:102560004C88467A9388749988007E0A383AD5CC8C
:10257000446A1300A00500184BA10AC2DA4CD0220D
:10258000918301A213B8F8D2066996892926914948
:102590008294898D1805A313C808D30D4B32894C3A
:1025A0002207488B6271F87008A40F772A534426DB
:1025B000918A8C4D52894C02A511C8085308891282
:1025C0009136AAD028348AD500A60701CD4A9C0EA0
:1025D000A714F8D852D14C9A891659D12431924572
:1025E0004A361200A80825A84D482802A920CC0880
:1025F00059924733B128448A2849467180280E9859
:1026000088249210292407C446632200AA0C755A14
:10261000CD889226A110B500AB0E682853A9882456
:10262000226D22994800AC085828553C8835AD07E2
:1026300024384B1C02AE1CCC0859924733B12852A7
:102640008A2849469A88132549442924968DC644E8
:1026500000AF0615A84D14B00B547ACF48424A116A
:102660000900B10FB80AD589D50E0799581D7838D9
:1026700008B20C7558CD4C241491D26100B30C757E
:1026800058CD4CD444428A6402B40833AA4D45461E
:1026900000B50DC8DA5408F9ED7090909501B62098
:1026A000F8D8D21C4811528414214548A151301445
:1026B0000C0543C15030140C0543C1500400B7064B
:1026C000224A4B10B80B45C84C052521C90400B956
:1026D00008745A4D1D463ABA0B7558CD4C24B3892F
:1026E000645CBB0F682A5388642299488B48221285
:1026F00001BC1FCD0A5D0965C4204D2C8B03446AC3
:10270000A2D04C2221872252896AC826158625002C
:10271000BD1CCC085D096334192D2C128BE2008995
:10272000642689284A14836AD2584956BE20CD08A7
:10273000DD4C631299581696C901A29044CB6814D7
:10274000214B22E288AAC418154A2500BF11C7DA16
:102750005449E55045E1502AA31D241500C01E0B25
:1027600009D9C56172601C790E9903CA12E96428FF
:10277000932D494507C9C10EA00304C11E0B095979
:10278000C74172481CC31C32079425D2C950265B2E
:10279000928A0E92831D400708C21F0B09D9C641B9
:1027A00073402C8E3887CC016589743294C996A405
:1027B000A283E46007D00102C31DFB08594EA29119
:1027C00039E21C32079425D2C950265B928A0E92B8
:1027D000831D400708C41DFB0859C9843239DA1C1F
:1027E00032079425D2C950265B928A0E92831D40EF
:1027F0000708C5210B0959CA21A138201487C841EF
:1028000073C81C5096482743996C492A3A480E765B
:10281000001D20C61DCE08DF1D68079A440E11C991
:102820002122394474929DEE80B3502C3C0C0F0150
:10283000C71D0ACBD8154FB389B40E9043E4903925
:10284000442A998D8E75401C240E896700C814088F
:102850000B55C50172481C783890952F17B1F2E1DD
:1028600020C913080BD586A571E8E14056BE5CC4AB
:10287000CA878300CA14080B558687B138E87020D0
:102880002B5F2E62E5C34100CB12F80AD588B483D2
:102890000E07B2F2E522563E1C04CC0B0309498414
:1028A000644189FE07CD0B030B4945A612FD2F009D
:1028B000CE0D050949C526B1B04CFF1300CF0DF66A
:1028C00006498848728850FF1300D019CC085999DE
:1028D0000F41E14C2A931E8487A0483A92CA84B3E0
:1028E00043D008D11AFA0AD94D829139786A345204
:1028F000641419494412D1243409D17500D21B0B38
:102900000B5BC66172601CB17A5B924AA675001DB2
:10291000509D4845B3D9B506D31C0B0BDB03E22011
:1029200039248E5ABD2D4925D33A800EA84EA4A233
:10293000D9EC5A03D41C0B0BDBC64173402C8E56CA
:10294000BD2D4925D33A800EA84EA4A2D9EC5A0336
:10295000D51BFB0A5B4EA291395AF5B624954CEB78
:10296000003AA03A918A66B36B0D00D61BFB0ADBD6
:1029700089A4223952F5B624954CEB003AA03A913D
:102980008A66B36B0D00D7129908D54423B3C95A90
:10299000755A9BAC4DA21100D81CCB0ADB9542871F
:1029A000D050249CCC2434114946914D8622E1E834
:1029B000100AD500D9130A0BD9C54172581C41CC55
:1029C0003F172787980900DA130A0B59C72172406D
:1029D0001C45CC3F172787980900DB120A0BD9C684
:1029E00021E3581C2AE69F8B9343CC04DC11FA0A9E
:1029F00059298AE45031FF5C9C1C622600DD1E0AC6
:102A00000957C72172401C455C9C086522A1484AB1
:102A1000A603E41039440E91438400DE14C90A571A
:102A2000C801A7434458653C504E72801C2007DF04
:102A300014C80AD5942E32894C22194928425E289E
:102A4000921100E016D80A53C50172481C5ABAC840
:102A5000A423CB4822939C2603E114D80AD386A54D
:102A60007170E922938E2C23894C729A0CE215D84E
:102A70000AD38587B138B074914947969144263975
:102A80004D06E315C80A534D429139B07491494738
:102A900096914426394D06E414C80AD3A849E4C0E7
:102AA000D245261D59461299E43419E516D80AD3A1
:102AB0004943C1505458BAC8A423CB4822939C26FA
:102AC00003E6179D0ADF5448878A4C283C480E8746
:102AD0009058443A1C424C00E713D8CA52D12CA358
:102AE000B2F26862A3C601C2907006E814D80A5513
:102AF000C50172481C4CB3080F07F368622301E953
:102B000013D80AD586A571049A4578389847131BBF
:102B10000900EA13D80A558687B1389066111E0E4F
:102B2000E6D1C44602EB13C80A55496412399066CF
:102B3000111E0EE6D1C44602EC0BD3084984644151
:102B400089FE00ED0BD30A4945A612FD0500EE0CE7
:102B5000D50849C526B1B04C7F02EF0BC5084948DE
:102B6000286299FE04F011C80AD5884BE59965548E
:102B7000642C4D6C2400F110C80A554D4291394C1B
:102B80004239D0887C14F213D80A55C50172481C0A
:102B90004CB38C8A8CA5898D04F312D80A5586A56E
:102BA00071149A6554642C4D6C2400F413D80AD522
:102BB0008587B13894661915194B131B0900F51355
:102BC000C80A554D42913994661915194B131B09C2
:102BD00000F612C80AD5A849E4509A6554642C4DF1
:102BE0006C2400F70E880AD589E5C0C3410E14CBCA
:102BF00000F812980A5551228751C92231950E9337
:102C0000080900F910D80A55C50172481C28E4B714
:102C1000038522FA0FD80A5586A571B090DF0E14ED
:102C20008A00FB10D80AD58587B1384CC86F070ACF
:102C30004500FC0FC80AD5A849E43021BF1D28145F
:102C400001FD1918C9D286A571A89028914944326E
:102C5000894C22A34EC58A532900FE1308CB548801
:102C6000B58C2EA32263E930918CC49A01FF1A0817
:102C7000C95249641239484894C82422994426917B
:102C800051A762C5A9140000000004FFFF00000066
:102C900000000203000A0B00000000050409080000
:102CA0000000000000000000000000000000000123
:102CB0000204081020408001020408102040800116
:102CC0000204081020408001020408102040800205
:102CD00002020202020202040404040404040403C3
:102CE00003030303030303010101010101010100C7
:102CF00000200023002600290000002200250028D3
:102D0000002B0000002100240027002A00006A197F
:102D1000711BD21B1D1CD83711241FBECFEFD0E46E
:102D2000DEBFCDBF12E0A0E0B1E0E8E2F3E700E0F3
:102D30000BBF02C007900D92A63EB107D9F72BE258
:102D4000A6EEB2E001C01D92AC3AB207E1F716E17F
:102D5000CCE8D6E104C02197FE010E948439C7382F
:102D6000D107C9F70E94D2380C9492390C94000014
:102D7000CF92DF92EF92FF920F931F93CF93DF9347
:102D80006C01EB017B01E40EF51E10E000E0CE15B6
:102D9000DF0561F06991D601ED91FC910190F08120
:102DA000E02DC6010995080F191FF1CFC801DF9169
:102DB000CF911F910F91FF90EF90DF90CF900895EA
:102DC000CF93DF93EC010E947D338A309105B1F4FB
:102DD0001AAA19AA88A5082E000C990B29A5821BEE
:102DE000910927FD93952BA93CA9820F931F9CABBA
:102DF0008BAB81E090E0DF91CF9108958D3091050C
:102E000019F41AAA19AAF5CF8E3F2FEF920788F767
:102E10004BA95CA969A97AA99C01CE0104960E94DC
:102E20004F33288D213099F058F02230B9F02330FB
:102E300001F72BA93CA9281B390B3CAB2BABD9CFF5
:102E400029A93AA9820F931F9AAB89ABD2CF2BA99C
:102E50003CA9820F931F9CAB8BABCBCF29A93AA97E
:102E6000281B390B3AAB29ABC4CFFC016A3009F0FF
:102E70003BC0808D8130A1F038F08230E9F08330A2
:102E800039F181E090E0089512AA11AA23A183A943
:102E900094A9820F911D27FD9A9594AB83ABF1CF36
:102EA00023A181A992A9820F911D27FD9A9592AB2A
:102EB00081AB14AA13AAE5CF12AA11AA23A183A950
:102EC00094A9821B910927FD939594AB83ABD9CF2D
:102ED00023A181A992A9821B910927FD939592AB09
:102EE00081AB14AA13AACDCF0C94E0161F920F92B7
:102EF0000FB60F9211240BB60F922F933F934F935F
:102F00005F936F937F938F939F93AF93BF93CF9371
:102F1000EF93FF9390B1C091A42A8091A62A30919B
:102F2000A52A292F209523238923822B20916B000A
:102F3000C927C223C8239093A42ACC23C1F1C0FF80
:102F400005C0E091D72AF091D82A0995C1FF05C0A4
:102F5000E091D92AF091DA2A0995C2FF05C0E091E3
:102F6000DB2AF091DC2A0995C3FF05C0E091DD2A38
:102F7000F091DE2A0995C4FF05C0E091DF2AF091A7
:102F8000E02A0995C5FF05C0E091E12AF091E22A07
:102F90000995C6FF05C0E091E32AF091E42A09955E
:102FA000C7FF05C0E091E52AF091E62A0995FF9157
:102FB000EF91CF91BF91AF919F918F917F916F9141
:102FC0005F914F913F912F910F900BBE0F900FBECD
:102FD0000F901F9018951F920F920FB60F92112409
:102FE0000BB60F922F933F934F935F936F937F9303
:102FF0008F939F93AF93BF93CF93EF93FF9393B12F
:10300000C091A12A8091A32A3091A22A292F20952C
:1030100023238923822B20916C00C927C223C82334
:103020009093A12ACC23C1F1C0FF05C0E091C72A2B
:10303000F091C82A0995C1FF05C0E091C92AF09115
:10304000CA2A0995C2FF05C0E091CB2AF091CC2A8B
:103050000995C3FF05C0E091CD2AF091CE2A0995CC
:10306000C4FF05C0E091CF2AF091D02A0995C5FF91
:1030700005C0E091D12AF091D22A0995C6FF05C07A
:10308000E091D32AF091D42A0995C7FF05C0E091B9
:10309000D52AF091D62A0995FF91EF91CF91BF9152
:1030A000AF919F918F917F916F915F914F913F91E0
:1030B0002F910F900BBE0F900FBE0F901F90189581
:1030C0001F920F920FB60F9211240BB60F922F93EF
:1030D0003F934F935F936F937F938F939F93AF93A0
:1030E000BF93CF93EF93FF9396B1C0919E2A8091A7
:1030F000A02A30919F2A292F209523238923822BD0
:1031000020916D00C927C223C82390939E2ACC2307
:10311000C1F1C0FF05C0E091B72AF091B82A099526
:10312000C1FF05C0E091B92AF091BA2A0995C2FF02
:1031300005C0E091BB2AF091BC2A0995C3FF05C0E8
:10314000E091BD2AF091BE2A0995C4FF05C0E09127
:10315000BF2AF091C02A0995C5FF05C0E091C12A98
:10316000F091C22A0995C6FF05C0E091C32AF091EB
:10317000C42A0995C7FF05C0E091C52AF091C62A67
:103180000995FF91EF91CF91BF91AF919F918F9151
:103190007F916F915F914F913F912F910F900BBE57
:1031A0000F900FBE0F901F9018951F920F920FB6A1
:1031B0000F9211240BB60F922F933F934F935F936F
:1031C0006F937F938F939F93AF93BF93CF93EF931F
:1031D000FF9399B1C0919B2A80919D2A30919C2A9E
:1031E000292F209523238923822B20917300C9271F
:1031F000C223C82390939B2ACC23C1F1C0FF05C0F2
:10320000E091A72AF091A82A0995C1FF05C0E09195
:10321000A92AF091AA2A0995C2FF05C0E091AB2A1C
:10322000F091AC2A0995C3FF05C0E091AD2AF09159
:10323000AE2A0995C4FF05C0E091AF2AF091B02AEB
:103240000995C5FF05C0E091B12AF091B22A099510
:10325000C6FF05C0E091B32AF091B42A0995C7FFD3
:1032600005C0E091B52AF091B62A0995FF91EF913A
:10327000CF91BF91AF919F918F917F916F915F910E
:103280004F913F912F910F900BBE0F900FBE0F905B
:103290001F90189564E670E080E090E00C94F5349F
:1032A000CF93DF93C0916003D0916103D7FD219646
:1032B000D595C795BC0186EE92E00E94BB3397FD81
:1032C0000196959587959E01281B390BC901DF91C1
:1032D000CF910895EF920F93EE24EA940EE02CE044
:1032E00042E165E07BE28DE89AE20E94E32A2BE06E
:1032F0004EE06DE87AE288E593E00E94261FE0E266
:10330000F3E01382128282E991E091838083178235
:10331000168221E030E03787268781E0878B108E88
:1033200012AA11AA14AA13AA17AAE6EEF2E01382AF
:1033300012821782168237872687878B108E12AAF1
:1033400011AA14AA13AA17AA8AE991E0918380838B
:1033500088E593E091AF80AF958384830F91EF90E0
:10336000089540E051EE60E070E088E593E00E944F
:103370000C1E6FEB79E188E593E00C949127EF92B6
:10338000FF920F931F93CF93DF9388E593E0909381
:1033900025038093240361E00E94BE2D61E08AEE44
:1033A00092E00E94493360E08AEE92E00E944C3342
:1033B00070E060E08AEE92E00E9475336FEF7FEF7D
:1033C0008AEE92E00E9479336FEF7FEF88E593E019
:1033D0000E94CE1D6CE875E08AEE92E00E94683390
:1033E00086E091E00E945019C6EED2E09AAB89AB1C
:1033F0008FE590E09CAB8BAB1FAA66E071E0CE013D
:103400000E94413860E078EF8AEE92E00E947533C6
:1034100082E391E00E9450199AAB89AB8AEA90E06E
:103420009CAB8BAB1FAA62E371E0CE010E944138D6
:1034300085E191E00E9450199AAB89AB82ED90E052
:103440009CAB8BAB1FAA65E171E0CE010E944138B5
:1034500070E060E08AEE92E00E94753362E87FE1FE
:103460008AEE92E00E9468338CE191E00E9450194C
:103470008C019AAB89AB8EE091E09CAB8BAB1FAA21
:103480006BE371E0CE010E9441381AAB09AB8CE2CC
:1034900091E09CAB8BAB1FAA6CE171E0CE010E9466
:1034A00041381AAB09AB8AE491E09CAB8BAB1FAA05
:1034B00063E571E0CE010E9441381AAB09AB88E6A2
:1034C00091E09CAB8BAB1FAA62E771E0CE010E943A
:1034D0004138F12CE12C00E510E02FEA30E04AE819
:1034E00050E06CE370E088E593E00E94E62CDF9109
:1034F000CF911F910F91FF90EF9008952FB7F894FF
:10350000FC01808191812FBF0895FF920F931F933B
:10351000CF93DF93EC018B01FFB6F8940E947E1AE3
:103520009C019FB7F894F801318320839FBF8FB728
:10353000F894198308838FBFFFBEDF91CF911F914D
:103540000F91FF900895EF92FF920F931F93CF93E7
:10355000DF93EC01FFB6F8940E947E1A8C01892B50
:1035600071F0EFB6F894CE010E947E1A0E947E1A86
:103570009C019FB7F894398328839FBFEFBEFFBE9D
:10358000C801DF91CF911F910F91FF90EF900895A7
:10359000CF92DF92FF920F931F93CF93DF938C0113
:1035A000FFB6F8940E947E1A009771F1EC01229701
:1035B00059F18D819E81AF810197A1098D839E83F1
:1035C000AF83680182E0C80ED11C8D819E81AF81DE
:1035D000892B8A2BC9F4C8010E94A31A8C81982FC9
:1035E0009F7080FF1BC09C83E881F9810190F0816E
:1035F000E02DB801CE010995C8010E947E1A0097FE
:1036000019F0EC01229709F7FFBEC801DF91CF91B5
:103610001F910F91FF90DF90CF900895BE016E5FD4
:103620007F4FC6010E94851AE7CF8CEE9AE20C9478
:10363000C81A1F920F920FB60F9211240BB60F9259
:103640002F933F934F935F936F937F938F939F93AA
:10365000AF93BF93EF93FF930E94151BFF91EF91E0
:10366000BF91AF919F918F917F916F915F914F919A
:103670003F912F910F900BBE0F900FBE0F901F9098
:103680001895E7EEFAE284818F5F8483CF010C9472
:10369000C81A1F920F920FB60F9211240BB60F92F9
:1036A0002F933F934F935F936F937F938F939F934A
:1036B000AF93BF93EF93FF930E94411BFF91EF9154
:1036C000BF91AF919F918F917F916F915F914F913A
:1036D0003F912F910F900BBE0F900FBE0F901F9038
:1036E0001895ECEEFAE21182108213821282E7EE54
:1036F000FAE21182108213821282148208951F92BC
:103700000F920FB60F9211240BB60F922F933F9387
:103710004F935F936F937F938F939F93AF93BF93D9
:10372000EF93FF93E091F02AF091F12A309739F16D
:103730009091F22A9F5F9093F22A8091F22A8B3027
:10374000C8F009952091F32A3091F42A232B29F40B
:103750009093F42A8093F32A07C02091F32A3091A2
:10376000F42A82179307A0F38091F02A9091F12A0E
:10377000892B29F080917A00806480937A00FF91F0
:10378000EF91BF91AF919F918F917F916F915F91D9
:103790004F913F912F910F900BBE0F900FBE0F9046
:1037A0001F901895E5EFFAE21282118210820895B7
:1037B000FC0162817381848195810E94E23860936B
:1037C000B3000895CF93DF93EC0160E089810E94FC
:1037D000EA351092B100CE010E94D81B81E08E83A1
:1037E000DF91CF9108951F920F920FB60F9211247F
:1037F0000BB60F922F933F934F935F936F937F93EB
:103800008F939F93AF93BF93EF93FF9388EF9AE2C9
:103810000E94E21BFF91EF91BF91AF919F918F9119
:103820007F916F915F914F913F912F910F900BBEC0
:103830000F900FBE0F901F9018951092FF2A0895B9
:103840001F920F920FB60F9211248F930FB6F89418
:10385000A89580916000886180936000109260005C
:103860000FBE8F910F900FBE0F901F9018952F9243
:103870003F924F925F926F927F928F929F92AF9200
:10388000BF92CF92DF92EF92FF920F931F93CF934D
:10389000DF93CDB7DEB764970FB6F894DEBF0FBEE7
:1038A000CDBF9C838B837A8B698B1A013E832D83DA
:1038B000370121E030E03A8329833FEFC316D30676
:1038C00011F41A82198289819A81919581959109C1
:1038D0009C8B8B8BD501A270BB27BA83A9835C2CF0
:1038E0004D2CA1FC04C05B884C88DC8ACB8AC801C3
:1038F00007969C0143E0369527954A95E1F7388B6A
:103900002F87B0FC57C0D12CC12C912C812C19824F
:10391000C5018870992798878F83AD81BE81A60DD8
:10392000B71DBA87A9879501247033273C872B8759
:10393000C801820D931D9E878D87C614D70409F494
:10394000D2C0AF81B885AB2B09F4B1C0A984BA84C9
:10395000AC18BD08F12CE12CE016F10609F4BBC04F
:10396000C70187709927892B09F4A6C0B981BB0FBD
:10397000B98389812B893C8987FD02C0252D342D8F
:10398000AB85BC85B701620D731DAB2B21F06D8536
:103990007E856E197F09AB81BC81ED91FC911197F9
:1039A0000480F581E02DA501CD010995BFEFEB1A4B
:1039B000FB0AD2CF912C812CF12CE12C512CD5017A
:1039C000A870BB27B887AF832D813E81260D371D98
:1039D0003A872987C501847099279C878B87D801EE
:1039E000A20DB31DBE87AD87E614F70409F47BC0B2
:1039F0002F813885232B09F446C0A984BA84AE18D8
:103A0000BF081C8A1B8A8B899C898017910709F43F
:103A100046C087709927550C892B71F4EB89FC8976
:103A200093E0F595E7959A95E1F7E80DF91DA989D9
:103A3000BA89EA0FFB1F549081E029813A81232B38
:103A400009F480E0952D991F9927991F8917A1F0F6
:103A50008B859C85892BE1F46B897C89620D731DB4
:103A6000AB81BC81ED91FC9111970480F581E02D33
:103A70009601A501CD0109952B893C892F5F3F4F08
:103A80003C8B2B8BC0CFAD80BE80AE0CBF1CB9CFA2
:103A90006D857E85AB89BC896A1B7B0BE1CF3FEFCF
:103AA000E31AF30A8F859889880E991E9DCFAD8001
:103AB000BE80AC0CBD1C4ECFF70183E0F595E795B9
:103AC0008A95E1F7E80DF91D29893A89E20FF31F7C
:103AD000349139834ECF2FEFC21AD20A8F8598893D
:103AE000880E991E2ACF64960FB6F894DEBF0FBEDB
:103AF000CDBFDF91CF911F910F91FF90EF90DF909D
:103B0000CF90BF90AF909F908F907F906F905F907D
:103B10004F903F902F900895CF93DF93EC010E9438
:103B2000D32D82EA91E09983888381E090E09C8F95
:103B30008B8FDF91CF910895AF92BF92CF92DF929A
:103B4000EF92FF920F931F93DC01ED91FC9100A483
:103B5000F1A5E02D09951F910F91FF90EF90DF9057
:103B6000CF90BF90AF9008950F931F93DC01ED911C
:103B7000FC9102A8F3A9E02D10E000E009951F9147
:103B80000F9108950F931F93DC01ED91FC9102A812
:103B9000F3A9E02D09951F910F910895AC016F3F96
:103BA000760771F061157105D1F0611588EF78071E
:103BB00029F06627717F6138784788F09FEF01C050
:103BC00090E020E0FA017D964B555C4E2193DF0199
:103BD000A957BC4E9C93E417F507C1F7089590E0F0
:103BE0002FEFF0CFAF92BF92CF92DF92EF92FF9282
:103BF0000F931F93DC01ED91FC9100A8F1A9E02D3A
:103C0000B12CA12C09951F910F91FF90EF90DF909F
:103C1000CF90BF90AF9008950F931F93CF93DF93F2
:103C2000EC01411551056105710551F026E08FE069
:103C30009BE20E94123781E0FE01EE5CF84D80832A
:103C40008E01035D184DD8018D919C91DC01ED91A1
:103C5000FC910280F381E02D0995F801808191812A
:103C6000DC01ED91FC910480F581E02D40E059E00C
:103C70006DE370E009950A5F1F4FF801808187FDB1
:103C800008C061E00E94EA3561E0D8018C910E9491
:103C9000AE35FE01EC5CF84D60E080810E94AE35EF
:103CA000E881F981068CF78DE02D6FEF7FEFCE0173
:103CB0000995FE01E15DF84D8FEF9FEF91838083C1
:103CC000CF5CD84D1882DF91CF911F910F9108954D
:103CD000AF92BF92CF92DF92EF92FF920F931F931A
:103CE000A0FE02C06894A1F80E94371C1F910F919A
:103CF000FF90EF90DF90CF90BF90AF900895EF923C
:103D0000FF921F93CF93DF93DC01E90177FD3DC064
:103D100018968D919C91199768177907B4F557FDFE
:103D200034C01A968D919C911B97481759076CF5D2
:103D300056968C915697823071F18330C9F181305B
:103D400031F48FE891E0841B950BAB01BC01FB01C2
:103D500077FD37967F0183E0F594E7948A95E1F744
:103D6000CD01815D984DFC012081318137FF27C055
:103D700022E3249FC001259F900D1124F701E80F35
:103D8000F91FE83823E1F20770F1DF91CF911F911D
:103D9000FF90EF9008958FE891E09C01261B370B70
:103DA000B9018BE291E0FC01E41BF50BAF01CFCF31
:103DB0008BE291E0861B970BBA01AC01C8CF1CE9DE
:103DC0001203C001139F900D1124480F591F443650
:103DD0005105D8F622E3249FC001259F900D1124A0
:103DE000F701E80FF91FEA0FFB1F158DCB0168E003
:103DF00070E00E944E3927E030E0281B390B81E04B
:103E000090E001C0880F2A95EAF7282F2095312FDE
:103E10003223358FDF01AB55BC4E3C9123232C93CD
:103E2000CF3FDC0709F4B1CF209719F4812B858FA0
:103E3000ACCFC11528EFD20719F4832B8C93A5CFF3
:103E4000CC27D17FC138D84788F3F7CFEF92FF92C4
:103E50000F931F93CF93DF93EC017B01042F122F5D
:103E60004CE251E060E971E00E948C1D81E392E038
:103E700099838883FE01E35DF84DF182E0823296FA
:103E80008FEF9FEF9183808332961082319610825C
:103E900031960083CC5CD84D1883DF91CF911F9170
:103EA0000F91FF90EF9008958F929F92AF92BF92E3
:103EB000CF92DF92EF92FF920F931F93CF93DF93F6
:103EC0006B01B42EA52E4B0148EF84227901A7E0A7
:103ED000EA2AEC01C35DD84D88819981DC01ED911E
:103EE000FC910688F789E02D60E909958881998120
:103EF000DC01ED91FC91008CF18DE02D692D09958F
:103F000088819981DC01ED91FC91008CF18DE02D8F
:103F1000682D099588819981DC01ED91FC91008CD7
:103F2000F18DE02D6F2D099588819981DC01ED914E
:103F3000FC91008CF18DE02D6E2D09958881998181
:103F4000DC01ED91FC91008CF18DE02D6A2D09953D
:103F500088819981DC01ED91FC91008CF18DE02D3F
:103F60006B2D099588819981DC01ED91FC91008C84
:103F7000F18DE02D612F099588819981DC01ED910A
:103F8000FC91008CF18DE02D602F0995888199813D
:103F9000DC01ED91FC91008CF18DE02D60E0099544
:103FA000C70123E0969587952A95E1F7019633E0BE
:103FB000D694C7943A95E1F78C199D09DF91CF917A
:103FC0001F910F91FF90EF90DF90CF90BF90AF9037
:103FD0009F908F9008952F923F924F925F926F9291
:103FE0007F928F929F92AF92BF92CF92DF92EF9289
:103FF000FF920F931F93CF93DF93CDB7DEB72A972E
:104000000FB6F894DEBF0FBECDBF5C834B83603923
:1040100041E0740708F0F2C0AB81BC81AC32B14022
:1040200008F0ECC02039F1E03F0708F0E7C00C329F
:1040300041E0140708F0E2C0C00ED11E5DE2C516D3
:1040400051E0D50620F05CE2C52EDD24D394A1E03A
:10405000CA1AD1084B815C81401B510BFA01EC0D4F
:10406000FD1DFA83E9831B0143E0369427944A95AA
:10407000E1F7D901AE0DBF1DA139F1E0BF0710F086
:10408000A0E9B1E0A801B901EB81FC81FA87E987D9
:104090005C019D012150310986010E94541F820D4F
:1040A000931D9C838B833501F3ED6F1AF8ED7F0A26
:1040B000D3018D919C91DC01ED91FC910688F789EB
:1040C000E02D60E1099582E3E985FA858E9F200164
:1040D0008F9F500C11249501240D351D3E832D8397
:1040E0006F01F12CE12C49815A814C155D0580F15D
:1040F0008101C701840D951D98878F838D809E80D7
:104100008E0C9F1CAB81BC810A171B07D0F48F81DA
:104110009885800F911F60E08838934124F4F40162
:10412000E00FF11F658DF301808191816095DC01C5
:10413000ED91FC91008CF18DE02D09950F5F1F4FE3
:10414000E1CFBFEFCB1ADB0AE2E3EE0EF11CCBCFDF
:1041500062E070E080E090E00E94F534D3018D9140
:104160009C91DC01ED91FC910688F789E02D63E1DB
:104170000995F12CE12CE981FA8129853A85E2172C
:10418000F30788F181016701C40CD51C8D809E80E6
:104190008E0C9F1C4B815C8104171507D8F4C80155
:1041A0008C0D9D1D60E08838934134F4F801EB5587
:1041B000FC4EE80DF91D6081D3018D919C916095B5
:1041C000DC01ED91FC91008CF18DE02D09950F5FE4
:1041D0001F4FE0CFE985FA853196FA87E987F2E348
:1041E000EF0EF11CC8CF0BE211E02FE831E050E0F8
:1041F00040E070E060E0C5010E94541F2A960FB6AF
:10420000F894DEBF0FBECDBFDF91CF911F910F910C
:10421000FF90EF90DF90CF90BF90AF909F908F90E6
:104220007F906F905F904F903F902F9008958F9266
:104230009F92AF92BF92CF92DF92EF92FF920F9335
:104240001F93CF93DF93EC018B010E94D0344B017D
:104250005C017E012CECE21A28EDF20AF701808164
:104260000E9418360197E9F061E070E080E090E08C
:104270000E94F5340E94D034681979098A099B0993
:1042800061307D428143914048F3FE01EE5CF84D80
:1042900080818823A9F166EC71E08FE09BE20E94A7
:1042A0004D380115110561F1CE5CD84D8881882308
:1042B00039F10E94D0346B017C01C818D908EA0892
:1042C000FB08B8018FE09BE20E94413864ED71E089
:1042D0008FE09BE20E9441382AE030E0B701A6015E
:1042E0008FE09BE2DF91CF911F910F91FF90EF90B4
:1042F000DF90CF90BF90AF909F908F900C94BD387F
:10430000DF91CF911F910F91FF90EF90DF90CF90B1
:10431000BF90AF909F908F9008950F931F93CF936E
:10432000DF938C01EC01CD5CD84D888187FD13C0F3
:1043300060E00E94EA356AE070E080E090E00E9470
:10434000F53461E088810E94EA356AE070E080E03F
:1043500090E00E94F534E801C35DD84D88819981D1
:10436000DC01ED91FC910688F789E02D66E0099566
:1043700088819981DC01ED91FC91008CF18DE02D1B
:1043800067E1099588819981DC01ED91FC91008CB0
:10439000F18DE02D67E1099588819981DC01ED912E
:1043A000FC91008CF18DE02D67E109958881998160
:1043B000DC01ED91FC910688F789E02D64E0099518
:1043C00068ED71E0C8010E94172188819981DC01A4
:1043D000ED91FC910688F789E02D60E009958881D0
:1043E0009981DC01ED91FC91008CF18DE02D6FE065
:1043F000DF91CF911F910F9109944F925F926F922D
:104400007F928F929F92AF92BF92CF92DF92EF9264
:10441000FF920F931F93CF93DF933C015B014A01FF
:10442000E901FC01E15DF84D80819181019609F07F
:104430008CC0EE20C1F0D30156968C91823009F4E5
:1044400065C0833009F473C0813069F48FE891E06E
:10445000801B910B841B950B3C2F2D2FE801032F04
:10446000122F4B015C0123013FEC431A38ED530A34
:10447000D2018C91811103C0C3010E948D2181E082
:10448000F20180832301F3ED4F1AF8ED5F0AD201A8
:104490008D919C91DC01ED91FC910688F789E02DCE
:1044A00061E9099568017E0184019501A401B501C6
:1044B000C3010E94EB1FF20180819181DC01ED912B
:1044C000FC910688F789E02D62E1099561EE71E0C3
:1044D000C3010E941721F20180819181DC01ED91DD
:1044E000FC910688F789E02D62E9DF91CF911F9159
:1044F0000F91FF90EF90DF90CF90BF90AF909F9083
:104500008F907F906F905F904F9009948FE891E02B
:104510008C1B9D0BFC01E61BF70B5F018BE291E00E
:10452000801B910B9C01241B350B49019CCF8BE216
:1045300091E08C1B9D0B861B970B3C2F2D2FE801C8
:10454000032F122F5A014C018ECFDF91CF911F9173
:104550000F91FF90EF90DF90CF90BF90AF909F9022
:104560008F907F906F905F904F9008950F931F935F
:10457000CF93DF938C01EC01C35DD84D8881998185
:10458000DC01ED91FC910688F789E02D60E5099545
:1045900088819981DC01ED91FC91008CF18DE02DF9
:1045A00067E1099588819981DC01ED91FC9106888C
:1045B000F789E02D62E009956EEE71E0C8010E9476
:1045C0001721F801ED5CF84D808187FD18C08881C6
:1045D0009981DC01ED91FC910688F789E02D67E077
:1045E000099588819981DC01ED91FC91008CF18D18
:1045F000E02D65EADF91CF911F910F910994DF9132
:10460000CF911F910F910895CF92DF92EF92FF9279
:104610000F931F93CF93DF93FC01E15DF84D208151
:1046200031812F3F3F4F09F087C0EC013296108255
:104630000E948D218E01035D184DD8018D919C91B2
:10464000DC01ED91FC910688F789E02D60E1099588
:10465000C12CD12C760160E0B8E8CB16B3E1DB06C3
:10466000E104F10420F4FE01EC0DFD1D658DF8015F
:10467000808191816095DC01ED91FC91008CF18D40
:10468000E02D0995BFEFCB1ADB0AEB0AFB0AE8E93C
:10469000CE16EAE3DE06E104F104E9F6D8018D91D5
:1046A0009C91DC01ED91FC910688F789E02D63E196
:1046B0000995C12CD12C760160E0B8E8CB16B3E1A6
:1046C000DB06E104F10430F4F601EB55FC4EEC0F8F
:1046D000FD1F6081F801808191816095DC01ED9181
:1046E000FC91008CF18DE02D0995BFEFCB1ADB0A10
:1046F000EB0AFB0AE8E9CE16EAE3DE06E104F10480
:10470000D9F6D8018D919C91DC01ED91FC91068840
:10471000F789E02D62E1099568EF71E0CE010E9412
:104720001721CE01DF91CF911F910F91FF90EF9054
:10473000DF90CF900C94B622DF91CF911F910F9113
:10474000FF90EF90DF90CF9008952F923F924F927D
:104750005F926F927F928F929F92AF92BF92CF9211
:10476000DF92EF92FF920F931F93CF93DF93CDB71A
:10477000DEB728970FB6F894DEBF0FBECDBFFC01A1
:10478000E15DF84D0190F081E02D319609F07BC19B
:104790001501CB82DC82ED82FE82280139015A8329
:1047A00049836B017C01FC01EF5CF84D835D984D02
:1047B00098878F83A6FEC4C081E08083C7010E94D2
:1047C0008D21AF81B8858D919C91DC01ED91FC919B
:1047D0000688F789E02D61E909950BE211E02FE8E1
:1047E00031E050E040E070E060E0C7010E94541FFB
:1047F000EF81F88580819181DC01ED91FC91068843
:10480000F789E02D60E10995812C912C54018101FB
:10481000027011276FEF84149504A604B70440F4C6
:10482000F601E80DF91D64910115110509F0609577
:10483000EF81F88580819181FC01A081B18158963A
:10484000ED91FC910995FFEF8F1A9F0AAF0ABF0AFD
:1048500088E988168AE39806A104B104D9F6AF81E5
:10486000B8858D919C91DC01ED91FC910688F789CA
:10487000E02D63E10995812C912C5401B2E02B22AB
:1048800033248B819C81AD81BE816FEF88169906A0
:10489000AA06BB0648F4E981FA81E80DF91D649186
:1048A0002114310409F06095AF81B8858D919C91F8
:1048B000FC01A081B1815896ED91FC910995FFEF23
:1048C0008F1A9F0AAF0ABF0A88E988168AE39806FA
:1048D000A104B104B1F6AF81B8858D919C91DC0142
:1048E000ED91FC910688F789E02D62E109956FEF63
:1048F00071E0C7010E941721EF81F88580819181C5
:10490000DC01ED91FC910688F789E02D62E928969B
:104910000FB6F894DEBF0FBECDBFDF91CF911F91D0
:104920000F91FF90EF90DF90CF90BF90AF909F904E
:104930008F907F906F905F904F903F902F90099451
:104940001082C7010E948D21EF81F88580819181BD
:10495000DC01ED91FC910688F789E02D60E1099575
:10496000812C912C54018101027011276FEF841466
:104970009504A604B70440F4F601E80DF91D64910E
:104980000115110509F06095EF81F885808191810D
:10499000FC01A081B1815896ED91FC910995FFEF42
:1049A0008F1A9F0AAF0ABF0A88E988168AE3980619
:1049B000A104B104D9F6AF81B8858D919C91DC0139
:1049C000ED91FC910688F789E02D63E10995812C32
:1049D000912C5401B0E82B2233248B819C81AD8132
:1049E000BE816FEF88169906AA06BB0648F4E981D6
:1049F000FA81E80DF91D64912114310409F06095E4
:104A0000AF81B8858D919C91FC01A081B1815896B0
:104A1000ED91FC910995FFEF8F1A9F0AAF0ABF0A2B
:104A200088E988168AE39806A104B104B1F6AF813B
:104A3000B8858D919C91DC01ED91FC910688F789F8
:104A4000E02D62E109956FEF71E0C7010E94172127
:104A5000C70128960FB6F894DEBF0FBECDBFDF9119
:104A6000CF911F910F91FF90EF90DF90CF90BF906B
:104A7000AF909F908F907F906F905F904F903F90FE
:104A80002F900C94B62228960FB6F894DEBF0FBE76
:104A9000CDBFDF91CF911F910F91FF90EF90DF90ED
:104AA000CF90BF90AF909F908F907F906F905F90CE
:104AB0004F903F902F9008952F923F924F925F9288
:104AC0006F927F928F929F92AF92BF92CF92DF921E
:104AD000EF92FF920F931F93CF93DF93FC01E15D61
:104AE000F84D0190F081E02D319609F025C1680163
:104AF00029013A011B017C01FC01EF5CF84DEC013E
:104B0000C35DD84D06FFA0C081E08083C7010E942D
:104B10008D2188819981DC01ED91FC910688F789CE
:104B2000E02D61E909950BE211E02FE831E050E05A
:104B300040E070E060E0C7010E94541F88819981C5
:104B4000DC01ED91FC910688F789E02D60E1099583
:104B5000812C912C5401B2E0CB22DD246FEF841420
:104B60009504A604B70440F4F101E80DF91D649121
:104B7000C114D10409F0609588819981DC01ED911F
:104B8000FC91008CF18DE02D0995BFEF8B1A9B0AEB
:104B9000AB0ABB0A88E988168AE39806A104B10427
:104BA000E9F688819981DC01ED91FC910688F7890D
:104BB000E02D63E10995D12CC12C88819981DC011C
:104BC000ED91FC91008CF18DE02D6FEF0995BFEF19
:104BD000CB1ADB0A88E9C8168AE3D80671F7888100
:104BE0009981DC01ED91FC910688F789E02D62E95D
:104BF000099588819981DC01ED91FC910688F789FE
:104C0000E02D62E109956BE072E0C7010E94172177
:104C100088819981DC01ED91FC910688F789E02D6E
:104C200062E9DF91CF911F910F91FF90EF90DF909C
:104C3000CF90BF90AF909F908F907F906F905F903C
:104C40004F903F902F90099410820E948D2188816F
:104C50009981DC01ED91FC910688F789E02D60E1F6
:104C60000995812C912C5401B2E0CB22DD246FEF09
:104C700084149504A604B70440F4F101E80DF91D6D
:104C80006491C114D10409F0609588819981DC0197
:104C9000ED91FC91008CF18DE02D0995BFEF8B1A01
:104CA0009B0AAB0ABB0A88E988168AE39806A10426
:104CB000B104E9F688819981DC01ED91FC910688C7
:104CC000F789E02D63E10995D12CC12C8881998168
:104CD000DC01ED91FC91008CF18DE02D6FEF0995D9
:104CE000BFEFCB1ADB0A88E9C8168AE3D80671F74A
:104CF00088819981DC01ED91FC910688F789E02D8E
:104D000062E109956BE072E0C7010E941721C701BB
:104D1000DF91CF911F910F91FF90EF90DF90CF9097
:104D2000BF90AF909F908F907F906F905F904F90CB
:104D30003F902F900C94B622DF91CF911F910F914D
:104D4000FF90EF90DF90CF90BF90AF909F908F90AB
:104D50007F906F905F904F903F902F900895EF92CB
:104D6000FF920F931F93CF93DF93FC01E15DF84D0A
:104D7000208131812F3F3F4F09F0CCC07C0132961A
:104D8000EC01C35DD84D662309F471C081E08083D6
:104D9000C7010E948D2188819981DC01ED91FC91F0
:104DA0000688F789E02D61E909950BE211E02FE80B
:104DB00031E050E040E070E060E0C7010E94541F25
:104DC00088819981DC01ED91FC910688F789E02DBD
:104DD00060E1099510E000E088819981DC01ED91A6
:104DE000FC91008CF18DE02D6FEF09950F5F1F4F47
:104DF0000839BAE31B0781F788819981DC01ED91BD
:104E0000FC910688F789E02D63E1099510E000E048
:104E100088819981DC01ED91FC91008CF18DE02D70
:104E20006FEF09950F5F1F4F0839BAE31B0781F732
:104E300088819981DC01ED91FC910688F789E02D4C
:104E400062E1099566E172E0C7010E94172188813D
:104E50009981DC01ED91FC910688F789E02D62E9EA
:104E6000DF91CF911F910F91FF90EF9009941082E5
:104E70000E948D2188819981DC01ED91FC91068849
:104E8000F789E02D60E1099510E000E088819981C3
:104E9000DC01ED91FC91008CF18DE02D6FEF099517
:104EA0000F5F1F4F0839BAE31B0781F7888199818B
:104EB000DC01ED91FC910688F789E02D63E109950D
:104EC00010E000E088819981DC01ED91FC91008C7B
:104ED000F18DE02D6FEF09950F5F1F4F0839BAE391
:104EE0001B0781F788819981DC01ED91FC9106888F
:104EF000F789E02D62E1099566E172E0C7010E9441
:104F00001721C701DF91CF911F910F91FF90EF9073
:104F10000C94B622DF91CF911F910F91FF90EF90EB
:104F200008954F925F926F927F928F929F92AF926D
:104F3000BF92CF92DF92EF92FF920F931F93CF9386
:104F4000DF938C01015D184DD8012D913C912F3FCD
:104F50003F4F09F0CBC02B01EC01FC01EF5CF84D99
:104F600010820E948D217E01E3EDEE1AE8EDFE0A2B
:104F7000D7018D919C91DC01ED91FC910688F78918
:104F8000E02D60E10995F801118210823E01FBE5F8
:104F90006F1AFCEE7F0AD8018D919C910397ACF5B6
:104FA000E881F981068CF78DE02D6FEF7FEFCE0160
:104FB0000995F20109956E01FDE1CF0ED11C460164
:104FC000B12CA12CD4016D914D01F701808191810B
:104FD0006095DC01ED91FC91008CF18DE02D09953F
:104FE000BFEFAB1ABB0AE2E3AE16B10459F7F2E326
:104FF000CF0ED11C6C147D0411F7D8018D919C91BA
:10500000119701968D939C93C6CFF7018081918172
:10501000DC01ED91FC910688F789E02D63E10995AB
:10502000F80111821082D8018D919C910397B4F5FB
:10503000E881F981068CF78DE02D6FEF7FEFCE01CF
:105040000995F20109956E01FBE5CF1AFCEEDF0A26
:105050004601B12CA12CD4016D914D01F701808145
:1050600091816095DC01ED91FC91008CF18DE02D3A
:105070000995BFEFAB1ABB0AE2E3AE16B10459F7CC
:10508000F2E3CF0ED11CEC14FD0411F7D8018D9181
:105090009C91119701968D939C93C5CF8FEF9FEFB5
:1050A000F80191838083D7018D919C91DC01ED9172
:1050B000FC910688F789E02D62E1099563E272E0D0
:1050C000CE010E941721CE01DF91CF911F910F9148
:1050D000FF90EF90DF90CF90BF90AF909F908F9018
:1050E0007F906F905F904F900C94B622DF91CF919C
:1050F0001F910F91FF90EF90DF90CF90BF90AF90F6
:105100009F908F907F906F905F904F90089560E098
:1051100070E0CB01089508950F931F93FC0100E008
:1051200019E02DE330E090E0401751076207730764
:1051300040F436952795179507959F5F9630A1F710
:1051400097E0292F206A2695208790959170918766
:105150001F910F910895FC01838587FD04C091E0A4
:1051600069270C94EA350895FC01858587FF0C9426
:10517000EA350895CF93DF93EC018A8587FD07C058
:1051800061E00E94EA3561E08A850E94AE358B8538
:1051900087FD07C061E00E94EA3561E08B850E94CF
:1051A000AE358C8587FD07C061E00E94EA3561E07D
:1051B0008C850E94AE358D8587FD07C061E00E9419
:1051C000EA3561E08D850E94AE35E881F981019074
:1051D000F081E02DCE010995DF91CF910C94FF2A4B
:1051E000CF93DF93FC01248527FD1DC0EC0164E112
:1051F00070E080E090E00E94F53460E08C850E94D1
:10520000EA3564E170E080E090E00E94F53461E00E
:105210008C850E94EA3568EC70E080E090E0DF91D8
:10522000CF910C94F534DF91CF9108952091032B09
:10523000222381F03FB7F8942091032B213069F4A9
:105240002DB32093012B4DB32091022B20952423C5
:105250002DBB3FBF8CBD9DBD08953093012BFACF70
:10526000CF93DF93EC01888599850E9416298A8562
:1052700087FD05C060E0DF91CF910C94EA35DF91A6
:10528000CF9108958EBD00000DB407FEFDCF8EB501
:1052900008958FEF0C9442291F93CF93DF93EC0175
:1052A000162F8B8587FD03C060E00E94EA35812FB1
:1052B0000E9442298B8587FD06C061E0DF91CF9176
:1052C0001F910C94EA35DF91CF911F910895862F9D
:1052D0000C944229CF92DF92EF92FF92CF93DF930B
:1052E000EB0169017A01C114D104E104F10449F030
:1052F00089910E94422981E0C81AD108E108F10889
:10530000F2CFDF91CF91FF90EF90DF90CF90089593
:10531000CF93C62F872F0E9442298C2FCF910C94B8
:1053200042290CB405FC0DC09EBD00000DB407FE63
:10533000FDCF9EB58EBD00000DB407FEFDCF8EB52E
:1053400008958EBD00000DB407FEFDCF8EB59EBD45
:1053500000000DB407FEFDCF9EB508958FEF9FEFBF
:105360000C949129CF92DF92EF92FF92CF93DF932B
:10537000EB0169017A01C114D104E104F10449F09F
:10538000CE010E94912981E0C81AD108E108F108F4
:10539000F2CFDF91CF91FF90EF90DF90CF90089503
:1053A0008091032B882361F09FB7F8942091032B01
:1053B0008091012B213019F48DBB9FBF08958FBFC1
:1053C00008951F93CF93DF93EC01162F888599855D
:1053D0000E9416298A8587FD03C060E00E94EA3595
:1053E000812F0E944229182F8A8587FD03C061E022
:1053F0000E94EA350E94D029812FDF91CF911F9121
:1054000008950F931F93CF93DF93EC018B01888551
:1054100099850E9416298A8587FD03C060E00E9455
:10542000EA35C8010E9491298C018A8587FD03C055
:1054300061E00E94EA350E94D029C801DF91CF9136
:105440001F910F9108951F93CF93DF93EC018885EF
:1054500099850E9416298A8587FD03C060E00E9415
:10546000EA358FEF0E944229182F8A8587FD03C0F5
:1054700061E00E94EA350E94D029812FDF91CF910F
:105480001F9108950F931F93CF93DF93EC018885AD
:1054900099850E9416298A8587FD03C060E00E94D5
:1054A000EA358FEF9FEF0E9491298C018A8587FD55
:1054B00003C061E00E94EA350E94D029C801DF9153
:1054C000CF911F910F9108951F93CF93DF93EC011C
:1054D000162F888599850E9416298B8587FD03C024
:1054E00060E00E94EA358A8587FD03C060E00E9483
:1054F000EA35812F0E9442298A8587FD03C061E039
:105500000E94EA358B8587FD03C061E00E94EA3581
:10551000DF91CF911F910C94D0291F93CF93DF93EC
:10552000EC01162F888599850E9416298A8587FDAA
:1055300003C060E00E94EA35812F0E9442298A85DB
:1055400087FD03C061E00E94EA35DF91CF911F9192
:105550000C94D029CF92DF92EF92FF920F931F937A
:10556000CF93DF93EC018B0169017A0188859985DE
:105570000E9416298A8587FD03C060E00E94EA35F3
:10558000E881F98102A0F3A1E02DA7019601B801FD
:10559000CE0109958A8587FD03C061E00E94EA3546
:1055A000DF91CF911F910F91FF90EF90DF90CF90FF
:1055B0000C94D029FC01828587FD03C061E00E9424
:1055C000EA350C94D029EF920F93FC018BE692E020
:1055D000938382838DE792E09183808380E792E0DA
:1055E000958384837783668380E5808781E08187E4
:1055F000428723870487E5860F91EF900895CF9324
:10560000CFB7F8948091042B811127C0E3EDFCE221
:105610008491E3EBFCE29491E82FF0E0EE0FFF1FA2
:10562000ED5FF24DA591B491EC91E92321F461E095
:1056300084E00E94EA3561E084E00E94AE358CB5DA
:1056400080618CBD8CB580648CBD61E087E00E9478
:10565000AE3561E085E00E94AE358091042B8F5F0E
:105660008093042BCFBFCF9108952F923F924F92FA
:105670005F926F927F928F929F92AF92BF92CF92E2
:10568000DF92EF92FF920F931F93CF93DF9300D09F
:1056900000D000D0CDB7DEB73C016A013E832D8338
:1056A000FC82EB825801A41AB50AB7FE03C0B1947C
:1056B000A194B1088D809E80861A970A97FE03C038
:1056C0009194819491088A149B045CF0902F812F0F
:1056D0000D811E819D838E839C2D8D2D6B01692FE5
:1056E000782F0C151D055CF09D818E817E836D8366
:1056F000692F782F902F812F8601C92ED82E160161
:10570000201A310A2B012D813E81421A530A57FE7D
:1057100003C0519441945108710137FE03C03FEF1B
:10572000E31AF30AF594E7948D819E818617970713
:105730005CF5A1E0B0E0BA83A983C016D1064CF1B4
:10574000D301ED91FC910084F185E02D2B813C810A
:10575000A8016D817E818A149B041CF04D815E81BD
:10576000B801C3010995E418F508F7FE0AC02D81B8
:105770003E8189819A81280F391F3E832D83E20C57
:10578000F31C0F5F1F4FD9CF2FEF3FEF3A832983D1
:10579000D4CF26960FB6F894DEBF0FBECDBFDF91F3
:1057A000CF911F910F91FF90EF90DF90CF90BF901E
:1057B000AF909F908F907F906F905F904F903F90B1
:1057C0002F9008950895DC01ED91FC910480F581FE
:1057D000E02D09940F931F93DC01ED91FC91008C57
:1057E000F18DE02D09951F910F9108950F931F934F
:1057F000DC01ED91FC91028CF38DE02D09951F9158
:105800000F910895EF92FF920F931F93DC01ED919A
:10581000FC91048CF58DE02D09951F910F91FF905F
:10582000EF9008958F929F92AF92BF92CF92DF92A6
:10583000EF92FF920F931F93CF93DF93EC015B01E5
:105840004A0169017801E881F9810680F781E02D3C
:105850000995C80CD91C860101501109E881F9810C
:105860000088F189E02D9501A401B501CE010995CB
:10587000E881F9810288F389E02DCE01DF91CF9193
:105880001F910F91FF90EF90DF90CF90BF90AF905E
:105890009F908F9009948F929F92AF92BF92CF92D8
:1058A000DF92EF92FF920F931F93CF93DF93EC0160
:1058B0005B014A016901E881F9810680F781E02DE9
:1058C000099595012C0D3D1D21503109E881F98183
:1058D0000088F189E02D78018401A401B501CE0191
:1058E0000995E881F9810288F389E02DCE01DF91E5
:1058F000CF911F910F91FF90EF90DF90CF90BF90CD
:10590000AF909F908F9009944F925F926F927F9289
:105910008F929F92AF92BF92CF92DF92EF92FF92BF
:105920000F931F93CF93DF936C012B015A01390121
:105930004801DC01ED91FC910680F781E02D09958D
:10594000E201640C751CD601ED91FC91C615D705DA
:105950005CF40484F585E02D87019401A501BE0166
:10596000C60109952196EFCF0288F389E02DC60183
:10597000DF91CF911F910F91FF90EF90DF90CF902B
:10598000BF90AF909F908F907F906F905F904F905F
:105990000994EF92FF920F931F93DC011A960D91D9
:1059A0001C911B9718962D913C911997ED91FC91A4
:1059B000048CF58DE02D7B0150E040E070E060E06C
:1059C00009951F910F91FF90EF9008956F927F922C
:1059D0008F929F92AF92BF92CF92DF92EF92FF92FF
:1059E0000F931F93CF93DF93EC016B015A013901A1
:1059F0004801E881F9810680F781E02D0995E88169
:105A0000F9810684F785E02D87019301A501B60190
:105A1000CE010995A501480D591D41505109E88154
:105A2000F9810684F785E02D9301B601CE01099531
:105A3000E881F9810484F585E02D9401A501B60182
:105A4000CE010995C60CD71CB60161507109E881D9
:105A5000F9810484F585E02D9401A501CE01099515
:105A6000E881F9810288F389E02DCE01DF91CF91A1
:105A70001F910F91FF90EF90DF90CF90BF90AF906C
:105A80009F908F907F906F90099408956F927F926E
:105A90008F929F92AF92BF92CF92DF92EF92FF923E
:105AA0000F931F93CF93DF935C01EB016A014901D0
:105AB00038018701DC01ED91FC916217730719F53C
:105AC000641675062CF0962D872D3A01C92ED82E16
:105AD0009601261937092F5F3F4F008CF18DE02D7D
