:107800000C94343C0C94513C0C94513C0C94513CE1
:107810000C94513C0C94513C0C94513C0C94513CB4
:107820000C94513C0C94513C0C94513C0C94513CA4
:107830000C94513C0C94513C0C94513C0C94513C94
:107840000C94513C0C94513C0C94513C0C94513C84
:107850000C94513C0C94513C0C94513C0C94513C74
:107860000C94513C0C94513C11241FBECFEFD8E036
:10787000DEBFCDBF11E0A0E0B1E0E6EAFFE702C065
:1078800005900D92A230B107D9F712E0A2E0B1E065
:1078900001C01D92AD30B107E1F70E942D3D0C945F
:1078A000D13F0C94003C982F95959595959595957D
:1078B000905D8F708A307CF0282F295A8091C0000B
:1078C00085FFFCCF9093C6008091C00085FFFCCF60
:1078D0002093C6000895282F205DF0CF982F809127
:1078E000C00085FFFCCF9093C6000895EF92FF92F1
:1078F0000F931F93EE24FF2487018091C00087FD22
:1079000017C00894E11CF11C011D111D81E2E8164D
:1079100081EAF80687E0080780E0180770F3E09135
:107920000401F091050109958091C00087FFE9CF1E
:107930008091C6001F910F91FF90EF9008950E94D3
:10794000763C982F8091C00085FFFCCF9093C600B5
:1079500091362CF490330CF09053892F089597555D
:10796000892F08951F930E949F3C182F0E949F3CCF
:107970001295107F810F1F9108951F93182F882350
:1079800021F00E94763C1150E1F71F9108951F935A
:10799000182F0E94763C803249F0809103018F5F5E
:1079A000809303018530C1F01F9108958091C0003C
:1079B00085FFFCCF84E18093C6008091C00085FFE5
:1079C000FCCF1093C6008091C00085FFFCCF80E102
:1079D0008093C6001F910895E0910401F091050184
:1079E00009951F9108950E94763C803241F0809164
:1079F00003018F5F80930301853081F008958091AA
:107A0000C00085FFFCCF84E18093C6008091C00058
:107A100085FFFCCF80E18093C6000895E0910401CA
:107A2000F09105010995089548EC50E08823A1F0F4
:107A30002D9A28EE33E0FA013197F1F721503040CA
:107A4000D1F72D9828EE33E0FA013197F1F7215064
:107A50003040D1F7815061F708953F924F925F9285
:107A60006F927F928F929F92AF92BF92CF92DF924E
:107A7000EF92FF920F931F93CF93DF93F999FECF6D
:107A80008CEF93E092BD81BDF89A90B5892F805814
:107A9000893210F490936600000082E08093C00069
:107AA00080E18093C4001092C50088E18093C100FA
:107AB00086E08093C2005098589A259A81E00E94EF
:107AC000143D24E1F22E9EE1E92E85E9D82E0FE047
:107AD000C02E10E1B12EAA24A394B1E49B2EA6E5FA
:107AE0008A2EF2E57F2EE0E26E2E79E4572E63E5D2
:107AF000462E50E5352E0E94763C8033B1F181331D
:107B0000B9F1803409F46FC0813409F476C082344D
:107B100009F485C0853409F488C0803531F1823597
:107B200021F1813511F1853509F485C0863509F4D7
:107B30008DC0843609F496C0843709F403C18537B3
:107B400009F472C1863709F466C0809103018F5F22
:107B500080930301853079F6E0910401F0910501ED
:107B600009950E94763C803351F60E94F33CC3CFC6
:107B70000E94763C803249F78091C00085FFFCCF9F
:107B8000F092C6008091C00085FFFCCF9092C600A5
:107B90008091C00085FFFCCF8092C6008091C0001C
:107BA00085FFFCCF7092C6008091C00085FFFCCF9E
:107BB0006092C6008091C00085FFFCCF5092C60045
:107BC0008091C00085FFFCCF4092C6008091C0002C
:107BD00085FFFCCF3092C6008091C00085FFFCCFAE
:107BE000B092C60088CF0E94763C863808F4BDCF9C
:107BF0000E94763C0E94F33C7ECF0E94763C803807
:107C000009F49CC0813809F40BC1823809F430C1F1
:107C1000883909F48FC080E00E94C73C6CCF84E1B2
:107C20000E94BD3C0E94F33C66CF85E00E94BD3CB3
:107C30000E94F33C60CF0E94763C809306010E9434
:107C4000763C809307010E94F33C55CF0E94763C1E
:107C5000803309F411C183E00E94BD3C80E00E94A2
:107C6000C73C49CF0E94763C809309020E94763C33
:107C70008093080280910C028E7F80930C020E94F8
:107C8000763C853409F409C180910802909109027B
:107C9000892B89F000E010E00E94763CF801E85F53
:107CA000FE4F80830F5F1F4F809108029091090261
:107CB0000817190788F30E94763C803209F045CFF7
:107CC00080910C0280FFF5C0609106017091070160
:107CD000660F771F7093070160930601A091080259
:107CE000B09109021097C9F0E8E0F1E09B01AD0105
:107CF0004E0F5F1FF999FECF32BD21BD819180BD2E
:107D0000FA9AF99A2F5F3F4FE417F50799F76A0F30
:107D10007B1F70930701609306018091C00085FF6F
:107D2000FCCFF092C6008091C00085FFFCCFB092DE
:107D3000C600E1CE83E00E94C73CDDCE82E00E9417
:107D4000C73CD9CE0E94763C809309020E94763CC3
:107D5000809308028091060190910701880F991F76
:107D600090930701809306010E94763C853409F4C4
:107D70009AC080910C028E7F80930C020E94763C08
:107D8000803209F0B8CE8091C00085FFFCCFF09220
:107D9000C600A0910802B09109021097C1F180912C
:107DA0000C02082F0170182F16951170E091060132
:107DB000F0910701AF014F5F5F4FBA0120E030E063
:107DC0000023B1F4112339F494918091C00085FF10
:107DD000FCCF9093C6002F5F3F4FCB010196FA0175
:107DE0002A173B0780F4BC014F5F5F4F002351F31C
:107DF000F999FECFF2BDE1BDF89A90B58091C0002F
:107E000085FFFCCFE6CF7093070160930601809158
:107E1000C00085FDE5CE8091C00085FFF8CFE0CEA3
:107E200081E00E94C73C67CE0E94763C803209F018
:107E30008CCE8091C00085FFFCCFF092C60080916F
:107E4000C00085FFFCCFE092C6008091C00085FF96
:107E5000FCCFD092C6008091C00085FFFCCFC092BD
:107E6000C6008091C00085FFFCCFB092C60043CE13
:107E700080E10E94C73C3FCE0E94763C0E94763C47
:107E8000182F0E94763C112309F483C0113009F4A5
:107E900084C08FE00E94C73C2ECE80910C0281608E
:107EA00080930C02F1CE80910C02816080930C02D1
:107EB00065CF809107018823880F880B8A218093E2
:107EC0000B028091060190910701880F991F9093F2
:107ED0000701809306018091080280FF09C080910C
:107EE000080290910902019690930902809308027A
:107EF000F894F999FECF1127E0910601F09107015E
:107F0000C8E0D1E08091080290910902103091F40C
:107F10000091570001700130D9F303E0009357003E
:107F2000E8950091570001700130D9F301E1009309
:107F30005700E895099019900091570001700130A1
:107F4000D9F301E000935700E8951395103498F0A9
:107F500011270091570001700130D9F305E000931B
:107F60005700E8950091570001700130D9F301E105
:107F700000935700E8953296029709F0C7CF10306A
:107F800011F00296E5CF11248091C00085FFC5CE87
:107F9000C8CE8EE10E94C73CAECD85E90E94C73CA9
:067FA000AACDF894FFCF0A
:027FA600800059
:040000030000780081
:00000001FF
