:100000000C9411010C9404220C94DD210C94C7244F
:100010000C9464240C94F3230C944A230C946123D1
:100020000C9439010C94A3230C9439010C943901DC
:100030000C9439010C94CD230C9439010C943901A2
:100040000C9493210C9439010C9461210C943B2164
:100050000C9439010C9499230C9439010C943901B6
:100060000C942B220C94390108000000BE92244904
:10007000123EABAAAA2ABECDCCCC4C3E00000080DA
:10008000BEABAAAAAA3E00000000BF000000803F4D
:100090000000000000084178D3BB4387D1133D190D
:1000A0000E3CC3BD4282AD2B3E68EC8276BED98F3A
:1000B000E1A93E4C80EFFFBE01C4FF7F3F0000007E
:1000C000000007634236B79BD8A71A39685618AEA6
:1000D000BAAB558C1D3CB7CC5763BD6DEDFD753E7D
:1000E000F6177231BF000000803F005EBCE2613F46
:1000F000DD83C29C7E20A3FD1F41009D23BE46DB05
:1001000065F88C11AF32CA57E97400000000240072
:1001100027002A0000000000250028002B00000016
:1001200000080002010000030407000000000000B6
:100130000000002E0206030D04E905CA070C0B0699
:100140000D210E650F6A10C81193120315341703A1
:10015000181819161B431E2F1F65207823E9242A1F
:10016000251F26113E030A0B0C0512142021222301
:100170002425262728292A2B2C2D2E2F0001020387
:10018000040506070001020304050001020304053B
:10019000000000000000000002140505000000003F
:1001A00002010A0100000000000000000000000041
:1001B0000000000000000000060305010101010A23
:1001C000060101010501050A020602020000000005
:1001D00005010804040404000000000023002600B8
:1001E00029000404040404040404020202020202BA
:1001F00003030303030301020408102040800102EB
:1002000004081020010204081020A5A512554E492B
:1002100053454E5330313200F103157001012A2548
:10022000512D11241FBECFEFD8E0DEBFCDBF11E0AE
:10023000A0E0B1E0EAE2F9E602C005900D92A83A2A
:10024000B107D9F724E0A8EAB1E001C01D92A83FA8
:10025000B207E1F711E0C0E1D1E004C02197FE014F
:100260000E944233CF30D107C9F70E943E270C9439
:1002700088340C9400000895089508958FEF089530
:10028000663050F4FC01808191810196F5E06F9F0A
:10029000800D911D1124089590E080E00895089547
:1002A000AF92BF92CF92DF92EF92FF920F931F9384
:1002B000CF93DF936C017B018B01040F151FEB01C2
:1002C0005E01AE18BF08C017D10759F06991D60179
:1002D000ED91FC910190F081E02DC6010995892BEB
:1002E00079F7C501DF91CF911F910F91FF90EF90AA
:1002F000DF90CF90BF90AF900895FC01538D448D57
:10030000252F30E0842F90E0821B930B541710F0C0
:10031000CF96089501970895FC01918D828D9817CD
:1003200061F0A28DAE0FBF2FB11D5D968C91928DA5
:100330009F5F9F73928F90E008958FEF9FEF0895D6
:10034000FC01918D828D981731F0828DE80FF11D9F
:10035000858D90E008958FEF9FEF0895FC01918DBA
:10036000228D892F90E0805C9F4F821B91098F73B3
:100370009927089586EA92E00E94AE0121E0892B38
:1003800009F420E0822F089580E090E0892B29F085
:100390000E94BA0181110C9400000895FC01A48D03
:1003A000A80FB92FB11DA35ABF4F2C91848D90E097
:1003B00001968F739927848FA689B7892C93A0897A
:1003C000B1898C91837080648C93938D848D981304
:1003D00006C00288F389E02D80818F7D8083089597
:1003E000EF92FF920F931F93CF93DF93EC0181E085
:1003F000888F9B8D8C8D98131AC0E889F98980812C
:1004000085FF15C09FB7F894EE89FF896083E8895E
:10041000F98980818370806480839FBF81E090E050
:10042000DF91CF911F910F91FF90EF900895F62EDD
:100430000B8D10E00F5F1F4F0F731127E02E8C8D77
:100440008E110CC00FB607FCFACFE889F9898081BC
:1004500085FFF5CFCE010E94CE01F1CFEB8DEC0FE1
:10046000FD2FF11DE35AFF4FF0829FB7F8940B8FD9
:10047000EA89FB8980818062CFCFCF93DF93EC0143
:10048000888D8823B9F0AA89BB89E889F9898C917C
:1004900085FD03C0808186FD0DC00FB607FCF7CF38
:1004A0008C9185FFF2CF808185FFEDCFCE010E9438
:1004B000CE01E9CFDF91CF910895833081F028F408
:1004C000813099F08230A9F008958730A9F0883002
:1004D000C9F08430B1F4809180008F7D03C0809199
:1004E00080008F7780938000089584B58F7784BDD6
:1004F000089584B58F7DFBCF8091B0008F77809376
:10050000B00008958091B0008F7DF9CFCF93DF9335
:10051000282F30E0F901E25EFE4F8491F901EA50A4
:10052000FE4FD491F901EE51FE4FC491CC23A1F0BE
:1005300081110E945D02EC2FF0E0EE0FFF1FE852E8
:10054000FE4FA591B491EC91ED2381E090E009F488
:1005500080E0DF91CF91089580E090E0FACF1F9383
:10056000CF93DF93282F30E0F901E25EFE4F8491B4
:10057000F901EA50FE4FD491F901EE51FE4FC491BA
:10058000CC23A9F0162F81110E945D02EC2FF0E020
:10059000EE0FFF1FEC5EFE4FA591B4918FB7F8945C
:1005A000EC91111108C0D095DE23DC938FBFDF9151
:1005B000CF911F910895DE2BF8CFCF93DF9390E07A
:1005C000FC01EA50FE4F24918E519E4FFC01849114
:1005D0008823C9F090E0880F991FFC01E65FFE4F69
:1005E000A591B491FC01EC5EFE4FC591D4916111CF
:1005F0000DC09FB7F8948C91209582238C938881AD
:10060000282328839FBFDF91CF910895623051F452
:100610009FB7F8943C91822F809583238C93E88137
:100620002E2BEFCF8FB7F894EC912E2B2C938FBFFE
:10063000EACF3FB7F8948091160290911702A091EB
:100640001802B091190226B5A89B05C02F3F19F0DA
:100650000196A11DB11D3FBFBA2FA92F982F882742
:10066000BC01CD01620F711D811D911D43E0660F1C
:10067000771F881F991F4A95D1F708958F929F92EF
:10068000AF92BF92CF92DF92EF92FF926B017C010B
:100690000E9419034B015C01C114D104E104F1046F
:1006A000B9F00E941903681979098A099B09683E03
:1006B00073408105910580F321E0C21AD108E10859
:1006C000F10888EE880E83E0981EA11CB11CE4CFCF
:1006D000FF90EF90DF90CF90BF90AF909F908F9062
:1006E00008958091200290912102891B990B089511
:1006F000C3960895029608950F931F93CF93DF93A7
:10070000EC010A81802F8295880F807E0E81000F78
:10071000000F082B8885082B1A85812F8295880F5A
:10072000807E1C85110F110F182B8E85182BE881E8
:10073000F9810680F781E02D4C8162EFCE010995A9
:10074000E881F9810680F781E02D402F64EFCE012A
:100750000995E881F9810680F781E02D412F65EF49
:10076000CE01DF91CF911F910F9109942F923F926B
:100770004F925F926F927F928F929F92AF92BF92B1
:10078000CF92DF92EF92FF920F931F93CF93DF935D
:10079000CDB7DEB7C556D1090FB6F894DEBF0FBE90
:1007A000CDBF1C0129967FAF6EAF29978A012B968A
:1007B0003FAF2EAF2B97DC0118968D919C9101973E
:1007C00019F4C1010E947C03D101ED91FC910084D8
:1007D000F185E02D28E0AE014F5D5F4F67EFC1016D
:1007E0000995FE01B196DE0111969E01275D3F4FEE
:1007F000419150E070E060E04D935D936D937D9387
:10080000E217F307A9F7811133C080E090E0A0EC74
:10081000BFE72B96EEADFFAD2B9780839183A2832C
:10082000B383F80180839183A283B3832996EEADCD
:10083000FFAD299780839183A283B383CB59DF4F88
:100840000FB6F894DEBF0FBECDBFDF91CF911F91E1
:100850000F91FF90EF90DF90CF90BF90AF909F905F
:100860008F907F906F905F904F903F902F90089562
:1008700089809A80AB80BC8064968CAE9DAEAEAE13
:10088000BFAE64978D809E80AF80B88468968CAE32
:100890009DAEAEAEBFAE689789849A84AB84BC84AB
:1008A0006C968CAE9DAEAEAEBFAE6C972D853E8580
:1008B0004F855889ACE0220F331F441F551FAA955E
:1008C000D1F789899A89AB89BC8964E0880F991F1F
:1008D000AA1FBB1F6A95D1F7282B392B4A2B5B2BFC
:1008E0008D899E89AF89B88D74E0B595A795979548
:1008F00087957A95D1F7282B392B4A2B5B2B898D3D
:100900009A8DAB8DBC8DBA2FA92F982F8827CD8CAF
:10091000DE8CEF8CF8A04C015D018C289D28AE2860
:10092000BF28A0968CAE9DAEAEAEBFAEA097D10153
:1009300050968D919C91B0E0A0E069017A01F4E0BD
:10094000F594E794D794C794FA95D1F7C81AD90AC1
:10095000EA0AFB0A63E055954795379527956A950E
:10096000D1F7880F991FAA1FBB1F281B390B4A0BF1
:100970005B0BF101A289B3890E94B7314B015C0185
:10098000ABE0B594A79497948794AA95D1F7A70163
:100990009601C701B6010E9444319B01AC01BCE045
:1009A0005595479537952795BA95D1F7A489B58977
:1009B0000E94B7312EE095958795779567952A9592
:1009C000D1F775016401C60ED71EE81EF91EC9AE27
:1009D000DAAEEBAEFCAEA5E0B0E0A70196010E9456
:1009E000AC3160587F4F8F4F9F4F672F782F892FE3
:1009F000992787FD9A950E949D2E20E030E048ECD3
:100A000052E40E94F32DD8016D937D938D939C93B6
:100A10001397F101F48DA596FFAFA597D1015D96CF
:100A2000BC912E96BFAF2E97F101F68DA296FFAF27
:100A3000A297D1015F96BC91BDAFF101F0A1A19643
:100A4000FFAFA197D1019196BC91BEABF101F2A18C
:100A5000A496FFAFA497D1019396BC912D96BFAFFA
:100A60002D97F101F4A1A396FFAFA397D10195961D
:100A7000BC912C96BFAF2C97F101F6A1A696FFAFC3
:100A8000A697D1019796BC912F96BFAF2F97FF0CD9
:100A9000CC08DC2C760129AD3AAD4BAD5CAD6C2DAC
:100AA0007C2D8C2D9C2D345F4140510961097109C9
:100AB000810991092BAB3CAB4DAB552E3B014C0151
:100AC0005901C42ED52E7B018C010E94BF31219685
:100AD0002FAF219722963FAF229723964FAF2397B0
:100AE00024965FAF249725966FAF259726967FAF04
:100AF000269727968FAF279760969FAF6097F10153
:100B0000318D208D932F990F990B492F592F692FD4
:100B1000792F892F0E94BF310CE00E94EE3229A765
:100B20003FAB442E58AF69AB7AAB8EAF9FAFD101CC
:100B30005B963C915B975A962C91932F990F990B4A
:100B40002196AFAC21972296BFAC22972396CFACCB
:100B500023972496DFAC24972596EFAC259726960D
:100B6000FFAC269727960FAD279760961FAD60972D
:100B7000492F592F692F792F892F0E94BF3108E003
:100B80000E940733A9A4BFA8C42CD8ACE9A8FAA82E
:100B90000EAD1FAD0E94243370588F4F9F4FD1016F
:100BA0005696ED91FC915F01D12CC12CE12CF12CDA
:100BB0008701E9A7BAA6CBA6DCA6EDA6FEA60FA7DD
:100BC00018ABC12CD12CE12CF12C00E010E00E94DC
:100BD000BF3101E20E94073329A73FAB48AF59ABB1
:100BE0006AAB7EAF8FAF492EA0E00E94363309F486
:100BF00063C2A1962FADA1979EA9990F990B21963B
:100C0000AFAC21972296BFAC22972396CFAC239707
:100C10002496DFAC24972596EFAC25972696FFAC5B
:100C2000269727960FAD279760961FAD60973EA930
:100C3000492F592F692F792F892F0E94BF312EAB51
:100C400021963FAF219722964FAF229723965FAF11
:100C5000239724966FAF249725967FAF25972696E6
:100C60008FAF269727969FAF2797A2962FADA29773
:100C70009DAD990F990BABA8BCA8CDA8D52C73013D
:100C800084013DAD492F592F692F792F892F0E945B
:100C9000BF3101E10E94EE32AEA82196BFAC219790
:100CA0002296CFAC22972396DFAC23972496EFAC05
:100CB00024972596FFAC259726960FAD2697279665
:100CC0001FAD27970E94243359016A017B01582EDA
:100CD000192F68964CAD5DAD6EAD7FAD689734E071
:100CE000440F551F661F771F3A95D1F76C968CAD50
:100CF0009DADAEADBFAD6C97E4E0B595A79597956A
:100D00008795EA95D1F7842B952BA62BB72B649664
:100D10004CAD5DAD6EAD7FAD6497FCE0440F551FEB
:100D2000661F771FFA95D1F7482B592B6A2B7B2B1F
:100D300080E090E0A0E1B0E0841B950BA60BB70B20
:100D40003C014D01990C6608762C43019C01AD01D4
:100D5000662D762D862D962D0FE10E94EE323901FB
:100D60004A01B62FA72FF82FE92FA5962FADA597EB
:100D70002E969FAD2E97990F990B2E963FAD2E97DD
:100D8000492F592F692F792F892F03E20E94EE32C4
:100D9000052D0E94243359016A017B018C019301C6
:100DA000A4016B2F7A2F8F2F9E2F0E942D33E5E306
:100DB000AE2EFCE0BF2EC12CD12CE12CF12C00E09A
:100DC00010E00E94BF31A9A4BFA8C8ACD9A8EAA866
:100DD000FEAC0FAD142D0E9419322BAB3CAB4DABCA
:100DE00059A76EAB7DAF8FAB98AF0DE00E94073374
:100DF00029AB9AABA6962FADA6972F969FAD2F97AE
:100E0000990F990BA9A8B32EC42ED52EE62EF72E36
:100E1000082F1AA92F963FAD2F97492F592F692FC9
:100E2000792F892F0E94BF310E94BF3109E10E94B2
:100E30000733ABA8BCA8CDA8D9A4EEA8FDAC0FA9D8
:100E400018AD0E94243329AB3AAB2A013B014C0177
:100E5000A3962FADA3972C969FAD2C97990F990B26
:100E60002C963FAD2C97492F592F692F792F892F19
:100E70000E94BF3103E10E94073359016A017B01DF
:100E80008C0129A93AA9A201B301C4010E9424330B
:100E900008E00E94073359016A017B01E82F192FEE
:100EA000A4962FADA4972D969FAD2D97990F990BD2
:100EB0002D963FAD2D97492F592F692F792F892FC7
:100EC00004E00E94EE320E2F0E942433B901CA01C1
:100ED0000E949B2E20E030E040E85BE30E94792FE7
:100EE00020E030E048EC52E40E94F32D2996AEADAC
:100EF000BFAD29976D937D938D939C931397F101CB
:100F000025A5C9ACDAACEBACFCACFCE2DF1AF1E035
:100F1000EF0AF108A0968CAC9DACAEACBFACA0972C
:100F20003EE0880C991CAA1CBB1C3A95D1F7D10154
:100F30009C968C91B0E18B02C0011124322F3F703E
:100F4000832B092E000CAA0BBB0B44E1880F991FC1
:100F5000AA1FBB1F4A95D1F7881A990AAA0ABB0A89
:100F6000F101A6A5F0E1AF02D001112422952F7066
:100F7000A22BA70196010E94B731861A970AA80AE8
:100F8000B90A00E4900EA11CB11C6FE0B594A794BF
:100F9000979487946A95D1F7F101A3A5B0E00E94D8
:100FA000AC312B013C017BE07594679457944794D6
:100FB0007A95D1F7F0E85F0E611C711CF101A7A5CD
:100FC0000A2E000CBB0B0E94B731AAE095958795BD
:100FD00077956795AA95D1F7A30192010E944431B4
:100FE0009B01AC01BAE05595479537952795BA9581
:100FF000D1F7405E5F4FA1A5B2A50E94B731705EE8
:101000008F4F9F4F1EE095958795779567951A9519
:10101000D1F7A50194010E9444316B017C010FE0DE
:1010200095958795779567950A95D1F79B01AC01C2
:101030000E9444319B01AC0187E055954795379557
:1010400027958A95D1F7A0A5B0E00E94AC3124E0A5
:1010500095958795779567952A95D1F7C61AD70AFA
:10106000E80AF90AF7FE03C0C12CD12C7601C701AA
:10107000B601613071058105F9E19F0724F060E058
:1010800070E080E099E12CE09595879577956795DC
:101090002A95D1F70E949B2E20E030E040E85AE3E9
:1010A0000E94792F2B96AEADBFAD2B976D937D939C
:1010B0008D939C931397C2CB60E070E080EC9FE728
:1010C00015CF2EE0FB01DC01129601900D922A95BE
:1010D000E1F70C947C0320E1FB01DC01D396019045
:1010E0000D922A95E1F70C946108CF92DF92FF925E
:1010F0000F931F93CF93DF9300D000D0CDB7DEB70F
:101100008C01DC01ED91FC910084F185E02D21E062
:10111000AE014F5F5F4F60ED09958981883509F415
:101120005CC0803609F061C080E690E0F80191ABC8
:1011300080ABD801ED91FC910084F185E02D26E093
:10114000A801405F5F4F68E8C8010995F82ED801F3
:10115000ED91FC910084F185E02D22E1A8014A5E29
:101160005F4F6EE8C8010995F822D801ED91FC9116
:101170000084F185E02D21E0A801485D5F4F61EA20
:10118000C8010995F822D801ED91FC910084F18500
:10119000E02D27E0A801475D5F4F61EEC80109958A
:1011A000F822F801C484D584C114D10491F01586C5
:1011B0001486C8010E947C039E012F5F3F4FA90146
:1011C000B901C8010E94B603D8011D96DC92CE92E7
:1011D0001C97C8010E947C030CC088E590E0D801F0
:1011E000D1969C938E93D097A4CFF80111AA10AA00
:1011F000F12CF801F2AA8F2D0F900F900F900F9005
:10120000DF91CF911F910F91FF90DF90CF900895C4
:101210002091CE01260F3327331F21323105ECF404
:1012200020917C02FC0190E080E0243069F082E0B3
:101230000895A091CE012191AC0142555E4FA40FBB
:10124000B52FB11D2C930196861798F38091CE018E
:10125000680F6093CE0180E0089581E008951092B8
:101260007C0281E080937B021092560261E082E171
:101270000E94AF0261E083E10E94AF02E9EBF0E07F
:1012800080818E7F808380818D7F808380E28093C8
:10129000B80085E48093BC000895CF93DF9391E07C
:1012A0009093AD018823B9F0C091B800D091BA00F5
:1012B0008091BC008A7B8093BC0060E082E10E9448
:1012C000AF0260E083E10E94AF020E942F09D09339
:1012D000BA00C093B800DF91CF9108958F929F928A
:1012E000AF92BF92CF92DF92EF92FF920F931F9334
:1012F000CF93DF93D091A502D13208F0D7C0182F39
:10130000C091A4020E9419036B017C0180917C02B0
:1013100081116BC082E080937C0210937B028FEF7F
:1013200080937A0210927902D0937802A4E8B2E016
:10133000E8E5F2E080E0D81391C010925702809166
:101340005702CC0FC82BC0935702809156028130B0
:1013500009F088C0109256020E9419036B017C01AB
:10136000809157028093BB0080917E0290917F0212
:10137000A0918002B0918102892B8A2B8B2BA1F046
:101380000E94190300917E0210917F022091800239
:10139000309181026C197D098E099F090617170784
:1013A0002807390708F442C08091BC0083FDD8CFDC
:1013B00085EC8093BC000E9419036B017C01809135
:1013C0007C02823009F450C080917A028F3F09F488
:1013D0006FC080917A02803209F46CC080917A02E9
:1013E000803309F469C084E026C080917E02909128
:1013F0007F02A0918002B0918102892B8A2B8B2BD6
:1014000009F484CF0E94190380907E0290907F029D
:10141000A0908002B09081026C197D098E099F090D
:1014200086169706A806B90608F070CF80917D024F
:101430000E944D0985E0109283021092A50210923D
:101440008202DF91CF911F910F91FF90EF90DF907B
:10145000CF90BF90AF909F908F9008959D91919362
:101460008F5F69CF85EEA5CF80917E0290917F023C
:10147000A0918002B0918102892B8A2B8B2B09F4D9
:101480009ECF0E94190300917E0210917F0220914D
:101490008002309181026C197D098E099F0906171F
:1014A00017072807390708F08ACFC0CF81E0C3CFDC
:1014B00080E0C1CF82E0BFCF83E0BDCF0895E0914F
:1014C000210280912002E81730F4F0E0EF50FE4F47
:1014D000808190E008958FEF9FEF08959091210211
:1014E000809120022FEF3FEF981748F4E92FF0E0AA
:1014F000EF50FE4F208130E09F5F90932102C901A1
:101500000895CF92DF92EF92FF920F931F93CF93A4
:10151000DF937C01CB018A0120918202222389F092
:10152000EB016B01C40ED51ECC15DD0569F0699188
:10153000D701ED91FC910190F081E02DC701099553
:10154000F3CF642F0E940809C801DF91CF911F914A
:101550000F91FF90EF90DF90CF900895CF93DF939E
:101560001F92CDB7DEB76983209182022223F9F062
:101570002091A502203258F021E030E0FC013383B5
:10158000228390E080E00F90DF91CF9108958091C9
:101590008302E82FF0E0EC57FD4F998190838F5F35
:1015A000809383028093A50281E090E0ECCF61E01C
:1015B000CE0101960E940809F7CFCF93C42F8F5B0D
:1015C0009F4FFC01808191E0909382028093A4025E
:1015D000109283021092A50283E493E00E94AE0A67
:1015E0006C2F83E493E00E94AE0A81E00E946E09B2
:1015F00081E0CF91089590E080E00895DC0180E0E3
:10160000615090F09D919827E92FEF70F0E0E6513E
:10161000FF4F2491E92FE295EF70F0E0E650FF4F85
:10162000E491822F8E27ECCF0895DC012C91119646
:10163000ED91FC91F8948181822B81839281322FEC
:1016400030959323928382E090E00197F1F78181B6
:101650008323818380E190E00197F1F79081789472
:10166000E6E6F0E03197F1F7922381E009F480E0BB
:101670000895FC0190810180F281E02D292F2095B1
:1016800060FF14C0F8948281822382838181892B38
:101690008183A0E1B0E01197F1F78281982B9283CA
:1016A00078948AE690E00197F1F70895F8948281A2
:1016B000822382838181892B8183AEE7B0E01197F9
:1016C000F1F78281982B9283789486E090E0EBCFBB
:1016D000EF92FF920F931F93CF93DF93EC01E62ECF
:1016E00008E010E0FF24F39461E08E2D8F2109F4CF
:1016F00060E0CE010E94390BFF0C01501109A1F7E7
:10170000F894E981FA819181888180958923818388
:10171000E981FA81928188818095892382837894F6
:10172000DF91CF911F910F91FF90EF900895411598
:10173000510529F4EAE7F0E080818F7780836A30F1
:101740007105B9F0CB01880F991F880F991F80721E
:1017500067706860682B88E10FB6F894A89580934D
:1017600060000FBE60936000E0E6F0E0808180647E
:101770008083232BD9F483B7817F846083BFF8945F
:1017800083B7816083BF85B7806685BF8F7D85BF46
:101790007894889583B78E7F83BF7894452B29F4FE
:1017A000EAE7F0E0808180688083089583B7817FD5
:1017B000846083BFF89483B7816083BF78948895F1
:1017C00083B78E7F83BF7894E9CF8EBD0DB407FEBB
:1017D000FDCF8EB5089561E08AE00C94AF028CE0F5
:1017E0000E9486028111FBCF089560E08AE00C948C
:1017F000AF02CF93DF93D82FC62F0E94F50B0E9424
:10180000EF0B8D2F8C2B0E94E50B80E00E94E50BE7
:10181000C82F0E94EB0B8C2FDF91CF910895CF93AF
:10182000C82F0E94F50B0E94EF0B8C2F0E94E50B36
:10183000C82F0E94EB0B8C2FCF91089586E30E9456
:101840000F0C8DE30E940F0C8AE30C940F0CBC016B
:1018500090E080E00E943E0384E090E030E020E0F1
:1018600060E170E040917A00406440937A0042E386
:1018700050917A0056FF08C0FB013197F1F74150B3
:10188000B9F790E080E00895409178005091790098
:101890005370240F351F019729F7C9019695879535
:1018A00096958795237033272230310560F3019692
:1018B0000895EFE6F0E080818160808308958631AD
:1018C00030F4E82FF0E0EA59FE4F849108958FEF4D
:1018D0000895CF93DF93EC0180917C008073809317
:1018E0007C0080917C00806C80937C0080917C00E7
:1018F000816080937C0061E089E00E94AF0288896A
:1019000099890E94270CEC0160E089E00E94AF02F7
:10191000209761F09E01A0EEBBEA0E94963120E084
:1019200038E240E050E00E947431E901CE01DF91DD
:10193000CF910895FC0110860895FC01962F9770B1
:101940006085687F692B608708950895813011F064
:101950008FEF089580E00895882311F08FEF0895A8
:1019600081E00895883011F08FEF089580E00895A8
:10197000882311F08FEF089588E00895FC01828993
:10198000938961E0911101C060E00C94AF021F9354
:10199000CF93DF93FC01238520FF11C0162FEC01AC
:1019A0000E94F50B0E94EF0B0E94EB0B11110E949D
:1019B0001E0C84E30E940F0C8B858E7F8B87DF913A
:1019C000CF911F9108950895E0911A02F0911B02A2
:1019D000838581FD03C083858C6083870895089586
:1019E000089580E008950F931F93CF93DF932EE522
:1019F00031E0FC01318320838C01095B1F4F81F0B2
:101A0000EC01C150DF4F0C171D0751F0C85BD10925
:101A1000E881F9810280F381E02DCE010995F3CFB1
:101A2000DF91CF911F910F91089508950895089522
:101A30002AE631E0FC01318320830C94F30C0895F5
:101A4000982FE6E6F1E080E02491921729F08F5F6D
:101A500031968631C9F78FEF08950C94200D80914F
:101A60007C00807380937C0080917C0080648093F4
:101A70007C0080917C008E6080937C0082E390E00B
:101A80000E94270C009751F09C0150E040E060E07C
:101A900070E381E190E00E947431C90108950895D6
:101AA000862728E0BC0176956795AC0141705527E3
:101AB00080FF02C041E050EACB01842795272150E6
:101AC00089F70895FC011082118212821382168216
:101AD0001582148211861086178212861386089545
:101AE000FC018081811109C08181811106C081E0E2
:101AF0009281911103C080E0089581E00895DC0196
:101B0000FB019C91808198130BC011969C911197B9
:101B10008181981305C081E012962C91928129133E
:101B200080E00895FC013381FB012381321302C060
:101B30000C947F0D80E00895CF93DF9300D000D008
:101B4000CDB7DEB7FC0180899485998395859A830A
:101B500096859B838C83882389F0BF01645F7F4FC8
:101B6000CE0101960E94920D811108C082E00F9073
:101B70000F900F900F90DF91CF91089581E0F7CFF4
:101B80002FB7F894FC01808191812FBF0895FF92B7
:101B90000F931F93CF93DF93EC018B01FFB6F89463
:101BA0000E94C00D9C019FB7F894F80131832083F7
:101BB0009FBF8FB7F894198308838FBFFFBEDF9153
:101BC000CF911F910F91FF9008956F927F928F9206
:101BD000DF92EF92FF920F931F93CF93DF937B01DE
:101BE00022E0E20EF11CDB0115962D913D914C9106
:101BF000232B242B09F44FC0EB018C01DFB6F894A2
:101C00009C819F7090619C83C8010E94C00D0097C9
:101C100009F43EC0FC013297A1F065807680878090
:101C20002D813E814F81CF01029662167306840694
:101C300050F42619370948092D833E834F838C01C0
:101C4000E4CF90E080E02FB7F8949B838A832FBF86
:101C50008FB7F894D801ED92FC928FBF309761F066
:101C600085819681A7812D813E814F81821B930BB7
:101C7000A40B85839683A783DFBEDF91CF911F914D
:101C80000F91FF90EF90DF908F907F906F9008956D
:101C9000F0E0E0E0D8CFB7010296DF91CF911F913D
:101CA0000F91FF90EF90DF908F907F906F900C944A
:101CB000C70D1F93CF93DF93EC01FB012885922F73
:101CC0009770943079F040F4923051F0933039F1BC
:101CD000DF91CF911F910895953009F19630C1F7AA
:101CE00011E012C023FD21C02A853B852550310912
:101CF00013E02115310541F040E02D833E834F83F1
:101D0000BE01CF010E94E50DE881F9810680F781CF
:101D1000E02D612FCE01DF91CF911F91099423FD1A
:101D2000D7CF2A853B8515E0E4CF25E030E012E0EF
:101D3000E3CFFF920F931F93CF93DF93EC018B01BF
:101D4000E889FF24F394FE0EF88AE80FF92FF11DBD
:101D5000228530E0A4E6B0E00E9496312AE030E02F
:101D600040E050E00E9474312D833E834F83F0FEAB
:101D700011C08A899B8960E0911101C061E00E94D5
:101D8000AF02BE01C801DF91CF911F910F91FF906B
:101D90000C94E50DCE010E94BE0CF3CF0F931F9360
:101DA000CF93DF93EC018B01E881F9810680F78105
:101DB000E02D09959B878A878C859D85AE858D83CF
:101DC0009E83AF83BE01C801DF91CF911F910F9118
:101DD0000C94E50DEF92FF920F931F93CF93DF9337
:101DE000EC01FFB6F8940E94C00D8C01892B71F0B4
:101DF000EFB6F894CE010E94C00D0E94C00D9C0168
:101E00009FB7F894398328839FBFEFBEFFBEC801F8
:101E1000DF91CF911F910F91FF90EF900895BF92A6
:101E2000CF92DF92EF92FF920F931F93CF93DF93A6
:101E3000EC01FFB6F8948C818F708C8380E693E080
:101E40000E94C00D0097C9F19C012250310980E623
:101E500093E02115310589F189010E5F1F4FC217EB
:101E6000D30709F50E94EA0EC8010E94C00D009731
:101E700079F0FC01329761F085819681A7812D81EF
:101E80003E814F81820F931FA41F85839683A78372
:101E9000FFBEDF91CF911F910F91FF90EF90DF90E8
:101EA000CF90BF900895C8010E94C00D009729F0FF
:101EB0009C0122503109C801CCCF6E0182E0C80ECE
:101EC000D11CEFB6F894BFB6F89482E693E00E9476
:101ED000C00DEC0122E633E0209779F010E000E03D
:101EE000CC16DD0609F48901CE010E94C00D9E01C9
:101EF0000115110521F4EC01EFCF10E000E0BFBEA9
:101F00000115110511F4EFBEC3CFC8010E94EA0EFE
:101F1000FACFEF92FF920F931F93CF93DC011896A5
:101F20000D911C91F80181850E948602D8011896B6
:101F3000CC911897C3FBEE24E0F8F12C8E151F040A
:101F4000C9F180FBC3F91896CC93C770C33031F048
:101F5000C53021F0C130C1F4C4E007C0F80180856C
:101F600083FF12C0C33021F1C6E0C8010E940F0FE9
:101F700085E090E0A0E0F80185839683A783B8010F
:101F800080E693E00E94E50DD80118968C91189791
:101F900087708C1779F0ED91FC910680F781E02D28
:101FA0006C2FC801CF911F910F91FF90EF90099472
:101FB000C2E0DBCFCF911F910F91FF90EF9008957A
:101FC00080E793E00E940F0F60E773E080E693E004
:101FD0000C94E50D8F929F92AF92BF92CF92DF92B9
:101FE000EF92FF92CF93DF93EC014A015B0180E611
:101FF00093E00E94C00D0097B9F481E08887CE017C
:102000000E940F0F8D829E82AF82BE0180E693E018
:10201000DF91CF91FF90EF90DF90CF90BF90AF9086
:102020009F908F900C94E50D0297C12CD12C7601D6
:10203000009719F3FC01258136814781642FA9019E
:1020400070E0C40ED51EE61EF71EC817D90739F07A
:1020500002960E94C00D009781F20297E9CFC81442
:10206000D904EA04FB0448F2DF91CF91FF90EF908E
:10207000DF90CF90BF90AF909F908F90089582E6B1
:1020800093E00E94EA0E0097B1F0DC01129799F0FC
:1020900014968C9114978F7014968C931497ED91DD
:1020A000FC9111970190F081E02D60E673E0CD0185
:1020B000099581E0089580E00895CF92DF92FF9224
:1020C0000F931F93CF93DF938C01FFB6F8940E9478
:1020D000C00D009771F1EC01229759F18D819E811D
:1020E000AF810197A1098D839E83AF83680182E050
:1020F000C80ED11C8D819E81AF81892B8A2BC9F49A
:10210000C8010E94EA0E8C81982F9F7080FF1BC02F
:102110009C83E881F9810190F081E02DB801CE0126
:102120000995C8010E94C00D009719F0EC01229793
:1021300009F7FFBEC801DF91CF911F910F91FF906A
:10214000DF90CF900895BE016E5F7F4FC6010E9461
:10215000C70DE7CF4F925F926F927F928F929F92BF
:10216000AF92BF92EF92FF921F93CF93DF937A01CA
:10217000122FEC01CF5BDF4F888191E090938202B8
:102180008093A402109283021092A50283E493E04C
:102190000E94AE0A81E00E946E09D8810E94190354
:1021A0004B015C0180917C02811169C0C12F113209
:1021B00008F0C0E281E080937C0280937B029FEF75
:1021C00090937A02109279029C0F909378028093F8
:1021D000570280915702DD0FD82BD0935702809180
:1021E0005602813009F084C0109256020E941903F1
:1021F0004B015C01809157028093BB0080917E026D
:1022000090917F02A0918002B0918102892B8A2B4C
:102210008B2BA1F00E94190340907E0250907F0208
:102220006090800270908102681979098A099B097F
:10223000461657066806790608F442C08091BC002D
:1022400083FDD8CF85EC8093BC000E9419034B011D
:102250005C0180917C02813009F44CC0809179024C
:102260008C1710F4C0917902A8E5B2E0E1EFF1E03B
:1022700080E08C1751F19D9191938F5FFACF8091FF
:102280007E0290917F02A0918002B0918102892B01
:102290008A2B8B2B09F486CF0E94190340907E0273
:1022A00050907F02609080027090810268197909D5
:1022B0008A099B09461657066806790608F072CF08
:1022C00080917D020E944D09C0E010922102C093CE
:1022D0002002D0E080912102C81771F183E493E0DD
:1022E0000E946E0AF701ED0FF11D8083DF5FF2CFD0
:1022F00085EEA9CF80917E0290917F02A09180020D
:10230000B0918102892B8A2B8B2B09F4A2CF0E94DA
:10231000190340907E0250907F026090800270907E
:102320008102681979098A099B09461657066806C9
:10233000790608F08ECFC4CF81E0D11380E0DF9121
:10234000CF911F91FF90EF90BF90AF909F908F9093
:102350007F906F905F904F900895FC019081018075
:10236000F281E02DF8948181292F209582238183A9
:1023700078943DE7315011F180818923D9F3F894A5
:102380008281822382838181892B81837894ACEB43
:10239000B3E01197F1F7F894818182238183A8E853
:1023A000B0E01197F1F78081982381E009F080E097
:1023B0007894E0E3F3E03197F1F7089580E0089531
:1023C0001F93CF93DF931F92CDB7DEB7162F0E94D6
:1023D000200D8F3F99F06091B8037091B903680F99
:1023E000711D198341E050E0CE0101960E946E2DCF
:1023F00081E00F90DF91CF911F91089580E0F9CF98
:10240000CF93C82F60E00E94E0118823A1F060E024
:1024100081E08C0F0E94E011882369F060E082E087
:102420008C0F0E94E011882331F060E083E08C0F74
:10243000CF910C94E01180E0CF910895EF92FF923C
:102440000F931F93CF93DF931F92CDB7DEB78C010D
:102450007B01E80EF91E198241E050E0B801CE017F
:1024600001960E946E2D0F5F1F4FE016F10699F73F
:1024700081E00F90DF91CF911F910F91FF90EF902E
:1024800008951F93CF93DF93D82F162FC42F0E9448
:10249000F50B0E94EF0B8D2F0E94E50B812F0E9400
:1024A000E50B0E94EB0B60E88D2F0E94F90B1817CB
:1024B00099F080E0CC2361F04FEF4C0F612F8D2F0E
:1024C0000E944112EFECF7E03197F1F700C00000F5
:1024D000DF91CF911F91089581E0FACF85ED809330
:1024E000BC0080917E0290917F02A0918002B09109
:1024F00081020796A11DB11D23E0B695A79597957A
:1025000087952A95D1F72091BC0024FD03C0109235
:102510007C02089540917E0250917F02609180027A
:1025200070918102452B462B472B69F30097A1053B
:10253000B10541F02AE12A95F1F700C00197A10900
:10254000B109E1CF80917D020C944D09CF93CFEF7B
:1025500086E30E940F0CC150807731F08AE18A95A2
:10256000F1F700C0C111F4CF8AE30E940F0C89E398
:10257000CF910C940F0C0F931F93CF93DF93EC012B
:102580008B010E940F0FCE010E94BE0CB80183E0A8
:10259000660F771F8A95E1F760577E4F48E050E05D
:1025A000CE0108960E94552D8885882359F0188AF7
:1025B000198A60E673E0CE01DF91CF911F910F91F0
:1025C0000C94990EDF91CF911F910F9108950F9365
:1025D0001F93CF93DF9300D01F92CDB7DEB78B014F
:1025E00043E050E0BC01CE0101960E94552D9A8136
:1025F0008B812981F8012083918382830F900F9032
:102600000F90DF91CF911F910F9108951F93CF935A
:10261000DF93EC011FB7F89498898885981740F4E8
:10262000CE010E94990E1FBFDF91CF911F91089597
:10263000188A99859923A1F389898F5F898B8917D6
:1026400078F3CE010E94BE0C48E050E060E971E0F2
:10265000CE0108960E94552DE6CFCF93DF931F92AF
:10266000CDB7DEB7198241E050E0BC01CE01019642
:102670000E945E2D89810F90DF91CF910895CF93B5
:10268000DF93EC0188E10E94200D8F3F59F02881F3
:102690003981820F932F911D0E942D138170DF913C
:1026A000CF91089580E0FBCFCB960E943F1381111C
:1026B00009C064E070E090E080E00E941E12F0E04B
:1026C000E0E0099408950F931F93CF938C01862F18
:1026D000C42F0E94200D8F3F59F0F80120813181D5
:1026E000820F932F911DCF911F910F910C942D1359
:1026F0008C2FCF911F910F910895EF92FF920F931E
:102700001F93CF93DF93EC018B0140E06CE0C80195
:102710000E946313F82E40E06BE0C8010E9463132F
:10272000E82E40E06AE0C8010E9463138883E982D2
:10273000FA82CE01DF91CF911F910F91FF90EF9020
:1027400008958F929F92AF92BF92CF92DF92EF92B5
:10275000FF921F93CF93DF93EC01162F40E00E946E
:102760006313C82E61E0610F40E0CE010E94631345
:10277000D12CF12CE12CFC2CEE24DD24CC2490E097
:10278000B0E0A0E0DC019927882746015701880EB8
:10279000991EAA1EBB1E62E0610F40E0CE010E949E
:1027A000631390E0B0E0A0E0CC24D82EE92EFA2EFE
:1027B000C80CD91CEA1CFB1C63E0610F40E0CE0191
:1027C0000E946313A7019601280F311D411D511D61
:1027D000CA01B901DF91CF911F91FF90EF90DF9077
:1027E000CF90BF90AF909F908F900895CF93DF933D
:1027F000EC01CB011A82198218821B82642F049685
:102800000E944001009731F044E050E0BC01CE014D
:102810000E945E2DCE01DF91CF910895EF92FF923D
:102820001F93CF93DF9300D000D0CDB7DEB77C01EC
:1028300010E0412FB701CE0101960E94F613CE01A0
:1028400001960E94700D882321F01F5F163089F7D2
:102850001FEF812F0F900F900F900F90DF91CF916E
:102860001F91FF90EF900895AF92BF92CF92DF92A9
:10287000EF92FF921F93CF93DF9300D000D0CDB79C
:10288000DEB77C016B0110E05C0184E0A80EB11C96
:10289000412FB701CE0101960E94F613B601CE0179
:1028A00001960E94920D882379F01B821A82198268
:1028B0001C82612FC5010E94400144E050E0BC0130
:1028C000CE0101960E946E2D1F5F163009F781E040
:1028D0000F900F900F900F90DF91CF911F91FF906D
:1028E000EF90DF90CF90BF90AF900895AF92BF92DE
:1028F000CF92DF92EF92FF921F93CF93DF9300D09E
:1029000000D0CDB7DEB77C016B015A0110E0412F3A
:10291000B601CE0101960E94F613B501CE010196D3
:102920000E94920D8823C1F0612FC60104960E9477
:1029300040010496F70191838083C7010F900F90A7
:102940000F900F90DF91CF911F91FF90EF90DF904C
:10295000CF90BF90AF9008951F5F1630C1F690E002
:1029600080E0E8CFCF93DF9300D000D000D01F925B
:10297000CDB7DEB7FC0121111FC083AD94AD9A83A2
:10298000898386E18B838FE59CE09D838C838DE238
:102990009DE09F838E8329813A814B815C816D818B
:1029A0007E818F8190E027960FB6F894DEBF0FBE30
:1029B000CDBFDF91CF910895662331F182AD8617A7
:1029C00050F105ACF6ADE02D213069F44485558514
:1029D00061E082EB9CE028EB3CE05A8349836B8307
:1029E0003D832C83D6CF2430B1F4BF01685F7F4F85
:1029F000CE0101960E94761449815A8186EA9CE0B4
:102A00002CEA3CE061E0E9CF90E080E030E020E0BB
:102A100050E040E0E2CF90E080E030E020E060E095
:102A2000F7CF0E946D34AF92BF92CF92DF92EF92B8
:102A3000FF920F931F93CF93DF93EC017B018B8564
:102A40008B7F8B878E01035F1F4F60EC8BE30E94AF
:102A5000F90B18166CF1D12C8AE30E940F0C8BE74E
:102A600091E00197F1F700C000000E941E0C84E382
:102A70000E940F0CDD2009F460C0DC868D8596E78E
:102A800098279D8721E04D2D50E0BA0161507109D2
:102A9000A22FB0E0F801EA0FFB1F9081A617B7073D
:102AA0000CF043C08452892780832F5F892FF0CF99
:102AB00060E88FE30E94F90BD82E49E2481758F2DC
:102AC0000E94F50B0E94EF0B8FEF0E94E50BC02ECA
:102AD00058018A2D8C198D1538F480E00E94E50B81
:102AE000F50181935F01F5CF0E94EB0B60E88FE366
:102AF0000E94F90B282F30E0082E000C990B882734
:102B00009170A901481B590BCA0157FD0196959573
:102B10008795919581959109865B898360E88FE31C
:102B20000E94F90B87FF97CF97CF8E8589278083E7
:102B3000B801C70101960E947F34F701D0821C863C
:102B400060E0CE010E94C70CF7018081DF91CF9138
:102B50001F910F91FF90EF90DF90CF90BF90AF90BB
:102B600008952F923F924F925F926F927F928F9231
:102B70009F92AF92BF92CF92DF92EF92FF920F930C
:102B80001F93CF93DF93CDB7DEB7E0970FB6F894DE
:102B9000DEBF0FBECDBF6C018B01FA018081DB016E
:102BA00017968C931797818118968C93189782812A
:102BB00019968C9368E573E0CA010E947F0D882303
:102BC00029F0F80182818F7D84608283B8016C5F77
:102BD0007F4FD601D7968D919C910E94E712F80104
:102BE00082818068828346E064E1D60114968D91EB
:102BF0009C910E946313B82E811102C0BB24B39430
:102C0000F601E480F58085E00E94200D8F3F09F4F5
:102C10005CC0D7012D913C91820F932F911D0E9492
:102C20002D13782E72947694769443E0742241F0BA
:102C3000F6018281938162E070E002960E94BB12ED
:102C4000C801019698AB8FA73AE0432E512C612C16
:102C5000D8011796BEA7ADA7BB2009F472C1F60133
:102C6000E280F3804701F1E38F0E911CD8011296A8
:102C70008C9180718BA71701BEE32B0E311CF801DC
:102C8000408150E06FA578A9C1010E947F34D8012E
:102C90002C91F70125AF86ADF6E78F27D701DE9699
:102CA0008C93DE97DF969C9161E02150330B462F89
:102CB00050E0F101E40FF51F70814217530744F40F
:102CC0008452872780836F5FF2CF77247394B0CFCD
:102CD000892F87278083F701F5ADFCA7B7016D5CCD
:102CE0007F4FD701DB96AC90DB97AA2039F0EFEC51
:102CF000F7E03197F1F700C00000F3CFD8964D927E
:102D00005D926C92DA97E1E0DB96EC9380E693E0DB
:102D10000E94E50D61E0C4010E94C70CD701DC965A
:102D20008C91DC978260DC968C9386E30E940F0C7A
:102D30008BE30E940F0C28EC922E85E30E940F0C6F
:102D4000E7ECF0E03197F1F700C000009A949110A1
:102D500041C086E30E940F0C8BE30E940F0C8DE3B1
:102D60000E940F0C84E30E940F0C60EC85E30E942C
:102D7000F90B8D30B9F790E0D701DC968C91DC9798
:102D80008D7FDC968C93BA94992309F465CFF80172
:102D9000828185FFA8C08DA59EA50E94700D882305
:102DA00009F4A1C0CE0101960E94620D8CE3F82EB9
:102DB000D60112968D919C91FC0124AD22FD5AC042
:102DC0008FE19EE40197F1F700C00000FA94F11042
:102DD000EFCF42CF60EC85E30E94F90B833109F01D
:102DE000ACCF8FE19EE40197F1F700C000009BA5F6
:102DF000992349F0AFE7BBE8E8E0A150B040E040DC
:102E0000E1F700C000000E94F50B0E94EF0B8FE37A
:102E10000E94E50B8CA50E94E50B0E94EB0B0E9423
:102E2000F50B0E94EF0B8FE70E94E50B2BA64101EB
:102E3000882DFBA58F1B2CA5821730F4D4018D9112
:102E40004D010E94E50BF4CF0E94EB0B98EC992EFC
:102E500060EC85E30E94F90B8D3011F491E08CCF8A
:102E6000E7ECF0E03197F1F700C000009A94911080
:102E7000EFCFF4CFBE016F5F7F4FC1960E94131555
:102E8000882309F49DCFD80111969C918A819813CB
:102E900097CFBE016B5F7F4F8DA59EA50E947F0DD2
:102EA000882309F48DCF8C81823041F48B85A82E44
:102EB000A094AA1CAA24AA1C87FDB12CF801828127
:102EC00081FD03C08B8180FF0BC0D60112968D91CE
:102ED0009C9142E350E060E070E088960E94EA0F27
:102EE000AA2009F4B9CE11E0772049F0F6018281D9
:102EF000938111E063E070E002960E94BB12812F83
:102F0000E0960FB6F894DEBF0FBECDBFDF91CF9134
:102F10001F910F91FF90EF90DF90CF90BF90AF90F7
:102F20009F908F907F906F905F904F903F902F90E9
:102F30000895D60112968D919C9110E064E070E0A6
:102F4000DBCF7110F6CF10E0DACF0F931F93CF9342
:102F5000DF93EC018B018AE18B871E861D864C87EF
:102F60001E8A6FA978ADFB01719684913197E49127
:102F7000ED8B8AA3625F7F4F42E050E0CE01469620
:102F80000E94552D6FA978AD6D5F7F4F4AE050E0EC
:102F9000CE0148960E94552D8AAD8BA36FA978ADBE
:102FA0006E5E7F4F42E050E0CE0184960E94552D28
:102FB000BE01655F7F4FA801CE01DF91CF911F91C8
:102FC0000F910C94B115FF920F931F93CF93DF9342
:102FD00000D01F92CDB7DEB78C01FC018085282F71
:102FE0002770962F9770887F892B8087623071F5C4
:102FF0000789108DF801F680F394F682648175815B
:10300000CE0101960E947D134F2DBE016F5F7F4F51
:10301000C8010E94A517F8018281938161E070E0E8
:1030200002960E94BB12F8018281938140ED57E025
:1030300060E070E088960E94EA0F0F900F900F906A
:10304000DF91CF911F910F91FF9008956530A9F7FF
:103050008789908D253059F4CB960E943F138111BA
:10306000ECCFF8018789908D0E945413E6CFFC01C4
:103070008281938167E070E002960E94BB12DDCFEF
:103080002F923F924F925F926F927F928F929F9278
:10309000AF92BF92CF92DF92EF92FF920F931F9366
:1030A000CF93DF93CDB7DEB7E3970FB6F894DEBFCB
:1030B0000FBECDBF8C017B0118AA1FA61EA6BE01A4
:1030C000625D7F4FDC01D7968D919C910E94E71243
:1030D0002701B7E04B0E511CBE01625D7F4FC2015C
:1030E0000E947F0DC82E882309F474C0F801C280A5
:1030F000D3805601F3E3AF0EB11CC5010E940F0F40
:103100008AE090E0A0E0F60180AF91AFA2AF81E04D
:1031100083AFB50180E693E00E94E50DD7011296DA
:103120008C9186FDA8C0D70114968C911497F80154
:10313000878315968C911597808716968C91169794
:10314000818711968C911197828713968C91139792
:103150001A96DC901A97813009F075C31B963C9043
:10316000FAE03F129BC0D801D7966D917C916D5FBC
:103170007F4F4AE050E0CE0101960E94552D4AE073
:1031800050E0BE016F5F7F4FC7010C960E94723402
:10319000892B09F088C3F8018281938161E070E096
:1031A00002960E94BB12D80112968D919C9140ED1F
:1031B00057E060E070E088960E94EA0FF7014081D6
:1031C000B7016C5F7F4FC8010E94A517D12CC12C9D
:1031D000312C9AC0F7018081898381818A83B280F2
:1031E000BB82D380DC8284818D8385818E838681BE
:1031F0008F83878188878085898781858A87828573
:103200008B87A384AC868EE13C96DE011D960190EF
:103210000D928A95E1F768E573E0CE0108960E9469
:103220007F0D882339F0F1E0DF1204C02AE0A216F6
:1032300009F45CCFB2FE05C080EC8D0D823008F43D
:1032400055CF8C2DE3960FB6F894DEBF0FBECDBFE1
:10325000DF91CF911F910F91FF90EF90DF90CF9072
:10326000BF90AF909F908F907F906F905F904F90A6
:103270003F902F900895B7016C5F7F4FC80107966C
:103280000E947F0D882309F44ECFD8011A969C9195
:10329000F7018181981347CFC12CD3CFB1E03B1206
:1032A000B5C0DD2009F4FFC2D801DA968C91DA9717
:1032B0008D1508F4F8C2DD96CD90DC90C7010E9410
:1032C0009C0D4701BCE08B0E911C5601E8E0AE0E50
:1032D000B11C813009F057C0B401C5010E943414FB
:1032E000C5010E940E148F3F09F48DC0682FC601DE
:1032F0000C960E94400144E050E0BC01C4010E94D1
:103300006E2D81E0F80181AFF701828185FF2DC02C
:10331000BE01625D7F4FC2010E947F0D882329F1AB
:10332000F1E03F12D4C2A7014C5F5F4FC114D1043A
:1033300009F4BCC2D8011296ED91FC9182A99EE0DD
:10334000F701908392E0938312823286D6011B9616
:103350009C919387148615868687B701C8010E94C1
:10336000B115F60182858E7F8287D80112968D91E4
:103370009C9142E350E060E070E088960E94EA0F82
:10338000CC24C3945ECFD70150968C9150971C9655
:103390009C911C9799831D969C911D979A831E96CC
:1033A0009C919B838C83B401C5010E943414BE019F
:1033B0006F5F7F4FC5010E943414C5010E940E1437
:1033C0008F3F09F13601BCE06B0E711C682FC30101
:1033D0000E94400144E050E0BC01C4010E946E2DF7
:1033E000C5010E940E148F3F51F0682FC3010E9447
:1033F000400144E050E0BC01CE01019680CFB40111
:10340000C5010E94341482E0382E7ECFF2E03F12D4
:1034100037C0DD2009F447C2D801DA968C91DA97DB
:103420008D1508F440C2DD96CD90DC905601B8E0D1
:10343000AB0EB11CB701645F7F4FC5010E9434140D
:10344000982EC7010E949C0D823081F4F70180897B
:103450009485998395859A8396859B838C83BE01F9
:103460006F5F7F4FC5010E9434149822992009F4A0
:103470004BCF81E0D801D9968C933324339444CF39
:10348000B3E03B1270C0DD2009F4F0C0F80192AD4A
:103490009D1508F49BCE65AC76ACD70111969C9136
:1034A000119714962C9114972BA715962C9115977C
:1034B0002CA716962C912DA75801BBE0AB0EB11C82
:1034C0002AE1238720E1268720E22587858B9487C0
:1034D0004801E6E18E0E911C6401212C312CF8E0AC
:1034E0006F0E711C26E0221641F1422DB301CE0170
:1034F00001960E94F613CE0101960E94700D88235A
:10350000D1F0339484E0FE013196D60101900D9202
:103510008A95E1F784E0C80ED11C94E039120BC003
:10352000AE01455D5F4FB501C8010E94B115640150
:10353000312C882311F02394D5CF84E0D6011D923D
:103540008A95E9F7832D880F880F825FF8018387BA
:1035500085858F7D8587AE01455D5F4FB501C801CB
:103560000E94B11533CEF4E03F1282C0D7015096CD
:103570002C91A701445F5F4F6D2DC8010E94B214CA
:1035800029833A834B835C836D837E838F83E981B8
:10359000FA81FBABEAAB22E0322EEF2B09F4B8C084
:1035A000D70111968C91119714969C9114979BA713
:1035B00015969C9115979CA716969C919DA73801EE
:1035C000BBE06B0E711C9AE1F801938790E196873E
:1035D00090E2958792E0958B84871801F6E12F0E93
:1035E000311C6101B12CA12C19AA8B818A151B04F5
:1035F00051F14CF1EC81FD818A2D0995D6018C9316
:103600004601B2E08B0E911C8AA99BA98A0D9B1DD5
:103610000E942D13F6018183F9A9FF5FF9ABF83001
:1036200059F4AE01455D5F4FB301C8010E94B11569
:10363000882339F0410119AA2FEFA21AB20A6401B6
:10364000D4CF610119AAD6011C9211961C9289A9A6
:103650008A5F880FF801838785858F7D8587AE0116
:10366000455D5F4FB301C8010E94B115312C50C0B8
:10367000FEE03F122CC0D801DD96CD90DC90DE97A5
:10368000F70121811296ED91FC9182A9D6011B963A
:103690009C91F801338630E1368736E0358B2487FC
:1036A000968B178A108E818F82E08587A7014C5FE9
:1036B0005F4FB801655F7F4FC8010E94B115D60109
:1036C0001A968C911A978E7F1A968C937FCDB5E0BF
:1036D0003B1221C0F801D7AED70150962C91A7011B
:1036E000445F5F4F6D2DC8010E94B214F801E05C89
:1036F000FF4F20833196308331964083319650833B
:10370000319660833196708331968083332433946D
:10371000D12CC12CF9CDB6E03B1232C0F80181AFFB
:10372000E05CFF4F20813181D801DB968D919C9127
:10373000DC972817390781F412968D919C9170E0DF
:1037400060E002960E94BB12D801ED91FC910480CA
:10375000F581E02DC80109958FEFF80187AF8AE068
:10376000D7018C9382E013968C93139712968C93C7
:1037700012971A961C92A7014C5F5F4FB701EFCECC
:10378000B8E03B1240C0F80187AD8D1519F0D12C7F
:10379000C12C73CE4801F0E48F0E911CD4018D91A1
:1037A0009C91892BA1F3F70180818B3008F48BE089
:1037B00095EF392E380E5701FCE0AF0EB11C6501B4
:1037C000380125E4620E711C8C2D8A198315F8F6D8
:1037D000D60111962C90D301ED91FC91D6018C91DC
:1037E00009958F3F61F0F40160817181680F711D4F
:1037F000298241E050E0CE0101960E946E2DF2E058
:10380000CF0ED11CE1CF29E032124DC0D701119665
:103810008C9194E1F801938790E196871586158A3B
:103820008487168A67A970AD6D5F7F4F4AE050E0CC
:10383000C80146960E94552DA7014C5F5F4FB80105
:10384000655F7F4F8CCE813159F5F4E0DF1619F0BA
:103850002AECD212BBCC8AE0D7018C9382E013967B
:103860008C93139712961C9212971A961C92A7018A
:103870004C5F5F4FB701C8010E94B115BAECDB1273
:103880000BC088E19CE00FB6F894A8958093600087
:103890000FBE90936000FFCFC8010E94541396CCD6
:1038A000823109F474CFD12CC12CADCD8AE0D7017F
:1038B0008C9382E013968C93139712961C92129716
:1038C0001A961C92B701C8010E94B1154ECDB2E004
:1038D0003B124BCD8AE0F70180833382128280E86D
:1038E0008287A7014C5F5F4FEDCF0C94E4330C94BB
:1038F000E4330C94E4330C94E4330C94E433CF932A
:10390000DF93EC010E94F30CCE01DF91CF910C9478
:10391000E4330C94E4330C94E433CF93DF93EC0161
:103920000E94180DCE01DF91CF910C94E4330C94DA
:10393000E4330C94E4330C94E4334F925F926F922F
:103940007F928F929F92AF92BF92CF92DF92EF922F
:10395000FF920F931F93CF93DF93CDB7DEB72C97D2
:103960000FB6F894DEBF0FBECDBF8C0180E090E0B3
:10397000A0ECBFE789839A83AB83BC838D839E834E
:10398000AF83B88789879A87AB87BC879E012B5FF7
:103990003F4FAE014F5F5F4FBE01675F7F4FC80172
:1039A0000B960E94B60389809A80AB80BC8020E091
:1039B00030E040E251E4C501B4010E94792F0E9439
:1039C000652EF80172836183C984DA84EB84FC84F8
:1039D00020E030E040E251E4C701B6010E94792FB7
:1039E0000E946C2EF801748363836185728590E078
:1039F00080E00E949B2E2B013C01AC019B010E94A8
:103A00003630811171C0A5019401C501B4010E9435
:103A10003630811169C0A7019601C701B6010E9425
:103A20003630811161C024EF3DEF44ED5BE3C3010B
:103A3000B2010E94792F2B013C01AC019B01C50111
:103A4000B4010E94872D23E333E948E853E40E9440
:103A5000872D9B01AC01C301B2010E94F32D9B0194
:103A6000AC0160E070E080E89FE30E94862D28E5CD
:103A700039E348EA50E40E94E62F9B01AC01C701FC
:103A8000B6010E94F32D20E030E040E251E40E94B4
:103A9000792F0E946C2EF8017683658320E030E058
:103AA00040E251E46D817E818F8198850E94792F5B
:103AB0000E946C2EF801708767832C960FB6F894DD
:103AC000DEBF0FBECDBFDF91CF911F910F91FF9051
:103AD000EF90DF90CF90BF90AF909F908F907F90AE
:103AE0006F905F904F90089560E070E080EC9FE7EA
:103AF000CACF2F923F924F925F926F927F928F9296
:103B00009F92AF92BF92CF92DF92EF92FF920F936C
:103B10001F93CF93DF93CDB7DEB766970FB6F894B8
:103B2000DEBF0FBECDBF8C017B8B6A8BFC01FE9686
:103B30001082118212821382BC961086178216821E
:103B4000158214821382128211828081882319F0D7
:103B5000CF010E949D1CF801E559FF4F80819181A2
:103B6000D801D9969C938E93D89734968081918171
:103B7000F80193AF82AFEF58FF4F80819181DD96BE
:103B80009C938E93DC973A972080222009F4A7C05B
:103B90007801BAE5EB0EF11CF701818192810E9458
:103BA000AD116CECD70111968D919C910E94680B20
:103BB00064E4F701818192810E94680B6AE174E0FC
:103BC00080E090E00E943E03312CAE01465F5F4FE3
:103BD0005F874E87E2E2FCEFD7011496FC93EE93E9
:103BE000139711968D919C910E94AD11D70111965A
:103BF000AD90BC9065E5C5010E94680B6701B5E01A
:103C0000CB0ED11C4701EDE08E0E911CD6016D91BB
:103C10006D01C5010E94680BC814D904B9F76EEB99
:103C2000F701818192810E94680BAE014F5F5F4F67
:103C30006A01488BD98AD70111966D907C9068E013
:103C4000A62EB12C512C44244394C3010E94150B81
:103C500081115428440CB1E0AB1AB108B1F7F60158
:103C600051926F014E855F854E175F0721F768E01F
:103C7000888999890E94FE0A998589132CC08981B7
:103C80009A81D70115962C91203109F027C253E073
:103C9000880F991F5A95E1F72885203141F42F812B
:103CA000ECE0F0E0E21BF109807F8E0F9F1FFAE04D
:103CB000F89F9001F99F300D112437FF02C0215F5A
:103CC0003F4F44E0359527954A95E1F7D701149683
:103CD0003C932E9313973394740123107BCFF801F8
:103CE000E35AFF4F80819181F80191AF80AF00844A
:103CF000F185E02DA281B38190968D919C91D801A0
:103D0000AB5BBF4F8D939C9364E2848195810E944D
:103D1000A1136115710561F0D801D8962D913C91E0
:103D2000D997C901860F971FD9969C938E93D897E0
:103D3000D8011896ED91FC9168E2848195810E94EA
:103D4000A1136115710541F0F80122AD33ADC90130
:103D5000860F971F93AF82AFD8011896ED91FC9113
:103D60006CE2848195810E94A1136115710541F077
:103D7000F80124AD35ADC901860F971F95AF84AF0B
:103D8000D801D8966D917C91072E000C880B990B69
:103D90000E949D2E20E030E040E251E40E94F32D8D
:103DA0006B017C01F80164AD75AD90E080E00E948C
:103DB0009B2E20E030E040E251E40E94F32D4B01C5
:103DC0005C01A7019601C701B6010E94363081113E
:103DD00093C1A5019401C501B4010E94363081113F
:103DE0008BC129E23CE54DE851E4C701B6010E94D0
:103DF000792F2B013C0120E030E843E753E4C70171
:103E0000B6010E94872D9B01AC01C301B2010E9443
:103E1000F32D9B01AC0164E578EF8DE290E40E9404
:103E2000E62F21E835E943EC50E40E94792FA50103
:103E300094010E94792F2BE63FE140E951E40E9472
:103E4000792F2B013C0123E333E948E853E4C70110
:103E5000B6010E94872D24E138E045E051E40E943C
:103E6000792F9B01AC01C301B2010E94F32D20E028
:103E700030E048EC52E40E94792F0E946C2EF80149
:103E8000E85BFF4F71836083A7019601C701B6010C
:103E90000E943630811135C1A5019401C501B401DC
:103EA0000E94363081112DC120E030E048EC52E410
:103EB000C501B4010E94F32D0E94312F4B015C011A
:103EC00020E030E04DE851E4C701B6010E94792FAF
:103ED0002B013C012DE33AE043E753E4C701B6016F
:103EE0000E94872D9B01AC01C301B2010E94F32DFA
:103EF0006B017C01AC019B01C501B4010E94872DBF
:103F00002DE33AE043E753E40E94792F2B013C0173
:103F1000A501940160E070E08DE891E40E94862D97
:103F2000A70196010E94862D9B01AC01C301B2013D
:103F30000E94F32D20E030E040E251E40E94792F0E
:103F40000E94652EF801E65BFF4F71836083D80104
:103F500018968D919C91DC0116962C9116972F5FE7
:103F600016962C93D801DC968D919C9105966AE06B
:103F700070E00E946031462F3801BEE06B0E711C6C
:103F80005081588B8181898B329790819C8BA18144
:103F9000AD8BF801E084F184D7011296ED91FC918C
:103FA000D801AB5BBF4F5C915E8B11962C90119743
:103FB00013973C9014974C9011965C901197129621
:103FC0008C90129713969C90D801DA96DC90DA9731
:103FD000DB96CC90DB97D896BC90D897D9963C913D
:103FE0003F77A68C80A191A164E670E00E946031C9
:103FF000A616170611F008F03068822F64E10E94BF
:10400000543184E0923009F482E299E1F801968714
:1040100090E7918B808B308F2787B18EC28ED38EA5
:10402000448F958E868E578E40A231A222A24E8951
:1040300043A34D8944A34C8945A3498946A3488994
:1040400047A382FF63C08F7C8460808B48E553E088
:10405000B301C7010E94B115D8011896ED91FC91EA
:10406000C480D58040E060E2C6010E946313F82E50
:1040700040E061E2C6010E9463132F2D30E0322F31
:104080002227280F311DA4E6B0E00E949631F801E6
:10409000658376838783B8018A899B890E94E50DB1
:1040A000F801E95BFF4F81E0808366960FB6F894D4
:1040B000DEBF0FBECDBFDF91CF911F910F91FF905B
:1040C000EF90DF90CF90BF90AF909F908F907F90B8
:1040D0006F905F904F903F902F9008952D812076A4
:1040E00011F4887FE4CD203211F48C7FE0CD2034B0
:1040F00009F0DDCD8E7FDBCD60E070E080EC9FE7E6
:10410000B6CE60E070E080EC9FE714CFD12CC12CDC
:10411000412C580158E0A50EB11C480182E1880EDF
:10412000911C96E0C916D10409F498C04C2DB50134
:10413000CE010A960E94F613CE010A960E94700DD7
:10414000382E882309F45EC0512C452DB501CE01CF
:1041500001960E94F613BE016F5F7F4FCE010A9653
:104160000E947F0D811106C05394A6E05A12EDCF34
:1041700055245A945C141D040CF444C01B821A820A
:104180001982BE016F5F7F4FF70187A990AD0E9432
:10419000E712BE016F5F7F4FCE010A960E947F0D2E
:1041A0008823F1F1B401D701D7968D919C910E949B
:1041B000E712F8018289858B8389868B8489878BB6
:1041C00068E573E0C4010E947F0D882341F0D801A7
:1041D00050968C9150978F7D846050968C93F80107
:1041E000808985FF13C08F7D808BD701ED91FC9175
:1041F0000680F781E02DB301C7010995F801808998
:104200008062808BBFEFCB1ADB0A8BCFD701ED9199
:10421000FC910680F781E02DB301C7010995F2CF2B
:10422000AE01465F5F4FB501CE0101960E94761444
:1042300089819A810E942D13F801908980FF0BC01B
:104240009061908BAE01465F5F4FB301C7010E9442
:10425000B115432CD7CF9F7E908BF4CF4110FCCE6D
:10426000F70164817581CE0101960E947D13AE0134
:104270004F5F5F4FEDCE1F920F920FB60F9211243A
:104280002F933F934F935F936F937F938F939F935E
:10429000AF93BF93EF93FF9386EA92E00E94CE0123
:1042A000FF91EF91BF91AF919F918F917F916F910E
:1042B0005F914F913F912F910F900FBE0F901F90E4
:1042C00018951F920F920FB60F9211242F938F9370
:1042D0009F93EF93FF93E091B602F091B702808134
:1042E000E091BC02F091BD0282FD1BC090818091E3
:1042F000BF028F5F8F732091C002821741F0E0915F
:10430000BF02F0E0EA55FD4F958F8093BF02FF9109
:10431000EF919F918F912F910F900FBE0F901F9053
:1043200018958081F4CF1F920F920FB60F9211242F
:104330002F933F938F939F93AF93BF9380911202DC
:1043400090911302A0911402B091150230911102C4
:1043500026E0230F2D3758F50296A11DB11D20939D
:1043600011028093120290931302A0931402B0934F
:1043700015028091160290911702A0911802B09137
:1043800019020196A11DB11D809316029093170288
:10439000A0931802B0931902BF91AF919F918F9192
:1043A0003F912F910F900FBE0F901F90189529E805
:1043B000230F0396A11DB11DD2CF1F920F920FB6EE
:1043C0000F9211242F933F934F935F936F937F939B
:1043D0008F939F93AF93BF93EF93FF93E09102016D
:1043E000F09103010995FF91EF91BF91AF919F91DA
:1043F0008F917F916F915F914F913F912F910F908E
:104400000FBE0F901F9018951F920F920FB60F922C
:1044100011242F933F934F935F936F937F938F93C9
:104420009F93AF93BF93EF93FF93E0910001F091BF
:1044300001010995FF91EF91BF91AF919F918F91EC
:104440007F916F915F914F913F912F910F900FBE90
:104450000F901F9018951F920F920FB60F92112474
:104460002F933F934F935F936F937F938F939F937C
:10447000AF93BF93EF93FF938091B900887F80360D
:1044800009F44AC0F0F5883209F4A7C018F5803164
:1044900009F49BC0B8F4882309F4F9C0883009F402
:1044A00094C0FF91EF91BF91AF919F918F917F91B8
:1044B0006F915F914F913F912F910F900FBE0F9091
:1044C0001F901895883109F488C0803251F7809385
:1044D0007A0214C0803409F49DC040F48033B9F3EB
:1044E0008833F9F680937A0285ECB0C0803509F400
:1044F00085C0883509F496C0883499F60E946E12FA
:10450000D0CF883909F48CC038F5883729F050F4B9
:10451000883611F0803729F683E080937C02109270
:10452000F00157C0883809F47BC0803919F0803811
:1045300009F0B7CF8091F001803208F071C0E091AE
:10454000F00181E08E0F8093F0018091BB00F0E0DC
:10455000E053FE4F80833DC0803B39F0E0F4803A69
:1045600009F479C0883A09F09CCF84E080937C02FA
:104570001092CF011092CE01E0911E02F0911F0225
:1045800009958091CE0181110FC081E08093CE0109
:104590001092AE0109C0803C09F4A6CF883C09F412
:1045A000A3CF883B09F07DCFE091CF0181E08E0F52
:1045B0008093CF01F0E0E255FE4F80818093BB00F5
:1045C0009091CF018091CE0129C0809157028093B4
:1045D000BB0085EC8093BC0064CF90917902809100
:1045E0007802981758F5E091790281E08E0F809358
:1045F0007902F0E0E85AFD4F8081E9CFE09179023D
:1046000081E08E0F809379028091BB00F0E0E85A40
:10461000FD4F808390917902809178029817C8F2BB
:1046200085E8D8CFE091790281E08E0F80937902FE
:104630008091BB00F0E0E85AFD4F808380917B02BF
:1046400081115CCF81E08093560284EA8093BC00A4
:1046500010927C0226CF85EC8093BC0010927C02E5
:104660008091F001803230F4E091F001F0E0E0530D
:10467000FE4F10826091F00170E0E0911C02F09119
:104680001D0280ED91E009951092F0010ACF109281
:104690007A0234CF1F920F920FB60F9211248F938C
:1046A0000FB6F894A89580916000886180936000AF
:1046B000109260000FBE8F910F900FBE0F901F9051
:1046C00018951F920F920FB60F9211242F933F93BC
:1046D0004F935F936F937F938F939F93AF93BF930A
:1046E000CF93DF93EF93FF93CFE4D3E060E0898132
:1046F0000E94AF021092B1006A817B818C819D8102
:104700000E946C2E6093B30081E08E83FF91EF9145
:10471000DF91CF91BF91AF919F918F917F916F91D9
:104720005F914F913F912F910F900FBE0F901F906F
:1047300018951F920F920FB60F9211240F900FBE73
:104740000F901F9018951F920F920FB60F92112481
:104750002F933F934F935F936F937F938F939F9389
:10476000AF93BF93EF93FF93EBE5F3E084818F5F0B
:104770008483CF010E945D10FF91EF91BF91AF91B3
:104780009F918F917F916F915F914F913F912F9169
:104790000F900FBE0F901F9018951F920F920FB69B
:1047A0000F9211242F933F934F935F936F937F93B7
:1047B0008F939F93AF93BF93EF93FF9380E693E024
:1047C0000E945D10FF91EF91BF91AF919F918F91EA
:1047D0007F916F915F914F913F912F910F900FBEFD
:1047E0000F901F9018951F920F920FB60F921124E1
:1047F0002F933F934F935F936F937F938F939F93E9
:10480000AF93BF93CF93EF93FF9399B1C0912202DF
:104810008091520230914F02292F20952323892322
:10482000822B20916D00C927C223C82390932202B6
:10483000CC23C1F1C0FF05C0E0912302F091240216
:104840000995C1FF05C0E0912502F0912602099566
:10485000C2FF05C0E0912702F09128020995C3FF2D
:1048600005C0E0912902F0912A020995C4FF05C014
:10487000E0912B02F0912C020995C5FF05C0E09153
:104880002D02F0912E020995C6FF05C0E0912F027E
:10489000F09130020995C7FF05C0E0913102F09117
:1048A00032020995FF91EF91CF91BF91AF919F9106
:1048B0008F917F916F915F914F913F912F910F90C9
:1048C0000FBE0F901F9018951F920F920FB60F9268
:1048D00011242F933F934F935F936F937F938F9305
:1048E0009F93AF93BF93CF93EF93FF9396B1C091F4
:1048F00033028091530230915002292F20952323B7
:104900008923822B20916C00C927C223C82390934E
:104910003302CC2351F1C0FF05C0E0913402F09185
:1049200035020995C1FF05C0E0913602F0913702CA
:104930000995C2FF05C0E0913802F091390209954E
:10494000C3FF05C0E0913A02F0913B020995C4FF14
:1049500005C0E0913C02F0913D020995C5FF05C0FC
:10496000E0913E02F0913F020995FF91EF91CF91C6
:10497000BF91AF919F918F917F916F915F914F9177
:104980003F912F910F900FBE0F901F9018951F927F
:104990000F920FB60F9211242F933F934F935F9373
:1049A0006F937F938F939F93AF93BF93CF93EF9327
:1049B000FF9393B1C0914202809154023091510211
:1049C000292F209523238923822B20916B00C9272F
:1049D000C223C82390934202CC2351F1C0FF05C0EB
:1049E000E0914302F09144020995C1FF05C0E091B6
:1049F0004502F09146020995C2FF05C0E0914702C9
:104A0000F09148020995C3FF05C0E0914902F09179
:104A10004A020995C4FF05C0E0914B02F0914C0297
:104A20000995C5FF05C0E0914D02F0914E02099530
:104A3000FF91EF91CF91BF91AF919F918F917F9116
:104A40006F915F914F913F912F910F900FBE0F90FB
:104A50001F9018959F92AF92BF92CF92DF92EF92E4
:104A6000FF920F931F93CF93DF93E6EAF2E0138256
:104A7000128288EE93E0A0E0B0E084839583A68361
:104A8000B7832EE031E03183208325EC30E0358799
:104A9000248724EC30E03787268720EC30E0318B08
:104AA000208B21EC30E0338B228B22EC30E0358BF5
:104AB000248B26EC30E0378B268B118E128E138ED2
:104AC000148EE3E4F3E01382128284839583A68339
:104AD000B78380E291E09183808310925603E8E5EA
:104AE000F3E0128211821082E0E6F3E0118210827C
:104AF00013821282EBE5F3E011821082138212829C
:104B00001482E4EEF4E001E010E0118300831383EB
:104B10000283158304831783068385E0E82EF12C36
:104B2000F186E086138612861586148696E7C92ECE
:104B3000D12CD786C686ECE7F4E015821482178262
:104B40001086118686E991E093838283128A138A04
:104B5000148A158A9924939490928204118E108E4F
:104B600010929604138E148E158E168E178E11A227
:104B700010A212A213A214A215A28AE891E0978BA8
:104B8000868B88EC90E097A386A313A612A615A6A1
:104B900016A617A680E891E091A780A710AA909288
:104BA000A80412AA16AA15AA10AE11AE12AE86E774
:104BB00091E094AB83AB13AE9092B30488E084AFE2
:104BC00089EB94E00E94620DCDE7D3E082E591E0AD
:104BD000998388831B821A8288EB93E09D838C8360
:104BE0001E82198618861F821A8688E893E00E9422
:104BF000620D80E290E09EAB8DAB2AE032E038AFF0
:104C00002FAB19AE9AAE9CAF8BAF8FEF8FAF1092D8
:104C1000BE031092BD031092BF031092C103109205
:104C2000C0031092C3031092C2038EE591E09983F2
:104C300088831092CD031092CC03EEECF3E08081D8
:104C40008E7F8D7F80831092CF031092D1031092BC
:104C5000D0031092C7031092C6031092C80380E7D6
:104C600097E1A0E08093C9039093CA03A093CB037C
:104C700024ECA22E23E0B22E88E491E0F50191838A
:104C8000808382ED93E00E94620D1092FD031092EA
:104C9000FC031092FF031092FE0310920104109285
:104CA0000004109202041092030410920404109263
:104CB0000504109206041092080410920704109242
:104CC0000A041092090490920B0410920D041092A1
:104CD0000C0410920F0410920E0460E080E10E9418
:104CE000DD02E6E0F2E0E491E0931004E2EFF1E0AF
:104CF000E491F0E0EE0FFF1FE852FE4F8591949192
:104D0000909312048093110410921B0410921D04BE
:104D100010921C0410921A04109219041092180494
:104D20001092170410921604109215041092140495
:104D30001092130410921E041092200410921F046B
:104D400082E29CEF909322048093210410922B0422
:104D500010922E041092300410922F0410923204FC
:104D600010923104109234041092330410923604DD
:104D700010923504109238041092370410933C04BA
:104D800000933B0410933E0400933D0410934004B1
:104D900000933F041093420400934104F0924404B2
:104DA000E092430484E090E09093460480934504AD
:104DB000109248041092470410926B0428E331E0EB
:104DC00030933A042093390410936D0400936C04DB
:104DD00010936F0400936E04109371040093700499
:104DE0001093730400937204F0927504E0927404BB
:104DF000909377048093760410927904109278044B
:104E0000D0927B04C0927A04BEAEADAE8AE691E049
:104E100099838883E4E6F3E0138212821092680398
:104E2000158216821782ACE6B3E08C91887F816090
:104E300088608C9311861786168610927403118AE7
:104E4000128A138A82E391E095878487F58BE48B3D
:104E500080EA91E091838083D08FC78B8CE291E0D0
:104E600093878287DF91CF911F910F91FF90EF90F1
:104E7000DF90CF90BF90AF909F900895CF93DF9336
:104E8000CDB7DEB761970FB6F894DEBF0FBECDBFCA
:104E9000789484B5826084BD84B5816084BD85B515
:104EA000826085BD85B5816085BD80916E00816021
:104EB00080936E00109281008091810082608093C7
:104EC00081008091810081608093810080918000C9
:104ED0008160809380008091B10084608093B100F4
:104EE0008091B00081608093B00080917A008460EE
:104EF00080937A0080917A00826080937A0080911A
:104F00007A008E7F80937A0080917A008068809307
:104F10007A001092C1008091B8039091B9039C016E
:104F20002A5E3F4F3E872D87D12CCC24C39454EF6B
:104F3000452E55245394612CF090B703DF1408F0EC
:104F400066C1ED2DF0E0EE0FFF1FE358FC4FE5AC1E
:104F5000F6ACD394EDE7F3E0D7011996FC93EE930A
:104F600018971B96DC921B972D853E851D963C93CA
:104F70002E931C9717013AE5230E311C8701045B21
:104F80001F4F1F86C701895A9F4F998B888BD80165
:104F90001D968C9181112BC0C8010E94AD118823F0
:104FA00031F160EFC8010E94680BAA24A394812C00
:104FB000712CBB24B394C8010E94150B982EC80114
:104FC0000E94150BB1E09B1281C0813009F0A0C096
:104FD000E0E4EB1560F4D8011B967C921B977110EE
:104FE00002C01D96CC92F80183818111A8C0D8011E
:104FF0001B961C921B971D961C921D971C961C922B
:105000001C971A961C921A9719961C921997189623
:105010001C92189717961C92179716961C92169723
:1050200015961C92159714961C92149713961C9221
:10503000F701E959FF4FBF85B083D7011896ED916D
:10504000FC910481158140E062E2C8010E94631373
:10505000782E40E063E2C8010E946313382E10925C
:10506000210210922002109283021092A5020E9447
:105070002F09ECE3F1E0F0931F02E0931E022DE311
:1050800031E030931D0220931C023BE0232E870168
:1050900006591F4F58013BE0A30EB11C470185E79D
:1050A000880E911CC5010E947508F40192A99923EC
:1050B00011F0811179C02A94222009F475C064E6A8
:1050C00070E080E090E00E943E03ECCFE82DF0E03D
:1050D000981214C0D8011B968C911B97B816B0F487
:1050E000AE0FBF1F13968C918A2191F4912CB8E0DA
:1050F000BB1518F0D8011C96BC927B2CE00FF11F59
:1051000083819A2D9095892383830AC08B11EECFDA
:10511000F801E80DF11D83818A29838399249394F2
:10512000692DC8010E94390BB394AA0C19F4839419
:10513000AA24A394B7E0B81508F03DCF49CFF701F2
:10514000E15BFF4FDE0111965D0181918D9328890E
:1051500039892E173F07C9F73F85311148CF67E0DE
:10516000C5010E94FE0A9885891311CF898180317B
:1051700029F0823219F0883209F009CFD101129654
:105180001C930E931197CC92F1013596BDE02B0E36
:10519000311CD5012D915D012193E215F305C9F76D
:1051A0001F01B1E0BF87F3CED401D0968D919C91C1
:1051B0008835910549F18036910539F4F801C082AE
:1051C00064EE74E0C5010E946B08F80180818823B9
:1051D00059F0872D90E0982F8827830D911D928795
:1051E0008187C8010E949D1CD70115964D925D9242
:1051F0006C92B70180E693E00E94E50DED85FE8597
:105200007F96FE87ED8798CED801CC92D9CF60E00B
:1052100090E080E00E94500D8C0186E6C82E81E06F
:10522000D82EF6016491C8010E94500D8C01FFEF49
:10523000CF1ADF0A2CE7C21621E0D20691F7EE243E
:10524000E394FE14E8F080E00E94B80C682FC801D7
:105250000E94500D8C0180E00E943E01682FC80121
:105260000E94500D8C0180E00E94AC0C682FC80198
:105270000E94500D66E00E94500D8C01E394E1CF36
:1052800044E050E070E060E0CE0109960E945E2D9F
:10529000C801B0E0A0E0AE6FBA6C89839A83AB839B
:1052A000BC8349855A856B857C8584179507A6073D
:1052B000B70709F474C044E050E070E060E0CE014C
:1052C00001960E946E2D66E170E08091B803909186
:1052D000B9030E941E1285E00E94200D8F3FC9F085
:1052E000082F10E08091B8039091B903800F911FAF
:1052F0000E942D136091B8037091B903600F711F64
:105300008F738064898341E050E0CE0101960E9452
:105310006E2D68E182E10E94E01166E084E10E9466
:10532000E01162E080E20E94E011882321F068E54C
:1053300081E20E94E01160E082E20E94E011882395
:1053400021F060E083E20E94E01184E20E940012FA
:1053500088E20E9400128CE20E94001210E080910C
:10536000B7031817E0F4E12FF0E0EE0FFF1FE3584A
:10537000FC4FE5ACF6AC6FE170E0D7011C968D9167
:105380009C910E941E12F70164857585198241E087
:1053900050E0CE0101960E946E2D1F5FE0CF8CE79A
:1053A00094E09093800380937F031B821A8219827A
:1053B000BE016F5F7F4F8091B4039091B5030E944F
:1053C000E71281E18093900461E00E94DD028EE7A4
:1053D00094E00E94BE0CE8988FE491E09093010164
:1053E000809300018DEA94E090931B0280931A024F
:1053F00060E082E00E94DD0261E08AE00E94DD025E
:1054000061E08BE00E94DD0260E08CE00E94DD0242
:1054100061E08DE00E94DD0280E58CBD61E08AE004
:105420000E94AF0261E08DE00E94AF0260E08BE07D
:105430000E94AF020E94F50B0E94EF0B0E94EB0B43
:10544000F5E8FA95F1F700000E94F50B0E94EF0BCA
:1054500080E30E94E50B0E94EF0B0E94EB0B02E33E
:1054600011E0A6E6CA2EA1E0DA2EFF24F394F8019B
:1054700031966491F801849143E00E9441128111B8
:1054800001C0F12C0E5F1F4FC016D10681F783E3D8
:105490000E940F0C8FEA93EB0197F1F700C0000018
:1054A00043E060EC8EE30E944112FF2059F00E941D
:1054B000F50B0E94EF0B0E94EB0B0E941E0C84E385
:1054C0000E940F0C84EE9CE09093010180930001F8
:1054D000809169008C7F826080936900E89A80E106
:1054E00080938100109280001092850010928400B9
:1054F00080E49CE9909387008093860081E180930B
:1055000081000E94590C66E070E0F11002C068E072
:1055100070E08EE794E00E94BB128B8190E00196D0
:105520002AE0289F8001299F100D11248FEA94E022
:105530000E940F0F24E630E0D8010E94A53128EE2A
:1055400033E040E050E00E9474312093B404309383
:10555000B5044093B60481E08093B7046FEA74E029
:1055600080E693E00E94E50D61E089E00E94DD02A3
:1055700060E089E00E94AF0260E08FE00E94DD02FF
:1055800060E08FE00E94AF028091A2049091A3049A
:10559000813D974030F080ED97E09093A304809395
:1055A000A20487E880937A0010927B00E091920435
:1055B000F09193040680F781E02D82E994E009954B
:1055C00090939D0480939C0480E09BEEA1E4B0E066
:1055D00080939E0490939F04A093A004B093A10491
:1055E0008093970490939804A093990462E974E0DF
:1055F00080E693E00E94E50D88E180939A0486E1BD
:1056000080939B048091B203FCEFEF2EE80E85504F
:1056100090E004960E942D13D82E00E01EE5EE2D9A
:10562000E150FF0B7F01802F90E08E159F0534F431
:1056300004960E942D1318270F5FF5CF1D111DC072
:1056400084E090E00E942D13182F85E090E00E94E6
:105650002D13082F80EA810F8B3078F443E061E24C
:105660008DE00E94411243E0612F8EE00E944112C2
:1056700043E0602F8FE00E94411288E080936D0329
:1056800062E00E94DD02EEEFF1E08491EAEEF1E0EB
:105690009491923009F0C1C020915402282B20939C
:1056A000540220915102282B20935102E4E8F1E0AA
:1056B000A491923009F0BFC0B0E0AA0FBB1FAD5B50
:1056C000BD4F20EE3FE02D933C93ECEDF1E0A59132
:1056D000B4919C91909342022BE630E030934102CA
:1056E0002093400290916800916090936800A0918F
:1056F0004002B0914102EC918E2B8C9381E080931B
:10570000B6039091B703981708F0CEC016E00EE0EC
:1057100040E1B42E52E2A52EE12C0E943F10F82E5B
:105720008111C4C0E11004C00E943F108111C0C0AB
:1057300080917F0390918003DC01DC962C9122FF05
:1057400023C068E873E0C1960E9413158A30E0F028
:105750001B821A821982BE016F5F7F4F8091B40352
:105760009091B5030E94E712BE016F5F7F4F8CE8F6
:1057700093E00E947F0D811107C068E873E08DE718
:1057800093E00E944018F82E992493948091B703D7
:10579000891508F48FC0C090BA03D090BB03F601FE
:1057A000828580FB882480F880FF35C0F0908303D9
:1057B000F394F09283036091810370918203CE0190
:1057C00001960E947D13E0917F03F091800382A9EE
:1057D000D6011B969C9100938803B0928B03A092F4
:1057E0008A0310939203F09289039093930310928B
:1057F00094031092950380939603AE014F5F5F4F21
:1058000068E873E08DE793E00E94B115F6018285A8
:105810008E7F8287F82C9394B9CF933009F033C1EF
:1058200020915302282B2093530220915002282BC1
:10583000209350023BCF9330D1F4B0E0AA0FBB1FAE
:10584000AC5CBD4F20EE3FE02D933C93EEEDF1E0DC
:10585000A591B4919C91909333022CE630E0309363
:105860004102209340029091680092603ECF9430B4
:1058700009F03DCFB0E0AA0FBB1FAD5DBD4F20EEDC
:105880003FE02D933C93E0EEF1E0A591B4919C9123
:10589000909322022DE630E03093410220934002A3
:1058A00090916800946021CF8F5F2DCFEF2C35CF82
:1058B000E82E3ACFE110B0C0F110AEC080919C0448
:1058C00090919D0464E670E00E94603180919B0499
:1058D00086171706B9F0B0F08091B80480FD07C0B4
:1058E0000E94A6128091B80481608093B80430E0D1
:1058F00020E050E040E06AE070E085E592E00E9440
:10590000970BF5CF8091AC048111B7C080916F00E7
:105910008E7F80936F0080E693E00E94C00D009719
:1059200009F487C0FC01329709F483C0C580D68092
:10593000E780F12C82E693E00E94C00D892B09F0EC
:1059400069C0F1E0CF16D104E104F10409F462C0AA
:105950008091B80480FD07C00E94A6128091B8040F
:1059600081608093B80421E2C21623E0D206E104EC
:10597000F10408F062C035E6C316D104E104F10475
:1059800008F064C08DE0C816D104E104F10408F009
:1059900065C092E0C916D104E104F10408F066C0C4
:1059A0006AE070E0C12CD12C760130E020E050E0BC
:1059B00040E085E592E00E94970B80E693E00E942C
:1059C000C00D009719F1FC01329701F1A1E0CA1A4C
:1059D000D108E108F10885819681A781AC016A2F81
:1059E00070E041505109610971094C155D056E0562
:1059F0007F0530F46C01EA2EB1E0CB1AD108E10842
:105A00008C199D09AE0985839683A78380E693E070
:105A10000E945D100E94590C80E090E0892B09F4EF
:105A20007BCE0E94BA01882309F476CE0E94000042
:105A300073CEC12CD12C76017DCF69E070E030E2CD
:105A4000C32E33E0D32EE12CF12CAFCF66E070E013
:105A500024E6C22ED12CE12CF12CA7CF63E070E01C
:105A60009CE0C92ED12CE12CF12C9FCF70E060E09E
:105A7000C12CD12C7601C39498CF61E08DEA94E0DB
:105A80000E94C70CC9CF943009F010CE2091520269
:105A9000282B2093520220914F02282B20934F0253
:105AA00005CE8DE793E00C94180DFB01DC0102C0DC
:105AB00005900D9241505040D8F70895DC01CB017C
:105AC000FC01F999FECF06C0F2BDE1BDF89A31960E
:105AD00000B40D9241505040B8F70895DC01CB015D
