:100000000C9411010C945C1C0C94351C0C941F1F57
:100010000C94BC1E0C944B1E0C94A21D0C94B91D88
:100020000C9439010C94FB1D0C9439010C9439018A
:100030000C9439010C94251E0C9439010C9439014F
:100040000C94EB1B0C9439010C94B91B0C94931B6E
:100050000C9439010C94F11D0C9439010C94390164
:100060000C94831C0C94390108000000BE922449B2
:10007000123EABAAAA2ABECDCCCC4C3E00000080DA
:10008000BEABAAAAAA3E00000000BF000000803F4D
:100090000000000000084178D3BB4387D1133D190D
:1000A0000E3CC3BD4282AD2B3E68EC8276BED98F3A
:1000B000E1A93E4C80EFFFBE01C4FF7F3F0000007E
:1000C000000007634236B79BD8A71A39685618AEA6
:1000D000BAAB558C1D3CB7CC5763BD6DEDFD753E7D
:1000E000F6177231BF000000803F005EBCE2613F46
:1000F000DD83C29C7E20A3FD1F41009D23BE46DB05
:1001000065F88C11AF32CA57E97400000000240072
:1001100027002A0000000000250028002B00000016
:1001200000080002010000030407000000000000B6
:100130000000002E0206030D04E905CA070C0B0699
:100140000D210E650F6A10C81193120315341703A1
:10015000181819161B431E2F1F65207823E9242A1F
:10016000251F26113E030A0B0C0512142021222301
:100170002425262728292A2B2C2D2E2F0001020387
:10018000040506070001020304050001020304053B
:10019000000000000000000002140505000000003F
:1001A00002010A0100000000000000000000000041
:1001B0000000000000000000060305010101010A23
:1001C000060101010501050A020602020000000005
:1001D00005010804040404000000000023002600B8
:1001E00029000404040404040404020202020202BA
:1001F00003030303030301020408102040800102EB
:1002000004081020010204081020A5A510554E492D
:1002100053454E5330313000F10315700101821FF8
:100220004A2711241FBECFEFD8E0DEBFCDBF11E0BB
:10023000A0E0B1E0E6ECF9E502C005900D92A83926
:10024000B107D9F724E0A8E9B1E001C01D92A437B5
:10025000B207E1F711E0C0E1D1E004C02197FE014F
:100260000E94952BCF30D107C9F70E9426210C940C
:10027000D62C0C940000FC019081909528E030E091
:1002800081E397FF03C0990F982701C0990F215070
:100290003109B9F78181892728E030E091E387FFB0
:1002A00003C0880F892701C0880F21503109B9F791
:1002B00008950895089508958FEF0895663050F4D5
:1002C000FC01808191810196F5E06F9F800D911D69
:1002D0001124089590E080E008950895AF92BF92B0
:1002E000CF92DF92EF92FF920F931F93CF93DF9302
:1002F0006C017B018B01040F151FEB015E01AE1831
:10030000BF08C017D10759F06991D601ED91FC9152
:100310000190F081E02DC6010995892B79F7C5017F
:10032000DF91CF911F910F91FF90EF90DF90CF90D1
:10033000BF90AF900895FC01538D448D252F30E080
:10034000842F90E0821B930B541710F0CF960895E2
:1003500001970895FC01918D828D981761F0A28D0F
:10036000AE0FBF2FB11D5D968C91928D9F5F9F73D5
:10037000928F90E008958FEF9FEF0895FC01918D8B
:10038000828D981731F0828DE80FF11D858D90E0F8
:1003900008958FEF9FEF0895FC01918D228D892F95
:1003A00090E0805C9F4F821B91098F73992708957D
:1003B00086E992E00E94CC0121E0892B09F420E03B
:1003C000822F089580E090E0892B29F00E94D801C7
:1003D00081110C9400000895FC01A48DA80FB92F81
:1003E000B11DA35ABF4F2C91848D90E001968F735D
:1003F0009927848FA689B7892C93A089B1898C917C
:10040000837080648C93938D848D981306C00288CA
:10041000F389E02D80818F7D80830895EF92FF9294
:100420000F931F93CF93DF93EC0181E0888F9B8D17
:100430008C8D98131AC0E889F989808185FF15C0D1
:100440009FB7F894EE89FF896083E889F9898081F4
:100450008370806480839FBF81E090E0DF91CF91C3
:100460001F910F91FF90EF900895F62E0B8D10E0E5
:100470000F5F1F4F0F731127E02E8C8D8E110CC054
:100480000FB607FCFACFE889F989808185FFF5CF9F
:10049000CE010E94EC01F1CFEB8DEC0FFD2FF11D91
:1004A000E35AFF4FF0829FB7F8940B8FEA89FB89DC
:1004B00080818062CFCFCF93DF93EC01888D88233A
:1004C000B9F0AA89BB89E889F9898C9185FD03C0B7
:1004D000808186FD0DC00FB607FCF7CF8C9185FF9C
:1004E000F2CF808185FFEDCFCE010E94EC01E9CFF4
:1004F000DF91CF910895833081F028F4813099F015
:100500008230A9F008958730A9F08830C9F084308E
:10051000B1F4809180008F7D03C0809180008F773F
:1005200080938000089584B58F7784BD089584B545
:100530008F7DFBCF8091B0008F778093B0000895BE
:100540008091B0008F7DF9CFCF93DF93282F30E0DB
:10055000F901E25EFE4F8491F901EA50FE4FD49119
:10056000F901EE51FE4FC491CC23A1F081110E94FC
:100570007B02EC2FF0E0EE0FFF1FE852FE4FA5913B
:10058000B491EC91ED2381E090E009F480E0DF91FB
:10059000CF91089580E090E0FACF1F93CF93DF933F
:1005A000282F30E0F901E25EFE4F8491F901EA5014
:1005B000FE4FD491F901EE51FE4FC491CC23A9F026
:1005C000162F81110E947B02EC2FF0E0EE0FFF1F2F
:1005D000EC5EFE4FA591B4918FB7F894EC91111198
:1005E00008C0D095DE23DC938FBFDF91CF911F91A0
:1005F0000895DE2BF8CFCF93DF9390E0FC01EA5013
:10060000FE4F24918E519E4FFC0184918823C9F0A6
:1006100090E0880F991FFC01E65FFE4FA591B49111
:10062000FC01EC5EFE4FC591D49161110DC09FB7E6
:10063000F8948C91209582238C9388812823288399
:100640009FBFDF91CF910895623051F49FB7F89426
:100650003C91822F809583238C93E8812E2BEFCFC2
:100660008FB7F894EC912E2B2C938FBFEACF3FB726
:10067000F8948091080290910902A0910A02B09129
:100680000B0226B5A89B05C02F3F19F00196A11DAE
:10069000B11D3FBFBA2FA92F982F8827BC01CD01CC
:1006A000620F711D811D911D43E0660F771F881F2A
:1006B000991F4A95D1F708958F929F92AF92BF925A
:1006C000CF92DF92EF92FF926B017C010E94370381
:1006D0004B015C01C114D104E104F104B9F00E94A2
:1006E0003703681979098A099B09683E73408105B7
:1006F000910580F321E0C21AD108E108F10888EEE3
:10070000880E83E0981EA11CB11CE4CFFF90EF90EF
:10071000DF90CF90BF90AF909F908F9008952091E1
:10072000BE01260F3327331F21323105ECF420910F
:100730009002FC0190E080E0243069F082E00895AE
:10074000A091BE012191AC0142565E4FA40FB52F7E
:10075000B11D2C930196861798F38091BE01680F06
:100760006093BE0180E0089581E0089510929002A8
:1007700081E080936F0210926A0261E082E10E9440
:10078000CD0261E083E10E94CD02E9EBF0E08081DF
:100790008E7F808380818D7F808380E28093B8000C
:1007A00085E48093BC000895CF93DF9391E090930C
:1007B0009D018823B9F0C091B800D091BA00809112
:1007C000BC008A7B8093BC0060E082E10E94CD0285
:1007D00060E083E10E94CD020E94B603D093BA008C
:1007E000C093B800DF91CF910895CF92DF92EF923E
:1007F000FF920F931F93CF93DF93D82FC62F6132B1
:1008000008F098C00E9437036B017C018091900230
:1008100081116BC081E08093900280936F029FEF03
:1008200090936E0210926D029C0F90936C028093D5
:100830006B0280916B02DD0FD82BD0936B028091FD
:100840006A02813009F078C010926A020E94370370
:100850006B017C0180916B028093BB0080919202BE
:1008600090919302A0919402B0919502892B8A2BCA
:100870008B2BA1F00E9437030091920210919302FA
:1008800020919402309195026C197D098E099F097F
:10089000061717072807390708F448C08091BC00DD
:1008A00083FDD8CF85EC8093BC000E9437036B0199
:1008B0007C0180919002813009F440C080916D02EA
:1008C0008C1710F4C0916D02EAE4F2E0A0E7B2E008
:1008D00080E08C1355C08C2FDF91CF911F910F9129
:1008E000FF90EF90DF90CF900895809192029091C9
:1008F0009302A0919402B0919502892B8A2B8B2BA5
:1009000009F484CF0E943703009192021091930260
:1009100020919402309195026C197D098E099F09EE
:10092000061717072807390708F070CF8091910242
:100930000E94D403C0E0CFCF85EEB5CF8091920264
:1009400090919302A0919402B0919502892B8A2BE9
:100950008B2B09F4AECF0E943703009192021091C5
:10096000930220919402309195026C197D098E09B1
:100970009F09061717072807390708F09ACFD6CF1F
:1009800091919D938F5FA5CFCF92DF92EF92FF92CF
:100990000F931F93CF93DF93EC01162F672F88815E
:1009A00099812A8531E03093E1012093020210926F
:1009B000130210921202DC01ED91FC910190F08182
:1009C000E02D099588819981DC01ED91FC910190E0
:1009D000F081E02D612F0995D0911202D13208F0FB
:1009E00094C0C09102020E9437036B017C01809188
:1009F0009002811165C082E08093900281E0809333
:100A00006F028FEF80936E0210926D02D0936C0292
:100A1000A2EEB1E0EAE4F2E080E0D81385C01092E3
:100A20006B0280916B02CC0FC82BC0936B0280913C
:100A30006A02813009F07CC010926A020E9437037A
:100A40006B017C0180916B028093BB0080919202CC
:100A500090919302A0919402B0919502892B8A2BD8
:100A60008B2B99F00E943703009192021091930210
:100A700020919402309195026C197D098E099F098D
:100A80000617170728073907E0F18091BC0083FD9E
:100A9000D9CF85EC8093BC000E9437036B017C01A9
:100AA00080919002823009F445C080916E028F3FA0
:100AB00061F180916E02803241F180916E0225C019
:100AC0008091920290919302A0919402B09195022C
:100AD000892B8A2B8B2B09F48ACF0E943703009134
:100AE00092021091930220919402309195026C1918
:100AF0007D098E099F09061717072807390708F08F
:100B000076CF809191020E94D4031092130210922A
:100B100012021092E101DF91CF911F910F91FF908E
:100B2000EF90DF90CF9008959D9191938F5F75CF57
:100B300085EEB0CF8091920290919302A0919402A1
:100B4000B0919502892B8A2B8B2B09F4A9CF0E9497
:100B500037030091920210919302209194023091F8
:100B600095026C197D098E099F090617170728073A
:100B7000390708F095CFC5CF0895E091150280910F
:100B80001402E81730F4F0E0E059FD4F808190E066
:100B900008958FEF9FEF08959091150280911402B0
:100BA0002FEF3FEF981748F4E92FF0E0E059FD4FA1
:100BB000208130E09F5F90931502C90108958091D4
:100BC000140290911502891B990B0895CF92DF9220
:100BD000EF92FF920F931F93CF93DF937C01CB0192
:100BE0008A012091E101222389F0EB016B01C40EFF
:100BF000D51ECC15DD0569F06991D701ED91FC9109
:100C00000190F081E02DC7010995F3CF642F0E9478
:100C10008F03C801DF91CF911F910F91FF90EF904B
:100C2000DF90CF900895CF93DF931F92CDB7DEB7BB
:100C300069832091E1012223F9F0209112022032F0
:100C400058F021E030E0FC013383228390E080E023
:100C50000F90DF91CF91089580911302E82FF0E07B
:100C6000EE51FE4F998190838F5F809313028093A2
:100C7000120281E090E0ECCF61E0CE0101960E948B
:100C80008F03F7CF90E080E00895DC0180E06150B1
:100C900090F09D919827E92FEF70F0E0E651FF4F1B
:100CA0002491E92FE295EF70F0E0E650FF4FE491D8
:100CB000822F8E27ECCF0895DC012C911196ED91B7
:100CC000FC91F8948181822B81839281322F30951F
:100CD0009323928382E090E00197F1F7818183234F
:100CE000818380E190E00197F1F790817894E6E6C6
:100CF000F0E03197F1F7922381E009F480E0089564
:100D0000FC0190810180F281E02D292F209560FF68
:100D100014C0F8948281822382838181892B81830C
:100D2000A0E1B0E01197F1F78281982B928378943B
:100D30008AE690E00197F1F70895F8948281822382
:100D400082838181892B8183AEE7B0E01197F1F72F
:100D50008281982B9283789486E090E0EBCFEF929B
:100D6000FF920F931F93CF93DF93EC01E62E08E0E1
:100D700010E0FF24F39461E08E2D8F2109F460E0F0
:100D8000CE010E948006FF0C01501109A1F7F894D2
:100D9000E981FA8191818881809589238183E98124
:100DA000FA81928188818095892382837894DF916A
:100DB000CF911F910F91FF90EF900895411551052C
:100DC00029F4EAE7F0E080818F7780836A3071054B
:100DD000B9F0CB01880F991F880F991F8072677037
:100DE0006860682B88E10FB6F894A895809360003E
:100DF0000FBE60936000E0E6F0E080818064808355
:100E0000232BD9F483B7817F846083BFF89483B7A1
:100E1000816083BF85B7806685BF8F7D85BF7894ED
:100E2000889583B78E7F83BF7894452B29F4EAE7B2
:100E3000F0E0808180688083089583B7817F84603B
:100E400083BFF89483B7816083BF7894889583B714
:100E50008E7F83BF7894E9CF8EBD0DB407FEFDCFA2
:100E60008EB5089561E08AE00C94CD028CE00E947A
:100E7000A4028111FBCF089560E08AE00C94CD02BA
:100E8000CF93DF93D82FC62F0E943C070E943607CE
:100E90008D2F8C2B0E942C0780E00E942C07C82FDE
:100EA0000E9432078C2FDF91CF910895CF93C82FE6
:100EB0000E943C070E9436078C2F0E942C07C82FE7
:100EC0000E9432078C2FCF91089586E30E94560727
:100ED0008DE30E9456078AE30C945607BC0190E00C
:100EE00080E00E945C0384E090E030E020E060E17C
:100EF00070E040917A00406440937A0042E3509160
:100F00007A0056FF08C0FB013197F1F74150B9F75D
:100F100090E080E0089540917800509179005370FE
:100F2000240F351F019729F7C90196958795969546
:100F30008795237033272230310560F30196089599
:100F4000EFE6F0E08081816080830895863130F49F
:100F5000E82FF0E0EA59FE4F849108958FEF08954D
:100F6000CF93DF93EC0180917C00807380937C00B1
:100F700080917C00806C80937C0080917C008093C9
:100F80007C0061E089E00E94CD02888999890E94F5
:100F90006E07EC0160E089E00E94CD02209761F0CD
:100FA0009E01ACEFBEE90E947F2B20E038E240E0DA
:100FB00050E00E945D2BE901CE01DF91CF910895B1
:100FC000FC0110860895FC01962F97706085687F5C
:100FD000692B608708950895813011F08FEF08958F
:100FE00080E00895882311F08FEF089581E008953F
:100FF000883011F08FEF089580E00895882311F074
:101000008FEF089588E00895FC018289938960E05C
:10101000911101C061E00C94CD02FC018289938999
:1010200061E0911101C060E00C94CD021F93CF9359
:10103000DF93FC01238520FF11C0162FEC010E94D5
:101040003C070E9436070E94320711110E94650773
:1010500084E30E9456078B858E7F8B87DF91CF912B
:101060001F9108950895E0910C02F0910D0283857F
:1010700081FD03C083858C6083870895089508955A
:1010800080E008950F931F93CF93DF932EE431E018
:10109000FC01318320838C01065C1F4F81F0EC0141
:1010A000C855DF4F0C171D0751F0CE56D109E88106
:1010B000F9810280F381E02DCE010995F3CFDF9114
:1010C000CF911F910F9108950895089508952AE5ED
:1010D00031E0FC01318320830C9442080895982F5D
:1010E000E6E6F1E080E02491921729F08F5F3196D7
:1010F0008631C9F78FEF08950C946F0880917C00BA
:10110000807380937C0080917C00806480937C005D
:1011100080917C008E6080937C0082E390E00E944E
:101120006E07009751F09C0150E040E060E070E3F2
:1011300081E190E00E945D2BC90108950895862702
:1011400028E0BC0176956795AC014170552780FF7A
:1011500002C041E050EACB0184279527215089F74E
:101160000895FC0110821182128213821682158268
:101170001482118610861782128613860895FC0148
:101180008081811109C08181811106C081E0928135
:10119000911103C080E0089581E00895DC01FB0116
:1011A0009C91808198130BC011969C91119781811D
:1011B000981305C081E012962C919281291380E04A
:1011C0000895FC013381FB012381321302C00C948A
:1011D000CE0880E00895CF93DF9300D000D0CDB744
:1011E000DEB7FC0180899485998395859A839685DD
:1011F0009B838C83882389F0BF01645F7F4FCE017E
:1012000001960E94E108811108C082E00F900F90C2
:101210000F900F90DF91CF91089581E0F7CF2FB716
:10122000F894FC01808191812FBF0895FF920F9364
:101230001F93CF93DF93EC018B01FFB6F8940E94CC
:101240000F099C019FB7F894F801318320839FBF59
:101250008FB7F894198308838FBFFFBEDF91CF91BA
:101260001F910F91FF9008956F927F928F92DF925E
:10127000EF92FF920F931F93CF93DF937B0122E0B6
:10128000E20EF11CDB0115962D913D914C91232B23
:10129000242B09F44DC0EB01DFB6F8942C812260B9
:1012A0002C838C010E940F09009709F43EC0FC01B9
:1012B0003297A1F06580768087802D813E814F81B5
:1012C000CF01029662167306840650F42619370978
:1012D00048092D833E834F838C01E4CF90E080E06A
:1012E0002FB7F8949B838A832FBF8FB7F894D801C8
:1012F000ED92FC928FBF309761F085819681A78136
:101300002D813E814F81821B930BA40B8583968395
:10131000A783DFBEDF91CF911F910F91FF90EF90D8
:10132000DF908F907F906F900895F0E0E0E0D8CF4D
:10133000B7010296DF91CF911F910F91FF90EF902F
:10134000DF908F907F906F900C9416091F93CF932E
:10135000DF93EC01FB012885922F9770943079F090
:1013600040F4923051F0933039F1DF91CF911F91D9
:101370000895953009F19630C1F711E012C023FDB0
:1013800021C02A853B852550310913E021153105FF
:1013900041F040E02D833E834F83BE01CF010E9488
:1013A0003409E881F9810680F781E02D612FCE01B3
:1013B000DF91CF911F91099423FDD7CF2A853B85DB
:1013C00015E0E4CF25E030E012E0E3CF0F931F9368
:1013D000CF93DF93EC018B01E88981E08E0F888B3E
:1013E000EC0FFD2FF11D228530E0A4E6B0E00E9455
:1013F0007F2B2AE030E040E050E00E945D2B2D83FF
:101400003E834F83BE01C8010E94340988898170E0
:10141000DF91CF911F910F9108950F931F93CF9359
:10142000DF93EC018B01E881F9810680F781E02DE3
:1014300009959B878A878C859D85AE858D839E8344
:10144000AF83BE01C801DF91CF911F910F910C9422
:101450003409EF92FF920F931F93CF93DF93EC0128
:10146000FFB6F8940E940F098C01892B71F0EFB63A
:10147000F894CE010E940F090E940F099C019FB7AA
:10148000F894398328839FBFEFBEFFBEC801DF9168
:10149000CF911F910F91FF90EF900895BF92CF923F
:1014A000DF92EF92FF920F931F93CF93DF93EC01A4
:1014B000FFB6F8948C818D7F8C8384E493E00E9446
:1014C0000F090097C9F19C012250310984E493E08F
:1014D0002115310589F189010E5F1F4FC217D3070E
:1014E00009F50E94290AC8010E940F09009779F0A6
:1014F000FC01329761F085819681A7812D813E8123
:101500004F81820F931FA41F85839683A783FFBEFD
:10151000DF91CF911F910F91FF90EF90DF90CF90CF
:10152000BF900895C8010E940F09009729F09C01FF
:1015300022503109C801CCCF6E0182E0C80ED11C07
:10154000EFB6F894BFB6F89486E493E00E940F09D2
:10155000EC0126E433E0209779F010E000E0CC16AF
:10156000DD0609F48901CE010E940F099E010115D3
:10157000110521F4EC01EFCF10E000E0BFBE011532
:10158000110511F4EFBEC3CFC8010E94290AFACF9A
:10159000EF92FF920F931F93CF93DC0118960D915A
:1015A0001C91F80181850E94A402D8011896CC9163
:1015B0001897C3FBEE24E0F8F12C8E151F04C9F137
:1015C00080FBC3F91896CC93C770C33031F0C53097
:1015D00021F0C130C1F4C4E007C0F801808583FF69
:1015E00012C0C33021F1C6E0C8010E944E0A85E056
:1015F00090E0A0E0F80185839683A783B80184E496
:1016000093E00E943409D80118968C91189787703E
:101610008C1779F0ED91FC910680F781E02D6C2F0D
:10162000C801CF911F910F91FF90EF900994C2E0F4
:10163000DBCFCF911F910F91FF90EF90089580E63F
:1016400093E00E944E0A60E673E084E493E00C9419
:1016500034098F929F92AF92BF92CF92DF92EF9216
:10166000FF92CF93DF93EC014A015B0184E493E0A6
:101670000E940F090097B9F481E08887CE010E948B
:101680004E0A8D829E82AF82BE0184E493E0DF9198
:10169000CF91FF90EF90DF90CF90BF90AF909F9051
:1016A0008F900C9434090297C12CD12C76010097AD
:1016B00019F3FC01258136814781642FA90170E06F
:1016C000C40ED51EE61EF71EC817D90739F00296BC
:1016D0000E940F09009781F20297E9CFC814D9043C
:1016E000EA04FB0448F2DF91CF91FF90EF90DF9086
:1016F000CF90BF90AF909F908F90089586E493E035
:101700000E94290AFC01009781F0029771F0228162
:101710002D7F2283DC01ED91FC910190F081E02D81
:1017200064E473E0099581E0089580E00895CF9224
:10173000DF92FF920F931F93CF93DF938C01FFB63D
:10174000F8940E940F09009769F1EC01229751F17A
:101750008D819E81AF810197A1098D839E83AF8387
:10176000680182E0C80ED11C8D819E81AF81892BDA
:101770008A2BC1F4C8010E94290A8C8180FF1CC0F9
:101780008D7F8C83E881F9810190F081E02DB80193
:10179000CE010995C8010E940F09009719F0EC01CC
:1017A000229711F7FFBEC801DF91CF911F910F91D2
:1017B000FF90DF90CF900895BE016E5F7F4FC6010E
:1017C0000E941609E7CFAF92BF92CF92DF92EF92BD
:1017D000FF920F931F93CF93DF9300D000D000D0E0
:1017E000CDB7DEB78C0160E074E20E94C40464E10E
:1017F00070E080E090E00E945C0366E0D8011A96F9
:101800008C910E94F5031092150280931402F80146
:1018100080819181DC01ED91FC910084F185E02DC6
:101820000995069709F077C0FE0131967F015E01A8
:10183000F7E0AF0EB11C6701D8018D919C91DC01DE
:10184000ED91FC910284F385E02D0995F7018193D8
:101850007F01EA15FB0581F7FB80C6010E943B0171
:10186000F81259C0FE80CE0104960E943B01F81286
:1018700052C029813A81322723273227A7E1B1E1DB
:101880000E947F2B2EE096958795779567952A95F0
:10189000D1F764597141810991090E94942820E08F
:1018A00030E048EC52E40E94EC27D80116966D9384
:1018B0007D938D939C9319972C813D81322723270B
:1018C0003227A1E7B2E00E947F2B3CE096958795F6
:1018D000779567953A95D1F70E94942820E030E0FB
:1018E00048EC52E40E94EC27F801628373838483FE
:1018F000958381E026960FB6F894DEBF0FBECDBF6C
:10190000DF91CF911F910F91FF90EF90DF90CF90DB
:10191000BF90AF90089580E0EDCFFC0190810180F1
:10192000F281E02DF8948181292F209582238183F3
:1019300078943DE7315011F180818923D9F3F894EF
:101940008281822382838181892B81837894ACEB8D
:10195000B3E01197F1F7F894818182238183A8E89D
:10196000B0E01197F1F78081982381E009F080E0E1
:101970007894E0E3F3E03197F1F7089580E008957B
:101980001F93CF93DF931F92CDB7DEB7162F0E9420
:101990006F088F3F99F060919B0370919C03680FD3
:1019A000711D198341E050E0CE0101960E94672726
:1019B00081E00F90DF91CF911F91089580E0F9CFE2
:1019C000CF93C82F60E00E94C00C8823A1F060E094
:1019D00081E08C0F0E94C00C882369F060E082E0F7
:1019E0008C0F0E94C00C882331F060E083E08C0FE4
:1019F000CF910C94C00C80E0CF910895EF92FF92AC
:101A00000F931F93CF93DF931F92CDB7DEB78C0157
:101A10007B01E80EF91E198241E050E0B801CE01C9
:101A200001960E9467270F5F1F4FE016F10699F796
:101A300081E00F90DF91CF911F910F91FF90EF9078
:101A400008951F93CF93DF93D82F162FC42F0E9492
:101A50003C070E9436078D2F0E942C07812F0E9481
:101A60002C070E94320760E88D2F0E94400718174C
:101A700099F080E0CC2361F04FEF4C0F612F8D2F58
:101A80000E94210DEFECF7E03197F1F700C0000064
:101A9000DF91CF911F91089581E0FACF85ED80937A
:101AA000BC008091920290919302A0919402B09117
:101AB00095020796A11DB11D23E0B695A7959795B0
:101AC00087952A95D1F72091BC0024FD03C0109280
:101AD0009002089540919202509193026091940275
:101AE00070919502452B462B472B69F30097A10572
:101AF000B10541F02AE12A95F1F700C00197A1094B
:101B0000B109E1CF809191020C94D403CF93CFEF30
:101B100086E30E945607C150807731F08AE18A95AA
:101B2000F1F700C0C111F4CF8AE30E94560789E3A0
:101B3000CF910C9456070F931F93CF93DF93EC0133
:101B40008B010E944E0ACE010E940D08B80183E06D
:101B5000660F771F8A95E1F760577E4F48E050E0A7
:101B6000CE0108960E944E278885882371F0188A36
:101B7000198A64E473E0CE010E94E609CE01DF9188
:101B8000CF911F910F910C940408DF91CF911F9179
:101B90000F9108950F931F93CF93DF9300D01F925F
:101BA000CDB7DEB78B0143E050E0BC01CE0101961A
:101BB0000E944E279A818B812981F801208391838D
:101BC00082830F900F900F90DF91CF911F910F9113
:101BD00008951F93CF93DF93EC011FB7F894988972
:101BE0008885981760F4CE010E94E6091FBF8823FC
:101BF000C1F0CE01DF91CF911F910C940408188A97
:101C00009985992381F389898F5F898B891758F387
:101C100048E050E060E971E0CE0108960E944E274E
:101C20001FBFCE01DF91CF911F910C940D08CF9370
:101C3000DF931F92CDB7DEB7198241E050E0BC01BF
:101C4000CE0101960E94572789810F90DF91CF9195
:101C50000895CF93DF93EC0188E10E946F088F3FD6
:101C600059F028813981820F932F911D0E94170E00
:101C70008170DF91CF91089580E0FBCF8E960E9416
:101C8000290E811109C064E070E090E080E00E94BC
:101C9000FE0CF0E0E0E0099408950F931F93CF93BA
:101CA0008C01862FC42F0E946F088F3F59F0F801D6
:101CB00020813181820F932F911DCF911F910F9120
:101CC0000C94170E8C2FCF911F910F910895EF92C6
:101CD000FF920F931F93CF93DF93EC018B0140E0B2
:101CE0006CE0C8010E944D0EF82E40E06BE0C80188
:101CF0000E944D0EE82E40E06AE0C8010E944D0EA1
:101D00008883E982FA82CE01DF91CF911F910F91F2
:101D1000FF90EF9008958F929F92AF92BF92CF92D3
:101D2000DF92EF92FF921F93CF93DF93EC01162F78
:101D300040E00E944D0EC82E61E0610F40E0CE01F0
:101D40000E944D0ED12CF12CE12CFC2CEE24DD2434
:101D5000CC2490E0B0E0A0E0DC0199278827460180
:101D60005701880E991EAA1EBB1E62E0610F40E05B
:101D7000CE010E944D0E90E0B0E0A0E0CC24D82E21
:101D8000E92EFA2EC80CD91CEA1CFB1C63E0610F7B
:101D900040E0CE010E944D0EA7019601280F311D93
:101DA000411D511DCA01B901DF91CF911F91FF90D3
:101DB000EF90DF90CF90BF90AF909F908F9008955D
:101DC000CF93DF93EC01CB011A82198218821B8218
:101DD000642F04960E945E01009731F044E050E0C9
:101DE000BC01CE010E945727CE01DF91CF9108950B
:101DF000EF92FF921F93CF93DF9300D000D0CDB727
:101E0000DEB77C0110E0412FB701CE0101960E94A0
:101E1000E00ECE0101960E94BF08882321F01F5FCB
:101E2000163089F71FEF812F0F900F900F900F90B2
:101E3000DF91CF911F91FF90EF900895AF92BF92E5
:101E4000CF92DF92EF92FF921F93CF93DF9300D058
:101E500000D0CDB7DEB77C016B0110E05C0184E0FF
:101E6000A80EB11C412FB701CE0101960E94E00ED1
:101E7000B601CE0101960E94E108882379F01B8209
:101E80001A8219821C82612FC5010E945E0144E002
:101E900050E0BC01CE0101960E9467271F5F1630FB
:101EA00009F781E00F900F900F900F90DF91CF9185
:101EB0001F91FF90EF90DF90CF90BF90AF9008956B
:101EC000AF92BF92CF92DF92EF92FF921F93CF9388
:101ED000DF9300D000D0CDB7DEB77C016B015A0193
:101EE00010E0412FB601CE0101960E94E00EB5012F
:101EF000CE0101960E94E1088823C1F0612FC6013E
:101F000004960E945E010496F70191838083C701C5
:101F10000F900F900F900F90DF91CF911F91FF9036
:101F2000EF90DF90CF90BF90AF9008951F5F163075
:101F3000C1F690E080E0E8CFCF93DF9300D000D0EF
:101F400000D01F92CDB7DEB7FC0121111FC086A5BE
:101F500097A59A83898386E18B8386EA97E09D83A0
:101F60008C838CE798E09F838E8329813A814B8113
:101F70005C816D817E818F8190E027960FB6F89409
:101F8000DEBF0FBECDBFDF91CF910895662331F143
:101F900085A5861750F100A8F1A9E02D213069F43C
:101FA0004485558561E088EF97E02EEF37E05A834E
:101FB00049836B833D832C83D6CF2430B1F4BF019A
:101FC000685F7F4FCE0101960E94600F49815A8160
:101FD0008CEE97E022EF37E061E0E9CF90E080E01F
:101FE00030E020E050E040E0E2CF90E080E030E000
:101FF00020E060E0F7CFAF92BF92CF92DF92EF92F6
:10200000FF920F931F93CF93DF93EC017B018B859E
:102010008B7F8B878E01035F1F4F60EC8BE30E94E9
:10202000400718166CF1D12C8AE30E9456078BE703
:1020300091E00197F1F700C000000E94650784E37A
:102040000E945607DD2009F460C0DC868D8596E786
:1020500098279D8721E04D2D50E0BA01615071090C
:10206000A22FB0E0F801EA0FFB1F9081A617B70777
:102070000CF043C08452892780832F5F892FF0CFD3
:1020800060E88FE30E944007D82E4CE1481758F2D1
:102090000E943C070E9436078FEF0E942C07C02E3B
:1020A00058018A2D8C198D1538F480E00E942C0778
:1020B000F50181935F01F5CF0E94320760E88FE35D
:1020C0000E944007282F30E0082E000C990B88272B
:1020D0009170A901481B590BCA0157FD01969595AE
:1020E0008795919581959109865B898360E88FE357
:1020F0000E94400787FF97CF97CF8E8589278083DF
:10210000B801C70101960E94CD2CF701D0821C8630
:1021100060E0CE010E941608F7018081DF91CF9127
:102120001F910F91FF90EF90DF90CF90BF90AF90F5
:1021300008952F923F924F925F926F927F928F926B
:102140009F92AF92BF92CF92DF92EF92FF920F9346
:102150001F93CF93DF93CDB7DEB7A3970FB6F89455
:10216000DEBF0FBECDBF6C018B01FA018081DB01A8
:1021700017968C931797818118968C931897828164
:1021800019968C936CE373E0CA010E94CE088823F1
:1021900029F0F80182818F7D84608283B8016C5FB1
:1021A0007F4FD6019A968D919C910E94CA0DF8019D
:1021B00082818068828346E064E1D60114968D9125
:1021C0009C910E944D0EB82E811102C0BB24B39485
:1021D000F601E480F58085E00E946F088F3F09F4E6
:1021E0005CC0D7012D913C91820F932F911D0E94CD
:1021F000170E782E72947694769443E0742241F010
:10220000F6018281938162E070E002960E949B0D4C
:10221000C80101969BA38AA33AE0432E512C612C5E
:10222000D8011796B9A3A8A3BB2009F472C1F6017F
:10223000E280F3804701F1E38F0E911CD8011296E2
:102240008C9180718E8F1701BEE32B0E311CF8012B
:10225000408150E06AA17BA1C1010E94CD2CD80130
:102260002C91F70125AF86ADF6E78F27D701DE96D3
:102270008C93DE97DF969C9161E02150330B462FC3
:1022800050E0F101E40FF51F70814217530744F449
:102290008452872780836F5FF2CF77247394B0CF07
:1022A000892F87278083F701F5ADFF8FB7016D5C1C
:1022B0007F4FD701DB96AC90DB97AA2039F0EFEC8B
:1022C000F7E03197F1F700C00000F3CFD8964D92B8
:1022D0005D926C92DA97E1E0DB96EC9384E493E014
:1022E0000E94340961E0C4010E941608D701DC96FF
:1022F0008C91DC978260DC968C9386E30E94560773
:102300008BE30E94560728EC922E85E30E94560725
:10231000E7ECF0E03197F1F700C000009A949110DB
:1023200041C086E30E9456078BE30E9456078DE367
:102330000E94560784E30E94560760EC85E30E94E2
:1023400040078D30B9F790E0D701DC968C91DC978F
:102350008D7FDC968C93BA94992309F465CFF801AC
:10236000828185FFA8C088A199A10E94BF08882307
:1023700009F4A1C0CE0101960E94B1088CE3F82EA9
:10238000D60112968D919C91FC0124AD22FD5AC07C
:102390008FE19EE40197F1F700C00000FA94F1107C
:1023A000EFCF42CF60EC85E30E944007833109F014
:1023B000ACCF8FE19EE40197F1F700C000009E8D45
:1023C000992349F0AFE7BBE8E8E0A150B040E04016
:1023D000E1F700C000000E943C070E9436078FE32F
:1023E0000E942C078F8D0E942C070E9432070E94AA
:1023F0003C070E9436078FE70E942C072E8E410172
:10240000882DFE8D8F1B2F8D821730F4D4018D9176
:102410004D010E942C07F4CF0E94320798EC992EB0
:1024200060EC85E30E9440078D3011F491E08CCF81
:10243000E7ECF0E03197F1F700C000009A949110BA
:10244000EFCFF4CFBE016F5F7F4FC1960E94FB0FAD
:10245000882309F49DCFD80111969C918A81981305
:1024600097CFBE016B5F7F4F88A199A10E94CE08D4
:10247000882309F48DCF8C81823041F48B85A82E7E
:10248000A094AA1CAA24AA1C87FDB12CF801828161
:1024900081FD03C08B8180FF0BC0D60112968D9108
:1024A0009C9142E350E060E070E088960E94290B26
:1024B000AA2009F4B9CE11E0772049F0F601828113
:1024C000938111E063E070E002960E949B0D812FE2
:1024D000A3960FB6F894DEBF0FBECDBFDF91CF91AC
:1024E0001F910F91FF90EF90DF90CF90BF90AF9032
:1024F0009F908F907F906F905F904F903F902F9024
:102500000895D60112968D919C9110E064E070E0E0
:10251000DBCF7110F6CF10E0DACF0F931F93CF937C
:10252000DF93EC018B018AE18B871E861D864C8729
:102530001E8A6AA57BA5FB01719684913197E4916F
:10254000ED8B8AA3625F7F4F42E050E0CE0146965A
:102550000E944E276AA57BA56D5F7F4F4AE050E041
:10256000CE0148960E944E278DA58BA36AA57BA518
:102570006E5E7F4F42E050E0CE0184960E944E276F
:10258000BE01655F7F4FA801CE01DF91CF911F9102
:102590000F910C949910FF920F931F93CF93DF9399
:1025A00000D01F92CDB7DEB78C01FC018085282FAB
:1025B0002770962F9770887F892B8087623071F5FE
:1025C0000789108DF801F680F394F6826481758195
:1025D000CE0101960E94670E4F2DBE016F5F7F4FA7
:1025E000C8010E948D12F8018281938161E070E040
:1025F00002960E949B0DF8018281938140ED57E085
:1026000060E070E088960E94290B0F900F900F9069
:10261000DF91CF911F910F91FF9008956530A9F739
:102620008789908D253059F48E960E94290E81114C
:10263000ECCFF8018789908D0E943E0EE6CFFC0119
:102640008281938167E070E002960E949B0DDDCF4E
:102650002F923F924F925F926F927F928F929F92B2
:10266000AF92BF92CF92DF92EF92FF920F931F93A0
:10267000CF93DF93CDB7DEB7A6970FB6F894DEBF42
:102680000FBECDBF8C017B011BA21AA219A2BE01F5
:102690006F5D7F4FDC019A968D919C910E94CA0DCF
:1026A0002701B7E04B0E511CBE016F5D7F4FC20189
:1026B0000E94CE08C82E882309F474C0F801C28095
:1026C000D3805601F3E3AF0EB11CC5010E944E0A40
:1026D0008AE090E0A0E0F60180AF91AFA2AF81E088
:1026E00083AFB50184E493E00E943409D7011296C8
:1026F0008C9186FDA8C0D70114968C911497F8018F
:10270000878315968C911597808716968C911697CE
:10271000818711968C911197828713968C911397CC
:102720001A96DC901A97813009F066C31B963C908C
:10273000FAE03F129BC0D8019A966D917C916D5F33
:102740007F4F4AE050E0CE0101960E944E274AE0BA
:1027500050E0BE016F5F7F4FC7010C960E94C02CF6
:10276000892B09F079C3F8018281938161E070E0DF
:1027700002960E949B0DD80112968D919C9140ED7E
:1027800057E060E070E088960E94290BF7014081D5
:10279000B7016C5F7F4FC8010E948D12D12CC12CF4
:1027A000312C9AC0F7018081898381818A83B2802C
:1027B000BB82D380DC8284818D8385818E838681F8
:1027C0008F83878188878085898781858A878285AD
:1027D0008B87A384AC8681E13C96DE011D96019037
:1027E0000D928A95E1F76CE373E0CE0108960E94A2
:1027F000CE08882339F0F1E0DF1204C02AE0A216E7
:1028000009F45CCFB2FE05C080EC8D0D823008F477
:1028100055CF8C2DA6960FB6F894DEBF0FBECDBF58
:10282000DF91CF911F910F91FF90EF90DF90CF90AC
:10283000BF90AF909F908F907F906F905F904F90E0
:102840003F902F900895B7016C5F7F4FC8010796A6
:102850000E94CE08882309F44ECFD8011A969C9185
:10286000F7018181981347CFC12CD3CFB1E03B1240
:10287000B5C0DD2009F4F0C2D8019D968C919D97DA
:102880008D1508F4E9C2D096CD90DC90C7010E9466
:10289000EB084701BCE08B0E911C5601E8E0AE0E40
:1028A000B11C813009F057C0B401C5010E941E0F50
:1028B000C5010E94F80E8F3F09F48DC0682FC60134
:1028C0000C960E945E0144E050E0BC01C4010E94ED
:1028D000672781E0F80184A7F701828185FF2DC079
:1028E000BE016F5D7F4FC2010E94CE08882329F18F
:1028F000F1E03F12C5C2A7014C5F5F4FC114D10484
:1029000009F4ADC2D8011296ED91FC9182A99EE026
:10291000F701908392E0938312823286D6011B9650
:102920009C919387148615868687B701C8010E94FB
:102930009910F60182858E7F8287D80112968D913B
:102940009C9142E350E060E070E088960E94290B81
:10295000CC24C3945ECFD70150968C9150971C968F
:102960009C911C9799831D969C911D979A831E9606
:102970009C919B838C83B401C5010E941E0FBE01F4
:102980006F5F7F4FC5010E941E0FC5010E94F80EA8
:102990008F3F09F13601BCE06B0E711C682FC3013B
:1029A0000E945E0144E050E0BC01C4010E94672720
:1029B000C5010E94F80E8F3F51F0682FC3010E949D
:1029C0005E0144E050E0BC01CE01019680CFB4012D
:1029D000C5010E941E0F82E0382E7ECFF2E03F122A
:1029E00037C0DD2009F438C2D8019D968C919D979F
:1029F0008D1508F431C2D096CD90DC905601B8E028
:102A0000AB0EB11CB701645F7F4FC5010E941E0F62
:102A1000982EC7010E94EB08823081F4F70180896B
:102A20009485998395859A8396859B838C83BE0133
:102A30006F5F7F4FC5010E941E0F9822992009F4F5
:102A40004BCF81E0D8019C968C933324339444CFB0
:102A5000B3E03B1270C0DD2009F4F0C0F80195A589
:102A60009D1508F49BCE60A871A8D70111969C9182
:102A7000119714962C9114972E8F15962C911597CB
:102A80002F8F16962C9128A35801BBE0AB0EB11CDA
:102A90002AE1238720E1268720E22587858B9487FA
:102AA0004801E6E18E0E911C6401212C312CF8E0E6
:102AB0006F0E711C26E0221641F1422DB301CE01AA
:102AC00001960E94E00ECE0101960E94BF08882365
:102AD000D1F0339484E0FE013196D60101900D923D
:102AE0008A95E1F784E0C80ED11C94E039120BC03E
:102AF000AE01425E5F4FB501C8010E9499106401AA
:102B0000312C882311F02394D5CF84E0D6011D9277
:102B10008A95E9F7832D880F880F825FF8018387F4
:102B200085858F7D8587AE01425E5F4FB501C80107
:102B30000E94991033CEF4E03F1282C0D701509624
:102B40002C91A701445F5F4F6D2DC8010E949C0F1F
:102B500029833A834B835C836D837E838F83E981F2
:102B6000FA81FEA3EDA322E0322EEF2B09F4B0C0D0
:102B7000D70111968C91119714969C9114979E8F62
:102B800015969C9115979F8F16969C9198A3380146
:102B9000BBE06B0E711C9AE1F801938790E1968778
:102BA00090E2958792E0958B84871801F6E12F0ECD
:102BB000311C6101B12CA12C1CA28B818A151B0434
:102BC00051F14CF1EC81FD818A2D0995D6018C9350
:102BD0004601B2E08B0E911C8DA19EA18A0D9B1D1A
:102BE0000E94170EF6018183FCA1FF5FFCA3F83061
:102BF00059F4AE01425E5F4FB301C8010E949910C3
:102C0000882339F041011CA22FEFA21AB20A6401F5
:102C1000D4CF61011CA2D6011C9211961C928CA1EA
:102C20008A5F880FF801838785858F7D8587AE0150
:102C3000425E5F4FB301C8010E949910312C48C019
:102C4000FEE03F122CC0D801D096CD90DC90D197F9
:102C5000F70121811296ED91FC9182A9D6011B9674
:102C60009C91F801338630E1368736E0358B248736
:102C7000968B178A108E818F82E08587A7014C5F23
:102C80005F4FB801655F7F4FC8010E949910D60160
:102C90001A968C911A978E7F1A968C937FCDB5E0F9
:102CA0003B1219C0F801D2AAD70150962C91A70166
:102CB000445F5F4F6D2DC8010E949C0FF80123AB4C
:102CC00034AB45AB56AB67AB70AF81AF33243394B5
:102CD000D12CC12C01CEF6E03F1233C0D8019C9616
:102CE0008C939C97D3962D913C91D4979E968D91E1
:102CF0009C919F972817390781F412968D919C918A
:102D000070E060E002960E949B0DD801ED91FC916D
:102D10000480F581E02DC80109958FEFF80182ABA1
:102D20008AE0D7018C9382E013968C9313971296C6
:102D30008C9312971A961C92A7014C5F5F4FB701B4
:102D4000F6CEB8E03B1238C0F80182A98D1519F013
:102D5000D12CC12C7ACE83A994A9892BC9F3F70170
:102D600080818B3008F48BE095EF992E980E5701F7
:102D7000FCE0AF0EB11C65018C2D8A19891540F756
:102D8000D60111968C90D801D896ED91FC91D60180
:102D90008C9109958F3F61F0F80163A974A9680FC0
:102DA000711D898241E050E0CE0101960E946727A3
:102DB000F2E0CF0ED11CE0CF29E032124DC0D70196
:102DC00011968C9194E1F801938790E1968715868E
:102DD000158A8487168A62A573A56D5F7F4F4AE0C6
:102DE00050E0C80146960E944E27A7014C5F5F4FF6
:102DF000B801655F7F4F9BCE813159F5F4E0DF1656
:102E000019F02AECD212CACC8AE0D7018C9382E066
:102E100013968C93139712961C9212971A961C92E3
:102E2000A7014C5F5F4FB701C8010E949910BAEC2F
:102E3000DB120BC088E19CE00FB6F894A895809354
:102E400060000FBE90936000FFCFC8010E943E0E4D
:102E5000A5CC823109F47CCFD12CC12CBCCD8AE029
:102E6000D7018C9382E013968C93139712961C9241
:102E700012971A961C92B701C8010E9499105DCD55
:102E8000B2E03B125ACD8AE0F7018083338212828E
:102E900080E88287A7014C5F5F4FEDCF0C94372C01
:102EA0000C94372C0C94372C0C94372CCF93DF9345
:102EB000EC010E944208CE01DF91CF910C94372C97
:102EC0000C94372C0C94372C0C94372CCF93DF9325
:102ED000EC010E946708CE01DF91CF910C94372C52
:102EE0000C94372C0C94372C0C94372C2F923F9247
:102EF0004F925F926F927F928F929F92AF92BF920A
:102F0000CF92DF92EF92FF920F931F93CF93DF93B5
:102F1000CDB7DEB766970FB6F894DEBF0FBECDBF54
:102F20008C017B8B6A8B88EF9AE2D8019E969C93EA
:102F30008E939D97F80111AA12AA13AA14AA7801D8
:102F4000FDE5EF0EF11CD70114961C921E9213970B
:102F500012961C921E9211978C91882309F443C0FB
:102F60006701B5E0CB0ED11CC6010E94E30B812C9A
:102F7000912CE0ECAE2EEFE7BE2E882339F0F8015D
:102F8000EE59FF4F86809780A084B184C6010E94CD
:102F9000E30B882309F4ABC3F801EE59FF4F4280DD
:102FA000538064807580A5019401C501B4010E941D
:102FB0002F2A882309F4A9C3A3019201C301B201F6
:102FC0000E942F2A81110FC020E030E040E251E43E
:102FD000C301B2010E9472290E946528D70114968C
:102FE0007C936E931397F801E25AFF4F8081918191
:102FF000F80194A783A7E05AFF4F80819181D801FF
:10300000D0969C938E939F9736972080222009F428
:10301000A7C07801BDE4EB0EF11CF701818192811C
:103020000E948D0C6CECD70111968D919C910E94A1
:10303000AF0664E4F701818192810E94AF066AE1E4
:1030400074E080E090E00E945C03312CAE01465FAA
:103050005F4F5F874E87E2E2FCEFD7011496FC9347
:10306000EE93139711968D919C910E948D0CD70130
:103070001196AD90BC9065E5C5010E94AF06670151
:10308000B5E0CB0ED11C4701EDE08E0E911CD601B0
:103090006D916D01C5010E94AF06C814D904B9F73E
:1030A0006EEBF701818192810E94AF06AE014F5F06
:1030B0005F4F6A01488BD98AD70111966D907C9039
:1030C00068E0A62EB12C512C44244394C3010E94E5
:1030D0005C0681115428440CB1E0AB1AB108B1F779
:1030E000F60151926F014E855F854E175F0721F7FC
:1030F00068E0888999890E944506998589132CC0C2
:1031000089819A81D70115962C91203109F022C22C
:1031100053E0880F991F5A95E1F72885203141F433
:103120002F81ECE0F0E0E21BF109807F8E0F9F1F02
:10313000FAE0F89F9001F99F300D112437FF02C08B
:10314000215F3F4F44E0359527954A95E1F7D70138
:1031500014963C932E9313973394740123107BCFD2
:10316000F801E05BFF4F80819181F80194A783A76C
:103170000084F185E02DA281B38190968D919C9180
:10318000D801D9969C938E93D89764E284819581D7
:103190000E948B0E6115710541F0F80123A534A53D
:1031A000C901860F971F94A783A7D8011896ED91A0
:1031B000FC9168E2848195810E948B0E61157105F6
:1031C00041F0F80125A536A5C901860F971F96A7DE
:1031D00085A7D8011896ED91FC916CE284819581C8
:1031E0000E948B0E6115710541F0F80127A530A9E9
:1031F000C901860F971F90AB87A7D8019B966D9149
:103200007C91072E000C880B990B0E94962820E0D9
:1032100030E040E251E40E94EC276B017C01F801B0
:1032200067A570A990E080E00E94942820E030E03B
:1032300040E251E40E94EC274B015C01A70196019A
:10324000C701B6010E942F2A811192C1A5019401E4
:10325000C501B4010E942F2A81118AC129E23CE5EF
:103260004DE851E4C701B6010E9472292B013C01CF
:1032700020E030E843E753E4C701B6010E9480270D
:103280009B01AC01C301B2010E94EC279B01AC0180
:1032900064E578EF8DE290E40E94DF2921E835E9CA
:1032A00043EC50E40E947229A50194010E94722906
:1032B0002BE63FE140E951E40E9472292B013C01D9
:1032C00023E333E948E853E4C701B6010E948027AD
:1032D00024E138E045E051E40E9472299B01AC01F1
:1032E000C301B2010E94EC2720E030E048EC52E438
:1032F0000E9472290E946528D801DC967C936E9307
:10330000DB97A7019601C701B6010E942F2A811100
:1033100034C1A5019401C501B4010E942F2A811175
:103320002CC120E030E048EC52E4C501B4010E9419
:10333000EC270E942A294B015C0120E030E04DE897
:1033400051E4C701B6010E9472292B013C012DE313
:103350003AE043E753E4C701B6010E9480279B018E
:10336000AC01C301B2010E94EC276B017C01AC01EE
:103370009B01C501B4010E9480272DE33AE043E799
:1033800053E40E9472292B013C01A501940160E0E5
:1033900070E08DE891E40E947F27A70196010E94CA
:1033A0007F279B01AC01C301B2010E94EC2720E002
:1033B00030E040E251E40E9472290E945E28F80148
:1033C00076AF65AF0084F185E02D26812F5F2683DF
:1033D000D8019F968D919C9105966AE070E00E94BD
:1033E000492B462F3801BEE06B0E711CF801F5AD7C
:1033F000F88BD801DE96BC91B98BF801F3ADFC8B4C
:10340000D801DC96BC91BD8BF801E084F184D70132
:103410001296ED91FC91D801D896BC91BE8BD80143
:10342000D9962C90D997D5963C90D597D1964C901B
:10343000D197D2965C90D297D3968C90D397D4960E
:103440009C90D4979D96DC909D979E96CC909E974D
:103450009B96BC909B979C963C913F77A68C80A1B5
:1034600091A164E670E00E94492BA616170611F0A0
:1034700008F03068822F64E10E943D2B84E0923096
:1034800009F482E299E1F801968790E7918B808BAD
:10349000308F2787B18EC28ED38E448F958E868EC5
:1034A000578E40A231A222A24E8943A34D8944A344
:1034B0004C8945A3498946A3488947A382FF62C036
:1034C0008F7C8460808B4CE353E0B301C7010E9482
:1034D0009910D8011896ED91FC91C480D58040E0F8
:1034E00060E2C6010E944D0EF82E40E061E2C60186
:1034F0000E944D0E2F2D30E0322F2227280F311D34
:10350000A4E6B0E00E947F2BF80165837683878371
:10351000B8018A899B890E94340981E0D801DA9632
:103520008C9366960FB6F894DEBF0FBECDBFDF91C9
:10353000CF911F910F91FF90EF90DF90CF90BF90B0
:10354000AF909F908F907F906F905F904F903F9043
:103550002F9008952D81207611F4887FE9CD2032B7
:1035600011F48C7FE5CD203409F0E2CD8E7FE0CDE3
:1035700060E070E080EC9FE7B7CE60E070E080EC48
:103580009FE715CFD12CC12C412C580158E0A50E36
:10359000B11C480182E1880E911C96E0C916D10445
:1035A00009F498C04C2DB501CE010A960E94E00E98
:1035B000CE010A960E94BF08382E882309F45EC007
:1035C000512C452DB501CE0101960E94E00EBE01A1
:1035D0006F5F7F4FCE010A960E94CE08811106C010
:1035E0005394A6E05A12EDCF55245A945C141D044E
:1035F0000CF444C01B821A821982BE016F5F7F4F98
:10360000F70182A593A50E94CA0DBE016F5F7F4F8F
:10361000CE010A960E94CE088823F1F1B401D701A9
:103620009A968D919C910E94CA0DF8018289858B92
:103630008389868B8489878B6CE373E0C4010E9445
:10364000CE08882341F0D80150968C9150978F7DF9
:10365000846050968C93F801808985FF13C08F7D1C
:10366000808BD701ED91FC910680F781E02DB301AD
:10367000C7010995F80180898062808BBFEFCB1A62
:10368000DB0A8BCFD701ED91FC910680F781E02D0D
:10369000B301C7010995F2CFAE01465F5F4FB50197
:1036A000CE0101960E94600F89819A810E94170EB7
:1036B000F801908980FF0BC09061908BAE01465F4E
:1036C0005F4FB301C7010E949910432CD7CF9F7E53
:1036D000908BF4CF4110FDCEF70164817581CE014E
:1036E00001960E94670EAE014F5F5F4FEECEA501BF
:1036F0009401C501B4010E942F2A412C512C70EC79
:10370000672E7FE7772E81116ECC20E030E040E21B
:1037100051E4C501B4010E9472290E945E28F7019C
:103720007283618349CC1F920F920FB60F921124BE
:103730002F933F934F935F936F937F938F939F93B9
:10374000AF93BF93EF93FF9386E992E00E94EC0161
:10375000FF91EF91BF91AF919F918F917F916F9169
:103760005F914F913F912F910F900FBE0F901F903F
:1037700018951F920F920FB60F9211242F938F93CB
:103780009F93EF93FF93E091A602F091A7028081AF
:10379000E091AC02F091AD0282FD1BC0908180915E
:1037A000AF028F5F8F732091B002821741F0E091DA
:1037B000AF02F0E0EA56FD4F958F8093AF02FF9184
:1037C000EF919F918F912F910F900FBE0F901F90AF
:1037D00018958081F4CF1F920F920FB60F9211248B
:1037E0002F933F938F939F93AF93BF938091040246
:1037F00090910502A0910602B09107023091030258
:1038000026E0230F2D3758F50296A11DB11D2093F8
:1038100003028093040290930502A0930602B093E2
:1038200007028091080290910902A0910A02B091CA
:103830000B020196A11DB11D80930802909309020D
:10384000A0930A02B0930B02BF91AF919F918F9109
:103850003F912F910F900FBE0F901F90189529E860
:10386000230F0396A11DB11DD2CF1F920F920FB649
:103870000F9211242F933F934F935F936F937F93F6
:103880008F939F93AF93BF93EF93FF93E0910201C8
:10389000F09103010995FF91EF91BF91AF919F9135
:1038A0008F917F916F915F914F913F912F910F90E9
:1038B0000FBE0F901F9018951F920F920FB60F9288
:1038C00011242F933F934F935F936F937F938F9325
:1038D0009F93AF93BF93EF93FF93E0910001F0911B
:1038E00001010995FF91EF91BF91AF919F918F9148
:1038F0007F916F915F914F913F912F910F900FBEEC
:103900000F901F9018951F920F920FB60F921124CF
:103910002F933F934F935F936F937F938F939F93D7
:10392000AF93BF93EF93FF938091B900887F803668
:1039300009F44AC0F0F5883209F4A7C018F58031BF
:1039400009F49BC0B8F4882309F4F9C0883009F45D
:1039500094C0FF91EF91BF91AF919F918F917F9113
:103960006F915F914F913F912F910F900FBE0F90EC
:103970001F901895883109F488C0803251F78093E0
:103980006E0214C0803409F49DC040F48033B9F352
:103990008833F9F680936E0285ECB0C0803509F467
:1039A00085C0883509F496C0883499F60E944E0D7A
:1039B000D0CF883909F48CC038F5883729F050F415
:1039C000883611F0803729F683E0809390021092B8
:1039D000E00157C0883809F47BC0803919F080387D
:1039E00009F0B7CF8091E001803208F071C0E0911A
:1039F000E00181E08E0F8093E0018091BB00F0E058
:103A0000E054FE4F80833DC0803B39F0E0F4803AC3
:103A100009F479C0883A09F09CCF84E08093900241
:103A20001092BF011092BE01E0910E02F0910F02C0
:103A300009958091BE0181110FC081E08093BE0184
:103A400010929E0109C0803C09F4A6CF883C09F47D
:103A5000A3CF883B09F07DCFE091BF0181E08E0FBD
:103A60008093BF01F0E0E256FE4F80818093BB005F
:103A70009091BF018091BE0129C080916B0280931B
:103A8000BB0085EC8093BC0064CF90916D02809167
:103A90006C02981758F5E0916D0281E08E0F8093CB
:103AA0006D02F0E0E65BFD4F8081E9CFE0916D02B1
:103AB00081E08E0F80936D028091BB00F0E0E65BA9
:103AC000FD4F808390916D0280916C029817C8F22F
:103AD00085E8D8CFE0916D0281E08E0F80936D0272
:103AE0008091BB00F0E0E65BFD4F808380916F0228
:103AF00081115CCF81E080936A0284EA8093BC00EC
:103B00001092900226CF85EC8093BC001092900218
:103B10008091E001803230F4E091E001F0E0E05487
:103B2000FE4F10826091E00170E0E0911002F09190
:103B3000110280EC91E009951092E0010ACF1092F9
:103B40006E0234CF1F920F920FB60F9211248F93F3
:103B50000FB6F894A895809160008861809360000A
:103B6000109260000FBE8F910F900FBE0F901F90AC
:103B700018951F920F920FB60F9211242F933F9317
:103B80004F935F936F937F938F939F93AF93BF9365
:103B9000CF93DF93EF93FF93C3E3D3E060E089819A
:103BA0000E94CD021092B1006A817B818C819D813F
:103BB0000E9465286093B30081E08E83FF91EF91AE
:103BC000DF91CF91BF91AF919F918F917F916F9135
:103BD0005F914F913F912F910F900FBE0F901F90CB
:103BE00018951F920F920FB60F9211240F900FBECF
:103BF0000F901F9018951F920F920FB60F921124DD
:103C00002F933F934F935F936F937F938F939F93E4
:103C1000AF93BF93EF93FF93EFE3F3E084818F5F64
:103C20008483CF010E94970BFF91EF91BF91AF91D9
:103C30009F918F917F916F915F914F913F912F91C4
:103C40000F900FBE0F901F9018951F920F920FB6F6
:103C50000F9211242F933F934F935F936F937F9312
:103C60008F939F93AF93BF93EF93FF9384E493E07D
:103C70000E94970BFF91EF91BF91AF919F918F9110
:103C80007F916F915F914F913F912F910F900FBE58
:103C90000F901F9018951F920F920FB60F9211243C
:103CA0002F933F934F935F936F937F938F939F9344
:103CB000AF93BF93CF93EF93FF9399B1C091160247
:103CC0008091460230914302292F20952323892396
:103CD000822B20916D00C927C223C823909316021E
:103CE000CC23C1F1C0FF05C0E0911702F09118028A
:103CF0000995C1FF05C0E0911902F0911A020995DA
:103D0000C2FF05C0E0911B02F0911C020995C3FFA0
:103D100005C0E0911D02F0911E020995C4FF05C087
:103D2000E0911F02F09120020995C5FF05C0E091C6
:103D30002102F09122020995C6FF05C0E0912302FD
:103D4000F09124020995C7FF05C0E0912502F0918A
:103D500026020995FF91EF91CF91BF91AF919F916D
:103D60008F917F916F915F914F913F912F910F9024
:103D70000FBE0F901F9018951F920F920FB60F92C3
:103D800011242F933F934F935F936F937F938F9360
:103D90009F93AF93BF93CF93EF93FF9396B1C0914F
:103DA00027028091470230914402292F2095232336
:103DB0008923822B20916C00C927C223C8239093AA
:103DC0002702CC2351F1C0FF05C0E0912802F091F9
:103DD00029020995C1FF05C0E0912A02F0912B024A
:103DE0000995C2FF05C0E0912C02F0912D020995C2
:103DF000C3FF05C0E0912E02F0912F020995C4FF88
:103E000005C0E0913002F09131020995C5FF05C06F
:103E1000E0913202F09133020995FF91EF91CF9139
:103E2000BF91AF919F918F917F916F915F914F91D2
:103E30003F912F910F900FBE0F901F9018951F92DA
:103E40000F920FB60F9211242F933F934F935F93CE
:103E50006F937F938F939F93AF93BF93CF93EF9382
:103E6000FF9393B1C0913602809148023091450290
:103E7000292F209523238923822B20916B00C9278A
:103E8000C223C82390933602CC2351F1C0FF05C052
:103E9000E0913702F09138020995C1FF05C0E09129
:103EA0003902F0913A020995C2FF05C0E0913B0248
:103EB000F0913C020995C3FF05C0E0913D02F091ED
:103EC0003E020995C4FF05C0E0913F02F091400217
:103ED0000995C5FF05C0E0914102F09142020995A4
:103EE000FF91EF91CF91BF91AF919F918F917F9172
:103EF0006F915F914F913F912F910F900FBE0F9057
:103F00001F901895FF920F931F93CF93DF93E6E9CD
:103F1000F2E01382128288EE93E0A0E0B0E08483A6
:103F20009583A683B7832EE031E03183208325EC8F
:103F300030E03587248724EC30E03787268720EC73
:103F400030E0318B208B21EC30E0338B228B22EC64
:103F500030E0358B248B26EC30E0378B268B118EAE
:103F6000128E138E148E08E413E0F801138212826D
:103F700084839583A683B78380E291E091838083D5
:103F800010923A03ECE3F3E0128211821082E4E42F
:103F9000F3E01182108213821282EFE3F3E01182C8
:103FA0001082138212821482E5E1F4E015821482F9
:103FB00017821086118686E891E093838283128AA5
:103FC000138A148A158AFF24F394F682118E108EB8
:103FD000128E138E148E158E168E178E11A210A2AD
:103FE00012A213A214A215A28AE791E0978B868BE6
:103FF00088EC90E097A386A313A612A615A616A692
:1040000017A680E791E091A780A710AAF4A612AAAC
:1040100016AA15AA10AE11AE12AE86E691E094ABC8
:1040200083AB13AEF7AA88E084AF82E594E00E94E8
:10403000B108CDE6D3E082E491E0998388831B82C6
:104040001A828BE993E09D838C831E8219861886E1
:104050001F821A8688E793E00E94B10880E290E010
:1040600099A788A72AE032E03BA72AA71CA6FDA6AD
:104070009FA78EA78FEF8AAB1CAA1BAA1DAA1FAAF7
:104080001EAA19AE18AE8EE491E09983888310922F
:10409000B0031092AF03E1EBF3E080818E7F8D7F60
:1040A00080831092B2031092B4031092B3031DAE3A
:1040B0001CAE1EAE80E797E1A0E08093AC03909326
:1040C000AD03A093AE0388E391E09BAF8AAF85EB8D
:1040D00093E00E94B1081092D3031092D203109281
:1040E000D5031092D4031092D7031092D6031092E6
:1040F000D8031092D9031092DA031092DB031092C6
:10410000DC031092DE031092DD031092E0031092A4
:10411000DF03F092E1031092E3031092E2031092A6
:10412000E5031092E40360E083E00E94FB02E9EF04
:10413000F1E0E491E093E603E5EEF1E0E491F0E0F4
:10414000EE0FFF1FE852FE4F859194919093E80384
:104150008093E7031092F1031092F3031092F2039D
:104160001092F0031092EF031092EE031092ED0301
:104170001092EC031092EB031092EA031092E90301
:104180001092F4031092F6031092F50382E29CEF72
:104190009093F8038093F7031092010410920404A3
:1041A000109206041092050410920804109207045D
:1041B00010930A04009309041092130480E090E025
:1041C000A0ECBFE780930B0490930C04A0930D0424
:1041D000B0930E0480930F0490931004A0931104E5
:1041E000B093120487EA93E099AB88AB8AE591E03B
:1041F00099838883E4E5F3E01382128214821582A6
:1042000016821782ACE5B3E08C91887F816088606C
:104210008C93118617861686108A118A128A138A41
:1042200082E391E095878487F58BE48B80E991E0C8
:1042300091838083D08FC78B8CE291E093878287B4
:10424000DF91CF911F910F91FF900895CF93DF934E
:10425000CDB7DEB768970FB6F894DEBF0FBECDBFFF
:10426000789484B5826084BD84B5816084BD85B551
:10427000826085BD85B5816085BD80916E0081605D
:1042800080936E0010928100809181008260809303
:104290008100809181008160809381008091800005
:1042A0008160809380008091B10084608093B10030
:1042B0008091B00081608093B00080917A0084602A
:1042C00080937A0080917A00826080937A00809156
:1042D0007A008E7F80937A0080917A008068809344
:1042E0007A001092C10080919B0390919C039C01E5
:1042F0002A5E3F4F3E872D87F12C24EF422E552416
:104300005394612C10919A03F11608F07AC1EF2DA5
:10431000F0E0EE0FFF1FE356FC4F00811181F39494
:10432000EDE6F3E0D8011996FC93EE9318971B96EF
:10433000FC921B972D853E851D963C932E931C97D2
:1043400018013DE4230E311C58018FE3A80EB11C67
:10435000712CA45BBF4FB88BAF87F801E65BFF4FB2
:10436000FA8BE98B9801255B3F4F388F2F8BC80163
:104370008E5B9F4F9E8B8D8BAF85B8898C91811101
:104380002DC0C5010E948D0C882341F160EFC5014D
:104390000E94AF06CC24C394812CE12CDD24D3945D
:1043A000C5010E945C06982EC5010E945C06B1E022
:1043B0009B12AAC0813009F0CCC0E0E4ED1570F486
:1043C000A989BA89EC92E11004C021E0EF85F8894F
:1043D0002083AD89BE898C918111D4C0F801E65B40
:1043E000FF4F1082EF85F8891082F801E55BFF4FDF
:1043F0001082329710823197108231971082319754
:104400001082319710823197108231971082319744
:104410001082789670820E94B6038AE0782E480156
:10442000FDE58F0E911C540125E0A20EB11C680120
:1044300032E6C30ED11C1092150210921402109293
:104440001302109212020E94B603EAE5F1E0F09323
:104450000F02E0930E022BE531E03093110220931E
:104460001002E4E4D6011A96EC9362EA70E3C50107
:104470000E94C4046AE070E080E090E00E945C0367
:104480006DE273EFC5010E94C40463E0D6011A9681
:104490008C910E94F5031092150280931402F6018C
:1044A00080819181DC01ED91FC910284F385E02D06
:1044B00009958C8B1B8AF60180819181DC01ED913D
:1044C000FC910284F385E02D0995EB89FC898E2B04
:1044D0009F2B019609F48BC0E1E0D401EC9366E6D2
:1044E00070E3C5010E94C404D80115964D925D92F7
:1044F0006C92B80184E493E00E943409ED85FE8556
:104500007F96FE87ED87FECEE82DF0E0981215C06D
:10451000A989BA898C91D816D0F4D801AE0FBF1FE3
:10452000AE5BBF4F8C918C21A1F4912CB8E0BD15EE
:1045300018F0AF89B88DDC92ED2CE00FF11FEE5B27
:10454000FF4F80819C2D9095892380830CC08D1115
:10455000ECCFF801E80DF11DEE5BFF4F80818C2957
:10456000808399249394692DC5010E948006D39479
:10457000CC0C19F48394CC24C394B7E0B81508F09C
:104580000FCF1BCFED89FE89CE0101966C01DC01B6
:1045900081918D9329893A892E173F07C9F77110A8
:1045A0001DCF67E0C6010E94450698858913E4CEB9
:1045B0008981803129F0823219F0883209F0DCCE0D
:1045C000D1011296BC92AE921197E1E0EC93F10109
:1045D00035962DE0220E311CD6012D916D012193CF
:1045E000E215F305C9F71F0177247394C5CE64E67D
:1045F00070E080E090E00E945C037A9471101BCF21
:1046000073CF60E090E080E00E949F087C0106E6A6
:10461000C02E01E0D02EF6016491C7010E949F08D0
:104620007C01FFEFCF1ADF0A2CE7C21621E0D20689
:1046300091F701E01017E8F080E00E94FE07682F74
:10464000C7010E949F087C0180E00E945C01682FE6
:10465000C7010E949F087C0180E00E94F207682F3A
:10466000C7010E949F0866E00E949F087C010F5FBF
:10467000E1CF44E050E070E060E0CE0109960E9496
:104680005727C701B0E0A0E0AE6FBA6C89839A8368
:10469000AB83BC8349855A856B857C8584179507D8
:1046A000A607B70709F474C044E050E070E060E08A
:1046B000CE0101960E94672766E170E080919B031E
:1046C00090919C030E94FE0C85E00E946F088F3F32
:1046D000C9F0082F10E080919B0390919C03800FFC
:1046E000911F0E94170E60919B0370919C03600FB5
:1046F000711F8F738064898341E050E0CE01019681
:104700000E94672768E182E10E94C00C66E084E1B4
:104710000E94C00C62E080E20E94C00C882321F05D
:1047200068E581E20E94C00C60E082E20E94C00C59
:10473000882321F060E083E20E94C00C84E20E94A2
:10474000E00C88E20E94E00C8CE20E94E00C10E099
:1047500080919A031817E0F4E12FF0E0EE0FFF1FAD
:10476000E356FC4FE080F1806FE170E0D7011C96CA
:104770008D919C910E94FE0CF701648575851982CC
:1047800041E050E0CE0101960E9467271F5FE0CF15
:1047900085E194E09093700380936F031B821A82EB
:1047A0001982BE016F5F7F4F8091970390919803AC
:1047B0000E94CA0D84E08093290461E00E94FB02FC
:1047C00087E194E00E940D08E8988DE691E09093CF
:1047D00001018093000186E494E090930D028093A0
:1047E0000C0260E082E00E94FB0261E08AE00E942D
:1047F000FB0261E08BE00E94FB0260E08CE00E9423
:10480000FB0261E08DE00E94FB0280E58CBD61E06F
:104810008AE00E94CD0261E08DE00E94CD0260E05E
:104820008BE00E94CD020E943C070E9436070E9446
:104830003207F5E8FA95F1F700000E943C070E9464
:10484000360780E30E942C070E9436070E94320739
:1048500002E311E0A6E6CA2EA1E0DA2EFF24F394CB
:10486000F80131966491F801849143E00E94210D92
:10487000811101C0F12C0E5F1F4FC016D10681F7C8
:1048800083E30E9456078FEA93EB0197F1F700C08C
:10489000000043E060EC8EE30E94210DFF2059F000
:1048A0000E943C070E9436070E9432070E9465075B
:1048B00084E30E94560783E398E09093010180937C
:1048C0000001809169008C7F826080936900E89A82
:1048D00080E18093810010928000109285001092F8
:1048E000840080E49CE9909387008093860081E1B6
:1048F000809381000E94A00766E070E0F11002C082
:1049000068E070E087E194E00E949B0D8B8190E06D
:1049100001962AE0289F8001299F100D112488E428
:1049200094E00E944E0A24E630E0D8010E948E2BCB
:1049300028EE33E040E050E00E945D2B20934D04D0
:1049400030934E0440934F0481E08093500468E418
:1049500074E084E493E00E94340961E089E00E94FD
:10496000FB0260E089E00E94CD0260E08EE00E94E0
:10497000FB0260E08EE00E94CD0280913B049091AA
:104980003C04813D974030F080ED97E090933C04EB
:1049900080933B0487E880937A0010927B00E0913B
:1049A0002B04F0912C040680F781E02D8BE294E03B
:1049B0000995909336048093350480E09BEEA1E442
:1049C000B0E08093370490933804A0933904B093F7
:1049D0003A048093300490933104A09332046BE244
:1049E00074E084E493E00E94340988E18093330406
:1049F00086E18093340480919503FCEFEF2EE80E5E
:104A0000855090E004960E94170ED82E00E01EE517
:104A1000EE2DE150FF0B7F01802F90E08E159F055A
:104A200034F404960E94170E18270F5FF5CF1D115E
:104A30001DC084E090E00E94170E182F85E090E0E2
:104A40000E94170E082F80EA810F8B3078F443E024
:104A500061E28DE00E94210D43E0612F8EE00E9413
:104A6000210D43E0602F8FE00E94210D88E08093AC
:104A70005D0362E00E94FB02EEEFF1E08491EAEE5A
:104A8000F1E09491923009F0C1C020914802282BA6
:104A90002093480220914502282B20934502E4E808
:104AA000F1E0A491923009F0BFC0B0E0AA0FBB1FA3
:104AB000A95CBD4F2FE13BE02D933C93ECEDF1E081
:104AC000A591B4919C91909336022BE630E03093FF
:104AD00035022093340290916800916090936800B1
:104AE000A0913402B0913502EC918E2B8C9381E031
:104AF0008093990390919A03981708F0CEC016E01E
:104B00000EE040E1B42E52E2A52EE12C0E947E0B75
:104B1000F82E8111C4C0E11004C00E947E0B8111E7
:104B2000C0C080916F0390917003DC01DC962C91E2
:104B300022FF23C068E773E0C1960E94FB0F8A3012
:104B4000E0F01B821A821982BE016F5F7F4F809155
:104B50009703909198030E94CA0DBE016F5F7F4F2B
:104B60008CE793E00E94CE08811107C068E773E0EC
:104B70008DE693E00E942813F82E99249394809157
:104B80009A03891508F48FC0C0909D03D0909E03AE
:104B9000F601828580FB882480F880FF35C0F09084
:104BA0007303F394F0927303609171037091720335
:104BB000CE0101960E94670EE0916F03F0917003A1
:104BC00082A9D6011B969C9100937803B0927B0337
:104BD000A0927A0310938203F09279039093830357
:104BE000109284031092850380938603AE014F5F79
:104BF0005F4F68E773E08DE693E00E949910F6013D
:104C000082858E7F8287F82C9394B9CF933009F0F8
:104C100033C120914702282B209347022091440260
:104C2000282B209344023BCF9330D1F4B0E0AA0F5D
:104C3000BB1FA85DBD4F2FE13BE02D933C93EEEDF4
:104C4000F1E0A591B4919C91909327022CE630E07D
:104C500030933502209334029091680092603ECFE9
:104C6000943009F03DCFB0E0AA0FBB1FA95EBD4F45
:104C70002FE13BE02D933C93E0EEF1E0A591B49160
:104C80009C91909316022DE630E0309335022093EC
:104C9000340290916800946021CF8F5F2DCFEF2C6C
:104CA00035CFE82E3ACFE110B0C0F110AEC0809100
:104CB00035049091360464E670E00E94492B80919F
:104CC000340486171706B9F0B0F08091510480FDC6
:104CD00007C00E94860D8091510481608093510429
:104CE00030E020E050E040E06AE070E089E492E0EB
:104CF0000E94DE06F5CF809145048111B7C08091F6
:104D00006F008E7F80936F0084E493E00E940F0910
:104D1000009709F487C0FC01329709F483C0C5806D
:104D2000D680E780F12C86E493E00E940F09892B5E
:104D300009F069C0F1E0CF16D104E104F10409F4EF
:104D400062C08091510480FD07C00E94860D809151
:104D5000510481608093510421E2C21623E0D206FF
:104D6000E104F10408F062C035E6C316D104E104A1
:104D7000F10408F064C08DE0C816D104E104F10428
:104D800008F065C092E0C916D104E104F10408F00E
:104D900066C06AE070E0C12CD12C760130E020E0E2
:104DA00050E040E089E492E00E94DE0684E493E073
:104DB0000E940F09009719F1FC01329701F1A1E05F
:104DC000CA1AD108E108F10885819681A781AC0152
:104DD0006A2F70E041505109610971094C155D0558
:104DE0006E057F0530F46C01EA2EB1E0CB1AD108D4
:104DF000E1088C199D09AE0985839683A78384E415
:104E000093E00E94970B0E94A00780E090E0892B1E
:104E100009F47BCE0E94D801882309F476CE0E9443
:104E2000000073CEC12CD12C76017DCF69E070E0FB
:104E300030E2C32E33E0D32EE12CF12CAFCF66E06D
:104E400070E024E6C22ED12CE12CF12CA7CF63E038
:104E500070E09CE0C92ED12CE12CF12C9FCF70E0AA
:104E600060E0C12CD12C7601C39498CF61E086E438
:104E700094E00E941608C9CF943009F010CE20911A
:104E80004602282B2093460220914302282B209390
:104E9000430205CE8DE693E00C946708FB01DC012C
:104EA00002C005900D9241505040D8F70895DC01A2
:104EB000CB01FC01F999FECF06C0F2BDE1BDF89A25
:104EC000319600B40D9241505040B8F70895DC017E
:104ED000CB0103C02D910E94722741505040D0F762
:104EE0000895262FF999FECF1FBA92BD81BD20BD2E
:104EF0000FB6F894FA9AF99A0FBE01960895505891
:104F0000BB27AA270E9497270C94E8280E94DA283A
:104F100038F00E94E12820F039F49F3F19F426F47C
:104F20000C94D7280EF4E095E7FB0C94D128E92FD8
:104F30000E94F92858F3BA17620773078407950788
:104F400020F079F4A6F50C941B290EF4E0950B2EB5
:104F5000BA2FA02D0B01B90190010C01CA01A001CB
:104F60001124FF27591B99F0593F50F4503E68F126
:104F70001A16F040A22F232F342F4427585FF3CF67
:104F8000469537952795A795F0405395C9F77EF438
:104F90001F16BA0B620B730B840BBAF09150A1F081
:104FA000FF0FBB1F661F771F881FC2F70EC0BA0F07
:104FB000621F731F841F48F4879577956795B7958F
:104FC000F7959E3F08F0B0CF9395880F08F099278A
:104FD000EE0F9795879508950E9400280C94E82875
:104FE0000E94E12858F00E94DA2840F029F45F3F3F
:104FF00029F00C94D12851110C941C290C94D72819
:105000000E94F92868F39923B1F3552391F3951B76
:10501000550BBB27AA2762177307840738F09F5FD9
:105020005F4F220F331F441FAA1FA9F335D00E2E46
:105030003AF0E0E832D091505040E695001CCAF7B3
:105040002BD0FE2F29D0660F771F881FBB1F261776
:1050500037074807AB07B0E809F0BB0B802DBF014D
:10506000FF2793585F4F3AF09E3F510578F00C941C
:10507000D1280C941C295F3FE4F3983ED4F3869525
:1050800077956795B795F7959F5FC9F7880F911D3D
:105090009695879597F90895E1E0660F771F881F29
:1050A000BB1F621773078407BA0720F0621B730BDC
:1050B000840BBA0BEE1F88F7E09508950E946528CF
:1050C0006894B1110C941C2908950E94012988F05C
:1050D0009F5798F0B92F9927B751B0F0E1F0660FBC
:1050E000771F881F991F1AF0BA95C9F714C0B130FD
:1050F00091F00E941B29B1E008950C941B29672FA1
:10510000782F8827B85F39F0B93FCCF3869577952B
:105110006795B395D9F73EF4909580957095619514
:105120007F4F8F4F9F4F0895E89409C097FB3EF43F
:1051300090958095709561957F4F8F4F9F4F9923E4
:10514000A9F0F92F96E9BB279395F6958795779562
:105150006795B795F111F8CFFAF4BB0F11F460FF22
:105160001BC06F5F7F4F8F4F9F4F16C0882311F07A
:1051700096E911C0772321F09EE8872F762F05C08E
:10518000662371F096E8862F70E060E02AF09A9529
:10519000660F771F881FDAF7880F9695879597F91E
:1051A000089597F99F6780E870E060E008959FEFA9
:1051B00080EC089500240A941616170618060906AE
:1051C000089500240A94121613061406050608957D
:1051D000092E0394000C11F4882352F0BB0F40F405
:1051E000BF2B11F460FF04C06F5F7F4F8F4F9F4F45
:1051F000089557FD9058440F551F59F05F3F71F0C7
:105200004795880F97FB991F61F09F3F79F087952D
:105210000895121613061406551FF2CF4695F1DFB6
:1052200008C0161617061806991FF1CF8695710546
:10523000610508940895E894BB2766277727CB017A
:1052400097F9089516F00C94922A0C94D728689434
:105250000C94D1280E940129A8F39923C1F3AEF33D
:10526000DF93CF931F930F93FF92C92FDD278823DE
:105270002AF02197660F771F881FDAF720E030E0C9
:1052800040E85FEB9FE3883920F0803E38F02196BC
:105290008F770E948027E8E6F0E004C00E94802714
:1052A000E5E9F0E00E94A02A8B01BE01EC01FB2E93
:1052B0006F5771097595771F880B990B0E94962877
:1052C00028E132E741E35FE30E948529AF2D980191
:1052D000AE01FF900F911F91CF91DF910E94972710
:1052E0000C94E8280E9485290C94E8280E94DA286A
:1052F00038F00E94E12820F0952311F00C94D12879
:105300000C94D72811240C941C290E94F92870F3BE
:10531000959FC1F3950F50E0551F629FF001729F5A
:10532000BB27F00DB11D639FAA27F00DB11DAA1F69
:10533000649F6627B00DA11D661F829F2227B00DB6
:10534000A11D621F739FB00DA11D621F839FA00D41
:10535000611D221F749F3327A00D611D231F849F91
:10536000600D211D822F762F6A2F11249F575040E8
:105370009AF0F1F088234AF0EE0FFF1FBB1F661F63
:10538000771F881F91505040A9F79E3F510580F02C
:105390000C94D1280C941C295F3FE4F3983ED4F37D
:1053A000869577956795B795F795E7959F5FC1F7D0
:1053B000FE2B880F911D9695879597F90895FA0110
:1053C000EE0FFF1F309621053105A1F16115710522
:1053D00061F48038BFE39B0749F1689490388105F8
:1053E00061F08038BFEF9B0741F099234AF5FF3FFA
:1053F000E1053105210519F1E8940894E795D901F3
:10540000AA2329F4AB2FBE2FF85FD0F310C0FF5FA3
:1054100070F4A695E0F7F73950F019F0FF3A38F438
:105420009F779F930DD00F9007FC9058089546F0FA
:105430000C94D72860E070E080E89FE308954FE780
:105440009F775F934F933F932F930E942A292F9129
:105450003F914F915F910E9472290C943C2A0E94C7
:105460006E2A880B990B089529F416F00C94D12814
:105470000C941B290C94D7280E940129A8F3963874
:10548000A0F707F80F92E8942BE33AEA48EB5FE7BE
:105490000E9488290F920F920F924DB75EB70F921C
:1054A0000E94092BE2ECF0E00E94A02A4F915F914C
:1054B000EF91FF91E595EE1FFF1F49F0FE57E06861
:1054C0004427EE0F441FFA95E1F74195550B0E94D2
:1054D000D32A0F9007FE0C94C72A0895990F00084D
:1054E000550FAA0BE0E8FEEF16161706E807F907B6
:1054F000C0F012161306E407F50798F0621B730B51
:10550000840B950B39F40A2661F0232B242B252BD1
:1055100021F408950A2609F4A140A6958FEF811D74
:10552000811D08959F3F31F0915020F48795779524
:105530006795B795880F911D9695879597F908956A
:10554000DF93CF931F930F93FF92EF92DF927B0134
:105550008C01689406C0DA2EEF010E948529FE01B5
:10556000E894A5912591359145915591A6F3EF01C8
:105570000E949727FE019701A801DA9469F7DF904E
:10558000EF90FF900F911F91CF91DF9108959B01B4
:10559000AC0160E070E080E89FE30C94EC270C9491
:1055A000D1280C94922A0E940129D8F39923C9F397
:1055B000940F511DA3F39150504094F059F088235B
:1055C00032F0660F771F881F91505040C1F79E3F01
:1055D00051052CF7880F911D9695879597F9089599
:1055E0005F3FACF0983E9CF0BB278695779567951A
:1055F000B79508F4B1609395C1F7BB0F58F711F454
:1056000060FFE8CF6F5F7F4F8F4F9F4FE3CF0C94CA
:105610001C29FA01DC01AA0FBB1F9B01AC01BF577B
:1056200028F4222733274427507820C0B75190F41C
:10563000AB2F0024469537952795011CA395D2F3EF
:10564000002071F0220F331F441FB395DAF30ED000
:105650000C947F2761307105A0E88A07B94630F4C1
:105660009B01AC016627772788279078309621F038
:1056700020833183428353830895991B79E004C0CA
:10568000991F961708F0961B881F7A95C9F7809581
:105690000895AA1BBB1B51E107C0AA1FBB1FA61779
:1056A000B70710F0A61BB70B881F991F5A95A9F7CB
:1056B00080959095BC01CD010895A1E21A2EAA1BF8
:1056C000BB1BFD010DC0AA1FBB1FEE1FFF1FA217B2
:1056D000B307E407F50720F0A21BB30BE40BF50BAF
:1056E000661F771F881F991F1A9469F76095709538
:1056F000809590959B01AC01BD01CF010895A29FBB
:10570000B001B39FC001A39F700D811D1124911D95
:10571000B29F700D811D1124911D08950E947F2B51
:10572000B7FF0895821B930B0895EE0FFF1F05909E
:10573000F491E02D09940F931F93CF93DF93823060
:10574000910510F482E090E0E0917204F09173040E
:1057500030E020E0B0E0A0E0309799F42115310569
:1057600009F44AC0281B390B24303105D8F58A8149
:105770009B816115710589F1FB0193838283FE0191
:1057800011C0408151810281138148175907E0F00F
:105790004817590799F4109761F012960C931297D5
:1057A00013961C933296CF01DF91CF911F910F91E9
:1057B00008950093720410937304F4CF21153105FA
:1057C00051F04217530738F0A901DB019A01BD01DE
:1057D000DF01F801C1CFEF01F9CF909373048093FB
:1057E0007204CDCFFE01E20FF31F819391932250FB
:1057F000310939832883D7CF209170043091710407
:10580000232B41F42091060130910701309371045C
:105810002093700420910401309105012115310578
:1058200041F42DB73EB74091080150910901241B66
:10583000350BE0917004F0917104E217F307A0F4C6
:105840002E1B3F0B2817390778F0AC014E5F5F4FD6
:105850002417350748F04E0F5F1F50937104409393
:105860007004819391939FCFF0E0E0E09CCFCF93C1
:10587000DF930097E9F0FC01329713821282A09126
:105880007204B0917304ED0130E020E01097A1F4B0
:1058900020813181820F931F209170043091710417
:1058A0002817390709F061C0F0937104E093700480
:1058B000DF91CF910895EA01CE17DF07E8F54A811D
:1058C0005B819E0141155105B1F7E901FB83EA8334
:1058D00049915991C40FD51FEC17FD0761F48081E0
:1058E00091810296840F951FE901998388838281B3
:1058F00093819B838A83F0E0E0E012968D919C91E6
:1059000013970097B9F52D913C911197CD0102960F
:10591000820F931F2091700430917104281739076A
:1059200039F6309751F51092730410927204B093C7
:105930007104A0937004BCCFD383C2834081518192
:10594000840F951FC817D90761F44E5F5F4F888198
:105950009981480F591F518340838A819B8193838A
:1059600082832115310509F0B0CFF0937304E093E1
:1059700072049ECFFD01DC01C0CF13821282D7CF0B
:10598000FB01DC0104C08D910190801921F441508C
:105990005040C8F7881B990B0895FB01DC0102C039
:1059A00001900D9241505040D8F7089511E0C0E1A8
:1059B000D1E004C0FE010E94952B2196C131D10790
:0659C000C9F7F894FFCFC7
:1059C6006D016D01000074048000000000000E02ED
:1059D6006E019B015B02CC01AA01BE010000000022
:1059E6001306E6054206BC05DF05CC05BD0500002D
:1059F6000000C80A0000000076176E087017000045
:105A0600000032084E175901400800000000420805
:105A16005617590128130000000067086617590138
:105A2600281300000000E00764086017000000006B
:105A3600E00764087417000000000D0A6508621785
:105A4600B00700000000E90D6608641700000000BA
:085A5600A609EB075017CB1263
:00000001FF
