:100000000C9411010C94A9220C9482220C946C255E
:100010000C9409250C9498240C94EF230C9406243A
:100020000C9439010C9448240C9439010C94390136
:100030000C9439010C9472240C9439010C943901FC
:100040000C9438220C9439010C9406220C94E02173
:100050000C9439010C943E240C9439010C94390110
:100060000C94D0220C94390108000000BE9224495F
:10007000123EABAAAA2ABECDCCCC4C3E00000080DA
:10008000BEABAAAAAA3E00000000BF000000803F4D
:100090000000000000084178D3BB4387D1133D190D
:1000A0000E3CC3BD4282AD2B3E68EC8276BED98F3A
:1000B000E1A93E4C80EFFFBE01C4FF7F3F0000007E
:1000C000000007634236B79BD8A71A39685618AEA6
:1000D000BAAB558C1D3CB7CC5763BD6DEDFD753E7D
:1000E000F6177231BF000000803F005EBCE2613F46
:1000F000DD83C29C7E20A3FD1F41009D23BE46DB05
:1001000065F88C11AF32CA57E97400000000240072
:1001100027002A0000000000250028002B00000016
:1001200000080002010000030407000000000000B6
:100130000000002E0206030D04E905CA070C0B0699
:100140000D210E650F6A10C81193120315341703A1
:10015000181819161B431E2F1F65207823E9242A1F
:10016000251F26113E030A0B0C0512142021222301
:100170002425262728292A2B2C2D2E2F0001020387
:10018000040506070001020304050001020304053B
:10019000000000000000000002140505000000003F
:1001A00002010A0100000000000000000000000041
:1001B0000000000000000000060305010101010A23
:1001C000060101010501050A020602020000000005
:1001D00005010804040404000000000023002600B8
:1001E00029000404040404040404020202020202BA
:1001F00003030303030301020408102040800102EB
:1002000004081020010204081020A5A510554E492D
:1002100053454E5330313000F10315700101CF25A5
:100220003F2E11241FBECFEFD8E0DEBFCDBF11E0BF
:10023000A0E0B1E0EAE9FBE602C005900D92A83A21
:10024000B107D9F724E0A8EAB1E001C01D92AD3FA3
:10025000B207E1F711E0C0E1D1E004C02197FE014F
:100260000E947A34CF30D107C9F70E94ED270C9451
:10027000C0350C9400000895089508958FEF0895F7
:10028000663050F4FC01808191810196F5E06F9F0A
:10029000800D911D1124089590E080E00895089547
:1002A000AF92BF92CF92DF92EF92FF920F931F9384
:1002B000CF93DF936C017B018B01040F151FEB01C2
:1002C0005E01AE18BF08C017D10759F06991D60179
:1002D000ED91FC910190F081E02DC6010995892BEB
:1002E00079F7C501DF91CF911F910F91FF90EF90AA
:1002F000DF90CF90BF90AF900895FC01538D448D57
:10030000252F30E0842F90E0821B930B541710F0C0
:10031000CF96089501970895FC01918D828D9817CD
:1003200061F0A28DAE0FBF2FB11D5D968C91928DA5
:100330009F5F9F73928F90E008958FEF9FEF0895D6
:10034000FC01918D828D981731F0828DE80FF11D9F
:10035000858D90E008958FEF9FEF0895FC01918DBA
:10036000228D892F90E0805C9F4F821B91098F73B3
:100370009927089586EA92E00E94AE0121E0892B38
:1003800009F420E0822F089580E090E0892B29F085
:100390000E94BA0181110C9400000895FC01A48D03
:1003A000A80FB92FB11DA35ABF4F2C91848D90E097
:1003B00001968F739927848FA689B7892C93A0897A
:1003C000B1898C91837080648C93938D848D981304
:1003D00006C00288F389E02D80818F7D8083089597
:1003E000EF92FF920F931F93CF93DF93EC0181E085
:1003F000888F9B8D8C8D98131AC0E889F98980812C
:1004000085FF15C09FB7F894EE89FF896083E8895E
:10041000F98980818370806480839FBF81E090E050
:10042000DF91CF911F910F91FF90EF900895F62EDD
:100430000B8D10E00F5F1F4F0F731127E02E8C8D77
:100440008E110CC00FB607FCFACFE889F9898081BC
:1004500085FFF5CFCE010E94CE01F1CFEB8DEC0FE1
:10046000FD2FF11DE35AFF4FF0829FB7F8940B8FD9
:10047000EA89FB8980818062CFCFCF93DF93EC0143
:10048000888D8823B9F0AA89BB89E889F9898C917C
:1004900085FD03C0808186FD0DC00FB607FCF7CF38
:1004A0008C9185FFF2CF808185FFEDCFCE010E9438
:1004B000CE01E9CFDF91CF910895833081F028F408
:1004C000813099F08230A9F008958730A9F0883002
:1004D000C9F08430B1F4809180008F7D03C0809199
:1004E00080008F7780938000089584B58F7784BDD6
:1004F000089584B58F7DFBCF8091B0008F77809376
:10050000B00008958091B0008F7DF9CFCF93DF9335
:10051000282F30E0F901E25EFE4F8491F901EA50A4
:10052000FE4FD491F901EE51FE4FC491CC23A1F0BE
:1005300081110E945D02EC2FF0E0EE0FFF1FE852E8
:10054000FE4FA591B491EC91ED2381E090E009F488
:1005500080E0DF91CF91089580E090E0FACF1F9383
:10056000CF93DF93282F30E0F901E25EFE4F8491B4
:10057000F901EA50FE4FD491F901EE51FE4FC491BA
:10058000CC23A9F0162F81110E945D02EC2FF0E020
:10059000EE0FFF1FEC5EFE4FA591B4918FB7F8945C
:1005A000EC91111108C0D095DE23DC938FBFDF9151
:1005B000CF911F910895DE2BF8CFCF93DF9390E07A
:1005C000FC01EA50FE4F24918E519E4FFC01849114
:1005D0008823C9F090E0880F991FFC01E65FFE4F69
:1005E000A591B491FC01EC5EFE4FC591D4916111CF
:1005F0000DC09FB7F8948C91209582238C938881AD
:10060000282328839FBFDF91CF910895623051F452
:100610009FB7F8943C91822F809583238C93E88137
:100620002E2BEFCF8FB7F894EC912E2B2C938FBFFE
:10063000EACF3FB7F8948091F6019091F701A0912D
:10064000F801B091F90126B5A89B05C02F3F19F01C
:100650000196A11DB11D3FBFBA2FA92F982F882742
:10066000BC01CD01620F711D811D911D43E0660F1C
:10067000771F881F991F4A95D1F708958F929F92EF
:10068000AF92BF92CF92DF92EF92FF926B017C010B
:100690000E9419034B015C01C114D104E104F1046F
:1006A000B9F00E941903681979098A099B09683E03
:1006B00073408105910580F321E0C21AD108E10859
:1006C000F10888EE880E83E0981EA11CB11CE4CFCF
:1006D000FF90EF90DF90CF90BF90AF909F908F9062
:1006E00008958091000290910102891B990B089551
:1006F000C3960895029608950F931F93CF93DF93A7
:10070000EC010A81802F8295880F807E0E81000F78
:10071000000F082B8885082B1A85812F8295880F5A
:10072000807E1C85110F110F182B8E85182BE881E8
:10073000F9810680F781E02D4C8162EFCE010995A9
:10074000E881F9810680F781E02D402F64EFCE012A
:100750000995E881F9810680F781E02D412F65EF49
:10076000CE01DF91CF911F910F9109942F923F926B
:100770004F925F926F927F928F929F92AF92BF92B1
:10078000CF92DF92EF92FF920F931F93CF93DF935D
:10079000CDB7DEB7C556D1090FB6F894DEBF0FBE90
:1007A000CDBF1C0129967FAF6EAF29978A012B968A
:1007B0003FAF2EAF2B97DC0118968D919C9101973E
:1007C00019F4C1010E947C03D101ED91FC910084D8
:1007D000F185E02D28E0AE014F5D5F4F67EFC1016D
:1007E0000995FE01B196DE0111969E01275D3F4FEE
:1007F000419150E070E060E04D935D936D937D9387
:10080000E217F307A9F7811133C080E090E0A0EC74
:10081000BFE72B96EEADFFAD2B9780839183A2832C
:10082000B383F80180839183A283B3832996EEADCD
:10083000FFAD299780839183A283B383CB59DF4F88
:100840000FB6F894DEBF0FBECDBFDF91CF911F91E1
:100850000F91FF90EF90DF90CF90BF90AF909F905F
:100860008F907F906F905F904F903F902F90089562
:1008700089809A80AB80BC8064968CAE9DAEAEAE13
:10088000BFAE64978D809E80AF80B88468968CAE32
:100890009DAEAEAEBFAE689789849A84AB84BC84AB
:1008A0006C968CAE9DAEAEAEBFAE6C972D853E8580
:1008B0004F855889ACE0220F331F441F551FAA955E
:1008C000D1F789899A89AB89BC8964E0880F991F1F
:1008D000AA1FBB1F6A95D1F7282B392B4A2B5B2BFC
:1008E0008D899E89AF89B88D74E0B595A795979548
:1008F00087957A95D1F7282B392B4A2B5B2B898D3D
:100900009A8DAB8DBC8DBA2FA92F982F8827CD8CAF
:10091000DE8CEF8CF8A04C015D018C289D28AE2860
:10092000BF28A0968CAE9DAEAEAEBFAEA097D10153
:1009300050968D919C91B0E0A0E069017A01F4E0BD
:10094000F594E794D794C794FA95D1F7C81AD90AC1
:10095000EA0AFB0A63E055954795379527956A950E
:10096000D1F7880F991FAA1FBB1F281B390B4A0BF1
:100970005B0BF101A289B3890E94EF324B015C014C
:10098000ABE0B594A79497948794AA95D1F7A70163
:100990009601C701B6010E947C329B01AC01BCE00C
:1009A0005595479537952795BA95D1F7A489B58977
:1009B0000E94EF322EE095958795779567952A9559
:1009C000D1F775016401C60ED71EE81EF91EC9AE27
:1009D000DAAEEBAEFCAEA5E0B0E0A70196010E9456
:1009E000E43260587F4F8F4F9F4F672F782F892FAA
:1009F000992787FD9A950E948B2F20E030E048ECE4
:100A000052E40E94E12ED8016D937D938D939C93C7
:100A10001397F101F48DA596FFAFA597D1015D96CF
:100A2000BC912E96BFAF2E97F101F68DA296FFAF27
:100A3000A297D1015F96BC91BDAFF101F0A1A19643
:100A4000FFAFA197D1019196BC91BEABF101F2A18C
:100A5000A496FFAFA497D1019396BC912D96BFAFFA
:100A60002D97F101F4A1A396FFAFA397D10195961D
:100A7000BC912C96BFAF2C97F101F6A1A696FFAFC3
:100A8000A697D1019796BC912F96BFAF2F97FF0CD9
:100A9000CC08DC2C760129AD3AAD4BAD5CAD6C2DAC
:100AA0007C2D8C2D9C2D345F4140510961097109C9
:100AB000810991092BAB3CAB4DAB552E3B014C0151
:100AC0005901C42ED52E7B018C010E94F73221964C
:100AD0002FAF219722963FAF229723964FAF2397B0
:100AE00024965FAF249725966FAF259726967FAF04
:100AF000269727968FAF279760969FAF6097F10153
:100B0000318D208D932F990F990B492F592F692FD4
:100B1000792F892F0E94F7320CE00E94263429A7F2
:100B20003FAB442E58AF69AB7AAB8EAF9FAFD101CC
:100B30005B963C915B975A962C91932F990F990B4A
:100B40002196AFAC21972296BFAC22972396CFACCB
:100B500023972496DFAC24972596EFAC259726960D
:100B6000FFAC269727960FAD279760961FAD60972D
:100B7000492F592F692F792F892F0E94F73208E0CA
:100B80000E943F34A9A4BFA8C42CD8ACE9A8FAA8F5
:100B90000EAD1FAD0E945C3470588F4F9F4FD10136
:100BA0005696ED91FC915F01D12CC12CE12CF12CDA
:100BB0008701E9A7BAA6CBA6DCA6EDA6FEA60FA7DD
:100BC00018ABC12CD12CE12CF12C00E010E00E94DC
:100BD000F73201E20E943F3429A73FAB48AF59AB3F
:100BE0006AAB7EAF8FAF492EA0E00E946E3409F44D
:100BF00063C2A1962FADA1979EA9990F990B21963B
:100C0000AFAC21972296BFAC22972396CFAC239707
:100C10002496DFAC24972596EFAC25972696FFAC5B
:100C2000269727960FAD279760961FAD60973EA930
:100C3000492F592F692F792F892F0E94F7322EAB18
:100C400021963FAF219722964FAF229723965FAF11
:100C5000239724966FAF249725967FAF25972696E6
:100C60008FAF269727969FAF2797A2962FADA29773
:100C70009DAD990F990BABA8BCA8CDA8D52C73013D
:100C800084013DAD492F592F692F792F892F0E945B
:100C9000F73201E10E942634AEA82196BFAC21971D
:100CA0002296CFAC22972396DFAC23972496EFAC05
:100CB00024972596FFAC259726960FAD2697279665
:100CC0001FAD27970E945C3459016A017B01582EA1
:100CD000192F68964CAD5DAD6EAD7FAD689734E071
:100CE000440F551F661F771F3A95D1F76C968CAD50
:100CF0009DADAEADBFAD6C97E4E0B595A79597956A
:100D00008795EA95D1F7842B952BA62BB72B649664
:100D10004CAD5DAD6EAD7FAD6497FCE0440F551FEB
:100D2000661F771FFA95D1F7482B592B6A2B7B2B1F
:100D300080E090E0A0E1B0E0841B950BA60BB70B20
:100D40003C014D01990C6608762C43019C01AD01D4
:100D5000662D762D862D962D0FE10E9426343901C1
:100D60004A01B62FA72FF82FE92FA5962FADA597EB
:100D70002E969FAD2E97990F990B2E963FAD2E97DD
:100D8000492F592F692F792F892F03E20E9426348A
:100D9000052D0E945C3459016A017B018C0193018D
:100DA000A4016B2F7A2F8F2F9E2F0E946534E5E3CD
:100DB000AE2EFCE0BF2EC12CD12CE12CF12C00E09A
:100DC00010E00E94F732A9A4BFA8C8ACD9A8EAA82D
:100DD000FEAC0FAD142D0E9451332BAB3CAB4DAB91
:100DE00059A76EAB7DAF8FAB98AF0DE00E943F343B
:100DF00029AB9AABA6962FADA6972F969FAD2F97AE
:100E0000990F990BA9A8B32EC42ED52EE62EF72E36
:100E1000082F1AA92F963FAD2F97492F592F692FC9
:100E2000792F892F0E94F7320E94F73209E10E9440
:100E30003F34ABA8BCA8CDA8D9A4EEA8FDAC0FA99F
:100E400018AD0E945C3429AB3AAB2A013B014C013E
:100E5000A3962FADA3972C969FAD2C97990F990B26
:100E60002C963FAD2C97492F592F692F792F892F19
:100E70000E94F73203E10E943F3459016A017B016D
:100E80008C0129A93AA9A201B301C4010E945C34D2
:100E900008E00E943F3459016A017B01E82F192FB5
:100EA000A4962FADA4972D969FAD2D97990F990BD2
:100EB0002D963FAD2D97492F592F692F792F892FC7
:100EC00004E00E9426340E2F0E945C34B901CA014E
:100ED0000E94892F20E030E040E85BE30E94BF30B1
:100EE00020E030E048EC52E40E94E12E2996AEADBD
:100EF000BFAD29976D937D938D939C931397F101CB
:100F000025A5C9ACDAACEBACFCACFCE2DF1AF1E035
:100F1000EF0AF108A0968CAC9DACAEACBFACA0972C
:100F20003EE0880C991CAA1CBB1C3A95D1F7D10154
:100F30009C968C91B0E18B02C0011124322F3F703E
:100F4000832B092E000CAA0BBB0B44E1880F991FC1
:100F5000AA1FBB1F4A95D1F7881A990AAA0ABB0A89
:100F6000F101A6A5F0E1AF02D001112422952F7066
:100F7000A22BA70196010E94EF32861A970AA80AAF
:100F8000B90A00E4900EA11CB11C6FE0B594A794BF
:100F9000979487946A95D1F7F101A3A5B0E00E94D8
:100FA000E4322B013C017BE075946794579447949D
:100FB0007A95D1F7F0E85F0E611C711CF101A7A5CD
:100FC0000A2E000CBB0B0E94EF32AAE09595879584
:100FD00077956795AA95D1F7A30192010E947C327B
:100FE0009B01AC01BAE05595479537952795BA9581
:100FF000D1F7405E5F4FA1A5B2A50E94EF32705EAF
:101000008F4F9F4F1EE095958795779567951A9519
:10101000D1F7A50194010E947C326B017C010FE0A5
:1010200095958795779567950A95D1F79B01AC01C2
:101030000E947C329B01AC0187E05595479537951E
:1010400027958A95D1F7A0A5B0E00E94E43224E06C
:1010500095958795779567952A95D1F7C61AD70AFA
:10106000E80AF90AF7FE03C0C12CD12C7601C701AA
:10107000B601613071058105F9E19F0724F060E058
:1010800070E080E099E12CE09595879577956795DC
:101090002A95D1F70E94892F20E030E040E85AE3FA
:1010A0000E94BF302B96AEADBFAD2B976D937D9355
:1010B0008D939C931397C2CB60E070E080EC9FE728
:1010C00015CF2EE0FB01DC01129601900D922A95BE
:1010D000E1F70C947C0320E1FB01DC01D396019045
:1010E0000D922A95E1F70C946108CF92DF92FF925E
:1010F0000F931F93CF93DF9300D000D0CDB7DEB70F
:101100008C01DC01ED91FC910084F185E02D21E062
:10111000AE014F5F5F4F60ED09958981883509F415
:101120005CC0803609F061C080E690E0F80191ABC8
:1011300080ABD801ED91FC910084F185E02D26E093
:10114000A801405F5F4F68E8C8010995F82ED801F3
:10115000ED91FC910084F185E02D22E1A8014A5E29
:101160005F4F6EE8C8010995F822D801ED91FC9116
:101170000084F185E02D21E0A801485D5F4F61EA20
:10118000C8010995F822D801ED91FC910084F18500
:10119000E02D27E0A801475D5F4F61EEC80109958A
:1011A000F822F801C484D584C114D10491F01586C5
:1011B0001486C8010E947C039E012F5F3F4FA90146
:1011C000B901C8010E94B603D8011D96DC92CE92E7
:1011D0001C97C8010E947C030CC088E590E0D801F0
:1011E000D1969C938E93D097A4CFF80111AA10AA00
:1011F000F12CF801F2AA8F2D0F900F900F900F9005
:10120000DF91CF911F910F91FF90DF90CF900895C4
:101210002091CE01260F3327331F21323105ECF404
:1012200020917C02FC0190E080E0243069F082E0B3
:101230000895A091CE012191AC0142555E4FA40FBB
:10124000B52FB11D2C930196861798F38091CE018E
:10125000680F6093CE0180E0089581E008951092B8
:101260007C0281E080937B021092560261E082E171
:101270000E94AF0261E083E10E94AF02E9EBF0E07F
:1012800080818E7F808380818D7F808380E28093C8
:10129000B80085E48093BC000895CF93DF9391E07C
:1012A0009093AD018823B9F0C091B800D091BA00F5
:1012B0008091BC008A7B8093BC0060E082E10E9448
:1012C000AF0260E083E10E94AF020E942F09D09339
:1012D000BA00C093B800DF91CF910895CF92DF920A
:1012E000EF92FF920F931F93CF93DF93D091A502BC
:1012F00081E0D13208F09CC0C091A4020E94190381
:101300006B017C0180917C0281116CC082E0809332
:101310007C0281E080937B028FEF80937A021092AF
:101320007902D0937802A4E8B2E0E8E5F2E080E048
:10133000D8138DC01092570280915702CC0FC82B42
:10134000C093570280915602813009F084C01092F8
:1013500056020E9419036B017C0180915702809311
:10136000BB0080917E0290917F02A0918002B0919B
:101370008102892B8A2B8B2BA1F00E9419030091EB
:101380007E0210917F0220918002309181026C19BF
:101390007D098E099F09061717072807390708F4E2
:1013A00042C08091BC0083FDD8CF85EC8093BC0007
:1013B0000E9419036B017C0180917C02823009F448
:1013C0004CC080917A028F3F09F469C080917A0203
:1013D000803209F466C080917A02803309F463C0D8
:1013E00084E026C080917E0290917F02A0918002CD
:1013F000B0918102892B8A2B8B2B09F483CF0E9419
:10140000190300917E0210917F0220918002309199
:1014100081026C197D098E099F0906171707280795
:10142000390708F06FCF80917D020E944D0985E059
:10143000109283021092A50210928202DF91CF9146
:101440001F910F91FF90EF90DF90CF9008959D91A5
:1014500091938F5F6DCF85EEA9CF80917E029091A1
:101460007F02A0918002B0918102892B8A2B8B2B65
:1014700009F4A2CF0E94190300917E0210917F020D
:1014800020918002309181026C197D098E099F099B
:10149000061717072807390708F08ECFC4CF80E05A
:1014A000C7CF82E0C5CF83E0C3CF8F929F92AF9228
:1014B000BF92CF92DF92EF92FF920F931F93CF9341
:1014C000DF93D82FC62F142F613208F09CC00E94E2
:1014D00019036B017C0180917C0281116FC081E056
:1014E00080937C0210937B029FEF90937A0210927C
:1014F00079029C0F90937802809357028091570253
:10150000DD0FD82BD093570280915602813009F01D
:101510007CC0109256020E9419036B017C018091DD
:1015200057028093BB0080917E0290917F02A09130
:101530008002B0918102892B8A2B8B2BA1F00E9413
:10154000190300917E0210917F0220918002309158
:1015500081026C197D098E099F0906171707280754
:10156000390708F44CC08091BC0083FDD8CF85ECCE
:101570008093BC000E9419036B017C0180917C0266
:10158000813009F444C0809179028C1710F4C09125
:101590007902E8E5F2E0A6E3B2E080E08C1359C0FE
:1015A0008C2FDF91CF911F910F91FF90EF90DF90E3
:1015B000CF90BF90AF909F908F90089580917E02C2
:1015C00090917F02A0918002B0918102892B8A2B99
:1015D0008B2B09F480CF0E94190380907E0290909B
:1015E0007F02A0908002B09081026C197D098E0963
:1015F0009F0986169706A806B90608F06CCF809159
:101600007D020E944D09C0E0CBCF85EEB1CF809125
:101610007E0290917F02A0918002B0918102892B7D
:101620008A2B8B2B09F4AACF0E94190300917E020A
:1016300010917F0220918002309181026C197D0906
:101640008E099F09061717072807390708F096CF54
:10165000D6CF91919D938F5FA1CF0895E091010224
:1016600080910002E81730F4F0E0EA5CFD4F8081E1
:1016700090E008958FEF9FEF08959091010280917F
:1016800000022FEF3FEF981748F4E92FF0E0EA5CF3
:10169000FD4F208130E09F5F90930102C9010895C2
:1016A000CF92DF92EF92FF920F931F93CF93DF932E
:1016B0007C01CB018A0120918202222389F0EB0177
:1016C0006B01C40ED51ECC15DD0569F06991D701FB
:1016D000ED91FC910190F081E02DC7010995F3CFC8
:1016E000642F0E940809C801DF91CF911F910F91CB
:1016F000FF90EF90DF90CF900895CF93DF931F92EC
:10170000CDB7DEB76983209182022223F9F02091C0
:10171000A502203258F021E030E0FC01338322831F
:1017200090E080E00F90DF91CF9108958091830247
:10173000E82FF0E0EC57FD4F998190838F5F809305
:1017400083028093A50281E090E0ECCF61E0CE01BE
:1017500001960E940809F7CF682F83E493E00C9468
:101760007D0BCF93C42F8F5B9F4FFC01808191E055
:10177000909382028093A402109283021092A50299
:1017800083E493E00E947D0B6C2F83E493E00E943E
:101790007D0B0E946E0981E0CF91089590E080E07A
:1017A0000895DC0180E0615090F09D919827E92F29
:1017B000EF70F0E0E651FF4F2491E92FE295EF70D2
:1017C000F0E0E650FF4FE491822F8E27ECCF089592
:1017D000DC012C911196ED91FC91F8948181822B82
:1017E00081839281322F30959323928382E090E01F
:1017F0000197F1F781818323818380E190E0019754
:10180000F1F790817894E6E6F0E03197F1F79223D2
:1018100081E009F480E00895FC0190810180F2816B
:10182000E02D292F209560FF14C0F8948281822337
:1018300082838181892B8183A0E1B0E01197F1F748
:101840008281982B928378948AE690E00197F1F751
:101850000895F8948281822382838181892B8183F8
:10186000AEE7B0E01197F1F78281982B92837894DC
:1018700086E090E0EBCFEF92FF920F931F93CF9310
:10188000DF93EC01E62E08E010E0FF24F39461E022
:101890008E2D8F2109F460E0CE010E940C0CFF0C0C
:1018A00001501109A1F7F894E981FA8191818881A9
:1018B000809589238183E981FA819281888180954D
:1018C000892382837894DF91CF911F910F91FF90AC
:1018D000EF9008954115510529F4EAE7F0E0808181
:1018E0008F7780836A307105B9F0CB01880F991F1B
:1018F000880F991F807267706860682B88E10FB647
:10190000F894A895809360000FBE60936000E0E6B5
:10191000F0E0808180648083232BD9F483B7817FBA
:10192000846083BFF89483B7816083BF85B7806686
:1019300085BF8F7D85BF7894889583B78E7F83BF61
:101940007894452B29F4EAE7F0E080818068808371
:10195000089583B7817F846083BFF89483B78160E3
:1019600083BF7894889583B78E7F83BF7894E9CFBF
:101970008EBD0DB407FEFDCF8EB5089561E08AE0FF
:101980000C94AF028CE00E9486028111FBCF089577
:1019900060E08AE00C94AF02CF93DF93D82FC62F7C
:1019A0000E94C80C0E94C20C8D2F8C2B0E94B80C78
:1019B00080E00E94B80CC82F0E94BE0C8C2FDF91D3
:1019C000CF910895CF93C82F0E94C80C0E94C20CDB
:1019D0008C2F0E94B80CC82F0E94BE0C8C2FCF9168
:1019E000089586E30E94E20C8DE30E94E20C8AE3F4
:1019F0000C94E20CBC0190E080E00E943E0384E085
:101A000090E030E020E060E170E040917A004064D6
:101A100040937A0042E350917A0056FF08C0FB01E0
:101A20003197F1F74150B9F790E080E00895409187
:101A30007800509179005370240F351F019729F7D2
:101A4000C9019695879596958795237033272230FF
:101A5000310560F301960895EFE6F0E08081816042
:101A600080830895863130F4E82FF0E0EA59FE4F84
:101A7000849108958FEF0895CF93DF93EC018091C7
:101A80007C00807380937C0080917C00806C8093CC
:101A90007C0080917C0080937C0061E089E00E9462
:101AA000AF02888999890E94FA0CEC0160E089E014
:101AB0000E94AF02209761F09E01A0EEBBEA0E9457
:101AC000CE3220E038E240E050E00E94AC32E90142
:101AD000CE01DF91CF910895FC0110860895FC019D
:101AE000962F97706085687F692B608708950895A9
:101AF000813011F08FEF089580E00895882311F070
:101B00008FEF089581E00895883011F08FEF0895E8
:101B100080E00895882311F08FEF089588E00895FC
:101B2000FC018289938961E0911101C060E00C940D
:101B3000AF021F93CF93DF93FC01238520FF11C0D9
:101B4000162FEC010E94C80C0E94C20C0E94BE0C11
:101B500011110E94F10C84E30E94E20C8B858E7FB0
:101B60008B87DF91CF911F9108950895E091FA013D
:101B7000F091FB01838581FD03C083858C608387A1
:101B800008950895089580E008950F931F93CF93CB
:101B9000DF932EE531E0FC01318320838C01095B6A
:101BA0001F4F81F0EC01CC5FDE4F0C171D0751F089
:101BB000CD5BD109E881F9810280F381E02DCE016E
:101BC0000995F3CFDF91CF911F910F91089508955B
:101BD000089508952AE631E0FC01318320830C94B6
:101BE000C50D0895982FE6E6F1E080E02491921764
:101BF00029F08F5F31968631C9F78FEF08950C94E5
:101C0000F20D80917C00807380937C0080917C0039
:101C1000806480937C0080917C008E6080937C0047
:101C200082E390E00E94FA0C009751F09C0150E092
:101C300040E060E070E381E190E00E94AC32C901D5
:101C400008950895862728E0BC0176956795AC0134
:101C50004170552780FF02C041E050EACB01842744
:101C60009527215089F70895FC0110821182128274
:101C700013821682158214821186108617821286AC
:101C800013860895FC018081811109C08181811131
:101C900006C081E09281911103C080E0089581E047
:101CA0000895DC01FB019C91808198130BC0119673
:101CB0009C9111978181981305C081E012962C9117
:101CC0009281291380E00895FC013381FB01238177
:101CD000321302C00C94510E80E00895CF93DF932D
:101CE00000D000D0CDB7DEB7FC0180899485998300
:101CF00095859A8396859B838C83882389F0BF0181
:101D0000645F7F4FCE0101960E94640E811108C06E
:101D100082E00F900F900F900F90DF91CF91089578
:101D200081E0F7CF2FB7F894FC01808191812FBF1C
:101D30000895FF920F931F93CF93DF93EC018B01D4
:101D4000FFB6F8940E94920E9C019FB7F894F80198
:101D5000318320839FBF8FB7F894198308838FBF87
:101D6000FFBEDF91CF911F910F91FF9008956F9269
:101D70007F928F92DF92EF92FF920F931F93CF93F8
:101D8000DF937B0122E0E20EF11CDB0115962D9121
:101D90003D914C91232B242B09F44FC0EB018C0176
:101DA000DFB6F8949C819F7090619C83C8010E946B
:101DB000920E009709F43EC0FC013297A1F06580B5
:101DC000768087802D813E814F81CF0102966216F9
:101DD0007306840650F42619370948092D833E837B
:101DE0004F838C01E4CF90E080E02FB7F8949B8381
:101DF0008A832FBF8FB7F894D801ED92FC928FBFE2
:101E0000309761F085819681A7812D813E814F8138
:101E1000821B930BA40B85839683A783DFBEDF9180
:101E2000CF911F910F91FF90EF90DF908F907F9057
:101E30006F900895F0E0E0E0D8CFB7010296DF910F
:101E4000CF911F910F91FF90EF90DF908F907F9037
:101E50006F900C94990E1F93CF93DF93EC01FB01CD
:101E60002885922F9770943079F040F4923051F099
:101E7000933039F1DF91CF911F910895953009F199
:101E80009630C1F711E012C023FD21C02A853B85A1
:101E90002550310913E02115310541F040E02D8333
:101EA0003E834F83BE01CF010E94B70EE881F981C6
:101EB0000680F781E02D612FCE01DF91CF911F9138
:101EC000099423FDD7CF2A853B8515E0E4CF25E093
:101ED00030E012E0E3CFFF920F931F93CF93DF9395
:101EE000EC018B01E889FF24F394FE0EF88AE80FD9
:101EF000F92FF11D228530E0A4E6B0E00E94CE3239
:101F00002AE030E040E050E00E94AC322D833E8376
:101F10004F83F0FE11C08A899B8960E0911101C056
:101F200061E00E94AF02BE01C801DF91CF911F9115
:101F30000F91FF900C94B70ECE010E94900DF3CF3D
:101F40000F931F93CF93DF93EC018B01E881F9810D
:101F50000680F781E02D09959B878A878C859D8572
:101F6000AE858D839E83AF83BE01C801DF91CF9183
:101F70001F910F910C94B70EEF92FF920F931F9346
:101F8000CF93DF93EC01FFB6F8940E94920E8C0180
:101F9000892B71F0EFB6F894CE010E94920E0E9448
:101FA000920E9C019FB7F894398328839FBFEFBEA0
:101FB000FFBEC801DF91CF911F910F91FF90EF906D
:101FC0000895BF92CF92DF92EF92FF920F931F93EB
:101FD000CF93DF93EC01FFB6F8948C818F708C83E4
:101FE00080E693E00E94920E0097C9F19C01225076
:101FF000310980E693E02115310589F189010E5FF1
:102000001F4FC217D30709F50E94BC0FC8010E94D9
:10201000920E009779F0FC01329761F085819681EC
:10202000A7812D813E814F81820F931FA41F85833D
:102030009683A783FFBEDF91CF911F910F91FF90F1
:10204000EF90DF90CF90BF900895C8010E94920E4C
:10205000009729F09C0122503109C801CCCF6E01B4
:1020600082E0C80ED11CEFB6F894BFB6F89482E6B1
:1020700093E00E94920EEC0122E633E0209779F083
:1020800010E000E0CC16DD0609F48901CE010E94C3
:10209000920E9E010115110521F4EC01EFCF10E025
:1020A00000E0BFBE0115110511F4EFBEC3CFC8019A
:1020B0000E94BC0FFACFEF92FF920F931F93CF9322
:1020C000DC0118960D911C91F80181850E94860211
:1020D000D8011896CC911897C3FBEE24E0F8F12CA8
:1020E0008E151F04C9F180FBC3F91896CC93C770F5
:1020F000C33031F0C53021F0C130C1F4C4E007C0B5
:10210000F801808583FF12C0C33021F1C6E0C80109
:102110000E94E10F85E090E0A0E0F80185839683BE
:10212000A783B80180E693E00E94B70ED801189605
:102130008C91189787708C1779F0ED91FC9106803F
:10214000F781E02D6C2FC801CF911F910F91FF9067
:10215000EF900994C2E0DBCFCF911F910F91FF90D8
:10216000EF90089580E793E00E94E10F60E773E04D
:1021700080E693E00C94B70E8F929F92AF92BF923D
:10218000CF92DF92EF92FF92CF93DF93EC014A015F
:102190005B0180E693E00E94920E0097B9F481E023
:1021A0008887CE010E94E10F8D829E82AF82BE01A0
:1021B00080E693E0DF91CF91FF90EF90DF90CF909A
:1021C000BF90AF909F908F900C94B70E0297C12C48
:1021D000D12C7601009719F3FC01258136814781C6
:1021E000642FA90170E0C40ED51EE61EF71EC817A5
:1021F000D90739F002960E94920E009781F2029759
:10220000E9CFC814D904EA04FB0448F2DF91CF9166
:10221000FF90EF90DF90CF90BF90AF909F908F9006
:10222000089582E693E00E94BC0F0097B1F0DC01B4
:10223000129799F014968C9114978F7014968C9332
:102240001497ED91FC9111970190F081E02D60E6DB
:1022500073E0CD01099581E0089580E00895CF9263
:10226000DF92FF920F931F93CF93DF938C01FFB602
:10227000F8940E94920E009771F1EC01229759F1A7
:102280008D819E81AF810197A1098D839E83AF834C
:10229000680182E0C80ED11C8D819E81AF81892B9F
:1022A0008A2BC9F4C8010E94BC0F8C81982F9F70A3
:1022B00080FF1BC09C83E881F9810190F081E02DB3
:1022C000B801CE010995C8010E94920E009719F03D
:1022D000EC01229709F7FFBEC801DF91CF911F9152
:1022E0000F91FF90DF90CF900895BE016E5F7F4FFA
:1022F000C6010E94990EE7CFEF92FF920F931F93B2
:10230000CF93DF937A01D22F8C010F5B1F4FF8011F
:10231000808191E0909382028093A40210928302C4
:102320001092A50283E493E00E947D0B0E946E0947
:102330006D2FD13208F060E241E0F80180810E9407
:10234000550A182F1092010280930002C0E080917C
:102350000102181751F083E493E00E943D0BF7014E
:10236000EC0FF11D8083CF5FF2CF81E0CD1380E0D1
:10237000DF91CF911F910F91FF90EF900895FC0195
:1023800090810180F281E02DF8948181292F2095A0
:102390008223818378943DE7315011F18081892334
:1023A000D9F3F8948281822382838181892B81836E
:1023B0007894ACEBB3E01197F1F7F8948181822324
:1023C0008183A8E8B0E01197F1F78081982381E03C
:1023D00009F080E07894E0E3F3E03197F1F70895B5
:1023E00080E008951F93CF93DF931F92CDB7DEB7A0
:1023F000162F0E94F20D8F3F99F06091B8037091F3
:10240000B903680F711D198341E050E0CE010196B8
:102410000E945C2E81E00F90DF91CF911F91089573
:1024200080E0F9CFCF93C82F60E00E94F21188239B
:10243000A1F060E081E08C0F0E94F211882369F026
:1024400060E082E08C0F0E94F211882331F060E09E
:1024500083E08C0FCF910C94F21180E0CF9108951E
:10246000EF92FF920F931F93CF93DF931F92CDB7FD
:10247000DEB78C017B01E80EF91E198241E050E0C5
:10248000B801CE0101960E945C2E0F5F1F4FE0162F
:10249000F10699F781E00F90DF91CF911F910F9195
:1024A000FF90EF9008951F93CF93DF93D82F162FAF
:1024B000C42F0E94C80C0E94C20C8D2F0E94B80C21
:1024C000812F0E94B80C0E94BE0C60E88D2F0E94E4
:1024D000CC0C181799F080E0CC2361F04FEF4C0F33
:1024E000612F8D2F0E945312EFECF7E03197F1F737
:1024F00000C00000DF91CF911F91089581E0FACFD5
:1025000085ED8093BC0080917E0290917F02A09126
:102510008002B09181020796A11DB11D23E0B695FE
:10252000A795979587952A95D1F72091BC0024FD12
:1025300003C010927C02089540917E0250917F0268
:102540006091800270918102452B462B472B69F3E5
:102550000097A105B10541F02AE12A95F1F700C0E5
:102560000197A109B109E1CF80917D020C944D0939
:10257000CF93CFEF86E30E94E20CC150807731F019
:102580008AE18A95F1F700C0C111F4CF8AE30E9475
:10259000E20C89E3CF910C94E20C0F931F93CF933D
:1025A000DF93EC018B010E94E10FCE010E94900DA0
:1025B000B80183E0660F771F8A95E1F760577E4F79
:1025C00048E050E0CE0108960E94432E888588237B
:1025D00059F0188A198A60E673E0CE01DF91CF9135
:1025E0001F910F910C946B0FDF91CF911F910F9161
:1025F00008950F931F93CF93DF9300D01F92CDB711
:10260000DEB78B0143E050E0BC01CE0101960E9491
:10261000432E9A818B812981F801208391838283C3
:102620000F900F900F90DF91CF911F910F91089510
:102630001F93CF93DF93EC011FB7F8949889888597
:10264000981740F4CE010E946B0F1FBFDF91CF910E
:102650001F910895188A99859923A1F389898F5F1D
:10266000898B891778F3CE010E94900D48E050E0E5
:1026700060E971E0CE0108960E94432EE6CFCF9329
:10268000DF931F92CDB7DEB7198241E050E0BC0165
:10269000CE0101960E944C2E89810F90DF91CF913F
:1026A0000895CF93DF93EC0188E10E94F20D8F3FF4
:1026B00059F028813981820F932F911D0E943F1379
:1026C0008170DF91CF91089580E0FBCFCB960E947F
:1026D0005113811109C064E070E090E080E00E9435
:1026E0003012F0E0E0E0099408950F931F93CF9328
:1026F0008C01862FC42F0E94F20D8F3F59F0F801F4
:1027000020813181820F932F911DCF911F910F91C5
:102710000C943F138C2FCF911F910F910895EF923E
:10272000FF920F931F93CF93DF93EC018B0140E057
:102730006CE0C8010E947513F82E40E06BE0C80100
:102740000E947513E82E40E06AE0C8010E947513EC
:102750008883E982FA82CE01DF91CF911F910F9198
:10276000FF90EF9008958F929F92AF92BF92CF9279
:10277000DF92EF92FF921F93CF93DF93EC01162F1E
:1027800040E00E947513C82E61E0610F40E0CE0169
:102790000E947513D12CF12CE12CFC2CEE24DD24AD
:1027A000CC2490E0B0E0A0E0DC0199278827460126
:1027B0005701880E991EAA1EBB1E62E0610F40E001
:1027C000CE010E94751390E0B0E0A0E0CC24D82E9A
:1027D000E92EFA2EC80CD91CEA1CFB1C63E0610F21
:1027E00040E0CE010E947513A7019601280F311D0C
:1027F000411D511DCA01B901DF91CF911F91FF9079
:10280000EF90DF90CF90BF90AF909F908F90089502
:10281000CF93DF93EC01CB011A82198218821B82BD
:10282000642F04960E944001009731F044E050E08C
:10283000BC01CE010E944C2ECE01DF91CF910895B4
:10284000EF92FF921F93CF93DF9300D000D0CDB7CC
:10285000DEB77C0110E0412FB701CE0101960E9446
:102860000814CE0101960E94420E882321F01F5FBA
:10287000163089F71FEF812F0F900F900F900F9058
:10288000DF91CF911F91FF90EF900895AF92BF928B
:10289000CF92DF92EF92FF921F93CF93DF9300D0FE
:1028A00000D0CDB7DEB77C016B0110E05C0184E0A5
:1028B000A80EB11C412FB701CE0101960E94081449
:1028C000B601CE0101960E94640E882379F01B8226
:1028D0001A8219821C82612FC5010E94400144E0C6
:1028E00050E0BC01CE0101960E945C2E1F5F1630A5
:1028F00009F781E00F900F900F900F90DF91CF912B
:102900001F91FF90EF90DF90CF90BF90AF90089510
:10291000AF92BF92CF92DF92EF92FF921F93CF932D
:10292000DF9300D000D0CDB7DEB77C016B015A0138
:1029300010E0412FB601CE0101960E940814B501A6
:10294000CE0101960E94640E8823C1F0612FC6015A
:1029500004960E9440010496F70191838083C70189
:102960000F900F900F900F90DF91CF911F91FF90DC
:10297000EF90DF90CF90BF90AF9008951F5F16301B
:10298000C1F690E080E0E8CFCF93DF9300D000D095
:1029900000D01F92CDB7DEB7FC0121111FC083AD5F
:1029A00094AD9A83898386E18B8382E39DE09D8346
:1029B0008C838FEF9DE09F838E8329813A814B81A9
:1029C0005C816D817E818F8190E027960FB6F894AF
:1029D000DEBF0FBECDBFDF91CF910895662331F1E9
:1029E00082AD861750F105ACF6ADE02D213069F4CB
:1029F0004485558561E084E89DE02AE83DE05A83FE
:102A000049836B833D832C83D6CF2430B1F4BF013F
:102A1000685F7F4FCE0101960E94881449815A81D8
:102A200088E79DE02EE73DE061E0E9CF90E080E0BF
:102A300030E020E050E040E0E2CF90E080E030E0A5
:102A400020E060E0F7CF0E94A535AF92BF92CF9211
:102A5000DF92EF92FF920F931F93CF93DF93EC01DE
:102A60007B018B858B7F8B878E01035F1F4F60EC13
:102A70008BE30E94CC0C18166CF1D12C8AE30E94D7
:102A8000E20C8BE791E00197F1F700C000000E9493
:102A9000F10C84E30E94E20CDD2009F460C0DC86C6
:102AA0008D8596E798279D8721E04D2D50E0BA014E
:102AB00061507109A22FB0E0F801EA0FFB1F90816D
:102AC000A617B7070CF043C08452892780832F5F75
:102AD000892FF0CF60E88FE30E94CC0CD82E49E21A
:102AE000481758F20E94C80C0E94C20C8FEF0E9437
:102AF000B80CC02E58018A2D8C198D1538F480E041
:102B00000E94B80CF50181935F01F5CF0E94BE0CC5
:102B100060E88FE30E94CC0C282F30E0082E000CD8
:102B2000990B88279170A901481B590BCA0157FDC1
:102B3000019695958795919581959109865B8983F5
:102B400060E88FE30E94CC0C87FF97CF97CF8E85EC
:102B500089278083B801C70101960E94B735F70124
:102B6000D0821C8660E0CE010E94990DF701808121
:102B7000DF91CF911F910F91FF90EF90DF90CF9059
:102B8000BF90AF9008952F923F924F925F926F92B5
:102B90007F928F929F92AF92BF92CF92DF92EF92ED
:102BA000FF920F931F93CF93DF93CDB7DEB7E097DC
:102BB0000FB6F894DEBF0FBECDBF6C018B01FA01DA
:102BC0008081DB0117968C931797818118968C93DF
:102BD0001897828119968C9368E573E0CA010E9468
:102BE000510E882329F0F80182818F7D84608283D1
:102BF000B8016C5F7F4FD601D7968D919C910E9452
:102C0000F912F80182818068828346E064E1D6018E
:102C100014968D919C910E947513B82E811102C05B
:102C2000BB24B394F601E480F58085E00E94F20DA8
:102C30008F3F09F45CC0D7012D913C91820F932FF7
:102C4000911D0E943F13782E72947694769443E0FF
:102C5000742241F0F6018281938162E070E0029675
:102C60000E94CD12C801019698AB8FA73AE0432E7F
:102C7000512C612CD8011796BEA7ADA7BB2009F433
:102C800072C1F601E280F3804701F1E38F0E911CDF
:102C9000D80112968C9180718BA71701BEE32B0E81
:102CA000311CF801408150E06FA578A9C1010E9454
:102CB000B735D8012C91F70125AF86ADF6E78F2700
:102CC000D701DE968C93DE97DF969C9161E02150D0
:102CD000330B462F50E0F101E40FF51F70814217CE
:102CE000530744F48452872780836F5FF2CF7724A1
:102CF0007394B0CF892F87278083F701F5ADFCA7A8
:102D0000B7016D5C7F4FD701DB96AC90DB97AA20B3
:102D100039F0EFECF7E03197F1F700C00000F3CFA6
:102D2000D8964D925D926C92DA97E1E0DB96EC9347
:102D300080E693E00E94B70E61E0C4010E94990D05
:102D4000D701DC968C91DC978260DC968C9386E3CD
:102D50000E94E20C8BE30E94E20C28EC922E85E3A9
:102D60000E94E20CE7ECF0E03197F1F700C00000C0
:102D70009A94911041C086E30E94E20C8BE30E947A
:102D8000E20C8DE30E94E20C84E30E94E20C60EC12
:102D900085E30E94CC0C8D30B9F790E0D701DC962A
:102DA0008C91DC978D7FDC968C93BA94992309F4EF
:102DB00065CFF801828185FFA8C08DA59EA50E94E0
:102DC000420E882309F4A1C0CE0101960E94340E60
:102DD0008CE3F82ED60112968D919C91FC0124ADC6
:102DE00022FD5AC08FE19EE40197F1F700C0000078
:102DF000FA94F110EFCF42CF60EC85E30E94CC0C47
:102E0000833109F0ACCF8FE19EE40197F1F700C068
:102E100000009BA5992349F0AFE7BBE8E8E0A1508B
:102E2000B040E040E1F700C000000E94C80C0E94E2
:102E3000C20C8FE30E94B80C8CA50E94B80C0E94B3
:102E4000BE0C0E94C80C0E94C20C8FE70E94B80CF6
:102E50002BA64101882DFBA58F1B2CA5821730F4D2
:102E6000D4018D914D010E94B80CF4CF0E94BE0C8C
:102E700098EC992E60EC85E30E94CC0C8D3011F417
:102E800091E08CCFE7ECF0E03197F1F700C0000063
:102E90009A949110EFCFF4CFBE016F5F7F4FC19630
:102EA0000E942515882309F49DCFD80111969C9185
:102EB0008A81981397CFBE016B5F7F4F8DA59EA52A
:102EC0000E94510E882309F48DCF8C81823041F409
:102ED0008B85A82EA094AA1CAA24AA1C87FDB12C1D
:102EE000F801828181FD03C08B8180FF0BC0D60178
:102EF00012968D919C9142E350E060E070E08896DC
:102F00000E94BC10AA2009F4B9CE11E0772049F044
:102F1000F6018281938111E063E070E002960E94E5
:102F2000CD12812FE0960FB6F894DEBF0FBECDBF55
:102F3000DF91CF911F910F91FF90EF90DF90CF9095
:102F4000BF90AF909F908F907F906F905F904F90C9
:102F50003F902F900895D60112968D919C9110E08C
:102F600064E070E0DBCF7110F6CF10E0DACF0F93A2
:102F70001F93CF93DF93EC018B018AE18B871E8631
:102F80001D864C871E8A6FA978ADFB0171968491CE
:102F90003197E491ED8B8AA3625F7F4F42E050E06E
:102FA000CE0146960E94432E6FA978AD6D5F7F4F8C
:102FB0004AE050E0CE0148960E94432E8AAD8BA392
:102FC0006FA978AD6E5E7F4F42E050E0CE018496EF
:102FD0000E94432EBE01655F7F4FA801CE01DF91A5
:102FE000CF911F910F910C94C315FF920F931F93D4
:102FF000CF93DF9300D01F92CDB7DEB78C01FC01D9
:103000008085282F2770962F9770887F892B80873F
:10301000623071F50789108DF801F680F394F6821D
:1030200064817581CE0101960E948F134F2DBE01E0
:103030006F5F7F4FC8010E94B717F80182819381AB
:1030400061E070E002960E94CD12F80182819381C6
:1030500040ED57E060E070E088960E94BC100F9051
:103060000F900F90DF91CF911F910F91FF900895D6
:103070006530A9F78789908D253059F4CB960E9449
:1030800051138111ECCFF8018789908D0E9466134E
:10309000E6CFFC018281938167E070E002960E9496
:1030A000CD12DDCF2F923F924F925F926F927F921F
:1030B0008F929F92AF92BF92CF92DF92EF92FF9248
:1030C0000F931F93CF93DF93CDB7DEB7E3970FB680
:1030D000F894DEBF0FBECDBF8C017B0118AA1FA6DE
:1030E0001EA6BE01625D7F4FDC01D7968D919C913B
:1030F0000E94F9122701B7E04B0E511CBE01625D20
:103100007F4FC2010E94510EC82E882309F474C05B
:10311000F801C280D3805601F3E3AF0EB11CC501A4
:103120000E94E10F8AE090E0A0E0F60180AF91AF4D
:10313000A2AF81E083AFB50180E693E00E94B70EB5
:10314000D70112968C9186FDA8C0D70114968C9158
:103150001497F801878315968C911597808716969A
:103160008C911697818711968C911197828713966F
:103170008C9113971A96DC901A97813009F075C3D9
:103180001B963C90FAE03F129BC0D801D7966D91F8
:103190007C916D5F7F4F4AE050E0CE0101960E9426
:1031A000432E4AE050E0BE016F5F7F4FC7010C968F
:1031B0000E94AA35892B09F088C3F8018281938186
:1031C00061E070E002960E94CD12D80112968D91B6
:1031D0009C9140ED57E060E070E088960E94BC1042
:1031E000F7014081B7016C5F7F4FC8010E94B7179C
:1031F000D12CC12C312C9AC0F70180818983818127
:103200008A83B280BB82D380DC8284818D83858176
:103210008E8386818F838781888780858987818552
:103220008A8782858B87A384AC868EE13C96DE01FB
:103230001D9601900D928A95E1F768E573E0CE0145
:1032400008960E94510E882339F0F1E0DF1204C085
:103250002AE0A21609F45CCFB2FE05C080EC8D0D09
:10326000823008F455CF8C2DE3960FB6F894DEBF6C
:103270000FBECDBFDF91CF911F910F91FF90EF90C7
:10328000DF90CF90BF90AF909F908F907F906F9086
:103290005F904F903F902F900895B7016C5F7F4FE4
:1032A000C80107960E94510E882309F44ECFD80119
:1032B0001A969C91F7018181981347CFC12CD3CFE7
:1032C000B1E03B12B5C0DD2009F4FFC2D801DA96A7
:1032D0008C91DA978D1508F4F8C2DD96CD90DC90CC
:1032E000C7010E946E0E4701BCE08B0E911C560177
:1032F000E8E0AE0EB11C813009F057C0B401C50141
:103300000E944614C5010E9420148F3F09F48DC00D
:10331000682FC6010C960E94400144E050E0BC01B9
:10332000C4010E945C2E81E0F80181AFF701828127
:1033300085FF2DC0BE01625D7F4FC2010E94510E0C
:10334000882329F1F1E03F12D4C2A7014C5F5F4FFF
:10335000C114D10409F4BCC2D8011296ED91FC91BC
:1033600082A99EE0F701908392E0938312823286D5
:10337000D6011B969C919387148615868687B70184
:10338000C8010E94C315F60182858E7F8287D8010D
:1033900012968D919C9142E350E060E070E0889637
:1033A0000E94BC10CC24C3945ECFD70150968C9160
:1033B00050971C969C911C9799831D969C911D97E4
:1033C0009A831E969C919B838C83B401C5010E94B5
:1033D0004614BE016F5F7F4FC5010E944614C501B0
:1033E0000E9420148F3F09F13601BCE06B0E711C66
:1033F000682FC3010E94400144E050E0BC01C401B9
:103400000E945C2EC5010E9420148F3F51F0682F4E
:10341000C3010E94400144E050E0BC01CE0101968E
:1034200080CFB401C5010E94461482E0382E7ECFC1
:10343000F2E03F1237C0DD2009F447C2D801DA9626
:103440008C91DA978D1508F440C2DD96CD90DC9012
:103450005601B8E0AB0EB11CB701645F7F4FC501E8
:103460000E944614982EC7010E946E0E823081F48D
:10347000F70180899485998395859A8396859B83A6
:103480008C83BE016F5F7F4FC5010E944614982256
:10349000992009F44BCF81E0D801D9968C9333243D
:1034A000339444CFB3E03B1270C0DD2009F4F0C088
:1034B000F80192AD9D1508F49BCE65AC76ACD701B2
:1034C00011969C91119714962C9114972BA71596F1
:1034D0002C9115972CA716962C912DA75801BBE07F
:1034E000AB0EB11C2AE1238720E1268720E2258745
:1034F000858B94874801E6E18E0E911C6401212C96
:10350000312CF8E06F0E711C26E0221641F1422D9D
:10351000B301CE0101960E940814CE0101960E94CB
:10352000420E8823D1F0339484E0FE013196D60117
:1035300001900D928A95E1F784E0C80ED11C94E0C9
:1035400039120BC0AE01455D5F4FB501C8010E9445
:10355000C3156401312C882311F02394D5CF84E066
:10356000D6011D928A95E9F7832D880F880F825F17
:10357000F801838785858F7D8587AE01455D5F4F27
:10358000B501C8010E94C31533CEF4E03F1282C0DA
:10359000D70150962C91A701445F5F4F6D2DC80154
:1035A0000E94C41429833A834B835C836D837E839A
:1035B0008F83E981FA81FBABEAAB22E0322EEF2B5D
:1035C00009F4B8C0D70111968C91119714969C916B
:1035D00014979BA715969C9115979CA716969C915E
:1035E0009DA73801BBE06B0E711C9AE1F80193872F
:1035F00090E1968790E2958792E0958B84871801F9
:10360000F6E12F0E311C6101B12CA12C19AA8B817E
:103610008A151B0451F14CF1EC81FD818A2D09952D
:10362000D6018C934601B2E08B0E911C8AA99BA90E
:103630008A0D9B1D0E943F13F6018183F9A9FF5F4C
:10364000F9ABF83059F4AE01455D5F4FB301C801E5
:103650000E94C315882339F0410119AA2FEFA21A3D
:10366000B20A6401D4CF610119AAD6011C92119645
:103670001C9289A98A5F880FF801838785858F7DD1
:103680008587AE01455D5F4FB301C8010E94C31538
:10369000312C50C0FEE03F122CC0D801DD96CD90F9
:1036A000DC90DE97F70121811296ED91FC9182A9C1
:1036B000D6011B969C91F801338630E1368736E0BF
:1036C000358B2487968B178A108E818F82E08587B1
:1036D000A7014C5F5F4FB801655F7F4FC8010E9433
:1036E000C315D6011A968C911A978E7F1A968C93D1
:1036F0007FCDB5E03B1221C0F801D7AED70150967F
:103700002C91A701445F5F4F6D2DC8010E94C41426
:10371000F801E05CFF4F208331963083319640837F
:1037200031965083319660833196708331968083D1
:1037300033243394D12CC12CF9CDB6E03B1232C0E6
:10374000F80181AFE05CFF4F20813181D801DB9629
:103750008D919C91DC972817390781F412968D91F1
:103760009C9170E060E002960E94CD12D801ED912C
:10377000FC910480F581E02DC80109958FEFF801D7
:1037800087AF8AE0D7018C9382E013968C931397CE
:1037900012968C9312971A961C92A7014C5F5F4F5A
:1037A000B701EFCEB8E03B1240C0F80187AD8D15F0
:1037B00019F0D12CC12C73CE4801F0E48F0E911C6E
:1037C000D4018D919C91892BA1F3F70180818B30DD
:1037D00008F48BE095EF392E380E5701FCE0AF0E60
:1037E000B11C6501380125E4620E711C8C2D8A190B
:1037F0008315F8F6D60111962C90D301ED91FC912A
:10380000D6018C9109958F3F61F0F401608171813F
:10381000680F711D298241E050E0CE0101960E949F
:103820005C2EF2E0CF0ED11CE1CF29E032124DC068
:10383000D70111968C9194E1F801938790E19687D6
:103840001586158A8487168A67A970AD6D5F7F4FCC
:103850004AE050E0C80146960E94432EA7014C5F03
:103860005F4FB801655F7F4F8CCE813159F5F4E031
:10387000DF1619F02AECD212BBCC8AE0D7018C9368
:1038800082E013968C93139712961C9212971A96B5
:103890001C92A7014C5F5F4FB701C8010E94C3157E
:1038A000BAECDB120BC088E19CE00FB6F894A89547
:1038B000809360000FBE90936000FFCFC8010E940C
:1038C000661396CC823109F474CFD12CC12CADCDC6
:1038D0008AE0D7018C9382E013968C93139712960B
:1038E0001C9212971A961C92B701C8010E94C31528
:1038F0004ECDB2E03B124BCD8AE0F701808333829C
:10390000128280E88287A7014C5F5F4FEDCF0C9455
:103910001C350C941C350C941C350C941C35CF9321
:10392000DF93EC010E94C50DCE01DF91CF910C9485
:103930001C350C941C350C941C350C941C35CF9301
:10394000DF93EC010E94EA0DCE01DF91CF910C9440
:103950001C350C941C350C941C350C941C354F9262
:103960005F926F927F928F929F92AF92BF92CF920F
:10397000DF92EF92FF920F931F93CF93DF93CDB718
:10398000DEB72C970FB6F894DEBF0FBECDBF8C010B
:1039900080E090E0A0ECBFE789839A83AB83BC838F
:1039A0008D839E83AF83B88789879A87AB87BC87CF
:1039B0009E012B5F3F4FAE014F5F5F4FBE01675FC0
:1039C0007F4FC8010B960E94B60389809A80AB8016
:1039D000BC8020E030E040E251E4C501B4010E9427
:1039E000BF300E94532FF80172836183C984DA8447
:1039F000EB84FC8420E030E040E251E4C701B601F2
:103A00000E94BF300E945A2FF8017483638361853E
:103A1000728590E080E00E94892F2B013C01AC016F
:103A20009B010E947C31811171C0A5019401C501E7
:103A3000B4010E947C31811169C0A7019601C701C0
:103A4000B6010E947C31811161C024EF3DEF44ED4D
:103A50005BE3C301B2010E94BF302B013C01AC010A
:103A60009B01C501B4010E94752E23E333E948E8A8
:103A700053E40E94752E9B01AC01C301B2010E9468
:103A8000E12E9B01AC0160E070E080E89FE30E94C2
:103A9000742E28E539E348EA50E40E942C319B015A
:103AA000AC01C701B6010E94E12E20E030E040E207
:103AB00051E40E94BF300E945A2FF801768365833B
:103AC00020E030E040E251E46D817E818F81988575
:103AD0000E94BF300E945A2FF801708767832C968E
:103AE0000FB6F894DEBF0FBECDBFDF91CF911F910F
:103AF0000F91FF90EF90DF90CF90BF90AF909F908D
:103B00008F907F906F905F904F90089560E070E08D
:103B100080EC9FE7CACF2F923F924F925F926F92B5
:103B20007F928F929F92AF92BF92CF92DF92EF924D
:103B3000FF920F931F93CF93DF93CDB7DEB76697B6
:103B40000FB6F894DEBF0FBECDBF8C017B8B6A8BA6
:103B5000FC01E659FF4F10861782168215821482E7
:103B60001382128211828081882319F0CF010E9472
:103B7000AF1CF801E559FF4F80819181D801D9969A
:103B80009C938E93D897349680819181F80193AF5E
:103B900082AFEF58FF4F80819181DD969C938E9389
:103BA000DC973A972080222009F4A7C07801BAE573
:103BB000EB0EF11CF701818192810E94BF116CEC28
:103BC000D70111968D919C910E943B0C64E4F70102
:103BD000818192810E943B0C6AE174E080E090E078
:103BE0000E943E03312CAE01465F5F4F5F874E87D8
:103BF000E2E2FCEFD7011496FC93EE931397119633
:103C00008D919C910E94BF11D7011196AD90BC90EF
:103C100065E5C5010E943B0C6701B5E0CB0ED11CE8
:103C20004701EDE08E0E911CD6016D916D01C5012D
:103C30000E943B0C8C149D04B9F76EEBF701818157
:103C400092810E943B0CAE014F5F5F4F6A01488B2F
:103C5000D98AD70111966D907C9068E0A62EB12C80
:103C6000512C44244394C3010E94E80B8111542831
:103C7000440CB1E0AB1AB108B1F7F60151926F01F3
:103C80004E855F854E175F0721F768E0888999891F
:103C90000E94D10B998589132CC089819A81D70103
:103CA00015962C91203109F0BEC253E0880F991F60
:103CB0005A95E1F72885203141F42F81ECE0F0E0BE
:103CC000E21BF109807F8E0F9F1FFAE0F89F9001A1
:103CD000F99F300D112437FF02C0215F3F4F44E0B0
:103CE000359527954A95E1F7D70114963C932E9385
:103CF00013973394740123107BCFF801E35AFF4FDD
:103D000080819181F80191AF80AF6801F8EBCF0E0F
:103D1000D11CD60111961D921D921D921C921497D2
:103D20008C91882309F480C081E0809382028AE428
:103D30008093A402109283021092A50283E090E087
:103D40000E94AC0B0E946E0940E061E08AE40E9490
:103D5000550AB82E1092010280930002B1E08B1335
:103D600063C083E493E00E943D0B7C01B092820229
:103D7000109283021092A50284E090E00E94AC0BA6
:103D80000E946E0941E061E08AE40E94550A1092A7
:103D9000010280930002813009F046C083E493E081
:103DA0000E943D0B782E6E2D62956F7070E090E052
:103DB00080E00E948B2F9B01AC0160E070E080E00E
:103DC00090E40E942C314B015C01B70124E0660FA6
:103DD000771F2A95E1F77727872D8F70682B072E9D
:103DE000000C880B990B0E948B2FA50194010E9457
:103DF000BF302CEE31E548E35DE30E94BF3020E0A8
:103E000030E048EC52E40E94BF3020E030E040E077
:103E10005FE30E94752E0E94C62F0E945A2FF60162
:103E20006183728383839483F60181819281A3816C
:103E3000B481F801FE9680839183A283B383D80175
:103E40001896ED91FC91A281B38190968D919C91F1
:103E5000D801AB5BBF4F8D939C9364E284819581C5
:103E60000E94B3136115710541F0F80120AD31AD29
:103E7000C901860F971F91AF80AFD8011896ED91B9
:103E8000FC9168E2848195810E94B31361157105EC
:103E900041F0F80122AD33ADC901860F971F93AFF2
:103EA00082AFD8011896ED91FC916CE284819581E6
:103EB0000E94B3136115710541F0F80124AD35ADD1
:103EC000C901860F971F95AF84AFD801D8966D9121
:103ED0007C91072E000C880B990B0E948B2F20E001
:103EE00030E040E251E40E94E12E6B017C01F801D8
:103EF00064AD75AD90E080E00E94892F20E030E055
:103F000040E251E40E94E12E4B015C01A7019601C1
:103F1000C701B6010E947C31811193C1A5019401B2
:103F2000C501B4010E947C3181118BC129E23CE5BD
:103F30004DE851E4C701B6010E94BF302B013C019E
:103F400020E030E843E753E4C701B6010E94752E34
:103F50009B01AC01C301B2010E94E12E9B01AC01A7
:103F600064E578EF8DE290E40E942C3121E835E998
:103F700043EC50E40E94BF30A50194010E94BF3081
:103F80002BE63FE140E951E40E94BF302B013C01A8
:103F900023E333E948E853E4C701B6010E94752ED4
:103FA00024E138E045E051E40E94BF309B01AC01C0
:103FB000C301B2010E94E12E20E030E048EC52E45F
:103FC0000E94BF300E945A2FF801E85BFF4F7183B7
:103FD0006083A7019601C701B6010E947C3181115F
:103FE00035C1A5019401C501B4010E947C31811144
:103FF0002DC120E030E048EC52E4C501B4010E943C
:10400000E12E0E9477304B015C0120E030E04DE86A
:1040100051E4C701B6010E94BF302B013C012DE3E2
:104020003AE043E753E4C701B6010E94752E9B01B5
:10403000AC01C301B2010E94E12E6B017C01AC0115
:104040009B01C501B4010E94752E2DE33AE043E7C0
:1040500053E40E94BF302B013C01A501940160E0B4
:1040600070E08DE891E40E94742EA70196010E94F1
:10407000742E9B01AC01C301B2010E94E12E20E02D
:1040800030E040E251E40E94BF300E94532FF8011B
:10409000E65BFF4F71836083D80118968D919C91E8
:1040A000DC0116962C9116972F5F16962C93D8014B
:1040B000DC968D919C9105966AE070E00E949832A2
:1040C000462F3801BEE06B0E711C5081588B8181E8
:1040D000898B329790819C8BA181AD8BF801E08414
:1040E000F184D7011296ED91FC91D801AB5BBF4FE3
:1040F0005C915E8B11962C90119713973C901497BE
:104100004C9011965C90119712968C901297139682
:104110009C90D801DA96DC90DA97DB96CC90DB970E
:10412000D896BC90D897D9963C913F77A68C80A121
:1041300091A164E670E00E949832A616170611F06D
:1041400008F03068822F64E10E948C3284E0923063
:1041500009F482E299E1F801968790E7918B808BD0
:10416000308F2787B18EC28ED38E448F958E868EE8
:10417000578E40A231A222A24E8943A34D8944A367
:104180004C8945A3498946A3488947A382FF63C058
:104190008F7C8460808B48E553E0B301C7010E94A7
:1041A000C315D8011896ED91FC91C480D58040E0EC
:1041B00060E2C6010E947513F82E40E061E2C6017C
:1041C0000E9475132F2D30E0322F2227280F311D2A
:1041D000A4E6B0E00E94CE32F8016583768387833F
:1041E000B8018A899B890E94B70EF801E95BFF4FED
:1041F00081E0808366960FB6F894DEBF0FBECDBF18
:10420000DF91CF911F910F91FF90EF90DF90CF90B2
:10421000BF90AF909F908F907F906F905F904F90E6
:104220003F902F9008952D81207611F4887F4DCDF9
:10423000203211F48C7F49CD203409F046CD8E7F99
:1042400044CD60E070E080EC9FE7B6CE60E070E0C7
:1042500080EC9FE714CFD12CC12C412C580158E0A1
:10426000A50EB11C480182E1880E911C96E0C9168A
:10427000D10409F498C04C2DB501CE010A960E94D4
:104280000814CE010A960E94420E382E882309F4A3
:104290005EC0512C452DB501CE0101960E94081437
:1042A000BE016F5F7F4FCE010A960E94510E8111B1
:1042B00006C05394A6E05A12EDCF55245A945C14CC
:1042C0001D040CF444C01B821A821982BE016F5F68
:1042D0007F4FF70187A990AD0E94F912BE016F5F71
:1042E0007F4FCE010A960E94510E8823F1F1B4014E
:1042F000D701D7968D919C910E94F912F80182897D
:10430000858B8389868B8489878B68E573E0C401FC
:104310000E94510E882341F0D80150968C915097FD
:104320008F7D846050968C93F801808985FF13C03F
:104330008F7D808BD701ED91FC910680F781E02D78
:10434000B301C7010995F80180898062808BBFEFB6
:10435000CB1ADB0A8BCFD701ED91FC910680F78158
:10436000E02DB301C7010995F2CFAE01465F5F4F63
:10437000B501CE0101960E94881489819A810E941C
:104380003F13F801908980FF0BC09061908BAE01C4
:10439000465F5F4FB301C7010E94C315432CD7CFBF
:1043A0009F7E908BF4CF4110FCCEF7016481758124
:1043B000CE0101960E948F13AE014F5F5F4FEDCE8D
:1043C0001F920F920FB60F9211242F933F934F938A
:1043D0005F936F937F938F939F93AF93BF93EF936D
:1043E000FF9386EA92E00E94CE01FF91EF91BF9188
:1043F000AF919F918F917F916F915F914F913F917D
:104400002F910F900FBE0F901F9018951F920F9233
:104410000FB60F9211242F938F939F93EF93FF93D7
:10442000E091B602F091B7028081E091BC02F09178
:10443000BD0282FD1BC090818091BF028F5F8F7390
:104440002091C002821741F0E091BF02F0E0EA55EE
:10445000FD4F958F8093BF02FF91EF919F918F91B8
:104460002F910F900FBE0F901F9018958081F4CF61
:104470001F920F920FB60F9211242F933F938F9399
:104480009F93AF93BF938091F2019091F301A0911C
:10449000F401B091F5013091F10126E0230F2D37A1
:1044A00058F50296A11DB11D2093F1018093F201F0
:1044B0009093F301A093F401B093F5018091F6017C
:1044C0009091F701A091F801B091F9010196A11D19
:1044D000B11D8093F6019093F701A093F801B0937A
:1044E000F901BF91AF919F918F913F912F910F90C3
:1044F0000FBE0F901F90189529E8230F0396A11D5A
:10450000B11DD2CF1F920F920FB60F9211242F938D
:104510003F934F935F936F937F938F939F93AF934B
:10452000BF93EF93FF93E0910201F091030109958E
:10453000FF91EF91BF91AF919F918F917F916F917B
:104540005F914F913F912F910F900FBE0F901F9051
:1045500018951F920F920FB60F9211242F933F932D
:104560004F935F936F937F938F939F93AF93BF937B
:10457000EF93FF93E0910001F09101010995FF9104
:10458000EF91BF91AF919F918F917F916F915F91CB
:104590004F913F912F910F900FBE0F901F90189544
:1045A0001F920F920FB60F9211242F933F934F93A8
:1045B0005F936F937F938F939F93AF93BF93EF938B
:1045C000FF938091B900887F803609F44AC0F0F5E6
:1045D000883209F4A7C018F5803109F49BC0B8F4FB
:1045E000882309F4F9C0883009F494C0FF91EF9151
:1045F000BF91AF919F918F917F916F915F914F91FB
:104600003F912F910F900FBE0F901F9018958831FA
:1046100009F488C0803251F780937A0214C0803444
:1046200009F49DC040F48033B9F38833F9F68093E0
:104630007A0285ECB0C0803509F485C0883509F46C
:1046400096C0883499F60E948012D0CF883909F438
:104650008CC038F5883729F050F4883611F080374F
:1046600029F683E080937C021092F00157C08838CD
:1046700009F47BC0803919F0803809F0B7CF8091F8
:10468000F001803208F071C0E091F00181E08E0FFE
:104690008093F0018091BB00F0E0E053FE4F8083F7
:1046A0003DC0803B39F0E0F4803A09F479C0883AA3
:1046B00009F09CCF84E080937C021092CF0110928D
:1046C000CE01E091FC01F091FD0109958091CE01B0
:1046D00081110FC081E08093CE011092AE0109C01C
:1046E000803C09F4A6CF883C09F4A3CF883B09F0AD
:1046F0007DCFE091CF0181E08E0F8093CF01F0E07C
:10470000E255FE4F80818093BB009091CF01809154
:10471000CE0129C0809157028093BB0085EC809325
:10472000BC0064CF9091790280917802981758F577
:10473000E091790281E08E0F80937902F0E0E85AEF
:10474000FD4F8081E9CFE091790281E08E0F809367
:1047500079028091BB00F0E0E85AFD4F8083909190
:104760007902809178029817C8F285E8D8CFE09155
:10477000790281E08E0F809379028091BB00F0E096
:10478000E85AFD4F808380917B0281115CCF81E0EC
:104790008093560284EA8093BC0010927C0226CF5C
:1047A00085EC8093BC0010927C028091F0018032F5
:1047B00030F4E091F001F0E0E053FE4F10826091A0
:1047C000F00170E0E091FE01F091FF0180ED91E0D9
:1047D00009951092F0010ACF10927A0234CF1F92FD
:1047E0000F920FB60F9211248F930FB6F894A895DD
:1047F00080916000886180936000109260000FBE1D
:104800008F910F900FBE0F901F9018951F920F92CF
:104810000FB60F9211242F933F934F935F936F9393
:104820007F938F939F93AF93BF93CF93DF93EF9338
:10483000FF93CFE4D3E060E089810E94AF02109241
:10484000B1006A817B818C819D810E945A2F609387
:10485000B30081E08E83FF91EF91DF91CF91BF9103
:10486000AF919F918F917F916F915F914F913F9108
:104870002F910F900FBE0F901F9018951F920F92BF
:104880000FB60F9211240F900FBE0F901F90189526
:104890001F920F920FB60F9211242F933F934F93B5
:1048A0005F936F937F938F939F93AF93BF93EF9398
:1048B000FF93EBE5F3E084818F5F8483CF010E9457
:1048C0002F11FF91EF91BF91AF919F918F917F91A8
:1048D0006F915F914F913F912F910F900FBE0F906D
:1048E0001F9018951F920F920FB60F9211242F93BD
:1048F0003F934F935F936F937F938F939F93AF9368
:10490000BF93EF93FF9380E693E00E942F11FF91F6
:10491000EF91BF91AF919F918F917F916F915F9137
:104920004F913F912F910F900FBE0F901F901895B0
:104930001F920F920FB60F9211242F933F934F9314
:104940005F936F937F938F939F93AF93BF93CF9317
:10495000EF93FF9399B1C09102028091320230919E
:104960002F02292F209523238923822B20916D004C
:10497000C927C223C82390930202CC23C1F1C0FFF0
:1049800005C0E0910302F09104020995C1FF05C042
:10499000E0910502F09106020995C2FF05C0E09181
:1049A0000702F09108020995C3FF05C0E0910902D2
:1049B000F0910A020995C4FF05C0E0910B02F09145
:1049C0000C020995C5FF05C0E0910D02F0910E02A1
:1049D0000995C6FF05C0E0910F02F09110020995FC
:1049E000C7FF05C0E0911102F09112020995FF91F5
:1049F000EF91CF91BF91AF919F918F917F916F91E7
:104A00005F914F913F912F910F900FBE0F901F908C
:104A100018951F920F920FB60F9211242F933F9368
:104A20004F935F936F937F938F939F93AF93BF93B6
:104A3000CF93EF93FF9396B1C0911302809133020D
:104A400030913002292F209523238923822B209116
:104A50006C00C927C223C82390931302CC2351F1C1
:104A6000C0FF05C0E0911402F09115020995C1FF45
:104A700005C0E0911602F09117020995C2FF05C02A
:104A8000E0911802F09119020995C3FF05C0E09169
:104A90001A02F0911B020995C4FF05C0E0911C02A7
:104AA000F0911D020995C5FF05C0E0911E02F0912D
:104AB0001F020995FF91EF91CF91BF91AF919F9107
:104AC0008F917F916F915F914F913F912F910F90B7
:104AD0000FBE0F901F9018951F920F920FB60F9256
:104AE00011242F933F934F935F936F937F938F93F3
:104AF0009F93AF93BF93CF93EF93FF9393B1C091E5
:104B000022028091340230913102292F20952323F3
:104B10008923822B20916B00C927C223C82390933D
:104B20002202CC2351F1C0FF05C0E0912302F09195
:104B300024020995C1FF05C0E0912502F0912602EB
:104B40000995C2FF05C0E0912702F091280209955E
:104B5000C3FF05C0E0912902F0912A020995C4FF24
:104B600005C0E0912B02F0912C020995C5FF05C00C
:104B7000E0912D02F0912E020995FF91EF91CF91D6
:104B8000BF91AF919F918F917F916F915F914F9165
:104B90003F912F910F900FBE0F901F9018959F92ED
:104BA000AF92BF92CF92DF92EF92FF920F931F933B
:104BB000CF93DF93E6EAF2E01382128288EE93E06D
:104BC000A0E0B0E084839583A683B7832EE031E034
:104BD0003183208325EC30E03587248724EC30E0D6
:104BE0003787268720EC30E0318B208B21EC30E0BA
:104BF000338B228B22EC30E0358B248B26EC30E09B
:104C0000378B268B118E128E138E148EE3E4F3E015
:104C10001382128284839583A683B78380E291E016
:104C20009183808310925603E8E5F3E012821182AB
:104C30001082E0E6F3E01182108213821282EBE52B
:104C4000F3E011821082138212821482E9EEF4E002
:104C500001E010E011830083138302831583048332
:104C60001783068385E0E82EF12CF186E086138613
:104C700012861586148696E7C92ED12CD786C6864D
:104C8000E1E8F4E01582148217821086118686E925
:104C900091E093838283128A138A148A158A992455
:104CA000939490928704118E108E10929B04138E11
:104CB000148E158E168E178E11A210A212A213A298
:104CC00014A215A28AE891E0978B868B88EC90E07D
:104CD00097A386A313A612A615A616A617A680E864
:104CE00091E091A780A710AA9092AD0412AA16AAEB
:104CF00015AA10AE11AE12AE86E791E094AB83AB6D
:104D000013AE9092B80488E084AF8EEB94E00E94DA
:104D1000340ECDE7D3E082E591E0998388831B824E
:104D20001A8288EB93E09D838C831E8219861886F5
:104D30001F821A8688E893E00E94340E80E290E099
:104D40009EAB8DAB2AE032E038AF2FAB19AE9AAEF6
:104D50009CAF8BAF8FEF8FAF1092BE031092BD034D
:104D60001092BF031092C1031092C0031092C303AC
:104D70001092C2038EE591E0998388831092CD034F
:104D80001092CC03EEECF3E080818E7F8D7F8083E8
:104D90001092CF031092D1031092D0031092C70348
:104DA0001092C6031092C80380E797E1A0E08093B9
:104DB000C9039093CA03A093CB0324ECA22E23E053
:104DC000B22E88E491E0F5019183808382ED93E037
:104DD0000E94340E1092FD031092FC031092FF0308
:104DE0001092FE031092010410920004109202042B
:104DF0001092030410920404109205041092060409
:104E0000109208041092070410920A0410920904E8
:104E100090920B0410920D0410920C0410920F0447
:104E200010920E0460E083E00E94DD02E9EFF1E001
:104E3000E491E0931004E5EEF1E0E491F0E0EE0F90
:104E4000FF1FE852FE4F8591949190931204809336
:104E5000110410921B0410921D0410921C04109255
:104E60001A04109219041092180410921704109248
:104E70001604109215041092140410921304109248
:104E80001E041092200410921F0482E29CEF909363
:104E900022048093210410922B0410922E0410926D
:104EA000300410922F0410923204109231041092A8
:104EB0003404109233041092360410923504109288
:104EC00038041092370410933C0400933B04109371
:104ED0003E0400933D041093400400933F0410935C
:104EE000420400934104F0924404E092430484E0BD
:104EF00090E09093460480934504109248041092E9
:104F0000470410926B0428E331E030933A04209375
:104F1000390410936D0400936C0410936F04009394
:104F20006E04109371040093700410937304009343
:104F30007204F0927504E092740490937704809365
:104F400076041092790410927804D0927B04C09277
:104F50007A0410927C0410927D0410927E041092C8
:104F60007F0410928004BEAEADAE8AE691E09983D4
:104F70008883E4E6F3E013821282109268031582BC
:104F800016821782ACE6B3E08C91887F81608860DE
:104F90008C9311861786168610927403118A128AD2
:104FA000138A82E391E095878487F58BE48B80EA0E
:104FB00091E091838083D08FC78B8CE291E09387BF
:104FC0008287DF91CF911F910F91FF90EF90DF903B
:104FD000CF90BF90AF909F900895CF93DF93CDB7C0
:104FE000DEB761970FB6F894DEBF0FBECDBF7894E1
:104FF00084B5826084BD84B5816084BD85B58260DE
:1050000085BD85B5816085BD80916E00816080938E
:105010006E001092810080918100826080938100F7
:105020008091810081608093810080918000816007
:10503000809380008091B10084608093B100809162
:10504000B00081608093B00080917A00846080938A
:105050007A0080917A00826080937A0080917A0051
:105060008E7F80937A0080917A00806880937A00A6
:105070001092C1008091B8039091B9039C012A5EFF
:105080003F4F3E872D87D12CCC24C39454EF452E1F
:1050900055245394612C1091B703D11608F0A6C182
:1050A000ED2DF0E0EE0FFF1FE358FC4FE5ACF6AC42
:1050B000D394EDE7F3E0D7011996FC93EE9318979C
:1050C0001B96DC921B972D853E851D963C932E9357
:1050D0001C9717013AE5230E311C8701045B1F4F13
:1050E0001F86C701895A9F4F998B888BD8011D96BF
:1050F0008C9181112BC0C8010E94BF11882331F10E
:1051000060EFC8010E943B0CAA24A394712C812C4F
:10511000BB24B394C8010E94E80B982EC8010E94DA
:10512000E80BB1E09B1281C0813009F0A0C0E0E43F
:10513000EB1560F4D8011B968C921B97811002C06E
:105140001D96CC92F80183818111A8C0D8011B96CD
:105150001C921B971D961C921D971C961C921C97C7
:105160001A961C921A9719961C92199718961C92C7
:10517000189717961C92179716961C9216971596C5
:105180001C92159714961C92149713961C92F70173
:10519000E959FF4FBF85B083D7011896ED91FC9177
:1051A0000481158140E062E2C8010E947513782EE7
:1051B00040E063E2C8010E947513382E109201028C
:1051C00010920002109283021092A5020E942F09F1
:1051D000ECE3F1E0F093FD01E093FC012DE331E01D
:1051E0003093FF012093FE013BE0232E87010659F7
:1051F0001F4F58013BE0A30EB11C470185E7880E05
:10520000911CC5010E947508F40192A9992311F01F
:10521000811179C02A94222009F475C064E670E0F7
:1052200080E090E00E943E03ECCFE72DF0E0981282
:1052300014C0D8011B968C911B97B816B0F4AE0F12
:10524000BF1F13968C918A2191F4912CB8E0BB1565
:1052500018F0D8011C96BC928B2CE00FF11F8381B3
:105260009A2D9095892383830AC08B11EECFF80184
:10527000E70DF11D83818A29838399249394692DF5
:10528000C8010E940C0CB394AA0C19F47394AA24BC
:10529000A394B7E0B71508F03DCF49CFF701E15B24
:1052A000FF4FDE0111965D0181918D932889398927
:1052B0002E173F07C9F73F85311148CF67E0C50179
:1052C0000E94D10B9885891311CF8981803129F0F3
:1052D000823219F0883209F009CFD10112961C935D
:1052E0000E931197CC92F1013596BDE02B0E311C37
:1052F000D5012D915D012193E215F305C9F71F0139
:10530000B1E0BF87F3CED401D0968D919C918835C2
:10531000910509F45FC08036910539F4F801C08227
:1053200069EE74E0C5010E946B08F8018081882352
:1053300059F0872D90E0982F8827830D911D928733
:105340008187C8010E94AF1C1092010210920002D6
:105350000E942F092CE331E03093FD012093FC01E2
:105360008DE391E09093FF018093FE011AE091E0BC
:1053700090938202AAE4A093A40210928302109256
:10538000A5020E946E09811128C0F701E854FF4F61
:10539000C082B1E0B0938202109283021092A50203
:1053A00082E090E00E94AC0B83E090E00E94AC0BA6
:1053B0000E946E09F701458256826782B70180E636
:1053C00093E00E94B70E2D853E85215E3F4F3E87BC
:1053D0002D8761CED801CC92A3CF64E670E080E047
:1053E00090E00E943E03115011F6E4CF60E090E09F
:1053F00080E00E94220E7C0106E6C02E01E0D02E45
:10540000F6016491C7010E94220E7C01FFEFCF1AC2
:10541000DF0A2CE7C21621E0D20691F701E010174F
:10542000E8F080E00E948A0D682FC7010E94220EDA
:105430007C0180E00E943E01682FC7010E94220E7D
:105440007C0180E00E947E0D682FC7010E94220E21
:1054500066E00E94220E7C010F5FE1CF44E050E045
:1054600070E060E0CE0109960E944C2EC701B0E0CA
:10547000A0E0AE6FBA6C89839A83AB83BC83498505
:105480005A856B857C8584179507A607B70709F4AD
:1054900074C044E050E070E060E0CE0101960E94EC
:1054A0005C2E66E170E08091B8039091B9030E9490
:1054B000301285E00E94F20D8F3FC9F0082F10E0F6
:1054C0008091B8039091B903800F911F0E943F1300
:1054D0006091B8037091B903600F711F8F7380647E
:1054E000898341E050E0CE0101960E945C2E66E186
:1054F00082E10E94F21166E084E10E94F21162E012
:1055000080E20E94F211882321F068E581E20E9486
:10551000F21160E082E20E94F211882321F060E043
:1055200083E20E94F21184E20E94121288E20E9439
:1055300012128CE20E94121210E08091B703181729
:10554000E0F4E12FF0E0EE0FFF1FE358FC4FE5AC75
:10555000F6AC6FE170E0D7011C968D919C910E9492
:105560003012F70164857585198241E050E0CE0163
:1055700001960E945C2E1F5FE0CF81E894E090933B
:10558000800380937F031B821A821982BE016F5FA2
:105590007F4F8091B4039091B5030E94F91284E08B
:1055A0008093950461E00E94DD0283E894E00E940C
:1055B000900DE8988FE491E09093010180930001B1
:1055C00082EB94E09093FB018093FA0160E082E02B
:1055D0000E94DD0261E08AE00E94DD0261E08BE072
:1055E0000E94DD0260E08CE00E94DD0261E08DE05F
:1055F0000E94DD0280E58CBD61E08AE00E94AF027E
:1056000061E08DE00E94AF0260E08BE00E94AF029B
:105610000E94C80C0E94C20C0E94BE0CF5E8FA95CC
:10562000F1F700000E94C80C0E94C20C80E30E94A7
:10563000B80C0E94C20C0E94BE0C02E311E0A6E668
:10564000CA2EA1E0DA2EFF24F394F801319664917A
:10565000F801849143E00E945312811101C0F12CA2
:105660000E5F1F4FC016D10681F783E30E94E20C44
:105670008FEA93EB0197F1F700C0000043E060EC84
:105680008EE30E945312FF2059F00E94C80C0E9422
:10569000C20C0E94BE0C0E94F10C84E30E94E20C3A
:1056A00086EB9DE090930101809300018091690059
:1056B0008C7F826080936900E89A80E1809381000A
:1056C00010928000109285001092840080E49CE982
:1056D000909387008093860081E1809381000E94EF
:1056E0002C0D66E070E0F11002C068E070E083E825
:1056F00094E00E94CD128B8190E001962AE0289FD1
:105700008001299F100D112484EB94E00E94E10F89
:1057100024E630E0D8010E94DD3228EE33E040E09C
:1057200050E00E94AC322093B9043093BA04409305
:10573000BB0481E08093BC0464EB74E080E693E0FA
:105740000E94B70E61E089E00E94DD0260E089E01E
:105750000E94AF0260E08EE00E94DD0260E08EE019
:105760000E94AF028091A7049091A804813D9740C8
:1057700030F080ED97E09093A8048093A70487E829
:1057800080937A0010927B00E0919704F091980446
:105790000680F781E02D87E994E009959093A204B3
:1057A0008093A10480E09BEEA1E4B0E08093A30489
:1057B0009093A404A093A504B093A60480939C04A2
:1057C00090939D04A0939E0467E974E080E693E0C3
:1057D0000E94B70E86E180939F0484E18093A00429
:1057E0008091B203FCEFEF2EE80E855090E0049616
:1057F0000E943F13D82E00E01EE5EE2DE150FF0B76
:105800007F01802F90E08E159F0534F404960E944E
:105810003F1318270F5FF5CF1D111DC084E090E0E6
:105820000E943F13182F85E090E00E943F13082F3D
:1058300080EA810F8B3078F443E061E28DE00E94D2
:10584000531243E0612F8EE00E94531243E0602F19
:105850008FE00E94531288E080936D0362E00E9403
:10586000DD02EEEFF1E08491EAEEF1E09491923006
:1058700009F0C1C020913402282B209334022091DA
:105880003102282B20933102E4E8F1E0A491923018
:1058900009F0BFC0B0E0AA0FBB1FAD5DBD4F22EB4A
:1058A00030E12D933C93ECEDF1E0A591B4919C9106
:1058B000909322022BE630E03093210220932002C5
:1058C00090916800916090936800A0912002B0913F
:1058D0002102EC918E2B8C9381E08093B603909102
:1058E000B703981708F0CEC016E00EE040E1B42EE2
:1058F00052E2A52EE12C0E941111F82E8111C4C094
:10590000E11004C00E9411118111C0C080917F0379
:1059100090918003DC01DC962C9122FF23C068E883
:1059200073E0C1960E9425158A30E0F01B821A822E
:105930001982BE016F5F7F4F8091B4039091B503D0
:105940000E94F912BE016F5F7F4F8CE893E00E94C6
:10595000510E811107C068E873E08DE793E00E9463
:105960005218F82E992493948091B703891508F45E
:105970008FC0C090BA03D090BB03F601828580FB34
:10598000882480F880FF35C0F0908303F394F09270
:1059900083036091810370918203CE0101960E947E
:1059A0008F13E0917F03F091800382A9D6011B96AB
:1059B0009C9100938803B0928B03A0928A0310936A
:1059C0009203F092890390939303109294031092A0
:1059D000950380939603AE014F5F5F4F68E873E0D5
:1059E0008DE793E00E94C315F60182858E7F828742
:1059F000F82C9394B9CF933009F033C1209133023E
:105A0000282B2093330220913002282B2093300240
:105A10003BCF9330D1F4B0E0AA0FBB1FAC5EBD4FBB
:105A200022EB30E12D933C93EEEDF1E0A591B491A2
:105A30009C91909313022CE630E030932102209346
:105A400020029091680092603ECF943009F03DCFE3
:105A5000B0E0AA0FBB1FAD5FBD4F22EB30E12D932D
:105A60003C93E0EEF1E0A591B4919C9190930202F9
:105A70002DE630E0309321022093200290916800BF
:105A8000946021CF8F5F2DCFEF2C35CFE82E3ACF0A
:105A9000E110B0C0F110AEC08091A1049091A204B9
:105AA00064E670E00E9498328091A0048617170681
:105AB000B9F0B0F08091BD0480FD07C00E94B8121B
:105AC0008091BD0481608093BD0430E020E050E00F
:105AD00040E06AE070E085E392E00E946A0CF5CF56
