:100000000C9411010C94891C0C94621C0C944C1FD0
:100010000C94E91E0C94781E0C94CF1D0C94E61DD4
:100020000C9439010C94281E0C9439010C9439015C
:100030000C9439010C94521E0C9439010C94390122
:100040000C94181C0C9439010C94E61B0C94C01BE6
:100050000C9439010C941E1E0C9439010C94390136
:100060000C94B01C0C94390108000000BE92244985
:10007000123EABAAAA2ABECDCCCC4C3E00000080DA
:10008000BEABAAAAAA3E00000000BF000000803F4D
:100090000000000000084178D3BB4387D1133D190D
:1000A0000E3CC3BD4282AD2B3E68EC8276BED98F3A
:1000B000E1A93E4C80EFFFBE01C4FF7F3F0000007E
:1000C000000007634236B79BD8A71A39685618AEA6
:1000D000BAAB558C1D3CB7CC5763BD6DEDFD753E7D
:1000E000F6177231BF000000803F005EBCE2613F46
:1000F000DD83C29C7E20A3FD1F41009D23BE46DB05
:1001000065F88C11AF32CA57E97400000000240072
:1001100027002A0000000000250028002B00000016
:1001200000080002010000030407000000000000B6
:100130000000002E0206030D04E905CA070C0B0699
:100140000D210E650F6A10C81193120315341703A1
:10015000181819161B431E2F1F65207823E9242A1F
:10016000251F26113E030A0B0C0512142021222301
:100170002425262728292A2B2C2D2E2F0001020387
:10018000040506070001020304050001020304053B
:10019000000000000000000002140505000000003F
:1001A00002010A0100000000000000000000000041
:1001B0000000000000000000060305010101010A23
:1001C000060101010501050A020602020000000005
:1001D00005010804040404000000000023002600B8
:1001E00029000404040404040404020202020202BA
:1001F00003030303030301020408102040800102EB
:1002000004081020010204081020A5A510554E492D
:1002100053454E5330313000F10315700101AF1FCB
:10022000972711241FBECFEFD8E0DEBFCDBF11E06E
:10023000A0E0B1E0E0E6FAE502C005900D92A83931
:10024000B107D9F724E0A8E9B1E001C01D92A537B4
:10025000B207E1F711E0C0E1D1E004C02197FE014F
:100260000E94E22BCF30D107C9F70E9454210C9491
:10027000232D0C940000782F8827769531F008F410
:100280008627660F08F46427F8CF08F486270895B8
:10029000FC019081909528E030E081E397FF03C056
:1002A000990F982701C0990F21503109B9F7818121
:1002B000892728E030E091E387FF03C0880F892772
:1002C00001C0880F21503109B9F7089508950895A4
:1002D00008958FEF0895663050F4FC01808191817C
:1002E0000196F5E06F9F800D911D1124089590E017
:1002F00080E008950895AF92BF92CF92DF92EF927F
:10030000FF920F931F93CF93DF936C017B018B01BF
:10031000040F151FEB015E01AE18BF08C017D1070F
:1003200059F06991D601ED91FC910190F081E02D99
:10033000C6010995892B79F7C501DF91CF911F91EE
:100340000F91FF90EF90DF90CF90BF90AF90089506
:10035000FC01538D448D252F30E0842F90E0821BCB
:10036000930B541710F0CF96089501970895FC0150
:10037000918D828D981761F0A28DAE0FBF2FB11DA8
:100380005D968C91928D9F5F9F73928F90E0089500
:100390008FEF9FEF0895FC01918D828D981731F0BA
:1003A000828DE80FF11D858D90E008958FEF9FEF0E
:1003B0000895FC01918D228D892F90E0805C9F4FE4
:1003C000821B91098F739927089586E992E00E9414
:1003D000D90121E0892B09F420E0822F089580E0E3
:1003E00090E0892B29F00E94E50181110C94000016
:1003F0000895FC01A48DA80FB92FB11DA35ABF4FBA
:100400002C91848D90E001968F739927848FA68913
:10041000B7892C93A089B1898C91837080648C9367
:10042000938D848D981306C00288F389E02D808116
:100430008F7D80830895EF92FF920F931F93CF9348
:10044000DF93EC0181E0888F9B8D8C8D98131AC00F
:10045000E889F989808185FF15C09FB7F894EE89F6
:10046000FF896083E889F989808183708064808353
:100470009FBF81E090E0DF91CF911F910F91FF909E
:10048000EF900895F62E0B8D10E00F5F1F4F0F7346
:100490001127E02E8C8D8E110CC00FB607FCFACF01
:1004A000E889F989808185FFF5CFCE010E94F901A5
:1004B000F1CFEB8DEC0FFD2FF11DE35AFF4FF082D2
:1004C0009FB7F8940B8FEA89FB8980818062CFCF38
:1004D000CF93DF93EC01888D8823B9F0AA89BB897B
:1004E000E889F9898C9185FD03C0808186FD0DC066
:1004F0000FB607FCF7CF8C9185FFF2CF808185FF87
:10050000EDCFCE010E94F901E9CFDF91CF9108959F
:10051000833081F028F4813099F08230A9F0089579
:100520008730A9F08830C9F08430B1F48091800020
:100530008F7D03C0809180008F7780938000089525
:1005400084B58F7784BD089584B58F7DFBCF80916E
:10055000B0008F778093B00008958091B0008F7DB8
:10056000F9CFCF93DF93282F30E0F901E25EFE4F01
:100570008491F901EA50FE4FD491F901EE51FE4FFA
:10058000C491CC23A1F081110E948802EC2FF0E0ED
:10059000EE0FFF1FE852FE4FA591B491EC91ED23B1
:1005A00081E090E009F480E0DF91CF91089580E050
:1005B00090E0FACF1F93CF93DF93282F30E0F9011B
:1005C000E25EFE4F8491F901EA50FE4FD491F901A9
:1005D000EE51FE4FC491CC23A9F0162F81110E9439
:1005E0008802EC2FF0E0EE0FFF1FEC5EFE4FA591AE
:1005F000B4918FB7F894EC91111108C0D095DE2317
:10060000DC938FBFDF91CF911F910895DE2BF8CF40
:10061000CF93DF9390E0FC01EA50FE4F24918E517E
:100620009E4FFC0184918823C9F090E0880F991FA8
:10063000FC01E65FFE4FA591B491FC01EC5EFE4F1C
:10064000C591D49161110DC09FB7F8948C912095FC
:1006500082238C938881282328839FBFDF91CF91A9
:100660000895623051F49FB7F8943C91822F8095A1
:1006700083238C93E8812E2BEFCF8FB7F894EC91E6
:100680002E2B2C938FBFEACF3FB7F89480910802AE
:1006900090910902A0910A02B0910B0226B5A89B85
:1006A00005C02F3F19F00196A11DB11D3FBFBA2F04
:1006B000A92F982F8827BC01CD01620F711D811DC4
:1006C000911D43E0660F771F881F991F4A95D1F748
:1006D00008958F929F92AF92BF92CF92DF92EF9246
:1006E000FF926B017C010E9444034B015C01C11429
:1006F000D104E104F104B9F00E94440368197909B6
:100700008A099B09683E73408105910580F321E0C9
:10071000C21AD108E108F10888EE880E83E0981E1D
:10072000A11CB11CE4CFFF90EF90DF90CF90BF9061
:10073000AF909F908F9008952091BE01260F332790
:10074000331F21323105ECF420919002FC0190E03E
:1007500080E0243069F082E00895A091BE012191EB
:10076000AC0142565E4FA40FB52FB11D2C930196DC
:10077000861798F38091BE01680F6093BE0180E0F8
:10078000089581E008951092900281E080936F02B5
:1007900010926A0261E082E10E94DA0261E083E184
:1007A0000E94DA02E9EBF0E080818E7F8083808115
:1007B0008D7F808380E28093B80085E48093BC00C5
:1007C0000895CF93DF9391E090939D018823B9F032
:1007D000C091B800D091BA008091BC008A7B809310
:1007E000BC0060E082E10E94DA0260E083E10E94E6
:1007F000DA020E94C303D093BA00C093B800DF911D
:10080000CF910895CF92DF92EF92FF920F931F93B3
:10081000CF93DF93D82FC62F613208F098C00E9483
:1008200044036B017C018091900281116BC081E0D7
:100830008093900280936F029FEF90936E021092CC
:100840006D029C0F90936C0280936B0280916B02FF
:10085000DD0FD82BD0936B0280916A02813009F0B2
:1008600078C010926A020E9444036B017C0180915F
:100870006B028093BB008091920290919302A091B1
:100880009402B0919502892B8A2B8B2BA1F00E94A8
:1008900044030091920210919302209194023091AE
:1008A00095026C197D098E099F09061717072807FD
:1008B000390708F448C08091BC0083FDD8CF85EC8F
:1008C0008093BC000E9444036B017C0180919002E4
:1008D000813009F440C080916D028C1710F4C091F2
:1008E0006D02EAE4F2E0A0E7B2E080E08C1355C0CC
:1008F0008C2FDF91CF911F910F91FF90EF90DF90A0
:10090000CF9008958091920290919302A0919402C9
:10091000B0919502892B8A2B8B2B09F484CF0E94EE
:10092000440300919202109193022091940230911D
:1009300095026C197D098E099F090617170728076C
:10094000390708F070CF809191020E94E103C0E066
:10095000CFCF85EEB5CF8091920290919302A09176
:100960009402B0919502892B8A2B8B2B09F4AECF80
:100970000E944403009192021091930220919402EC
:10098000309195026C197D098E099F09061717078A
:100990002807390708F09ACFD6CF91919D938F5FA2
:1009A000A5CFCF92DF92EF92FF920F931F93CF9339
:1009B000DF93EC01162F672F888199812A8531E01A
:1009C0003093E1012093020210921302109212025E
:1009D000DC01ED91FC910190F081E02D0995888179
:1009E0009981DC01ED91FC910190F081E02D612F66
:1009F0000995D0911202D13208F094C0C091020240
:100A00000E9444036B017C0180919002811165C0BA
:100A100082E08093900281E080936F028FEF809359
:100A20006E0210926D02D0936C02A2EEB1E0EAE485
:100A3000F2E080E0D81385C010926B0280916B02C7
:100A4000CC0FC82BC0936B0280916A02813009F0F1
:100A50007CC010926A020E9444036B017C01809169
:100A60006B028093BB008091920290919302A091BF
:100A70009402B0919502892B8A2B8B2B99F00E94BE
:100A800044030091920210919302209194023091BC
:100A900095026C197D098E099F090617170728070B
:100AA0003907E0F18091BC0083FDD9CF85EC8093BC
:100AB000BC000E9444036B017C0180919002823053
:100AC00009F445C080916E028F3F61F180916E0202
:100AD000803241F180916E0225C080919202909106
:100AE0009302A0919402B0919502892B8A2B8B2BB3
:100AF00009F48ACF0E94440300919202109193025C
:100B000020919402309195026C197D098E099F09FC
:100B1000061717072807390708F076CF809191024A
:100B20000E94E10310921302109212021092E1014E
:100B3000DF91CF911F910F91FF90EF90DF90CF90B9
:100B400008959D9191938F5F75CF85EEB0CF809181
:100B5000920290919302A0919402B0919502892BF8
:100B60008A2B8B2B09F4A9CF0E9444030091920297
:100B70001091930220919402309195026C197D0995
:100B80008E099F09061717072807390708F095CF20
:100B9000C5CF0895E091150280911402E81730F452
:100BA000F0E0E059FD4F808190E008958FEF9FEFD6
:100BB000089590911502809114022FEF3FEF98173E
:100BC00048F4E92FF0E0E059FD4F208130E09F5FCD
:100BD00090931502C9010895809114029091150215
:100BE000891B990B0895CF92DF92EF92FF920F939A
:100BF0001F93CF93DF937C01CB018A012091E10108
:100C0000222389F0EB016B01C40ED51ECC15DD0546
:100C100069F06991D701ED91FC910190F081E02D8F
:100C2000C7010995F3CF642F0E949C03C801DF918F
:100C3000CF911F910F91FF90EF90DF90CF9008958B
:100C4000CF93DF931F92CDB7DEB769832091E10187
:100C50002223F9F020911202203258F021E030E0F6
:100C6000FC013383228390E080E00F90DF91CF91ED
:100C7000089580911302E82FF0E0EE51FE4F998124
:100C800090838F5F809313028093120281E090E043
:100C9000ECCF61E0CE0101960E949C03F7CF90E07B
:100CA00080E00895DC0180E0615090F09D919827EC
:100CB000E92FEF70F0E0E651FF4F2491E92FE29524
:100CC000EF70F0E0E650FF4FE491822F8E27ECCFDB
:100CD0000895DC012C911196ED91FC91F89481819D
:100CE000822B81839281322F30959323928382E0ED
:100CF00090E00197F1F781818323818380E190E087
:100D00000197F1F790817894E6E6F0E03197F1F7FA
:100D1000922381E009F480E00895FC019081018034
:100D2000F281E02D292F209560FF14C0F894828174
:100D3000822382838181892B8183A0E1B0E0119796
:100D4000F1F78281982B928378948AE690E001975C
:100D5000F1F70895F8948281822382838181892B1F
:100D60008183AEE7B0E01197F1F78281982B9283EF
:100D7000789486E090E0EBCFEF92FF920F931F9371
:100D8000CF93DF93EC01E62E08E010E0FF24F3940C
:100D900061E08E2D8F2109F460E0CE010E948D0666
:100DA000FF0C01501109A1F7F894E981FA819181B2
:100DB0008881809589238183E981FA819281888164
:100DC0008095892382837894DF91CF911F910F9131
:100DD000FF90EF9008954115510529F4EAE7F0E0FE
:100DE00080818F7780836A307105B9F0CB01880FDD
:100DF000991F880F991F807267706860682B88E15F
:100E00000FB6F894A895809360000FBE60936000C1
:100E1000E0E6F0E0808180648083232BD9F483B7FF
:100E2000817F846083BFF89483B7816083BF85B777
:100E3000806685BF8F7D85BF7894889583B78E7FC8
:100E400083BF7894452B29F4EAE7F0E0808180683D
:100E50008083089583B7817F846083BFF89483B7CC
:100E6000816083BF7894889583B78E7F83BF7894A1
:100E7000E9CF8EBD0DB407FEFDCF8EB5089561E0BC
:100E80008AE00C94DA028CE00E94B1028111FBCF5F
:100E9000089560E08AE00C94DA02CF93DF93D82FB4
:100EA000C62F0E9449070E9443078D2F8C2B0E945A
:100EB000390780E00E943907C82F0E943F078C2F16
:100EC000DF91CF910895CF93C82F0E9449070E94C8
:100ED00043078C2F0E943907C82F0E943F078C2F91
:100EE000CF91089586E30E9463078DE30E94630714
:100EF0008AE30C946307FC018289938960E0911175
:100F000001C061E00C94DA02BC0190E080E00E9434
:100F1000690384E090E030E020E060E170E040911F
:100F20007A00406440937A0042E350917A0056FF81
:100F300008C0FB013197F1F74150B9F790E080E02C
:100F4000089540917800509179005370240F351F17
:100F5000019729F7C90196958795969587952370EE
:100F600033272230310560F301960895EFE6F0E073
:100F70008081816080830895863130F4E82FF0E02D
:100F8000EA59FE4F849108958FEF0895CF93DF9330
:100F9000EC0180917C00807380937C0080917C00C8
:100FA000806C80937C0080917C0080937C0061E069
:100FB00089E00E94DA02888999890E948407EC01FD
:100FC00060E089E00E94DA02209761F09E01ACEFB8
:100FD000BEE90E94CC2B20E038E240E050E00E94C5
:100FE000AA2BE901CE01DF91CF910895FC01108673
:100FF0000895FC01962F97706085687F692B608744
:1010000008950895813011F08FEF089580E00895DC
:10101000882311F08FEF089581E00895883011F052
:101020008FEF089580E00895882311F08FEF0895E1
:1010300088E00895FC018289938961E0911101C0E3
:1010400060E00C94DA021F93CF93DF93FC012385B9
:1010500020FF11C0162FEC010E9449070E94430790
:101060000E943F0711110E94720784E30E946307E8
:101070008B858E7F8B87DF91CF911F910895089587
:10108000E0910C02F0910D02838581FD03C0838500
:101090008C60838708950895089580E008950F93E4
:1010A0001F93CF93DF932EE431E0FC013183208343
:1010B0008C01065C1F4F81F0EC01C855DF4F0C1707
:1010C0001D0751F0CE56D109E881F9810280F381E4
:1010D000E02DCE010995F3CFDF91CF911F910F91B4
:1010E00008950895089508952AE531E0FC013183BB
:1010F00020830C944F080895982FE6E6F1E080E0F5
:101100002491921729F08F5F31968631C9F78FEFBE
:1011100008950C947C0880917C00807380937C00FF
:1011200080917C00806480937C0080917C008E6044
:1011300080937C0082E390E00E948407009751F046
:101140009C0150E040E060E070E381E190E00E94AB
:10115000AA2BC90108950895862728E0BC01769539
:101160006795AC014170552780FF02C041E050EA0D
:10117000CB0184279527215089F70895FC0110821F
:1011800011821282138216821582148211861086B1
:101190001782128613860895FC018081811109C08F
:1011A0008181811106C081E09281911103C080E0AC
:1011B000089581E00895DC01FB019C9180819813E2
:1011C0000BC011969C9111978181981305C081E005
:1011D00012962C919281291380E00895FC013381AD
:1011E000FB012381321302C00C94DB0880E00895D8
:1011F000CF93DF9300D000D0CDB7DEB7FC0180895C
:101200009485998395859A8396859B838C8388237F
:1012100089F0BF01645F7F4FCE0101960E94EE0806
:10122000811108C082E00F900F900F900F90DF9116
:10123000CF91089581E0F7CF2FB7F894FC0180811A
:1012400091812FBF0895FF920F931F93CF93DF9348
:10125000EC018B01FFB6F8940E941C099C019FB71A
:10126000F894F801318320839FBF8FB7F8941983D6
:1012700008838FBFFFBEDF91CF911F910F91FF9029
:1012800008956F927F928F92DF92EF92FF920F9369
:101290001F93CF93DF937B0122E0E20EF11CDB0171
:1012A00015962D913D914C91232B242B09F44DC083
:1012B000EB01DFB6F8942C8122602C838C010E9414
:1012C0001C09009709F43EC0FC013297A1F065802B
:1012D000768087802D813E814F81CF0102966216F4
:1012E0007306840650F42619370948092D833E8376
:1012F0004F838C01E4CF90E080E02FB7F8949B837C
:101300008A832FBF8FB7F894D801ED92FC928FBFDC
:10131000309761F085819681A7812D813E814F8133
:10132000821B930BA40B85839683A783DFBEDF917B
:10133000CF911F910F91FF90EF90DF908F907F9052
:101340006F900895F0E0E0E0D8CFB7010296DF910A
:10135000CF911F910F91FF90EF90DF908F907F9032
:101360006F900C9423091F93CF93DF93EC01FB0143
:101370002885922F9770943079F040F4923051F094
:10138000933039F1DF91CF911F910895953009F194
:101390009630C1F711E012C023FD21C02A853B859C
:1013A0002550310913E02115310541F040E02D832E
:1013B0003E834F83BE01CF010E944109E881F9813C
:1013C0000680F781E02D612FCE01DF91CF911F9133
:1013D000099423FDD7CF2A853B8515E0E4CF25E08E
:1013E00030E012E0E3CF0F931F93CF93DF93EC0134
:1013F0008B01E88981E08E0F888BEC0FFD2FF11DAA
:10140000228530E0A4E6B0E00E94CC2B2AE030E058
:1014100040E050E00E94AA2B2D833E834F83BE0103
:10142000C8010E94410988898170DF91CF911F9185
:101430000F9108950F931F93CF93DF93EC018B01CE
:10144000E881F9810680F781E02D09959B878A87DD
:101450008C859D85AE858D839E83AF83BE01C8013B
:10146000DF91CF911F910F910C944109EF92FF9260
:101470000F931F93CF93DF93EC01FFB6F8940E9474
:101480001C098C01892B71F0EFB6F894CE010E94F3
:101490001C090E941C099C019FB7F894398328837A
:1014A0009FBFEFBEFFBEC801DF91CF911F910F918B
:1014B000FF90EF900895BF92CF92DF92EF92FF924C
:1014C0000F931F93CF93DF93EC01FFB6F8948C81B9
:1014D0008D7F8C8384E493E00E941C090097C9F1FE
:1014E0009C012250310984E493E02115310589F1F2
:1014F00089010E5F1F4FC217D30709F50E94360AF4
:10150000C8010E941C09009779F0FC01329761F034
:1015100085819681A7812D813E814F81820F931F06
:10152000A41F85839683A783FFBEDF91CF911F9170
:101530000F91FF90EF90DF90CF90BF900895C8017A
:101540000E941C09009729F09C0122503109C80112
:10155000CCCF6E0182E0C80ED11CEFB6F894BFB6B6
:10156000F89486E493E00E941C09EC0126E433E041
:10157000209779F010E000E0CC16DD0609F489012F
:10158000CE010E941C099E010115110521F4EC01F8
:10159000EFCF10E000E0BFBE0115110511F4EFBE62
:1015A000C3CFC8010E94360AFACFEF92FF920F9381
:1015B0001F93CF93DC0118960D911C91F801818542
:1015C0000E94B102D8011896CC911897C3FBEE2463
:1015D000E0F8F12C8E151F04C9F180FBC3F91896B1
:1015E000CC93C770C33031F0C53021F0C130C1F4A5
:1015F000C4E007C0F801808583FF12C0C33021F129
:10160000C6E0C8010E945B0A85E090E0A0E0F80116
:1016100085839683A783B80184E493E00E944109FF
:10162000D80118968C91189787708C1779F0ED91E6
:10163000FC910680F781E02D6C2FC801CF911F919E
:101640000F91FF90EF900994C2E0DBCFCF911F91F3
:101650000F91FF90EF90089580E693E00E945B0A5F
:1016600060E673E084E493E00C9441098F929F92CA
:10167000AF92BF92CF92DF92EF92FF92CF93DF9320
:10168000EC014A015B0184E493E00E941C0900978D
:10169000B9F481E08887CE010E945B0A8D829E8228
:1016A000AF82BE0184E493E0DF91CF91FF90EF9091
:1016B000DF90CF90BF90AF909F908F900C94410996
:1016C0000297C12CD12C7601009719F3FC012581DA
:1016D00036814781642FA90170E0C40ED51EE61E35
:1016E000F71EC817D90739F002960E941C09009707
:1016F00081F20297E9CFC814D904EA04FB0448F246
:10170000DF91CF91FF90EF90DF90CF90BF90AF909F
:101710009F908F90089586E493E00E94360AFC0122
:10172000009781F0029771F022812D7F2283DC01E6
:10173000ED91FC910190F081E02D64E473E0099556
:1017400081E0089580E00895CF92DF92FF920F9399
:101750001F93CF93DF938C01FFB6F8940E941C096E
:10176000009769F1EC01229751F18D819E81AF8143
:101770000197A1098D839E83AF83680182E0C80E23
:10178000D11C8D819E81AF81892B8A2BC1F4C80128
:101790000E94360A8C8180FF1CC08D7F8C83E8817B
:1017A000F9810190F081E02DB801CE010995C801C1
:1017B0000E941C09009719F0EC01229711F7FFBE57
:1017C000C801DF91CF911F910F91FF90DF90CF90D3
:1017D0000895BE016E5F7F4FC6010E942309E7CFC7
:1017E000AF92BF92CF92DF92EF92FF920F931F932F
:1017F000CF93DF9300D000D000D0CDB7DEB78C01FF
:1018000060E074E20E94D10464E170E080E090E066
:101810000E94690366E0D8011A968C910E94020426
:101820001092150280931402F80180819181DC01ED
:10183000ED91FC910084F185E02D0995069709F062
:1018400077C0FE0131967F015E01F7E0AF0EB11C5B
:101850006701D8018D919C91DC01ED91FC9102848E
:10186000F385E02D0995F70181937F01EA15FB05CA
:1018700081F7FB80C6010E944801F81259C0FE8022
:10188000CE0104960E944801F81252C029813A8183
:10189000322723273227A7E1B1E10E94CC2B2EE08B
:1018A00096958795779567952A95D1F764597141F3
:1018B000810991090E94E12820E030E048EC52E4DF
:1018C0000E943928D80116966D937D938D939C9331
:1018D00019972C813D81322723273227A1E7B2E0D7
:1018E0000E94CC2B3CE096958795779567953A9525
:1018F000D1F70E94E12820E030E048EC52E40E9459
:101900003928F801628373838483958381E0269666
:101910000FB6F894DEBF0FBECDBFDF91CF911F9100
:101920000F91FF90EF90DF90CF90BF90AF90089510
:1019300080E0EDCFFC0190810180F281E02DF894F0
:101940008181292F20958223818378943DE731502E
:1019500011F180818923D9F3F894828182238283D3
:101960008181892B81837894ACEBB3E01197F1F7F7
:10197000F894818182238183A8E8B0E01197F1F780
:101980008081982381E009F080E07894E0E3F3E03F
:101990003197F1F7089580E008951F93CF93DF9377
:1019A0001F92CDB7DEB7162F0E947C088F3F99F0AB
:1019B00060919B0370919C03680F711D198341E036
:1019C00050E0CE0101960E94B42781E00F90DF9194
:1019D000CF911F91089580E0F9CFCF93C82F60E099
:1019E0000E94CD0C8823A1F060E081E08C0F0E9462
:1019F000CD0C882369F060E082E08C0F0E94CD0C52
:101A0000882331F060E083E08C0FCF910C94CD0CF3
:101A100080E0CF910895EF92FF920F931F93CF93A1
:101A2000DF931F92CDB7DEB78C017B01E80EF91E64
:101A3000198241E050E0B801CE0101960E94B4271E
:101A40000F5F1F4FE016F10699F781E00F90DF91CD
:101A5000CF911F910F91FF90EF9008951F93CF9317
:101A6000DF93D82F162FC42F0E9449070E944307E7
:101A70008D2F0E943907812F0E9439070E943F074E
:101A800060E88D2F0E944D07181799F080E0CC2355
:101A900061F04FEF4C0F612F8D2F0E942E0DEFEC58
:101AA000F7E03197F1F700C00000DF91CF911F916F
:101AB000089581E0FACF85ED8093BC008091920279
:101AC00090919302A0919402B09195020796A11D66
:101AD000B11D23E0B695A795979587952A95D1F7DF
:101AE0002091BC0024FD03C0109290020895409103
:101AF0009202509193026091940270919502452B4D
:101B0000462B472B69F30097A105B10541F02AE167
:101B10002A95F1F700C00197A109B109E1CF8091A1
:101B200091020C94E103CF93CFEF86E30E94630709
:101B3000C150807731F08AE18A95F1F700C0C11178
:101B4000F4CF8AE30E94630789E3CF910C94630783
:101B50000F931F93CF93DF93EC018B010E945B0ADD
:101B6000CE010E941A08B80183E0660F771F8A959C
:101B7000E1F760577E4F48E050E0CE0108960E94A2
:101B80009B278885882389F0188A198A64E473E082
:101B9000CE010E94F3098C89882339F0CE01DF91B0
:101BA000CF911F910F910C947B07DF91CF911F91E3
:101BB0000F9108950F931F93CF93DF9300D01F923F
:101BC000CDB7DEB78B0143E050E0BC01CE010196FA
:101BD0000E949B279A818B812981F8012083918320
:101BE00082830F900F900F90DF91CF911F910F91F3
:101BF00008951F93CF93DF93EC011FB7F894988952
:101C00008885981778F4CE010E94F3091FBF8823B6
:101C1000D9F08C898823F1F0CE01DF91CF911F910B
:101C20000C947B07188A9985992369F389898F5FBA
:101C3000898B891740F348E050E060E971E0CE01FC
:101C400008960E949B271FBFCE01DF91CF911F9165
:101C50000C941A08DF91CF911F910895CF93DF93D1
:101C60001F92CDB7DEB7198241E050E0BC01CE0132
:101C700001960E94A42789810F90DF91CF9108954A
:101C8000CF93DF93EC0188E10E947C088F3F59F0ED
:101C900028813981820F932F911D0E942E0E817011
:101CA000DF91CF91089580E0FBCF8E960E94400E89
:101CB000811109C064E070E090E080E00E940B0DAB
:101CC000F0E0E0E0099408950F931F93CF938C0107
:101CD000862FC42F0E947C088F3F59F0F801208185
:101CE0003181820F932F911DCF911F910F910C94F1
:101CF0002E0E8C2FCF911F910F910895EF92FF928E
:101D00000F931F93CF93DF93EC018B0140E06CE0C6
:101D1000C8010E94640EF82E40E06BE0C8010E94EA
:101D2000640EE82E40E06AE0C8010E94640E8883D9
:101D3000E982FA82CE01DF91CF911F910F91FF903E
:101D4000EF9008958F929F92AF92BF92CF92DF92C1
:101D5000EF92FF921F93CF93DF93EC01162F40E099
:101D60000E94640EC82E61E0610F40E0CE010E9427
:101D7000640ED12CF12CE12CFC2CEE24DD24CC249F
:101D800090E0B0E0A0E0DC019927882746015701E8
:101D9000880E991EAA1EBB1E62E0610F40E0CE01B4
:101DA0000E94640E90E0B0E0A0E0CC24D82EE92E92
:101DB000FA2EC80CD91CEA1CFB1C63E0610F40E042
:101DC000CE010E94640EA7019601280F311D411D0E
:101DD000511DCA01B901DF91CF911F91FF90EF9082
:101DE000DF90CF90BF90AF909F908F900895CF934A
:101DF000DF93EC01CB011A82198218821B82642FB7
:101E000004960E946B01009731F044E050E0BC0161
:101E1000CE010E94A427CE01DF91CF910895EF92C9
:101E2000FF921F93CF93DF9300D000D0CDB7DEB7E2
:101E30007C0110E0412FB701CE0101960E94F70E00
:101E4000CE0101960E94CC08882321F01F5F163036
:101E500089F71FEF812F0F900F900F900F90DF9158
:101E6000CF911F91FF90EF900895AF92BF92CF92C4
:101E7000DF92EF92FF921F93CF93DF9300D000D0B9
:101E8000CDB7DEB77C016B0110E05C0184E0A80EE9
:101E9000B11C412FB701CE0101960E94F70EB60189
:101EA000CE0101960E94EE08882379F01B821A82E7
:101EB00019821C82612FC5010E946B0144E050E031
:101EC000BC01CE0101960E94B4271F5F163009F7AE
:101ED00081E00F900F900F900F90DF91CF911F91A5
:101EE000FF90EF90DF90CF90BF90AF900895AF92AA
:101EF000BF92CF92DF92EF92FF921F93CF93DF9327
:101F000000D000D0CDB7DEB77C016B015A0110E0E4
:101F1000412FB601CE0101960E94F70EB501CE0108
:101F200001960E94EE088823C1F0612FC601049635
:101F30000E946B010496F70191838083C7010F9083
:101F40000F900F900F90DF91CF911F91FF90EF9026
:101F5000DF90CF90BF90AF9008951F5F1630C1F60D
:101F600090E080E0E8CFCF93DF9300D000D000D0A6
:101F70001F92CDB7DEB7FC0121111FC086A597A522
:101F80009A83898386E18B838CEB97E09D838C8396
:101F900089E898E09F838E8329813A814B815C8117
:101FA0006D817E818F8190E027960FB6F894DEBF19
:101FB0000FBECDBFDF91CF910895662331F185A586
:101FC000861750F100A8F1A9E02D213069F444856D
:101FD000558561E08EE098E024E138E05A8349833A
:101FE0006B833D832C83D6CF2430B1F4BF01685F6F
:101FF0007F4FCE0101960E94770F49815A8182E07E
:1020000098E028E038E061E0E9CF90E080E030E05F
:1020100020E050E040E0E2CF90E080E030E020E0DF
:1020200060E0F7CFAF92BF92CF92DF92EF92FF9234
:102030000F931F93CF93DF93EC017B018B858B7FF5
:102040008B878E01035F1F4F60EC8BE30E944D076F
:1020500018166CF1D12C8AE30E9463078BE791E09C
:102060000197F1F700C000000E94720784E30E940C
:102070006307DD2009F460C0DC868D8596E798272C
:102080009D8721E04D2D50E0BA0161507109A22FCA
:10209000B0E0F801EA0FFB1F9081A617B7070CF01C
:1020A00043C08452892780832F5F892FF0CF60E857
:1020B0008FE30E944D07D82E4CE1481758F20E943A
:1020C00049070E9443078FEF0E943907C02E58012D
:1020D0008A2D8C198D1538F480E00E943907F5019E
:1020E00081935F01F5CF0E943F0760E88FE30E9474
:1020F0004D07282F30E0082E000C990B882791708F
:10210000A901481B590BCA0157FD01969595879562
:10211000919581959109865B898360E88FE30E94A0
:102120004D0787FF97CF97CF8E8589278083B8018A
:10213000C70101960E941A2DF701D0821C8660E02B
:10214000CE010E942308F7018081DF91CF911F917A
:102150000F91FF90EF90DF90CF90BF90AF900895D8
:102160002F923F924F925F926F927F928F929F92A7
:10217000AF92BF92CF92DF92EF92FF920F931F9395
:10218000CF93DF93CDB7DEB7A3970FB6F894DEBF3A
:102190000FBECDBF6C018B01FA018081DB01179668
:1021A0008C931797818118968C9318978281199632
:1021B0008C936CE373E0CA010E94DB08882329F04A
:1021C000F80182818F7D84608283B8016C5F7F4FCC
:1021D000D6019A968D919C910E94DA0DF801828128
:1021E0008068828346E064E1D60114968D919C91CB
:1021F0000E94640EB82E811102C0BB24B394F60174
:10220000E480F58085E00E947C088F3F09F45FC080
:10221000D7012D913C91820F932F911D0E942E0E7C
:10222000782E72947694769443E0742241F0F6010D
:102230008281938162E070E002960E94A80D98016D
:102240002F5F3F4F3BA32AA33AE0432E512C612C32
:10225000C801079699A388A3BB2009F487C1D601BA
:102260001296ED90FC904701B2E38B0E911CF801A1
:10227000828180718E8F1701FFE32F0E311CD801F0
:102280004C9150E06AA17BA1C1010E941A2DF80176
:102290002081D701DE962C93DE97DF968C91B6E7EE
:1022A0008B27F70187AFE05CFF4F908161E0215001
:1022B000330B462F50E0F101E40FF51F70814217F8
:1022C000530744F48452872780836F5FF2CF7724CB
:1022D0007394ADCF892F87278083D701DE96BC9179
:1022E000BF8FB7016C5C7F4FF701A4ACAA2039F017
:1022F0008FEC97E00197F1F700C00000F5CFD70110
:1023000041AE52AE63AEE1E0DC96EC9384E493E040
:102310000E94410961E0C4010E942308E8982AE76D
:1023200031E03093010120930001D701DD968C91BB
:10233000DD978260DD968C9386E30E9463078BE3D2
:102340000E94630728EC922E85E30E946307E7EC66
:10235000F0E03197F1F700C000009A9491104FC05F
:1023600086E30E9463078BE30E9463078DE30E946C
:10237000630784E30E94630760EC85E30E944D07D6
:102380008D30B9F790E0D701DD968C91DD978D7F88
:10239000DD968C93E0E4F8E0F0930101E093000116
:1023A000809169008C7F826080936900E89ABA947A
:1023B000992309F451CFD80112968C9185FFA8C0BA
:1023C00088A199A10E94CC08882309F4A1C0CE015C
:1023D00001960E94BE088CE3F82EF601828193815B
:1023E000DC01DD962C9122FD5AC0EFE1FEE431972D
:1023F000F1F700C00000FA94F110EFCF2DCF60ECA0
:1024000085E30E944D07833109F09ECF8FE19EE462
:102410000197F1F700C000009E8D992349F0AFE7C6
:10242000BBE8E8E0A150B040E040E1F700C00000A8
:102430000E9449070E9443078FE30E9439078F8D4E
:102440000E9439070E943F070E9449070E944307E4
:102450008FE70E9439072E8E4101882DFE8D8F1B3C
:102460002F8D821730F4D4018D914D010E943907D0
:10247000F4CF0E943F0798EC992E60EC85E30E9410
:102480004D078D3011F491E07ECFE7ECF0E031970D
:10249000F1F700C000009A949110EFCFF4CFBE0185
:1024A0006F5F7F4FC2960E941210882309F49DCF60
:1024B000D80111969C918A81981397CFBE016B5FCA
:1024C0007F4F88A199A10E94DB08882309F48DCF52
:1024D0008C81823041F48B85A82EA094AA1CAA245A
:1024E000AA1C87FDB12CF801828181FD03C08B817C
:1024F00080FF0BC0D60112968D919C9142E350E073
:1025000060E070E089960E94360BAA2009F4A4CE00
:1025100011E0772049F0F6018281938111E063E0B8
:1025200070E002960E94A80D812FA3960FB6F89432
:10253000DEBF0FBECDBFDF91CF911F910F91FF90F6
:10254000EF90DF90CF90BF90AF909F908F907F9053
:102550006F905F904F903F902F900895D601129604
:102560008D919C9110E064E070E0DBCF7110F6CFAC
:1025700010E0DACF0F931F93CF93DF93EC018B0121
:102580008AE18B871E861D864C871E8A6AA57BA5DD
:10259000FB01719684913197E491ED8B8AA3625F80
:1025A0007F4F42E050E0CE0146960E949B276AA5ED
:1025B0007BA56D5F7F4F4AE050E0CE0148960E94B8
:1025C0009B278DA58BA36AA57BA56E5E7F4F42E0FE
:1025D00050E0CE0184960E949B27BE01655F7F4F2D
:1025E000A801CE01DF91CF911F910F910C94B010F3
:1025F000FF920F931F93CF93DF9300D01F92CDB71D
:10260000DEB78C01FC018085282F2770962F9770EC
:10261000887F892B8087623071F50789108DF801DA
:10262000F680F394F68264817581CE0101960E9452
:102630007E0E4F2DBE016F5F7F4FC8010E94BA1200
:10264000F8018281938161E070E002960E94A80DFA
:10265000F8018281938140ED57E060E070E0899657
:102660000E94360B0F900F900F90DF91CF911F912A
:102670000F91FF9008956530A9F78789908D2530D7
:1026800059F48E960E94400E8111ECCFF801878993
:10269000908D0E94550EE6CFFC018281938167E008
:1026A00070E002960E94A80DDDCF2F923F924F92CC
:1026B0005F926F927F928F929F92AF92BF92CF92D2
:1026C000DF92EF92FF920F931F93CF93DF93CDB7DB
:1026D000DEB7A6970FB6F894DEBF0FBECDBF8C0154
:1026E0007B011BA21AA219A2BE016F5D7F4FDC0104
:1026F0009A968D919C910E94DA0D2701B7E04B0EBE
:10270000511CBE016F5D7F4FC2010E94DB08C82EC5
:10271000882309F474C0F801C280D3805601F4E321
:10272000AF0EB11CC5010E945B0A8AE090E0A0E0F8
:10273000F60181AF92AFA3AF81E084AFB50184E42D
:1027400093E00E944109D70112968C9186FDA8C0A2
:10275000D70114968C911497F801878315968C9164
:102760001597808716968C911697818711968C9174
:102770001197828713968C9113971A96DC901A976B
:10278000813009F066C31B963C90FAE03F129BC073
:10279000D8019A966D917C916D5F7F4F4AE050E031
:1027A000CE0101960E949B274AE050E0BE016F5F78
:1027B0007F4FC7010C960E940D2D892B09F079C31C
:1027C000F8018281938161E070E002960E94A80D79
:1027D000D80112968D919C9140ED57E060E070E039
:1027E00089960E94360BF7014081B7016C5F7F4FDD
:1027F000C8010E94BA12D12CC12C312C9AC0F70109
:102800008081898381818A83B280BB82D380DC828C
:1028100084818D8385818E8386818F83878188875C
:102820008085898781858A8782858B87A384AC860A
:1028300081E13C96DE011D9601900D928A95E1F7AB
:102840006CE373E0CE0108960E94DB08882339F020
:10285000F1E0DF1204C02AE0A21609F45CCFB2FE58
:1028600005C080EC8D0D823008F455CF8C2DA696D6
:102870000FB6F894DEBF0FBECDBFDF91CF911F9191
:102880000F91FF90EF90DF90CF90BF90AF909F900F
:102890008F907F906F905F904F903F902F90089512
:1028A000B7016C5F7F4FC80107960E94DB08882341
:1028B00009F44ECFD8011A969C91F70181819813A3
:1028C00047CFC12CD3CFB1E03B12B5C0DD2009F416
:1028D000F0C2D8019D968C919D978D1508F4E9C2A0
:1028E000D096CD90DC90C7010E94F8084701BCE06B
:1028F0008B0E911C5601E8E0AE0EB11C813009F040
:1029000057C0B401C5010E94350FC5010E940F0FC9
:102910008F3F09F48DC0682FC6010C960E946B0191
:1029200044E050E0BC01C4010E94B42781E0F801FA
:1029300084A7F701828185FF2DC0BE016F5D7F4FA7
:10294000C2010E94DB08882329F1F1E03F12C5C2D1
:10295000A7014C5F5F4FC114D10409F4ADC2D80187
:102960001296ED91FC9183A99EE0F701908392E08D
:10297000938312823286D6011B969C91938714868C
:1029800015868687B701C8010E94B010F6018285BE
:102990008E7F8287D80112968D919C9142E350E000
:1029A00060E070E089960E94360BCC24C3945ECF21
:1029B000D70150968C9150971C969C911C979983A7
:1029C0001D969C911D979A831E969C919B838C8348
:1029D000B401C5010E94350FBE016F5F7F4FC50175
:1029E0000E94350FC5010E940F0F8F3F09F136017C
:1029F000BCE06B0E711C682FC3010E946B0144E0A8
:102A000050E0BC01C4010E94B427C5010E940F0F11
:102A10008F3F51F0682FC3010E946B0144E050E0EA
:102A2000BC01CE01019680CFB401C5010E94350FD3
:102A300082E0382E7ECFF2E03F1237C0DD2009F46D
:102A400038C2D8019D968C919D978D1508F431C29E
:102A5000D096CD90DC905601B8E0AB0EB11CB7011A
:102A6000645F7F4FC5010E94350F982EC7010E94F9
:102A7000F808823081F4F7018089948599839585DF
:102A80009A8396859B838C83BE016F5F7F4FC501C0
:102A90000E94350F9822992009F44BCF81E0D8018C
:102AA0009C968C933324339444CFB3E03B1270C094
:102AB000DD2009F4F0C0F80195A59D1508F49BCE22
:102AC00060A871A8D70111969C91119714962C912A
:102AD00014972E8F15962C9115972F8F16962C9153
:102AE00028A35801BBE0AB0EB11C2AE1238720E1EB
:102AF000268720E22587858B94874801E6E18E0EA4
:102B0000911C6401212C312CF8E06F0E711C26E021
:102B1000221641F1422DB301CE0101960E94F70E1B
:102B2000CE0101960E94CC088823D1F0339484E032
:102B3000FE013196D60101900D928A95E1F784E06D
:102B4000C80ED11C94E039120BC0AE01425E5F4F3B
:102B5000B501C8010E94B0106401312C882311F026
:102B60002394D5CF84E0D6011D928A95E9F7832D71
:102B7000880F880F825FF801838785858F7D858721
:102B8000AE01425E5F4FB501C8010E94B01033CE66
:102B9000F4E03F1282C0D70150962C91A701445F08
:102BA0005F4F6D2DC8010E94B30F29833A834B8379
:102BB0005C836D837E838F83E981FA81FEA3EDA31D
:102BC00022E0322EEF2B09F4B0C0D70111968C9180
:102BD000119714969C9114979E8F15969C9115971A
:102BE0009F8F16969C9198A33801BBE06B0E711CC9
:102BF0009AE1F801938790E1968790E2958792E0B9
:102C0000958B84871801F6E12F0E311C6101B12CE0
:102C1000A12C1CA28B818A151B0451F14CF1EC8173
:102C2000FD818A2D0995D6018C934601B2E08B0E69
:102C3000911C8DA19EA18A0D9B1D0E942E0EF60156
:102C40008183FCA1FF5FFCA3F83059F4AE01425E22
:102C50005F4FB301C8010E94B010882339F04101D1
:102C60001CA22FEFA21AB20A6401D4CF61011CA2E8
:102C7000D6011C9211961C928CA18A5F880FF801D4
:102C8000838785858F7D8587AE01425E5F4FB30167
:102C9000C8010E94B010312C48C0FEE03F122CC089
:102CA000D801D096CD90DC90D197F7012181129672
:102CB000ED91FC9183A9D6011B969C91F801338676
:102CC00030E1368736E0358B2487968B178A108E55
:102CD000818F82E08587A7014C5F5F4FB801655FF8
:102CE0007F4FC8010E94B010D6011A968C911A9796
:102CF0008E7F1A968C937FCDB5E03B1219C0F801F8
:102D0000D2AAD70150962C91A701445F5F4F6D2D39
:102D1000C8010E94B30FF80123AB34AB45AB56ABEF
:102D200067AB70AF81AF33243394D12CC12C01CE6B
:102D3000F6E03F1233C0D8019C968C939C97D396B3
:102D40002D913C91D4979E968D919C919F97281799
:102D5000390781F412968D919C9170E060E00296A3
:102D60000E94A80DD801ED91FC910480F581E02D21
:102D7000C80109958FEFF80182AB8AE0D7018C93E7
:102D800082E013968C93139712968C9312971A964F
:102D90001C92A7014C5F5F4FB701F6CEB8E03B1223
:102DA00038C0F80182A98D1519F0D12CC12C7ACE2A
:102DB00083A994A9892BC9F3F70180818B3008F48A
:102DC0008BE095EF992E980E5701FCE0AF0EB11CE9
:102DD00065018C2D8A19891540F7D60111968C90C2
:102DE000D801D896ED91FC91D6018C9109958F3F31
:102DF00061F0F80163A974A9680F711D898241E02F
:102E000050E0CE0101960E94B427F2E0CF0ED11C13
:102E1000E0CF29E032124DC0D70111968C9194E198
:102E2000F801938790E196871586158A8487168A1C
:102E300062A573A56D5F7F4F4AE050E0C8014696DA
:102E40000E949B27A7014C5F5F4FB801655F7F4FD2
:102E50009BCE813159F5F4E0DF1619F02AECD2123D
:102E6000CACC8AE0D7018C9382E013968C93139797
:102E700012961C9212971A961C92A7014C5F5F4FF4
:102E8000B701C8010E94B010BAECDB120BC088E198
:102E90009CE00FB6F894A895809360000FBE9093C5
:102EA0006000FFCFC8010E94550EA5CC823109F405
:102EB0007CCFD12CC12CBCCD8AE0D7018C9382E091
:102EC00013968C93139712961C9212971A961C9233
:102ED000B701C8010E94B0105DCDB2E03B125ACDDF
:102EE0008AE0F70180833382128280E88287A7011B
:102EF0004C5F5F4FEDCF0C94842C0C94842C0C947D
:102F0000842C0C94842CCF93DF93EC010E944F0807
:102F1000CE01DF91CF910C94842C0C94842C0C94D2
:102F2000842C0C94842CCF93DF93EC010E947408C2
:102F3000CE01DF91CF910C94842C0C94842C0C94B2
:102F4000842C0C94842C2F923F924F925F926F921C
:102F50007F928F929F92AF92BF92CF92DF92EF9229
:102F6000FF920F931F93CF93DF93CDB7DEB7669792
:102F70000FB6F894DEBF0FBECDBF8C017B8B6A8B82
:102F800088EF9AE2D8019E969C938E939D97F801C4
:102F900011AA12AA13AA14AA7801FDE5EF0EF11CDA
:102FA000D70114961C921E92139712961C921E9291
:102FB00011978C91882309F443C06701B5E0CB0ECB
:102FC000D11CC6010E94F00B812C912CE0ECAE2E9E
:102FD000EFE7BE2E882339F0F801EE59FF4F8680C7
:102FE0009780A084B184C6010E94F00B882309F465
:102FF000ABC3F801EE59FF4F428053806480758067
:10300000A5019401C501B4010E947C2A882309F41A
:10301000A9C3A3019201C301B2010E947C2A8111BC
:103020000FC020E030E040E251E4C301B2010E9451
:10303000BF290E94B228D70114967C936E931397F0
:10304000F801E25AFF4F80819181F80194A783A78C
:10305000E05AFF4F80819181D801D0969C938E9346
:103060009F9736972080222009F4A7C07801BDE4FD
:10307000EB0EF11CF701818192810E949A0C6CEC9D
:10308000D70111968D919C910E94BC0664E4F701D2
:10309000818192810E94BC066AE174E080E090E048
:1030A0000E946903312CAE01465F5F4F5F874E87F8
:1030B000E2E2FCEFD7011496FC93EE93139711967E
:1030C0008D919C910E949A0CD7011196AD90BC9065
:1030D00065E5C5010E94BC066701B5E0CB0ED11CB9
:1030E0004701EDE08E0E911CD6016D916D01C50179
:1030F0000E94BC06C814D904B9F76EEBF7018181B0
:1031000092810E94BC06AE014F5F5F4F6A01488BFF
:10311000D98AD70111966D907C9068E0A62EB12CCB
:10312000512C44244394C3010E9469068111542800
:10313000440CB1E0AB1AB108B1F7F60151926F013E
:103140004E855F854E175F0721F768E0888999896A
:103150000E945206998589132CC089819A81D701D2
:1031600015962C91203109F022C253E0880F991F47
:103170005A95E1F72885203141F42F81ECE0F0E009
:10318000E21BF109807F8E0F9F1FFAE0F89F9001EC
:10319000F99F300D112437FF02C0215F3F4F44E0FB
:1031A000359527954A95E1F7D70114963C932E93D0
:1031B00013973394740123107BCFF801E05BFF4F2A
:1031C00080819181F80194A783A70084F185E02D87
:1031D000A281B38191968D919C91D801D9969C93AF
:1031E0008E93D89764E2848195810E94A20E611526
:1031F000710541F0F80123A534A5C901860F971F79
:1032000094A783A7D8011896ED91FC9168E2848178
:1032100095810E94A20E6115710541F0F80125A566
:1032200036A5C901860F971F96A785A7D8011896BE
:10323000ED91FC916CE2848195810E94A20E611552
:10324000710541F0F80127A530A9C901860F971F24
:1032500090AB87A7D8019B966D917C91072E000CAF
:10326000880B990B0E94E32820E030E040E251E413
:103270000E9439286B017C01F80167A570A990E0D4
:1032800080E00E94E12820E030E040E251E40E942A
:1032900039284B015C01A7019601C701B6010E94C4
:1032A0007C2A811192C1A5019401C501B4010E943B
:1032B0007C2A81118AC129E23CE54DE851E4C7012D
:1032C000B6010E94BF292B013C0120E030E843E712
:1032D00053E4C701B6010E94CD279B01AC01C30195
:1032E000B2010E9439289B01AC0164E578EF8DE2C0
:1032F00090E40E942C2A21E835E943EC50E40E9436
:10330000BF29A50194010E94BF292BE63FE140E9B6
:1033100051E40E94BF292B013C0123E333E948E833
:1033200053E4C701B6010E94CD2724E138E045E00F
:1033300051E40E94BF299B01AC01C301B2010E946C
:10334000392820E030E048EC52E40E94BF290E9476
:10335000B228D801DC967C936E93DB97A701960187
:10336000C701B6010E947C2A811134C1A5019401D4
:10337000C501B4010E947C2A81112CC120E030E0FB
:1033800048EC52E4C501B4010E9439280E94772913
:103390004B015C0120E030E04DE851E4C701B6018B
:1033A0000E94BF292B013C012DE33AE043E753E49F
:1033B000C701B6010E94CD279B01AC01C301B20138
:1033C0000E9439286B017C01AC019B01C501B4014D
:1033D0000E94CD272DE33AE043E753E40E94BF2942
:1033E0002B013C01A501940160E070E08DE891E4BF
:1033F0000E94CC27A70196010E94CC279B01AC011B
:10340000C301B2010E94392820E030E040E251E4DB
:103410000E94BF290E94AB28F80176AF65AF0084F7
:10342000F185E02D26812F5F2683D8019F968D910F
:103430009C9105966AE070E00E94962B462F380119
:10344000BEE06B0E711CF801F5ADF88BD801DE966D
:10345000BC91B98BF801F3ADFC8BD801DC96BC9123
:10346000BD8BF801E084F184D7011296ED91FC91B7
:10347000D801D896BC91BE8BD801D9962C90D997FB
:10348000D5963C90D597D1964C90D197D2965C909A
:10349000D297D3968C90D397D4969C90D4979D96A0
:1034A000DC909D979E96CC909E979B96BC909B9708
:1034B0009C963C913F77A78C81A192A164E670E035
:1034C0000E94962BA616170611F008F03068822F7E
:1034D00064E10E948A2B84E0923009F482E299E14F
:1034E000F801968790E7918B808B308F2787B18E7C
:1034F000C28ED38E448F958E868E578E40A231A277
:1035000022A24E8943A34D8944A34C8945A34989EE
:1035100046A3488947A382FF62C08F7C8460808B6A
:103520004CE353E0B301C7010E94B010D8011896D4
:10353000ED91FC91C480D58040E060E2C6010E941C
:10354000640EF82E40E061E2C6010E94640E2F2D49
:1035500030E0322F2227280F311DA4E6B0E00E9470
:10356000CC2BF801658376838783B8018A899B8990
:103570000E94410981E0D801DA968C9366960FB6D5
:10358000F894DEBF0FBECDBFDF91CF911F910F9199
:10359000FF90EF90DF90CF90BF90AF909F908F9073
:1035A0007F906F905F904F903F902F9008952D8166
:1035B000207611F4887FE9CD203211F48C7FE5CD9F
:1035C000203409F0E2CD8E7FE0CD60E070E080EC49
:1035D0009FE7B7CE60E070E080EC9FE715CFD12C7D
:1035E000C12C412C580158E0A50EB11C480182E1C4
:1035F000880E911C96E0C916D10409F498C04C2D90
:10360000B501CE010A960E94F70ECE010A960E94DD
:10361000CC08382E882309F45EC0512C452DB50105
:10362000CE0101960E94F70EBE016F5F7F4FCE0163
:103630000A960E94DB08811106C05394A6E05A1234
:10364000EDCF55245A945C141D040CF444C01B8225
:103650001A821982BE016F5F7F4FF70182A593A581
:103660000E94DA0DBE016F5F7F4FCE010A960E9465
:10367000DB088823F1F1B401D7019A968D919C91D2
:103680000E94DA0DF8018289858B8389868B848973
:10369000878B6CE373E0C4010E94DB08882341F050
:1036A000D80150968C9150978F7D846050968C9362
:1036B000F801808985FF13C08F7D808BD701ED9144
:1036C000FC910680F781E02DB301C7010995F8014F
:1036D00080898062808BBFEFCB1ADB0A8BCFD7014A
:1036E000ED91FC910680F781E02DB301C7010995AA
:1036F000F2CFAE01465F5F4FB501CE0101960E9449
:10370000770F89819A810E942E0EF801908980FF9F
:103710000BC09061908BAE01465F5F4FB301C70154
:103720000E94B010432CD7CF9F7E908BF4CF4110D6
:10373000FDCEF70164817581CE0101960E947E0E57
:10374000AE014F5F5F4FEECEA5019401C501B401FC
:103750000E947C2A412C512C70EC672E7FE7772E3B
:1037600081116ECC20E030E040E251E4C501B401AB
:103770000E94BF290E94AB28F7017283618349CC64
:103780001F920F920FB60F9211242F933F934F93D6
:103790005F936F937F938F939F93AF93BF93EF93B9
:1037A000FF9386E992E00E94F901FF91EF91BF91AA
:1037B000AF919F918F917F916F915F914F913F91C9
:1037C0002F910F900FBE0F901F9018951F920F9280
:1037D0000FB60F9211242F938F939F93EF93FF9324
:1037E000E091A602F091A7028081E091AC02F091F5
:1037F000AD0282FD1BC090818091AF028F5F8F73FD
:103800002091B002821741F0E091AF02F0E0EA5659
:10381000FD4F958F8093AF02FF91EF919F918F9114
:103820002F910F900FBE0F901F9018958081F4CFAD
:103830001F920F920FB60F9211242F933F938F93E5
:103840009F93AF93BF938091040290910502A09142
:103850000602B09107023091030226E0230F2D37B4
:1038600058F50296A11DB11D209303028093040216
:1038700090930502A0930602B0930702809108027C
:1038800090910902A0910A02B0910B020196A11D2C
:10389000B11D8093080290930902A0930A02B0938D
:1038A0000B02BF91AF919F918F913F912F910F90FC
:1038B0000FBE0F901F90189529E8230F0396A11DA6
:1038C000B11DD2CF1F920F920FB60F9211242F93DA
:1038D0003F934F935F936F937F938F939F93AF9398
:1038E000BF93EF93FF93E0910201F09103010995DB
:1038F000FF91EF91BF91AF919F918F917F916F91C8
:103900005F914F913F912F910F900FBE0F901F909D
:1039100018951F920F920FB60F9211242F933F9379
:103920004F935F936F937F938F939F93AF93BF93C7
:10393000EF93FF93E0910001F09101010995FF9150
:10394000EF91BF91AF919F918F917F916F915F9117
:103950004F913F912F910F900FBE0F901F90189590
:103960001F920F920FB60F9211242F933F934F93F4
:103970005F936F937F938F939F93AF93BF93EF93D7
:10398000FF938091B900887F803609F44AC0F0F532
:10399000883209F4A7C018F5803109F49BC0B8F447
:1039A000882309F4F9C0883009F494C0FF91EF919D
:1039B000BF91AF919F918F917F916F915F914F9147
:1039C0003F912F910F900FBE0F901F901895883147
:1039D00009F488C0803251F780936E0214C080349D
:1039E00009F49DC040F48033B9F38833F9F680932D
:1039F0006E0285ECB0C0803509F485C0883509F4C5
:103A000096C0883499F60E945B0DD0CF883909F4AE
:103A10008CC038F5883729F050F4883611F080379B
:103A200029F683E0809390021092E00157C0883815
:103A300009F47BC0803919F0803809F0B7CF809144
:103A4000E001803208F071C0E091E00181E08E0F6A
:103A50008093E0018091BB00F0E0E054FE4F808352
:103A60003DC0803B39F0E0F4803A09F479C0883AEF
:103A700009F09CCF84E0809390021092BF011092D5
:103A8000BE01E0910E02F0910F0209958091BE01F6
:103A900081110FC081E08093BE0110929E0109C088
:103AA000803C09F4A6CF883C09F4A3CF883B09F0F9
:103AB0007DCFE091BF0181E08E0F8093BF01F0E0E8
:103AC000E256FE4F80818093BB009091BF018091B0
:103AD000BE0129C080916B028093BB0085EC80936E
:103AE000BC0064CF90916D0280916C02981758F5DC
:103AF000E0916D0281E08E0F80936D02F0E0E65B55
:103B0000FD4F8081E9CFE0916D0281E08E0F8093BF
:103B10006D028091BB00F0E0E65BFD4F80839091E9
:103B20006D0280916C029817C8F285E8D8CFE091B9
:103B30006D0281E08E0F80936D028091BB00F0E0FA
:103B4000E65BFD4F808380916F0281115CCF81E045
:103B500080936A0284EA8093BC001092900226CF80
:103B600085EC8093BC00109290028091E00180323D
:103B700030F4E091E001F0E0E054FE4F10826091FB
:103B8000E00170E0E0911002F091110280EC91E010
:103B900009951092E0010ACF10926E0234CF1F9265
:103BA0000F920FB60F9211248F930FB6F894A89529
:103BB00080916000886180936000109260000FBE69
:103BC0008F910F900FBE0F901F9018951F920F921C
:103BD0000FB60F9211242F933F934F935F936F93E0
:103BE0007F938F939F93AF93BF93CF93DF93EF9385
:103BF000FF93C3E3D3E060E089810E94DA02109270
:103C0000B1006A817B818C819D810E94B228609382
:103C1000B30081E08E83FF91EF91DF91CF91BF914F
:103C2000AF919F918F917F916F915F914F913F9154
:103C30002F910F900FBE0F901F9018951F920F920B
:103C40000FB60F9211240F900FBE0F901F90189572
:103C50001F920F920FB60F9211242F933F934F9301
:103C60005F936F937F938F939F93AF93BF93EF93E4
:103C7000FF93EFE3F3E084818F5F8483CF010E94A1
:103C8000A40BFF91EF91BF91AF919F918F917F9185
:103C90006F915F914F913F912F910F900FBE0F90B9
:103CA0001F9018951F920F920FB60F9211242F9309
:103CB0003F934F935F936F937F938F939F93AF93B4
:103CC000BF93EF93FF9384E493E00E94A40BFF91D2
:103CD000EF91BF91AF919F918F917F916F915F9184
:103CE0004F913F912F910F900FBE0F901F901895FD
:103CF0001F920F920FB60F9211242F933F934F9361
:103D00005F936F937F938F939F93AF93BF93CF9363
:103D1000EF93FF9399B1C0911602809146023091C2
:103D20004302292F209523238923822B20916D0084
:103D3000C927C223C82390931602CC23C1F1C0FF28
:103D400005C0E0911702F09118020995C1FF05C066
:103D5000E0911902F0911A020995C2FF05C0E091A5
:103D60001B02F0911C020995C3FF05C0E0911D02E2
:103D7000F0911E020995C4FF05C0E0911F02F09169
:103D800020020995C5FF05C0E0912102F0912202B1
:103D90000995C6FF05C0E0912302F0912402099520
:103DA000C7FF05C0E0912502F09126020995FF9119
:103DB000EF91CF91BF91AF919F918F917F916F9133
:103DC0005F914F913F912F910F900FBE0F901F90D9
:103DD00018951F920F920FB60F9211242F933F93B5
:103DE0004F935F936F937F938F939F93AF93BF9303
:103DF000CF93EF93FF9396B1C09127028091470232
:103E000030914402292F209523238923822B20914E
:103E10006C00C927C223C82390932702CC2351F1F9
:103E2000C0FF05C0E0912802F09129020995C1FF69
:103E300005C0E0912A02F0912B020995C2FF05C04E
:103E4000E0912C02F0912D020995C3FF05C0E0918D
:103E50002E02F0912F020995C4FF05C0E0913002B7
:103E6000F09131020995C5FF05C0E0913202F09151
:103E700033020995FF91EF91CF91BF91AF919F913F
:103E80008F917F916F915F914F913F912F910F9003
:103E90000FBE0F901F9018951F920F920FB60F92A2
:103EA00011242F933F934F935F936F937F938F933F
:103EB0009F93AF93BF93CF93EF93FF9393B1C09131
:103EC00036028091480230914502292F2095232304
:103ED0008923822B20916B00C927C223C82390938A
:103EE0003602CC2351F1C0FF05C0E0913702F091BA
:103EF00038020995C1FF05C0E0913902F0913A02FC
:103F00000995C2FF05C0E0913B02F0913C02099582
:103F1000C3FF05C0E0913D02F0913E020995C4FF48
:103F200005C0E0913F02F09140020995C5FF05C030
:103F3000E0914102F09142020995FF91EF91CF91FA
:103F4000BF91AF919F918F917F916F915F914F91B1
:103F50003F912F910F900FBE0F901F901895FF92D9
:103F60000F931F93CF93DF93E6E9F2E0138212825F
:103F700088EE93E0A0E0B0E084839583A683B783C6
:103F80002EE031E03183208325EC30E03587248733
:103F900024EC30E03787268720EC30E0318B208B13
:103FA00021EC30E0338B228B22EC30E0358B248BFC
:103FB00026EC30E0378B268B118E128E138E148EEA
:103FC00008E413E0F8011382128284839583A683A8
:103FD000B78380E291E09183808310923A03ECE30F
:103FE000F3E0128211821082E4E4F3E01182108285
:103FF00013821282EFE3F3E01182108213821282A5
:104000001482E5E1F4E0158214821782108611868D
:1040100086E891E093838283128A138A148A158A30
:10402000FF24F394F68AF682128E118E138E148E6C
:10403000158E168E178E10A212A211A213A214A210
:1040400015A216A28AE791E0908F878B88EC90E00A
:1040500090A787A314A613A616A617A610AA80E7F2
:1040600091E092A781A711AAF5A613AA17AA16AAEA
:1040700011AE12AE13AE86E691E095AB84AB14AEF2
:10408000F0AE88E085AF83E594E00E94BE08CDE6FF
:10409000D3E082E491E0998388831B821A828BE9C2
:1040A00093E09D838C831E82198618861F821A8650
:1040B00088E793E00E94BE0880E290E099A788A775
:1040C0002AE032E03BA72AA71CA6FDA69FA78EA741
:1040D0008FEF8AAB1CAA1BAA1DAA1FAA1EAA19AE83
:1040E00018AE8EE491E0998388831092B003109209
:1040F000AF03E1EBF3E080818E7F8D7F80831092B0
:10410000B2031092B4031092B3031DAE1CAE1EAEE8
:1041100080E797E1A0E08093AC039093AD03A09378
:10412000AE0388E391E09BAF8AAF85EB93E00E94FA
:10413000BE081092D3031092D2031092D5031092AE
:10414000D4031092D7031092D6031092D803109282
:10415000D9031092DA031092DB031092DC03109261
:10416000DE031092DD031092E0031092DF03F09261
:10417000E1031092E3031092E2031092E503109220
:10418000E40360E083E00E940803E9EFF1E0E491DA
:10419000E093E603E5EEF1E0E491F0E0EE0FFF1FBF
:1041A000E852FE4F859194919093E8038093E70342
:1041B0001092F1031092F3031092F2031092F003A5
:1041C0001092EF031092EE031092ED031092EC03A5
:1041D0001092EB031092EA031092E9031092F40399
:1041E0001092F6031092F50382E29CEF9093F8038D
:1041F0008093F703109201041092040410920604B5
:1042000010920504109208041092070410930A04F7
:10421000009309041092130480E090E0A0ECBFE743
:1042200080930B0490930C04A0930D04B0930E04A0
:1042300080930F0490931004A0931104B093120480
:1042400087EA93E099AB88AB8AE591E0998388830C
:10425000E4E5F3E01382128214821582168217823B
:10426000ACE5B3E08C91887F816088608C93118687
:1042700017861686108A118A128A138A82E391E0C1
:1042800095878487F58BE48B80E991E09183808327
:10429000D08FC78B8CE291E093878287DF91CF919B
:1042A0001F910F91FF900895CF93DF93CDB7DEB7A5
:1042B00068970FB6F894DEBF0FBECDBF789484B573
:1042C000826084BD84B5816084BD85B5826085BD12
:1042D00085B5816085BD80916E00816080936E00A0
:1042E0001092810080918100826080938100809192
:1042F0008100816080938100809180008160809343
:1043000080008091B10084608093B1008091B00002
:1043100081608093B00080917A00846080937A00FD
:1043200080917A00826080937A0080917A008E7FFB
:1043300080937A0080917A00806880937A0010924E
:10434000C10080919B0390919C039C012A5E3F4F8A
:104350003E872D87F12C24EF422E55245394612C57
:1043600010919A03F11608F07AC1EF2DF0E0EE0FEC
:10437000FF1FE356FC4F00811181F394EDE6F3E05B
:10438000D8011996FC93EE9318971B96FC921B97F5
:104390002D853E851D963C932E931C9718013DE478
:1043A000230E311C58018FE3A80EB11C712CA45BA5
:1043B000BF4FB88BAF87F801E65BFF4FFA8BE98BF5
:1043C0009801255B3F4F388F2F8BC8018E5B9F4F25
:1043D0009E8B8D8BAF85B8898C9181112DC0C501C5
:1043E0000E949A0C882341F160EFC5010E94BC062F
:1043F000CC24C394812CE12CDD24D394C5010E94EC
:104400006906982EC5010E946906B1E09B12AAC0F8
:10441000813009F0CCC0E0E4ED1570F4A989BA89C7
:10442000EC92E11004C021E0EF85F8892083AD898A
:10443000BE898C918111D4C0F801E65BFF4F1082D8
:10444000EF85F8891082F801E55BFF4F1082329703
:1044500010823197108231971082319710823197F4
:10446000108231971082319710823197108278969E
:1044700070820E94C3038AE0782E4801FDE58F0E0A
:10448000911C540125E0A20EB11C680132E6C30E56
:10449000D11C109215021092140210921302109265
:1044A00012020E94C303E7E6F1E0F0930F02E093EB
:1044B0000E0228E631E03093110220931002E4E46A
:1044C000D6011A96EC9362EA70E3C5010E94D1040A
:1044D0006AE070E080E090E00E9469036DE273EFB3
:1044E000C5010E94D10463E0D6011A968C910E9406
:1044F00002041092150280931402F60180819181CA
:10450000DC01ED91FC910284F385E02D09958C8B03
:104510001B8AF60180819181DC01ED91FC9102847E
:10452000F385E02D0995EB89FC898E2B9F2B019655
:1045300009F48BC0E1E0D401EC9366E670E3C501B9
:104540000E94D104D80115964D925D926C92B801EB
:1045500084E493E00E944109ED85FE857F96FE8705
:10456000ED87FECEE82DF0E0981215C0A989BA8932
:104570008C91D816D0F4D801AE0FBF1FAE5BBF4FE1
:104580008C918C21A1F4912CB8E0BD1518F0AF8965
:10459000B88DDC92ED2CE00FF11FEE5BFF4F8081B8
:1045A0009C2D9095892380830CC08D11ECCFF80150
:1045B000E80DF11DEE5BFF4F80818C2980839924EB
:1045C0009394692DC5010E948D06D394CC0C19F4E7
:1045D0008394CC24C394B7E0B81508F00FCF1BCF59
:1045E000ED89FE89CE0101966C01DC0181918D93EC
:1045F00029893A892E173F07C9F771101DCF67E047
:10460000C6010E94520698858913E4CE89818031C3
:1046100029F0823219F0883209F0DCCED1011296ED
:10462000BC92AE921197E1E0EC93F10135962DE04A
:10463000220E311CD6012D916D012193E215F30557
:10464000C9F71F0177247394C5CE64E670E080E05B
:1046500090E00E9469037A9471101BCF73CF60E0E1
:1046600090E080E00E94AC087C0106E6C02E01E0EC
:10467000D02EF6016491C7010E94AC087C01FFEFC7
:10468000CF1ADF0A2CE7C21621E0D20691F701E02B
:104690001017E8F080E00E941408682FC7010E94FC
:1046A000AC087C0180E00E946901682FC7010E946C
:1046B000AC087C0180E00E940808682FC7010E94B6
:1046C000AC0866E00E94AC087C010F5FE1CF44E0DB
:1046D00050E070E060E0CE0109960E94A427C70177
:1046E000B0E0A0E0AE6FBA6C89839A83AB83BC83E1
:1046F00049855A856B857C8584179507A607B7077A
:1047000009F47DC03FEF81EE94E03150804090404D
:10471000E1F700C0000044E050E070E060E0CE014E
:1047200001960E94B42766E170E080919B0390910E
:104730009C030E940B0D85E00E947C088F3FC9F00E
:10474000082F10E080919B0390919C03800F911F94
:104750000E942E0E60919B0370919C03600F711F4D
:104760008F738064898341E050E0CE0101960E94FE
:10477000B42768E182E10E94CD0C66E084E10E94EA
:10478000CD0C62E080E20E94CD0C882321F068E528
:1047900081E20E94CD0C60E082E20E94CD0C882371
:1047A00021F060E083E20E94CD0C84E20E94ED0CD7
:1047B00088E20E94ED0C8CE20E94ED0C10E08091EA
:1047C0009A031817E0F4E12FF0E0EE0FFF1FE35615
:1047D000FC4FE080F1806FE170E0D7011C968D9175
:1047E0009C910E940B0DF70164857585198241E04B
:1047F00050E0CE0101960E94B4271F5FE0CF85E113
:1048000094E09093700380936F031B821A82198245
:10481000BE016F5F7F4F80919703909198030E9434
:10482000DA0D84E08093290461E00E94080387E1A7
:1048300094E00E941A08E8988AE791E090930101B9
:104840008093000187E494E090930D0280930C0222
:1048500060E082E00E94080361E08AE00E940803B1
:1048600061E08BE00E94080360E08CE00E94080396
:1048700061E08DE00E94080380E58CBD61E08AE084
:104880000E94DA0261E08DE00E94DA0260E08BE0D3
:104890000E94DA020E9449070E9443070E943F07D4
:1048A000F5E8FA95F1F700000E9449070E944307D6
:1048B00080E30E9439070E9443070E943F0702E3FA
:1048C00011E0A6E6CA2EA1E0DA2EFF24F394F80147
:1048D00031966491F801849143E00E942E0D81117C
:1048E00001C0F12C0E5F1F4FC016D10681F783E384
:1048F0000E9463078FEA93EB0197F1F700C0000075
:1049000043E060EC8EE30E942E0DFF2059F00E94E0
:1049100049070E9443070E943F070E94720784E3F1
:104920000E94630780E498E0909301018093000166
:10493000809169008C7F826080936900E89A80E1B1
:104940008093810010928000109285001092840064
:1049500080E49CE9909387008093860081E18093B6
:1049600081000E94B60766E070E0F11002C068E0C6
:1049700070E087E194E00E94A80D8B8190E00196A1
:104980002AE0289F8001299F100D112489E494E0DA
:104990000E945B0A24E630E0D8010E94DB2B28EE5F
:1049A00033E040E050E00E94AA2B20934E04309365
:1049B0004F044093500481E08093510469E474E013
:1049C00084E493E00E94410961E089E00E940803C9
:1049D00060E089E00E94DA0260E08EE00E94080355
:1049E00060E08EE00E94DA0280913C0490913D04E8
:1049F000813D974030F080ED97E090933D048093A7
:104A00003C0487E880937A0010927B00E0912C04AC
:104A1000F0912D040680F781E02D8CE294E0099559
:104A2000909337048093360480E09BEEA1E4B0E0DD
:104A30008093380490933904A0933A04B0933B04D4
:104A40008093310490933204A09333046CE274E0B9
:104A500084E493E00E94410988E18093340486E174
:104A60008093350480919503FCEFEF2EE80E85507E
:104A700090E004960E942E0ED82E00E01EE5EE2D4A
:104A8000E150FF0B7F01802F90E08E159F0534F4DD
:104A900004960E942E0E18270F5FF5CF1D111DC022
:104AA00084E090E00E942E0E182F85E090E00E9496
:104AB0002E0E082F80EA810F8B3078F443E061E2FC
:104AC0008DE00E942E0D43E0612F8EE00E942E0D9E
:104AD00043E0602F8FE00E942E0D88E080935D03FD
:104AE00062E00E940803EEEFF1E08491EAEEF1E06B
:104AF0009491923009F0D7C020914802282B20933E
:104B0000480220914502282B20934502E4E8F1E079
:104B1000A491923009F0D5C0B0E0AA0FBB1FA95CE8
:104B2000BD4F2CE23BE02D933C93ECEDF1E0A591E1
:104B3000B4919C91909336022BE630E0309335028D
:104B40002093340290916800916090936800A09146
:104B50003402B0913502EC918E2B8C9381E08093DE
:104B6000990390919A03981708F0E4C016E00EE0BC
:104B700040E1B42E52E2A52EE12C0E948B0BF82EC0
:104B80008111DAC0E11004C00E948B0B8111D6C0E4
:104B900080916F0390917003DC01DD962C9122FFD0
:104BA00023C068E773E0C2960E9412108A30E0F0DA
:104BB0001B821A821982BE016F5F7F4F809197031B
:104BC000909198030E94DA0DBE016F5F7F4F8CE7D2
:104BD00093E00E94DB08811107C068E773E08DE66F
:104BE00093E00E945513F82E8824839480919A03B1
:104BF000881508F4A5C0C0909D03D0909E03F601CF
:104C0000828580FB772470F880FF4BC0E0916F03B2
:104C1000F0917003F688168ACF0102960E941A0856
:104C200090907303939490927303609171037091C9
:104C30007203CE0101960E947E0EE0916F03F09107
:104C4000700383A9D6011B969C9100937803B092C0
:104C50007B03A0927A03109382039092790390933E
:104C60008303109284031092850380938603AE0120
:104C70004F5F5F4F68E773E08DE693E00E94B010EE
:104C8000F60182858E7F828780916F0390917003F9
:104C9000DC015696FC92F11004C002960E941A089C
:104CA000F72C8394A3CF933009F033C120914702AE
:104CB000282B2093470220914402282B2093440262
:104CC00025CF9330D1F4B0E0AA0FBB1FA85DBD4F34
:104CD0002CE23BE02D933C93EEEDF1E0A591B491F5
:104CE0009C91909327022CE630E03093350220937C
:104CF000340290916800926028CF943009F027CF59
:104D0000B0E0AA0FBB1FA95EBD4F2CE23BE02D9384
:104D10003C93E0EEF1E0A591B4919C919093160242
:104D20002DE630E0309335022093340290916800F4
:104D300094600BCF8F5F17CFEF2C1FCFE82E24CFBF
:104D4000E110B0C0F110AEC08091360490913704EC
:104D500064E670E00E94962B809135048617170652
:104D6000B9F0B0F08091520480FD07C00E94930D0D
:104D70008091520481608093520430E020E050E042
:104D800040E06AE070E089E492E00E94EB06F5CF33
:104D9000809146048111B7C080916F008E7F80930F
:104DA0006F0084E493E00E941C09009709F487C017
:104DB000FC01329709F483C0C580D680E780F12CCE
:104DC00086E493E00E941C09892B09F069C0B1E0D8
:104DD000CB16D104E104F10409F462C080915204BD
:104DE00080FD07C00E94930D8091520481608093E2
:104DF0005204E1E2CE16E3E0DE06E104F10408F03D
:104E000062C0F5E6CF16D104E104F10408F064C0F5
:104E10002DE0C216D104E104F10408F065C032E0CF
:104E2000C316D104E104F10408F066C06AE070E042
:104E3000C12CD12C760130E020E050E040E089E444
:104E400092E00E94EB0684E493E00E941C09009724
:104E500019F1FC01329701F181E0C81AD108E1088B
:104E6000F10885819681A781AC016A2F70E04150DD
:104E70005109610971094C155D056E057F0530F416
:104E80006C01EA2EB1E0CB1AD108E1088C199D091A
:104E9000AE0985839683A78384E493E00E94A40BE4
:104EA0000E94B60780E090E0892B09F465CE0E944D
:104EB000E501882309F460CE0E9400005DCEC12C7C
:104EC000D12C76017DCF69E070E030E2C32E33E073
:104ED000D32EE12CF12CAFCF66E070E024E6C22E99
:104EE000D12CE12CF12CA7CF63E070E09CE0C92E1F
:104EF000D12CE12CF12C9FCF70E060E0C12CD12CA3
:104F00007601C39498CF61E087E494E00E9423087F
:104F1000C9CF943009F0FACD20914602282B209376
:104F2000460220914302282B20934302EFCD8DE6C9
:104F300093E00C947408FB01DC0102C005900D9213
:104F400041505040D8F70895DC01CB01FC01F9999C
:104F5000FECF06C0F2BDE1BDF89A319600B40D92C5
:104F600041505040B8F70895DC01CB0103C02D91AA
:104F70000E94BF2741505040D0F70895262FF9993D
:104F8000FECF1FBA92BD81BD20BD0FB6F894FA9A2C
:104F9000F99A0FBE019608955058BB27AA270E9480
:104FA000E4270C9435290E94272938F00E942E29E5
:104FB00020F039F49F3F19F426F40C9424290EF4C0
:104FC000E095E7FB0C941E29E92F0E94462958F32F
:104FD000BA17620773078407950720F079F4A6F5DE
:104FE0000C9468290EF4E0950B2EBA2FA02D0B011E
:104FF000B90190010C01CA01A0011124FF27591B1E
:1050000099F0593F50F4503E68F11A16F040A22F23
:10501000232F342F4427585FF3CF46953795279594
:10502000A795F0405395C9F77EF41F16BA0B620B93
:10503000730B840BBAF09150A1F0FF0FBB1F661FDA
:10504000771F881FC2F70EC0BA0F621F731F841F1D
:1050500048F4879577956795B795F7959E3F08F043
:10506000B0CF9395880F08F09927EE0F9795879505
:1050700008950E944D280C9435290E942E2958F03D
:105080000E94272940F029F45F3F29F00C941E2943
:1050900051110C9469290C9424290E94462968F323
:1050A0009923B1F3552391F3951B550BBB27AA27E1
:1050B00062177307840738F09F5F5F4F220F331F1B
:1050C000441FAA1FA9F335D00E2E3AF0E0E832D0E3
:1050D00091505040E695001CCAF72BD0FE2F29D0E6
:1050E000660F771F881FBB1F261737074807AB07B8
:1050F000B0E809F0BB0B802DBF01FF2793585F4F2D
:105100003AF09E3F510578F00C941E290C946929C1
:105110005F3FE4F3983ED4F3869577956795B7950E
:10512000F7959F5FC9F7880F911D9695879597F919
:105130000895E1E0660F771F881FBB1F6217730792
:105140008407BA0720F0621B730B840BBA0BEE1FA7
:1051500088F7E09508950E94B2286894B1110C94E4
:10516000692908950E944E2988F09F5798F0B92F19
:105170009927B751B0F0E1F0660F771F881F991F8C
:105180001AF0BA95C9F714C0B13091F00E9468299D
:10519000B1E008950C946829672F782F8827B85FAD
:1051A00039F0B93FCCF3869577956795B395D9F7E4
:1051B0003EF490958095709561957F4F8F4F9F4FEE
:1051C0000895E89409C097FB3EF4909580957095FA
:1051D00061957F4F8F4F9F4F9923A9F0F92F96E943
:1051E000BB279395F695879577956795B795F111B8
:1051F000F8CFFAF4BB0F11F460FF1BC06F5F7F4F55
:105200008F4F9F4F16C0882311F096E911C0772366
:1052100021F09EE8872F762F05C0662371F096E86F
:10522000862F70E060E02AF09A95660F771F881F3E
:10523000DAF7880F9695879597F9089597F99F67FC
:1052400080E870E060E008959FEF80EC089500240E
:105250000A941616170618060906089500240A94DB
:1052600012161306140605060895092E0394000C61
:1052700011F4882352F0BB0F40F4BF2B11F460FFF0
:1052800004C06F5F7F4F8F4F9F4F089557FD905819
:10529000440F551F59F05F3F71F04795880F97FBFA
:1052A000991F61F09F3F79F08795089512161306B4
:1052B0001406551FF2CF4695F1DF08C016161706E3
:1052C0001806991FF1CF8695710561050894089518
:1052D000E894BB2766277727CB0197F9089516F046
:1052E0000C94DF2A0C94242968940C941E290E94A3
:1052F0004E29A8F39923C1F3AEF3DF93CF931F9305
:105300000F93FF92C92FDD2788232AF02197660F7C
:10531000771F881FDAF720E030E040E85FEB9FE37B
:10532000883920F0803E38F021968F770E94CD2773
:10533000E8E6F0E004C00E94CD27E5E9F0E00E9435
:10534000ED2A8B01BE01EC01FB2E6F57710975959B
:10535000771F880B990B0E94E32828E132E741E38D
:105360005FE30E94D229AF2D9801AE01FF900F910B
:105370001F91CF91DF910E94E4270C9435290E9460
:10538000D2290C9435290E94272938F00E942E2911
:1053900020F0952311F00C941E290C94242911243B
:1053A0000C9469290E94462970F3959FC1F3950FCB
:1053B00050E0551F629FF001729FBB27F00DB11D99
:1053C000639FAA27F00DB11DAA1F649F6627B00D29
:1053D000A11D661F829F2227B00DA11D621F739F12
:1053E000B00DA11D621F839FA00D611D221F749F20
:1053F0003327A00D611D231F849F600D211D822F67
:10540000762F6A2F11249F5750409AF0F1F088238D
:105410004AF0EE0FFF1FBB1F661F771F881F9150BA
:105420005040A9F79E3F510580F00C941E290C9422
:1054300069295F3FE4F3983ED4F3869577956795A5
:10544000B795F795E7959F5FC1F7FE2B880F911DE4
:105450009695879597F90895FA01EE0FFF1F3096FC
:1054600021053105A1F16115710561F48038BFE3B3
:105470009B0749F168949038810561F08038BFEF4F
:105480009B0741F099234AF5FF3FE10531052105CE
:1054900019F1E8940894E795D901AA2329F4AB2FD0
:1054A000BE2FF85FD0F310C0FF5F70F4A695E0F751
:1054B000F73950F019F0FF3A38F49F779F930DD0E9
:1054C0000F9007FC9058089546F00C94242960E052
:1054D00070E080E89FE308954FE79F775F934F93D5
:1054E0003F932F930E9477292F913F914F915F9186
:1054F0000E94BF290C94892A0E94BB2A880B990B11
:10550000089529F416F00C941E290C9468290C9423
:1055100024290E944E29A8F39638A0F707F80F9285
:10552000E8942BE33AEA48EB5FE70E94D5290F9213
:105530000F920F924DB75EB70F920E94562BE2EC7E
:10554000F0E00E94ED2A4F915F91EF91FF91E59578
:10555000EE1FFF1F49F0FE57E0684427EE0F441F7F
:10556000FA95E1F74195550B0E94202B0F9007FE0D
:105570000C94142B0895990F0008550FAA0BE0E81E
:10558000FEEF16161706E807F907C0F01216130605
:10559000E407F50798F0621B730B840B950B39F445
:1055A0000A2661F0232B242B252B21F408950A26AB
:1055B00009F4A140A6958FEF811D811D08959F3F9D
:1055C00031F0915020F4879577956795B795880FBE
:1055D000911D9695879597F90895DF93CF931F9323
:1055E0000F93FF92EF92DF927B018C01689406C0CB
:1055F000DA2EEF010E94D229FE01E894A5912591AF
:10560000359145915591A6F3EF010E94E427FE01E3
:105610009701A801DA9469F7DF90EF90FF900F915E
:105620001F91CF91DF9108959B01AC0160E070E084
:1056300080E89FE30C9439280C941E290C94DF2AEF
:105640000E944E29D8F39923C9F3940F511DA3F357
:105650009150504094F059F0882332F0660F771F34
:10566000881F91505040C1F79E3F51052CF7880F7D
:10567000911D9695879597F908955F3FACF0983EF8
:105680009CF0BB27869577956795B79508F4B16030
:105690009395C1F7BB0F58F711F460FFE8CF6F5F28
:1056A0007F4F8F4F9F4FE3CF0C946929FA01DC01A4
:1056B000AA0FBB1F9B01AC01BF5728F42227332739
:1056C0004427507820C0B75190F4AB2F0024469562
:1056D00037952795011CA395D2F3002071F0220F76
:1056E000331F441FB395DAF30ED00C94CC276130EE
:1056F0007105A0E88A07B94630F49B01AC01662722
:10570000772788279078309621F020833183428351
:1057100053830895991B79E004C0991F961708F0E8
:10572000961B881F7A95C9F780950895AA1BBB1B05
:1057300051E107C0AA1FBB1FA617B70710F0A61B91
:10574000B70B881F991F5A95A9F780959095BC01B2
:10575000CD010895A1E21A2EAA1BBB1BFD010DC0AD
:10576000AA1FBB1FEE1FFF1FA217B307E407F50711
:1057700020F0A21BB30BE40BF50B661F771F881FED
:10578000991F1A9469F760957095809590959B0183
:10579000AC01BD01CF010895A29FB001B39FC0012C
:1057A000A39F700D811D1124911DB29F700D811D4D
:1057B0001124911D08950E94CC2BB7FF0895821BE0
:1057C000930B0895EE0FFF1F0590F491E02D0994BF
:1057D0000F931F93CF93DF938230910510F482E0F3
:1057E00090E0E0917304F091740430E020E0B0E0C8
:1057F000A0E0309799F42115310509F44AC0281B1F
:10580000390B24303105D8F58A819B8161157105EA
:1058100089F1FB0193838283FE0111C04081518194
:105820000281138148175907E0F04817590799F486
:10583000109761F012960C93129713961C93329660
:10584000CF01DF91CF911F910F91089500937304C1
:1058500010937404F4CF2115310551F0421753070A
:1058600038F0A901DB019A01BD01DF01F801C1CFC8
:10587000EF01F9CF9093740480937304CDCFFE01B0
:10588000E20FF31F819391932250310939832883CA
:10589000D7CF2091710430917204232B41F42091D1
:1058A0000601309107013093720420937104209116
:1058B0000401309105012115310541F42DB73EB7A2
:1058C0004091080150910901241B350BE0917104AE
:1058D000F0917204E217F307A0F42E1B3F0B281778
:1058E000390778F0AC014E5F5F4F2417350748F059
:1058F0004E0F5F1F509372044093710481939193F4
:105900009FCFF0E0E0E09CCFCF93DF930097E9F0EA
:10591000FC01329713821282A0917304B091740437
:10592000ED0130E020E01097A1F420813181820F59
:10593000931F20917104309172042817390709F0E0
:1059400061C0F0937204E0937104DF91CF910895E8
:10595000EA01CE17DF07E8F54A815B819E01411518
:105960005105B1F7E901FB83EA8349915991C40FCD
:10597000D51FEC17FD0761F4808191810296840F99
:10598000951FE90199838883828193819B838A8310
:10599000F0E0E0E012968D919C9113970097B9F595
:1059A0002D913C911197CD010296820F931F20916A
:1059B0007104309172042817390739F6309751F580
:1059C0001092740410927304B0937204A093710443
:1059D000BCCFD383C28340815181840F951FC817E8
:1059E000D90761F44E5F5F4F88819981480F591F35
:1059F000518340838A819B81938382832115310562
:105A000009F0B0CFF0937404E09373049ECFFD01CE
:105A1000DC01C0CF13821282D7CFFB01DC0104C0AE
:105A20008D910190801921F441505040C8F7881B96
:105A3000990B0895FB01DC0102C001900D924150C9
:105A40005040D8F7089511E0C0E1D1E004C0FE0154
:105A50000E94E22B2196C131D107C9F7F894FFCFFC
:105A60007A017A01000075048000000000001B022A
:105A70007B01A8016802D901B701CB010000000039
:105A80002006F3054F06C905EC05D905CA05000037
:105A90000000D50A00000000A3177B089D17000036
:105AA00000003F087B1766014D08000000004F080A
:105AB00083176601551300000000740893176601F0
:105AC000551300000000F60771088D170000000054
:105AD000F6077108A117000000001A0A72088F1754
