:100000000C9407010C945E220C9437220C94212549
:100010000C94BE240C944D240C94A4230C94BB2368
:100020000C942F010C94FD230C942F010C942F01A0
:100030000C942F010C9427240C942F010C942F0165
:100040000C94ED210C942F010C94BB210C94952160
:100050000C942F010C94F3230C942F010C942F017A
:100060000C9485220C942F0107634236B79BD8A7C6
:100070001A39685618AEBAAB558C1D3CB7CC5763CD
:10008000BD6DEDFD753EF6177231BF000000803F7B
:1000900008000000BE922449123EABAAAA2ABECD97
:1000A000CCCC4C3E00000080BEABAAAAAA3E000009
:1000B0000000BF000000803F000000000008417801
:1000C000D3BB4387D1133D190E3CC3BD4282AD2B38
:1000D0003E68EC8276BED98FE1A93E4C80EFFFBE30
:1000E00001C4FF7F3F0000000000005EBCE2613FF2
:1000F000DD83C29C7E20A3FD1F41009D23BE46DB05
:1001000065F88C11AF32CA57E97400000000240072
:1001100027002A0000000000250028002B00000016
:1001200000080002010000030407000000000000B6
:100130000000002E0206030D04E905CA070C0B0699
:100140000D210E650F6A10C81193120315341703A1
:10015000181819161B431E2F1F65207823E9242A1F
:10016000251F26113E030A0B0C0512142021222301
:1001700000000000230026002900000102030405FE
:10018000060700010203040500010203040504043C
:10019000040404040404020202020202030303032F
:1001A000030301020408102040800102040810200B
:1001B00001020408102000000000000000000214EA
:1001C00005050000000002010A0100000000000017
:1001D0000000000000000000000000000000060316
:1001E00005010101010A060101010501050A0206D6
:1001F000020200000000A5A510554E4953454E537C
:1002000030313000F1031370010184254A2E11248E
:100210001FBECFEFD8E0DEBFCDBF11E0A0E0B1E060
:10022000E0ECFCE602C005900D92AC3AB107D9F7BC
:1002300024E0ACEAB1E001C01D92AF3EB207E1F7A5
:1002400011E0C6E0D1E004C02197FE010E940D3507
:10025000C530D107C9F70E9464270C9453360C941B
:100260000000089508958FEF0895663050F4FC0162
:10027000808191810196F6E06F9F800D911D112480
:10028000089590E080E008950895AF92BF92CF92D4
:10029000DF92EF92FF920F931F93CF93DF936C0146
:1002A0007B018B01040F151FEB015E01AE18BF0827
:1002B000C017D10759F06991D601ED91FC910190D9
:1002C000F081E02DC6010995892B79F7C501DF91F1
:1002D000CF911F910F91FF90EF90DF90CF90BF9043
:1002E000AF900895FC01538D448D252F30E0842F6D
:1002F00090E0821B930B541710F0CF96089501974E
:100300000895FC01918D828D981761F0A28DAE0F3A
:10031000BF2FB11D5D968C91928D9F5F9F73928FC1
:1003200090E008958FEF9FEF0895FC01918D828DED
:10033000981731F0828DE80FF11D858D90E00895BA
:100340008FEF9FEF0895FC01918D228D892F90E012
:10035000805C9F4F821B91098F739927089585EACE
:1003600092E00E94A30121E0892B09F420E0822F72
:10037000089580E090E0892B29F00E94AF0181115F
:100380000C9400000895FC01A48DA80FB92FB11D95
:10039000A35ABF4F2C91848D90E001968F739927BB
:1003A000848FA689B7892C93A089B1898C91837099
:1003B00080648C93938D848D981306C00288F38992
:1003C000E02D80818F7D80830895EF92FF920F93BF
:1003D0001F93CF93DF93EC0181E0888F9B8D8C8DF1
:1003E00098131AC0E889F989808185FF15C09FB7E5
:1003F000F894EE89FF896083E889F98980818370A8
:10040000806480839FBF81E090E0DF91CF911F9156
:100410000F91FF90EF900895F62E0B8D10E00F5F77
:100420001F4F0F731127E02E8C8D8E110CC00FB64D
:1004300007FCFACFE889F989808185FFF5CFCE01E5
:100440000E94C301F1CFEB8DEC0FFD2FF11DE35A9C
:10045000FF4FF0829FB7F8940B8FEA89FB89808168
:100460008062CFCFCF93DF93EC01888D8823B9F0E2
:10047000AA89BB89E889F9898C9185FD03C08081AF
:1004800086FD0DC00FB607FCF7CF8C9185FFF2CF2C
:10049000808185FFEDCFCE010E94C301E9CFDF91BE
:1004A000CF910895833081F028F4813099F0823023
:1004B000A9F008958730A9F08830C9F08430B1F4EC
:1004C000809180008F7D03C0809180008F77809322
:1004D0008000089584B58F7784BD089584B58F7D9D
:1004E000FBCF8091B0008F778093B000089580910A
:1004F000B0008F7DF9CFCF93DF93282F30E0F90143
:10050000E25EFE4F8491F901EE55FE4FD491F90160
:10051000E257FE4FC491CC23A1F081110E945202F8
:10052000EC2FF0E0EE0FFF1FE059FE4FA591B491C4
:10053000EC91ED2381E090E009F480E0DF91CF9130
:10054000089580E090E0FACF1F93CF93DF93282F98
:1005500030E0F901E25EFE4F8491F901EE55FE4F65
:10056000D491F901E257FE4FC491CC23A9F0162F84
:1005700081110E945202EC2FF0E0EE0FFF1FEC5EA3
:10058000FE4FA591B4918FB7F894EC91111108C06A
:10059000D095DE23DC938FBFDF91CF911F9108951B
:1005A000DE2BF8CFCF93DF9390E0FC01EE55FE4FAA
:1005B000249182579E4FFC0184918823C9F090E0DA
:1005C000880F991FFC01E65FFE4FA591B491FC01D5
:1005D000EC5EFE4FC591D49161110DC09FB7F894A8
:1005E0008C91209582238C938881282328839FBF18
:1005F000DF91CF910895623051F49FB7F8943C9108
:10060000822F809583238C93E8812E2BEFCF8FB799
:10061000F894EC912E2B2C938FBFEACF3FB7F89430
:100620008091F5019091F601A091F701B091F80148
:1006300026B5A89B05C02F3F19F00196A11DB11D3D
:100640003FBFBA2FA92F982F8827BC01CD01620F79
:10065000711D811D911D43E0660F771F881F991F33
:100660004A95D1F708958F929F92AF92BF92CF9201
:10067000DF92EF92FF926B017C010E940E034B010F
:100680005C01C114D104E104F104B9F00E940E032D
:10069000681979098A099B09683E734081059105AB
:1006A00080F321E0C21AD108E108F10888EE880E33
:1006B00083E0981EA11CB11CE4CFFF90EF90DF9067
:1006C000CF90BF90AF909F908F9008958091FF0141
:1006D00090910002891B990B0895C3960895029684
:1006E00008950F931F93CF93DF93EC010A81802F1E
:1006F0008295880F807E0E81000F000F082B888561
:10070000082B1A85812F8295880F807E1C85110FFA
:10071000110F182B8E85182BE881F9810680F7813F
:10072000E02D4C8162EFCE010995E881F9810680C8
:10073000F781E02D402F64EFCE010995E881F98122
:100740000680F781E02D412F65EFCE01DF91CF913B
:100750001F910F9109942F923F924F925F926F9247
:100760007F928F929F92AF92BF92CF92DF92EF9241
:10077000FF920F931F93CF93DF93CDB7DEB7C5568C
:10078000D1090FB6F894DEBF0FBECDBF1C0129966C
:100790007FAF6EAF29978A012B963FAF2EAF2B9775
:1007A000DC0118968D919C91019719F4C1010E946A
:1007B0007103D101ED91FC910084F185E02D28E0D9
:1007C000AE014F5D5F4F67EFC1010995FE01B19624
:1007D000DE0111969E01275D3F4F419150E070E090
:1007E00060E04D935D936D937D93E217F307A9F756
:1007F000811133C080E090E0A0ECBFE72B96EEAD16
:10080000FFAD2B9780839183A283B383F80180830C
:100810009183A283B3832996EEADFFAD29978083A0
:100820009183A283B383CB59DF4F0FB6F894DEBF19
:100830000FBECDBFDF91CF911F910F91FF90EF9031
:10084000DF90CF90BF90AF909F908F907F906F90F0
:100850005F904F903F902F90089589809A80AB8051
:10086000BC8064968CAE9DAEAEAEBFAE64978D80FC
:100870009E80AF80B88468968CAE9DAEAEAEBFAEA3
:10088000689789849A84AB84BC846C968CAE9DAE48
:10089000AEAEBFAE6C972D853E854F855889ACE0D6
:1008A000220F331F441F551FAA95D1F789899A89B2
:1008B000AB89BC8964E0880F991FAA1FBB1F6A958A
:1008C000D1F7282B392B4A2B5B2B8D899E89AF8939
:1008D000B88D74E0B595A795979587957A95D1F7DA
:1008E000282B392B4A2B5B2B898D9A8DAB8DBC8D98
:1008F000BA2FA92F982F8827CD8CDE8CEF8CF8A0EB
:100900004C015D018C289D28AE28BF28A0968CAE96
:100910009DAEAEAEBFAEA097D10150968D919C9189
:10092000B0E0A0E069017A01F4E0F594E794D7948F
:10093000C794FA95D1F7C81AD90AEA0AFB0A63E004
:1009400055954795379527956A95D1F7880F991F43
:10095000AA1FBB1F281B390B4A0B5B0BF101A28995
:10096000B3890E94052F4B015C01ABE0B594A794BD
:1009700097948794AA95D1F7A7019601C701B6016C
:100980000E9446339B01AC01BCE0559547953795D5
:100990002795BA95D1F7A489B5890E94052F2EE035
:1009A00095958795779567952A95D1F77501640197
:1009B000C60ED71EE81EF91EC9AEDAAEEBAEFCAE0F
:1009C000A5E0B0E0A70196010E94FA2E60587F4F83
:1009D0008F4F9F4F672F782F892F992787FD9A95E3
:1009E0000E94553020E030E048EC52E40E94AB2FEA
:1009F000D8016D937D938D939C931397F101F48DA2
:100A0000A596FFAFA597D1015D96BC912E96BFAF7D
:100A10002E97F101F68DA296FFAFA297D1015F96B6
:100A2000BC91BDAFF101F0A1A196FFAFA197D1019B
:100A30009196BC91BEABF101F2A1A496FFAFA49731
:100A4000D1019396BC912D96BFAF2D97F101F4A1E2
:100A5000A396FFAFA397D1019596BC912C96BFAFFB
:100A60002C97F101F6A1A696FFAFA697D101979614
:100A7000BC912F96BFAF2F97FF0CCC08DC2C7601D2
:100A800029AD3AAD4BAD5CAD6C2D7C2D8C2D9C2DE4
:100A9000345F4140510961097109810991092BAB0A
:100AA0003CAB4DAB552E3B014C015901C42ED52E0C
:100AB0007B018C010E948A3321962FAF21972296C9
:100AC0003FAF229723964FAF239724965FAF24978B
:100AD00025966FAF259726967FAF269727968FAFDF
:100AE000279760969FAF6097F101318D208D932FEE
:100AF000990F990B492F592F692F792F892F0E9410
:100B00008A330CE00E94B93429A73FAB442E58AF7A
:100B100069AB7AAB8EAF9FAFD1015B963C915B978F
:100B20005A962C91932F990F990B2196AFAC219740
:100B30002296BFAC22972396CFAC23972496DFACA6
:100B400024972596EFAC25972696FFAC26972796F7
:100B50000FAD279760961FAD6097492F592F692FCA
:100B6000792F892F0E948A3308E00E94D234A9A4E9
:100B7000BFA8C42CD8ACE9A8FAA80EAD1FAD0E943E
:100B8000EF3470588F4F9F4FD1015696ED91FC91E5
:100B90005F01D12CC12CE12CF12C8701E9A7BAA669
:100BA000CBA6DCA6EDA6FEA60FA718ABC12CD12CB8
:100BB000E12CF12C00E010E00E948A3301E20E9457
:100BC000D23429A73FAB48AF59AB6AAB7EAF8FAFEA
:100BD000492EA0E00E94013509F463C2A1962FAD11
:100BE000A1979EA9990F990B2196AFAC21972296B8
:100BF000BFAC22972396CFAC23972496DFAC2497E3
:100C00002596EFAC25972696FFAC269727960FAD35
:100C1000279760961FAD60973EA9492F592F692FDE
:100C2000792F892F0E948A332EAB21963FAF2197CF
:100C300022964FAF229723965FAF239724966FAFEC
:100C4000249725967FAF259726968FAF26972796D0
:100C50009FAF2797A2962FADA2979DAD990F990BA5
:100C6000ABA8BCA8CDA8D52C730184013DAD492FFC
:100C7000592F692F792F892F0E948A3301E10E9411
:100C8000B934AEA82196BFAC21972296CFAC22975B
:100C90002396DFAC23972496EFAC24972596FFACE0
:100CA000259726960FAD269727961FAD27970E946A
:100CB000EF3459016A017B01582E192F68964CAD0B
:100CC0005DAD6EAD7FAD689734E0440F551F661F74
:100CD000771F3A95D1F76C968CAD9DADAEADBFAD9B
:100CE0006C97E4E0B595A79597958795EA95D1F728
:100CF000842B952BA62BB72B64964CAD5DAD6EADBA
:100D00007FAD6497FCE0440F551F661F771FFA956F
:100D1000D1F7482B592B6A2B7B2B80E090E0A0E188
:100D2000B0E0841B950BA60BB70B3C014D01990C51
:100D30006608762C43019C01AD01662D762D862D2B
:100D4000962D0FE10E94B93439014A01B62FA72F21
:100D5000F82FE92FA5962FADA5972E969FAD2E972C
:100D6000990F990B2E963FAD2E97492F592F692F2A
:100D7000792F892F03E20E94B934052D0E94EF34A8
:100D800059016A017B018C019301A4016B2F7A2F19
:100D90008F2F9E2F0E94F834E5E3AE2EFCE0BF2E8D
:100DA000C12CD12CE12CF12C00E010E00E948A3300
:100DB000A9A4BFA8C8ACD9A8EAA8FEAC0FAD142D51
:100DC0000E94E4332BAB3CAB4DAB59A76EAB7DAF70
:100DD0008FAB98AF0DE00E94D23429AB9AABA696A8
:100DE0002FADA6972F969FAD2F97990F990BA9A876
:100DF000B32EC42ED52EE62EF72E082F1AA92F9625
:100E00003FAD2F97492F592F692F792F892F0E9496
:100E10008A330E948A3309E10E94D234ABA8BCA86D
:100E2000CDA8D9A4EEA8FDAC0FA918AD0E94EF344F
:100E300029AB3AAB2A013B014C01A3962FADA397F6
:100E40002C969FAD2C97990F990B2C963FAD2C9714
:100E5000492F592F692F792F892F0E948A3303E157
:100E60000E94D23459016A017B018C0129A93AA957
:100E7000A201B301C4010E94EF3408E00E94D23401
:100E800059016A017B01E82F192FA4962FADA49771
:100E90002D969FAD2D97990F990B2D963FAD2D97C0
:100EA000492F592F692F792F892F04E00E94B934D7
:100EB0000E2F0E94EF34B901CA010E94533020E086
:100EC00030E040E85BE30E94393120E030E048EC5C
:100ED00052E40E94AB2F2996AEADBFAD29976D931A
:100EE0007D938D939C931397F10125A5C9ACDAAC42
:100EF000EBACFCACFCE2DF1AF1E0EF0AF108A096E3
:100F00008CAC9DACAEACBFACA0973EE0880C991CFD
:100F1000AA1CBB1C3A95D1F7D1019C968C91B0E1EB
:100F20008B9FC0011124322F3F70832B092E000CA0
:100F3000AA0BBB0B44E1880F991FAA1FBB1F4A9540
:100F4000D1F7881A990AAA0ABB0AF101A6A5F0E10D
:100F5000AF9FD001112422952F70A22BA7019601DB
:100F60000E94052F861A970AA80AB90A00E4900E73
:100F7000A11CB11C6FE0B594A794979487946A95CF
:100F8000D1F7F101A3A5B0E00E94FA2E2B013C019C
:100F90007BE075946794579447947A95D1F7F0E87D
:100FA0005F0E611C711CF101A7A50A2E000CBB0B82
:100FB0000E94052FAAE09595879577956795AA9544
:100FC000D1F7A30192010E9446339B01AC01BAE024
:100FD0005595479537952795BA95D1F7405E5F4F60
:100FE000A1A5B2A50E94052F705E8F4F9F4F1EE0F6
:100FF00095958795779567951A95D1F7A5019401F1
:101000000E9446336B017C010FE09595879577959B
:1010100067950A95D1F79B01AC010E9446339B016D
:10102000AC0187E055954795379527958A95D1F777
:10103000A0A5B0E00E94FA2E24E0959587957795BB
:1010400067952A95D1F7C61AD70AE80AF90AF7FE72
:1010500003C0C12CD12C7601C701B60161307105E6
:101060008105F9E19F0724F060E070E080E099E1FC
:101070002CE095958795779567952A95D1F70E94ED
:10108000533020E030E040E85AE30E9439312B969B
:10109000AEADBFAD2B976D937D938D939C931397BE
:1010A000C2CB60E070E080EC9FE715CF2EE0FB0143
:1010B000DC01129601900D922A95E1F70C947103D0
:1010C00020E1FB01DC01D39601900D922A95E1F716
:1010D0000C945608CF92DF92FF920F931F93CF93F9
:1010E000DF9300D000D0CDB7DEB78C01DC01ED91ED
:1010F000FC910084F185E02D21E0AE014F5F5F4F50
:1011000060ED09958981883509F45CC0803609F065
:1011100061C080E690E0F80191AB80ABD801ED9121
:10112000FC910084F185E02D26E0A801405F5F4F2F
:1011300068E8C8010995F82ED801ED91FC9100846A
:10114000F185E02D22E1A8014A5E5F4F6EE8C801FB
:101150000995F822D801ED91FC910084F185E02DEC
:1011600021E0A801485D5F4F61EAC8010995F822B6
:10117000D801ED91FC910084F185E02D27E0A801D4
:10118000475D5F4F61EEC8010995F822F801C484FC
:10119000D584C114D10491F015861486C8010E942B
:1011A00071039E012F5F3F4FA901B901C8010E9441
:1011B000AB03D8011D96DC92CE921C97C8010E9409
:1011C00071030CC088E590E0D801D1969C938E9372
:1011D000D097A4CFF80111AA10AAF12CF801F2AA15
:1011E0008F2D0F900F900F900F90DF91CF911F9147
:1011F0000F91FF90DF90CF9008952091CD01260FA1
:101200003327331F21323105ECF420917B02FC019E
:1012100090E080E0243069F082E00895A091CD0153
:101220002191AC0143555E4FA40FB52FB11D2C93F6
:101230000196861798F38091CD01680F6093CD01D8
:1012400080E0089581E0089510927B0281E0809310
:101250007A021092550261E082E10E94A40261E0EC
:1012600083E10E94A402E9EBF0E080818E7F80831D
:1012700080818D7F808380E28093B80085E48093B5
:10128000BC000895CF93DF9391E09093AC01882345
:10129000B9F0C091B800D091BA008091BC008A7BAF
:1012A0008093BC0060E082E10E94A40260E083E1E0
:1012B0000E94A4020E942409D093BA00C093B800EF
:1012C000DF91CF910895CF92DF92EF92FF920F932B
:1012D0001F93CF93DF93D091A40281E0D13208F025
:1012E0009CC0C091A3020E940E036B017C018091FF
:1012F0007B0281116CC082E080937B0281E080934D
:101300007A028FEF8093790210927802D09377025D
:10131000A3E8B2E0E7E5F2E080E0D8138DC01092D8
:10132000560280915602CC0FC82BC0935602809172
:101330005502813009F084C0109255020E940E03BC
:101340006B017C01809156028093BB0080917D02ED
:1013500090917E02A0917F02B0918002892B8A2B0E
:101360008B2BA1F00E940E0300917D0210917E0252
:1013700020917F02309180026C197D098E099F09AE
:10138000061717072807390708F442C08091BC00E8
:1013900083FDD8CF85EC8093BC000E940E036B01C7
:1013A0007C0180917B02823009F44CC080917902EB
:1013B0008F3F09F469C080917902803209F466C0D8
:1013C00080917902803309F463C084E026C0809163
:1013D0007D0290917E02A0917F02B0918002892BC4
:1013E0008A2B8B2B09F483CF0E940E0300917D0280
:1013F00010917E0220917F02309180026C197D094C
:101400008E099F09061717072807390708F06FCFBD
:1014100080917C020E94420985E010928202109223
:10142000A40210928102DF91CF911F910F91FF9042
:10143000EF90DF90CF9008959D9191938F5F6DCF46
:1014400085EEA9CF80917D0290917E02A0917F02CE
:10145000B0918002892B8A2B8B2B09F4A2CF0E949A
:101460000E0300917D0210917E0220917F02309147
:1014700080026C197D098E099F0906171707280736
:10148000390708F08ECFC4CF80E0C7CF82E0C5CF48
:1014900083E0C3CF8F929F92AF92BF92CF92DF92A1
:1014A000EF92FF920F931F93CF93DF93D82FC62F06
:1014B000142F613208F09CC00E940E036B017C0166
:1014C00080917B0281116FC081E080937B02109339
:1014D0007A029FEF90937902109278029C0F90937A
:1014E00077028093560280915602DD0FD82BD0935D
:1014F000560280915502813009F07CC0109255024D
:101500000E940E036B017C01809156028093BB0008
:1015100080917D0290917E02A0917F02B091800225
:10152000892B8A2B8B2BA1F00E940E0300917D0248
:1015300010917E0220917F02309180026C197D090A
:101540008E099F09061717072807390708F44CC0AA
:101550008091BC0083FDD8CF85EC8093BC000E94B5
:101560000E036B017C0180917B02813009F444C041
:10157000809178028C1710F4C0917802E7E5F2E0D0
:10158000A5E3B2E080E08C1359C08C2FDF91CF919E
:101590001F910F91FF90EF90DF90CF90BF90AF9091
:1015A0009F908F90089580917D0290917E02A091EE
:1015B0007F02B0918002892B8A2B8B2B09F480CF7C
:1015C0000E940E0380907D0290907E02A0907F0288
:1015D000B09080026C197D098E099F0986169706C6
:1015E000A806B90608F06CCF80917C020E944209DF
:1015F000C0E0CBCF85EEB1CF80917D0290917E028D
:10160000A0917F02B0918002892B8A2B8B2B09F449
:10161000AACF0E940E0300917D0210917E022091BC
:101620007F02309180026C197D098E099F0906178F
:1016300017072807390708F096CFD6CF91919D93C9
:101640008F5FA1CF0895E09100028091FF01E8171C
:1016500030F4F0E0EB5CFD4F808190E008958FEF77
:101660009FEF0895909100028091FF012FEF3FEFCF
:10167000981748F4E92FF0E0EB5CFD4F208130E053
:101680009F5F90930002C9010895CF92DF92EF927D
:10169000FF920F931F93CF93DF937C01CB018A01BD
:1016A00020918102222389F0EB016B01C40ED51E2B
:1016B000CC15DD0569F06991D701ED91FC910190A0
:1016C000F081E02DC7010995F3CF642F0E94FD083A
:1016D000C801DF91CF911F910F91FF90EF90DF90A4
:1016E000CF900895CF93DF931F92CDB7DEB7698374
:1016F000209181022223F9F02091A402203258F097
:1017000021E030E0FC013383228390E080E00F9001
:10171000DF91CF91089580918202E82FF0E0ED579C
:10172000FD4F998190838F5F809382028093A40202
:1017300081E090E0ECCF61E0CE0101960E94FD08CF
:10174000F7CF682F82E493E00C94720BCF93C42FF1
:101750008F5B9F4FFC01808191E090938102809389
:10176000A302109282021092A40282E493E00E94EB
:10177000720B6C2F82E493E00E94720B0E9463094B
:1017800081E0CF91089590E080E00895DC0180E051
:10179000615090F09D919827E92FEF70F0E0E651AD
:1017A000FF4F2491E92FE295EF70F0E0E650FF4FF4
:1017B000E491822F8E27ECCF0895DC012C911196B5
:1017C000ED91FC91F8948181822B81839281322F5B
:1017D00030959323928382E090E00197F1F7818125
:1017E0008323818380E190E00197F1F790817894E1
:1017F000E6E6F0E03197F1F7922381E009F480E02A
:101800000895FC0190810180F281E02D292F20951F
:1018100060FF14C0F8948281822382838181892BA6
:101820008183A0E1B0E01197F1F78281982B928338
:1018300078948AE690E00197F1F70895F894828110
:10184000822382838181892B8183AEE7B0E0119767
:10185000F1F78281982B9283789486E090E0EBCF29
:10186000EF92FF920F931F93CF93DF93EC01E62E3D
:1018700008E010E0FF24F39461E08E2D8F2109F43D
:1018800060E0CE010E94010CFF0C01501109A1F78C
:10189000F894E981FA8191818881809589238183F7
:1018A000E981FA8192818881809589238283789465
:1018B000DF91CF911F910F91FF90EF900895EF92DC
:1018C000FF920F931F93CF93DF938C017B0165E50C
:1018D0000E94300CE70188E0E80EF11C6991C80114
:1018E0000E94300CCE15DF05C9F7DF91CF911F9113
:1018F0000F91FF90EF9008951F93CF93DF93EC012A
:10190000162F60E0812F0E94D202612F70E0FB0150
:10191000EE55FE4FE491E883FB01E257FE4FE49160
:10192000F0E0EE0FFF1FE059FE4F859194919A83EE
:1019300089831B861D861C861A86198618861F8237
:101940001E821D821C821B82DF91CF911F91089500
:101950004115510529F4EAE7F0E080818F77808313
:101960006A307105B9F0CB01880F991F880F991F54
:10197000807267706860682B88E10FB6F894A8954C
:10198000809360000FBE60936000E0E6F0E080812D
:1019900080648083232BD9F483B7817F846083BFE5
:1019A000F89483B7816083BF85B7806685BF8F7DDC
:1019B00085BF7894889583B78E7F83BF7894452BB5
:1019C00029F4EAE7F0E0808180688083089583B796
:1019D000817F846083BFF89483B7816083BF7894EC
:1019E000889583B78E7F83BF7894E9CF8EBD0DB481
:1019F00007FEFDCF8EB5089561E08AE00C94A40245
:101A00008CE00E947B028111FBCF089560E08AE0A8
:101A10000C94A402CF93DF93D82FC62F0E94060DFB
:101A20000E94000D8D2F8C2B0E94F60C80E00E94EE
:101A3000F60CC82F0E94FC0C8C2FDF91CF910895DB
:101A4000CF93C82F0E94060D0E94000D8C2F0E947C
:101A5000F60CC82F0E94FC0C8C2FCF91089586E3C2
:101A60000E94200D8DE30E94200D8AE30C94200D2E
:101A7000BC0190E080E00E94330384E090E030E01D
:101A800020E060E170E040917A00406440937A0089
:101A900042E350917A0056FF08C0FB013197F1F7FD
:101AA0004150B9F790E080E008954091780050915E
:101AB00079005370240F351F019729F7C9019695B6
:101AC000879596958795237033272230310560F3EB
:101AD00001960895EFE6F0E08081816080830895AB
:101AE0008A3030F4E82FF0E0EA59FE4F84910895EF
:101AF0008FEF0895CF93DF93EC0180917C0080738A
:101B000080937C0080917C00806C80937C0080912D
:101B10007C0080937C0061E089E00E94A4028889B7
:101B200099890E94380DEC0160E089E00E94A402CE
:101B3000209761F09E01A0EEBBEA0E942F2F20E0CB
:101B400038E240E050E00E940D2FE901CE01DF9124
:101B5000CF910895FC0110860895FC01962F97708F
:101B60006085687F692B608708950895813011F042
:101B70008FEF089580E00895882311F08FEF089586
:101B800081E008958FEF0895883011F08FEF089568
:101B900080E00895882311F08FEF089588E008957C
:101BA000FC018289938961E0911101C060E00C948D
:101BB000A402CF93DF93EC01CB01463058F4642F9D
:101BC00004960E943501049699838883CE01DF91A3
:101BD000CF91089590E080E0F7CF0895E091F9016A
:101BE000F091FA018485811102C081E08387089514
:101BF0000895089580E0089508950F931F93CF935B
:101C0000DF9322E631E0FC01318320838C010A5B03
:101C10001F4F81F0EC01CA50DF4F0C171D0751F028
:101C2000C05BD109E881F9810280F381E02DCE010A
:101C30000995F3CFDF91CF911F910F9108950895EA
:101C4000089508952EE631E0FC01318320830C9441
:101C5000FD0D0895982FE6E6F1E080E024919217BB
:101C600029F08F5F31968A30C9F78FEF08950C9471
:101C70002A0E80917C00807380937C0080917C0090
:101C8000806480937C0080917C008E6080937C00D7
:101C900082E390E00E94380D009751F09C0150E0E3
:101CA00040E060E070E381E190E00E940D2FC90107
:101CB00008950895862728E0BC0176956795AC01C4
:101CC0004170552780FF02C041E050EACB018427D4
:101CD0009527215089F70895FC0110821182128204
:101CE000138216821582148211861086178212863C
:101CF00013860895FC018081811109C081818111C1
:101D000006C081E09281911103C080E0089581E0D6
:101D10000895DC01FB019C91808198130BC0119602
:101D20009C9111978181981305C081E012962C91A6
:101D30009281291380E00895FC013381FB01238106
:101D4000321302C00C94890E80E00895CF93DF9384
:101D500000D000D0CDB7DEB7FC018089948599838F
:101D600095859A8396859B838C83882389F0BF0110
:101D7000645F7F4FCE0101960E949C0E811108C0C6
:101D800082E00F900F900F900F90DF91CF91089508
:101D900081E0F7CF2FB7F894FC01808191812FBFAC
:101DA0000895FF920F931F93CF93DF93EC018B0164
:101DB000FFB6F8940E94CA0E9C019FB7F894F801F0
:101DC000318320839FBF8FB7F894198308838FBF17
:101DD000FFBEDF91CF911F910F91FF9008956F92F9
:101DE0007F928F92DF92EF92FF920F931F93CF9388
:101DF000DF937B0122E0E20EF11CDB0115962D91B1
:101E00003D914C91232B242B09F44FC0EB018C0105
:101E1000DFB6F8949C819F7090619C83C8010E94FA
:101E2000CA0E009709F43EC0FC013297A1F065800C
:101E3000768087802D813E814F81CF010296621688
:101E40007306840650F42619370948092D833E830A
:101E50004F838C01E4CF90E080E02FB7F8949B8310
:101E60008A832FBF8FB7F894D801ED92FC928FBF71
:101E7000309761F085819681A7812D813E814F81C8
:101E8000821B930BA40B85839683A783DFBEDF9110
:101E9000CF911F910F91FF90EF90DF908F907F90E7
:101EA0006F900895F0E0E0E0D8CFB7010296DF919F
:101EB000CF911F910F91FF90EF90DF908F907F90C7
:101EC0006F900C94D10E1F93CF93DF93EC01FB0125
:101ED0002885922F9770943079F040F4923051F029
:101EE000933039F1DF91CF911F910895953009F129
:101EF0009630C1F711E012C023FD21C02A853B8531
:101F00002550310913E02115310541F040E02D83C2
:101F10003E834F83BE01CF010E94EF0EE881F9811D
:101F20000680F781E02D612FCE01DF91CF911F91C7
:101F3000099423FDD7CF2A853B8515E0E4CF25E022
:101F400030E012E0E3CFFF920F931F93CF93DF9324
:101F5000EC018B01E889FF24F394FE0EF88AE80F68
:101F6000F92FF11D228530E0A4E6B0E00E942F2F6A
:101F70002AE030E040E050E00E940D2F2D833E83A8
:101F80004F83F0FE11C08A899B8960E0911101C0E6
:101F900061E00E94A402BE01C801DF91CF911F91B0
:101FA0000F91FF900C94EF0ECE010E94D00DF3CF55
:101FB0000F931F93CF93DF93EC018B01E881F9819D
:101FC0000680F781E02D09959B878A878C859D8502
:101FD000AE858D839E83AF83BE01C801DF91CF9113
:101FE0001F910F910C94EF0EEF92FF920F931F939E
:101FF000CF93DF93EC01FFB6F8940E94CA0E8C01D8
:10200000892B71F0EFB6F894CE010E94CA0E0E949F
:10201000CA0E9C019FB7F894398328839FBFEFBEF7
:10202000FFBEC801DF91CF911F910F91FF90EF90FC
:10203000089581E693E00E94F40F0097B1F0DC016F
:10204000129799F014968C9114978F7014968C9324
:102050001497ED91FC9111970190F081E02D6FE5BF
:1020600073E0CD01099581E0089580E00895BF9265
:10207000CF92DF92EF92FF920F931F93CF93DF9354
:10208000EC01FFB6F8948C818F708C838FE593E020
:102090000E94CA0E0097C9F19C01225031098FE5B8
:1020A00093E02115310589F189010E5F1F4FC21799
:1020B000D30709F50E94F40FC8010E94CA0E0097C9
:1020C00079F0FC01329761F085819681A7812D819D
:1020D0003E814F81820F931FA41F85839683A78320
:1020E000FFBEDF91CF911F910F91FF90EF90DF9096
:1020F000CF90BF900895C8010E94CA0E009729F0A2
:102100009C0122503109C801CCCF6E0182E0C80E7B
:10211000D11CEFB6F894BFB6F89481E693E00E9424
:10212000CA0EEC0121E633E0209779F010E000E0E0
:10213000CC16DD0609F48901CE010E94CA0E9E016B
:102140000115110521F4EC01EFCF10E000E0BFBE56
:102150000115110511F4EFBEC3CFC8010E94F40FA1
:10216000FACFEF92FF920F931F93CF93DC01189653
:102170000D911C91F80181850E947B02D80118966F
:10218000CC911897C3FBEE24E0F8F12C8E151F04B8
:10219000C9F180FBC3F91896CC93C770C33031F0F6
:1021A000C53021F0C130C1F4C4E007C0F80180851A
:1021B00083FF12C0C33021F1C6E0C8010E9437106E
:1021C00085E090E0A0E0F80185839683A783B801BD
:1021D0008FE593E00E94EF0ED80118968C91189726
:1021E00087708C1779F0ED91FC910680F781E02DD6
:1021F0006C2FC801CF911F910F91FF90EF90099420
:10220000C2E0DBCFCF911F910F91FF90EF90089527
:102210008FE693E00E9437106FE673E08FE593E05E
:102220000C94EF0E8F929F92AF92BF92CF92DF925B
:10223000EF92FF92CF93DF93EC014A015B018FE5B0
:1022400093E00E94CA0E0097B9F481E08887CE011E
:102250000E9437108D829E82AF82BE018FE593E08F
:10226000DF91CF91FF90EF90DF90CF90BF90AF9034
:102270009F908F900C94EF0E0297C12CD12C760179
:10228000009719F3FC01258136814781642FA9014C
:1022900070E0C40ED51EE61EF71EC817D90739F028
:1022A00002960E94CA0E009781F20297E9CFC814E5
:1022B000D904EA04FB0448F2DF91CF91FF90EF903C
:1022C000DF90CF90BF90AF909F908F900895CF9266
:1022D000DF92FF920F931F93CF93DF938C01FFB692
:1022E000F8940E94CA0E009771F1EC01229759F1FF
:1022F0008D819E81AF810197A1098D839E83AF83DC
:10230000680182E0C80ED11C8D819E81AF81892B2E
:102310008A2BC9F4C8010E94F40F8C81982F9F70FA
:1023200080FF1BC09C83E881F9810190F081E02D42
:10233000B801CE010995C8010E94CA0E009719F094
:10234000EC01229709F7FFBEC801DF91CF911F91E1
:102350000F91FF90DF90CF900895BE016E5F7F4F89
:10236000C6010E94D10EE7CFEF92FF920F931F9309
:10237000CF93DF937A01D22F8C010F5B1F4FF801AF
:10238000808191E0909381028093A3021092820257
:102390001092A40282E493E00E94720B0E946309EF
:1023A0006D2FD13208F060E241E0F80180810E9497
:1023B0004A0A182F109200028093FF01C0E080911A
:1023C0000002181751F082E493E00E94320BF701EB
:1023D000EC0FF11D8083CF5FF2CF81E0CD1380E061
:1023E000DF91CF911F910F91FF90EF900895FC0125
:1023F00090810180F281E02DF8948181292F209530
:102400008223818378943DE7315011F180818923C3
:10241000D9F3F8948281822382838181892B8183FD
:102420007894ACEBB3E01197F1F7F89481818223B3
:102430008183A8E8B0E01197F1F78081982381E0CB
:1024400009F080E07894E0E3F3E03197F1F7089544
:1024500080E008951F93CF93DF931F92CDB7DEB72F
:10246000162F0E942A0E8F3F99F06091B50370914C
:10247000B603680F711D198341E050E0CE0101964B
:102480000E94C32E81E00F90DF91CF911F9108959C
:1024900080E0F9CFEF92FF920F931F93CF93DF93DA
:1024A0001F92CDB7DEB78C017B01E80EF91E1982B1
:1024B00041E050E0B801CE0101960E94C32E0F5FAB
:1024C0001F4FE016F10699F781E00F90DF91CF9151
:1024D0001F910F91FF90EF9008951F93CF93DF937B
:1024E000D82F162FC42F0E94060D0E94000D8D2F8D
:1024F0000E94F60C812F0E94F60C0E94FC0C60E8F2
:102500008D2F0E940A0D181771F0CC2361F04FEF48
:102510004C0F612F8D2F0E946D128FEC97E0019769
:10252000F1F700C00000DF91CF911F91089585ED74
:102530008093BC0080917D0290917E02A0917F02E9
:10254000B09180020796A11DB11D23E0B695A79515
:10255000979587952A95D1F72091BC0024FD03C05B
:1025600010927B02089540917D0250917E0260910D
:102570007F0270918002452B462B472B69F3009711
:10258000A105B10541F02AE12A95F1F700C00197B4
:10259000A109B109E1CF80917C020C944209CF934B
:1025A000CFEF86E30E94200DC150807731F08AE1A1
:1025B0008A95F1F700C0C111F4CF8AE30E94200D83
:1025C00089E3CF910C94200D0F931F93CF93DF934A
:1025D000EC018B010E943710CE010E94D00DB80192
:1025E00083E0660F771F8A95E1F76A547E4F48E0D3
:1025F00050E0CE0108960E94AA2E8885882359F0C3
:10260000188A198A6FE573E0CE01DF91CF911F918F
:102610000F910C94A30FDF91CF911F910F9108950B
:102620000F931F93CF93DF9300D01F92CDB7DEB7E8
:102630008B0143E050E0BC01CE0101960E94AA2E1E
:102640009A818B812981F8012083918382830F9065
:102650000F900F90DF91CF911F910F9108951F93CD
:10266000CF93DF93EC011FB7F8949889888598176A
:1026700040F4CE010E94A30F1FBFDF91CF911F91A5
:102680000895188A99859923A1F389898F5F898B89
:10269000891778F3CE010E94D00D48E050E066EB38
:1026A00071E0CE0108960E94AA2EE6CFCF93DF9369
:1026B0001F92CDB7DEB7198241E050E0BC01CE01D8
:1026C00001960E94B32E89810F90DF91CF910895DA
:1026D000CF93DF93EC0185E00E942A0E8F3F71F0CB
:1026E00028813981820F932F911D0E945613829564
:1026F000869586958370DF91CF91089581E0FBCF19
:10270000CF93DF93EC0188E10E942A0E8F3F59F0AE
:1027100028813981820F932F911D0E945613817059
:10272000DF91CF91089580E0FBCFCA960E9480137D
:10273000811109C064E070E090E080E00E944A12DC
:10274000F0E0E0E0099408950F931F93CF938C017C
:10275000862FC42F0E942A0E8F3F59F0F801208146
:102760003181820F932F911DCF911F910F910C9466
:1027700056138C2FCF911F910F910895EF92FF92D6
:102780000F931F93CF93DF93EC018B0140E06CE03C
:10279000C8010E94A413F82E40E06BE0C8010E941B
:1027A000A413E82E40E06AE0C8010E94A4138883C5
:1027B000E982FA82CE01DF91CF911F910F91FF90B4
:1027C000EF9008950F931F93CF938C0140E062E246
:1027D0000E94A413C82F40E063E2C8010E94A41322
:1027E0002C2F30E0322F2227820F932F911DCF9173
:1027F0001F910F9108950F931F93CF938C0140E089
:1028000060E20E94A413C82F40E061E2C8010E9468
:10281000A4132C2F30E0322F2227820F932F911DEB
:10282000CF911F910F9108950F931F93CF93DF9333
:102830008C01EC01EA96CE010E94681340E062E14F
:10284000CE010E94A413D8011296ED91FC91868FBF
:1028500046E064E1CE010E94A413CE010E94FB1366
:10286000CE01DF91CF911F910F910C94E213CF9382
:10287000DF93EC01CB011A82198218821B82642F2C
:1028800004960E943501009731F044E050E0BC010D
:10289000CE010E94B32ECE01DF91CF910895EF9229
:1028A000FF921F93CF93DF9300D000D0CDB7DEB758
:1028B0007C0110E0412FB701CE0101960E94371430
:1028C000CE0101960E947A0E882321F01F5F1630F8
:1028D00089F71FEF812F0F900F900F900F90DF91CE
:1028E000CF911F91FF90EF900895AF92BF92CF923A
:1028F000DF92EF92FF921F93CF93DF9300D000D02F
:10290000CDB7DEB77C016B0110E05C0184E0A80E5E
:10291000B11C412FB701CE0101960E943714B601B8
:10292000CE0101960E949C0E882379F01B821A82A8
:1029300019821C82612FC5010E94350144E050E0DC
:10294000BC01CE0101960E94C32E1F5F163009F70D
:1029500081E00F900F900F900F90DF91CF911F911A
:10296000FF90EF90DF90CF90BF90AF900895AF921F
:10297000BF92CF92DF92EF92FF921F93CF93DF939C
:1029800000D000D0CDB7DEB77C016B015A0110E05A
:10299000412FB601CE0101960E943714B501CE0138
:1029A00001960E949C0E8823C1F0612FC6010496F7
:1029B0000E9435010596F70191838083C7010F902E
:1029C0000F900F900F90DF91CF911F91FF90EF909C
:1029D000DF90CF90BF90AF9008951F5F1630C1F683
:1029E00090E080E0E8CFAF92BF92CF92DF92FF926B
:1029F0000F931F93CF93DF93CDB7DEB729970FB611
:102A0000F894DEBF0FBECDBFFC01211126C082AD00
:102A100093AD9A8389838AE08B8380E79DE09D83D1
:102A20008C8387E39EE09F838E8329813A814B814B
:102A30005C816D817E818F8190E029960FB6F8943C
:102A4000DEBF0FBECDBFDF91CF911F910F91FF90E1
:102A5000DF90CF90BF90AF900895662309F458C0DF
:102A600081AD861708F454C004AD15AD213069F46A
:102A7000F801848595859A8389832B838AEC9DE070
:102A80009D838C8384EC9DE0CECF6A01233051F589
:102A90005801F8E0AF0EB11CF12C4F2DB501CE015D
:102AA00001960E943714B601CE0101960E949C0E39
:102AB000882389F06F2DC8010C960E943501049679
:102AC0009A83898381E08B8383E391E09D838C8368
:102AD00082EC9DE0A8CFF39486E0F812DECF90E080
:102AE00080E0EECF2430A1F4B801685F7F4FCE01C3
:102AF00008960E94B714888599859A83898381E016
:102B00008B838CEB9DE09D838C8386EB9DE08BCF4C
:102B10001A8219821B821D821C821F821E8285CF0F
:102B20000E943836AF92BF92CF92DF92EF92FF921F
:102B30000F931F93CF93DF93EC017B011B868C01D6
:102B4000015F1F4F60EC8BE30E940A0D18166CF1B9
:102B5000D12C8AE30E94200D8BE791E00197F1F7D9
:102B600000C000000E942F0D84E30E94200DDD2094
:102B700009F460C0DE868F8596E798279F8721E05D
:102B80004D2D50E0BA0161507109A22FB0E0F8015B
:102B9000EA0FFB1F9081A617B7070CF043C08452C1
:102BA000892780832F5F892FF0CF60E88FE30E9411
:102BB0000A0DD82E49E2481758F20E94060D0E94CD
:102BC000000D8FEF0E94F60CC02E58018A2D8C1933
:102BD0008D1538F480E00E94F60CF50181935F01B9
:102BE000F5CF0E94FC0C60E88FE30E940A0D282FAD
:102BF00030E0082E000C990B88279170A901481B22
:102C0000590BCA0157FD0196959587959195819528
:102C10009109865B898360E88FE30E940A0D87FF34
:102C200097CF97CF888989278083B801C7010196FC
:102C30000E944A36F701D0821E868D85882351F086
:102C40000E94060D0E94000D0E94FC0C84E30E946D
:102C5000200D1D86F7018081DF91CF911F910F918B
:102C6000FF90EF90DF90CF90BF90AF9008952F929C
:102C70003F924F925F926F927F928F929F92AF920C
:102C8000BF92CF92DF92EF92FF920F931F93CF9359
:102C9000DF93CDB7DEB7E0970FB6F894DEBF0FBE77
:102CA000CDBF6C018B01FA018081DB0117968C93FB
:102CB0001797818118968C931897828119968C9317
:102CC00067E573E0CA010E94890E882329F0F801A4
:102CD00082818F7D84608283B8016C5F7F4FD601D3
:102CE000D7968D919C910E941013F8018281806883
:102CF000828346E064E1D60114968D919C910E94F6
:102D0000A413782E811102C077247394F601848174
:102D100095810E946813382E882349F0D6011296B7
:102D20008D919C9162E070E002960E94E412F8019D
:102D30003196F8ABEFA73AE0432E512C612C4801B5
:102D4000F7E08F0E911C772009F473C1D60112961B
:102D5000ED90FC90F801828180718BA75701F0E41F
:102D6000AF0EB11CD8014C9150E06FA578A9C501F8
:102D70000E944A36F8012081D701DF962C93F50195
:102D80008081B6E78B2780833196708161E0215086
:102D9000330B462F50E0F501E40FF51F90814217E9
:102DA00053072CF48452892780836F5FF2CF9727D3
:102DB0009083F701F7ADFEA7B7016D5C7F4FD70198
:102DC000DB96BC91BDA7BB2339F0EFECF7E0319760
:102DD000F1F700C00000F3CFD701D8964D925D9275
:102DE0006C92DA97E1E0DB96EC938FE593E00E943A
:102DF000EF0ED701DE968C91882369F00E94060DB4
:102E00000E94000D0E94FC0C0E942F0D84E30E9482
:102E1000200DF70116AEE1E0D701DD96EC9386E3D5
:102E20000E94200D8BE30E94200D28EC222E85E3CA
:102E30000E94200D87EC90E00197F1F700C00000A0
:102E40002A9421103CC086E30E94200D8BE30E944F
:102E5000200D8DE30E94200D84E30E94200D60EC84
:102E600085E30E940A0D8D30B9F780E0D701DD9629
:102E70001C927A94882309F466CFF801828185FF39
:102E8000AAC0C4010E947A0E882309F4A4C0CE010E
:102E900001960E946C0E8CE3F82ED60112968D914D
:102EA0009C91FC0124AD21115CC08FE19EE401974F
:102EB000F1F700C00000FA94F110EFCF44CF60ECBE
:102EC00085E30E940A0D833109F0B1CFAFE1BEE482
:102ED0001197F1F700C00000BBA5BB2349F0EFE755
:102EE000FBE828E0E150F0402040E1F700C000009E
:102EF0000E94060D0E94000D8FE30E94F60C8EA525
:102F00000E94F60C0E94FC0C0E94060D0E94000D0F
:102F10008FE70E94F60C2A2CABA6BCA68BA58219C3
:102F20009EA5891740F4ABA5BCA58D91BCA7ABA706
:102F30000E94F60CF3CF0E94FC0C98ECB92E60ECCA
:102F400085E30E940A0D8D3011F481E08FCFE7EC0C
:102F5000F0E03197F1F700C00000BA94B110EFCF64
:102F6000F4CFBE016F5F7F4FC1960E9492158823F8
:102F700009F49BCFD80111969C918A81981395CF23
:102F8000BE016B5F7F4FC4010E94890E882309F444
:102F90008CCF8C81823049F48B85982F9095991F26
:102FA0009927991F9DA787FD712CF801828181FDCA
:102FB00003C08B8180FF0BC0D60112968D919C912E
:102FC00042E350E060E070E088960E941211BDA5D7
:102FD000BB2309F4B8CE11E0332049F0F601828119
:102FE000938111E063E070E002960E94E412812F69
:102FF000E0960FB6F894DEBF0FBECDBFDF91CF9144
:103000001F910F91FF90EF90DF90CF90BF90AF9006
:103010009F908F907F906F905F904F903F902F90F8
:103020000895D60112968D919C9110E064E070E0B5
:10303000DBCF3110F6CF10E0DACF0F931F93CF9391
:10304000DF93EC018B018AE18B871E861D864C87FE
:103050001E8A6FA978ADFB01719684913197E49136
:10306000ED8B8AA3625F7F4F42E050E0CE0146962F
:103070000E94AA2E6FA978AD6D5F7F4F4AE050E0A5
:10308000CE0148960E94AA2E89AD8BA36FA978AD78
:103090006E5E7F4F42E050E0CE0184960E94AA2EE1
:1030A000BE01655F7F4FA801CE01DF91CF911F91D7
:1030B0000F910C943716FF920F931F93CF93DF93CA
:1030C00000D01F92CDB7DEB78C01FC018085282F80
:1030D0002770962F9770887F892B8087623071F5D3
:1030E00006891789F801F680F394F6826481758168
:1030F000CE0101960E94BE134F2DBE016F5F7F4F20
:10310000C8010E941D18F8018281938161E070E07E
:1031100002960E94E412F8018281938140ED57E00B
:1031200060E070E088960E9412110F900F900F904F
:10313000DF91CF911F910F91FF9008956530A9F70E
:1031400086899789253059F4CA960E948013811187
:10315000ECCFF801868997890E949513E6CFFC0190
:103160008281938167E070E002960E94E412DDCFD5
:103170003F924F925F926F927F928F929F92AF9207
:10318000BF92CF92DF92EF92FF920F931F93CF9354
:10319000DF93CDB7DEB7E5970FB6F894DEBF0FBE6D
:1031A000CDBF8C017B0119AA18AA1FA6BE01615DC3
:1031B0007F4FDC01D7968D919C910E941013F701EF
:1031C0003796FDABECABBE01615D7F4FCF010E9436
:1031D000890EC82E882309F45BC0D8011296CD90C1
:1031E000DC905601B3E3AB0EB11CC5010E94371051
:1031F0008AE090E0A0E0F60180AF91AFA2AF81E05D
:1032000083AFB5018FE593E00E94EF0ED7011296D0
:103210008C9186FD8DC0D70114968C911497F8017E
:10322000878315968C911597808716968C911697A3
:10323000818711968C911197828713968C911397A1
:103240001A96BC901A971B965C90813009F095C332
:10325000FAE05F1280C0D801D7966D917C916D5FC6
:103260007F4F4AE050E0CE0101960E94AA2E4AE02C
:1032700050E0BE016F5F7F4FC7010C960E943D3644
:10328000892B09F4E4C0D12CC12C32E0532E9EC00E
:10329000F7018081898381818A83B280BB82D38058
:1032A000DC8284818D8385818E8386818F83878173
:1032B00088878085898781858A8782858B87A38493
:1032C000AC868EE13C96DE011D9601900D928A95AA
:1032D000E1F767E573E0CE0108960E94890E882326
:1032E00039F0F1E0DF1204C02AE0A21609F475CF2C
:1032F000B2FE05C080EC8D0D823008F46ECF8C2DAF
:10330000E5960FB6F894DEBF0FBECDBFDF91CF912B
:103310001F910F91FF90EF90DF90CF90BF90AF90F3
:103320009F908F907F906F905F904F903F90089507
:10333000B7016C5F7F4FC80107960E94890E8823F2
:1033400009F469CFD8011A969C91F70181819813ED
:1033500062CFC12CD4CFB1E05B12F6C0BB2009F420
:1033600092CFD801D9968C91D9978B1508F48BCF31
:10337000DC96CD90DC90C7010E94A60E4701BCE010
:103380008B0E911C5601E8E0AE0EB11C813009F0A5
:103390007CC0B401C5010E947514C5010E944F1480
:1033A000782EFFEF8F1709F470CF682FC6010C96A7
:1033B0000E94350144E050E0BC01C4010E94C32ECC
:1033C000472DB501CE0101960E94D90DD701129665
:1033D0008C9185FF2EC0BE01615D7F4F8CA99DA998
:1033E0000E94890E882329F1B1E05B1283C3A701F3
:1033F0004C5F5F4FC114D10409F46BC3D80112961E
:10340000ED91FC9182A99EE0F701908392E0938375
:1034100012825286D6011B969C919387148615863C
:103420008687B701C8010E943716F60182858E7F14
:103430008287D80112968D919C9142E350E060E022
:1034400070E088960E941211CC24C39458CFF801E2
:103450008281938161E070E002960E94E412D801BB
:1034600012968D919C9140ED57E060E070E0889657
:103470000E941211F7014081B7016C5F7F4FC801B4
:103480000E941D18D12CC12CBAC2D70150968C9124
:1034900050971C969C911C9799831D969C911D9703
:1034A0009A831E969C919B838C83B401C5010E94D4
:1034B0007514BE016F5F7F4FC5010E947514C50171
:1034C0000E944F14482EBFEF8B1709F4DECE360151
:1034D000ECE06E0E711C682FC3010E94350144E0C0
:1034E00050E0BC01C4010E94C32EC5010E944F14CC
:1034F000382EFFEF8F1719F1682FC3010E94350195
:1035000044E050E0BC01CE0101960E94C32ED701D9
:103510001F968C9180FF0BC0442DB501CE018B9678
:103520000E94D90D432DB501CE018B964DCF432D71
:10353000B501CE018B960E94D90D442DF4CFB40174
:10354000C5010E947514A1CEB2E05B1237C0BB204A
:1035500009F499CEF80181AD8B1508F494CEC4AC72
:10356000D5AC5601F8E0AF0EB11CB701645F7F4FD8
:10357000C5010E947514982EC7010E94A60E8230C4
:10358000B9F4D70150968C9150971C969C911C973A
:1035900099831D969C911D979A831E969C919B835F
:1035A0008C83BE016F5F7F4FC5010E947514982206
:1035B000992009F40BCF5524539408CFB3E05B1244
:1035C00070C0BB2009F4EFC0F80191AD9B1508F461
:1035D00059CF64AC75ACD70111969C911197149694
:1035E0002C9114972BA715962C9115972CA716960E
:1035F0002C912DA75801BBE0AB0EB11C2AE123870B
:1036000020E1268720E22587858B94874801E6E123
:103610008E0E911C6401412C512CF8E06F0E711C30
:1036200026E0421641F1442DB301CE0101960E94DD
:103630003714CE0101960E947A0E8823D1F053945C
:1036400084E0FE013196D60101900D928A95E1F752
:1036500084E0C80ED11C94E059120BC0AE01455D48
:103660005F4FB501C8010E9437166401512C8823B1
:1036700011F04394D5CF84E0D6011D928A95E9F7E5
:10368000852D880F880F825FF801838785858F7D60
:103690008587AE01455D5F4FB501C8010E943716B1
:1036A000F1CEF4E05F1281C0D70150962C91A701B2
:1036B000445F5F4F6B2DC8010E94F31429833A8346
:1036C0004B835C836D837E838F83E981FA81FBABBF
:1036D000EAAB22E0522EEF2B09F4B6C0D7011196C7
:1036E0008C91119714969C9114979BA715969C9179
:1036F00015979CA716969C919DA73801BBE06B0E71
:10370000711C9AE1F801938790E1968790E2958782
:1037100092E0958B84872801F6E14F0E511C6201DF
:10372000B12CA12C312C8B818A151B0449F144F159
:10373000EC81FD818A2D0995D6018C934601B2E07A
:103740008B0E911C8AA99BA98A0D9B1D0E94561362
:10375000F60181833394F8E03F120BC0AE01455D62
:103760005F4FB301C8010E943716882339F0420128
:10377000312C2FEFA21AB20A6401D5CF6201312C8D
:10378000D6011C9211961C92B6E03B0E330CF80148
:10379000338685858F7D8587AE01455D5F4FB3019B
:1037A000C8010E943716512C4FC0FEE05F122CC09A
:1037B000D801DC96CD90DC90DD97F701218112963F
:1037C000ED91FC9182A9D6011B969C91F80153863C
:1037D00030E1368736E0358B2487968B178A108E3A
:1037E000818F82E08587A7014C5F5F4FB801655FDD
:1037F0007F4FC8010E943716D6011A968C911A97EE
:103800008E7F1A968C933ECEB5E05B1220C0F801F5
:10381000B6AED70150962C91A701445F5F4F6B2D38
:10382000C8010E94F314F80127AFE05CFF4F30831A
:103830003196408331965083319660833196708300
:103840003196808355245394D12CC12CBFCDF6E002
:103850005F1230C0F801FF9620813181D801DA96DD
:103860008D919C91DB972817390781F412968D91E1
:103870009C9170E060E002960E94E412D801ED9104
:10388000FC910480F581E02DC80109958FEFF801C6
:1038900086AF8AE0D7018C9382E013968C931397BE
:1038A00012968C9312971A961C92A7014C5F5F4F49
:1038B000B701F3CEB8E05B1240C0F80186AD8B15BE
:1038C00019F0D12CC12C77CE4801FFE38F0E911C4B
:1038D000D4018D919C91892BA1F3F70180818B30CC
:1038E00008F48BE095EF592E580E5701FCE0AF0E0F
:1038F000B11C6501380124E4620E711C8C2D8A19FB
:103900008515F8F6D60111964C90D301ED91FC91F6
:10391000D6018C9109958F3F61F0F401608171812E
:10392000680F711D498241E050E0CE0101960E946E
:10393000C32EF2E0CF0ED11CE1CF29E05212A3CC6E
:10394000D70111968C9194E1F801938790E19687C5
:103950001586158A8487168A67A970AD6D5F7F4FBB
:103960004AE050E0C80146960E94AA2EA7014C5F8B
:103970005F4FB801655F7F4F90CE813109F05EC027
:10398000F4E0BF1619F02AECB21225C08AE0D70184
:103990008C9382E013968C93139712961C92129735
:1039A0001A961C92A7014C5F5F4FB701C8010E9495
:1039B0003716BAECBB120BC088E19CE00FB6F89446
:1039C000A895809360000FBE90936000FFCFC80160
:1039D0000E94951357CD552009F436CFF80181ADDB
:1039E000851508F44FCDC4ACD5ACF2E0BF1601F19B
:1039F000FB1538F0BB2079F021E0B216A1F0512C74
:103A0000E5CC83E0B81609F4D6CD90E8B912F7CF2B
:103A1000F601828510C0D6011A968C911A978D7F77
:103A20001A968C93C8CDF601828582608287C3CDB9
:103A3000D6011A968C9181FF28CCE1CF823109F40E
:103A400040CF8054823008F01ECC44244394612C33
:103A5000D12CC12C82E0582ED801D9968C91D997BF
:103A6000841590F1DC96AD90BC90F501828581FDC6
:103A700029C04501F8E08F0E911CD7011A968C9150
:103A80001A978F7314969C9114979BA715969C91E7
:103A900015979CA716969C919DA78EA7712C472DD4
:103AA000B401CE0101960E943714BE016F5F7F4FB3
:103AB000CE018B960E949C0E81112AC07394B6E0B1
:103AC0007B12EDCF4394C8CFE1E0E61508F4BCCEFD
:103AD0007DCC8AE0D7018C9382E013968C93139768
:103AE00012961C9212971A961C92B701C8010E9456
:103AF00037169FCCB2E05B129CCC8AE0F701808342
:103B00005382128280E88287A7014C5F5F4FEDCF1E
:103B10006394650155245394D5CF0C94AF350C9420
:103B2000AF350C94AF350C94AF35CF93DF93EC01E8
:103B30000E94FD0DCE01DF91CF910C94AF350C9416
:103B4000AF350C94AF350C94AF35CF93DF93EC01C8
:103B50000E94220ECE01DF91CF910C94AF350C94D0
:103B6000AF350C94AF350C94AF354F925F926F9296
:103B70007F928F929F92AF92BF92CF92DF92EF92FD
:103B8000FF920F931F93CF93DF93CDB7DEB72C97A0
:103B90000FB6F894DEBF0FBECDBF8C015B0180E095
:103BA00090E0A0ECBFE789839A83AB83BC838D83CD
:103BB0009E83AF83B88789879A87AB87BC879E012E
:103BC0002B5F3F4FAE014F5F5F4FBE01675F7F4F7F
:103BD000C80108960E94AB0349805A806B807C80A4
:103BE00020E030E040E251E4C301B2010E943931EB
:103BF0000E941D30F80172836183C984DA84EB84EA
:103C0000FC8420E030E040E251E4C701B6010E94AC
:103C100039310E942430F80174836383B50190E048
:103C200080E00E9453304B015C01AC019B010E947B
:103C3000F63181116AC0A3019201C301B2010E9451
:103C4000F631811162C0A7019601C701B6010E9439
:103C5000F63181115AC024EF3DEF44ED5BE3C5011D
:103C6000B4010E9439314B015C01AC019B01C301DD
:103C7000B2010E943F2F23E333E948E853E40E9456
:103C80003F2F9B01AC01C501B4010E94AB2F9B01EA
:103C9000AC0160E070E080E89FE30E943E2F28E5E1
:103CA00039E348EA50E40E94A6319B01AC01C70108
:103CB000B6010E94AB2F20E030E040E251E40E94C8
:103CC00039310E942430F801768365836D817E81CD
:103CD0008F8198850E942430F80167832C960FB657
:103CE000F894DEBF0FBECDBFDF91CF911F910F9132
:103CF000FF90EF90DF90CF90BF90AF909F908F900C
:103D00007F906F905F904F90089560E070E080EC3E
:103D10009FE7D1CF2F923F924F925F926F927F9207
:103D20008F929F92AF92BF92CF92DF92EF92FF92CB
:103D30000F931F93CF93DF93CDB7DEB762970FB684
:103D4000F894DEBF0FBECDBF3C01788B6F87DC01DE
:103D50001896ED91FC91848195810E94E213F30104
:103D6000E05AFF4F17821682158214821382128244
:103D700011822081222321F0BC01CF010E94B51DB8
:103D8000F301EF59FF4F80819181F30191AF80AF33
:103D9000EB59FF4F80819181D301DB969C938E93E9
:103DA000DA9732968081F30184AF7301F7E4EF0E66
:103DB000F11C82E29CEFD70150969C938E931F9743
:103DC0008C91882309F473C087010F5F1F4FC801CE
:103DD0000E94F7116701B1E1CB0ED11CB601C801F9
:103DE0000E945F0C64E4C8010E94300C68EE73E02E
:103DF00080E090E00E943303C8010E94F711B601F1
:103E0000C8010E945F0C6EEBC8010E94300CFE01DD
:103E100031966F014E01FAE08F0E911C160138E0C9
:103E2000A32EB12C512C44244394C8010E94DD0BD5
:103E300081115428440C31E0A31AB108B1F7D6011E
:103E40005D926D01A815B90551F768E0C1010E94A6
:103E5000C60B998589132BC089819A81F701218925
:103E6000203109F09FC123E0880F991F2A95E1F7BF
:103E70002885203141F44F812CE030E0241B3109AA
:103E8000807F820F931F4AE0489F9001499F300D29
:103E9000112437FF02C0215F3F4F94E035952795ED
:103EA0009A95E1F7D70150963C932E931F97F30113
:103EB000EA5AFF4F80819181F30191AF80AF730186
:103EC000FBEAEF0EF11CD70111961D921D921D9277
:103ED0001C9214978C91882309F480C081E0809310
:103EE00081028AE48093A302109282021092A402BB
:103EF00083E090E00E94A10B0E94630940E061E032
:103F00008AE40E944A0AD82E109200028093FF0190
:103F1000B1E08B1363C082E493E00E94320B8C010A
:103F2000D0928102109282021092A40284E090E06A
:103F30000E94A10B0E94630941E061E08AE40E94B3
:103F40004A0A109200028093FF01813009F046C0B6
:103F500082E493E00E94320BD82E602F62956F703E
:103F600070E090E080E00E9455309B01AC0160E081
:103F700070E080E090E40E94A6314B015C01B80142
:103F800084E0660F771F8A95E1F777278D2D8F7074
:103F9000682B072E000C880B990B0E945530A50149
:103FA00094010E9439312CEE31E548E35DE30E9433
:103FB000393120E030E048EC52E40E94393120E011
:103FC00030E040E05FE30E943F2F0E9490300E946B
:103FD0002430F7016183728383839483D701119620
:103FE0004D915D916D917C911497D301DD964D9328
:103FF0005D936D937C931397F30140855185FA018E
:1040000082819381FC0120A131A1C3018C5B9F4F70
:10401000FC0131832083FA0126812F5F268343012F
:10402000FEE08F0E911CF301EE5BFF4F30813E8767
:104030003181398BF30100851185F801628173812B
:10404000FC01F081FA8BFC0121800397FC01308098
:104050004C9011965C9011971296AC901297139613
:10406000BC90D301DC964C91DC97DA96FC90DA9701
:10407000DB96EC90DB97D896DC90D897D9963C915C
:104080003F77FB01C68C80A191A164E670E00E949D
:104090006233C616170611F008F03068822F64E10B
:1040A0000E94563384E0923009F482E297E1D30112
:1040B0001E969C931E9790E751969C93519750960D
:1040C0008C93509758963C9358971F962C931F9714
:1040D0005996DC9259975A96EC925A975B96FC92B5
:1040E0005B975C964C935C975D96BC925D975E96F1
:1040F000AC925E975F965C925F9790964C92909789
:1041000091963C92919792962C929297EA899396E7
:10411000EC939397F9899496FC9394973E859596A2
:104120003C93959782FF4CC08F7C846050968C9313
:1041300047E553E0B401C8010E943716D301189631
:10414000ED91FC91848195810E94FB139C01A4E672
:10415000B0E00E942F2FF301658376838783B3013C
:104160008F8598890E94EF0EF301EA5BFF4F81E093
:10417000808362960FB6F894DEBF0FBECDBFDF918D
:10418000CF911F910F91FF90EF90DF90CF90BF9054
:10419000AF909F908F907F906F905F904F903F90E7
:1041A0002F9008952D81207611F4887F6CCE2032D7
:1041B00011F48C7F68CE203409F065CE8E7F63CEFB
:1041C000F12CE12C412C630188E0C80ED11C530175
:1041D00092E1A90EB11CA6E0EA16F10409F498C018
:1041E0004E2DB601CE010A960E943714CE010A96D2
:1041F0000E947A0E382E882309F45EC0512C452D7A
:10420000B601CE0101960E943714BE016F5F7F4F49
:10421000CE010A960E94890E811106C05394B6E021
:104220005B12EDCF55245A945E141F040CF444C065
:104230001B821A821982BE016F5F7F4FF80187A926
:1042400090AD0E941013BE016F5F7F4FCE010A96A2
:104250000E94890E8823F1F1B501D801D7968D917E
:104260009C910E941013F3018289858B8389868B30
:104270008489878B67E573E0C5010E94890E8823D6
:1042800041F0D30150968C9150978F7D8460509669
:104290008C93F301808985FF13C08F7D808BD801BB
:1042A000ED91FC910680F781E02DB401C8010995DC
:1042B000F30180898062808BBFEFEB1AFB0A8BCF02
:1042C000D801ED91FC910680F781E02DB401C80181
:1042D0000995F2CFAE01465F5F4FB601CE01019660
:1042E0000E94B71489819A810E945613F301908924
:1042F00080FF0BC09061908BAE01465F5F4FB401B1
:10430000C8010E943716432CD7CF9F7E908BF4CFE5
:10431000411014CFF80164817581CE0101960E948D
:10432000BE13AE014F5F5F4F05CF1F920F920FB6C6
:104330000F9211242F933F934F935F936F937F932B
:104340008F939F93AF93BF93EF93FF9385EA92E090
:104350000E94C301FF91EF91BF91AF919F918F9107
:104360007F916F915F914F913F912F910F900FBE71
:104370000F901F9018951F920F920FB60F92112455
:104380002F938F939F93EF93FF93E091B502F0915A
:10439000B6028081E091BB02F091BC0282FD1BC09D
:1043A00090818091BE028F5F8F732091BF02821730
:1043B00041F0E091BE02F0E0EB55FD4F958F809308
:1043C000BE02FF91EF919F918F912F910F900FBEA1
:1043D0000F901F9018958081F4CF1F920F920FB607
:1043E0000F9211242F933F938F939F93AF93BF937B
:1043F0008091F1019091F201A091F301B091F4014B
:104400003091F00126E0230F2D3758F50296A11DBB
:10441000B11D2093F0018093F1019093F201A093DC
:10442000F301B093F4018091F5019091F601A09110
:10443000F701B091F8010196A11DB11D8093F5011E
:104440009093F601A093F701B093F801BF91AF915B
:104450009F918F913F912F910F900FBE0F901F90C2
:10446000189529E8230F0396A11DB11DD2CF1F92E5
:104470000F920FB60F9211242F933F934F935F9398
:104480006F937F938F939F93AF93BF93EF93FF931C
:10449000E0910201F09103010995FF91EF91BF9125
:1044A000AF919F918F917F916F915F914F913F91CC
:1044B0002F910F900FBE0F901F9018951F920F9283
:1044C0000FB60F9211242F933F934F935F936F93E7
:1044D0007F938F939F93AF93BF93EF93FF93E0915D
:1044E0000001F09101010995FF91EF91BF91AF910A
:1044F0009F918F917F916F915F914F913F912F91FC
:104500000F900FBE0F901F9018951F920F920FB62D
:104510000F9211242F933F934F935F936F937F9349
:104520008F939F93AF93BF93EF93FF938091B900C5
:10453000887F803609F44AC0F0F5883209F4A7C0B4
:1045400018F5803109F49BC0B8F4882309F4F9C048
:10455000883009F494C0FF91EF91BF91AF919F9182
:104560008F917F916F915F914F913F912F910F901C
:104570000FBE0F901F901895883109F488C08032C3
:1045800051F78093790214C0803409F49DC040F43F
:104590008033B9F38833F9F68093790285ECB0C0A3
:1045A000803509F485C0883509F496C0883499F6B9
:1045B0000E949712D0CF883909F48CC038F588371B
:1045C00029F050F4883611F0803729F683E0809383
:1045D0007B021092EF0157C0883809F47BC0803904
:1045E00019F0803809F0B7CF8091EF01803208F0E0
:1045F00071C0E091EF0181E08E0F8093EF01809117
:10460000BB00F0E0E153FE4F80833DC0803B39F0BA
:10461000E0F4803A09F479C0883A09F09CCF84E04C
:1046200080937B021092CE011092CD01E091FB01AC
:10463000F091FC0109958091CD0181110FC081E0BD
:104640008093CD011092AD0109C0803C09F4A6CF42
:10465000883C09F4A3CF883B09F07DCFE091CE01DF
:1046600081E08E0F8093CE01F0E0E355FE4F808114
:104670008093BB009091CE018091CD0129C08091A3
:1046800056028093BB0085EC8093BC0064CF909170
:10469000780280917702981758F5E091780281E0CE
:1046A0008E0F80937802F0E0E95AFD4F8081E9CFC8
:1046B000E091780281E08E0F809378028091BB00B8
:1046C000F0E0E95AFD4F8083909178028091770263
:1046D0009817C8F285E8D8CFE091780281E08E0F74
:1046E000809378028091BB00F0E0E95AFD4F80830F
:1046F00080917A0281115CCF81E08093550284EA37
:104700008093BC0010927B0226CF85EC8093BC0086
:1047100010927B028091EF01803230F4E091EF0142
:10472000F0E0E153FE4F10826091EF0170E0E09104
:10473000FD01F091FE018FEC91E009951092EF01DF
:104740000ACF1092790234CF1F920F920FB60F92B8
:1047500011248F930FB6F894A8958091600088611A
:1047600080936000109260000FBE8F910F900FBE7B
:104770000F901F9018951F920F920FB60F92112451
:104780002F933F934F935F936F937F938F939F9359
:10479000AF93BF93CF93DF93EF93FF93CEE4D3E038
:1047A00060E089810E94A4021092B1006A817B813D
:1047B0008C819D810E9424306093B30081E08E83C0
:1047C000FF91EF91DF91CF91BF91AF919F918F9129
:1047D0007F916F915F914F913F912F910F900FBEFD
:1047E0000F901F9018951F920F920FB60F921124E1
:1047F0000F900FBE0F901F9018951F920F920FB63B
:104800000F9211242F933F934F935F936F937F9356
:104810008F939F93AF93BF93EF93FF93EAE5F3E0FA
:1048200084818F5F8483CF010E946711FF91EF9194
:10483000BF91AF919F918F917F916F915F914F91B8
:104840003F912F910F900FBE0F901F9018951F92C0
:104850000F920FB60F9211242F933F934F935F93B4
:104860006F937F938F939F93AF93BF93EF93FF9338
:104870008FE593E00E946711FF91EF91BF91AF9197
:104880009F918F917F916F915F914F913F912F9168
:104890000F900FBE0F901F9018951F920F920FB69A
:1048A0000F9211242F933F934F935F936F937F93B6
:1048B0008F939F93AF93BF93CF93EF93FF9399B150
:1048C000C09101028091310230912E02292F209552
:1048D00023238923822B20916D00C927C223C8235B
:1048E00090930102CC23C1F1C0FF05C0E091020208
:1048F000F09103020995C1FF05C0E0910402F09117
:1049000005020995C2FF05C0E0910602F091070279
:104910000995C3FF05C0E0910802F09109020995CD
:10492000C4FF05C0E0910A02F0910B020995C5FF92
:1049300005C0E0910C02F0910D020995C6FF05C07B
:10494000E0910E02F0910F020995C7FF05C0E091BA
:104950001002F09111020995FF91EF91CF91BF9153
:10496000AF919F918F917F916F915F914F913F9107
:104970002F910F900FBE0F901F9018951F920F92BE
:104980000FB60F9211242F933F934F935F936F9322
:104990007F938F939F93AF93BF93CF93EF93FF93A7
:1049A00096B1C09112028091320230912F02292FCC
:1049B000209523238923822B20916C00C927C223B1
:1049C000C82390931202CC2351F1C0FF05C0E0919F
:1049D0001302F09114020995C1FF05C0E091150280
:1049E000F09116020995C2FF05C0E0911702F091FF
:1049F00018020995C3FF05C0E0911902F0911A024F
:104A00000995C4FF05C0E0911B02F0911C020995B5
:104A1000C5FF05C0E0911D02F0911E020995FF91AE
:104A2000EF91CF91BF91AF919F918F917F916F91B6
:104A30005F914F913F912F910F900FBE0F901F905C
:104A400018951F920F920FB60F9211242F933F9338
:104A50004F935F936F937F938F939F93AF93BF9386
:104A6000CF93EF93FF9393B1C091210280913302D2
:104A700030913002292F209523238923822B2091E6
:104A80006B00C927C223C82390932102CC2351F184
:104A9000C0FF05C0E0912202F09123020995C1FFF9
:104AA00005C0E0912402F09125020995C2FF05C0DE
:104AB000E0912602F09127020995C3FF05C0E0911D
:104AC0002802F09129020995C4FF05C0E0912A024D
:104AD000F0912B020995C5FF05C0E0912C02F091E1
:104AE0002D020995FF91EF91CF91BF91AF919F91C9
:104AF0008F917F916F915F914F913F912F910F9087
:104B00000FBE0F901F9018958F929F92BF92CF92D9
:104B1000DF92EF92FF920F931F93CF93DF93E5EA1B
:104B2000F2E01382128288EE93E0A0E0B0E084838A
:104B30009583A683B78322E131E03183208325EC7E
:104B400030E03587248724EC30E03787268720EC57
:104B500030E0318B208B21EC30E0338B228B22EC48
:104B600030E0358B248B26EC30E0378B268B118E92
:104B7000128E138E148EE2E4F3E013821282848389
:104B80009583A683B78384E291E09183808310921A
:104B90005503E7E5F3E0128211821082EFE5F3E0BE
:104BA0001182108213821282EAE5F3E011821082F0
:104BB000138212821482EBEDF4E001E010E0118325
:104BC000008313830283158304831783068385E0A0
:104BD000E82EF12CF186E08613861286158614865F
:104BE00096E7C92ED12CD786C686E1E7F4E0158278
:104BF00014821782108611868AE991E0938382835A
:104C0000128A138A148A158ABB24B394B09277044B
:104C1000118E108E10928B04138E148E158E168E9C
:104C2000178E11A210A212A213A214A215A28EE82E
:104C300091E0978B868B88EC90E097A386A313A6D0
:104C400012A615A616A617A684E891E091A780A73C
:104C500010AAB0929D0412AA16AA15AA10AE11AEFF
:104C600012AE8AE791E094AB83AB13AEB092A80486
:104C700014AE15AE16AE80EB94E00E946C0ECBE73E
:104C8000D3E086E591E0998388831B821A8285EBC5
:104C900093E09D838C831E82198618861F821A8654
:104CA00086E893E00E946C0E80E290E09EAB8DABB4
:104CB00026EF31E038AF2FABB9AE9BAF8AAF8FEFA5
:104CC0008EAF1092BB031092BA031092BC031092E5
:104CD000BE031092BD031092C0031092BF0382E680
:104CE00091E0998388831092CA031092C903EBEC78
:104CF000F3E080818E7F8D7F80831092CC031092B1
:104D0000CE031092CD031092C4031092C3031092ED
:104D1000C50380E797E1A0E08093C6039093C703A3
:104D2000A093C80321EC822E23E0922E8CE491E024
:104D3000F401918380838FEC93E00E946C0E1092BB
:104D4000FA031092F9031092FC031092FB031092E5
:104D5000FD031092FE031092FF03109200041092C4
:104D600001041092020410920404109203041092A1
:104D7000060410920504B09207041092080460E043
:104D800089E094E00E947C0C82E29CEF90931804EE
:104D9000809317041092210410922304109222048D
:104DA00010922504109224041092270410922604D5
:104DB0001092280410932C0400932B0410932E04BB
:104DC00000932D041093300400932F0410933204A9
:104DD00000933104F0923404E092330484E090E0D4
:104DE000909336048093350410923804109237045F
:104DF00010925B042CE331E030932A0420932904C1
:104E000010935D0400935C0410935F0400935E04B0
:104E10001093610400936004109363040093620490
:104E2000F0926504E09264049093670480936604B2
:104E30001092690410926804D0926B04C0926A04C4
:104E400010926C0410926D0410926E0410926F0414
:104E5000109270049DAE8CAE8EE691E099838883AB
:104E6000E3E6F3E013821282109267031582168242
:104E70001782ABE6B3E08C91887F816088608C9369
:104E800011861786168610927303118A128A138A66
:104E900086E391E095878487F58BE48B84EA91E043
:104EA00091838083D78BC68B8CE291E09387828736
:104EB000DF91CF911F910F91FF90EF90DF90CF90F6
:104EC000BF909F908F900895CF93DF93CDB7DEB7BB
:104ED0002C970FB6F894DEBF0FBECDBF789484B583
:104EE000826084BD84B5816084BD85B5826085BDE6
:104EF00085B5816085BD80916E00816080936E0074
:104F00001092810080918100826080938100809165
:104F10008100816080938100809180008160809316
:104F200080008091B10084608093B1008091B000D6
:104F300081608093B00080917A00846080937A00D1
:104F400080917A00826080937A0080917A008E7FCF
:104F500080937A0080917A00806880937A00109222
:104F6000C1008091B5039091B6039C01265F3F4F2D
:104F70003C872B87D12CCC24C39424EF422E55247C
:104F80005394612C8091B403D81608F07AC1ED2DAA
:104F9000F0E0EE0FFF1FE954FC4FE080F180D39466
:104FA000EBE7F3E0D7011996FC93EE9318971B9665
:104FB000DC921B972B853C851D963C932E931C976A
:104FC000C701895B9F4F9A8789875C019FEFA91A68
:104FD000B90A63E0C5010E947C0C8701085B1F4F82
:104FE000D8011D968C91811152C0C5010E94F71104
:104FF000882309F44CC060EFC5010E94300C88245E
:105000008394312C212C99249394C5010E94DD0BAB
:10501000782EC5010E94DD0BB1E07B1291C081307A
:1050200009F0B0C0E0E4E91590F5D8011B962C9288
:105030001B97211002C01D96CC92F8018381882312
:1050400031F189859A854196D701A55BBF4FFC0157
:1050500029853A85275E3F4F4D914193E217F3072B
:10506000D9F767E00E94C60BA985BA8558969C912E
:1050700089130DC0F701E85AFF4F8081803121F07C
:10508000883211F0823219F4E985FA85C082D8019C
:105090001B961C921B971D961C921D971C961C928A
:1050A0001C971A961C921A9719961C921997189683
:1050B0001C92189717961C92179716961C92169783
:1050C00015961C92159714961C92149713961C9281
:1050D0008701005A1F4F109200021092FF01109298
:1050E00082021092A4020E942409E1E3F1E0F0930D
:1050F000FC01E093FB0122E331E03093FE012093B9
:10510000FD018BE0782E580138E0A30EB11C470159
:1051100088E6880E911CC5010E946A08D401D296C7
:105120009C91992311F0811144C07A94772009F45D
:1051300040C064E670E080E090E00E943303EBCF73
:10514000E32DF0E0781214C0D8011B968C911B97C8
:105150009816B0F4AE0FBF1F13968C91882191F46E
:10516000712CB8E0B91518F0D8011C969C92292C26
:10517000E00FF11F8381982D9095892383830AC0C6
:105180008911EECFF801E30DF11D83818829838316
:1051900077247394672DC5010E94010C9394880CA9
:1051A00019F4339488248394B7E0B31508F02DCF15
:1051B00039CFF40180A991A98835910509F455C02A
:1051C0008036910561F4D801CC926BED74E0C50195
:1051D0000E94600870E060E0C8010E94B51D109256
:1051E00000021092FF010E94240921E331E0309374
:1051F000FC012093FB0182E391E09093FE018093F8
:10520000FD011AE091E090938102AAE4A093A30229
:10521000109282021092A4020E946309811128C098
:10522000F701E555FF4FC082B1E0B09381021092C3
:1052300082021092A40282E090E00E94A10B83E01F
:1052400090E00E94A10B0E946309F70145825682FB
:105250006782B7018FE593E00E94EF0E2B853C85B6
:105260002B5D3F4F3C872B878DCEF801C082ADCFA1
:1052700064E670E080E090E00E943303115011F684
:10528000E4CF60E090E080E00E945A0E8C01B6E628
:10529000EB2EB1E0FB2EF7016491C8010E945A0E7B
:1052A0008C01FFEFEF1AFF0A20E7E21621E0F20679
:1052B00091F7FF24F3948091B4038F1548F1C090C7
:1052C000B703D090B80380E00E94CA0D682FC801D0
:1052D0000E945A0E8C01B601685F7F4F40E0CE01FC
:1052E00001960E94D90D80E00E943301682FC80109
:1052F0000E945A0E8C0180E00E94BC0D682FC801EC
:105300000E945A0E66E00E945A0E8C01F394D3CF8D
:1053100044E050E070E060E0CE0105960E94B32EBC
:10532000C801B0E0A0E0AE6FBA6C89839A83AB830A
:10533000BC834D815E816F81788584179507A607B0
:10534000B70709F46BC044E050E070E060E0CE01C4
:1053500001960E94C32E6AE070E08091B50390919F
:10536000B6030E944A1285E00E942A0E8F3FC9F0C0
:10537000082F10E08091B5039091B603800F911F24
:105380000E9456136091B5037091B603600F711FB0
:105390008F738064898341E050E0CE0101960E94C2
:1053A000C32E66E182E10E942A1266E084E10E9437
:1053B0002A1262E080E20E942A12882321F068E526
:1053C00081E20E942A1260E082E20E942A1288236F
:1053D00021F060E083E20E942A1210E08091B40381
:1053E0001817E0F4E12FF0E0EE0FFF1FE954FC4F37
:1053F000E080F18065E270E0D7011C968D919C9170
:105400000E944A12F70164857585198241E050E0D7
:10541000CE0101960E94C32E1F5FE0CF81E794E08A
:1054200090937E0380937D031B821A821982BE01B2
:105430006F5F7F4F8091B2039091B3030E9410136E
:1054400089819A810E949F2E84E08093850461E087
:105450000E94D20283E794E00E94D00DE89884E491
:1054600091E0909301018093000182EA94E090938F
:10547000FA018093F90160E082E00E94D20261E0CB
:105480008AE00E94D20261E08BE00E94D20260E0DA
:105490008CE00E94D20261E08DE00E94D20280E5A1
:1054A0008CBD61E08AE00E94A40261E08DE00E9470
:1054B000A40260E08BE00E94A4020E94060D0E94FC
:1054C000000D0E94FC0CF5E8FA95F1F700000E942F
:1054D000060D0E94000D80E30E94F60C0E94000D54
:1054E0000E94FC0C02E311E076E6E72E71E0F72E55
:1054F000F80131966491F801849143E00E946D12A5
:105500000E5F1F4FE016F10699F783E30E94200D0E
:105510008FEA93EB0197F1F700C0000043E060ECE5
:105520008EE30E946D128EEE9DE0909301018093B8
:105530000001809169008C7F826080936900E89A05
:1055400080E180938100109280001092850010927B
:10555000840080E49CE9909387008093860081E139
:10556000809381000E946A0D66E070E083E794E01A
:105570000E94E4120E949A2E8C0184EA94E00E9418
:105580003710C8016CEA7DE00E9476339C012851F7
:105590003C4FA4E6B0E00E942F2F28EE33E040E01D
:1055A00050E00E940D2F2093A9043093AA04409349
:1055B000AB0481E08093AC0464EA74E08FE593E08F
:1055C0000E94EF0E61E089E00E94D20260E089E073
:1055D0000E94A40260E08EE00E94D20260E08EE0B1
:1055E0000E94A4028091970490919804813D974075
:1055F00030F080ED97E0909398048093970487E8CB
:1056000080937A0010927B00E0918704F0918804E7
:105610000680F781E02D87E894E009959093920445
:105620008093910480E09BEEA1E4B0E0809393042A
:1056300090939404A0939504B093960480938C0463
:1056400090938D04A0938E0467E874E08FE593E057
:105650000E94EF0E86E180938F0484E18093900492
:105660008091B0036CEFE62EE80E855090E0049632
:105670000E945613D82E00E01EE5EE2DE150FF0BE0
:105680007F01802F90E08E159F0534F404960E94D0
:10569000561318270F5FF5CF1D111DC084E090E051
:1056A0000E945613182F85E090E00E945613082F91
:1056B00080EA810F8B3078F443E061E28DE00E9454
:1056C0006D1243E0612F8EE00E946D1243E0602F67
:1056D0008FE00E946D1288E080936C0362E00E946C
:1056E000D202EAEAF1E08491E6E9F1E094919230A5
:1056F00009F0C4C020913302282B2093330220915B
:105700003002282B20933002E2E8F1E0A49192309D
:1057100009F0C2C0B0E0AA0FBB1FAE5DBD4F28E0CC
:1057200031E12D933C93E4E7F1E0A591B4919C9194
:10573000909321022BE630E03093200220931F0249
:1057400090916800916090936800A0911F02B091C1
:105750002002EC918E2B8C938BE793E00E94141423
:105760009091B40381E0981708F0CFC01EE0F12CAF
:105770000E941910082F8111CAC0F11004C00E94A4
:1057800019108111C6C080917D0390917E03DC01C8
:10579000DC962C91222319F166E873E0C1960E94F1
:1057A00092158A30E0F01B821A821982BE016F5F67
:1057B0007F4F8091B2039091B3030E941013BE01FA
:1057C0006F5F7F4F8AE893E00E94890E811107C0C6
:1057D00066E873E08BE793E00E94B818082FEE2488
:1057E000E39480E1B82E92E2A92E26E0922E8091D9
:1057F000B4038E1508F48FC0C090B703D090B803DF
:10580000F601828580FB882480F880FF35C00091F6
:1058100081030F5F0093810360917F037091800388
:10582000CE0101960E94BE13E0917D03F0917E03AC
:1058300082A9D6011B969C9110938603B09289038E
:10584000A092880390929003009387039093910312
:10585000109292031092930380939403AE014F5FD2
:105860005F4F66E873E08BE793E00E943716F6011E
:1058700082858E7F8287082DE394B9CF933009F01B
:10588000FBC120913202282B2093320220912F025B
:10589000282B20932F0238CF9330D1F4B0E0AA0FF9
:1058A000BB1FAD5EBD4F28E031E12D933C93E6E791
:1058B000F1E0A591B4919C91909312022CE630E016
:1058C0003093200220931F029091680092603BCF9A
:1058D000943009F03ACFB0E0AA0FBB1FAE5FBD4FC6
:1058E00028E031E12D933C93E8E7F1E0A591B491F4
:1058F0009C91909301022DE630E03093200220939A
:105900001F029091680094601ECF8F5F2CCFF02E05
:105910002FCFF82E34CFF11090C101118EC180919C
:1059200091049091920464E670E00E946233809149
:10593000900486171706A9F0A0F08091AF0481119A
:1059400005C00E94CF1281E08093AF0430E020E0D8
:1059500050E040E06AE070E084E392E00E94A80C2E
:10596000F5CF8091A104811175C180916F008E7F68
:1059700080936F008FE593E00E94CA0E009709F4B0
:10598000A4C0FC01329709F4A0C0C580D680E7808E
:10599000F12C81E693E00E94CA0E892B09F092C097
:1059A000F1E0CF16D104E104F10409F4E3C08091E1
:1059B000AF04811105C00E94CF1281E08093AF0433
:1059C00021E2C21623E0D206E104F10408F081C00E
:1059D00031E9C31631E0D306E104F10408F082C0D6
:1059E00089ECC816D104E104F10408F084C095E6FE
:1059F000C916D104E104F10408F085C0A3E3CA1676
:105A0000D104E104F10408F086C0BAE1CB16D10458
:105A1000E104F10408F087C0EDE0CE16D104E10402
:105A2000F10408F088C0F7E0CF16D104E104F104D6
:105A300008F089C024E0C216D104E104F10408F0A2
:105A40008AC032E0C316D104E104F10408F08BC02F
:105A50006AE070E0C12CD12C760130E020E050E00B
:105A600040E084E392E00E94A80C8FE593E00E945E
:105A7000CA0E009719F1FC01329701F181E0C81AB2
:105A8000D108E108F10885819681A781AC016A2FD0
:105A900070E041505109610971094C155D056E05B1
:105AA0007F0530F46C01EA2EB1E0CB1AD108E10891
:105AB0008C199D09AE0985839683A7838FE593E0B2
:105AC0000E9467110E946A0DB8C0C12CD12C7601CA
:105AD00060CF69E070E0B0E2CB2EB3E0DB2EE12CCA
