:100000000C94F9020C9482260C945B260C944529DE
:100010000C94E2280C9471280C94C8270C94DF27C8
:100020000C9421030C9421280C9421030C9421039B
:100030000C9421030C944B280C9421030C94210361
:100040000C9411260C9421030C94DF250C94B925F3
:100050000C9421030C9417280C9421030C94210375
:100060000C94A9260C94210307634236B79BD8A7AA
:100070001A39685618AEBAAB558C1D3CB7CC5763CD
:10008000BD6DEDFD753EF6177231BF000000803F7B
:1000900008000000BE922449123EABAAAA2ABECD97
:1000A000CCCC4C3E00000080BEABAAAAAA3E000009
:1000B0000000BF000000803F000000000008417801
:1000C000D3BB4387D1133D190E3CC3BD4282AD2B38
:1000D0003E68EC8276BED98FE1A93E4C80EFFFBE30
:1000E00001C4FF7F3F0000000000300030300030CE
:1000F0003030003030303000303030303000303090
:10010000303030300030303030303030002000209F
:100110002D2000200020002000200020002000745E
:100120006D42617474657279204572726F720074E9
:100130006D4261747465727920566F6C7461676585
:100140003A2000424D453238302048756D69646967
:1001500074792020202020202020203A2000424DA9
:10016000453238302050726573737572654E4E207B
:100170007831302020203A2000424D45323830205E
:10018000507265737375726520783130202020209D
:10019000203A2000424D453238302054656D70655C
:1001A0007261747572652078313020203A20000D1C
:1001B0000A004552524F523A204453313878323077
:1001C0002063726300445331387832302020546504
:1001D0006D7065726174757265202020203A200070
:1001E0004D41583434303039204272696768746E3A
:1001F00065737320783130303A2000616C74697413
:100200007564653A20007570644379636C653A20C3
:10021000007472616E736D69744465765472794DC1
:1002200061783A20006C6F774261744C696D697433
:100230003A20006C65644D6F64653A2000436F6E30
:10024000666967204368616E6765643A204C69732C
:100250007430000D0A000D0A000D0A000D0A002D71
:100260003E2000007761697441636B3A20003C2DA9
:10027000200000206C6F6E6772656C656173656449
:1002800000206C6F6E677072657373656400206424
:1002900065626F756E636500207072657373656467
:1002A000002072656C656173656400424F4F544C69
:1002B0004F41444552004841564520444154410075
:1002C00069676E6F726520002D3E2000746D42617B
:1002D00074746572794C6F6164204572726F72003C
:1002E000746D426174746572794C6F616420566FED
:1002F0006C746167653A2000524553455400506163
:10030000636B657420746F6F206269673A200043E5
:100310005243204661696C656400005EBCE2613F47
:10032000DD83C29C7E20A3FD1F41009D23BE46DBD2
:1003300065F88C11AF32CA57E97400000000240040
:1003400027002A0000000000250028002B000000E4
:100350000008000201000003040700000000000084
:100360000000436F6E66696720467265713A2030FF
:10037000783231004261747465727920736574203B
:10038000637269743A2000426174746572792073F3
:100390006574206C6F773A202000202D20726561F3
:1003A00064790043432056657273696F6E3A20008A
:1003B000002E0206030D04E905CA070C0B060D21E9
:1003C0000E650F6A10C8119312031534170318181D
:1003D00019161B431E2F1F65207823E9242A251F89
:1003E00026113E033100434320696E6974000D0AF3
:1003F00000496E69742053746F726167653A20001A
:100400000A0B0C05121420212223202D2000416408
:1004100064726573732053706163653A20004453BE
:10042000313878323020666F756E643A200045525C
:10043000524F523A206E6F20445331387832302078
:10044000666F756E64004453313878323020636FC4
:10045000756E743A2000424D5032383020666F7508
:100460006E6420284E6F2048756D69646974792028
:10047000617661696C61626C6529004572726F72A8
:100480003A206E6F20424D453238302F424D503267
:1004900038302073656E736F7220666F756E6400FE
:1004A000424D4532383020666F756E640045727279
:1004B0006F723A204D41583434303039206E6F74A9
:1004C00020666F756E64004D4158343430303920E9
:1004D000666F756E64000D0A00436C6F636B20538A
:1004E0005953434C4F434B0053657269616C3A203A
:1004F0000053656E736F7220736574757020646F3E
:100500006E650000010203040506070001020304F2
:100510000500010203040541736B53696E2B2B2008
:1005200056342E312E37202844656320323920324C
:100530003032302031373A33343A34342900000035
:100540000000000000000214050500000000020188
:100550000A01000000000000000000000000000090
:10056000000000000000060305010101010A060168
:1005700001010501050A0206020200000000050152
:100580000804040404000D0A0020726561643A2026
:10059000002065787065637465643A200045727266
:1005A0006F722061742000000000002300260029E3
:1005B000000404040404040404020202020202030C
:1005C0000303030303010204081020408001020416
:1005D000081020010204081020A5A510554E49530B
:1005E000454E5330313000F1031370010100A8294A
:1005F000FF3211241FBECFEFD8E0DEBFCDBF11E028
:10060000A0E0B1E0EAE2F6E702C005900D92A83B57
:10061000B107D9F725E0A8EBB1E001C01D92A530E4
:10062000B207E1F712E0C8EFD2E004C02197FE0163
:100630000E94C239C73FD107C9F70E94B62B0C945C
:10064000083B0C940000089508958FEF08956630DC
:1006500050F4FC01808191810296F6E06F9F800D3D
:10066000911D1124089590E080E008950895AF92BF
:10067000BF92CF92DF92EF92FF920F931F93CF938F
:10068000DF936C017B018B01040F151FEB015E01F1
:10069000AE18BF08C017D10759F06991D601ED9186
:1006A000FC910190F081E02DC6010995892B79F725
:1006B000C501DF91CF911F910F91FF90EF90DF90D7
:1006C000CF90BF90AF900895FC01538D448D252F9E
:1006D00030E0842F90E0821B930B541710F0CF96DC
:1006E000089501970895FC01918D828D981761F00E
:1006F000A28DAE0FBF2FB11D5D968C91928D9F5F25
:100700009F73928F90E008958FEF9FEF0895FC0103
:10071000918D828D981731F0828DE80FF11D858DB6
:1007200090E008958FEF9FEF0895FC01918D228D49
:10073000892F90E0805C9F4F821B91098F739927CE
:10074000089586EB92E00E94950321E0892B09F43D
:1007500020E0822F089580E090E0892B29F00E940C
:10076000A10381110C9400000895FC01A48DA80F31
:10077000B92FB11DA35ABF4F2C91848D90E00196E3
:100780008F739927848FA689B7892C93A089B18903
:100790008C91837080648C93938D848D981306C0A4
:1007A0000288F389E02D80818F7D80830895EF9208
:1007B000FF920F931F93CF93DF93EC0181E0888F1B
:1007C0009B8D8C8D98131AC0E889F989808185FFEB
:1007D00015C09FB7F894EE89FF896083E889F9898D
:1007E00080818370806480839FBF81E090E0DF918F
:1007F000CF911F910F91FF90EF900895F62E0B8DE2
:1008000010E00F5F1F4F0F731127E02E8C8D8E119C
:100810000CC00FB607FCFACFE889F989808185FF03
:10082000F5CFCE010E94B503F1CFEB8DEC0FFD2F7C
:10083000F11DE35AFF4FF0829FB7F8940B8FEA89BE
:10084000FB8980818062CFCF0F931F93CF93DF937B
:100850008C01D0E0C0E0F801EC0FFD1F649166232D
:1008600041F086EB92E00E94D703892B11F021968C
:10087000F2CFCE01DF91CF911F910F910895CF93C9
:10088000DF93EC01888D8823B9F0AA89BB89E889B8
:10089000F9898C9185FD03C0808186FD0DC00FB65E
:1008A00007FCF7CF8C9185FFF2CF808185FFEDCFDC
:1008B000CE010E94B503E9CFDF91CF910895833037
:1008C00081F028F4813099F08230A9F008958730C2
:1008D000A9F08830C9F08430B1F4809180008F7D18
:1008E00003C0809180008F7780938000089584B545
:1008F0008F7784BD089584B58F7DFBCF8091B00044
:100900008F778093B00008958091B0008F7DF9CFEC
:10091000CF93DF93282F30E0F901E25BFC4F849105
:10092000F901EB53FA4FD491F901EF54FA4FC49106
:10093000CC23A1F081110E945F04EC2FF0E0EE0FB8
:10094000FF1FE955FA4FA591B491EC91ED2381E099
:1009500090E009F480E0DF91CF91089580E090E08D
:10096000FACF1F93CF93DF93282F30E0F901E25B9A
:10097000FC4F8491F901EB53FA4FD491F901EF54F4
:10098000FA4FC491CC23A9F0162F81110E945F0465
:10099000EC2FF0E0EE0FFF1FEC5BFC4FA591B49144
:1009A0008FB7F894EC91111108C0D095DE23DC9339
:1009B0008FBFDF91CF911F910895DE2BF8CFCF939A
:1009C000DF9390E0FC01EB53FA4F24918F549A4F40
:1009D000FC0184918823C9F090E0880F991FFC01E5
:1009E000E65CFC4FA591B491FC01EC5BFC4FC5911A
:1009F000D49161110DC09FB7F8948C9120958223FA
:100A00008C938881282328839FBFDF91CF910895FD
:100A1000623051F49FB7F8943C91822F80958323E4
:100A20008C93E8812E2BEFCF8FB7F894EC912E2B7F
:100A30002C938FBFEACF3FB7F89480910602909134
:100A40000702A0910802B091090226B5A89B05C033
:100A50002F3F19F00196A11DB11D3FBFBA2FA92F3D
:100A6000982F8827BC01CD01620F711D811D911D3A
:100A700043E0660F771F881F991F4A95D1F70895A5
:100A80008F929F92AF92BF92CF92DF92EF92FF929E
:100A90006B017C010E941B054B015C01C114D10458
:100AA000E104F104B9F00E941B05681979098A096B
:100AB0009B09683E73408105910580F321E0C21ACD
:100AC000D108E108F10888EE880E83E0981EA11C89
:100AD000B11CE4CFFF90EF90DF90CF90BF90AF902C
:100AE0009F908F9008958091100290911102891B20
:100AF000990B0895C3960895029608950F931F9336
:100B0000CF93DF93EC010A81802F8295880F807E3E
:100B10000E81000F000F082B8885082B1A85812F66
:100B20008295880F807E1C85110F110F182B8E85E2
:100B3000182BE881F9810680F781E02D4C8162EF66
:100B4000CE010995E881F9810680F781E02D402FDB
:100B500064EFCE010995E881F9810680F781E02DE7
:100B6000412F65EFCE01DF91CF911F910F91099435
:100B70002F923F924F925F926F927F928F929F92AD
:100B8000AF92BF92CF92DF92EF92FF920F931F939B
:100B9000CF93DF93CDB7DEB7C556D1090FB6F89422
:100BA000DEBF0FBECDBF1C0129967FAF6EAF299768
:100BB0008A012B963FAF2EAF2B97DC0118968D91B3
:100BC0009C91019719F4C1010E947E05D101ED911C
:100BD000FC910084F185E02D28E0AE014F5D5F4F70
:100BE00067EFC1010995FE01B196DE0111969E01E4
:100BF000275D3F4F419150E070E060E04D935D9381
:100C00006D937D93E217F307A9F7811133C080E05C
:100C100090E0A0ECBFE72B96EEADFFAD2B97808365
:100C20009183A283B383F80180839183A283B383EA
:100C30002996EEADFFAD299780839183A283B3837C
:100C4000CB59DF4F0FB6F894DEBF0FBECDBFDF919B
:100C5000CF911F910F91FF90EF90DF90CF90BF90B9
:100C6000AF909F908F907F906F905F904F903F904C
:100C70002F90089589809A80AB80BC8064968CAE5A
:100C80009DAEAEAEBFAE64978D809E80AF80B884BF
:100C900068968CAE9DAEAEAEBFAE689789849A84DE
:100CA000AB84BC846C968CAE9DAEAEAEBFAE6C9782
:100CB0002D853E854F855889ACE0220F331F441F98
:100CC000551FAA95D1F789899A89AB89BC8964E0B7
:100CD000880F991FAA1FBB1F6A95D1F7282B392BA4
:100CE0004A2B5B2B8D899E89AF89B88D74E0B595B1
:100CF000A795979587957A95D1F7282B392B4A2B6D
:100D00005B2B898D9A8DAB8DBC8DBA2FA92F982F17
:100D10008827CD8CDE8CEF8CF8A04C015D018C28EF
:100D20009D28AE28BF28A0968CAE9DAEAEAEBFAEBD
:100D3000A097D10150968D919C91B0E0A0E06901FF
:100D40007A01F4E0F594E794D794C794FA95D1F733
:100D5000C81AD90AEA0AFB0A63E055954795379500
:100D600027956A95D1F7880F991FAA1FBB1F281BCB
:100D7000390B4A0B5B0BF101A289B3890E94BA338C
:100D80004B015C01ABE0B594A79497948794AA9526
:100D9000D1F7A7019601C701B6010E94FB379B015D
:100DA000AC01BCE05595479537952795BA95D1F795
:100DB000A489B5890E94BA332EE0959587957795D9
:100DC00067952A95D1F775016401C60ED71EE81EF6
:100DD000F91EC9AEDAAEEBAEFCAEA5E0B0E0A701FD
:100DE00096010E94AF3360587F4F8F4F9F4F672F00
:100DF000782F892F992787FD9A950E940A3520E040
:100E000030E048EC52E40E946034D8016D937D9349
:100E10008D939C931397F101F48DA596FFAFA59741
:100E2000D1015D96BC912E96BFAF2E97F101F68D44
:100E3000A296FFAFA297D1015F96BC91BDAFF10121
:100E4000F0A1A196FFAFA197D1019196BC91BEAB45
:100E5000F101F2A1A496FFAFA497D1019396BC91A2
:100E60002D96BFAF2D97F101F4A1A396FFAFA397E5
:100E7000D1019596BC912C96BFAF2C97F101F6A1AC
:100E8000A696FFAFA697D1019796BC912F96BFAFBC
:100E90002F97FF0CCC08DC2C760129AD3AAD4BAD79
:100EA0005CAD6C2D7C2D8C2D9C2D345F4140510907
:100EB00061097109810991092BAB3CAB4DAB552EF2
:100EC0003B014C015901C42ED52E7B018C010E949F
:100ED0003F3821962FAF219722963FAF2297239636
:100EE0004FAF239724965FAF249725966FAF259732
:100EF00026967FAF269727968FAF279760969FAF4E
:100F00006097F101318D208D932F990F990B492F07
:100F1000592F692F792F892F0E943F380CE00E94AA
:100F20006E3929A73FAB442E58AF69AB7AAB8EAF71
:100F30009FAFD1015B963C915B975A962C91932F72
:100F4000990F990B2196AFAC21972296BFAC2297AF
:100F50002396CFAC23972496DFAC24972596EFAC4D
:100F600025972696FFAC269727960FAD2797609674
:100F70001FAD6097492F592F692F792F892F0E9414
:100F80003F3808E00E948739A9A4BFA8C42CD8AC78
:100F9000E9A8FAA80EAD1FAD0E94A43970588F4F72
:100FA0009F4FD1015696ED91FC915F01D12CC12C40
:100FB000E12CF12C8701E9A7BAA6CBA6DCA6EDA609
:100FC000FEA60FA718ABC12CD12CE12CF12C00E010
:100FD00010E00E943F3801E20E94873929A73FAB09
:100FE00048AF59AB6AAB7EAF8FAF492EA0E00E94ED
:100FF000B63909F463C2A1962FADA1979EA9990FA6
:10100000990B2196AFAC21972296BFAC22972396DD
:10101000CFAC23972496DFAC24972596EFAC259789
:101020002696FFAC269727960FAD279760961FADA3
:1010300060973EA9492F592F692F792F892F0E9438
:101040003F382EAB21963FAF219722964FAF229784
:1010500023965FAF239724966FAF249725967FAF93
:10106000259726968FAF269727969FAF2797A2960C
:101070002FADA2979DAD990F990BABA8BCA8CDA899
:10108000D52C730184013DAD492F592F692F792F3C
:10109000892F0E943F3801E10E946E39AEA8219647
:1010A000BFAC21972296CFAC22972396DFAC239733
:1010B0002496EFAC24972596FFAC259726960FAD86
:1010C000269727961FAD27970E94A43959016A01D8
:1010D0007B01582E192F68964CAD5DAD6EAD7FAD7E
:1010E000689734E0440F551F661F771F3A95D1F774
:1010F0006C968CAD9DADAEADBFAD6C97E4E0B59593
:10110000A79597958795EA95D1F7842B952BA62BD4
:10111000B72B64964CAD5DAD6EAD7FAD6497FCE0D2
:10112000440F551F661F771FFA95D1F7482B592B8F
:101130006A2B7B2B80E090E0A0E1B0E0841B950B54
:10114000A60BB70B3C014D01990C6608762C4301A8
:101150009C01AD01662D762D862D962D0FE10E9406
:101160006E3939014A01B62FA72FF82FE92FA5961E
:101170002FADA5972E969FAD2E97990F990B2E9672
:101180003FAD2E97492F592F692F792F892F03E2D1
:101190000E946E39052D0E94A43959016A017B0114
:1011A0008C019301A4016B2F7A2F8F2F9E2F0E9409
:1011B000AD39E5E3AE2EFCE0BF2EC12CD12CE12CE5
:1011C000F12C00E010E00E943F38A9A4BFA8C8ACF1
:1011D000D9A8EAA8FEAC0FAD142D0E9499382BAB0C
:1011E0003CAB4DAB59A76EAB7DAF8FAB98AF0DE06D
:1011F0000E94873929AB9AABA6962FADA6972F965A
:101200009FAD2F97990F990BA9A8B32EC42ED52E59
:10121000E62EF72E082F1AA92F963FAD2F97492FAC
:10122000592F692F792F892F0E943F380E943F380C
:1012300009E10E948739ABA8BCA8CDA8D9A4EEA823
:10124000FDAC0FA918AD0E94A43929AB3AAB2A0115
:101250003B014C01A3962FADA3972C969FAD2C97E5
:10126000990F990B2C963FAD2C97492F592F692F29
:10127000792F892F0E943F3803E10E948739590155
:101280006A017B018C0129A93AA9A201B301C40119
:101290000E94A43908E00E94873959016A017B0144
:1012A000E82F192FA4962FADA4972D969FAD2D97BB
:1012B000990F990B2D963FAD2D97492F592F692FD7
:1012C000792F892F04E00E946E390E2F0E94A439D5
:1012D000B901CA010E94083520E030E040E85BE334
:1012E0000E94EE3520E030E048EC52E40E94603489
:1012F0002996AEADBFAD29976D937D938D939C9349
:101300001397F10125A5C9ACDAACEBACFCACFCE25F
:10131000DF1AF1E0EF0AF108A0968CAC9DACAEAC00
:10132000BFACA0973EE0880C991CAA1CBB1C3A9548
:10133000D1F7D1019C968C91B0E18B9FC001112413
:10134000322F3F70832B092E000CAA0BBB0B44E1FC
:10135000880F991FAA1FBB1F4A95D1F7881A990AAF
:10136000AA0ABB0AF101A6A5F0E1AF9FD0011124A2
:1013700022952F70A22BA70196010E94BA33861ADC
:10138000970AA80AB90A00E4900EA11CB11C6FE0EC
:10139000B594A794979487946A95D1F7F101A3A582
:1013A000B0E00E94AF332B013C017BE07594679461
:1013B000579447947A95D1F7F0E85F0E611C711C41
:1013C000F101A7A50A2E000CBB0B0E94BA33AAE0BC
:1013D0009595879577956795AA95D1F7A301920181
:1013E0000E94FB379B01AC01BAE0559547953795B4
:1013F0002795BA95D1F7405E5F4FA1A5B2A50E948F
:10140000BA33705E8F4F9F4F1EE095958795779505
:1014100067951A95D1F7A50194010E94FB376B01DE
:101420007C010FE095958795779567950A95D1F79B
:101430009B01AC010E94FB379B01AC0187E05595F5
:101440004795379527958A95D1F7A0A5B0E00E94DA
:10145000AF3324E095958795779567952A95D1F7D1
:10146000C61AD70AE80AF90AF7FE03C0C12CD12C24
:101470007601C701B601613071058105F9E19F0769
:1014800024F060E070E080E099E12CE0959587958C
:10149000779567952A95D1F70E94083520E030E0CE
:1014A00040E85AE30E94EE352B96AEADBFAD2B97C8
:1014B0006D937D938D939C931397C2CB60E070E006
:1014C00080EC9FE715CF2EE0FB01DC011296019026
:1014D0000D922A95E1F70C947E0520E1FB01DC01D9
:1014E000D39601900D922A95E1F70C94630ACF925E
:1014F000DF92FF920F931F93CF93DF9300D000D022
:10150000CDB7DEB78C01DC01ED91FC910084F18553
:10151000E02D21E0AE014F5F5F4F60ED09958981BD
:10152000883509F45CC0803609F061C080E690E03F
:10153000F80191AB80ABD801ED91FC910084F1856D
:10154000E02D26E0A801405F5F4F68E8C8010995DB
:10155000F82ED801ED91FC910084F185E02D22E177
:10156000A8014A5E5F4F6EE8C8010995F822D801CC
:10157000ED91FC910084F185E02D21E0A801485D0A
:101580005F4F61EAC8010995F822D801ED91FC91FD
:101590000084F185E02D27E0A801475D5F4F61EEF3
:1015A000C8010995F822F801C484D584C114D10476
:1015B00091F015861486C8010E947E059E012F5F5A
:1015C0003F4FA901B901C8010E94B805D8011D9675
:1015D000DC92CE921C97C8010E947E050CC088E563
:1015E00090E0D801D1969C938E93D097A4CFF80128
:1015F00011AA10AAF12CF801F2AA8F2D0F900F90CA
:101600000F900F90DF91CF911F910F91FF90DF907E
:10161000CF9008952091DE01260F3327331F21320A
:101620003105ECF420918C02FC0190E080E0243044
:1016300069F082E00895A091DE012191AC0142544D
:101640005E4FA40FB52FB11D2C930196861798F30A
:101650008091DE01680F6093DE0180E0089581E0F3
:10166000089510928C0281E080938B0210926602A2
:1016700061E082E10E94B10461E083E10E94B10473
:10168000E9EBF0E080818E7F808380818D7F808395
:1016900080E28093B80085E48093BC000895CF93E6
:1016A000DF9391E09093BD018823B9F0C091B80019
:1016B000D091BA008091BC008A7B8093BC0060E02E
:1016C00082E10E94B10460E083E10E94B1040E94C3
:1016D000310BD093BA00C093B800DF91CF91089539
:1016E000CF92DF92EF92FF920F931F93CF93DF93EE
:1016F000D091B50281E0D13208F09CC0C091B40213
:101700000E941B056B017C0180918C0281116CC0D1
:1017100082E080938C0281E080938B028FEF809334
:101720008A0210928902D0938802A4E9B2E0E8E626
:10173000F2E080E0D8138DC01092670280916702BA
:10174000CC0FC82BC093670280916602813009F0EC
:1017500084C0109266020E941B056B017C0180917F
:1017600067028093BB0080918E0290918F02A091BE
:101770009002B0919102892B8A2B8B2BA1F00E94B1
:101780001B0500918E0210918F02209190023091E2
:1017900091026C197D098E099F0906171707280702
:1017A000390708F442C08091BC0083FDD8CF85EC96
:1017B0008093BC000E941B056B017C0180918C0210
:1017C000823009F44CC080918A028F3F09F469C0CD
:1017D00080918A02803209F466C080918A02803347
:1017E00009F463C084E026C080918E0290918F023C
:1017F000A0919002B0919102892B8A2B8B2B09F436
:1018000083CF0E941B0500918E0210918F022091C0
:101810009002309191026C197D098E099F0906177B
:1018200017072807390708F06FCF80918D020E94B3
:101830004F0B85E0109293021092B5021092920223
:10184000DF91CF911F910F91FF90EF90DF90CF909C
:1018500008959D9191938F5F6DCF85EEA9CF809173
:101860008E0290918F02A0919002B0919102892BEB
:101870008A2B8B2B09F4A2CF0E941B0500918E02AC
:1018800010918F0220919002309191026C197D0984
:101890008E099F09061717072807390708F08ECF0A
:1018A000C4CF80E0C7CF82E0C5CF83E0C3CF8F92A3
:1018B0009F92AF92BF92CF92DF92EF92FF920F93DF
:1018C0001F93CF93DF93D82FC62F142F613208F0C8
:1018D0009CC00E941B056B017C0180918C028111D0
:1018E0006FC081E080938C0210938B029FEF9093E6
:1018F0008A02109289029C0F90938802809367025B
:1019000080916702DD0FD82BD09367028091660229
:10191000813009F07CC0109266020E941B056B01A9
:101920007C01809167028093BB0080918E02909130
:101930008F02A0919002B0919102892B8A2B8B2B60
:10194000A1F00E941B0500918E0210918F02209140
:101950009002309191026C197D098E099F0906173A
:1019600017072807390708F44CC08091BC0083FD95
:10197000D8CF85EC8093BC000E941B056B017C01D5
:1019800080918C02813009F444C0809189028C17C7
:1019900010F4C0918902E8E6F2E0A6E4B2E080E04B
:1019A0008C1359C08C2FDF91CF911F910F91FF9015
:1019B000EF90DF90CF90BF90AF909F908F90089561
:1019C00080918E0290918F02A0919002B09191022D
:1019D000892B8A2B8B2B09F480CF0E941B058090CA
:1019E0008E0290908F02A0909002B09091026C199C
:1019F0007D098E099F0986169706A806B90608F084
:101A00006CCF80918D020E944F0BC0E0CBCF85EE52
:101A1000B1CF80918E0290918F02A0919002B091EF
:101A20009102892B8A2B8B2B09F4AACF0E941B05CC
:101A300000918E0210918F022091900230919102BC
:101A40006C197D098E099F090617170728073907A2
:101A500008F096CFD6CF91919D938F5FA1CF089537
:101A6000E091110280911002E81730F4F0E0EA5B97
:101A7000FD4F808190E008958FEF9FEF0895909142
:101A80001102809110022FEF3FEF981748F4E92FD1
:101A9000F0E0EA5BFD4F208130E09F5F9093110200
:101AA000C9010895CF92DF92EF92FF920F931F9397
:101AB000CF93DF937C01CB018A01209192022223F4
:101AC00089F0EB016B01C40ED51ECC15DD0569F064
:101AD0006991D701ED91FC910190F081E02DC70152
:101AE0000995F3CF642F0E940A0BC801DF91CF91B3
:101AF0001F910F91FF90EF90DF90CF900895CF93BB
:101B0000DF931F92CDB7DEB7698320919202222323
:101B1000F9F02091B502203258F021E030E0FC01CC
:101B20003383228390E080E00F90DF91CF9108957E
:101B300080919302E82FF0E0EC56FD4F998190835D
:101B40008F5F809393028093B50281E090E0ECCFA9
:101B500061E0CE0101960E940A0BF7CF682F83E562
:101B600093E00C947F0DCF93C42F8F5B9F4FFC01AC
:101B7000808191E0909392028093B402109293023C
:101B80001092B50283E593E00E947F0D6C2F83E5F0
:101B900093E00E947F0D0E94700B81E0CF91089529
:101BA00090E080E00895DC0180E0615090F09D912C
:101BB0009827E92FEF70F0E0E65EFC4F2491E92FC3
:101BC000E295EF70F0E0E65DFC4FE491822F8E2706
:101BD000ECCF0895DC012C911196ED91FC91F894D5
:101BE0008181822B81839281322F3095932392833E
:101BF00082E090E00197F1F781818323818380E186
:101C000090E00197F1F790817894E6E6F0E0319763
:101C1000F1F7922381E009F480E00895FC019081BE
:101C20000180F281E02D292F209560FF14C0F894E7
:101C30008281822382838181892B8183A0E1B0E02C
:101C40001197F1F78281982B928378948AE690E03D
:101C50000197F1F70895F89482818223828381812C
:101C6000892B8183AEE7B0E01197F1F78281982B41
:101C70009283789486E090E0EBCFEF92FF920F93FF
:101C80001F93CF93DF93EC01E62E08E010E0FF24D2
:101C9000F39461E08E2D8F2109F460E0CE010E9463
:101CA0000E0EFF0C01501109A1F7F894E981FA8199
:101CB00091818881809589238183E981FA8192814C
:101CC00088818095892382837894DF91CF911F91B9
:101CD0000F91FF90EF9008954115510529F4EAE71F
:101CE000F0E080818F7780836A307105B9F0CB0195
:101CF000880F991F880F991F807267706860682B22
:101D000088E10FB6F894A895809360000FBE6093A9
:101D10006000E0E6F0E0808180648083232BD9F4CA
:101D200083B7817F846083BFF89483B7816083BF6A
:101D300085B7806685BF8F7D85BF7894889583B78A
:101D40008E7F83BF7894452B29F4EAE7F0E0808109
:101D500080688083089583B7817F846083BFF8940F
:101D600083B7816083BF7894889583B78E7F83BF64
:101D70007894E9CF8EBD0DB407FEFDCF8EB50895E2
:101D800061E08AE00C94B1048CE00E948804811127
:101D9000FBCF089560E08AE00C94B104CF93C82F84
:101DA0000E94CA0E0E94C40E8C2F0E94BA0EC82F29
:101DB0000E94C00E8C2FCF91089586E30E94CE0E14
:101DC0008DE30E94CE0E8AE30C94CE0ECF93C82FE3
:101DD0000E94CA0E0E94C40E0E94C00EC1110E9431
:101DE000DD0E84E3CF910C94CE0ECF93DF93D82FEA
:101DF000C62F0E94CA0E0E94C40E8D2F8C2B0E94EB
:101E0000BA0E80E00E94BA0EC82F0E94C00E8C2F1E
:101E1000DF91CF910895BC0190E080E00E944005E1
:101E200084E090E030E020E060E170E040917A00F2
:101E3000406440937A0042E350917A0056FF08C014
:101E4000FB013197F1F74150B9F790E080E0089538
:101E500040917800509179005370240F351F0197FD
:101E600029F7C9019695879596958795237033270D
:101E70002230310560F301960895EFE6F0E08081AD
:101E80008160808308958A3030F4E82FF0E0E050DC
:101E9000FC4F849108958FEF0895FC0110860895FA
:101EA0000895813011F08FEF089580E00895882320
:101EB00011F08FEF089581E008958FEF0895883035
:101EC00011F08FEF089580E00895882311F08FEFCF
:101ED000089588E00895FC018289938961E0911159
:101EE00001C060E00C94B104CF93DF93EC01CB010F
:101EF000463058F4642F04960E9427030496998371
:101F00008883CE01DF91CF91089590E080E0F7CFF4
:101F10000895E0910A02F0910B028485811102C0BC
:101F200081E0838708950895089580E008950895D5
:101F30000F931F93CF93DF9322E631E0FC013183AF
:101F400020838C010A5B1F4F81F0EC01C550DF4FED
:101F50000C171D0751F0C55BD109E881F98102809A
:101F6000F381E02DCE010995F3CFDF91CF911F9141
:101F70000F9108950895089508950C9424040E94E3
:101F8000BD0F8CE592E00C94BD0F0F931F93CF9380
:101F90008C01C62F8EE892E06430A1F058F481EAFB
:101FA00092E0623079F088E992E0633059F082E79C
:101FB00092E008C081E892E0653021F083E792E08A
:101FC0006630A9F70E94BF0FC770F8018085887F2F
:101FD000C82BC087CF911F910F9108952EE631E055
:101FE000FC01318320830C94980F0895982FE0E032
:101FF000F4E080E02491921729F08F5F31968A30C7
:10200000C9F78FEF08950C94F60F0895862728E0FE
:10201000BC0176956795AC014170552780FF02C0E1
:1020200041E050EACB0184279527215089F7089594
:10203000FC01108211821282138216821582148290
:10204000118610861782128613860895FC018081FE
:10205000811109C08181811106C081E092819111B5
:1020600003C080E0089581E00895DC01FB019C91AC
:10207000808198130BC011969C91119781819813C0
:1020800005C081E012962C919281291380E0089579
:10209000FC013381FB012381321302C00C94351003
:1020A00080E00895CF93DF9300D000D0CDB7DEB7A6
:1020B000FC0180899485998395859A8396859B8375
:1020C0008C83882389F0BF01645F7F4FCE01019626
:1020D0000E944810811108C082E00F900F900F906D
:1020E0000F90DF91CF91089581E0F7CF2FB7F8944B
:1020F000FC01808191812FBF0895FF920F931F9360
:10210000CF93DF93EC018B01FFB6F8940E94761019
:102110009C019FB7F894F801318320839FBF8FB74C
:10212000F894198308838FBFFFBEDF91CF911F9171
:102130000F91FF9008956F927F928F92DF92EF92AE
:10214000FF920F931F93CF93DF937B0122E0E20E68
:10215000F11CDB0115962D913D914C91232B242BE5
:1021600009F44FC0EB018C01DFB6F8949C819F709D
:1021700090619C83C8010E947610009709F43EC0CC
:10218000FC013297A1F06580768087802D813E81A9
:102190004F81CF01029662167306840650F4261909
:1021A000370948092D833E834F838C01E4CF90E0AB
:1021B00080E02FB7F8949B838A832FBF8FB7F89462
:1021C000D801ED92FC928FBF309761F085819681A6
:1021D000A7812D813E814F81821B930BA40B8583A8
:1021E0009683A783DFBEDF91CF911F910F91FF9060
:1021F000EF90DF908F907F906F900895F0E0E0E097
:10220000D8CFB7010296DF91CF911F910F91FF9028
:10221000EF90DF908F907F906F900C947D101F93C4
:10222000CF93DF93EC01FB012885922F97709430B8
:1022300079F040F4923051F0933039F1DF91CF9141
:102240001F910895953009F19630C1F711E012C041
:1022500023FD21C02A853B852550310913E0211536
:10226000310541F040E02D833E834F83BE01CF0115
:102270000E949B10E881F9810680F781E02D612F93
:10228000CE01DF91CF911F91099423FDD7CF2A85ED
:102290003B8515E0E4CF25E030E012E0E3CFFF928C
:1022A0000F931F93CF93DF93EC018B01E889FF24F9
:1022B000F394FE0EF88AE80FF92FF11D228530E025
:1022C000A4E6B0E00E94E4332AE030E040E050E0D1
:1022D0000E94C2332D833E834F83F0FE11C08A8952
:1022E0009B8960E0911101C061E00E94B104BE01D0
:1022F000C801DF91CF911F910F91FF900C949B101B
:10230000CE010E946B0FF3CF0F931F93CF93DF93F8
:10231000EC018B01E881F9810680F781E02D0995B8
:102320009B878A878C859D85AE858D839E83AF83B1
:10233000BE01C801DF91CF911F910F910C949B10AA
:10234000EF92FF920F931F93CF93DF93EC01FFB6B1
:10235000F8940E9476108C01892B71F0EFB6F894F6
:10236000CE010E9476100E9476109C019FB7F894CF
:10237000398328839FBFEFBEFFBEC801DF91CF9195
:102380001F910F91FF90EF90089582E793E00E94D4
:10239000A0110097B1F0DC01129799F014968C917E
:1023A00014978F7014968C931497ED91FC9111975C
:1023B0000190F081E02D60E773E0CD01099581E0A7
:1023C000089580E00895BF92CF92DF92EF92FF923E
:1023D0000F931F93CF93DF93EC01FFB6F8948C819A
:1023E0008F708C8380E793E00E9476100097C9F18C
:1023F0009C012250310980E793E02115310589F1D4
:1024000089010E5F1F4FC217D30709F50E94A01163
:10241000C8010E947610009779F0FC01329761F0B4
:1024200085819681A7812D813E814F81820F931FE7
:10243000A41F85839683A783FFBEDF91CF911F9151
:102440000F91FF90EF90DF90CF90BF900895C8015B
:102450000E947610009729F09C0122503109C80192
:10246000CCCF6E0182E0C80ED11CEFB6F894BFB697
:10247000F89482E793E00E947610EC0122E733E0C3
:10248000209779F010E000E0CC16DD0609F4890110
:10249000CE010E9476109E010115110521F4EC0178
:1024A000EFCF10E000E0BFBE0115110511F4EFBE43
:1024B000C3CFC8010E94A011FACFEF92FF920F93F1
:1024C0001F93CF93DC0118960D911C91F801818523
:1024D0000E948804D8011896CC911897C3FBEE246B
:1024E000E0F8F12C8E151F04C9F180FBC3F9189692
:1024F000CC93C770C33031F0C53021F0C130C1F486
:10250000C4E007C0F801808583FF12C0C33021F109
:10251000C6E0C8010E94E31185E090E0A0E0F80168
:1025200085839683A783B80180E793E00E949B1080
:10253000D80118968C91189787708C1779F0ED91C7
:10254000FC910680F781E02D6C2FC801CF911F917F
:102550000F91FF90EF900994C2E0DBCFCF911F91D4
:102560000F91FF90EF90089580E893E00E94E311AF
:1025700060E873E080E793E00C949B108F929F9249
:10258000AF92BF92CF92DF92EF92FF92CF93DF9301
:10259000EC014A015B0180E793E00E94761000970E
:1025A000B9F481E08887CE010E94E3118D829E827A
:1025B000AF82BE0180E793E0DF91CF91FF90EF9073
:1025C000DF90CF90BF90AF909F908F900C949B1016
:1025D0000297C12CD12C7601009719F3FC012581BB
:1025E00036814781642FA90170E0C40ED51EE61E16
:1025F000F71EC817D90739F002960E947610009787
:1026000081F20297E9CFC814D904EA04FB0448F226
:10261000DF91CF91FF90EF90DF90CF90BF90AF9080
:102620009F908F900895CF92DF92FF920F931F9308
:10263000CF93DF938C01FFB6F8940E947610009739
:1026400071F1EC01229759F18D819E81AF81019743
:10265000A1098D839E83AF83680182E0C80ED11CDF
:102660008D819E81AF81892B8A2BC9F4C8010E947C
:10267000A0118C81982F9F7080FF1BC09C83E881E4
:10268000F9810190F081E02DB801CE010995C801D2
:102690000E947610009719F0EC01229709F7FFBE0F
:1026A000C801DF91CF911F910F91FF90DF90CF90E4
:1026B0000895BE016E5F7F4FC6010E947D10E7CF77
:1026C000EF92FF920F931F93CF93DF937A01D22F54
:1026D0008C010F5B1F4FF801808191E09093920273
:1026E0008093B402109293021092B50283E593E0B6
:1026F0000E947F0D0E94700B6D2FD13208F060E2B6
:1027000041E0F80180810E94570C182F10921102AD
:1027100080931002C0E080911102181751F083E5F8
:1027200093E00E943F0DF701EC0FF11D8083CF5F16
:10273000F2CF81E0CD1380E0DF91CF911F910F9117
:10274000FF90EF900895FC0190810180F281E02DCF
:10275000F8948181292F20958223818378943DE705
:10276000315011F180818923D9F3F8948281822339
:1027700082838181892B81837894ACEBB3E01197BC
:10278000F1F7F894818182238183A8E8B0E0119762
:10279000F1F78081982381E009F080E07894E0E30C
:1027A000F3E03197F1F7089580E008958F929F92BA
:1027B000AF92BF920F931F93CF93DF93CDB7DEB746
:1027C000A1970FB6F894DEBF0FBECDBF19A242305D
:1027D00008F44AE08E010F5D1F4F842E912CB12C1E
:1027E000A12CA50194010E94C233E62FB901CA01B0
:1027F000EA3044F5E05DD801EE938D01232B242BC4
:10280000252B79F790E080E0109769F0FD010190A9
:102810000020E9F73197AF014A1B5B0BBD0186EB46
:1028200092E00E943703A1960FB6F894DEBF0FBE68
:10283000CDBFDF91CF911F910F91BF90AF909F902F
:102840008F900895E95CD7CFCF92DF92EF92FF92FD
:10285000CF93DF936B017C016DE286EB92E00E94E7
:10286000D703EC0166277727CB016C197D098E0908
:102870009F094AE00E94D6138C0F9D1FDF91CF91D4
:10288000FF90EF90DF90CF900895CF93C82F8031C5
:1028900028F460E386EB92E00E94D7036C2F70E08F
:1028A00090E080E040E1CF910C94D613BC0190E021
:1028B00080E04AE00E94D61389E592E00C94BD0FB7
:1028C0004AE00E94D61386E592E00C94BD0FCF92A9
:1028D000DF92EF92FF92CF93DF93EC0180917C0027
:1028E000807380937C0080917C00806C80937C005E
:1028F00080917C0080937C0061E089E00E94B104BB
:10290000888999890E940B0F6C0160E089E00E9420
:10291000B104C114D104E9F09601A0EEBBEA0E9413
:10292000E43320E038E240E050E00E94C233690125
:102930007A0180EE92E00E94BD0FC701B6010E94AD
:102940006014C601DF91CF91FF90EF90DF90CF90A0
:1029500008958CEC92E00E94BD0FF3CFCF92DF92EE
:10296000EF92FF9280917C00807380937C00809135
:102970007C00806480937C0080917C008E608093DA
:102980007C0082E390E00E940B0F6C010097C9F07D
:102990009C0150E040E060E070E381E190E00E9443
:1029A000C23369017A018FE291E00E94BD0FC70135
:1029B000B6010E946014C601FF90EF90DF90CF90A7
:1029C00008958FE191E00E94BD0FF5CFEF92FF9245
:1029D0000F931F93CF93DF93EC0188810E944514DE
:1029E0008DE191E00E94BD0F89810E9445148BE129
:1029F00091E00E94BD0F8A810E94451489E191E017
:102A00000E94BD0F8B810E94451487E191E00E94D6
:102A1000BD0F8C810E9445148D810E9445148E81CA
:102A20000E94451485E191E00E94BD0F8F810E94B4
:102A3000451488850E94451489850E94451483E1C8
:102A400091E00E94BD0F088109502A967E0110E096
:102A5000C7018C1B9D0B8017910754F4F7018191DE
:102A60007F010E9445148DE091E00E94BD0FF0CFE0
:102A70008FE091E00E94BD0F2FB7F89460910202A1
:102A80007091030280910402909105022FBFDF91A3
:102A9000CF911F910F91FF90EF900C946014682FCD
:102AA00070E090E080E04AE00E94D61383E592E077
:102AB0000C94BD0FCF92DF92EF92FF926B017C01DD
:102AC00080E1C816D104E104F10468F485E091E0E6
:102AD0000E94240440E1C701B601FF90EF90DF900F
:102AE000CF900C94D6138FEFC816D104E104F104F3
:102AF00009F018F48EEF90E0EBCFC11480E1D80616
:102B0000E104F10418F488EF90E0E2CFC114D1049D
:102B100081E0E806F10418F483EF90E0D9CFC11406
:102B2000D10480E1E806F10418F48FEE90E0D0CFF4
:102B3000C114D104E10481E0F80618F48CEE90E0B1
:102B4000C7CFC114D104E10480E1F80618F68AEE7B
:102B500090E0BECF1F93CF93DF931F92CDB7DEB728
:102B6000162F0E94F60F8F3F99F06091C603709167
:102B7000C703680F711D198341E050E0CE01019633
:102B80000E94783381E00F90DF91CF911F910895DB
:102B900080E0F9CFEF92FF920F931F93CF93DF93D3
:102BA0001F92CDB7DEB78C017B01E80EF91E1982AA
:102BB00041E050E0B801CE0101960E9478330F5FEA
:102BC0001F4FE016F10699F781E00F90DF91CF914A
:102BD0001F910F91FF90EF9008950F931F93CF9344
:102BE000DF93D82FC62F142F0E94CA0E0E94C40E46
:102BF0008D2F0E94BA0E8C2F0E94BA0E0E94C00E1A
:102C000060E88D2F0E94F50E082F81E0C01771F04B
:102C1000112389F04FEF410F6C2F8D2F0E94ED157E
:102C2000EFECF7E03197F1F700C00000DF91CF91B2
:102C30001F910F9108958DE995E00E94BD0F8D2F92
:102C40000E94451481E995E00E94BD0F8C2F0E94DF
:102C5000451489E895E00E94BD0F802F0E9445141D
:102C600086E895E00E94BD0F80E0E0CF85ED80937F
:102C7000BC0080918E0290918F02A0919002B09141
:102C800091020796A11DB11D23E0B695A7959795D2
:102C900087952A95D1F72091BC0024FD03C010929E
:102CA0008C02089540918E0250918F0260919002A3
:102CB00070919102452B462B472B69F30097A10594
:102CC000B10541F02AE12A95F1F700C00197A10969
:102CD000B109E1CF80918D020C944F0BCF93CFEFD0
:102CE00086E30E94CE0EC150807731F08AE18A954A
:102CF000F1F700C0C111F4CF8AE30E94CE0E89E340
:102D0000CF910C94CE0E0F931F93CF93DF93EC01D2
:102D10008B010E94E311CE010E946B0FB80183E08A
:102D2000660F771F8A95E1F7625C7A4F48E050E0C2
:102D3000CE0108960E945F338885882359F0188A4F
:102D4000198A60E773E0CE01DF91CF911F910F9157
:102D50000C944F11DF91CF911F910F9108950F9314
:102D60001F93CF93DF9300D01F92CDB7DEB78B01B7
:102D700043E050E0BC01CE0101960E945F339A818E
:102D80008B812981F8012083918382830F900F909A
:102D90000F90DF91CF911F910F9108951F93CF93C3
:102DA000DF93EC011FB7F89498898885981740F451
:102DB000CE010E944F111FBFDF91CF911F91089547
:102DC000188A99859923A1F389898F5F898B89173F
:102DD00078F3CE010E946B0F48E050E06EE375E09F
:102DE000CE0108960E945F33E6CFCF93DF931F9208
:102DF000CDB7DEB7198241E050E0BC01CE010196AB
:102E00000E94683389810F90DF91CF910895CF930D
:102E1000DF93EC0185E00E94F60F8F3F71F028816F
:102E20003981820F932F911D0E94F5168295869508
:102E300086958370DF91CF91089581E0FBCFCF938A
:102E4000DF93EC0188E10E94F60F8F3F59F0288153
:102E50003981820F932F911D0E94F5168170DF91A9
:102E6000CF91089580E0FBCFCA960E941F17811171
:102E70000DC088EF92E00E94BF0F64E070E090E028
:102E800080E00E94CA15F0E0E0E0099408950F93F5
:102E90001F93CF938C01862FC42F0E94F60F8F3F74
:102EA00059F0F80120813181820F932F911DCF912C
:102EB0001F910F910C94F5168C2FCF911F910F91AC
:102EC0000895EF92FF920F931F93CF93DF93EC013E
:102ED0008B0140E06CE0C8010E944717F82E40E0EB
:102EE0006BE0C8010E944717E82E40E06AE0C80185
:102EF0000E9447178883E982FA82CE01DF91CF9141
:102F00001F910F91FF90EF9008950F931F93CF9310
:102F10008C0140E062E20E944717C82F40E063E264
:102F2000C8010E9447172C2F30E0322F2227820F32
:102F3000932F911DCF911F910F9108950F931F9380
:102F4000CF938C0140E060E20E944717C82F40E019
:102F500061E2C8010E9447172C2F30E0322F222750
:102F6000820F932F911DCF911F910F910895FF9282
:102F70000F931F93CF93DF938C018DE392E00E9418
:102F8000BF0FE801EA96CE010E940717F82E83E3EF
:102F900092E00E94BD0F8F2D0E944F1540E062E12C
:102FA000CE010E944717F82E85E292E00E94BD0FE5
:102FB0008F2D0E944F15F80102811381F801F68EC2
:102FC00087E893E00E94BD0FF801868D0E944F159F
:102FD00046E064E1CE010E944717182F811101C01D
:102FE00011E081E192E00E94BD0F812F0E944F15F8
:102FF000CE010E949E178C0186E092E00E94BD0FD8
:10300000C8010E945614CE010E948517EC018BEF77
:1030100091E00E94BD0FCE01DF91CF911F910F91E2
:10302000FF900C945614CF93DF93EC01CB011A82DE
:10303000198218821B82642F04960E94270300972E
:1030400031F044E050E0BC01CE010E946833CE0173
:10305000DF91CF910895EF92FF921F93CF93DF936B
:1030600000D000D0CDB7DEB77C0110E0412FB70112
:10307000CE0101960E941318CE0101960E942610DF
:10308000882321F01F5F163089F71FEF812F0F90E3
:103090000F900F900F90DF91CF911F91FF90EF90C5
:1030A0000895AF92BF92CF92DF92EF92FF921F935B
:1030B000CF93DF9300D000D0CDB7DEB77C016B019A
:1030C00010E05C0184E0A80EB11C412FB701CE01D5
:1030D00001960E941318B601CE0101960E94481075
:1030E000882379F01B821A8219821C82612FC50104
:1030F0000E94270344E050E0BC01CE0101960E94EB
:1031000078331F5F163009F781E00F900F900F9012
:103110000F90DF91CF911F91FF90EF90DF90CF90B4
:10312000BF90AF900895AF92BF92CF92DF92EF928F
:10313000FF921F93CF93DF9300D000D0CDB7DEB7BF
:103140007C016B015A0110E0412FB601CE010196BE
:103150000E941318B501CE0101960E9448108823E1
:10316000C1F0612FC60104960E9427030596F7015E
:1031700091838083C7010F900F900F900F90DF9184
:10318000CF911F91FF90EF90DF90CF90BF90AF90C5
:1031900008951F5F1630C1F690E080E0E8CFAF924F
:1031A000BF92CF92DF92FF920F931F93CF93DF9343
:1031B000CDB7DEB729970FB6F894DEBF0FBECDBFEF
:1031C000FC01211126C082AD93AD9A8389838AE0E8
:1031D0008B8383E49FE09D838C8383E090E19F83D6
:1031E0008E8329813A814B815C816D817E818F81C3
:1031F00090E029960FB6F894DEBF0FBECDBFDF91E9
:10320000CF911F910F91FF90DF90CF90BF90AF9023
:103210000895662309F45FC081AD861708F45BC08A
:1032200004AD15AD213069F4F801848595859A8344
:1032300089832B8385E69FE09D838C838FE59FE0C8
:10324000CECF223079F4F8018485958501969A8352
:10325000898381E08B8385E293E09D838C838DE578
:103260009FE0BDCF6A01233001F55801F8E0AF0EB1
:10327000B11CF12C4F2DB501CE0101960E941318FF
:10328000B601CE0101960E944810882339F06F2DB7
:10329000C8010C960E9427030496D9CFF39486E0C8
:1032A000F812E8CF90E080E0D2CF2430A1F4B8014A
:1032B000685F7F4FCE0108960E9493188885998594
:1032C0009A83898381E08B8387E59FE09D838C834C
:1032D00081E59FE084CF1A8219821B821D821C82A5
:1032E0001F821E827ECF0E94ED3AAF92BF92CF9294
:1032F000DF92EF92FF920F931F93CF93DF93EC0136
:103300007B011B868C01015F1F4F60EC8BE30E94E9
:10331000F50E18160CF041C060E88FE30E94F50E20
:10332000D82E49E2481708F463C00E94CA0E0E94D2
:10333000C40E8FEF0E94BA0EC02E58018A2D8C1930
:103340008D1538F480E00E94BA0EF50181935F017B
:10335000F5CF0E94C00E60E88FE30E94F50E282F83
:1033600030E0082E000C990B88279170A901481BAA
:10337000590BCA0157FD01969595879591958195B1
:103380009109865B898360E88FE30E94F50E87FDD3
:1033900005C08FE093E00E94BF0FD12C8AE30E940A
:1033A000CE0E8BE791E00197F1F700C000000E947C
:1033B000DD0E84E30E94CE0EDD2051F1DE868F8586
:1033C00096E798279F8721E04D2D50E0BA01615084
:1033D0007109A22FB0E0F801EA0FFB1F9081A61738
:1033E000B70774F48452892780832F5F892FF1CF28
:1033F0008EEF92E00E94BD0F8D2D0E944F15CDCF14
:10340000888989278083B801C70101960E94FF3A05
:10341000F701D0821E868D85882321F080E00E94EE
:10342000E60E1D86F7018081DF91CF911F910F91EC
:10343000FF90EF90DF90CF90BF90AF9008952F92C4
:103440003F924F925F926F927F928F929F92AF9234
:10345000BF92CF92DF92EF92FF920F931F93CF9381
:10346000DF93CDB7DEB7E0970FB6F894DEBF0FBE9F
:10347000CDBF6C018B01FA018081DB0117968C9323
:103480001797818118968C931897828119968C933F
:1034900068E673E0CA010E943510882329F0F8011C
:1034A00082818F7D84608283B8016C5F7F4FD601FB
:1034B000D7968D919C910E94AF16F8018281806809
:1034C000828346E064E1D60114968D919C910E941E
:1034D0004717782E811102C077247394F6018481F6
:1034E00095810E9407178DA7882349F0D60112966F
:1034F0008D919C9162E070E002960E948316F80123
:103500003196F8ABEFA73AE0432E512C612C4801DD
:10351000F7E08F0E911C772009F484C1D601129632
:10352000ED90FC90F801828180718BA75701F0E447
:10353000AF0EB11CD8014C9150E06FA578A9C50120
:103540000E94FF3AF8012081D701DF962C93F50104
:103550008081B6E78B2780833196708161E02150AE
:10356000330B462F50E0F501E40FF51F9081421711
:1035700053072CF48452892780836F5FF2CF9727FB
:103580009083F701F7ADFEA7B7016D5C7F4FD701C0
:10359000DB963C90DB97332039F0EFECF7E0319786
:1035A000F1F700C00000F3CFD8964D925D926C9277
:1035B000DA97E1E0DB96EC9380E793E00E949B10C2
:1035C000D701DE968C91882329F081E00E94E60ED7
:1035D000F70116AEE1E0D701DD96EC9386E30E9499
:1035E000CE0E8BE30E94CE0E28EC222E85E30E94A5
:1035F000CE0E87EC90E00197F1F700C000002A940E
:10360000211076C086E30E94CE0E8BE30E94CE0E80
:103610008DE30E94CE0E84E30E94CE0E60EC85E323
:103620000E94F50E8D30B9F7B12CD701DD961C92B2
:103630008EE692E00E94BD0FC8010E94E6147A94C3
:10364000BB2009F468CFF801828185FF2AC0C4013C
:103650000E942610882329F1CE0101960E9418109D
:103660008CE3F82ED60112968D919C91FC0124AD2D
:10367000211191C08FE19EE40197F1F700C0000095
:10368000FA94F110EFCF84E692E00E94BD0F832DF3
:103690000E94451483E692E00E94BF0F332009F494
:1036A0003ACFFDA511E0FF2349F0F6018281938115
:1036B00011E063E070E002960E948316812FE0968D
:1036C0000FB6F894DEBF0FBECDBFDF91CF911F9133
:1036D0000F91FF90EF90DF90CF90BF90AF909F90B1
:1036E0008F907F906F905F904F903F902F900895B4
:1036F00060EC85E30E94F50E833109F077CFAFE1EE
:10370000BEE41197F1F700C00000BBA5BB2349F050
:10371000EFE7FBE828E0E150F0402040E1F700C08F
:1037200000000E94CA0E0E94C40E8FE30E94BA0ECF
:103730008EA50E94BA0E0E94C00E0E94CA0E0E9460
:10374000C40E8FE70E94BA0E2A2CABA6BCA68BA58E
:1037500082199EA5891740F4ABA5BCA58D91BCA785
:10376000ABA70E94BA0EF3CF0E94C00E98ECB92E00
:1037700060EC85E30E94F50E8D3019F4BB24B39400
:1037800054CFE7ECF0E03197F1F700C00000BA94B5
:10379000B110EECFF3CFBE016F5F7F4FC1960E9495
:1037A0007519882309F466CF8FE592E00E94BD0F5A
:1037B000CE0101960E94E614D80111969C918A814F
:1037C000981358CFBE016B5F7F4FC4010E94351024
:1037D000882309F44FCF8C81823049F48B85982F50
:1037E0009095392E331C3324331C87FD712CF8013E
:1037F000828181FD03C08B8180FF45CFD601129667
:103800008D919C9142E350E060E070E088960E94C8
:10381000BE1239CFD60112968D919C9110E064E0D2
:1038200070E049CFBDA5B111F5CF10E047CF0F93A0
:103830001F93CF93DF93EC018B018AE18B871E8668
:103840001D864C871E8A6FA978ADFB017196849105
:103850003197E491ED8B8AA3625F7F4F42E050E0A5
:10386000CE0146960E945F336FA978AD6D5F7F4FA2
:103870004AE050E0CE0148960E945F3389AD8BA3A9
:103880006FA978AD6E5E7F4F42E050E0CE01849626
:103890000E945F33BE01655F7F4FA801CE01DF91BB
:1038A000CF911F910F910C941F1AEF92FF920F93DB
:1038B0001F93CF93DF9300D01F92CDB7DEB78C015B
:1038C000E62EFC0180858770F82EC8010E94C50F86
:1038D000F2E0EF1230C0F80106891789F801F6808E
:1038E000F394F68264817581CE0101960E9461177E
:1038F0004F2DBE016F5F7F4FC8010E94171CF8015A
:103900008281938161E070E002960E948316F80143
:103910008281938140ED57E060E070E088960E94DC
:10392000BE120F900F900F90DF91CF911F910F91CA
:10393000FF90EF900895F5E0EF12F3CFF80186893C
:103940009789F5E0FF120BC0CA960E941F178111DC
:10395000E8CFF801868997890E943417E2CFFC01ED
:103960008281938167E070E002960E948316D9CF2E
:103970002F923F924F925F926F927F928F929F927F
:10398000AF92BF92CF92DF92EF92FF920F931F936D
:10399000CF93DF93CDB7DEB7E3970FB6F894DEBFD2
:1039A0000FBECDBF7C018B0118AA1FA61EA6BE01AB
:1039B000625D7F4FDC01D7968D919C910E94AF167E
:1039C0002801B7E04B0E511CBE01625D7F4FC20162
:1039D0000E943510C82E882309F461C0F701C28007
:1039E000D3805601F3E3AF0EB11CC5010E94E31171
:1039F0008AE090E0A0E0F60180AF91AFA2AF81E055
:103A000083AFB50180E793E00E949B1088EC92E0C1
:103A10000E94BD0FC8010E94E614D80112968C9135
:103A200086FD95C0D80114968C911497F701878371
:103A300015968C911597808716968C91169781878D
:103A400011968C911197828713967C9013971A96F2
:103A5000DC901A97F1E07F1295C31B968C911B970F
:103A60008A3009F087C0F70167A970AD6D5F7F4F9D
:103A70004AE050E0CE0101960E945F334AE050E0F8
:103A8000BE016F5F7F4FC8010C960E94F23A892BEE
:103A900009F4E9C0D12CC12C92E0792EA4C0F80120
:103AA0008081898381818A83B280BB82D380DC82DA
:103AB00084818D8385818E8386818F8387818887AA
:103AC0008085898781858A8782858B87A384AC8658
:103AD0008EE13C96DE011D9601900D928A95E1F7EC
:103AE00068E673E0CE0108960E943510882339F00D
:103AF000F1E0DF1204C02AE0A21609F46FCFB2FE93
:103B000005C080EC8D0D823008F468CF80EC92E027
:103B10000E94BD0FC8010E94E6148C2DE3960FB6DB
:103B2000F894DEBF0FBECDBFDF91CF911F910F91F3
:103B3000FF90EF90DF90CF90BF90AF909F908F90CD
:103B40007F906F905F904F903F902F900895B801B5
:103B50006C5F7F4FC70107960E943510882309F4D8
:103B600061CFD7011A969C91F801818198135ACFA1
:103B7000C12CD3CF813009F0F8C0DD2009F48ACF01
:103B8000F70181AD8D1508F485CFC4ACD5ACC80163
:103B90000E945210782E4801FCE08F0E911C5601B5
:103BA00028E0A20EB11C31E083137CC0B401C50132
:103BB0000E945118C5010E942B18682E8FEF6816BD
:103BC00009F46ACF662DC6010C960E94270344E0D3
:103BD00050E0BC01C4010E947833462DB501CE01EE
:103BE00001960E94740FD80112968C9185FF2DC00A
:103BF000BE01625D7F4FC2010E943510882329F10A
:103C0000B1E07B120CC3A8014C5F5F4FC114D1041B
:103C100009F4F4C2D7011296ED91FC9182A99EE0BD
:103C2000F801908392E0938312827286D6011B96EC
:103C30009C919387148615868687B801C7010E94D8
:103C40001F1AF60182858E7F8287D70112968D9189
:103C50009C9142E350E060E070E088960E94BE12C2
:103C6000CC24C3945ACFD70112968D919C9161E0D8
:103C700070E002960E948316F7018281938140EDE5
:103C800057E060E070E088960E94BE12D8014C9127
:103C9000B8016C5F7F4FC7010E94171CD12CC12C4B
:103CA000712CA1CFD80150968C9150971C969C9165
:103CB0001C9799831D969C911D979A831E969C91A3
:103CC0009B838C83B401C5010E945118BE016F5FB4
:103CD0007F4FC5010E945118C5010E942B18382E34
:103CE000BFEF8B1709F4D8CE3601ECE06E0E711CD5
:103CF000682FC3010E94270344E050E0BC01C401C7
:103D00000E947833C5010E942B18282EFFEF8F17D1
:103D100039F1682FC3010E94270344E050E0BC0141
:103D2000CE0101960E947833D8011F968C9180FFB6
:103D30000FC0432DB501CE018B960E94740F422D0A
:103D4000B501CE018B960E94740F772473944BCFEC
:103D5000422DB501CE018B960E94740F432DF0CFFA
:103D6000B401C5010E94511897CE8230A1F5DD2023
:103D700009F490CEF70181AD8D1508F48BCEC4AC5B
:103D8000D5AC5601F8E0AF0EB11CB801645F7F4FAF
:103D9000C5010E945118982EC8010E94521082300D
:103DA000B9F4D80150968C9150971C969C911C9711
:103DB00099831D969C911D979A831E969C919B8337
:103DC0008C83BE016F5F7F4FC5010E9451189822FE
:103DD000911009CF61CE833009F070C0DD2009F465
:103DE000EFC0F70181AD8D1508F458CF84AD95ADC6
:103DF00011962C91119714963C9114973BA7159608
:103E00003C9115973CA716963C913DA75701BBE006
:103E1000AB0EB11C3AE1338730E1368730E23587AB
:103E2000758A24874701E6E18E0E911C6401212CDE
:103E3000312C3C01F8E06F0E711C26E0221641F196
:103E4000422DB301CE0101960E941318CE010196B6
:103E50000E9426108823D1F0339484E0FE0131962D
:103E6000D60101900D928A95E1F734E0C30ED11C82
:103E700084E038120BC0AE01455D5F4FB501C7014C
:103E80000E941F1A6401312C882311F02394D5CF8E
:103E900084E0D6011D928A95E9F7832D880F880F5B
:103EA000825FF701838785858F7D8587AE01455DBC
:103EB0005F4FB501C7010E941F1AF0CE843009F090
:103EC00081C050962C91A801445F5F4F6D2DC701B2
:103ED0000E94CF1829833A834B835C836D837E8352
:103EE0008F83E981FA81FBABEAAB82E0782EEF2B7E
:103EF00009F4B2C0D80111968C91119714969C9137
:103F000014979BA715969C9115979CA716969C9124
:103F10009DA73701BBE06B0E711C9AE1F7019387F7
:103F200090E1968790E2958792E0958B84871701C0
:103F3000F6E12F0E311C6101B12CA12C19AA8B8145
:103F40008A151B0451F14CF1EC81FD818A2D0995F4
:103F5000D6018C934601B2E08B0E911C8AA99BA9D5
:103F60008A0D9B1D0E94F516F6018183F9A9FF5F5A
:103F7000F9ABF83059F4AE01455D5F4FB301C701AD
:103F80000E941F1A882339F0410119AA2FEFA21AA3
:103F9000B20A6401D4CF610119AAD6011C9211960C
:103FA0001C9289A98A5F880FF701838785858F7D99
:103FB0008587AE01455D5F4FB301C7010E941F1A9F
:103FC000712C4AC08E3061F5D701DC96CD90DC9023
:103FD000DD97F80131811296ED91FC9192A9D601FD
:103FE0001B962C91F701838780E1868786E0858B7D
:103FF0003487268B178A108E918F82E08587A801DF
:104000004C5F5F4FB701655F7F4FC7010E941F1A6A
:10401000D6011A968C911A978E7F1A968C933ECE63
:104020008530E9F4F701D6AE50962C91A801445F93
:104030005F4F6D2DC7010E94CF18F70127AFE05CDD
:10404000FF4F3083319640833196508331966083A1
:104050003196708331968083D12CC12CC4CD8630AB
:1040600081F5F701FF9620813181D701DA968D9194
:104070009C91DB972817390781F412968D919C91BA
:1040800070E060E002960E948316D701ED91FC91EA
:104090000480F581E02DC70109958FEFF70186AF08
:1040A0008AE0D8018C9382E013968C931397129632
:1040B0008C9312971A961C92A8014C5F5F4FB8011F
:1040C000F9CE883009F03FC0F70186AD8D11C4CF1D
:1040D0004701FFE38F0E911CD4018D919C91892B98
:1040E00009F4BACFF80180818B3008F48BE08B5053
:1040F00089AB5801FCE0AF0EB11C6501170124E447
:10410000220E311C8C2D8A1939A9831708F0A4CFEF
:10411000D60111966C90D101ED91FC91D6018C9154
:1041200009958F3F61F0F40160817181680F711D05
:10413000698241E050E0CE0101960E947833F2E0BE
:10414000CF0ED11CDFCF893009F0A4CC11968C9111
:1041500094E1F701938790E196871586158A848705
:10416000168A67A970AD6D5F7F4F4AE050E0C701C6
:1041700046960E945F33A8014C5F5F4FB701655FB1
:104180007F4F98CEF1E17F122FC024E0D21619F0B4
:104190003AECD31283CD8AE0D8018C9382E0139657
:1041A0008C93139712961C9212971A961C92A80140
:1041B0004C5F5F4FB801C7010E941F1ABAECDB12B7
:1041C0000FC08BEA92E00E94BF0F88E19CE00FB61F
:1041D000F894A895809360000FBE90936000FFCF85
:1041E000C7010E9434175ACDE2E17E1253CC86EB10
:1041F00092E00E94BF0FD12CC12CA7CD8AE0D8013C
:104200008C9382E013968C93139712961C921297BC
:104210001A961C92B801C7010E941F1A16CDB2E06F
:104220007B1213CD8AE0F80180837382128280E8CA
:104230008287A8014C5F5F4FEDCF0C94643A0C94D9
:10424000643A0C94643A0C94643ACF93DF93EC0193
:104250000E94980FCE01DF91CF910C94643A0C9498
:10426000643A0C94643A0C94643ACF93DF93EC0173
:104270000E94EE0FCE01DF91CF910C94643A0C9422
:10428000643A0C94643A0C94643A4F925F926F9241
:104290007F928F929F92AF92BF92CF92DF92EF92D6
:1042A000FF920F931F93CF93DF93CDB7DEB72C9779
:1042B0000FB6F894DEBF0FBECDBF8C015B0180E06E
:1042C00090E0A0ECBFE789839A83AB83BC838D83A6
:1042D0009E83AF83B88789879A87AB87BC879E0107
:1042E0002B5F3F4FAE014F5F5F4FBE01675F7F4F58
:1042F000C80108960E94B80549805A806B807C806E
:1043000020E030E040E251E4C301B2010E94EE350A
:104310000E94D234F80172836183C984DA84EB8409
:10432000FC8420E030E040E251E4C701B6010E9485
:10433000EE350E94D934F80174836383B50190E0AF
:1043400080E00E9408354B015C01AC019B010E949A
:10435000AB3681116AC0A3019201C301B2010E9470
:10436000AB36811162C0A7019601C701B6010E9458
:10437000AB3681115AC024EF3DEF44ED5BE3C5013C
:10438000B4010E94EE354B015C01AC019B01C301FD
:10439000B2010E94F43323E333E948E853E40E9476
:1043A000F4339B01AC01C501B4010E9460349B0150
:1043B000AC0160E070E080E89FE30E94F33328E501
:1043C00039E348EA50E40E945B369B01AC01C70127
:1043D000B6010E94603420E030E040E251E40E94E7
:1043E000EE350E94D934F801768365836D817E8134
:1043F0008F8198850E94D934F80167832C960FB677
:10440000F894DEBF0FBECDBFDF91CF911F910F910A
:10441000FF90EF90DF90CF90BF90AF909F908F90E4
:104420007F906F905F904F90089560E070E080EC17
:104430009FE7D1CF2F923F924F925F926F927F92E0
:104440008F929F92AF92BF92CF92DF92EF92FF92A4
:104450000F931F93CF93DF93CDB7DEB764970FB65B
:10446000F894DEBF0FBECDBF8C017B8B6A8BDC0165
:104470001896ED91FC91848195810E9485177801B1
:10448000B5E6EB0EF11CF701178216821582148235
:104490001382128211822081222399F1BC01C7016B
:1044A0000E94452184E991E00E94BD0FD701119639
:1044B0006D917C91072E000C880B990B97FF7DC2A4
:1044C0000E9424148FEA91E00E94BD0F89E791E0D9
:1044D0000E94BD0FF701838194810E9456148EE5DE
:1044E00091E00E94BD0FD70115968D919C910E947D
:1044F000561483E491E00E94BD0FF70187810E946A
:104500004F15F801EA59FF4F80819181D801D99662
:104510009C938E93D897349680819181F80193AFC4
:1045200082AFE459FF4F8081DC968C933A972080CC
:10453000222009F4BAC07801B5E5EB0EF11CF701B1
:10454000818192810E94A3136CECD70111968D9109
:104550009C910E943D0E64E4F701818192810E944A
:104560003D0E6AE174E080E090E00E944005312C4D
:104570009E01265F3F4F3F872E87E2E2FCEFD70187
:104580001496FC93EE93139711968D919C910E9433
:10459000A313D7011196AD90BC9065E5C5010E94AB
:1045A0003D0E6701B5E0CB0ED11C4701EDE08E0E4C
:1045B000911CD6016D916D01C5010E943D0E8C14B8
:1045C0009D04B9F76EEBF701818192810E943D0E47
:1045D0009E012F5F3F4F6901288BD98AD701119621
:1045E0006D907C9038E0A32EB12C512C4424439440
:1045F000C3010E94EA0D81115428440CB1E0AB1AAA
:10460000B108B1F7F60151926F012E853F85E2178F
:10461000F30721F768E0888999890E94D30D99856D
:104620008913E1C189819A81D70115962C91203196
:1046300009F0C7C123E0880F991F2A95E1F7288563
:10464000203141F42F81ECE0F0E0E21BF109807FA2
:104650008E0F9F1FFAE0F89F9001F99F300D1124F3
:1046600037FF02C0215F3F4F94E0359527959A951B
:10467000E1F7D70114963C932E93139785EC91E0C4
:104680000E94BD0FF70163817481072E000C880B17
:10469000990B97FFA4C10E9424148FEA91E00E9415
:1046A000BD0F33947401231068CFF801E85AFF4F0F
:1046B00080819181D801D9969C938E93D897680177
:1046C000B0EBCB0ED11CF601118212821382148240
:1046D0008081882309F48DC081E0809392028AE46E
:1046E0008093B402109293021092B50283E090E09E
:1046F0000E94AE0D0E94700B40E061E08AE40E94CF
:10470000570CB82E1092110280931002F1E08F1313
:1047100070C083E593E00E943F0D7C01B09292024D
:10472000109293021092B50284E090E00E94AE0DC8
:104730000E94700B41E061E08AE40E94570C1092E5
:10474000110280931002813009F053C083E593E099
:104750000E943F0D782E6E2D62956F7070E090E094
:1047600080E00E940A359B01AC0160E070E080E0CF
:1047700090E40E945B364B015C01B70184E0660F58
:10478000771F8A95E1F77727872D8F70682B072E83
:10479000000C880B990B0E940A35A50194010E9418
:1047A000EE352CEE31E548E35DE30E94EE3520E086
:1047B00030E048EC52E40E94EE3520E030E040E08A
:1047C0005FE30E94F4330E9445350E94D934D6013C
:1047D00011966D937D938D939C93149780EE91E049
:1047E0000E94BD0FF60161817281838194810E94D4
:1047F0006014D60111964D915D916D917C91149745
:10480000D801DD964D935D936D937C931397F801DA
:1048100040855185FA0182819381FC0120A131A15B
:10482000C8018C5B9F4FFC0131832083FA012681F4
:104830002F5F26833801FEE06F0E711CF801EE5BDE
:10484000FF4F3081388B4181498BF801E084F1843E
:10485000F70162817381FC01F081FC8BFC012180F6
:104860000397FC0130804C9011965C901197129642
:104870008C90129713969C90D801DC964C91DC9703
:10488000DA96DC90DA97DB96CC90DB97D896BC90E2
:10489000D897D9963C913F77FB01A68C80A191A136
:1048A00064E670E00E941738A616170611F008F0AB
:1048B0003068822F64E10E940B3884E0923009F462
:1048C00082E297E1D8011E969C931E9790E751963D
:1048D0009C93519750968C93509758963C93589729
:1048E0001F962C931F975996BC9259975A96CC9223
:1048F0005A975B96DC925B975C964C935C975D96BF
:104900009C925D975E968C925E975F965C925F97A5
:1049100090964C92909791963C92919792962C9269
:104920009297EC899396EC939397F9899496FC93DC
:104930009497288995962C93959782FF59C08F7CE0
:10494000846050968C9348E653E0B301C7010E94FF
:104950001F1AD8011896ED91FC91848195810E94CF
:104960009E179C01A4E6B0E00E94E433F801658341
:1049700076838783B8018A899B890E949B10F801FE
:10498000EA5BFF4F81E0808364960FB6F894DEBF48
:104990000FBECDBFDF91CF911F910F91FF90EF9090
:1049A000DF90CF90BF90AF909F908F907F906F904F
:1049B0005F904F903F902F9008954AE00E94D61349
:1049C00081CD2D81207611F4887F44CE203211F4E0
:1049D0008C7F40CE203409F03DCE8E7F3BCE4AE026
:1049E0000E94D6135ACE82EB91E00E94BF0F59CE9F
:1049F000D12CC12C412C580138E0A30EB11C480128
:104A000042E1840E911C56E0C516D10409F4A4C0FD
:104A10004C2DB501CE010A960E941318CE010A96BC
:104A20000E942610382E882309F46AC0512C452D87
:104A3000B501CE0101960E941318BE016F5F7F4F32
:104A4000CE010A960E943510811106C0539486E06B
:104A50005812EDCF55245A945C141D040CF450C028
:104A60001B821A821982BE016F5F7F4FD701D796D2
:104A70008D919C910E94AF16BE016F5F7F4FCE015A
:104A80000A960E943510882309F448C0B401F70142
:104A900087A990AD0E94AF16D80152968C9152977B
:104AA00055968C93559753968C91539756968C9315
:104AB000569754968C91549757968C9368E673E06A
:104AC000C4010E943510882329F0F80180898F7D68
:104AD0008460808BD80150968C91509785FF14C0CC
:104AE0008F7D50968C93D701ED91FC910680F781D4
:104AF000E02DB301C7010995F80180898062808BA0
:104B0000BFEFCB1ADB0A7FCFD701ED91FC91068076
:104B1000F781E02DB301C7010995F2CFAE01465FE1
:104B20005F4FB501CE0101960E94931889819A8149
:104B30000E94F516F801908980FF0BC09061908B60
:104B4000AE01465F5F4FB301C7010E941F1A432C9D
:104B5000D7CF9F7E908BF4CF4110FBCEF7016481BD
:104B60007581CE0101960E946117AE014F5F5F4FC4
:104B7000ECCE1F920F920FB60F9211242F933F93FA
:104B80004F935F936F937F938F939F93AF93BF9355
:104B9000EF93FF9386EB92E00E94B503FF91EF91B4
:104BA000BF91AF919F918F917F916F915F914F9145
:104BB0003F912F910F900FBE0F901F9018951F924D
:104BC0000F920FB60F9211242F938F939F93EF9311
:104BD000FF93E091C602F091C7028081E091CC0280
:104BE000F091CD0282FD1BC090818091CF028F5F3A
:104BF0008F732091D002821741F0E091CF02F0E054
:104C0000EA54FD4F958F8093CF02FF91EF919F91D2
:104C10008F912F910F900FBE0F901F90189580814C
:104C2000F4CF1F920F920FB60F9211242F933F9340
:104C30008F939F93AF93BF93809102029091030251
:104C4000A0910402B09105023091010226E0230FE9
:104C50002D3758F50296A11DB11D209301028093B6
:104C6000020290930302A0930402B0930502809184
:104C7000060290910702A0910802B09109020196E4
:104C8000A11DB11D8093060290930702A093080214
:104C9000B0930902BF91AF919F918F913F912F9156
:104CA0000F900FBE0F901F90189529E8230F0396C1
:104CB000A11DB11DD2CF1F920F920FB60F921124DA
:104CC0002F933F934F935F936F937F938F939F9314
:104CD000AF93BF93EF93FF93E0910201F091030133
:104CE0000995FF91EF91BF91AF919F918F917F9126
:104CF0006F915F914F913F912F910F900FBE0F9049
:104D00001F9018951F920F920FB60F9211242F9398
:104D10003F934F935F936F937F938F939F93AF9343
:104D2000BF93EF93FF93E0910001F091010109958A
:104D3000FF91EF91BF91AF919F918F917F916F9173
:104D40005F914F913F912F910F900FBE0F901F9049
:104D500018951F920F920FB60F9211242F933F9325
:104D60004F935F936F937F938F939F93AF93BF9373
:104D7000EF93FF938091B900887F803609F44AC091
:104D8000F0F5883209F4A7C018F5803109F49BC00A
:104D9000B8F4882309F4F9C0883009F494C0FF916D
:104DA000EF91BF91AF919F918F917F916F915F91A3
:104DB0004F913F912F910F900FBE0F901F9018951C
:104DC000883109F488C0803251F780938A0214C078
:104DD000803409F49DC040F48033B9F38833F9F688
:104DE00080938A0285ECB0C0803509F485C088358F
:104DF00009F496C0883499F60E943616D0CF8839C7
:104E000009F48CC038F5883729F050F4883611F051
:104E1000803729F683E080938C021092000257C0FD
:104E2000883809F47BC0803919F0803809F0B7CF91
:104E300080910002803208F071C0E091000281E0B0
:104E40008E0F809300028091BB00F0E0E052FE4F95
:104E500080833DC0803B39F0E0F4803A09F479C0AA
:104E6000883A09F09CCF84E080938C021092DF0195
:104E70001092DE01E0910E02F0910F0209958091EF
:104E8000DE0181110FC081E08093DE011092BE012E
:104E900009C0803C09F4A6CF883C09F4A3CF883B25
:104EA00009F07DCFE091DF0181E08E0F8093DF017B
:104EB000F0E0E254FE4F80818093BB009091DF01CF
:104EC0008091DE0129C0809167028093BB0085EC50
:104ED0008093BC0064CF90918902809188029817DA
:104EE00058F5E091890281E08E0F80938902F0E00D
:104EF000E859FD4F8081E9CFE091890281E08E0F72
:104F0000809389028091BB00F0E0E859FD4F8083D7
:104F100090918902809188029817C8F285E8D8CFCD
:104F2000E091890281E08E0F809389028091BB001D
:104F3000F0E0E859FD4F808380918B0281115CCFB6
:104F400081E08093660284EA8093BC0010928C0218
:104F500026CF85EC8093BC0010928C0280910002D9
:104F6000803230F4E0910002F0E0E052FE4F108217
:104F70006091000270E0E0910C02F0910D0280EE71
:104F800091E00995109200020ACF10928A0234CF64
:104F90001F920F920FB60F9211248F930FB6F894B1
:104FA000A8958091600088618093600010926000F5
:104FB0000FBE8F910F900FBE0F901F9018951F92EC
:104FC0000F920FB60F9211242F933F934F935F933D
:104FD0006F937F938F939F93AF93BF93CF93DF9301
:104FE000EF93FF93CFE5D3E060E089810E94B104A5
:104FF0001092B1006A817B818C819D810E94D9349D
:105000006093B30081E08E83FF91EF91DF91CF91A8
:10501000BF91AF919F918F917F916F915F914F91D0
:105020003F912F910F900FBE0F901F9018951F92D8
:105030000F920FB60F9211240F900FBE0F901F907A
:1050400018951F920F920FB60F9211242F933F9332
:105050004F935F936F937F938F939F93AF93BF9380
:10506000EF93FF93EBE6F3E084818F5F8483CF01BE
:105070000E941313FF91EF91BF91AF919F918F9178
:105080007F916F915F914F913F912F910F900FBE44
:105090000F901F9018951F920F920FB60F92112428
:1050A0002F933F934F935F936F937F938F939F9330
:1050B000AF93BF93EF93FF9380E793E00E941313A6
:1050C000FF91EF91BF91AF919F918F917F916F91E0
:1050D0005F914F913F912F910F900FBE0F901F90B6
:1050E00018951F920F920FB60F9211242F933F9392
:1050F0004F935F936F937F938F939F93AF93BF93E0
:10510000CF93EF93FF9399B1C09112028091420225
:1051100030913F02292F209523238923822B209130
:105120006D00C927C223C82390931202CC23C1F17A
:10513000C0FF05C0E0911302F09114020995C1FF70
:1051400005C0E0911502F09116020995C2FF05C055
:10515000E0911702F09118020995C3FF05C0E09194
:105160001902F0911A020995C4FF05C0E0911B02D3
:10517000F0911C020995C5FF05C0E0911D02F09158
:105180001E020995C6FF05C0E0911F02F0912002A2
:105190000995C7FF05C0E0912102F091220209950F
:1051A000FF91EF91CF91BF91AF919F918F917F919F
:1051B0006F915F914F913F912F910F900FBE0F9084
:1051C0001F9018951F920F920FB60F9211242F93D4
:1051D0003F934F935F936F937F938F939F93AF937F
:1051E000BF93CF93EF93FF9396B1C0912302809129
:1051F000430230914002292F209523238923822BBB
:1052000020916C00C927C223C82390932302CC238A
:1052100051F1C0FF05C0E0912402F09125020995EB
:10522000C1FF05C0E0912602F09127020995C2FF57
:1052300005C0E0912802F09129020995C3FF05C03D
:10524000E0912A02F0912B020995C4FF05C0E0917C
:105250002C02F0912D020995C5FF05C0E0912E02A8
:10526000F0912F020995FF91EF91CF91BF91AF91EE
:105270009F918F917F916F915F914F913F912F916E
:105280000F900FBE0F901F9018951F920F920FB6A0
:105290000F9211242F933F934F935F936F937F93BC
:1052A0008F939F93AF93BF93CF93EF93FF9393B15C
:1052B000C09132028091440230914102292F209501
:1052C00023238923822B20916B00C927C223C82363
:1052D00090933202CC2351F1C0FF05C0E09133021C
:1052E000F09134020995C1FF05C0E0913502F091BB
:1052F00036020995C2FF05C0E0913702F0913802ED
:105300000995C3FF05C0E0913902F0913A02099571
:10531000C4FF05C0E0913B02F0913C020995C5FF36
:1053200005C0E0913D02F0913E020995FF91EF9199
:10533000CF91BF91AF919F918F917F916F915F912D
:105340004F913F912F910F900FBE0F901F90189586
:105350009F92AF92BF92CF92DF92EF92FF920F9304
:105360001F93CF93DF93E6EBF2E01382128288EE75
:1053700093E0A0E0B0E084839583A683B78322E125
:1053800031E03183208325EC30E03587248724EC1D
:1053900030E03787268720EC30E0318B208B21EC02
:1053A00030E0338B228B22EC30E0358B248B26ECE3
:1053B00030E0378B268B118E128E138E148EE3E520
:1053C000F3E01382128284839583A683B78384E2F9
:1053D00091E09183808310926603E8E6F3E0128205
:1053E00011821082E0E7F3E01182108213821282B0
:1053F000EBE6F3E011821082138212821482E1EF55
:10540000F4E001E010E0118300831383028315832D
:1054100004831783068385E0E82EF12CF186E0866D
:10542000138612861586148696E7C92ED12CD78648
:10543000C686E7E8F4E0158214821782108611868A
:105440008AE991E093838283128A138A148A158AE7
:105450009924939490928D04118E108E1092A10431
:10546000138E148E158E168E178E11A210A212A2F4
:1054700013A214A215A28EE891E0978B868B88EC7C
:1054800090E097A386A313A612A615A616A617A6A4
:1054900084E891E091A780A710AA9092B30412AA81
:1054A00016AA15AA10AE11AE12AE8AE791E094AB1F
:1054B00083AB13AE9092BE0414AE15AE16AE86EC5E
:1054C00094E00E941810CCE8D3E086E591E099833F
:1054D00088831B821A8286EC93E09D838C831E82D4
:1054E000198618861F821A8687E993E00E94181091
:1054F00080E290E09EAB8DAB29ED35E038AF2FAB6D
:1055000099AE9BAF8AAF8FEF8EAF1092CC03109203
:10551000CB031092CD031092CF031092CE031092C2
:10552000D1031092D00382E691E099838883109290
:10553000DB031092DA03ECEDF3E080818E7F8D7F48
:1055400080831092DD031092DF031092DE0310922D
:10555000D5031092D4031092D60380E797E1A0E020
:105560008093D7039093D803A093D90322EDA22E62
:1055700023E0B22E8CE491E0F5019183808380EEEC
:1055800093E00E94181010920B0410920A041092DB
:105590000D0410920C0410920E0410920F0410923D
:1055A000100410921104109212041092130410921D
:1055B000150410921404109217041092160490927D
:1055C000180460E083E00E94DF04E8ECF5E0E49179
:1055D000E0931904E4EBF5E0E491F0E0EE0FFF1F37
:1055E000E955FA4F8591949190931B0480931A0486
:1055F0001092240410922604109225041092230481
:1056000010922204109221041092200410921F0480
:1056100010921E0410921D0410921C041092270474
:10562000109229041092280482E29CEF90932B049C
:1056300080932A0410923404109237041092390493
:105640001092380410923B0410923A0410923D04D8
:1056500010923C0410923E041093420400934104C3
:1056600010934404009343041093460400934504AC
:105670001093480400934704F0924A04E0924904CE
:1056800084E090E090934C0480934B0410924E047D
:1056900010924D04109271042CE331E030934004D9
:1056A00020933F04109373040093720410937504C5
:1056B0000093740410937704009376041093790494
:1056C00000937804F0927B04E0927A0490937D0436
:1056D00080937C0410927F0410927E04D092810407
:1056E000C092800410928204109283041092840469
:1056F0001092850410928604BDAEACAE8EE691E0A9
:1057000099838883E4E7F3E013821282109278038E
:10571000158216821782ACE7B3E08C91887F816096
:1057200088608C9311861786168610928403118ADE
:10573000128A138A86E391E095878487F58BE48B40
:1057400084EA91E091838083D78BC68B8CE291E0D1
:1057500093878287DF91CF911F910F91FF90EF90F8
:10576000DF90CF90BF90AF909F900895CF93DF933D
:10577000CDB7DEB761970FB6F894DEBF0FBECDBFD1
:10578000789484B5826084BD84B5816084BD85B51C
:10579000826085BD85B5816085BD80916E00816028
:1057A00080936E00109281008091810082608093CE
:1057B00081008091810081608093810080918000D0
:1057C0008160809380008091B10084608093B100FB
:1057D0008091B00081608093B00080917A008460F5
:1057E00080937A0080917A00826080937A00809121
:1057F0007A008E7F80937A0080917A00806880930F
:105800007A001092C100E091C602F091C70282E0D6
:105810008083E091C202F091C3021082E091C40241
:10582000F091C50280E180831092CE02E091CA021D
:10583000F091CB0286E08083E091C802F091C9022A
:10584000808180618083E091C802F091C9028081EB
:1058500088608083E091C802F091C90280818068ED
:105860008083E091C802F091C90280818F7D80839E
:1058700087E195E00E94BF0F8091C6039091C70316
:105880009C01265F3F4F3F872E87D12CCC24C394A9
:1058900044EF242E33243394412C8091C503D81631
:1058A00008F0E4C1ED2DF0E0EE0FFF1FE853FC4FD0
:1058B000E080F180D394ECE8F3E0D7011996FC93F3
:1058C000EE9318971B96DC921B972E853F851D96AD
:1058D0003C932E931C97470135E5830E911C87015D
:1058E000095B1F4F1D86C7018E5A9F4F998B888B6E
:1058F000D8011D968C9181112BC0C8010E94A31361
:10590000882331F160EFC8010E943D0EAA24A394C0
:10591000712C612CBB24B394C8010E94EA0D582E4F
:10592000C8010E94EA0DB1E05B127BC0813009F032
:105930009AC0E0E4EB1560F4D8011B966C921B97BB
:10594000611002C01D96CC92F80183818111A2C022
:10595000D8011B961C921B971D961C921D971C9696
:105960001C921C971A961C921A9719961C921997BA
:1059700018961C92189717961C92179716961C92B9
:10598000169715961C92159714961C9214971396B9
:105990001C92BD85BB2309F4CCC086E494E00E9430
:1059A000BD0F81E00E944F15F701EE59FF4F2D8585
:1059B000208387010B591F4F109211021092100281
:1059C000109293021092B5020E94310B83E293E091
:1059D00090930F0280930E02A4E2B3E0B0930D0205
:1059E000A0930C022BE0722E5801B8E0AB0EB11C54
:1059F0004701EDE68E0E911CC5010E94770AD40185
:105A0000D2969C91992311F0811198C07A947720B5
:105A100009F494C064E670E080E090E00E944005E4
:105A2000EBCFE72DF0E0581214C0D8011B968C91F3
:105A30001B97B816B0F4AE0FBF1F13968C918A2136
:105A400091F4512CB8E0BB1518F0D8011C96BC920B
:105A50006B2CE00FF11F83819A2D9095892383830E
:105A60000AC08B11EECFF801E70DF11D83818A2961
:105A7000838355245394652DC8010E940E0EB39460
:105A8000AA0C19F47394AA24A394B7E0B71508F0EC
:105A900043CF4FCFF701E65BFF4F9E012F5F3F4F94
:105AA0005901D90181918D9388899989E817F9075E
:105AB000C9F79D8591114CCF67E0C5010E94D30DB8
:105AC0009885891315CF8981803129F0823219F0A8
:105AD000883209F00DCFD40112961C930E931197C2
