:100000000C9492010C940E1B0C94E71A0C94B21CE5
:100010000C944F1C0C94DE1B0C94351B0C944C1B45
:100020000C94BA010C948E1B0C94BA010C94BA0176
:100030000C94BA010C94B81B0C94BA010C94BA013C
:100040000C949D1A0C94BA010C946B1A0C94451ADA
:100050000C94BA010C94841B0C94BA010C94BA0150
:100060000C94BA010C94BA013000303000303030BA
:100070000030303030003030303030003030303010
:10008000303000303030303030300020000D0A0089
:10009000202D200020002000200020002000200033
:1000A0000D0A002D3E2000007761697441636B3AB0
:1000B00020003C2D20000830565702030405060797
:1000C00008090A0B0C4E6F2073656C66207065651D
:1000D000722E2043726561746520696E7465726E5C
:1000E000616C2070656572696E6720746F20746F33
:1000F00067676C65207374617465210000206C6F04
:100100006E6772656C656173656400206C6F6E6705
:100110007072657373656400206465626F756E63E9
:1001200065002070726573736564002072656C658C
:100130006173656400424F4F544C4F414445520037
:100140004841564520444154410069676E6F7265CD
:1001500020002D3E20000D0A005061636B65742065
:10016000746F6F206269673A2000435243204661F2
:10017000696C65640052455345540000000000243A
:100180000027002A0000000000250028002B0000A6
:100190000000080002010000030407000000000046
:1001A000000000436F6E66696720467265713A20F1
:1001B0003078323100202D2072656164790043432C
:1001C0002056657273696F6E3A2000002E02060396
:1001D0000D04E905CA070C0B060D210E650F6A1008
:1001E000C81193120315341703181819161B431E50
:1001F0002F1F65207823E9242A251F26113E03316D
:1002000000526164696F20696E6974000D0A0049CB
:100210006E69742053746F726167653A20000D0A2D
:1002200000202D2000416464726573732053706157
:1002300063653A200000000000230026002900002A
:100240000102030405060700010203040500010280
:100250000304050404040404040404020202020268
:10026000020303030303030102040810204080017A
:10027000020408102001020408102041736B536926
:100280006E2B2B2076352E302E3320284D61722098
:10029000323920323032352032333A32313A30324C
:1002A0002900000000000000000002140505000005
:1002B000000002010A010000000000000000000030
:1002C000000000000000000000000603050101011D
:1002D000010A060101010501050A020602020000E9
:1002E000000005010804040404000D0A00207265E2
:1002F00061643A20002065787065637465643A2013
:10030000004572726F72206174200001D8A94A50B2
:1003100050535330303030310000D82610010000E7
:10032000151D622311241FBECFEFD8E0DEBFCDBF65
:1003300011E0A0E0B1E0E0E2FBE402C005900D9224
:10034000AA38B107D9F723E0AAE8B1E001C01D92AD
:10035000A633B207E1F711E0C1E9D1E004C021976B
:10036000FE010E944224C039D107C9F70E942D1E08
:100370000C9483250C940000782F8827769531F013
:1003800008F48627660F08F46427F8CF08F4862758
:10039000089508958FEF08950895AF92BF92CF9278
:1003A000DF92EF92FF920F931F93CF93DF936C0135
:1003B0007B018B01040F151FEB015E01AE18BF0816
:1003C000C017D10759F06991D601ED91FC910190C8
:1003D000F081E02DC6010995892B79F7C501DF91E0
:1003E000CF911F910F91FF90EF90DF90CF90BF9032
:1003F000AF900895FC01538D448D252F30E0842F5C
:1004000090E0821B930B541710F0CF96089501973C
:100410000895FC01918D828D981761F0A28DAE0F29
:10042000BF2FB11D5D968C91928D9F5F9F73928FB0
:1004300090E008958FEF9FEF0895FC01918D828DDC
:10044000981731F0828DE80FF11D858D90E00895A9
:100450008FEF9FEF0895FC01918D228D892F90E001
:10046000805C9F4F821B91098F73992708958FECB1
:1004700091E00E942B0221E0892B09F420E0822FD9
:10048000089580E090E0892B29F00E9437028111C5
:100490000C9400000895FC01A48DA80FB92FB11D84
:1004A000A35ABF4F2C91848D90E001968F739927AA
:1004B000848FA689B7892C93A089B1898C91837088
:1004C00080648C93938D848D981306C00288F38981
:1004D000E02D80818F7D80830895EF92FF920F93AE
:1004E0001F93CF93DF93EC0181E0888F9B8D8C8DE0
:1004F00098131AC0E889F989808185FF15C09FB7D4
:10050000F894EE89FF896083E889F9898081837096
:10051000806480839FBF81E090E0DF91CF911F9145
:100520000F91FF90EF900895F62E0B8D10E00F5F66
:100530001F4F0F731127E02E8C8D8E110CC00FB63C
:1005400007FCFACFE889F989808185FFF5CFCE01D4
:100550000E944B02F1CFEB8DEC0FFD2FF11DE35A02
:10056000FF4FF0829FB7F8940B8FEA89FB89808157
:100570008062CFCF0F931F93CF93DF938C01D0E096
:10058000C0E0F801EC0FFD1F6491662341F08FEC91
:1005900091E00E946D02892B11F02196F2CFCE01DD
:1005A000DF91CF911F910F910895CF93DF93EC01CD
:1005B000888D8823B9F0AA89BB89E889F9898C914B
:1005C00085FD03C0808186FD0DC00FB607FCF7CF07
:1005D0008C9185FFF2CF808185FFEDCFCE010E9407
:1005E0004B02E9CFDF91CF910895833081F028F459
:1005F000813099F08230A9F008958730A9F08830D1
:10060000C9F08430B1F4809180008F7D03C0809167
:1006100080008F7780938000089584B58F7784BDA4
:10062000089584B58F7DFBCF8091B0008F77809344
:10063000B00008958091B0008F7DF9CFCF93DF9304
:10064000282F30E0F901E157FE4F8491F901E95973
:10065000FD4FD491F901ED5AFD4FC491CC23A1F087
:1006600081110E94F502EC2FF0E0EE0FFF1FEB5C12
:10067000FD4FA591B491EC91ED2381E090E009F458
:1006800080E0DF91CF91089580E090E0FACF1F9352
:10069000CF93DF93282F30E0F901E157FE4F84918B
:1006A000F901E959FD4FD491F901ED5AFD4FC4917B
:1006B000CC23A9F0162F81110E94F502EC2FF0E057
:1006C000EE0FFF1FEB57FE4FA591B4918FB7F89433
:1006D000EC91111108C0D095DE23DC938FBFDF9120
:1006E000CF911F910895DE2BF8CFCF93DF9390E049
:1006F000FC01E959FD4F24918D5A9D4FFC018491D5
:100700008823C9F090E0880F991FFC01E558FE4F3F
:10071000A591B491FC01EB57FE4FC591D4916111A5
:100720000DC09FB7F8948C91209582238C9388817B
:10073000282328839FBFDF91CF910895623051F421
:100740009FB7F8943C91822F809583238C93E88106
:100750002E2BEFCF8FB7F894EC912E2B2C938FBFCD
:10076000EACF8EBD0DB407FEFDCF8EB5089561E0D2
:100770008AE00C9447038CE00E941E038111FBCF9A
:10078000089560E08AE00C944703CF93C82F0E943D
:10079000C1030E94BB038C2F0E94B103C82F0E948B
:1007A000B7038C2FCF91089586E30E94C5038DE394
:1007B0000E94C5038AE30C94C503CF93DF93D82F1F
:1007C000C62F0E94C1030E94BB038D2F8C2B0E9459
:1007D000B10380E00E94B103C82F0E94B7038C2FA1
:1007E000DF91CF910895FC018289938960E0911196
:1007F00001C061E00C944703683050F4FC01808133
:1008000091810496FAE16F9F800D911D1124089546
:1008100090E080E0089582508B3030F4E82FF0E0D3
:10082000E65EFE4F808108958FEF0895843030F4A6
:10083000E82FF0E0EB5DFE4F808108958FEF089583
:10084000FC01108608950F931F93CF93DF9327E544
:1008500031E0FC01318320838C01065C1F4F79F06D
:10086000EC01C35BDF4F0C171D0749F06397E8816C
:10087000F9810280F381E02DCE010995F4CFDF915B
:10088000CF911F910F9108950895FC01828993895A
:1008900061E0911101C060E00C944703E0919A017E
:1008A000F0919B01838581FD03C083858C608387E4
:1008B00008958B3028F08B500E9459048068089569
:1008C000E82FF0E0E654FF4F84910895E6EBF0E066
:1008D000E4918E1789F0E7EBF0E0E4918E1771F068
:1008E000E8EBF0E0E4918E1759F0E9EBF0E0E491E9
:1008F0008E1308C083E0089580E0089581E0089594
:1009000082E008958FEF0895843030F4E82FF0E00E
:10091000EA54FF4F849108958FEF08951F93CF936A
:10092000DF93FC01238520FF11C0162FEC010E94EC
:10093000C1030E94BB030E94B70311110E94D4039C
:1009400084E30E94C5038B858E7F8B87DF91CF91D7
:100950001F91089580E008950895683028F4049662
:100960000E94FC030496089590E080E008950895A5
:1009700008950895089508950C94BA020E94BC0445
:1009800080EA90E00C94BC040F931F93CF938C01EA
:10099000C62F88E191E06430A1F058F48BE291E039
:1009A000623079F082E291E0633059F08CEF90E0B0
:1009B00008C08BE091E0653021F08DEF90E066306B
:1009C000A9F70E94BE04C770F8018085887FC82BF4
:1009D000C087CF911F910F910895CF93DF93EC01C2
:1009E000433089F461E08A890E944703EB85FC85E6
:1009F0000280F381E02D81E0858B8C8184608C8383
:100A0000DF91CF9108954630C1F760E08A890E9456
:100A10004703EB85FC850280F381E02D158AEDCF3D
:100A2000089508950895982FEAEBF0E080E024916E
:100A3000921729F08F5F31968B30C9F78FEF0895A9
:100A4000CF93C0E09BE09C0F87FF03C08F77C92F37
:100A5000F9CF0E9413058C0FCF910895E6EBF0E0DB
:100A6000E4918E1789F0E7EBF0E0E4918E1771F0D6
:100A7000E8EBF0E0E4918E1759F0E9EBF0E0E49157
:100A80008E1308C083E0089580E0089581E0089502
:100A900082E008958FEF0895862728E0BC017695BF
:100AA0006795AC014170552780FF02C041E050EAD4
:100AB000CB0184279527215089F70895FC01808177
:100AC000811109C08181811106C081E0928191115B
:100AD00003C080E0089581E00895DC01FB019C9152
:100AE000808198130BC011969C9111978181981366
:100AF00005C081E012962C919281291380E008951F
:100B0000FC013381FB012381321302C00C946D057B
:100B100080E00895CF93DF9300D000D0CDB7DEB74B
:100B2000FC0180899485998395859A8396859B831A
:100B30008C83882389F0BF01645F7F4FCE010196CB
:100B40000E948005811108C082E00F900F900F90E5
:100B50000F90DF91CF91089581E0F7CF2FB7F894F0
:100B6000FC01808191812FBF0895CF92DF92EF9297
:100B7000FF92CF93DF93EC018DE792E00E94AE05E8
:100B80000097D9F00297C12CD12C76010097A9F0DB
:100B9000FC01258136814781642FA90170E0C40ED4
:100BA000D51EE61EF71E8C179D0751F002960E9477
:100BB000AE05009711F00297E9CFC12CD12C760138
:100BC000C701B601DF91CF91FF90EF90DF90CF90FA
:100BD00008950E94B505672B682B692B11F480E0FE
:100BE000089580E40895FF920F931F93CF93DF93AE
:100BF000EC018B01FFB6F8940E94AE059C019FB7F3
:100C0000F894F801318320839FBF8FB7F89419833C
:100C100008838FBFFFBEDF91CF911F910F91FF908F
:100C200008956F927F928F92DF92EF92FF920F93CF
:100C30001F93CF93DF937B0122E0E20EF11CDB01D7
:100C400015962D913D914C91232B242B09F44DC0E9
:100C5000EB01DFB6F8942C8122602C838C010E947A
:100C6000AE05009709F43EC0FC013297A1F0658003
:100C7000768087802D813E814F81CF01029662165A
:100C80007306840650F42619370948092D833E83DC
:100C90004F838C01E4CF90E080E02FB7F8949B83E2
:100CA0008A832FBF8FB7F894D801ED92FC928FBF43
:100CB000309761F085819681A7812D813E814F819A
:100CC000821B930BA40B85839683A783DFBEDF91E2
:100CD000CF911F910F91FF90EF90DF908F907F90B9
:100CE0006F900895F0E0E0E0D8CFB7010296DF9171
:100CF000CF911F910F91FF90EF90DF908F907F9099
:100D00006F900C94F3051F93CF93DF93EC01FB01DD
:100D10002885922F9770943079F040F4923051F0FA
:100D2000933039F1DF91CF911F910895953009F1FA
:100D30009630C1F711E012C023FD21C02A853B8502
:100D40002550310913E02115310541F040E02D8394
:100D50003E834F83BE01CF010E941106E881F981D5
:100D60000680F781E02D612FCE01DF91CF911F9199
:100D7000099423FDD7CF2A853B8515E0E4CF25E0F4
:100D800030E012E0E3CF0F931F93CF93DF93EC019A
:100D90008B01E88981E08E0F888BEC0FFD2FF11D10
:100DA000228530E0A4E6B0E00E9421242AE030E071
:100DB00040E050E00E94FF232D833E834F83BE011D
:100DC000C8010E94110688898170DF91CF911F911F
:100DD0000F910895EF92FF920F931F93CF93DF939C
:100DE000EC01FFB6F8940E94AE058C01892B71F0DE
:100DF000EFB6F894CE010E94AE050E94AE059C01AC
:100E00009FB7F894398328839FBFEFBEFFBEC80108
:100E1000DF91CF911F910F91FF90EF900895BF92B6
:100E2000CF92DF92EF92FF920F931F93CF93DF93B6
:100E3000EC01FFB6F8948C818D7F8C838DE792E076
:100E40000E94AE050097C9F19C01225031098DE73F
:100E500092E02115310589F189010E5F1F4FC217FC
:100E6000D30709F50E94EA06C8010E94AE05009763
:100E700079F0FC01329761F085819681A7812D81FF
:100E80003E814F81820F931FA41F85839683A78382
:100E9000FFBEDF91CF911F910F91FF90EF90DF90F8
:100EA000CF90BF900895C8010E94AE05009729F029
:100EB0009C0122503109C801CCCF6E0182E0C80EDE
:100EC000D11CEFB6F894BFB6F8948FE792E00E9479
:100ED000AE05EC012FE732E0209779F010E000E05A
:100EE000CC16DD0609F48901CE010E94AE059E01F3
:100EF0000115110521F4EC01EFCF10E000E0BFBEB9
:100F00000115110511F4EFBEC3CFC8010E94EA0616
:100F1000FACF0F931F93CF93DF93FC01C085D18548
:100F200089850E941E03988593FB002700F910E035
:100F300080171106C1F180FB93F99887892F87707C
:100F4000292F287093FD02C0813069F5182F833056
:100F500019F1853009F1813079F414E0CE010E9455
:100F60000F0785E090E0A0E08D839E83AF83BE01F4
:100F70008DE792E00E94110688858770811799F0AD
:100F8000E881F9810680F781E02D612FCE01DF91A4
:100F9000CF911F910F910994222371F312E08330B6
:100FA000E9F216E0DBCFDF91CF911F910F91089509
:100FB0008DE892E00E940F076DE872E08DE792E005
:100FC0000C941106CF92DF92EF92FF92CF93DF93B2
:100FD000EC016A017B010E94B5056C157D058E054B
:100FE0009F0598F481E08887CE010E940F07CD828B
:100FF000DE82EF82BE018DE792E0DF91CF91FF901C
:10100000EF90DF90CF900C941106DF91CF91FF907D
:10101000EF90DF90CF900895CF92DF92FF920F93E1
:101020001F93CF93DF938C01FFB6F8940E94AE0517
:10103000009769F1EC01229751F18D819E81AF817A
:101040000197A1098D839E83AF83680182E0C80E5A
:10105000D11C8D819E81AF81892B8A2BC1F4C8015F
:101060000E94EA068C8180FF1CC08D7F8C83E88102
:10107000F9810190F081E02DB801CE010995C801F8
:101080000E94AE05009719F0EC01229711F7FFBE00
:10109000C801DF91CF911F910F91FF90DF90CF900A
:1010A0000895BE016E5F7F4FC6010E94F305E7CF32
:1010B0008F929F92AF92BF920F931F93CF93DF9324
:1010C000CDB7DEB7A1970FB6F894DEBF0FBECDBF88
:1010D00019A2423008F44AE08E010F5D1F4F842EA2
:1010E000912CB12CA12CA50194010E94FF23E62F85
:1010F000B901CA01EA3044F5E05DD801EE938D01F3
:10110000232B242B252B79F790E080E0109769F0B2
:10111000FD0101900020E9F73197AF014A1B5B0BFD
:10112000BD018FEC91E00E94CD01A1960FB6F8941D
:10113000DEBF0FBECDBFDF91CF911F910F91BF904A
:10114000AF909F908F900895E95CD7CFCF93C82F31
:10115000803128F460E38FEC91E00E946D026C2FE7
:1011600070E090E080E040E1CF910C945808EF925D
:10117000FF920F931F93CF93DF93EC0188810E941E
:10118000A6088EE990E00E94BC0489810E94A6080E
:101190008CE990E00E94BC048A810E94A6088AE93A
:1011A00090E00E94BC048B810E94A60888E990E030
:1011B0000E94BC048C810E94A6088D810E94A60812
:1011C0008E810E94A60886E990E00E94BC048F816F
:1011D0000E94A60888850E94A60889850E94A60804
:1011E00084E990E00E94BC04088109502A967E019F
:1011F00010E0C7018C1B9D0B8017910754F4F70179
:1012000081917F010E94A6088BE890E00E94BC04B7
:10121000F0CF80E990E00E94BC042FB7F894609171
:1012200096017091970180919801909199012FBF3B
:101230004AE00E9458088DE890E0DF91CF911F911D
:101240000F91FF90EF900C94BC04CF92DF92EF923D
:10125000FF926B017C0180E1C816D104E104F10426
:1012600068F483E890E00E94BA0240E1C701B60149
:10127000FF90EF90DF90CF900C9458088FEFC81636
:10128000D104E104F10409F018F48CE790E0EBCF0D
:10129000C11480E1D806E104F10418F486E790E077
:1012A000E2CFC114D10481E0E806F10418F481E72B
:1012B00090E0D9CFC114D10480E1E806F10418F41C
:1012C0008DE690E0D0CFC114D104E10481E0F806AE
:1012D00018F48AE690E0C7CFC114D104E10480E19C
:1012E000F80618F688E690E0BECF0F931F93CF93D1
:1012F000DF93D82FC62F142F0E94C1030E94BB0377
:101300008D2F0E94B1038C2F0E94B1030E94B7035E
:1013100060E88D2F0E94DD03082F81E0C01771F077
:10132000112389F04FEF410F6C2F8D2F0E9475090B
:10133000EFECF7E03197F1F700C00000DF91CF91BB
:101340001F910F91089581E093E00E94BC048D2FBE
:101350000E94A60885EF92E00E94BC048C2F0E9498
:10136000A6088DEE92E00E94BC04802F0E94A60881
:101370008AEE92E00E94BC0480E0E0CFCF93C8ECFC
:1013800060EC85E30E94DD038D3049F0C15039F0F7
:101390008FE891E00197F1F700C00000F1CF81E004
:1013A000C11101C080E0CF9108950F931F93CF9397
:1013B000DF93EC018B010E940F07CE010E944504D0
:1013C000B80183E0660F771F8A95E1F76E557D4F70
:1013D00048E050E0CE0108960E9466238885882365
:1013E00089F0188A198A6DE772E0CE010E94C3065F
:1013F0008C89882339F0CE01DF91CF911F910F9115
:101400000C94F303DF91CF911F910F9108950F93E7
:101410001F93CF93DF9300D01F92CDB7DEB78B0120
:1014200043E050E0BC01CE0101960E9466239A8100
:101430008B812981F8012083918382830F900F9003
:101440000F90DF91CF911F910F9108951F93CF932C
:10145000DF93EC011FB7F89498898885981778F482
:10146000CE010E94C3061FBF8823D9F08C89882330
:10147000F1F0CE01DF91CF911F910C94F303188A04
:101480009985992369F389898F5F898B891740F33F
:1014900048E050E062EA72E0CE0108960E946623BE
:1014A0001FBFCE01DF91CF911F910C944504DF91B6
:1014B000CF911F910895EF92FF920F931F93CF93B7
:1014C000DF931F92CDB7DEB78C017B01E80EF91ECA
:1014D000198241E050E0B801CE0101960E947F23BD
:1014E0000F5F1F4FE016F10699F781E00F90DF9133
:1014F000CF911F910F91FF90EF90089585E791E0B4
:101500000E94BE0464E070E090E080E00E945B0A0C
:10151000F0E0E0E00994CF93DF931F92CDB7DEB700
:10152000FC0180819181680F792F711D498341E011
:1015300050E0CE0101960E947F2381E00F90DF9161
:10154000CF9108951F93CF93DF93EC01862F142F33
:101550000E9413058F3F41F0412F682FCE01DF918C
:10156000CF911F910C948B0A80E0DF91CF911F9156
:101570000895CF93DF931F92CDB7DEB7198241E074
:1015800050E0BC01CE0101960E946F2389810F902B
:10159000DF91CF9108950F931F93CF93DF938C0129
:1015A000862FD42FC22F0E9413058F3FB9F0F80168
:1015B00020813181820F932F911D0E94B90A2FE063
:1015C00030E00D2E01C0220F0A94EAF7822390E04A
:1015D00002C095958795DA95E2F7C82F8C2FDF9199
:1015E000CF911F910F9108950F931F93CF938C016B
:1015F000862FC42F0E9413058F3F59F0F8012081D8
:101600003181820F932F911DCF911F910F910C94D7
:10161000B90A8C2FCF911F910F910895CF93DF932B
:10162000CDB7DEB760970FB6F894DEBF0FBECDBF63
:10163000DB012D913C91232B61F4833031F020E0CC
:1016400030E0A901863009F048C02FEF3FEFA90133
:1016500044C09B01833009F44BC030F440E066E0A5
:10166000813049F080E00CC0843009F444C04FEF71
:1016700069E08630B9F7C9010E94F40A8F3F29F367
:1016800090E1EAE0F1E0DE01119601900D929A9569
:10169000E1F7282F30E095E0359527959A95E1F709
:1016A000220F331FE1E0F0E0EC0FFD1F2E0F3F1F74
:1016B000D901ED91FC918F71282F30E0A4E6B0E0C4
:1016C0000E9421249B01AC01DF010E9437242AE003
:1016D00030E040E050E00E94FF23CA01B90160966B
:1016E0000FB6F894DEBF0FBECDBFDF91CF91089546
:1016F0004FEF67E0C0CF40E068E0BDCF8F929F9290
:10170000AF92BF92CF92DF92EF92FF920F931F930F
:10171000CF93DF93EC01D62E49015A01780185E081
:10172000C82EF701808191819A878987DD2009F48D
:1017300044C0CA94CC2009F440C0CE010E940F07D7
:101740006885D61659F0E881F9810680F781E02D89
:10175000950184014D2DCE010995D88681149104FF
:10176000A104B10481F4E885E150D12CE63020F4E5
:10177000F0E0E75DFE4FD080B7018D2D0E940E0B8B
:101780004B015C01CECFFFEF8F169F06AF06BF0661
:10179000A1F08D829E82AF82BE018DE792E0DF9143
:1017A000CF911F910F91FF90EF90DF90CF90BF905E
:1017B000AF909F908F900C941106DF91CF911F9165
:1017C0000F91FF90EF90DF90CF90BF90AF909F90E0
:1017D0008F900895FF920F931F93CF93DF93EC01A7
:1017E000E885E150F12CE63020F4F0E0E75DFE4FB3
:1017F000F0808E01075F1F4FB8018F2D0E940E0BE6
:101800009B01AC016F2DCE010E947E0BDF91CF9129
:101810001F910F91FF9008958F929F92AF92BF9268
:10182000CF92DF92FF920F931F93CF93DF9300D05D
:10183000CDB7DEB76C018B01F42E20E040E06AE00A
:10184000C8010E94CB0A823009F45DC0833009F4DC
:1018500066C0813049F4F60180858330D9F090F478
:1018600022E040E08130D9F00F900F90DF91CF91CE
:101870001F910F91FF90DF90CF90BF90AF909F90FE
:101880008F900895843049F021E044E0863061F77C
:101890006BE006C024E040E0FBCF25E044E06CE0D4
:1018A000C8010E94CB0AF82E8823F1F2B8010E94E9
:1018B0000E0B4B015C01F60180858F1539F0A501F7
:1018C00094016F2DC6010E947E0BCECFF3E0FF1670
:1018D00061F186E0F812F3CFEFEF8E169E06AE06AA
:1018E000BE0669F38AE00E9413058F3F41F3F801B9
:1018F00020813181820F932F911D0E94B90A86FBAE
:10190000882780F929C01A821982F0FC0CC066E091
:101910008E010F5F1F4F2FEF3FEFA901D3CF1A8228
:101920001982F0FCF4CF63E0F3CFFFEF8F169F0630
:10193000AF06BF0621F28AE00E9413058F3F09F42B
:10194000BECFF80120813181820F932F911D0E941B
:10195000B90A881F8827881F882309F4B0CFC601D9
:101960000E94B505611571058105910509F47CCFCB
:1019700086169706A806B90608F0A1CF75CFEF9294
:10198000FF920F931F93CF93DF93EC018B01FB0129
:101990008081918103960E94B90AF82EF801808116
:1019A000918102960E94B90AE82EF8018081918106
:1019B00001960E94B90A8883E982FA82CE01DF91FA
:1019C000CF911F910F91FF90EF900895EF92FF92AA
:1019D0000F931F93CF93DF937C01D62FC42F122F29
:1019E000FC0180819181860F911D0E94B90A2C2FE4
:1019F00001C0220F0A95EAF7482F422741234827C2
:101A00006D2FC701DF91CF911F910F91FF90EF9044
:101A10000C948B0A0F93CF93DF93EC018AE00E9422
:101A200013058F3F59F000E02FE041E0682FCE0111
:101A30000E94E60CDF91CF910F91089580E0FACFDC
:101A40000F931F93CF93DF9300D01F92CDB7DEB7D4
:101A50008C01FC01808191819A8389836BE070E025
:101A60000E945B0A42E364E0CE0101960E94A20A52
:101A700044E665E0CE0101960E94A20A4FEF67E0BE
:101A8000CE0101960E94A20A4FEF69E0CE010196B5
:101A90000E94A20ACE0101960E940A0DF8018081DF
:101AA00091810B969A8389836BE070E00E945B0AB8
:101AB00042E364E0CE0101960E94A20A44E665E09A
:101AC000CE0101960E94A20A4FEF67E0CE01019677
:101AD0000E94A20A4FEF69E0CE0101960E94A20A7D
:101AE000CE0101960E940A0D8AE00E9413058F3FE5
:101AF00081F009811A81080F111DC8010E94B90ADD
:101B000080628B8341E050E0B801CE0103960E94D1
:101B10007F230F900F900F90DF91CF911F910F9126
:101B200008950F931F93CF93DF9300D0CDB7DEB707
:101B30008C010E94200DF801808191819A83898314
:101B400043E16BE0CE0101960E94A20A43E36CE000
:101B5000CE0101960E94A20AF801808191810B9624
:101B60009A83898343E16BE0CE0101960E94A20A29
:101B700043E36CE0CE0101960E94A20A0F900F9001
:101B8000DF91CF911F910F9108950F931F93CF93E2
:101B9000DF9300D0CDB7DEB78C010E94200DF80195
:101BA000808191819A83898344E66BE0CE0101961E
:101BB0000E94A20A46E66CE0CE0101960E94A20AAB
:101BC000F801808191810B969A83898344E66BE0CA
:101BD000CE0101960E94A20A46E66CE0CE01019673
:101BE0000E94A20A0F900F90DF91CF911F910F9149
:101BF0000895CF93DF93EC01CB011A8219821882EA
:101C00001B82642F04960E94FC03009731F044E08D
:101C100050E0BC01CE010E946F23CE01DF91CF9135
:101C20000895CF92DF92EF92FF921F93CF93DF93AD
:101C300000D000D0CDB7DEB77C016B0110E0412FA2
:101C4000B701CE0101960E94F90DB601CE010196B1
:101C50000E948005882391F0612FC70104960E949D
:101C6000FC0304960F900F900F900F90DF91CF918F
:101C70001F91FF90EF90DF90CF9008951F5F183075
:101C8000F1F690E080E0EECFEF92FF920F931F937A
:101C9000CF93DF9300D000D000D0CDB7DEB78C015A
:101CA000FB01E2848481898385818A8386818B8399
:101CB0008E2D8F738C83F384BE016F5F7F4FC801BD
:101CC0000B960E94110E009789F1E6FE23C00B9639
:101CD0009E838D83F80181898F111EC08AE00E9446
:101CE00013058F3F49F02D813E81820F932F911D67
:101CF0000E94B90A85FD10C081E026960FB6F894BF
:101D0000DEBF0FBECDBFDF91CF911F910F91FF902E
:101D1000EF9008959E838D83F801F18A4F2DBE01C7
:101D20006B5F7F4FC8010E940C0CE6CF80E0E5CFCF
:101D3000CF93DF9300D000D000D01F92CDB7DEB795
:101D4000FC01962F21111FC082A593A59A83898338
:101D500084E08B8386E194E09D838C838BE094E028
:101D60009F838E8329813A814B815C816D817E8145
:101D70008F8190E027960FB6F894DEBF0FBECDBFDF
:101D8000DF91CF910895662321F181A5861740F157
:101D900084A595A5213081F4FC016785708926E62C
:101DA00034E044E854E094E07A8369839B835D8364
:101DB0004C833F832E83D6CF233091F4BA010B9608
:101DC0000E94110EBC0120E235E049E554E096E1A5
:101DD000EBCF30E020E050E040E070E060E0E4CFA6
:101DE00030E020E050E040E090E0F7CFCF92DF928B
:101DF000EF92FF921F93CF93DF9300D000D0CDB727
:101E0000DEB77C016B0110E0412FB701CE010196D6
:101E10000E94F90DBE016F5F7F4FC6010E948005D1
:101E2000811103C01F5F183079F70F900F900F904A
:101E30000F90DF91CF911F91FF90EF90DF90CF90A7
:101E40000895EF92FF921F93CF93DF9300D000D0BD
:101E5000CDB7DEB77C0110E0412FB701CE0101966E
:101E60000E94F90DCE0101960E945E05882321F0A3
:101E70001F5F183089F71FEF812F0F900F900F9081
:101E80000F90DF91CF911F91FF90EF900895AF9247
:101E9000BF92CF92DF92EF92FF921F93CF93DF9387
:101EA00000D000D0CDB7DEB77C016B0110E05C0143
:101EB00084E0A80EB11C412FB701CE0101960E940B
:101EC000F90DB601CE0101960E948005882379F0B4
:101ED0001B821A8219821C82612FC5010E94FC0399
:101EE00044E050E0BC01CE0101960E947F231F5FB9
:101EF000183009F781E00F900F900F900F90DF914D
:101F0000CF911F91FF90EF90DF90CF90BF90AF9057
:101F10000895CF92DF92FF920F931F93CF93DF9399
:101F200000D000D01F92CDB7DEB78C016B010E94AC
:101F3000470FC8010E94210FF82E8FEFF81609F401
:101F400059C06F2DC80104960E94FC0344E050E084
:101F5000BC01C6010E947F236F2DC8010E94AD0401
:101F60009C838B83CE0103960E94200D8B819C81E4
:101F70009A83898344E16BE0CE0101960E94A20A14
:101F800043E66CE0CE0101960E94A20A8B819C81FF
:101F90000B969A83898344E16BE0CE0101960E94FF
:101FA000A20A43E66CE0CE0101960E94A20A8AE0F2
:101FB0000E9413058F3F81F009811A81080F111DBE
:101FC000C8010E94B90A8F7D8D8341E050E0B801BD
:101FD000CE0105960E947F2381E00F900F900F9015
:101FE0000F900F90DF91CF911F910F91FF90DF9095
:101FF000CF90089580E0F1CFAF92BF92CF92DF9261
:10200000EF92FF920F931F93CF93DF938C016B019D
:10201000DC011B968C911B978B7F1B968C93780110
:10202000BDE0EB0EF11C60EC8BE30E94DD031816A3
:102030000CF042C060E88FE30E94DD03C82F8D31B1
:1020400008F061C00E94C1030E94BB038FEF0E9491
:10205000B103DE2D57018A2D8D1B8C1738F480E0DB
:102060000E94B103F50181935F01F5CF0E94B70390
:1020700060E88FE30E94DD03282F30E0082E000C7B
:10208000990B88279170A901481B590BCA0157FD6C
:10209000019695958795919581959109865BD801D3
:1020A00011968C9360E88FE30E94DD0387FD05C0E5
:1020B0008AE691E00E94BE04C0E00E94D40384E35B
:1020C0000E94C503DFEFDC0FCC2309F453C0D830E6
:1020D00050F5F8011486F8014485858596E7982720
:1020E000958721E04150550B622F70E0F701E60F14
:1020F000F71F908164177507D4F484528927808371
:102100002F5F892FF1CF89E591E00E94BC046C2FED
:1021100070E090E080E04AE00E94580886E591E097
:102120000E94BC04C9CFD8011C96CC93D4CFD8014F
:102130001E968C91892780834C2F50E0B701C601F1
:1021400001960E947A25D830A8F4F6011082F80191
:10215000148660E0C8010E948E04D6018C91DF9144
:10216000CF911F910F91FF90EF90DF90CF90BF9094
:10217000AF900895D601CC93EACF2F923F924F9221
:102180005F926F927F928F929F92AF92BF92CF9207
:10219000DF92EF92FF920F931F93CF93DF93CDB710
:1021A000DEB7A2970FB6F894DEBF0FBECDBF6C01AD
:1021B0008B01FA018081DB0117968C93179781813F
:1021C00018968C931897828119968C9365E772E024
:1021D000CA010E946D05882329F0F80182818F7D54
:1021E00084608283B8016C5F7F4FD60196968D9193
:1021F0009C910E94070AF801828180688283D6013F
:1022000012968D919C9162E070E002960E94D50931
:1022100026E0922EF8013196FAA3E9A33AE0432E84
:10222000512C612CC801079698A38F8FD601129666
:10223000ED90FC905701B1E2AB0EB11CF801828128
:1022400080718E8F1701FEE22F0E311CD8014C9148
:1022500050E069A17AA1C1010E947A25F80180812C
:102260009FEF980F9830F8F4D7019D961C92D701F4
:102270009D962C919D979E968C91B6E78B27F701A2
:1022800086A777A561E02150330B462F50E0F1017E
:10229000E40FF51F90814217530744F484528927B5
:1022A00080836F5FF2CFF70185A7E1CF97279083F7
:1022B000D7019D967C90B7016D5D7F4FF70183A498
:1022C000882039F08FEC97E00197F1F700C000000B
:1022D000F5CFD70140A651A662A6E1E09B96EC930C
:1022E0008DE792E00E94110661E0C5010E948E0414
:1022F000E8988CEC91E09093010180930001D70164
:102300009C968C919C9782609C968C9386E30E940D
:10231000C5038BE30E94C50385E30E94C50398ECC7
:10232000A92E60EC85E30E94DD03833109F4DEC051
:10233000AA94AA2009F4CAC0E7ECF0E03197F1F7BB
:1023400000C00000EECF0E94B7030E94BE09B82E65
:10235000F70184A58D7F84A78EE494E0909301011A
:1023600080930001809169008C7F82608093690076
:10237000E89A82EB90E00E94BC04C8010E94B70872
:102380009A94BB2009F49AC0D80112968C9185FDCD
:1023900024C0F601828193818824839463E070E0F5
:1023A00002960E94D509882DA2960FB6F894DEBF3A
:1023B0000FBECDBFDF91CF911F910F91FF90EF9096
:1023C000DF90CF90BF90AF909F908F907F906F9055
:1023D0005F904F903F902F9008958F8D98A10E940D
:1023E0005E058823B1F219821A821B821C821F8229
:1023F0001E821D821A86198618861B861C868CE30F
:10240000F82ED60112968D919C91FC0124A522FDF7
:102410000BC08FE19EE40197F1F700C00000FA9431
:10242000F110EFCFF12C3DC0BE016F5F7F4F819661
:102430000E94FC0F882369F383EA90E00E94BC04A9
:10244000CE0101960E94B708D80111969C918A810D
:102450009813DFCFBE016B5F7F4F8F8D98A10E94D5
:102460006D058823B1F28C81F12C823041F48B858B
:10247000F82EF094FF1CFF24FF1C87FD912CF8011F
:10248000828181FD03C08B8180FF0BC0D601129633
:102490008D919C9142E350E060E070E048960E948C
:1024A000E20788EA90E00E94BC048F2D0E94A608F3
:1024B00087EA90E00E94BE04F1106BCF9110B6CE77
:1024C000F6018281938164E070E06ACF86E30E9426
:1024D000C5038BE30E94C5038DE30E94C50384E31B
:1024E0000E94C5030E94BE09B12C32CF8FE19EE449
:1024F0000197F1F700C000009E8D992349F0FFE796
:102500002BE888E0F15020408040E1F700C0000057
:102510000E94C1030E94BB038FE30E94B103872D79
:102520000E94B1030E94B7030E94C1030E94BB0333
:102530008FE70E94B1032E8E51018A2D9E8D891B3B
:10254000871508F000CFD5018D915D010E94B10380
:10255000F4CF0F931F93CF93DF93EC018B018AE1AC
:102560008F831A86198648871A8A6EA17FA1FB017C
:10257000719684913197E491E98B8E8F625F7F4FE2
:1025800042E050E0CE0142960E9466236EA17FA1F8
:102590006D5F7F4F4AE050E0CE0144960E94662373
:1025A00089A58F8F6EA17FA16E5E7F4F42E050E0C4
:1025B000CE0180960E946623BE01695F7F4FA8010D
:1025C000CE01DF91CF911F910F910C94BD10CF924E
:1025D000DF92EF92FF920F931F93CF93DF9300D080
:1025E0001F92CDB7DEB77C01162FDC0118960C9137
:1025F00007700E94C404123009F05BC0F70107891C
:10260000108DD80116968C9116978F5F16968C9325
:1026100016979BE017969C93179790E41A969C93B5
:102620001A9792E219969C93199791E051969C9370
:10263000519718968C93189752968C936801B7E02F
:10264000CB0ED11CB801625F7F4F0788F08DE02D63
:1026500086A197A10E94070AB801655F7F4FD70145
:102660005796ED91FC9186A197A10E94070AF80167
:1026700081858F7D8187D70157968D919C91DC0153
:10268000ED91FC910680F781E02DB601099581114D
:1026900004C085EC90E00E94BE040F900F900F9054
:1026A000DF91CF911F910F91FF90EF90DF90CF902E
:1026B0000895163069F5F7010789108DD80116962F
:1026C000FC901697F3941696FC92169714966D91BB
:1026D0007C91CE0101960E94BF0C4F2DBE016F5F11
:1026E0007F4FC8010E94A912F8018281938161E0A5
:1026F00070E002960E94D509D80112968D919C91A6
:1027000040ED57E060E070E048960E94E207C5CFD8
:10271000153019F6053019F40E947E0ABECFD70194
:102720005796ED91FC918281938167E070E002966B
:102730000E94D509B2CF2F923F924F925F926F9233
:102740007F928F929F92AF92BF92CF92DF92EF9241
:10275000FF920F931F93CF93DF93CDB7DEB7A89768
:102760000FB6F894DEBF0FBECDBF6C017B011BA27C
:102770001AA219A2BE016F5D7F4FDC0196968D9162
:102780009C910E94070AF7013796F8A7EFA3BE01B4
:102790006F5D7F4FCF010E946D05082F882309F4DC
:1027A000D6C0D60112960D911C915801B3E2AB0E22
:1027B000B11CC5010E940F078AE090E0A0E0F8017B
:1027C00080A791A7A2A781E083A7B5018DE792E03A
:1027D0000E94110682E591E00E94BC04C7010E949C
:1027E000B7084701F4E08F0E911CB401C601C696EC
:1027F0000E946D05382E811116C1F7018481D60122
:10280000D6968C93D6978581D7968C93D7978681C9
:10281000D8968C93D8978181D9968C93D997149612
:102820006D917C91CE0101960E94BF0CBE016F5F3D
:102830007F4F85E792E00E946D0501E00827F601D1
:1028400064817581CE0101960E94BF0CBE016F5F4D
:102850007F4FC4010E946D05D7011396BC91BCA3A4
:10286000F70112855384B13009F0C4C3002319F075
:10287000882309F4DFC0FAE05F12DEC0D601969625
:102880006D917C916D5F7F4F4AE050E0CE010196E3
:102890000E9466234AE050E0BE016F5F7F4FC70190
:1028A0000C960E946D25892B09F4EDC0B12CA12C4A
:1028B00002E0502ED70112968C9185FF3BC0BE01DD
:1028C0006F5D7F4F8FA198A50E946D05882391F1C0
:1028D000B1E05B12B1C5A114B10409F49BC5D601E6
:1028E0001296ED91FC9112A18EE0F701808382E0B7
:1028F000838312825286D5011E968C911E97838700
:1029000018968C91863009F083C580E0F7018487A2
:10291000C5010E94E905D7011D968C931D971E964F
:102920001C93A401B701C6010E94BD10F50184816A
:102930008B7F8483D60112968D919C9142E350E067
:1029400060E070E048960E94E20701E052C0D701C3
:102950008C91898311968C9111978A831296BC90E1
:102960001297BB8213961C9113971C8314968C911B
:1029700014978D8315968C9115978E8316968C914E
:1029800016978F8317968C911797888718968C9136
:102990001897898719968C9119978A871A968C911E
:1029A0001A978B871B96AC90AC8681E1F7013C9619
:1029B000DE011D9601900D928A95E1F765E772E0C0
:1029C000CE0108960E946D05882331F0113021F464
:1029D000BAE0AB1609F4E5CEB2FE04C010541230D2
:1029E00008F4DFCE8AE491E00E94BC04C7010E9493
:1029F000B708802FA8960FB6F894DEBF0FBECDBFE4
:102A0000DF91CF911F910F91FF90EF90DF90CF90CA
:102A1000BF90AF909F908F907F906F905F904F90FE
:102A20003F902F900895F60191ADD70111968C91AA
:102A30009813E3CE00E0DDCFB1E05B12A5C0112317
:102A400009F434CFD60199968C919997811708F49F
:102A50002DCF9C96AD90BC90C7010E948A0537018E
:102A6000BCE06B0E711C8501055F1F4F813039F58D
:102A7000B301C8010E94890F882309F419CF81E0AE
:102A8000F60180A717CFF6018281938161E070E0A3
:102A900002960E94D509D60112968D919C9140ED27
:102AA00057E060E070E048960E94E207F70140813D
:102AB000B401C6010E94A912B12CA12CDCC2F701FD
:102AC00080899485998395859A8396859B838C8349
:102AD000B301C8010E94470FBE016F5F7F4FC8015D
:102AE0000E94470FC8010E94210F482EFFEF8F1749
:102AF00009F4DECE15018FE0280E311C642DC101D2
:102B00000E94FC0344E050E0BC01C3010E947F230B
:102B1000C8010E94210F8CA38F3F89F1682FC1014A
:102B20000E94FC0344E050E0BC01CE0101960E94EB
:102B30007F23D7011F968C9180FF15C0642DC8019B
:102B40000E94AD049F8F8E8FCE014E960E94C50DC0
:102B50006CA1C8010E94AD049F8F8E8FCE014E964E
:102B60000E94910D8CCF6CA1C8010E94AD049F8F73
:102B70008E8FCE014E960E94C50D642DEACFB30113
:102B8000C8010E94470F94CEF2E05F1236C01123B5
:102B900009F48CCED60199968C919997811708F4F7
:102BA00085CE9C96AD90BC908501055F1F4FB70107
:102BB000645F7F4FC8010E94470F782EC7010E94B3
:102BC0008A05823081F4F7018089948599839585FF
:102BD0009A8396859B838C83BE016F5F7F4FC8016C
:102BE0000E94470F7822772009F464CE81E0D60155
:102BF00098968C93552453945DCEB3E05B127AC0C3
:102C0000112309F4FFC0F60181A5811708F454CF00
:102C100024A435A4D70111968C91119714969C91F8
:102C200014979E8F15969C9115979F8F16969C9141
:102C300098A35601B7E0AB0EB11C9AE1978390E1DF
:102C4000928790E2918791E0918B80873601E2E153
:102C50006E0E711C8301412C512CFBE02F0E311C98
:102C600088E0481639F1442DB101CE0101960E9449
:102C7000F90DCE0101960E945E058823C9F0539498
:102C800084E0FE013196D80101900D928A95E1F71A
:102C90000C5F1F4F94E059120BC0AE01425E5F4FB4
:102CA000B501C6010E94BD108301512C882311F08B
:102CB0004394D6CF84E0D8011D928A95E9F75394C6
:102CC000852D880F880F99E0980F983070F4F601E1
:102CD0001782F60181858F7D8187AE01425E5F4F4D
:102CE000B501C6010E94BD10E7CE865FD6011796DA
:102CF0008C93EFCFF4E05F128BC0D70150962C91EC
:102D0000A701445F5F4F612FC6010E94980E29837F
:102D10003A834B835C836D837E838F83E981FA8161
:102D2000FEA3EDA312E0512EEF2B09F4CAC0D70188
:102D300011968C91119714969C9114979E8F1596CD
:102D40009C9115979F8F16969C9198A32601B7E0AA
:102D50004B0E511C9AE1F601978390E1928790E225
:102D6000918792E0918B80871601F2E12F0E311C42
:102D70008101712C612C1CA28B818615170451F1E5
:102D80004CF1EC81FD81862D0995D8018C93580179
:102D9000B2E0AB0EB11C8DA19EA1860D971D0E94C5
:102DA000B90AF8018183FCA1FF5FFCA3F83059F454
:102DB000AE01425E5F4FB201C6010E94BD10882382
:102DC00039F051011CA28FEF681A780A8501D4CF1F
:102DD00081011CA2D8011C9211961C928CA18A5FC1
:102DE000880F9FEF980F983078F4F6011782F6015C
:102DF00081858F7D8187AE01425E5F4FB201C60142
:102E00000E94BD10512C5DC0D60117968C93EFCF58
:102E1000FEE05F123DC0D6019C960D911C919D97DE
:102E2000F70191815601F7E0AF0EB11C1296ED91BA
:102E3000FC9172A0D8011E968C911E97F6015782C4
:102E400020E1228722E2218726E0218B9087828B56
:102E500018968C918630D1F480E0D60153968C93ED
:102E6000C8010E94E905F601848B758A81858F7DF2
:102E70008187A401B501C6010E94BD10D801149636
:102E80008C9114978B7F14968C9316CE88ECE5CF9B
:102E9000B5E05B1219C0F60116A7D70150962C9128
:102EA000A701445F5F4F612FC6010E94980EF60193
:102EB00027A730AB41AB52AB63AB74AB85AB5524AA
:102EC0005394B12CA12CF6CCF6E05F1232C081E015
:102ED000D60198968C9398979F962D913C91D09778
:102EE0009A968D919C919B972817390781F4129699
:102EF0008D919C9170E060E002960E94D509D60108
:102F0000ED91FC910480F581E02DC60109958FEFCC
:102F1000F60186A78AE0D7018C9382E013968C9302
:102F2000139712968C9312971A961C92A401B701CC
:102F3000D8CEB8E05B1234C0F60186A5811719F02F
:102F4000B12CA12C57CE87A590A9892BC9F3F701E5
:102F500080818B3008F48BE0B5EF5B2E580E570163
:102F6000FCE0AF0EB11C850136018FE2680E711CCA
:102F7000802F8A19851520F7D80111964C90D6011B
:102F8000D496ED91FC91D8018C9109958F3F29F051
:102F9000442D682FC3010E948B0A0E5F1F4FE8CF9C
:102FA000B9E05B1283CCF701818194E1D6011796D9
:102FB0009C93179790E11A969C931A9719961C92D6
:102FC000199751961C92519718968C931897529670
:102FD0001C92529796966D917C916D5F7F4F4AE05F
:102FE00050E0C60142960E946623A401B601695FC3
:102FF0007F4F77CEBCA1B13109F0B8C0002319F0E2
:10300000882309F417CD143011F01A3C01F58AE039
:10301000F701808382E0838312821286A401B701C4
:10302000C6010E94BD101A3C79F485E391E00E942C
:10303000BE0488E19CE00FB6F894A89580936000E8
:103040000FBE90936000FFCF0E947E0A35CD5520C1
:1030500009F437CFD60199968C919997851508F484
:103060002BCD9C96AD90BC90123009F130F4112319
:1030700089F01130A1F0512C1DCC133009F4BACDD8
:103080001038C9F7F501558451FA552450F881E0FC
:10309000582610CCF50185858D7F8587ABCDD50170
:1030A0001D968C911D9782601D968C93A3CDF50182
:1030B000858581FDE0CFD7018C918B3008F48BE0C2
:1030C0008B50853068F0F7012785822F90E0982F8C
:1030D00088272089280F392F311D2115310511F43A
:1030E0002FEF3FEFD7011C961C911A8219822F3FB8
:1030F0003207C1F1A9014F7155274115510579F0EA
:1031000081E072E0472E512C612C712C841715063A
:1031100050F4440C551C661C771C8F5FF7CF412C74
:10312000512C3201439495E0369527959A95E1F715
:10313000A4E6B0E00E9421249B01AC01C301B201CE
:103140000E94EF232AE030E040E050E00E94FF239D
:1031500066E0111163E08E010F5F1F4FC5010E94F1
:103160007E0B48CD2FEF3FEFA901F2CFFCA1F2314A
:1031700029F480E491E00E94BE04E2CE8CA18E335B
:1031800009F065C0570193E1A90EB11CD701119652
:103190008C91119754968C93549784E055968C9308
:1031A00055971D968C911D9756968C9356971C9605
:1031B0008C911C9757961C93579758965C925897EA
:1031C00059968C93599718969C91189719968C91AB
:1031D000199717962C9117975A962C935A975B9696
:1031E0009C935B975C968C935C971E968D919C91BB
:1031F0001F975E969C938E935D978BE053968C936E
:1032000077247394F60181A5871508F499CE04A557
:1032100015A5D8011D968C9181FD17C0F701858DEC
:103220008F7397899983908D9A83918D9B838C83DB
:10323000BE016F5F7F4FC8010B960E94F60E882378
:1032400021F0B501C8010E94440E7394DBCF8CA11C
:103250008054823008F02ACB22242394412CB12CB4
:10326000A12C82E0582ED60199968C9199978215BF
:1032700008F4C9C09C960D911C91F801858581FFC9
:1032800004C0850123945801EECF3801FBE06F0E96
:10329000711CD7011A968C911A978F7314969C9172
:1032A0001497998315969C9115979A8316969C91DD
:1032B0009B838C83BE016F5F7F4FC3010E94F60E1C
:1032C0008823F9F24394F701A384FCA1F134F9F0C7
:1032D00080918D01882359F0332049F080918C0131
:1032E0008A1105C0D7011A968C9186FF04C0B701D8
:1032F000C8010E94440EA0928C01F701828182FBDA
:10330000882780F980938D0155245394BBCFD70132
:103310001A965C901A9714968C9114978983159637
:103320008C9115978A8316968C9116978B83852D91
:103330008F738C831C96BC90BE016F5F7F4FC3015F
:103340000E94110E009701F356FC0B969F8F8E8FF3
:10335000F80180858330B1F068F420E040E08130EE
:10336000B1F042E364E0CE014E960E94F40AB81632
:10337000B0F5CACF843049F020E044E0863089F7C8
:1033800063E006C020E040E0FBCF20E044E062E0E4
:10339000CE014E960E94CB0A8230C1F040F48823C1
:1033A00001F3813009F0B0CF44E665E0DCCF843032
:1033B000F1F030F1853009F0A7CF42E364E0CE01AF
:1033C0004E960E94F40AB81650F0EECF42E364E045
:1033D000CE014E960E94F40AB81608F095CF4A2DF9
:1033E000BE01625E7F4FC8010E940C0C8DCF42E38C
:1033F00064E0CE014E960E94F40AB81608F484CF19
:1034000044E665E0E5CFF1E0F41508F45ACD52CA80
:1034100088EC7CCA8AE0D7018C9382E013968C9367
:10342000139712961C9212971A961C92A401B70138
:10343000C6010E94BD107ECAB2E05B127BCA8AE060
:10344000F70180835382128280E88287EFCF0C9449
:10345000E424CF93DF93EC010E942304CE01DF919B
:10346000CF910C94E4240C94E4240C94E4240C9464
:10347000E4240C94E4240C94E4240C94E4240C94AC
:10348000E4240C94E4240C94E4241F920F920FB6CD
:103490000F9211242F933F934F935F936F937F93DA
:1034A0008F939F93AF93BF93EF93FF938FEC91E034
:1034B0000E944B02FF91EF91BF91AF919F918F912D
:1034C0007F916F915F914F913F912F910F900FBE20
:1034D0000F901F9018951F920F920FB60F92112404
:1034E0002F938F939F93EF93FF93E091DF01F091E0
:1034F000E0018081E091E501F091E60182FD1BC0D1
:1035000090818091E8018F5F8F732091E90182178C
:1035100041F0E091E801F0E0E153FE4F958F809398
:10352000E801FF91EF919F918F912F910F900FBE26
:103530000F901F9018958081F4CF1F920F920FB6B5
:103540000F9211242F933F938F939F93AF93BF9329
:103550008091960190919701A0919801B091990165
:103560003091950126E0230F2D3758F50296A11DC5
:10357000B11D209395018093960190939701A0939C
:103580009801B09399018091910190919201A0913D
:103590009301B09194010196A11DB11D80939101F9
:1035A00090939201A0939301B0939401BF91AF9136
:1035B0009F918F913F912F910F900FBE0F901F9071
:1035C000189529E8230F0396A11DB11DD2CF1F9294
:1035D0000F920FB60F9211242F933F934F935F9347
:1035E0006F937F938F939F93AF93BF93EF93FF93CB
:1035F000E0910201F09103010995FF91EF91BF91D4
:10360000AF919F918F917F916F915F914F913F917A
:103610002F910F900FBE0F901F9018951F920F9231
:103620000FB60F9211242F933F934F935F936F9395
:103630007F938F939F93AF93BF93EF93FF93E0910B
:103640000001F09101010995FF91EF91BF91AF91B8
:103650009F918F917F916F915F914F913F912F91AA
:103660000F900FBE0F901F9018951F920F920FB6DC
:103670000F9211248F930FB6F894A8958091600053
:10368000886180936000109260000FBE8F910F9050
:103690000FBE0F901F9018951F920F920FB60F92AA
:1036A00011242F933F934F935F936F937F938F9347
:1036B0009F93AF93BF93CF93DF93EF93FF93CCE6AA
:1036C000D2E060E089810E9447031092B1006A81D4
:1036D0007B818C819D810E9497236093B30081E060
:1036E0008E83FF91EF91DF91CF91BF91AF919F9129
:1036F0008F917F916F915F914F913F912F910F909B
:103700000FBE0F901F9018951F920F920FB60F9239
:1037100011240F900FBE0F901F9018951F920F92BB
:103720000FB60F9211242F933F934F935F936F9394
:103730007F938F939F93AF93BF93EF93FF93E8E7AC
:10374000F2E084818F5F8483CF010E940C08FF9197
:10375000EF91BF91AF919F918F917F916F915F9109
:103760004F913F912F910F900FBE0F901F90189582
:103770001F920F920FB60F9211242F933F934F93E6
:103780005F936F937F938F939F93AF93BF93EF93C9
:10379000FF938DE792E00E940C08FF91EF91BF919B
:1037A000AF919F918F917F916F915F914F913F91D9
:1037B0002F910F900FBE0F901F9018951F920F9290
:1037C0000FB60F9211242F933F934F935F936F93F4
:1037D0007F938F939F93AF93BF93CF93EF93FF9379
:1037E00099B1C0919C018091CC013091C901292FE0
:1037F000209523238923822B20916D00C927C22382
:10380000C82390939C01CC23C1F1C0FF05C0E09177
:103810009D01F0919E010995C1FF05C0E0919F01B6
:10382000F091A0010995C2FF05C0E091A101F091BE
:10383000A2010995C3FF05C0E091A301F091A40185
:103840000995C4FF05C0E091A501F091A601099575
:10385000C5FF05C0E091A701F091A8010995C6FF39
:1038600005C0E091A901F091AA010995C7FF05C023
:10387000E091AB01F091AC010995FF91EF91CF91EF
:10388000BF91AF919F918F917F916F915F914F9178
:103890003F912F910F900FBE0F901F9018951F9280
:1038A0000F920FB60F9211242F933F934F935F9374
:1038B0006F937F938F939F93AF93BF93CF93EF9328
:1038C000FF9396B1C091AD018091CD013091CA01B5
:1038D000292F209523238923822B20916C00C9272F
:1038E000C223C8239093AD01CC2351F1C0FF05C082
:1038F000E091AE01F091AF010995C1FF05C0E091E3
:10390000B001F091B1010995C2FF05C0E091B2018B
:10391000F091B3010995C3FF05C0E091B401F091A6
:10392000B5010995C4FF05C0E091B601F091B7015A
:103930000995C5FF05C0E091B801F091B90109955D
:10394000FF91EF91CF91BF91AF919F918F917F9117
:103950006F915F914F913F912F910F900FBE0F90FC
:103960001F9018951F920F920FB60F9211242F934C
:103970003F934F935F936F937F938F939F93AF93F7
:10398000BF93CF93EF93FF9393B1C091BC0180910C
:10399000CE013091CB01292F209523238923822B1F
:1039A00020916B00C927C223C8239093BC01CC236C
:1039B00051F1C0FF05C0E091BD01F091BE01099534
:1039C000C1FF05C0E091BF01F091C0010995C2FFA0
:1039D00005C0E091C101F091C2010995C3FF05C086
:1039E000E091C301F091C4010995C4FF05C0E091C5
:1039F000C501F091C6010995C5FF05C0E091C70159
:103A0000F091C8010995FF91EF91CF91BF91AF91CE
:103A10009F918F917F916F915F914F913F912F91E6
:103A20000F900FBE0F901F901895CF93DF93EFEC80
:103A3000F1E01382128288EE93E0A0E0B0E084838C
:103A40009583A683B78383E391E09183808385EC9C
:103A500090E09587848784EC90E09787868780EC58
:103A600090E0918B808B81EC90E0938B828B82EC49
:103A700090E0958B848B86EC90E0978B868B118EF3
:103A8000128E138E148E10927302E5E7F2E012820A
:103A900011821082EDE7F2E011821082138212820D
:103AA000E8E7F2E011821082138212821482E7EEBC
:103AB000F2E01582148217821086118687E791E062
:103AC00093838283128A138A148A158A81E0868BF3
:103AD0008683138E128E158E168E178E2DE631E08C
:103AE000318F208F10A2848F12A216A215A210A6C9
:103AF00011A612A623E631E034A323A313A687A3BD
:103B000098E094A715A616A617A610AA13AA12AA9B
:103B100011AA16AA15AA14AA17AA10AEEAE9F2E089
:103B20001382128224EC32E03583248316821782BA
:103B3000108611861286158614861386108A1786BB
:103B40001686118A128A20E230E035A324A34BE0C6
:103B500053E057A346A310A681A733A722A79FEF40
:103B600096A710AA17A611AA13AA12AA15AA14AAF0
:103B700010AE17AA16AA27E531E0318320831092F0
:103B8000E0021092DF02A1EEB2E08C918E7F8D7F79
:103B90008C931092E2021092E4021092E30215AEAE
:103BA00014AE16AE1092D9021092DA021092DB0215
:103BB0001092DC021092DE021092DD029093E50278
:103BC0008BE491E093AF82AF1092E60284ED92E035
:103BD00095A784A7A1E8B2E013961C921E921297B3
:103BE00014961C92149715961D921D921C9217976D
:103BF000C9E8D2E08881887F8160886088831996CF
:103C00001C9219971F961C921E921E9750961C92FA
:103C1000509751961D921D921C92539785E491E006
:103C20001D969C938E931C970A2E1B2E55961C92C4
:103C30000E921124549781E891E011969C938E93F3
:103C40005896FC93EE9357978CE291E01B969C93C9
:103C50008E931A97DF91CF910895CF93DF93CDB7CD
:103C6000DEB728970FB6F894DEBF0FBECDBF7894AD
:103C700084B5826084BD84B5816084BD85B5826071
:103C800085BD85B5816085BD80916E008160809322
:103C90006E0010928100809181008260809381008B
:103CA000809181008160809381008091800081609B
:103CB000809380008091B10084608093B1008091F6
:103CC000B00081608093B00080917A00846080931E
:103CD0007A0080917A00826080937A0080917A00E5
:103CE0008E7F80937A0080917A00806880937A003A
:103CF0001092C100E091DF01F091E00182E0808349
:103D0000E091DB01F091DC011082E091DD01F091A6
:103D1000DE0180E180831092E701E091E301F09100
:103D2000E40186E08083E091E101F091E20180818D
:103D300080618083E091E101F091E20180818860FF
:103D40008083E091E101F091E201808180688083CD
:103D5000E091E101F091E20180818F7D80838BE72A
:103D600092E00E94BE048091C4029091C502049624
:103D700020E04AE952E03091C302231790F4E22F89
:103D8000F0E0EE0FFF1FEA53FD4F0190F081E02DB0
:103D90002F5F548743872687908B87878C529F4F4E
:103DA000EACF85E292E00E94BC046091BE0270916D
:103DB000BF0290E080E04AE00E94580881E292E071
:103DC0000E94BC04E091C602F091C7026785708929
:103DD0006C527F4F90E080E04AE00E9458088EE1EC
:103DE00092E00E94BC0460E090E080E00E944C05FC
:103DF00062E00E944C056AE00E944C056BE00E9464
:103E00004C056CE00E944C057C0101E08091C302EE
:103E1000801770F1C090C602D090C70210E0812FC9
:103E20000E948404682FC7010E944C057C011F5F1B
:103E30001430A9F760E0C6010B960E94AD0410E0B3
:103E4000812F0E945904682FC7010E944C057C01F4
:103E50001F5F1631A9F780E00E94CA01682FC701D1
:103E60000E944C0568E00E944C057C010F5FCECF9C
:103E700044E050E070E060E0CE0105960E946F23C0
:103E8000870130E020E02E6F3A6C09831A832B8380
:103E90003C836D817E818F819885F12C06171707F1
:103EA0002807390709F485C00E9425098CE092E0B3
:103EB0000E94BC048FE092E00E94BC0469817A8178
:103EC0008B819C810E9425098CE092E00E94BC04B9
:103ED0002FEF81EE94E0215080409040E1F700C048
:103EE000000044E050E070E060E0CE0101960E94E6
:103EF0007F2341E060E084EC92E00E948B0A40E086
:103F000061E084EC92E00E948B0A40E062E084EC85
:103F100092E00E948B0A40E063E084EC92E00E9411
:103F20008B0A10E08091C302181708F040C0E12FFF
:103F3000F0E0EE0FFF1FEA53FD4FE080F18064EDEB
:103F400070E0D7011F968D919C910E945B0AF7014A
:103F5000878590899A83898364E070E00E945B0A78
:103F600080E30E942E058F3F31F046E0682FCE019E
:103F700001960E948B0A87E50E942E058F3F41F033
:103F800000E02FE144E0682FCE0101960E94E60C8C
:103F900087E50E942E058F3F41F005E020EE41E0CD
:103FA000682FCE0101960E94E60C1F5FBBCFFF2455
:103FB000F39487EE92E090939D0280939C021B8283
:103FC0001A821982BE016F5F7F4F8091C00290916B
:103FD000C1020E94070A88E08093FB0261E00E9410
:103FE000750389EE92E00E944504E8988CEC91E01C
:103FF000909301018093000188E093E090939B01EE
:1040000080939A0181E092E00E94BC0460E082E02B
:104010000E9475038FEF91E00E94BE0461E08AE088
:104020000E94750361E08BE00E94750360E08CE004
:104030000E94750361E08DE00E94750380E58CBDF0
:1040400061E08AE00E94470361E08DE00E9447033F
:1040500060E08BE00E9447030E94C1030E94BB0303
:104060000E94B703F5E8FA95F1F700000E94C1033A
:104070000E94BB0380E30E94B1030E94BB030E9425
:10408000B7030BEC11E0EE24E394F8013196649150
:10409000F801849143E00E947509811101C0E12C6F
:1040A0000E5F1F4FF1E00F3F1F0779F78EEB91E096
:1040B0000E94BC0460EC81E30E94DD030E94A6081C
:1040C0008AEE92E00E94BC0483E30E94C5038FEA5B
:1040D00093EB0197F1F700C0000043E060EC8EE342
:1040E0000E94750985EB91E00E94BE04EE2059F014
:1040F0000E94C1030E94BB030E94B7030E94D40325
:1041000084E30E94C5038EE494E0909301018093C0
:104110000001809169008C7F826080936900E89A39
:1041200080E18093810010928000109285001092AF
:10413000840080E49CE9909387008093860081E16D
:104140008093810080916F00816080936F0066E0B2
:1041500070E0E11002C068E070E089EE92E00E9439
:10416000D5098B8190E001962AE0289F8001299F44
:10417000100D11248AE093E00E940F0724E630E03E
:10418000D8010E94302428EE33E040E050E00E9445
:10419000FF2320930F03309310034093110381E01A
:1041A000809312036AE073E08DE792E00E941106AB
:1041B0008091BE02ECEFCE2EC80E855090E00496A2
:1041C0000E94B90AE82E00E01EE5AC2DA150BB0B01
:1041D0006D01802F90E08C159D0534F404960E94AB
:1041E000B90A18270F5FF5CF1E112BC084E090E0AD
:1041F0000E94B90A182F85E090E00E94B90A082FA2
:1042000080EA810F8B30E8F483EA91E00E94BC04DD
:10421000812F0E94A608802F0E94A6088AEE92E0B5
:104220000E94BC0443E061E28DE00E94750943E016
:10423000612F8EE00E94750943E0602F8FE00E949D
:10424000750981E08093C302C090C602D090C70276
:104250008EE0F601828B61E00E947503D6011F9605
:104260000D911C9186E50E942E058F3F09F079C0C3
:104270001A82198266E08E010F5F1F4F2FEF3FEF0A
:10428000A901C6010E947E0BF601848184608483AB
:1042900010928A0262E080E00E947503E7E6F2E095
:1042A0008491E3E5F2E09491923009F065C02091A9
:1042B000CE01282B2093CE012091CB01282B2093D7
:1042C000CB01EFE3F2E0A491923009F063C0B0E0DB
:1042D000AA0FBB1FA354BE4F28ED37E02D933C938C
:1042E000E9E3F2E0A591B4919C919093BC012BE697
:1042F00030E03093BB012093BA0190916800916047
:1043000090936800A091BA01B091BB01EC918E2B03
:104310008C93FF2009F477C01F821E821D82BE018C
:104320006B5F7F4F8091C0029091C1020E94070A8B
:1043300011E08091C302811708F465C08D818983E3
:104340008E818A838F818B831C838091C60290919A
:10435000C702BE016F5F7F4F0B960E94890F1F5FE0
:10436000E8CF800F912F911D0E94B90A80FF80CF66
:104370001A82198263E07FCF933009F095C12091B2
:10438000CD01282B2093CD012091CA01282B209309
:10439000CA0197CF9330D1F4B0E0AA0FBB1FA2554A
:1043A000BE4F28ED37E02D933C93EBE3F2E0A5916F
:1043B000B4919C919093AD012CE630E03093BB0119
:1043C0002093BA019091680092609ACF943009F0DE
:1043D00099CFB0E0AA0FBB1FA356BE4F28ED37E020
:1043E0002D933C93EDE3F2E0A591B4919C919093D1
:1043F0009C012DE630E03093BB012093BA019091EF
:10440000680094607DCF81E08093C2029091C302E6
:10441000981728F59EE0B92E20E1A22E32E2932EC5
:1044200046E0842E80E0C82E80E0D82E612C8FE7F5
:1044300092E00E94EA06FC01009799F0029789F049
:1044400022812D7F2283DC01ED91FC910190F0818E
:10445000E02D6DE772E0099566246394E8CF8F5FE5
:10446000D7CF80919C0290919D02FC0124A522FD52
:1044700067C010E0772473948091C302871508F415
:1044800086C0E090C602F090C702D70114968C91C6
:1044900082FF54C0E0919C02F0919D021689168A19
:1044A000CF0102960E9445040091A0020F5F009385
:1044B000A00260919E0270919F02CE0101960E941F
:1044C000BF0CE0919C02F0919D0252A0F7018685FD
:1044D000B092A102A092A4029092A3028092AB0299
:1044E0000093A2028093AC028085863009F04DC013
:1044F00080E08093AD02C7010E94E9058093AE027F
:104500005092AF02AE014F5F5F4F61EA72E08AE9FD
:1045100092E00E94BD10D70114968C9114978B7F66
:1045200014968C9380919C0290919D02FC01168BB5
:10453000111104C002960E94450411E073949CCFAF
:1045400061EA72E081960E94FC0F8A3008F491CFF4
:104550001B821A821982BE016F5F7F4F8091C00259
:104560009091C1020E94070ABE016F5F7F4F85EAEA
:1045700092E00E946D0581117CCF61EA72E08AE9C8
:1045800092E00E949B13182F75CF88ECB2CF611078
:1045900079C0111177C08091070381117FC08FEC22
:1045A00091E00E94D5028091C00085FD06C08091F7
:1045B000C00080648093C000F6CF8091C00086FF69
:1045C000FCCF9091B100892F827091FD84E0909191
:1045D000B10090FD82609091B1009091B1009B7FFD
:1045E0009093B1009091B1009D7F9093B100909114
:1045F000B1009E7F9093B10090916400906490937D
:10460000640090917A009F7790937A009091640073
:104610009160909364009091640090629093640024
:104620009091640090689093640093B7917F93BFDA
:10463000F89493B7916093BF7894889593B79E7FD1
:1046400093BF7894909164009E7F909364009091C2
:104650007A00906890937A0081FF05C08091B10044
:1046600084608093B100809164008F7B80936400AC
:10467000809164008F7D80936400809164008F77C7
:1046800080936400C114D10409F4D0CE0E94370293
:10469000882309F4C7CE0E940000C4CE61E088E000
:1046A00093E00E948E04EECF943009F00ACE209160
:1046B000CC01282B2093CC012091C901282B2093D9
:1046C000C901FFCD8AE992E00C942304FB01DC01CF
:1046D00002C005900D9241505040D8F70895DC017A
:1046E000CB01FC01F999FECF06C0F2BDE1BDF89AFD
:1046F000319600B40D9241505040B8F70895DC0156
:10470000CB0103C02D910E948A2341505040D0F725
:104710000895262FF999FECF1FBA92BD81BD20BD05
:104720000FB6F894FA9AF99A0FBE019608950E946E
:10473000CE2388F09F5798F0B92F9927B751B0F042
:10474000E1F0660F771F881F991F1AF0BA95C9F715
:1047500014C0B13091F00E94E823B1E008950C94A8
:10476000E823672F782F8827B85F39F0B93FCCF35B
:10477000869577956795B395D9F73EF49095809592
:10478000709561957F4F8F4F9F4F089557FD9058BB
:10479000440F551F59F05F3F71F04795880F97FB05
:1047A000991F61F09F3F79F08795089512161306BF
:1047B0001406551FF2CF4695F1DF08C016161706EE
:1047C0001806991FF1CF8695710561050894089523
:1047D000E894BB2766277727CB0197F90895DB017B
:1047E0008F939F930E943724BF91AF91A29F800D1A
:1047F000911DA39F900DB29F900D11240895A1E2E9
:104800001A2EAA1BBB1BFD010DC0AA1FBB1FEE1F4A
:10481000FF1FA217B307E407F50720F0A21BB30B95
:10482000E40BF50B661F771F881F991F1A9469F711
:1048300060957095809590959B01AC01BD01CF016D
:104840000895A29FB001B39FC001A39F700D811D69
:104850001124911DB29F700D811D1124911D089589
:104860000E942124B7FF0895821B930B08950E9494
:104870002124A59F900DB49F900DA49F800D911DA4
:1048800011240895EE0FFF1F0590F491E02D099477
:104890000F931F93CF93DF938230910510F482E042
:1048A00090E0E0913403F091350330E020E0B0E097
:1048B000A0E0309799F42115310509F44AC0281B6E
:1048C000390B24303105D8F58A819B81611571053A
:1048D00089F1FB0193838283FE0111C040815181E4
:1048E0000281138148175907E0F04817590799F4D6
:1048F000109761F012960C93129713961C933296B0
:10490000CF01DF91CF911F910F9108950093340350
:1049100010933503F4CF2115310551F04217530799
:1049200038F0A901DB019A01BD01DF01F801C1CF17
:10493000EF01F9CF9093350380933403CDCFFE017F
:10494000E20FF31F81939193225031093983288319
:10495000D7CF2091320330913303232B41F42091A0
:1049600006013091070130933303209332032091E5
:104970000401309105012115310541F42DB73EB7F1
:104980004091080150910901241B350BE09132033D
:10499000F0913303E217F307A0F42E1B3F0B281707
:1049A000390778F0AC014E5F5F4F2417350748F0A8
:1049B0004E0F5F1F509333034093320381939193C3
:1049C0009FCFF0E0E0E09CCFCF93DF930097E9F03A
:1049D000FC01329713821282A0913403B091350307
:1049E000ED0130E020E01097A1F420813181820FA9
:1049F000931F20913203309133032817390709F0B0
:104A000061C0F0933303E0933203DF91CF910895B7
:104A1000EA01CE17DF07E8F54A815B819E01411567
:104A20005105B1F7E901FB83EA8349915991C40F1C
:104A3000D51FEC17FD0761F4808191810296840FE8
:104A4000951FE90199838883828193819B838A835F
:104A5000F0E0E0E012968D919C9113970097B9F5E4
:104A60002D913C911197CD010296820F931F2091B9
:104A70003203309133032817390739F6309751F54F
:104A80001092350310923403B0933303A093320392
:104A9000BCCFD383C28340815181840F951FC81737
:104AA000D90761F44E5F5F4F88819981480F591F84
:104AB000518340838A819B819383828321153105B1
:104AC00009F0B0CFF0933503E09334039ECFFD019E
:104AD000DC01C0CF13821282D7CFFB01DC0104C0FE
:104AE0008D910190801921F441505040C8F7881BE6
:104AF000990B0895FB01DC0102C001900D92415019
:104B00005040D8F7089511E0C1E9D1E004C0FE019A
:104B10000E9442242196C239D107C9F7F894FFCFE9
:104B2000CC01CC0100003603800001000A003200F5
:104B300064005802B80B7017A08C00FFFFFFFFFF46
:104B4000FFFF010203020A0B0C0300040600010030
:104B50000000006D02CD01FA01D5022B0209021DF1
:104B60000200000000890700000000EA0B10053F6A
:104B70001AED04000000002304291AC9019B130048
:104B80000000002004B9043B1A000000002004B912
:104B900004431A00000000260ABA04271A00000085
:0A4BA0000083064404331AE71200F4
:00000001FF
