:100000000C9405010C94D2110C94AB110C94320990
:100010000C94CF080C945E080C94C2130C94251415
:100020000C942D010C943B150C942D010C942D0176
:100030000C942D010C9465150C942D010C942D013C
:100040000C942F1D0C942D010C941F120C94F9117B
:100050000C942D010C945D140C942D010C942D0125
:100060000C9451120C942D0107634236B79BD8A70C
:100070001A39685618AEBAAB558C1D3CB7CC5763CD
:10008000BD6DEDFD753EF6177231BF000000803F7B
:1000900008000000BE922449123EABAAAA2ABECD97
:1000A000CCCC4C3E00000080BEABAAAAAA3E000009
:1000B0000000BF000000803F000000000008417801
:1000C000D3BB4387D1133D190E3CC3BD4282AD2B38
:1000D0003E68EC8276BED98FE1A93E4C80EFFFBE30
:1000E00001C4FF7F3F0000000000002E0206030D48
:1000F00004E905CA070C0B060D210E650F6A10C82E
:100100001193120315341703181819161B431E2FC9
:100110001F65207823E9242A251F26113E030A0B98
:100120000C05121400010203040506070001020376
:100130000405000102030405005EBCE2613FDD83AB
:10014000C29C7E20A3FD1F41009D23BE46DB65F8B7
:100150008C11AF32CA57E974000000002400270058
:100160002A0000000000250028002B0000000000ED
:1001700023002600290004040404040404040202E9
:100180000202020203030303030301020408102016
:100190004080010204081020010204081020000021
:1001A0000008000201000003040700000000000036
:1001B000000000000000000000000214050500001F
:1001C000000002010A010000000000000000000021
:1001D000000000000000000000000603050101010E
:1001E000010A060101010501050A020602020000DA
:1001F0000000A5A5EE554E4953454E53485A4700B9
:10020000F105107001011C24142411241FBECFEF2E
:10021000D8E0DEBFCDBF11E0A0E0B1E0E8E7F7E550
:1002200002C005900D92A83CB107D9F724E0A8ECD4
:10023000B1E001C01D92A63AB207E1F711E0C4E0B7
:10024000D1E004C02197FE010E946D2AC330D1077E
:10025000C9F70E94791D0C94AF2B0C9400008823E1
:1002600011F08FEF089588E00895863030F4E82F7C
:10027000F0E0E25EFE4F849108958FEF0895E091E3
:10028000C801F091C9018485811102C081E0838792
:10029000089580E008950F931F93CF93DF93EC01AF
:1002A0008B01E881F9810680F781E02D09959B8714
:1002B0008A878C859D85AE858D839E83AF83BE01A5
:1002C000C801DF91CF911F910F910C9467140C948A
:1002D0000B2B0C940B2B0C940B2B0C940B2B0C94C6
:1002E0000B2B0C940B2B0C940B2B0C940B2B0C94B6
:1002F0000B2B8DE793E00E94D91B6DE773E08DE631
:1003000093E00C94671480917C00807380937C0050
:1003100080917C00806480937C0080917C008E6062
:1003200080937C0082E390E00E941016009759F0C1
:100330009C0140E050E060E070E381E190E00E94C9
:100340003026C901089580E090E00895FC0183897A
:10035000882311F061E001C060E082890C94FC1AEE
:10036000EF92FF921F93CF93DF93EC017B0188897B
:1003700011E0180F188BFE01E80FF11D228530E007
:10038000A4E6B0E00E9452262AE030E040E050E0CF
:100390000E9430262D833E834F8310FF0AC08B8935
:1003A000882311F060E001C061E08A890E94FC1A94
:1003B00003C0CE010E94A601BE01C701DF91CF910B
:1003C0001F91FF90EF900C9467140895089508957D
:1003D0000F931F93CF93DF932CE631E0FC01318321
:1003E00020838C010A5B1F4F81F0EC01CA55DF4F5F
:1003F000C017D10751F0C056D109E881F9810280B8
:10040000F381E02DCE010995F3CFDF91CF911F91BC
:100410000F910895CF93DF93EC010E94E801CE0184
:10042000DF91CF910C940B2B08950895089528E740
:1004300031E0FC01318320830C94E801CF93DF93FA
:10044000EC010E941702CE01DF91CF910C940B2B8F
:100450000895EEE1F1E090E02491821731F09F5F82
:1004600031969630C9F78FEF0895892F08950F932D
:100470001F93CF938C01862FC42F0E9429028F3F98
:1004800061F0F80120813181A901480F511DCA0195
:10049000CF911F910F910C946E168C2FCF911F91BD
:1004A0000F910895EF92FF920F931F93CF93DF93D5
:1004B000EC018B0140E06CE0C8010E943702F82E8D
:1004C00040E06BE0C8010E943702E82E40E06AE09D
:1004D000C8010E9437028883E982FA82CE01DF9147
:1004E000CF911F910F91FF90EF900895CF93DF93DD
:1004F000EC0185E00E9429028F3F69F02881398153
:10050000A901480F511DCA010E946E168295869559
:100510008695837001C081E0DF91CF9108950F939C
:100520001F93CF93DF938C01EC01EA96CE010E94DA
:10053000760240E062E1CE010E943702D8011296B5
:10054000ED91FC911397868F46E064E1CE01DF9137
:10055000CF911F910F910C9437020895862728E0C0
:10056000BC0176956795AC014170552780FF02C0AC
:1005700041E050EACA0186279727215089F708955C
:100580000895FC0110821182128213821682158254
:100590001482118610861782128613860895FC0134
:1005A0008081811109C08181811106C081E0928121
:1005B000911103C080E0089581E00895DC01FB0102
:1005C0009C91808198130BC011969C911197818109
:1005D000981305C081E012962C919281291380E036
:1005E0000895FC013381FB012381321302C00C9476
:1005F000DE0280E00895CF93DF9300D000D0CDB726
:10060000DEB7FC0180899485998395859A839685C8
:100610009B838C83882359F0BF01645F7F4FCE0199
:1006200001960E94F102811102C082E001C081E0C6
:100630000F900F900F900F90DF91CF910895FC01D4
:100640009FB7F894718360839FBF08952FB7F89484
:10065000FC01808191812FBF08958F929F92AF926C
:10066000BF92CF92DF92EF92FF92CF93DF93EC0194
:100670004A015B018DE693E00E9426030097F1F0AA
:100680000297C12CD12C76010097C1F0FC01258185
:1006900036814781642FA90170E0C40ED51EE61E85
:1006A000F71EC817D90769F002960E942603009723
:1006B00019F480E090E0E8CF0297E6CFC12CD12C6E
:1006C0007601C814D904EA04FB04B8F481E08887F1
:1006D000CE010E94D91B8D829E82AF82BE018DE623
:1006E00093E0DF91CF91FF90EF90DF90CF90BF909C
:1006F000AF909F908F900C946714DF91CF91FF90F3
:10070000EF90DF90CF90BF90AF909F908F90089523
:100710002F923F924F925F926F927F928F929F9211
:10072000AF92BF92CF92DF92EF92FF920F931F93FF
:10073000CF93DF93CDB7DEB7E0970FB6F894DEBF67
:100740000FBECDBF6C018B01FA018081DB011796D2
:100750008C931797818118968C931897828119969C
:100760008C9365E673E0CA010E94DE02882329F0BB
:10077000F80182818F7D84608283B8016C5F7F4F36
:10078000D601D7968D919C91D8970E94F115F801CA
:1007900082818068828346E064E1D60114968D915F
:1007A0009C9115970E943702382E811102C0332484
:1007B0003394F601848195810E9476028DA7882367
:1007C00051F0D60112968D919C91139762E070E0E2
:1007D00002960E94FD17712CF8013196F8ABEFA735
:1007E0003AE0432E512C612C4801F7E08F0E911C0A
:1007F000711043C1332009F446C1D80112968C917F
:10080000129780718BA7F601E280F3805701F0E424
:10081000AF0EB11C4C9150E06FA578A9C5010E94A4
:10082000A62BD8012C91F70127AFF501808196E71F
:10083000892780833196908161E030E02150310931
:10084000462F50E0F501E40FF51F4217530734F42B
:1008500084524081842780836F5FF2CF8081892713
:100860008083D701DF96BC91BEA7F70183AD8823B3
:1008700039F08FEC97E00197F1F700C00000F5CF59
:10088000D70140AE51AE62AEE1E0DB96EC93B7012A
:100890006D5C7F4F8DE693E00E946714D701DE9672
:1008A0008C91882369F00E949B150E9495150E94E7
:1008B00091150E94C41584E30E94B515F70116AE88
:1008C000E1E0D701DD96EC9386E30E94B5158BE35A
:1008D0000E94B51528EC222E85E30E94B51587EC01
:1008E00090E00197F1F700C000002A94211013C096
:1008F00086E30E94B5158BE30E94B5158DE30E9437
:10090000B51584E30E94B51560EC85E30E949F1540
:100910008D30B9F752C060EC85E30E949F1583319A
:10092000D9F6AFE1BEE41197F1F700C00000BBA516
:10093000BB2349F0EFE7FBE828E0E150F04020401E
:10094000E1F700C000000E949B150E9495158FE3FF
:100950000E948B158EA50E948B150E9491150E94F6
:100960009B150E9495158FE70E948B152A2CABA62C
:10097000BCA68BA582199EA5891740F4ABA5BCA582
:100980008D91BCA7ABA70E948B15F3CF0E94911548
:1009900098ECB92E60EC85E30E949F158D3019F418
:1009A000222423940AC0E7ECF0E03197F1F700C06D
:1009B0000000BA94B110EECFF3CFD701DD961C92B0
:1009C000B22DB170FB2E3A94211002C07F2C10CFB3
:1009D000F801828185FFFACFC4010E94CF028823EB
:1009E000A9F3CE0101960E94C1028CE3F82ED60134
:1009F00012968D919C911397FC0124AD21110AC090
:100A00008FE19EE40197F1F700C00000FA94F11025
:100A1000EECFEECEBE016F5F7F4FC1960E942918C8
:100A2000882371F3D80111969C918A819813E8CF9D
:100A3000BE016B5F7F4FC4010E94DE02882301F379
:100A40008C81823041F48B85782E7094771C7724CA
:100A5000771C87FD312CF801828181FD03C08B81D9
:100A600080FFC6CEF6018281938142E350E060E0D0
:100A700070E088960E942D03BBCEFDA5FF2381F078
:100A800063E070E005C02DA5222351F064E070E022
:100A9000D60112968D919C91139702960E94FD1794
:100AA000872DE0960FB6F894DEBF0FBECDBFDF9165
:100AB000CF911F910F91FF90EF90DF90CF90BF905B
:100AC000AF909F908F907F906F905F904F903F90EE
:100AD0002F9008952F923F924F925F926F927F9244
:100AE0008F929F92AF92BF92CF92DF92EF92FF923E
:100AF0000F931F93CF93DF93CDB7DEB761970FB6F8
:100B0000F894DEBF0FBECDBF8C012B014C0121E458
:100B1000820E911CD4018C918F7009F09AC038011B
:100B2000B2E46B0E711C82E29CEFF301908B87871D
:100B30008081882309F483C07301FFEFEF1AFF0A55
:100B4000C7010E94D81C630121E1C20ED11CB6016D
:100B5000C7010E944E1764E4C7010E94A91C68EEF9
:100B600073E080E090E00E94671BC7010E94D81CE0
:100B7000B601C7010E944E176EEBC7010E94A91C67
:100B8000CE0101966C01DE011A96BF87AE87888B75
:100B9000D98A38E0A32EB12C312C22242394C7010A
:100BA0000E94851C81113228220CB1E0AB1AB108D9
:100BB000B1F7F60131926F012E853F85E217F307F9
:100BC00041F768E0888999890E947F139985891384
:100BD00036C089819A81D30151962C91203189F4B4
:100BE00023E0880F991F2A95E1F728852031A9F481
:100BF0004F812CE030E0241B3109807F820F931F4E
:100C00000CC02D81207611F4887F07C0203211F4AA
:100C10008C7F03C0203409F48E7F4AE0489F900106
:100C2000499F300D112437FF02C0215F3F4F94E0F0
:100C3000359527959A95E1F7F301308B2787F801D1
:100C4000EF5AFF4F80819181D801D9969C938E9362
:100C5000D897F40180818F5F80837801FBE5EF0EE8
:100C6000F11CC7010E94301AD70111968D909D90FA
:100C7000AD90BC901497F80182AE93AEA4AEB5AE21
:100C80000084F185E02D0280F381E02D80A191A107
:100C90003801FFE36F0E711CD3018D939C938091FB
:100CA00002028A3010F4F12C3BC01092020284E65A
:100CB000C82ED12C312C188AC7010E94301A222448
:100CC0002394F70181819281A381B4818C349D4169
:100CD000A105B10508F4212C28892212339464E679
:100CE00070E080E090E00E94671B31E0C31AD108F9
:100CF000288AC114D10401F7D801DE968C91823084
:100D000039F0B7E0B31578F682E0F80186AF06C097
:100D1000F7E0F31540F2D801DE961C92FF24F3941D
:100D2000F801E6ACF2E0EF1601F1C501B40124E6EA
:100D300030E040E050E00E943026E1100AC02B3441
:100D400031054105510588F081E0D801DE968C938C
:100D50000DC0B1E0EB1209C02B343105410551053E
:100D600020F4F80116AE81E001C080E0209104017A
:100D700030910501A9014F5F5F4F509305014093EA
:100D80000401909102029F5F90930202F11006C04D
:100D9000811104C02C3D314008F449C11092050175
:100DA00010920401D8011896ED91FC9119972681B3
:100DB0002F5F26831896ED90FC901997F701A2817A
:100DC000B381F801D0AC31AD3F775E96EC915E9780
:100DD000F0E090968D919C91919764E670E00E946E
:100DE000452A6E177F0708F43068822F64E10E945D
:100DF000392A923011F084E001C082E2D801DF96F6
:100E00009C91DF97F3014181DE965C91DE97DA9643
:100E10006C91DA97DB967C91DB97DC96EC91DC9712
:100E2000DD96FC91DD970F2EF3E1CF2EF02D1E966F
:100E3000CC921E970F2EF0E7CF2EF02D5196CC922C
:100E4000519750968C93509758963C9358971F966D
:100E50002C931F975996DC9259975A96FC935A9760
:100E60005B96EC935B975C967C935C975D966C933A
:100E70005D975E965C935E975F964C935F979096B6
:100E80009C9390979801225F3F4F690182FF07C0B2
:100E90008F7C846050968C9345E653E0C4C0312C1F
:100EA000A12CB12C480138E0830E911C380182E15D
:100EB000680E711C4A2DB401CE010A960E946B1770
:100EC000CE010A960E94CF02882309F496C0212CF5
:100ED000422DB401CE0101960E946B17BE016F5FD7
:100EE0007F4FCE010A960E94DE02811106C0239434
:100EF00096E02912EDCF4FEF01C0422D50E04A1588
:100F00005B050CF47AC01B821A821982BE016F5FE6
:100F10007F4FD701D7968D919C91D8970E94F1155C
:100F2000BE016F5F7F4FCE010A960E94DE028823CA
:100F300009F445C0B301F70187A990AD0E94F115EE
:100F4000D80152968C91529755968C9355975396FB
:100F50008C91539756968C93569754968C915497A0
:100F600057968C9365E673E0C3010E94DE028823E6
:100F700029F0F80180898F7D8460808BD80150969C
:100F80008C91509785FF11C08F7D50968C93D7011F
:100F9000ED91FC910680F781E02DB601C70109951E
:100FA000F80180898062808B28C0D701ED91FC9187
:100FB0000680F781E02DB601C70109951EC0AE017C
:100FC000465F5F4FB401CE0101960E94831789816D
:100FD0009A810E946E16F801908980FF03C090618B
:100FE000908B02C09F7E908BAE01465F5F4FB60133
:100FF000C7010E94880333243394BFEFAB1ABB0AA6
:10100000E6E0AE16B10409F055CF311010C0D7019B
:1010100014966D917C911597CE0101960E94520213
:10102000AE014F5F5F4FB601C7010E94880388E1A0
:1010300095E1A0E0F80185839683A783B801C201FA
:101040000E94671461960FB6F894DEBF0FBECDBF45
:10105000DF91CF911F910F91FF90EF90DF90CF9094
:10106000BF90AF909F908F907F906F905F904F90C8
:101070003F902F900895EF92FF920F931F93CF937D
:10108000DF93EC01EFB6F8940E9426038C01892BC4
:1010900061F0FFB6F894CE010E9426030E94260359
:1010A000BC01CE010E941F03FFBEEFBEC801DF914D
:1010B000CF911F910F91FF90EF9008951F920F9283
:1010C0000FB60F9211242F933F934F935F936F931B
:1010D0007F938F939F93AF93BF93CF93EF93FF93A0
:1010E00029B1C091CE018091FC019091F901322F7C
:1010F000309593238223892B90916D00C227C923B9
:10110000C8232093CE01CC23C1F1C0FF05C0E091DC
:10111000CF01F091D0010995C1FF05C0E091D10147
:10112000F091D2010995C2FF05C0E091D301F09181
:10113000D4010995C3FF05C0E091D501F091D60116
:101140000995C4FF05C0E091D701F091D801099538
:10115000C5FF05C0E091D901F091DA010995C6FFFC
:1011600005C0E091DB01F091DC010995C7FF05C0E6
:10117000E091DD01F091DE010995FF91EF91CF91B2
:10118000BF91AF919F918F917F916F915F914F919F
:101190003F912F910F900FBE0F901F9018951F92A7
:1011A0000F920FB60F9211242F933F934F935F939B
:1011B0006F937F938F939F93AF93BF93CF93EF934F
:1011C000FF9326B1C091DF018091FD019091FA015A
:1011D000322F309593238223892B90916C00C22764
:1011E000C923C8232093DF01CC2351F1C0FF05C0E0
:1011F000E091E001F091E1010995C1FF05C0E091A6
:10120000E201F091E3010995C2FF05C0E091E4011C
:10121000F091E5010995C3FF05C0E091E601F09169
:10122000E7010995C4FF05C0E091E801F091E901EB
:101230000995C5FF05C0E091EA01F091EB01099520
:10124000FF91EF91CF91BF91AF919F918F917F913E
:101250006F915F914F913F912F910F900FBE0F9023
:101260001F9018951F920F920FB60F9211242F9373
:101270003F934F935F936F937F938F939F93AF931E
:10128000BF93CF93EF93FF9323B1C091EC01809173
:10129000FE019091FB01322F309593238223892BFD
:1012A00090916B00C227C923C8232093EC01CC2363
:1012B00051F1C0FF05C0E091ED01F091EE010995FB
:1012C000C1FF05C0E091EF01F091F0010995C2FF67
:1012D00005C0E091F101F091F2010995C3FF05C04D
:1012E000E091F301F091F4010995C4FF05C0E0918C
:1012F000F501F091F6010995C5FF05C0E091F701F0
:10130000F091F8010995FF91EF91CF91BF91AF91C5
:101310009F918F917F916F915F914F913F912F910D
:101320000F900FBE0F901F901895FC011086089526
:10133000FC0167709085987F692B608708958130E4
:1013400011F08FEF089580E00895882311F08FEF5A
:10135000089581E008958FEF08958FEF0895883004
:1013600011F08FEF089580E00895CF93DF93EC01A3
:1013700080917C00807380937C0080917C00806CE5
:1013800080937C0080917C00836080937C0061E08E
:1013900083E00E94FC1A888999890E941016EC014A
:1013A00060E083E00E94FC1A209769F09E01A0EEA5
:1013B000BBEA0E94522620E038E240E050E00E9462
:1013C0003026C90102C080E090E0DF91CF910895FE
:1013D0001F93CF93DF93EC01FB012885922F977029
:1013E000943061F028F4923039F0933079F02EC0C7
:1013F000953061F0963051F511E019C023FD0CC015
:101400002A853B852550310913E01CC023FD1EC0F1
:101410002A853B8515E016C025E030E012E040E06B
:101420002D833E834F83BE01CF010E946714E88164
:10143000F9810680F781E02D612FCE01DF91CF91F8
:101440001F9109942115310551F7F1CFDF91CF910B
:101450001F9108952F923F924F925F926F927F92C9
:101460008F929F92AF92BF92CF92DF92EF92FF92B4
:101470000F931F93CF93DF93CDB7DEB7E4970FB6EB
:10148000F894DEBF0FBECDBF8C017B0119AA18AA4C
:101490001FA6BE01615D7F4FDC01D7968D919C91A7
:1014A000D8970E94F1151701B7E02B0E311CBE0131
:1014B000615D7F4FC1010E94DE028823F1F0F801D7
:1014C000C280D3805601F3E3AF0EB11CC5010E9468
:1014D000D91B8AE090E0A0E0F60180AF91AFA2AF07
:1014E00081E083AFB5018DE693E00E946714D701D8
:1014F00012968C9186FD3AC049C0F701808189839C
:1015000081818A83C280CB82D380DC8284818D8377
:1015100085818E8386818F8387818887808589876F
:1015200081858A8782858B87B384BC868EE13C96D1
:10153000DE011D9601900D928A95E1F765E673E054
:10154000CE0108960E94DE02882339F0F1E0DF1216
:1015500004C02AE0B21609F4B2CFC2FE05C080EC86
:101560008D0D823008F4ABCF80E028C4B7016C5FEA
:101570007F4FC80107960E94DE02882339F0D80108
:101580001A969C91F7018181981771F3F701848174
:10159000D80117968C931797858118968C93189776
:1015A000868119968C93199781811A968C939381D1
:1015B000B28483859130F9F48A3009F0A5C0D8014E
:1015C000D7966D917C91D8976D5F7F4F4AE050E040
:1015D000CE0101960E94CD254AE050E0BE016F5F2A
:1015E0007F4FC7010C960E94992B892B09F48DC15E
:1015F000C12CD12CC3C09131A1F5F4E0BF1619F074
:101600002AECB21225C08AE0D7018C9382E01396AF
:101610008C93139712961C9212971A961C92A701FC
:101620004C5F5F4FB701C8010E948803BAECBB1240
:101630000BC09CE088E10FB6F894A89580936000F9
:101640000FBE90936000FFCFC8010E94D41679C1ED
:10165000882309F476C1F80191AD981708F471C197
:1016600062C3923119F4C12CD12C0CC19054923028
:1016700008F0BECF44244394512CC12CD12C92E0CD
:10168000792ED801D9968C91D9978415C0F1DC9622
:101690008D909C90DD97F401828581FD2EC0D7014D
:1016A0001A968C911A978F7314969C9114979BA7F6
:1016B00015969C9115979CA716969C919DA78EA711
:1016C0005401B8E0AB0EB11C612C462DB501CE0122
:1016D00001960E946B17BE016F5F7F4FCE018B9604
:1016E0000E94F102811105C06394E6E06E12EDCF15
:1016F00004C053946401772473944394C2CFF1E0FF
:10170000F51508F49FC0C0C08130D9F5BB2009F49D
:101710006FCFF80181AD8B1508F46ACFC4ACD5AC9E
:10172000C7010E94FB02F7013C964F019601285F1A
:101730003F4F5901813009F488C0D70150968C91F0
:1017400050971C969C911C9799831D969C911D9770
:101750009A831E969C919B838C83B401C5010E9441
:10176000F718BE016F5F7F4FC5010E94F718C501D2
:101770000E94D118582EBFEF8B133AC282E0782E08
:1017800083C0823009F4E0C0833009F4E6C08430BD
:1017900009F07AC1D70150962C91A701445F5F4FA1
:1017A0006B2DC8010E94391929833A834B835C83CE
:1017B0006D837E838F83E981FA81FCABEBABEF2BEA
:1017C00009F45FC1D70111968C91119714969C91E1
:1017D00014979BA715969C9115979CA716969C917C
:1017E0009DA72801BBE04B0E511C9AE1F80193879D
:1017F00090E1968790E2958792E0958B84873801F7
:10180000F6E16F0E711C6301A12CB12C1AAA8B8119
:1018100090E0A816B9060CF40BC13601D3011C9256
:1018200011961C928AA9880F845FF80183878585A9
:101830008F7D8587AE01455D5F4FB201C8010E9473
:101840008803712CC12CD12C1FC0B401C5010E948A
:10185000F718C5010E94D118782EFFEF8F1709F4F1
:101860008DCF682FC6010C960E94E21544E050E02F
:10187000BC01C4010E94E625472DB501CE010196A9
:101880000E94BF1777247394D70112968C9185FF1D
:101890002EC0BE01615D7F4FC1010E94DE02882320
:1018A00031F191E0791278C2A7014C5F5F4FC1140A
:1018B000D10409F464C2D8011296ED91FC911397FA
:1018C00082A99EE0F701908392E093831282728650
:1018D000D6011B969C919387148615868687B7013F
:1018E000C8010E948803F60182858E7F8287D80115
:1018F00012968D919C91139742E350E060E070E066
:1019000088960E942D0381E059C2F801828193815B
:1019100061E070E002960E94FD17D80112968D9149
:101920009C91139740ED57E060E070E088960E942C
:101930002D03F7014081B7016C5F7F4FC8010E9402
:101940008016C12CD12C19C2BB2009F451CEF8014C
:1019500081AD8B1508F44CCE88C1BB2091F3F80102
:1019600081AD8B1570F3F80164AC75ACD70111969D
:101970008C91119714962C9114972BA715962C9156
:1019800015972CA716962C912DA75801BBE0AB0EEE
:10199000B11C2AE1238720E1268720E22587958B49
:1019A00084874801E6E18E0E911C6401512C412C84
:1019B000F8E06F0E711C442DB301CE0101960E9418
:1019C0006B17CE0101960E94CF028823D1F084E0EC
:1019D000FE013196D60101900D928A95E1F7F4E06F
:1019E000CF0ED11C539424E052120BC0AE01455DC2
:1019F0005F4FB501C8010E9488036401512C882300
:101A000021F0439436E04312D6CF84E0D6011D92F4
:101A10008A95E9F7852D880F880F825FF801838703
:101A200085858F7D8587AE01455D5F4FB501ABC074
:101A3000EC81FD818A2D0995D6018C934601B2E097
:101A40008B0E911C8BA99CA98A0D9B1D0E946E1662
:101A5000F6018183FAA9FF5FFAABF83059F4AE01C1
:101A6000455D5F4FB201C8010E948803882339F0A9
:101A700043011AAA2FEFA21AB20A6401C8CE1AAA09
:101A8000CDCE32E0732EDECE8E3069F5D801DC96F5
:101A9000CD90DC90DD97F70131811296ED91FC91AC
:101AA000139792A9D6011B962C91F801838780E1A8
:101AB000868786E0858B3487268B178A108E918FD8
:101AC00082E08587A7014C5F5F4FB801655F7F4F5C
:101AD000C8010E948803D6011A968C911A978E7FAE
:101AE0001A968C932ECF8530E1F4F801B6AED7016B
:101AF00050962C91A701445F5F4F6B2DC8010E9447
:101B00003919F80127AFE05CFF4F308331964083ED
:101B100031965083319660833196708331968083FD
:101B2000A2CD8630A1F5F801FF9620813181D80140
:101B3000DA968D919C91DB972817390789F41296D4
:101B40008D919C91139760E070E002960E94FD17C2
:101B5000D801ED91FC910480F581E02DC801099533
:101B60008FEFF80186AF8AE0D7018C9382E013965D
:101B70008C93139712968C9312971A961C92A70126
:101B80004C5F5F4FB701C8010E948803DACE8830EE
:101B900079F4F80186AD8B1166CD4801FFE38F0E15
:101BA000911CD4018D919C91892B09F08AC05BCD49
:101BB000893009F01DCDD70111968C9194E1F8017F
:101BC000938790E196871586158A8487168A67A978
:101BD00070AD6D5F7F4F4AE050E0C80146960E94AD
:101BE000CD25A7014C5F5F4FB801655F7F4FCBCF1D
:101BF0003601ECE06E0E711C682FC3010E94E215E5
:101C000044E050E0BC01C4010E94E625C5010E94E9
:101C1000D118482EFFEF8F1719F1682FC3010E94CA
:101C2000E21544E050E0BC01CE0101960E94E62599
:101C3000D7011F968C9180FF08C0452DB501CE01BC
:101C40008B960E94BF17442D07C0442DB501CE01CD
:101C50008B960E94BF17452DB501CE018B9610CEF5
:101C6000B401C5010E94F71889CDC4ACD5AC4601BA
:101C7000B8E08B0E911CB701645F7F4FC4010E94D6
:101C8000F718B82EC7010E94FB028230B9F4D701C1
:101C900050968C9150971C969C911C9799831D96F9
:101CA0009C911D979A831E969C919B838C83BE0169
:101CB0006F5F7F4FC4010E94F718B822B110E2CDC8
:101CC0005DCDD7018C918B3060F125EF522E580EEF
:101CD0005701BCE0AB0EB11C65013801E4E46E0EA7
:101CE000711C8C2D8A19851508F0BDCCD601119672
:101CF0004C90D301ED91FC91D6018C9109958F3FC9
:101D000061F0F40160817181680F711D498241E0C9
:101D100050E0CE0101960E94E625F2E0CF0ED11CE4
:101D2000E0CF512CD5CFF801C4ACD5ACF2E0BF1256
:101D300004C0D6011A968C910BC0FB1560F433E0F9
:101D4000B31609F49FCD80E8B81217C0F60182855A
:101D500081FF14CD12C0B11008C0D6011A968C9123
:101D60001A978D7F1A968C938DCD21E0B21205C003
:101D7000F60182858260828785CD712C85CD8AE0CF
:101D8000D7018C9382E013968C93139712961C9232
:101D900012971A961C920DC0B2E07B12A8CD8AE071
:101DA000F70180837382128280E88287A7014C5FEB
:101DB0005F4FB701C8010E94880399CDE4960FB622
:101DC000F894DEBF0FBECDBFDF91CF911F910F9171
:101DD000FF90EF90DF90CF90BF90AF909F908F904B
:101DE0007F906F905F904F903F902F900895EF926B
:101DF000FF920F931F93CF93DC0118960D911C91C6
:101E00001997F80181850E94D31AD8011896CC91B0
:101E10001897C3FBEE24E0F8F12C9C013327E2165F
:101E2000F306D1F180FBC3F91896CC93C770C33089
:101E300029F0C53019F0C130C9F408C0F801808517
:101E400083FF14C0C33031F1C6E001C0C4E0C80153
:101E50000E94D91B85E090E0A0E0F801858396837D
:101E6000A783B8018DE693E00E946714D801189605
:101E70008C91189787708C1779F0ED91FC91068002
:101E8000F781E02D6C2FC801CF911F910F91FF902A
:101E9000EF900994C2E0DBCFCF911F910F91FF909B
:101EA000EF900895FF920F931F93CF93DF9300D08D
:101EB0001F92CDB7DEB78C01FC018085282F2770DB
:101EC000962F9770887F892B8087623031F506893D
:101ED0001789F801F680F394F68264817581CE014A
:101EE00001960E9452024F2DBE016F5F7F4FC801C5
:101EF0000E948016F8018281938161E070E0029671
:101F00000E94FD17F8018281938140ED57E060E067
:101F100070E088960E942D031AC06530C1F4F80164
:101F200086899789253059F4CA960E94BE16811178
:101F30000EC0F801868997890E94D41608C0FC015A
:101F40008281938167E070E002960E94FD170F90F6
:101F50000F900F90DF91CF911F910F91FF900895F7
:101F600008950C940B2B0895CF92DF92EF92FF927D
:101F70000F931F93CF93DF936C017A018B01C0E025
:101F8000D0E0CE15DF0581F0D8016D918D01D6012D
:101F9000ED91FC910190F081E02DC6010995892B0E
:101FA00011F02196EECF7E01C701DF91CF911F91F5
:101FB0000F91FF90EF90DF90CF900895FC01538D2B
:101FC000448D252F30E0842F90E0821B930B541713
:101FD00010F0CF96089501970895FC01918D828DA0
:101FE000981761F0828DDF01A80FB11D5D968C916D
:101FF000928D9F5F9F73928F90E008958FEF9FEF78
:102000000895FC01918D828D981731F0828DE80F33
:10201000F11D858D90E008958FEF9FEF0895FC01ED
:10202000918D228D892F90E0805C9F4F821B9109BA
:102030008F739927089583EB92E00E940F1021E09F
:10204000892B09F420E0822F0895FC01848DDF01A3
:10205000A80FB11DA35ABF4F2C91848D90E001961B
:102060008F739927848FA689B7892C93A089B1890A
:102070008C91837080648C93938D848D981306C0AB
:102080000288F389E02D80818F7D80830895EF920F
:10209000FF920F931F93CF93DF93EC0181E0888F22
:1020A0009B8D8C8D981305C0E889F989808185FD09
:1020B00026C0F62E0B8D10E00F5F1F4F0F731127F8
:1020C000E02E8C8DE8120CC00FB607FCFACFE88921
:1020D000F989808185FFF5CFCE010E942510F1CFCF
:1020E0008B8DFE01E80FF11DE35AFF4FF0829FB781
:1020F000F8940B8FEA89FB89808180620AC09FB7C0
:10210000F894EE89FF896083E889F989808183707A
:10211000806480839FBF81E090E0DF91CF911F9129
:102120000F91FF90EF900895CF93DF93EC01888D8E
:102130008823C9F0EA89FB89808185FD05C0A889CB
:10214000B9898C9186FD0FC00FB607FCF5CF808151
:1021500085FFF2CFA889B9898C9185FFEDCFCE019B
:102160000E942510E7CFDF91CF91089580E090E0A5
:10217000892B29F00E941B1081110C9400000895F6
:1021800085ED8093BC008091BC0084FDFCCF109253
:102190008E02089540912302262F30E0240F311D36
:1021A00021323105DCF420918E022430C9F4FC0187
:1021B00080E090E0861758F4309123022191DC01F1
:1021C000AD5FBD4FA30FB11D2C930196F3CF80914E
:1021D0002302680F6093230280E0089581E0089550
:1021E00082E00895089508950895E091470280914E
:1021F0004602E81730F4F0E0E85BFD4F808190E0A4
:1022000008958FEF9FEF08959091470280914602C5
:10221000981750F4E92FF0E0E85BFD4F208130E0A3
:102220009F5F9093470202C02FEF3FEFC9010895CF
:102230008091460290E020914702821B9109089507
:10224000CF92DF92EF92FF920F931F93CF93DF9382
:102250007C01CB018A0120918F02222389F0EB01BE
:102260006B01C40ED51ECC15DD0569F06991D7014F
:10227000ED91FC910190F081E02DC7010995F3CF1C
:10228000642F0E94CA10C801DF91CF911F910F9156
:10229000FF90EF90DF90CF900895CF93DF931F9240
:1022A000CDB7DEB7698320918F022223D1F0209130
:1022B000B202203240F021E030E0FC01338322837F
:1022C00080E090E015C080919002E82FF0E0EF569A
:1022D000FD4F998190838F5F809390028093B2022B
:1022E00005C061E0CE0101960E94CA1081E090E035
:1022F0000F90DF91CF910895089580E090E00895C8
:102300000E94942B0C9429021F93CF93DF93EC012E
:102310001FB7F89498898885981720F0188A9985AE
:10232000911108C0CE010E94B0011FBFDF91CF9173
:102330001F91089589898F5F898B891798F3CE0142
:102340000E94A60148E050E062EB71E0CE010896E1
:102350000E94CD25EACF1F920F920FB60F92112443
:102360002F933F934F935F936F937F938F939F939D
:10237000AF93BF93EF93FF93E0910201F0910301BC
:102380000995FF91EF91BF91AF919F918F917F91AF
:102390006F915F914F913F912F910F900FBE0F90D2
:1023A0001F9018951F920F920FB60F9211242F9322
:1023B0003F934F935F936F937F938F939F93AF93CD
:1023C000BF93EF93FF93E0910001F0910101099514
:1023D000FF91EF91BF91AF919F918F917F916F91FD
:1023E0005F914F913F912F910F900FBE0F901F90D3
:1023F00018951F920F920FB60F9211242F933F93AF
:102400004F935F936F937F938F939F93AF93BF93FC
:10241000EF93FF9383EB92E00E942510FF91EF91E1
:10242000BF91AF919F918F917F916F915F914F91EC
:102430003F912F910F900FBE0F901F9018951F92F4
:102440000F920FB60F9211242F938F939F93EF93B8
:10245000FF93E091C302F091C4028081E091C90230
:10246000F091CA0282FD12C090818091CC028F5FF0
:102470008F732091CD02821751F0E091CC02F0E0F1
:10248000ED54FD4F958F8093CC0201C08081FF9168
:10249000EF919F918F912F910F900FBE0F901F90F2
:1024A00018951F920F920FB60F9211242F933F93FE
:1024B0004F935F936F937F938F939F93AF93BF934C
:1024C000EF93FF938091B900887F803609F49CC018
:1024D00068F5883209F45BC090F4803109F454C087
:1024E00038F4882309F4F6C0883009F44DC0F6C0EA
:1024F000883109F44CC0803209F45DC0EFC08034EB
:1025000009F468C048F4803309F455C0883309F0F1
:10251000E5C080938C02D8C0803509F44FC088355F
:1025200009F45DC0883409F0D9C0D6C0883909F4EF
:10253000C7C0A8F4883709F467C038F4883609F4AE
:1025400063C0803709F460C0C9C0883809F4B8C0D6
:10255000803909F45FC0803809F0C0C05BC0803B9F
:1025600009F486C038F4803A09F466C0883A09F460
:102570007FC0B4C0803C09F4A7C0883C09F4A4C063
:10258000883B09F48AC0AAC08091690210C090916A
:102590008B0280918A02981770F5E0918B0281E09E
:1025A0008E0F80938B02F0E0E659FD4F808180937F
:1025B000BB0085EC86C080938C028EC0E0918B02BC
:1025C00081E08E0F80938B028091BB00F0E0E65992
:1025D000FD4F808390918B0280918A026EC0E091C2
:1025E0008B0281E08E0F80938B028091BB00F0E024
:1025F000E659FD4F808380918D0281116DC081E08D
:102600008093680284EA61C083E080938E02109216
:102610004502CFCF80914502803208F051C0E09151
:10262000450281E08E0F809345028091BB00F0E06F
:10263000EB5DFD4F8083BDCF85EC8093BC00109295
:102640008E0280914502803230F4E0914502F0E044
:10265000EB5DFD4F10826091450270E0E091CA0190
:10266000F091CB0185E292E009951092450236C0C7
:1026700084E080938E021092240210922302E09153
:10268000CC01F091CD01099580912302811105C003
:1026900081E08093230210920302E091240281E002
:1026A0008E0F80932402F0E0ED5FFD4F80818093D8
:1026B000BB009091240280912302981708F479CFEF
:1026C00085E88093BC000AC085EC8093BC00109222
:1026D0008E0204C010928C020E94C010FF91EF91F4
:1026E000BF91AF919F918F917F916F915F914F912A
:1026F0003F912F910F900FBE0F901F901895DC0106
:1027000080E0615098F02D91982F9227E92FEF707B
:10271000F0E0E85CFE4F249192959F70E92FF0E085
:10272000E85BFE4FE491822F8E27EBCF08951F9335
:10273000CF93DF93EC01162F60E0812F0E942B1BBB
:10274000612F70E0FB01E657FE4FE491E883FB0147
:10275000EA58FE4FE491F0E0EE0FFF1FE459FE4F00
:10276000859194919A8389831B861D861C86FE0120
:102770003B9623961292EC17FD07E1F7DF91CF917C
:102780001F9108951F920F920FB60F9211248F93ED
:102790000FB6F894A89580916000886180936000DE
:1027A000109260000FBE8F910F900FBE0F901F9080
:1027B00018954115510529F4EAE7F0E080818F77FB
:1027C00080836A307105A9F063FD02C088E001C012
:1027D00088E26770682B88E10FB6F894A89580931B
:1027E00060000FBE60936000E0E6F0E080818064EE
:1027F0008083232BA1F483B7817F846083BFF89407
:1028000083B7816083BF85B7806685BF8F7D85BFB5
:102810007894889583B78E7F83BF78940EC083B7F2
:10282000817F846083BFF89483B7816083BF78948D
:10283000889583B78E7F83BF7894452B29F4EAE788
:10284000F0E080818068808308951F920F920FB618
:102850000F9211242F933F934F935F936F937F9326
:102860008F939F93AF93BF93CF93DF93EF93FF9398
:10287000CCE5D3E060E089810E94FC1A1092B1009F
:102880006A817B818C819D810E94CE266093B300FA
:1028900081E08E83FF91EF91DF91CF91BF91AF9156
:1028A0009F918F917F916F915F914F913F912F9168
:1028B0000F900FBE0F901F9018951F920F920FB69A
:1028C0000F9211240F900FBE0F901F9018956F92CA
:1028D0007F928F92BF92CF92DF92EF92FF920F93EF
:1028E0001F93CF93DF93FB01258136814781232BF3
:1028F000242B71F18B01BFB6F89424812F702061D5
:102900002483F82EE92E0E942603009791F1EC0112
:102910002297209771F16D807E808F80F80125814C
:1029200036814781CE01029662167306840608F04E
:102930004DC0261937094809258336834783F82E69
:10294000E92E0E942603009711F7C0E0D0E0E1CF06
:102950006E5F7F4F0296DF91CF911F910F91FF9095
:10296000EF90DF90CF90BF908F907F906F900C94FE
:10297000A11BC0E0D0E060E070E06801F2E0CF0EA3
:10298000D11CC6010E941F03B6018F2D9E2D0E94EF
:102990001F03209769F08D819E81AF81F801258109
:1029A00036814781821B930BA40B8D839E83AF835B
:1029B000BFBEDF91CF911F910F91FF90EF90DF90FD
:1029C000CF90BF908F907F906F900895BC01D5CF2E
:1029D000DF92EF92FF920F931F93CF93DF938C01BF
:1029E000DFB6F8947C0182E0E80EF11CC8010E9479
:1029F00026030097B1F1EC01229799F18D819E8118
:102A0000AF810197A1098D839E83AF838D819E81C4
:102A1000AF81892B8A2B29F5C8010E943B088C8144
:102A2000982F9F7080FF0AC09C83E881F9810190F4
:102A3000F081E02DB801CE01099506C0BE016E5FA0
:102A40007F4FC7010E94A11BC8010E942603009767
:102A500029F4C0E0D0E02097C9F603C0EC0122972A
:102A6000FACFDFBEC801DF91CF911F910F91FF9088
:102A7000EF90DF9008951F920F920FB60F921124DE
:102A80002F933F934F935F936F937F938F939F9376
:102A9000AF93BF93EF93FF93E8E6F3E084818F5FFA
:102AA0008483CF010E94E814FF91EF91BF91AF9111
:102AB0009F918F917F916F915F914F913F912F9156
:102AC0000F900FBE0F901F9018951F920F920FB688
:102AD0000F9211242F933F934F935F936F937F93A4
:102AE0008F939F93AF93BF93EF93FF938DE693E004
:102AF0000E94E814FF91EF91BF91AF919F918F9148
:102B00007F916F915F914F913F912F910F900FBEE9
:102B10000F901F9018958EBD0DB407FEFDCF8EB59A
:102B2000089561E08AE00C94FC1A8CE00E94D31AAC
:102B30008111FBCF089560E08AE00C94FC1ACF93DA
:102B4000DF93D82FC62F0E949B150E9495158D2FBD
:102B50008C2B0E948B1580E00E948B15C82F0E9441
:102B600091158C2FDF91CF910895CF93C82F0E949C
:102B70009B150E9495158C2F0E948B15C82F0E94C3
:102B800091158C2FCF91089586E30E94B5158DE3A2
:102B90000E94B5158AE30C94B515CF93CFEF86E369
:102BA0000E94B515C150807731F08AE18A95F1F71E
:102BB00000C0C111F4CF8AE30E94B51589E3CF911B
:102BC0000C94B515663050F4FC018081918101961A
:102BD000F6E06F9F800D911D1124089580E090E034
:102BE00008950F931F93CF93DF9300D01F92CDB71B
:102BF000DEB78B0143E050E0BC01CE0101960E949C
:102C0000CD259A818B812981F8012083918382834C
:102C10000F900F900F90DF91CF911F910F9108951A
:102C2000BC0180E090E00E94671B24E030E080E07F
:102C300090E060E170E040917A00406440937A0057
:102C400042E350917A0056FF08C0FB013197F1F73B
:102C50004150B9F780E090E016C040917800509163
:102C600079005370840F951F2150310921F79C0181
:102C70002370332796958795969587952230310551
:102C800010F0019608950895EFE6F0E080818160EC
:102C900080830895EF92FF920F931F93CF93DF935A
:102CA0001F92CDB7DEB77B01E80EF91E8C010E1521
:102CB0001F0559F0198241E050E0B801CE0101969C
:102CC0000E94E6250F5F1F4FF2CF81E00F90DF914A
:102CD000CF911F910F91FF90EF900895CF93DF93C5
:102CE0001F92CDB7DEB7198241E050E0BC01CE01A2
:102CF00001960E94D62589810F90DF91CF9108958A
:102D00000F931F93CF93DF93EC018B018AE18B87A5
:102D10001E861D864C871E8A6FA978ADFB017196B1
:102D200084913197E491ED8B8AA3625F7F4F42E0FB
:102D300050E0CE0146960E94CD256FA978AD6D5F1B
:102D40007F4F4AE050E0CE0148960E94CD2589ADE4
:102D50008BA36FA978AD6E5E7F4F42E050E0CE014D
:102D600084960E94CD25BE01655F7F4FA801CE01EC
:102D7000DF91CF911F910F910C948803CF93DF9334
:102D8000EC0188E10E9429028F3F51F028813981AE
:102D9000A901480F511DCA010E946E16817001C021
:102DA00080E0DF91CF910895CA960E94BE168111EE
:102DB00009C064E070E080E090E00E944A16E0E024
:102DC000F0E009940895982F80918E028111FCCF34
:102DD00081E080938E0260938D022FEF20938C020E
:102DE00010928B02290F20938A02809369028091AE
:102DF000690284698093690280916802813061F47C
:102E000010926802809169028093BB008091BC009F
:102E100083FDF8CF85EC01C085EE8093BC008091E6
:102E20008E028130E1F380918B02891710F490912A
:102E30008B02AAE6B2E0E8E4F2E080E0891721F034
:102E40002D9121938F5FFACF0895833081F028F47C
:102E5000813099F08230A1F008958730A9F0883050
:102E6000B9F08430D1F4809180008F7D03C08091CF
:102E700080008F7780938000089584B58F7702C09B
:102E800084B58F7D84BD08958091B0008F7703C095
:102E90008091B0008F7D8093B0000895EF92FF92F3
:102EA0000F931F93CF93DF938C017B0165E50E9405
:102EB000A91CE70188E0E80EF11C6991C8010E9495
:102EC000A91CCE15DF05C9F7DF91CF911F910F9196
:102ED000FF90EF900895CF93DF93EC01CB011A821E
:102EE000198218821B82642F04960E94E2150097B3
:102EF00031F044E050E0BC01CE010E94D625CE0165
:102F0000DF91CF910895AF92BF92CF92DF92EF926F
:102F1000FF921F93CF93DF9300D000D0CDB7DEB7E1
:102F20007C016B015A0110E0412FB601CE010196E0
:102F30000E946B17B501CE0101960E94F102882311
:102F400039F0612FC60104960E94E215059605C06E
:102F50001F5F163049F780E090E0F701918380838E
:102F6000C7010F900F900F900F90DF91CF911F919D
:102F7000FF90EF90DF90CF90BF90AF900895CF93E8
:102F8000DF93EC01CB01463018F080E090E005C003
:102F9000642F04960E94E215049699838883CE01DB
:102FA000DF91CF9108951F93CF93DF93D82F162FE2
:102FB000C42F0E949B150E9495158D2F0E948B1582
:102FC000812F0E948B150E94911560E88D2F0E9421
:102FD0009F15181771F0CC2361F04FEF4C0F612F44
:102FE0008D2F0E94D3178FEC97E00197F1F700C067
:102FF0000000DF91CF911F9108950F931F93CF93FE
:10300000DF93EC018B010E94D91BCE010E94A60127
:10301000B80183E0660F771F8A95E1F76E547E4F03
:1030200048E050E0CE0108960E94CD25888588238F
:1030300059F0188A198A6DE673E0CE01DF91CF91BD
:103040001F910F910C94B001DF91CF911F910F91BF
:103050000895AF92BF92CF92DF92EF92FF920F93BB
:103060001F93CF93DF93EC017B011B868C01015FE3
:103070001F4F60EC8BE30E949F15181614F0D12CA3
:1030800040C060E88FE30E949F15D82E49E24817A0
:10309000B0F30E949B150E9495158FEF0E948B152F
:1030A000C02E58018A2D8C198D1538F480E00E94AD
:1030B0008B15F50181935F01F5CF0E94911560E8B2
:1030C0008FE30E949F15282F30E0082E000C990BEB
:1030D0008827990F881F9927982F8827A901481BAF
:1030E000590BCA0157FD0196959587959195819544
:1030F0009109865B898360E88FE30E949F1587FFB3
:10310000BECF8AE30E94B5158BE791E00197F1F7F6
:1031100000C000000E94C41584E30E94B515DD20A4
:1031200019F1DE868F8596E798279F8791E04D2DD0
:1031300050E0BA0161507109292F30E0F801E20F27
:10314000F31F261737073CF420818452822780839F
:103150009F5F822FF1CF9081888989278083B80172
:10316000C70101960E94A62BF701D0821E868D858D
:10317000882351F00E949B150E9495150E9491157D
:1031800084E30E94B5151D86F7018081DF91CF9100
:103190001F910F91FF90EF90DF90CF90BF90AF9075
:1031A0000895EF92FF921F93CF93DF9300D000D04A
:1031B000CDB7DEB77C0110E0412FB701CE010196FB
:1031C0000E946B17CE0101960E94CF02882321F046
:1031D0001F5F163089F71FEF812F0F900F900F9010
:1031E0000F90DF91CF911F91FF90EF900895AF92D4
:1031F000BF92CF92DF92EF92FF921F93CF93DF9314
:1032000000D000D0CDB7DEB77C016B0110E05C01CF
:1032100084E0A80EB11C412FB701CE0101960E9497
:103220006B17B601CE0101960E94F102882379F056
:103230001B821A8219821C82612FC5010E94E2152D
:1032400044E050E0BC01CE0101960E94E6251F5FDC
:10325000163009F781E00F900F900F900F90DF91DB
:10326000CF911F91FF90EF90DF90CF90BF90AF90E4
:103270000895AF92BF92CF92DF92FF920F931F9368
:10328000CF93DF93CDB7DEB729970FB6F894DEBFA3
:103290000FBECDBFFC0121110DC082AD93AD9A834D
:1032A000898386E08B8385E391E09D838C8382E82C
:1032B00091E160C0662319F081AD861740F41A824F
:1032C00019821B821D821C821F821E8255C004AD82
:1032D00015AD213069F4F801848595859A83898339
:1032E0002B838FE291E09D838C838FEA99E042C02B
:1032F0006A012330B1F0243011F7B801685F7F4FC5
:10330000CE0108960E948317888599859A838983C0
:1033100081E08B8385EA99E09D838C838FE999E036
:1033200029C0580188E0A80EB11CF12C4F2DB50121
:10333000CE0101960E946B17B601CE0101960E9444
:10334000F102882339F06F2DC8010C960E94E21516
:10335000049606C0F394F6E0FF12E8CF80E090E018
:103360009A83898381E08B838BEA99E09D838C83A8
:103370008DEA99E09F838E8329813A814B815C811C
:103380006D817E818F8190E029960FB6F894DEBF23
:103390000FBECDBFDF91CF911F910F91FF90DF90B6
:1033A000CF90BF90AF900895282F3091B202313264
:1033B00008F04AC080918E028111FCCF9091B10239
:1033C00042E040938E0220938D022FEF20938C02D7
:1033D00010928B0230938A02E1E9F2E0AAE6B2E0B1
:1033E00020E0321721F041914D932F5FFACF1092D8
:1033F000690220916902990F922B90936902909132
:103400006802913061F41092680290916902909381
:10341000BB009091BC0093FDF8CF95EC01C095EEF8
:103420009093BC0090918E029230E1F390918C02C7
:103430009F3F79F080918C02803241F080918C0224
:10344000803331F084E005C081E003C082E001C038
:1034500083E0109290021092B20210928F020895AF
:10346000AF92BF92CF92DF92EF92FF920F931F9392
:10347000CF93DF93FC011182128213821482B080F9
:10348000B11002C0B12C83C08C0181E080938F0207
:103490008AE48093B102109290021092B20263E02B
:1034A00080E593E00E944D1181E00E94D41960E014
:1034B00081E00E94E316F82E1092470280934602A4
:1034C000F1E08F13DFCF80E593E00E940411EC015F
:1034D000F0928F02109290021092B20264E080E5A6
:1034E00093E00E944D1181E00E94D41961E081E0D7
:1034F0000E94E3161092470280934602813011F633
:1035000080E593E00E940411A82E6C2F62956F70E5
:1035100070E080E090E00E94FF269B01AC0160E03B
:1035200070E080E090E40E9450286B017C01BE01B5
:1035300084E0660F771F8A95E1F7607F77278A2DF1
:103540008F70682B072E000C880B990B0E94FF26AA
:10355000A70196010E94E3272CEE31E548E35DE3E5
:103560000E94E32720E030E048EC52E40E94E32789
:1035700020E030E040E05FE30E9462260E943A27AC
:103580000E94CE26F80161837283838394838B2DFE
:10359000DF91CF911F910F91FF90EF90DF90CF902F
:1035A000BF90AF900895CF93DF93282F30E0F901BB
:1035B000E256FE4F8491F901E657FE4FD491F9018E
:1035C000EA58FE4FC491CC2391F081110E94251737
:1035D000EC2FF0E0EE0FFF1FE459FE4FA591B491E0
:1035E000EC91ED2381E090E021F480E002C080E0E6
:1035F00090E0DF91CF9108951F93CF93DF93282F11
:1036000030E0F901E256FE4F8491F901E657FE4F92
:10361000D491F901EA58FE4FC491CC23C1F0162F82
:1036200081110E942517EC2FF0E0EE0FFF1FEE59DD
:10363000FE4FA591B4919FB7F894111104C08C91DD
:10364000D095D82302C0EC91DE2BDC939FBFDF9195
:10365000CF911F910895CF93DF9390E0FC01E6573F
:10366000FE4F2491FC01EA58FE4F8491882361F1BA
:1036700090E0880F991FFC01E85AFE4FC591D49144
:10368000FC01EE59FE4FA591B491611109C09FB79D
:10369000F8948881209582238883EC912E230BC097
:1036A000623061F49FB7F8948881322F309583237C
:1036B0008883EC912E2B2C939FBF06C08FB7F89474
:1036C000E8812E2B28838FBFDF91CF9108958F92B1
:1036D0009F92AF92BF92CF92DF92EF92FF926B01D7
:1036E0007C010E940A1D4B015C01C114D104E1045C
:1036F000F104F1F00E940A1DDC01CB01881999093F
:10370000AA09BB09883E9340A105B10570F321E0E9
:10371000C21AD108E108F10888EE880E83E0981EED
:10372000A11CB11CC114D104E104F10419F7DDCFCF
:10373000FF90EF90DF90CF90BF90AF909F908F90D1
:103740000895FF920F931F93CF93DF93EC018B01AA
:10375000FFB6F8940E942603BC01C8010E941F0313
:10376000B801CE010E941F03FFBEDF91CF911F91D0
:103770000F91FF9008958FE693E00E943B08009719
:10378000B1F0DC01129799F014968C9114978F7018
:1037900014968C931497ED91FC9111970190F08100
:1037A000E02D6DE673E0CD01099581E0089580E09C
:1037B0000895AF92BF92DF92EF92FF920F931F9303
:1037C000CF93DF93EC01DFB6F8948C818F708C83FC
:1037D0008DE693E00E942603009781F102970DE6A3
:1037E00013E0009759F1C817D907D9F4C8010E940E
:1037F0003B08CE0102960E942603009709F44BC0B5
:10380000FC01329709F447C02581368147818D81BB
:103810009E81AF81820F931FA41F85839683A78308
:103820003AC08C010E5F1F4FC8010E94260300970B
:1038300019F480E090E0D5CF0297D3CF5E0182E00B
:10384000A80EB11CDFB7F894CFB7F8948FE693E0D9
:103850000E9426038C012FE633E00115110551F477
:10386000E12CF12CCFBFE114F104A1F0C7010E94BB
:103870003B0810C0A016B10611F4790102C0E12C7A
:10388000F12CC8010E9426039801E114F10451F7BC
:103890008C01E3CFDFBFDFBEDF91CF911F910F918E
:1038A000FF90EF90DF90BF90AF900895FC01908162
:1038B0000180F281E02D892F809560FF12C0F8947D
:1038C0002281822382838181892B8183A0E1B0E0E0
:1038D0001197F1F78281982B928378948AE690E091
:1038E00011C0F8942281822382838181892B818374
:1038F000AEE7B0E01197F1F78281982B928378942C
:1039000086E090E00197F1F70895FC019081018035
:10391000F281E02DF8948181892B81832281892F86
:10392000809528232283A2E0B0E01197F1F721814E
:1039300082238183A0E1B0E01197F1F78081789430
:10394000E6E6F0E03197F1F7982381E009F480E0B2
:103950000895EF92FF920F931F93CF93DF93EC01A3
:10396000E62E08E010E0FF24F39461E08E2D8F2115
:1039700009F460E0CE010E94561CFF0C01501109B1
:10398000A1F7F894E981FA81918188818095892352
:103990008183E981FA81928188818095892382835C
:1039A0007894DF91CF911F910F91FF90EF90089540
:1039B000DC012C911196ED91FC911297F894818184
:1039C000922F90958923818378948DE7815009F116
:1039D00030813223D9F3F8948281892382838181D3
:1039E000822B81837894ACEBB3E01197F1F7F894D4
:1039F00081819823918388E890E00197F1F7808195
:103A0000282381E009F080E07894E0E3F3E0319747
:103A1000F1F708953FB7F89480919E0490919F0428
:103A2000A091A004B091A10426B5A89B05C02F3F8A
:103A300019F00196A11DB11D3FBFBA2FA92F982FD4
:103A40008827820F911DA11DB11DBC01CD0143E04E
:103A5000660F771F881F991F4A95D1F708951F9207
:103A60000F920FB60F9211242F933F938F939F9332
:103A7000AF93BF9380919A0490919B04A0919C0472
:103A8000B0919D043091990426E0230F2D3720F446
:103A90000296A11DB11D05C029E8230F0396A11DA3
:103AA000B11D2093990480939A0490939B04A09352
:103AB0009C04B0939D0480919E0490919F04A091DA
:103AC000A004B091A1040196A11DB11D80939E0494
:103AD00090939F04A093A004B093A104BF91AF91D1
:103AE0009F918F913F912F910F900FBE0F901F903C
:103AF0001895CF93DF93CDB7DEB72E970FB6F89416
:103B0000DEBF0FBECDBF789484B5826084BD84B51E
:103B1000816084BD85B5826085BD85B5816085BDC8
:103B200080916E00816080936E0010928100809180
:103B30008100826080938100809181008160809308
:103B40008100809180008160809380008091B1002D
:103B500084608093B1008091B00081608093B00058
:103B600080917A00846080937A0080917A008260EC
:103B700080937A0080917A008E7F80937A00809182
:103B80007A00806880937A001092C1008091C3030C
:103B90009091C4039C012A5F3F4F3A872987E0E058
:103BA0007724739424EF422E55245394612C8091F2
:103BB000C203E81708F038C131E03E0F3C87F0E05F
:103BC000EE0FFF1FEB53FC4F0081118129E833E01A
:103BD000F801318720873C85338789859A859587C9
:103BE0008487180192E4290E311C5101EFEFAE1ABF
:103BF000BE0A6EE0C5010E94971391012F5E3F4FF0
:103C00003E872D87780133E4E30EF11CF7018585AB
:103C1000811185C0C5010E94D81C882309F47FC08A
:103C200060EFC5010E94A91CCC24C394812C1B8683
:103C3000DD24D394C5010E94851C982EC5010E94E5
:103C4000851CF1E09F1203C08130C1F437C0282DDC
:103C500030E098121DC0F7018385D81630F4E20FCA
:103C6000F31F83818C2151F402C08D1539F0912C02
:103C7000F8E0FD1560F0F701D48609C0F701E80D02
:103C8000F11D83818C2983839924939409C0DB8659
:103C9000F701E20FF31F93818C2D80958923838395
:103CA000692DC5010E94561CD394CC0C19F4839441
:103CB000CC24C394F7E0F81508F0BCCF20E42D1510
:103CC00070F52B85F7012387211102C031E035877C
:103CD000F7018381882319F1F801EA5BFF4FAD8575
:103CE000BE85C801825B9F4F21912D938E179F0740
:103CF000D9F767E08D859E850E947F13F101908D35
:103D000089130DC0F801ED5AFF4F8081803109F40D
:103D100085C5883209F482C5823209F47FC5F7016E
:103D2000138615861486F801E25BFF4FC8018A5B93
:103D30009F4F1292E817F907E1F71092470210928D
:103D40004602109290021092B20210928E0270926D
:103D50008D021092680261E082E10E94FC1A61E02B
:103D600083E10E94FC1A8091B9008E7F8093B90094
:103D70008091B9008D7F8093B900F0E2F093B80094
:103D800025E42093BC0082EF90E19093CD018093D5
:103D9000CC01E3EFF0E1F093CB01E093CA018AE0BC
:103DA000F82E70928F02FAE4F093B1021092900212
:103DB0001092B20281E00E94D41981111BC0F80157
:103DC000E55AFF4F708270928F022AE42093B1026D
:103DD000109290021092B20262E080E593E00E949D
:103DE0004D1163EC80E593E00E944D1181E00E944B
:103DF000D41909C064E670E080E090E00E94671B7F
:103E0000FA94F110CECFF801458256826782B8014C
:103E10008DE693E00E94671429853A852B5D3F4F1C
:103E20003A872987EC85C3CE60E080E090E00E946D
:103E3000AE028C01BEE1EB2EB1E0FB2EF7016491E6
:103E4000C8010E94AE028C01FFEFEF1AFF0A24E2C4
:103E5000E21621E0F20691F7FF24F3948091C20369
:103E60008F1548F1C090C503D090C60380E00E9432
:103E70002F01682FC8010E94AE028C01B601685F55
:103E80007F4F40E0CE0101960E94BF1780E00E9464
:103E9000AB09682FC8010E94AE028C0180E00E942D
:103EA000A509682FC8010E94AE0266E00E94AE021A
:103EB0008C01F394D3CF44E050E060E070E0CE0199
:103EC00005960E94D625C801A0E0B0E0AE6FBA6C9E
:103ED00089839A83AB83BC834D815E816F817885B2
:103EE00084179507A607B70709F474C044E050E0AB
:103EF00060E070E0CE0101960E94E62566E070E089
:103F00008091C3039091C4030E944A1685E00E94E9
:103F100029028F3FC9F0082F10E08091C3039091D0
:103F2000C403800F911F0E946E166091C3037091AD
:103F3000C403600F711F8F738064898341E050E078
:103F4000CE0101960E94E62582E10E9429028F3F60
:103F500071F06091C3037091C403680F711D8BE011
:103F6000898341E050E0CE0101960E94E62584E17C
:103F70000E9429028F3F71F06091C3037091C403C6
:103F8000680F711D86E0898341E050E0CE01019603
:103F90000E94E62510E08091C2031817D8F4E12FA3
:103FA000F0E0EE0FFF1FEB53FC4FE080F18065E285
:103FB00070E0F701848595850E944A16F7016485B3
:103FC0007585198241E050E0CE0101960E94E625F8
:103FD0001F5FE1CF8FE294E090938C0380938B037B
:103FE0001B821A821982BE016F5F7F4F8091C003CE
:103FF0009091C1030E94F11589819A810E94C22586
:1040000085E08093430461E00E942B1B81E394E0F0
:104010000E94A601E89883EB9FE0909301018093B2
:10402000000180E694E09093C9018093C80160E0AC
:1040300082E00E942B1B61E08AE00E942B1B61E062
:104040008BE00E942B1B60E08CE00E942B1B61E048
:104050008DE00E942B1B80E58CBD61E08AE00E9410
:10406000FC1A61E08DE00E94FC1A60E08BE00E9487
:10407000FC1A0E949B150E9495150E949115F5E867
:10408000FA95F1F700000E949B150E94951580E3B8
:104090000E948B150E9495150E9491150AEE10E062
:1040A000EEE1EE2EE1E0FE2EF80131966491F8018A
:1040B000849143E00E94D3170E5F1F4FE016F10674
:1040C00099F783E30E94B5158FEA93EB0197F1F717
:1040D00000C0000043E060EC8EE30E94D3178FE342
:1040E00091E09093010180930001809169008C7FA1
:1040F000826080936900E89A80E180938100109249
:104100008000109285001092840080E49CE99093D6
:1041100087008093860081E1809381000E9444168D
:1041200066E070E081E394E00E94FD170E94BD25E7
:104130006CEA7DE00E94592A8C0108511C4F82E6EE
:1041400094E00E94D91B9801A4E6B0E00E94522698
:1041500028EE33E040E050E00E94302620936704D0
:10416000309368044093690481E080936A0462E6B6
:1041700074E08DE693E00E94671461E083E00E94A2
:104180002B1B60E083E00E94FC1A60E081E10E944A
:104190002B1B60E081E10E94FC1A809155049091F4
:1041A0005604813D974030F080ED97E0909356049F
:1041B0008093550487E880937A0010927B00E09109
:1041C0004504F09146040680F781E02D85E494E0F3
:1041D00009959093500480934F0480E09BEEA1E4F6
:1041E000B0E08093510490935204A0935304B09391
:1041F000540480934A0490934B04A0934C0465E4C8
:1042000074E08DE693E00E9467148BE080934D0488
:1042100089E080934E048091BE030CEF080F855017
:1042200090E004960E946E16D82EE12C7EE5F72EC3
:1042300010E0015011098E2D90E08017910734F4A1
:1042400004960E946E16F826E394F5CFFD101DC06B
:1042500084E090E00E946E16182F85E090E00E94A6
:104260006E16082F80EA810F8B3078F443E061E20C
:104270008DE00E94D31743E0612F8EE00E94D31798
:1042800043E0602F8FE00E94D31784E080937A038D
:1042900062E00E942B1BEEE8F1E08491EAE7F1E096
:1042A0009491923059F42091FE01282B2093FE0125
:1042B0002091FB01282B2093FB0119C0933059F466
:1042C0002091FD01282B2093FD012091FA01282B3C
:1042D0002093FA010CC0943051F42091FC01282B5A
:1042E0002093FC012091F901282B2093F901E8E2A9
:1042F000F1E0A4919230D1F4B0E0AA0FBB1FA3511A
:10430000BE4F29E731E02D933C93E0E7F1E0A59122
:10431000B4919C919093EC012BE630E03093000235
:104320002093FF0190916800916037C09330D1F4E1
:10433000B0E0AA0FBB1FA052BE4F29E731E02D937A
:104340003C93E2E7F1E0A591B4919C919093DF0159
:104350002CE630E0309300022093FF01909168003A
:1043600092601BC09430D9F4B0E0AA0FBB1FA153D8
:10437000BE4F29E731E02D933C93E4E7F1E0A591AE
:10438000B4919C919093CE012DE630E030930002E1
:104390002093FF0190916800946090936800A09131
:1043A000FF01B0910002EC918E2B8C9389E893E091
:1043B0000E948F029091C20381E0981710F08F5FE6
:1043C000FCCF11E00EE0F12C0E94BB1B882319F0FA
:1043D000FF24F394F9CFF11007C00E94BB1B882380
:1043E00029F0FF24F394F9CFFF24F39480918B03F9
:1043F00090918C03FC0124AD222309F413C264E9DB
:1044000073E0C1960E9429188A3008F40BC21B82FF
:104410001A821982BE016F5F7F4F8091C003909115
:10442000C1030E94F115BE016F5F7F4F88E993E0E1
:104430000E94DE028111F6C164E973E089E893E02D
:104440000E942A0ABB24B39490E1A92E22E2922E64
:1044500036E0832E9091C2039B15F0F1C090C50306
:10446000D090C603F601928590FF34C0E0908F0390
:10447000E394E0928F0360918D0370918E03CE01DF
:1044800001960E945202E0918B03F0918C0382A965
:10449000F601938500939403A0929703909296035C
:1044A00080929E03E092950390939F031092A00345
:1044B0001092A1038093A203AE014F5F5F4F64E9A6
:1044C00073E089E893E00E948803F60182858E7F7D
:1044D000828781E0B394BECFF1109DC181119BC151
:1044E00080914F049091500464E670E00E94452A48
:1044F00080914E0490E068177907A0F480916D04D4
:10450000811105C00E94CD1581E080936D0420E0EB
:1045100030E040E050E06AE070E081E092E00E942C
:10452000D913F5CF80915F04811164C180916F0030
:104530008E7F80936F008DE693E00E9426030097A4
:1045400041F0FC01329729F0C580D680E780F12C3C
:1045500003C0C12CD12C76018FE693E00E94260384
:10456000892B09F044C1F1E0CF16D104E104F10434
:1045700009F4D8C080916D04811104C00E94CD154A
:1045800010936D0421E2C21623E0D206E104F10487
:1045900008F047C031E9C31631E0D306E104F10465
:1045A00008F048C089ECC816D104E104F10408F011
:1045B0004AC095E6C916D104E104F10408F04BC0E5
:1045C000E3E3CE16D104E104F10408F04CC0FAE1B3
:1045D000CF16D104E104F10408F04DC02DE0C2165D
:1045E000D104E104F10408F04EC037E0C316D10451
:1045F000E104F10408F04FC084E0C816D104E104DE
:10460000F10408F050C092E0C916D104E104F104AD
:1046100008F451C060E070E0C12CD12C7601C39445
:104620004FC069E070E0A0E2CA2EA3E0DA2EE12CD0
:10463000F12C46C068E070E0F0E9CF2EDD24D39481
:10464000E12CF12C3DC067E070E0E8ECCE2ED12CDF
:10465000E12CF12C35C066E070E054E6C52ED12C7B
:10466000E12CF12C2DC065E070E042E3C42ED12C8A
:10467000E12CF12C25C064E070E039E1C32ED12C8F
:10468000E12CF12C1DC063E070E02CE0C22ED12C97
:10469000E12CF12C15C062E070E096E0C92ED12C1F
:1046A000E12CF12C0DC061E070E083E0C82ED12C2C
:1046B000E12CF12C05C06AE070E0C12CD12C760110
:1046C00020E030E040E050E081E092E00E94D91329
:1046D000E1E0CE1AD108E108F1088DE693E00E94EE
:1046E00026030097D1F0FC013297B9F085819681BD
:1046F000A781AC016A2F70E041505109610971092D
:104700004C155D056E057F0510F46A01E62E8C19C7
:104710009D09AE0985839683A7838DE693E00E9469
:10472000E81465C00E9444168091B10081FF02C068
:1047300084E001C080E09091B10090FD8260909192
:10474000B1009091B1009B7F9093B1009091B10026
:104750009D7F9093B1009091B1009E7F9093B100A6
:104760009091640090649093640090917A009F7798
:1047700090937A009091640091609093640090917E
:1047800064009062909364009091640090689093AC
:10479000640093B7917F93BFF89493B7916093BFF0
:1047A0007894889593B79E7F93BF78949091640096
:1047B0009E7F9093640090917A00906890937A0025
:1047C00081FF05C08091B10084608093B100809129
:1047D00064008F7B80936400809164008F7D809360
:1047E0006400809164008F778093640014C00E94FD
:1047F000441611C080916D04882369F00E949B15B6
:104800000E9495150E9491150E94C41584E30E9490
:10481000B51510926D040E94B610D5CD21E0F101BE
:1048200020837DCA80E00ECE81E793E00E94B00F26
:1048300089E893E00C9417020F931F93CF93DF93B3
:10484000E3EBF2E01382128288EE93E0A0E0B0E0A6
:1048500084839583A683B78324E131E03183208369
:1048600025EC30E03587248724EC30E03787268735
:1048700020EC30E0318B208B21EC30E0338B228B2D
:1048800022EC30E0358B248B26EC30E0378B268B06
:10489000118E128E138E148EE0E5F3E013821282D5
:1048A00084839583A683B78386E291E09183808396
:1048B00010926303E5E6F3E0128211821082EDE6C6
:1048C000F3E01182108213821282E8E6F3E0118293
:1048D0001082138212821482EFE2F4E015821482B5
:1048E00017821086118680EB91E093838283128A6F
:1048F000138A148A158A11E010933504118E108ED4
:1049000010924904138E148E158E168E178E11A2D6
:1049100010A212A213A214A215A284EA91E0978B0E
:10492000868B88EC90E097A386A313A612A615A603
:1049300016A617A68EE891E091A780A710AA10935B
:104940005B0412AA16AA15AA10AE11AE12AE84E824
:1049500091E094AB83AB13AE1093660414AE15AE26
:1049600016AE8EE694E00E94C102C9E8D3E084E569
:1049700091E0998388831B821A8283EC93E09D8364
:104980008C831E82198618861F821A8684E993E01A
:104990000E94C10280E290E09EAB8DAB22EF31E03D
:1049A00038AF2FAB19AF9BAF8AAF8FEF8EAF10929E
:1049B000C9031092C8031092CA031092CC0310923C
:1049C000CB031092CE031092CD038CE691E0998335
:1049D00088831092D8031092D703E9EDF3E0808129
:1049E0008E7F8D7F80831092DA031092DC03109209
:1049F000DB031092D2031092D1031092D30380E70D
:104A000097E1A0E08093D4039093D503A093D603BD
:104A10000FEC13E08AE491E0F801918380838DED3F
:104A200093E00E94C10210920804109207041092B1
:104A3000090410920A0410920B0410920C041092B4
:104A40000D0410920F0410920E0410921004109294
:104A5000110460E082E194E00E94971382E29CEFEF
:104A6000909321048093200410922A0410922B0426
:104A700010922C0410922D0410922E041DAF0CAF36
:104A800088E791E099838883E1E7F3E0138212825B
:104A900010927503158216821782A9E7B3E08C91F4
:104AA000887F816088608C931186178616861092A5
:104AB0008103118A128A138A88E391E0958784879B
:104AC000F58BE48B80EC91E091838083D78BC68B50
:104AD0008CE291E093878287DF91CF911F910F91B4
:104AE00008958F929F92AF92BF92CF92DF92EF92F2
:104AF000FF92CF93DF93EC01688179818A819B815A
:104B0000611571058105910521F464E279ED8BE56C
:104B100097E02DE133EF41E050E00E94FE2549018E
:104B20005A019B01AC01A7EAB1E40E941D266B016A
:104B30007C01ACEEB4EFA50194010E942B26DC01B0
:104B4000CB018C0D9D1DAE1DBF1DB7FF03C001978E
:104B5000A109B04888839983AA83BB839F77DF919B
:104B6000CF91FF90EF90DF90CF90BF90AF909F904C
:104B70008F9008950E947125089586E091E00E942B
:104B800071250895A0E0B0E080930601909307019D
:104B9000A0930801B09309010895FB01DC0102C054
:104BA00005900D9241505040D8F70895DC01CB019B
:104BB000FC01F999FECF06C0F2BDE1BDF89A31962D
:104BC00000B40D9241505040B8F70895DC01CB017C
:104BD00003C02D910E94F12541505040D0F7089517
:104BE000262FF999FECF1FBA92BD81BD20BD0FB609
:104BF000F894FA9AF99A0FBE01960895052E97FB3C
:104C00001EF400940E94152657FD07D00E943026FE
:104C100007FC03D04EF40C94152650954095309522
:104C200021953F4F4F4F5F4F089590958095709518
:104C300061957F4F8F4F9F4F08950E945226A59FE9
:104C4000900DB49F900DA49F800D911D1124089587
:104C5000B7FF0C941D260E941D26821B930B0895FE
:104C6000A1E21A2EAA1BBB1BFD010DC0AA1FBB1F70
:104C7000EE1FFF1FA217B307E407F50720F0A21BE2
:104C8000B30BE40BF50B661F771F881F991F1A944F
:104C900069F760957095809590959B01AC01BD0179
:104CA000CF010895A29FB001B39FC001A39F700DD3
:104CB000811D1124911DB29F700D811D1124911D24
:104CC00008955058BB27AA270E9479260C94912753
:104CD0000E94832738F00E948A2720F039F49F3FF2
:104CE00019F426F40C9480270EF4E095E7FB0C945D
:104CF0005127E92F0E94A22758F3BA1762077307BA
:104D00008407950720F079F4A6F50C94DC270EF4BF
:104D1000E0950B2EBA2FA02D0B01B90190010C01CB
:104D2000CA01A0011124FF27591B99F0593F50F4E3
:104D3000503E68F11A16F040A22F232F342F44273B
:104D4000585FF3CF469537952795A795F040539533
:104D5000C9F77EF41F16BA0B620B730B840BBAF003
:104D60009150A1F0FF0FBB1F661F771F881FC2F76E
:104D70000EC0BA0F621F731F841F48F48795779582
:104D80006795B795F7959E3F08F0B0CF9395880F3C
:104D900008F09927EE0F9795879508950E94AA2706
:104DA00088F09F5798F0B92F9927B751B0F0E1F0EC
:104DB000660F771F881F991F1AF0BA95C9F714C09C
:104DC000B13091F00E94DC27B1E008950C94DC270B
:104DD000672F782F8827B85F39F0B93FCCF38695D5
:104DE00077956795B395D9F73EF490958095709532
:104DF00061957F4F8F4F9F4F0895E89409C097FBAF
:104E00003EF490958095709561957F4F8F4F9F4FA1
:104E10009923A9F0F92F96E9BB279395F6958795E5
:104E200077956795B795F111F8CFFAF4BB0F11F4A8
:104E300060FF1BC06F5F7F4F8F4F9F4F16C088234F
:104E400011F096E911C0772321F09EE8872F762F85
:104E500005C0662371F096E8862F70E060E02AF0C6
:104E60009A95660F771F881FDAF7880F96958795B2
:104E700097F908950E94C42790F09F3748F4911144
:104E800016F00C94DD2760E070E080E89FEB089559
:104E900026F41B16611D711D811D0C9457270C945F
:104EA000722797F99F6780E870E060E00895882393
:104EB00071F4772321F09850872B762F07C0662353
:104EC00011F499270DC09051862B70E060E02AF014
:104ED0009A95660F771F881FDAF7880F9695879542
:104EE00097F908959F3F31F0915020F48795779579
:104EF0006795B795880F911D9695879597F90895B1
:104F00009FEF80EC089500240A94161617061806E1
:104F10000906089500240A941216130614060506BD
:104F20000895092E0394000C11F4882352F0BB0F4E
:104F300040F4BF2B11F460FF04C06F5F7F4F8F4FB1
:104F40009F4F089557FD9058440F551F59F05F3FEC
:104F500071F04795880F97FB991F61F09F3F79F09B
:104F600087950895121613061406551FF2CF46951D
:104F7000F1DF08C0161617061806991FF1CF86959F
:104F800071056105089408950E94AA27A0F0BEE764
:104F9000B91788F4BB279F3860F41616B11D672F28
:104FA000782F8827985FF7CF869577956795B11DFD
:104FB00093959639C8F30895E894BB276627772719
:104FC000CB0197F908950E94F6270C9491270E942F
:104FD000832738F00E948A2720F0952311F00C9443
:104FE00051270C94802711240C94DD270E94A227BE
:104FF00070F3959FC1F3950F50E0551F629FF0012C
:10500000729FBB27F00DB11D639FAA27F00DB11D44
:10501000AA1F649F6627B00DA11D661F829F2227CD
:10502000B00DA11D621F739FB00DA11D621F839F54
:10503000A00D611D221F749F3327A00D611D231F2A
:10504000849F600D211D822F762F6A2F11249F5778
:1050500050409AF0F1F088234AF0EE0FFF1FBB1F7B
:10506000661F771F881F91505040A9F79E3F51053A
:1050700080F00C9451270C94DD275F3FE4F3983EB9
:10508000D4F3869577956795B795F795E7959F5FE4
:10509000C1F7FE2B880F911D9695879597F9089576
:1050A000FA01EE0FFF1F309621053105A1F16115C0
:1050B000710561F48038BFE39B0749F1689490382B
:1050C000810561F08038BFEF9B0741F099234AF5D5
:1050D000FF3FE1053105210519F1E8940894E795B2
:1050E000D901AA2329F4AB2FBE2FF85FD0F310C04B
:1050F000FF5F70F4A695E0F7F73950F019F0FF3A2A
:1051000038F49F779F930DD00F9007FC9058089527
:1051100046F00C94802760E070E080E89FE30895FB
:105120004FE79F775F934F933F932F930E944B29B5
:105130002F913F914F915F910E94E3270C94A828F3
:1051400029F416F00C9451270C94DC270C9480273A
:105150000E94AA27A8F39638A0F707F80F92E894C0
:105160002BE33AEA48EB5FE70E94F9270F920F9290
:105170000F924DB75EB70F920E949329E8E6F0E0D8
:105180000E94DA284F915F91EF91FF91E595EE1F14
:10519000FF1F49F0FE57E0684427EE0F441FFA95C1
:1051A000E1F74195550B0E940D290F9007FE0C94D5
:1051B00001290895DF93CF931F930F93FF92EF92EE
:1051C000DF927B018C01689406C0DA2EEF010E9409
:1051D000F627FE01E894A5912591359145915591C9
:1051E000A6F3EF010E947926FE019701A801DA9447
:1051F00069F7DF90EF90FF900F911F91CF91DF91B2
:1052000008959B01AC0160E070E080E89FE30C949E
:10521000C7290C9451270C9472270E94AA27D8F30F
:105220009923C9F3940F511DA3F39150504094F06A
:1052300059F0882332F0660F771F881F9150504035
:10524000C1F79E3F51052CF7880F911D96958795C4
:1052500097F908955F3FACF0983E9CF0BB27869588
:1052600077956795B79508F4B1609395C1F7BB0F33
:1052700058F711F460FFE8CF6F5F7F4F8F4F9F4F5C
:10528000E3CF0C94DD2716F00C9472270C94802742
:1052900068940C9451270E94AA27A8F39923C1F37C
:1052A000AEF3DF93CF931F930F93FF92C92FDD27A8
:1052B00088232AF02197660F771F881FDAF720E0EE
:1052C00030E040E85FEB9FE3883920F0803E38F023
:1052D00021968F770E946226E0E9F0E004C00E94E8
:1052E0006226EDEBF0E00E94DA288B01BE01EC01B2
:1052F000FB2E6F5771097595771F880B990B0E94CC
:10530000FF2628E132E741E35FE30E94F627AF2D55
:105310009801AE01FF900F911F91CF91DF910E94F4
:1053200079260C949127FA01DC01AA0FBB1F9B017F
:10533000AC01BF5728F4222733274427507820C0D8
:10534000B75190F4AB2F0024469537952795011C53
:10535000A395D2F3002071F0220F331F441FB395A1
:10536000DAF30ED00C94612661307105A0E88A074B
:10537000B94630F49B01AC016627772788279078DF
:10538000309621F0208331834283538308950E9415
:10539000DB290C9491270E948A2758F00E948327CA
:1053A00040F029F45F3F29F00C94512751110C94DF
:1053B000DD270C9480270E94A22768F39923B1F37C
:1053C000552391F3951B550BBB27AA27621773072B
:1053D000840738F09F5F5F4F220F331F441FAA1FBF
:1053E000A9F335D00E2E3AF0E0E832D0915050407B
:1053F000E695001CCAF72BD0FE2F29D0660F771F29
:10540000881FBB1F261737074807AB07B0E809F00E
:10541000BB0B802DBF01FF2793585F4F3AF09E3F93
:10542000510578F00C9451270C94DD275F3FE4F38D
:10543000983ED4F3869577956795B795F7959F5FD6
:10544000C9F7880F911D9695879597F90895E1E022
:10545000660F771F881FBB1F621773078407BA0781
:1054600020F0621B730B840BBA0BEE1F88F7E095DC
:105470000895991B79E004C0991F961708F0961BB0
:10548000881F7A95C9F780950895AA1BBB1B51E127
:1054900007C0AA1FBB1FA617B70710F0A61BB70BA4
:1054A000881F991F5A95A9F780959095BC01CD0149
:1054B000089597FB072E16F4009407D077FD09D0C6
:1054C0000E94452A07FC05D03EF4909581959F4F98
:1054D0000895709561957F4F0895EE0FFF1F059019
:1054E000F491E02D09940F931F93CF93DF938230B3
:1054F000910510F482E090E0E091A404F091A504FD
:1055000020E030E0A0E0B0E0309719F14081518117
:105510000281138148175907C8F08417950769F469
:10552000109731F012960C93129713961C9327C084
:105530000093A4041093A50422C02115310519F08D
:105540004217530718F49A01BD01EF01DF01F8017A
:10555000DBCF21153105F9F0281B390B243031053B
:1055600080F48A819B816115710521F0FB01938391
:10557000828304C09093A5048093A404FE01329614
:1055800044C0FE01E20FF31F819391932250310931
:10559000398328833AC02091A2043091A304232B9D
:1055A00041F420910C0130910D013093A30420931C
:1055B000A20420910A0130910B012115310541F41B
:1055C0002DB73EB740910E0150910F01241B350BB2
:1055D000E091A204F091A304E217F307A0F42E1BBC
:1055E0003F0B2817390778F0AC014E5F5F4F241747
:1055F000350748F04E0F5F1F5093A3044093A20459
:105600008193919302C0E0E0F0E0CF01DF91CF9170
:105610001F910F910895CF93DF93009709F481C0F4
:10562000FC01329713821282A091A404B091A504C8
:10563000109781F420813181820F931F2091A20461
:105640003091A3042817390751F5F093A304E09390
:10565000A20467C0ED0120E030E0CE17DF0740F480
:105660004A815B819E0141155105F1F0EA01F5CFB8
:10567000D383C28340815181840F951FC817D907F6
:1056800059F488819981840F951F029691838083B4
:105690008A819B81938382832115310529F4F093BC
:1056A000A504E093A4043DC0E901FB83EA8349918A
:1056B0005991C40FD51FEC17FD0761F480819181CA
:1056C000840F951F0296E9019983888382819381D3
:1056D0009B838A83E0E0F0E012968D919C91139772
:1056E000009719F0FD01DC01F7CF8D919C91119786
:1056F0009D012E5F3F4F820F931F2091A204309196
:10570000A3042817390769F4309729F41092A504E7
:105710001092A40402C013821282B093A304A09337
:10572000A204DF91CF91089581E090E0F8940C9469
:10573000AF2BFB01DC0104C08D910190801921F495
:1057400041505040C8F7881B990B0895FB01DC01BC
:1057500002C001900D9241505040D8F7089511E0D9
:10576000C4E0D1E004C0FE010E946D2A2196C5303C
:08577000D107C9F7F894FFCF3F
:10577800B30FB30FDC01010000000000A604800095
:10578800000000004710B40FDE0F94100F10ED0F4B
:105798000110000000004D1120117D11F4101811A6
:1057A8000411F51000000000F70E00000000E809E1
:1057B800E6016B019809000000006A0528027301E0
:1057C80000000000E50169017C11490100000000AA
:1057D800E7016D017C112A0A00000000E8010A02B5
:1057E8007C112A0A0000000017021E028F022A0AF2
:1057F80000000000950914026F01000000009509DF
:10580800C0027701000000004B01AD027501830161
:10581800000000004B0115026701B50900000000F7
:1058280084111602710100000000801100000000C0
:08583800E809B00FB10F520F97
:00000001FF
