:100000000C9407010C9457120C9430120C94B509FF
:100010000C9452090C94E1080C9447140C94AA1403
:100020000C942F010C94C2150C942F010C942F01E9
:100030000C942F010C94EC150C942F010C942F01AF
:100040000C942A1D0C942F010C94A4120C947E1273
:100050000C942F010C942F010C942F010C942F0160
:100060000C94D6120C942F0107634236B79BD8A785
:100070001A39685618AEBAAB558C1D3CB7CC5763CD
:10008000BD6DEDFD753EF6177231BF000000803F7B
:1000900008000000BE922449123EABAAAA2ABECD97
:1000A000CCCC4C3E00000080BEABAAAAAA3E000009
:1000B0000000BF000000803F000000000008417801
:1000C000D3BB4387D1133D190E3CC3BD4282AD2B38
:1000D0003E68EC8276BED98FE1A93E4C80EFFFBE30
:1000E00001C4FF7F3F0000000000002E0206030D48
:1000F00004E905CA070C0B060D210E650F6A10C82E
:100100001193120315341703181819161B431E2FC9
:100110001F65207823E9242A251F26113E030A0B98
:100120000C051214202122230001020304050607F6
:10013000000102030405000102030405005EBCE2A5
:10014000613FDD83C29C7E20A3FD1F41009D23BE35
:1001500046DB65F88C11AF32CA57E974A5A5EE5598
:100160004E4953454E53485A4700F103137001015D
:1001700000000000240027002A00000000002500E5
:1001800028002B00000000002300260029000404A2
:10019000040404040404020202020202030303032F
:1001A000030301020408102040800102040810200B
:1001B00001020408102000000008000201000003F2
:1001C0000407000000000000000000000000000024
:1001D0000000021405050000000002010A010000F1
:1001E000000000000000000000000000000000000F
:1001F0000000060305010101010A060101010501D4
:10020000050A02060202000000001D241524112424
:100210001FBECFEFD8E0DEBFCDBF11E0A0E0B1E060
:10022000E6EAF7E502C005900D92A83CB107D9F7C0
:1002300024E0A8ECB1E001C01D92A33BB207E1F7B6
:1002400011E0C6E0D1E004C02197FE010E94842A9B
:10025000C530D107C9F70E94741D0C94C62B0C94AD
:1002600000008A3030F4E82FF0E0E25EFE4F849127
:1002700008958FEF0895E091C901F091CA01858535
:10028000811102C081E08487089580E008950F9372
:100290001F93CF93DF93EC018B01E881F9810680F6
:1002A000F781E02D09959C878B878D859E85AF858D
:1002B000B8898D839E83AF83B887BE01C801DF9163
:1002C000CF911F910F910C94E2140C94222B0C945B
:1002D000222B0C94222B0C94222B0C94222B0C946A
:1002E000222B0C94222B0C94222B0C94222B83E196
:1002F00093E00E94941763E173E082E093E00C9432
:10030000E21480917C00807380937C0080917C005B
:10031000806480937C0080917C008E6080937C0060
:1003200082E390E00E949716009759F09C0140E00C
:1003300050E060E070E381E190E00E944726C9014F
:10034000089580E090E00895FC018489882311F0ED
:1003500061E001C060E083890C94601CEF92FF9221
:100360001F93CF93DF93EC017B01898911E0180F74
:10037000198BFE01E80FF11D238530E0A4E6B0E003
:100380000E9469262AE030E040E050E00E944726C3
:100390002D833E834F83588710FF0AC08C898823A2
:1003A00011F060E001C061E08B890E94601C03C015
:1003B000CE010E94A401BE01C701DF91CF911F9120
:1003C000FF90EF900C94E2140895089508950F9310
:1003D0001F93CF93DF932CE631E0FC013183208320
:1003E0008C010A5B1F4F81F0EC01C355DF4FC01732
:1003F000D10751F0C756D109E881F9810280F38114
:10040000E02DCE010995F3CFDF91CF911F910F9190
:100410000895CF93DF93EC010E94E701CE01DF91B5
:10042000CF910C94222B08950895089528E731E088
:10043000FC01318320830C94E701CF93DF93EC011F
:100440000E941602CE01DF91CF910C94222B0895C9
:10045000EEE1F1E090E02491821731F09F5F319658
:100460009A30C9F78FEF0895892F0895CF93DF93BE
:10047000EC0185E00E9428028F3F69F028813981D4
:10048000A901480F511DCA010E94F5168295869553
:100490008695837001C081E0DF91CF9108950F931D
:1004A0001F93CF938C01862FC42F0E9428028F3F69
:1004B00061F0F80120813181A901480F511DCA0165
:1004C000CF911F910F910C94F5168C2FCF911F9106
:1004D0000F910895EF92FF920F931F93CF93DF93A5
:1004E000EC018B0140E06CE0C8010E944F02F82E45
:1004F00040E06BE0C8010E944F02E82E40E06AE055
:10050000C8010E944F028883E982FA82CE01DF91FE
:10051000CF911F910F91FF90EF9008950F931F932C
:10052000CF93DF938C01EC01EA96CE010E94360254
:1005300040E062E1CE010E944F02D8011296ED9197
:10054000FC91139780A346E064E1CE010E944F0224
:1005500040E060E2CE010E944F0240E061E2CE0145
:100560000E944F0240E062E2CE010E944F0240E052
:1005700063E2CE01DF91CF911F910F910C944F0256
:100580000895862728E0BC0176956795AC014170F7
:10059000552780FF02C041E050EACA01862797270D
:1005A000215089F708950895FC011082118212826A
:1005B0001382168215821482118610861782128683
:1005C00013860895FC018081811109C08181811108
:1005D00006C081E09281911103C080E0089581E01E
:1005E0000895DC01FB019C91808198130BC011964A
:1005F0009C9111978181981305C081E012962C91EE
:100600009281291380E00895FC013381FB0123814D
:10061000321302C00C94F10280E00895CF93DF936F
:1006200000D000D0CDB7DEB7FC01808994859983D6
:1006300095859A8396859B838C83882359F0BF0187
:10064000645F7F4FCE0101960E940403811102C0B6
:1006500082E001C081E00F900F900F900F90DF912A
:10066000CF910895FC019FB7F894718360839FBF79
:1006700008952FB7F894FC01808191812FBF0895D0
:100680008F929F92AF92BF92CF92DF92EF92FF92A2
:10069000CF93DF93EC016A017B0182E093E00E943B
:1006A00039030097E1F00297812C912C54010097B7
:1006B000B1F0FC014581568167817085840E951EDD
:1006C000A61EB71EC817D90769F002960E94390303
:1006D000009719F480E090E0EACF0297E8CF812CF0
:1006E000912C54018C149D04AE04BF04C0F481E02D
:1006F0008987CE010E949417CD82DE82EF82F88630
:10070000BE0182E093E0DF91CF91FF90EF90DF9008
:10071000CF90BF90AF909F908F900C94E214DF9198
:10072000CF91FF90EF90DF90CF90BF90AF909F90D0
:100730008F9008952F923F924F925F926F927F9287
:100740008F929F92AF92BF92CF92DF92EF92FF92E1
:100750000F931F93CF93DF93CDB7DEB7AD970FB64F
:10076000F894DEBF0FBECDBF6C018B01FA01808112
:10077000DB0117968C931797818118968C931897A5
:10078000828119968C936AEF72E0CA010E94F1028D
:10079000882329F0F80182818F7D84608283B801EB
:1007A0006C5F7F4FD601D7968D919C91D8970E9410
:1007B0007816F80182818068828346E064E1D60180
:1007C00014968D919C9115970E944F02A82E81112D
:1007D00002C0AA24A394F601848195810E94360266
:1007E000782E882351F0D60112968D919C91139703
:1007F00062E070E002960E94C61AB12CF8013196B0
:10080000FDA7ECA72801F7E04F0E511CB1104CC119
:10081000AA2009F44EC1D80112968C9112978071CA
:100820008BA7F601E280F3804701F3E48F0E911C61
:1008300014012FEF221A320A4C9150E06CA57DA5CD
:10084000C1010E94BD2BD8012C91F4012083F1013C
:10085000808196E7892780833196908161E030E03E
:1008600021503109462F50E0F101E40FF51F4217E6
:10087000530734F484524081842780836F5FF2CF22
:10088000808189278083D4016C90F70187AD88230C
:1008900039F08FEC97E00197F1F700C00000F5CF39
:1008A0008AE090E0A0E0B0E0F70183AF94AFA5AF9D
:1008B000B6AF21E027AFB7016A5C7F4F82E093E0DB
:1008C0000E94E214470182E4880E911CD4018C91AD
:1008D000882369F00E9422160E941C160E94181696
:1008E0000E94601684E30E943C16F4011082F1E439
:1008F000EF0EF11CE1E0D701EC9386E30E943C1679
:100900008BE30E943C1628EC922E85E30E943C1655
:1009100087EC90E00197F1F700C000009A949110E5
:1009200013C086E30E943C168BE30E943C168DE3C5
:100930000E943C1684E30E943C1660EC85E30E9412
:1009400026168D30B9F74FC060EC85E30E9426165D
:100950008331D9F6AFE1BEE41197F1F700C0000092
:10096000BBA5BB2349F0EFE7FBE828E0E150F040EE
:100970002040E1F700C000000E9422160E941C16D1
:100980008FE30E941216862D0E9412160E941816DE
:100990000E9422160E941C168FE70E9412162BA698
:1009A0004101882D9BA5891B861530F4D4018D91BA
:1009B0004D010E941216F5CF0E94181698EC992E40
:1009C00060EC85E30E9426168D3019F499249394E7
:1009D0000AC0E7ECF0E03197F1F700C000009A940C
:1009E0009110EECFF3CFD7011C92B92DB170FB2E31
:1009F000AA94911002C0BF2C09CFF801828185FF13
:100A0000FACFC2010E94E2028823A9F3CE01019627
:100A10000E94D4028CE3F82ED60112968D919C91FF
:100A20001397FC01E05CFF4F208121110AC0EFE128
:100A3000FEE43197F1F700C00000FA94F110ECCF1A
:100A4000E5CEBE016F5F7F4FC4960E941E1A8823B9
:100A500071F3D80111969C918A819813E8CFBE0159
:100A60006B5F7F4FC2010E94F102882301F38C81EA
:100A7000823041F48B85B82EB094BB1CBB24BB1CC8
:100A800087FDA12CF801828181FD03C08B8180FF4D
:100A9000BDCEF6018281938142E350E060E070E0D8
:100AA0008A960E944003B2CE772079F063E070E02E
:100AB00004C0772051F064E070E0D60112968D9169
:100AC0009C91139702960E94C61A8B2DAD960FB675
:100AD000F894DEBF0FBECDBFDF91CF911F910F9174
:100AE000FF90EF90DF90CF90BF90AF909F908F904E
:100AF0007F906F905F904F903F902F9008952F922E
:100B00003F924F925F926F927F928F929F92AF929D
:100B1000BF92CF92DF92EF92FF920F931F93CF93EA
:100B2000DF93CDB7DEB761970FB6F894DEBF0FBE87
:100B3000CDBF8C012B0188E5D801DD968C93DD9724
:100B400080E89AE2DC969C938E93DB974801B8E4A8
:100B50008B0E911CF40180818F7009F09CC03801CC
:100B6000F9E46F0E711C82E29CEFD30150969C93C6
:100B70008E931F978C91882309F483C07301BFEF74
:100B8000EB1AFB0AC7010E9493186301E1E1CE0E44
:100B9000D11CB601C7010E94EE1864E4C7010E948F
:100BA000641868EE73E080E090E00E94CB1CC701FF
:100BB0000E949318B601C7010E94EE186EEBC701A0
:100BC0000E946418CE0101966C01DE011A96BF875F
:100BD000AE87888BD98A68E0A62EB12C312C2224CE
:100BE0002394C7010E94401881113228220CB1E0E1
:100BF000AB1AB108B1F7F60131926F018E859F856E
:100C0000E817F90741F768E0888999890E94041478
:100C10009985891336C089819A81D30151962C9187
:100C2000203189F453E0880F991F5A95E1F7288500
:100C30002031A9F44F812CE030E0241B3109807F62
:100C4000820F931F0CC02D81207611F4887F07C07E
:100C5000203211F48C7F03C0203409F48E7F4AE0E7
:100C6000489F9001499F300D112437FF02C0215F3A
:100C70003F4F44E0359527954A95E1F7F301308BD6
:100C80002787F801E85AFF4F80819181D801DA96D1
:100C90009C938E93D997F40180818F5F8083680144
:100CA000F2E6CF0ED11CD60111961D921D921D9217
:100CB0001C9214978C91882309F484C081E080935E
:100CC00082049AE4A92EA092A404109283041092A4
:100CD000A50483E090E00E940B1981E00E941019A6
:100CE00060E081E00E94F51BB82E1092D001809345
:100CF000CF01B1E08B1366C085EE92E00E948911AE
:100D00007C01B0928204A092A404109283041092F9
:100D1000A50484E090E00E940B1981E00E94101964
:100D200061E081E00E94F51B1092D0018093CF0119
:100D3000813009F047C085EE92E00E948911782E3B
:100D40006E2D62956F7070E080E090E00E94162733
:100D50009B01AC0160E070E080E090E40E946728B5
:100D60004B015C01B70184E0660F771F8A95E1F7BC
:100D7000607F7727872D8F70682B072E000C880BDC
:100D8000990B0E941627A50194010E94FA272CEEC8
:100D900031E548E35DE30E94FA2720E030E048ECCB
:100DA00052E40E94FA2720E030E040E05FE30E9436
:100DB00079260E9451270E94E526F60161837283FD
:100DC00083839483D60111966D917D918D919C9131
:100DD00014976801BEE3CB0ED11CF60160837183CA
:100DE00082839383D8011996ED90FC901A97D701CE
:100DF0001296ED91FC91139722A133A15801B5E40D
:100E0000AB0EB11CF5013183208324E630E040E0D5
:100E100050E00E9447268091C801811111C02B34F7
:100E2000310541055105E8F081E08093C801F801E2
:100E3000EE5BFF4F8083109201011092000112C0FF
:100E40002B3431054105510560F41092C801F801B9
:100E5000EE5BFF4F1082109201011092000181E0C1
:100E600001C080E020910001309101012E3E31054A
:100E700028F0109201011092000181E02091000100
:100E8000309101012F5F3F4F30930101209300010A
:100E9000882309F448C1D70116962C9116972F5F25
:100EA00016962C93F801ED5BFF4F4081488B4181F2
:100EB000498BD8011996ED90FC901A97F701A28101
:100EC000B381F50120803180F801EE5BFF4F608037
:100ED000F6017080818092804381F801D5ACC3AC6B
:100EE000B4ACA1AC32AD3F779096EC919097F0E026
:100EF00092968D919C91939764E670E00E945C2A93
:100F00006E177F0708F43068822F64E10E94502A30
:100F1000923011F084E001C082E297E1D8011F967F
:100F20009C931F9790E752969C93529751968C935F
:100F3000519759963C93599750962C9350975A969F
:100F4000AC925A975B96BC925B975C96CC925C97FE
:100F50005D96DC925D975E964C935E975F969C9251
:100F60005F9790968C92909791967C92919792969B
:100F70006C92929793963C92939794962C92949716
:100F8000E9899596EC939597F8899696FC93580184
:100F90002FE0A20EB11C312CC12CD12C480149E00C
:100FA000840E911C380183E1680E711C4C2DB40134
:100FB000CE010A960E948C19CE010A960E94E20286
:100FC000882309F496C0212C422DB401CE0101964C
:100FD0000E948C19BE016F5F7F4FCE010A960E945E
:100FE000F102811106C0239496E02912EDCF4FEF54
:100FF00001C0422D50E04C155D050CF47AC01B82F7
:101000001A821982BE016F5F7F4FD701D7968D91EB
:101010009C91D8970E947816BE016F5F7F4FCE01DA
:101020000A960E94F102882309F445C0B301F70132
:1010300087A990AD0E947816D80153968C9153974A
:1010400056968C93569754968C91549757968C93AA
:10105000579755968C91559758968C936AEF72E0F6
:10106000C3010E94F102882329F0F80181898F7D54
:101070008460818BD80151968C91519785FF11C066
:101080008F7D51968C93D701ED91FC910680F7816D
:10109000E02DB501C7010995F80181898062818B36
:1010A00028C0D701ED91FC910680F781E02DB501B4
:1010B000C70109951EC0AE01465F5F4FB401CE0166
:1010C00001960E94A41989819A810E94F516F8015F
:1010D000918980FF03C09061918B02C09F7E918BAC
:1010E000AE01465F5F4FB501C7010E949A033324EA
:1010F0003394BFEFCB1ADB0AE6E0CE16D10409F039
:1011000055CF311010C0D70114966D917C91159771
:10111000CE0101960E946A02AE014F5F5F4FB5019A
:10112000C7010E949A0388E195E1A0E0B0E0F801D0
:1011300085839683A783B087B801C2010E94E21419
:10114000F801E95BFF4F81E0808361960FB6F89468
:10115000DEBF0FBECDBFDF91CF911F910F91FF90EA
:10116000EF90DF90CF90BF90AF909F908F907F9047
:101170006F905F904F903F902F900895EF92FF9265
:101180000F931F93CF93DF93EC01EFB6F8940E9477
:1011900039038C01892B61F0FFB6F894CE010E94CF
:1011A00039030E943903BC01CE010E943203FFBE05
:1011B000EFBEC801DF91CF911F910F91FF90EF908B
:1011C00008951F920F920FB60F9211242F933F9301
:1011D0004F935F936F937F938F939F93AF93BF933F
:1011E000CF93EF93FF9329B1C091D1018091FF017B
:1011F0009091FC01322F309593238223892B90917B
:101200006D00C227C923C8232093D101CC23C1F18B
:10121000C0FF05C0E091D201F091D3010995C1FF53
:1012200005C0E091D401F091D5010995C2FF05C038
:10123000E091D601F091D7010995C3FF05C0E09177
:10124000D801F091D9010995C4FF05C0E091DA01F8
:10125000F091DB010995C5FF05C0E091DC01F0913B
:10126000DD010995C6FF05C0E091DE01F091DF01C7
:101270000995C7FF05C0E091E001F091E1010995F2
:10128000FF91EF91CF91BF91AF919F918F917F91FE
:101290006F915F914F913F912F910F900FBE0F90E3
:1012A0001F9018951F920F920FB60F9211242F9333
:1012B0003F934F935F936F937F938F939F93AF93DE
:1012C000BF93CF93EF93FF9326B1C091E20180913A
:1012D00000029091FD01322F309593238223892BB8
:1012E00090916C00C227C923C8232093E201CC232C
:1012F00051F1C0FF05C0E091E301F091E4010995CF
:10130000C1FF05C0E091E501F091E6010995C2FF3A
:1013100005C0E091E701F091E8010995C3FF05C020
:10132000E091E901F091EA010995C4FF05C0E0915F
:10133000EB01F091EC010995C5FF05C0E091ED01CD
:10134000F091EE010995FF91EF91CF91BF91AF918F
:101350009F918F917F916F915F914F913F912F91CD
:101360000F900FBE0F901F9018951F920F920FB6FF
:101370000F9211242F933F934F935F936F937F931B
:101380008F939F93AF93BF93CF93EF93FF9323B12B
:10139000C091EF01809101029091FE01322F3095B2
:1013A00093238223892B90916B00C227C923C823E2
:1013B0002093EF01CC2351F1C0FF05C0E091F00173
:1013C000F091F1010995C1FF05C0E091F201F091A2
:1013D000F3010995C2FF05C0E091F401F091F50118
:1013E0000995C3FF05C0E091F601F091F701099559
:1013F000C4FF05C0E091F801F091F9010995C5FF1E
:1014000005C0E091FA01F091FB010995FF91EF9180
:10141000CF91BF91AF919F918F917F916F915F918C
:101420004F913F912F910F900FBE0F901F901895E5
:10143000FC0111860895FC0167709185987F692BE6
:1014400061870895813011F08FEF089580E008954D
:10145000882311F08FEF089581E008958FEF0895AC
:101460008FEF0895883011F08FEF089580E0089590
:10147000882311F08FEF089588E00895CF93DF93CC
:10148000EC0180917C00807380937C0080917C00D3
:10149000806C80937C0080917C00836080937C00D2
:1014A00061E083E00E94601C89899A890E949716F6
:1014B000EC0160E083E00E94601C209769F09E01CF
:1014C000A0EEBBEA0E94692620E038E240E050E04E
:1014D0000E944726C90102C080E090E0DF91CF91D1
:1014E00008951F93CF93DF93EC01FB012985922F81
:1014F0009770943061F028F4923039F0933079F09D
:1015000030C0953061F0963061F511E01BC023FDCD
:101510000CC04B855C854550510913E01EC023FD6E
:1015200020C04B855C8515E018C045E050E012E016
:1015300060E070E04D835E836F837887BE01CF01EA
:101540000E94E214E881F9810680F781E02D612F85
:10155000CE01DF91CF911F9109944115510541F7BB
:10156000F1CFDF91CF911F9108952F923F924F922B
:101570005F926F927F928F929F92AF92BF92CF9223
:10158000DF92EF92FF920F931F93CF93DF93CDB72C
:10159000DEB7E4970FB6F894DEBF0FBECDBF8C0167
:1015A0007B0119AA18AA1FA6BE01615D7F4FDC014D
:1015B000D7968D919C91D8970E9478161701B7E025
:1015C0002B0E311CBE01615D7F4FC1010E94F102F3
:1015D000882301F1F801C280D3805601F6E3AF0EF3
:1015E000B11CC5010E9494178AE090E0A0E0B0E031
:1015F000F60183AF94AFA5AFB6AF81E087AFB50179
:1016000082E093E00E94E214D70112968C9186FD4D
:101610003AC049C0F7018081898381818A83C28071
:10162000CB82D380DC8284818D8385818E83868189
:101630008F83878188878085898781858A8782854E
:101640008B87B384BC868EE13C96DE011D960190AB
:101650000D928A95E1F76AEF72E0CE0108960E943A
:10166000F102882339F0F1E0DF1204C02AE0B2165B
:1016700009F4B0CFC2FE05C080EC8D0D823008F4B5
:10168000A9CF80E028C4B7016C5F7F4FC8010796DF
:101690000E94F102882339F0D8011A969C91F70133
:1016A0008181981771F3F7018481D80117968C9383
:1016B0001797858118968C931897868119968C9325
:1016C000199781811A968C939381B2848385913086
:1016D000F9F48A3009F0A5C0D801D7966D917C91B4
:1016E000D8976D5F7F4F4AE050E0CE0101960E948F
:1016F000E4254AE050E0BE016F5F7F4FC7010C96C2
:101700000E94B02B892B09F48DC1C12CD12CC3C0F0
:101710009131A1F5F4E0BF1619F02AECB21225C000
:101720008AE0D7018C9382E013968C9313971296DC
:101730001C9212971A961C92A7014C5F5F4FB7013B
:10174000C8010E949A03BAECBB120BC09CE088E16E
:101750000FB6F894A895809360000FBE9093600038
:10176000FFCFC8010E94451779C1882309F476C1CB
:10177000F80191AD981708F471C162C3923119F460
:10178000C12CD12C0CC19054923008F0BECF44240F
:101790004394512CC12CD12C92E0792ED801D996AA
:1017A0008C91D9978415C0F1DC968D909C90DD9733
:1017B000F401838581FD2EC0D7011A968C911A976A
:1017C0008F7314969C9114979BA715969C911597CF
:1017D0009CA716969C919DA78EA75401B9E0AB0ECD
:1017E000B11C612C462DB501CE0101960E948C19C9
:1017F000BE016F5F7F4FCE018B960E940403811163
:1018000005C06394E6E06E12EDCF04C0539464010A
:10181000772473944394C2CFF1E0F51508F49FC088
:10182000C0C08130D9F5BB2009F46FCFF80181AD7C
:101830008B1508F46ACFC4ACD5ACC7010E940E0367
:10184000F7013C964F019601275F3F4F59018130C8
:1018500009F488C0D70150968C9150971C969C91A2
:101860001C9799831D969C911D979A831E969C9117
:101870009B838C83B401C5010E94181BBE016F5F5E
:101880007F4FC5010E94181BC5010E94F21A582EF5
:10189000BFEF8B133AC282E0782E83C0823009F406
:1018A000E0C0833009F4E6C0843009F07AC1D70182
:1018B00050962C91A701445F5F4F6B2DC8010E9489
:1018C0005A1B29833A834B835C836D837E838F838A
:1018D000E981FA81FCABEBABEF2B09F45FC1D701D7
:1018E00011968C91119714969C9114979BA715961D
:1018F0009C9115979CA716969C919DA72801BBE0EB
:101900004B0E511C9AE1F801938790E1968790E283
:10191000958792E0958B84873801F6E16F0E711CF4
:101920006301A12CB12C1AAA8B8190E0A816B906EC
:101930000CF40BC13601D3011C9211961C928AA99A
:10194000880F845FF801838785858F7D8587AE0149
:10195000455D5F4FB201C8010E949A03712CC12CF2
:10196000D12C1FC0B401C5010E94181BC5010E94E3
:10197000F21A782EFFEF8F1709F48DCF682FC6016A
:101980000D960E94691644E050E0BC01C4010E941B
:10199000FD25472DB501CE0101960E94E01977245F
:1019A0007394D70112968C9185FF2EC0BE01615DA4
:1019B0007F4FC1010E94F102882331F191E0791239
:1019C00078C2A7014C5F5F4FC114D10409F464C20F
:1019D000D8011296ED91FC91139785A99EE0F7012D
:1019E000908392E0938312827286D6011C969C911A
:1019F0009387148615868687B701C8010E949A03CB
:101A0000F60183858E7F8387D80112968D919C91F4
:101A1000139742E350E060E070E08A960E94400332
:101A200081E059C2F8018281938161E070E0029601
:101A30000E94C61AD80112968D919C91139740ED81
:101A400057E060E070E08A960E944003F701408111
:101A5000B7016C5F7F4FC8010E940717C12CD12CC2
:101A600019C2BB2009F451CEF80181AD8B1508F4E1
:101A70004CCE88C1BB2091F3F80181AD8B1570F37A
:101A8000F80164AC75ACD70111968C91119714963E
:101A90002C9114972BA715962C9115972CA7169679
:101AA0002C912DA75801BBE0AB0EB11C2AE1238776
:101AB00020E1268720E22587958B84874801E6E18F
:101AC0008E0E911C6401512C412CF9E06F0E711C9B
:101AD000442DB301CE0101960E948C19CE010196CE
:101AE0000E94E2028823D1F084E0FE013196D60103
:101AF00001900D928A95E1F7F4E0CF0ED11C53943A
:101B000024E052120BC0AE01455D5F4FB501C80124
:101B10000E949A036401512C882321F0439436E0FB
:101B20004312D6CF84E0D6011D928A95E9F7852D20
:101B3000880F880F825FF801838785858F7D858771
:101B4000AE01455D5F4FB501ABC0EC81FD818A2DD3
:101B50000995D6018C934601B2E08B0E911C8BA99E
:101B60009CA98A0D9B1D0E94F516F6018183FAA996
:101B7000FF5FFAABF83059F4AE01455D5F4FB2013B
:101B8000C8010E949A03882339F043011AAA2FEF53
:101B9000A21AB20A6401C8CE1AAACDCE32E0732EC0
:101BA000DECE8E3069F5D801DC96CD90DC90DD97E5
:101BB000F70131811296ED91FC91139795A9D60109
:101BC0001C962C91F801838780E1868786E0858BBF
:101BD0003487268B178A108E918F82E08587A70124
:101BE0004C5F5F4FB801655F7F4FC8010E949A0349
:101BF000D6011B968C911B978E7F1B968C932ECFB4
:101C00008530E1F4F801B6AED70150962C91A701CA
:101C1000445F5F4F6B2DC8010E945A1BF80127AF2C
:101C2000E05CFF4F3083319640833196508331968C
:101C300060833196708331968083A2CD8630A1F582
:101C4000F801FF9620813181D801DA968D919C911F
:101C5000DB972817390789F412968D919C91139779
:101C600060E070E002960E94C61AD801ED91FC91E6
:101C70000480F581E02DC80109958FEFF80186AF4A
:101C80008AE0D7018C9382E013968C931397129677
:101C90008C9312971A961C92A7014C5F5F4FB70165
:101CA000C8010E949A03DACE883079F4F80186AD33
:101CB0008B1166CD4801FFE38F0E911CD4018D91ED
:101CC0009C91892B09F08AC05BCD893009F01DCD2C
:101CD000D70111968C9194E1F801938790E1968752
:101CE0001586158A8487168A67A970AD6D5F7F4F48
:101CF0004AE050E0C80146960E94E425A7014C5FE7
:101D00005F4FB801655F7F4FCBCF3601EDE06E0EC0
:101D1000711C682FC3010E94691644E050E0BC01A9
:101D2000C4010E94FD25C5010E94F21A482EFFEF52
:101D30008F1719F1682FC3010E94691644E050E023
:101D4000BC01CE0101960E94FD25D7011F968C9102
:101D500080FF08C0452DB501CE018B960E94E01989
:101D6000442D07C0442DB501CE018B960E94E01989
:101D7000452DB501CE018B9610CEB401C5010E9450
:101D8000181B89CDC4ACD5AC4601B9E08B0E911CB3
:101D9000B701645F7F4FC4010E94181BB82EC701B2
:101DA0000E940E038230B9F4D70150968C9150975F
:101DB0001C969C911C9799831D969C911D979A83C4
:101DC0001E969C919B838C83BE016F5F7F4FC401E5
:101DD0000E94181BB822B110E2CD5DCDD7018C91C5
:101DE0008B3060F125EF522E580E5701BCE0AB0E40
:101DF000B11C65013801E4E46E0E711C8C2D8A194A
:101E0000851508F0BDCCD60111964C90D301ED910B
:101E1000FC91D6018C9109958F3F61F0F4016081AE
:101E20007181680F711D498241E050E0CE01019639
:101E30000E94FD25F2E0CF0ED11CE0CF512CD5CF72
:101E4000F801C4ACD5ACF2E0BF1204C0D6011B96B9
:101E50008C910BC0FB1560F433E0B31609F49FCDF1
:101E600080E8B81217C0F601838581FF14CD12C037
:101E7000B11008C0D6011B968C911B978D7F1B96C5
:101E80008C938DCD21E0B21205C0F601838582606E
:101E9000838785CD712C85CD8AE0D7018C9382E034
:101EA00013968C93139712961C9212971A961C9263
:101EB0000DC0B2E07B12A8CD8AE0F7018083738267
:101EC000128280E88287A7014C5F5F4FB701C8018B
:101ED0000E949A0399CDE4960FB6F894DEBF0FBE28
:101EE000CDBFDF91CF911F910F91FF90EF90DF90C9
:101EF000CF90BF90AF909F908F907F906F905F90AA
:101F00004F903F902F900895EF92FF920F931F9361
:101F1000CF93DC0119960D911C911A97F8018285D7
:101F20000E94371CD8011996CC911997C3FBEE2457
:101F3000E0F8F12C9C013327E216F306E1F180FB77
:101F4000C3F91996CC93C770C33029F0C53019F086
:101F5000C130D9F408C0F801818583FF16C0C330B1
:101F600041F1C6E001C0C4E0C8010E94941785E0B9
:101F700090E0A0E0B0E0F80185839683A783B08766
:101F8000B80182E093E00E94E214D80119968C9186
:101F9000199787708C1779F0ED91FC910680F78185
:101FA000E02D6C2FC801CF911F910F91FF90EF9002
:101FB0000994C2E0D9CFCF911F910F91FF90EF907C
:101FC0000895FF920F931F93CF93DF9300D01F923A
:101FD000CDB7DEB7FC018185282F2770962F97702B
:101FE000887F892B8187623031F5008D118DF80152
:101FF000F680F394F68264817581CE0101960E9489
:102000006A024F2DBE016F5F7F4FC8010E94071704
:10201000F8018281938161E070E002960E94C61A05
:10202000F8018281938140ED57E060E070E08A968C
:102030000E94400311C0653079F4808D918D253068
:1020400019F40E94451708C0FC018281938167E062
:1020500070E002960E94C61A0F900F900F90DF91C9
:10206000CF911F910F91FF90089508950C94222B0A
:102070000895CF92DF92EF92FF920F931F93CF9329
:10208000DF936C017A018B01C0E0D0E0CE15DF0553
:1020900081F0D8016D918D01D601ED91FC910190F7
:1020A000F081E02DC6010995892B11F02196EECF24
:1020B0007E01C701DF91CF911F910F91FF90EF90AB
:1020C000DF90CF900895FC01538D448D252F30E093
:1020D000842F90E0821B930B541710F0CF96089535
:1020E00001970895FC01918D828D981761F0828D82
:1020F000DF01A80FB11D5D968C91928D9F5F9F733C
:10210000928F90E008958FEF9FEF0895FC01918DDD
:10211000828D981731F0828DE80FF11D858D90E04A
:1021200008958FEF9FEF0895FC01918D228D892FE7
:1021300090E0805C9F4F821B91098F7399270895CF
:1021400088E492E00E94941021E0892B09F420E0B9
:10215000822F0895FC01848DDF01A80FB11DA35AC1
:10216000BF4F2C91848D90E001968F739927848FB7
:10217000A689B7892C93A089B1898C9183708064DA
:102180008C93938D848D981306C00288F389E02D7B
:1021900080818F7D80830895EF92FF920F931F932C
:1021A000CF93DF93EC0181E0888F9B8D8C8D98130A
:1021B00005C0E889F989808185FD26C0F62E0B8D42
:1021C00010E00F5F1F4F0F731127E02E8C8DE81268
:1021D0000CC00FB607FCFACFE889F989808185FF2A
:1021E000F5CFCE010E94AA10F1CF8B8DFE01E80F32
:1021F000F11DE35AFF4FF0829FB7F8940B8FEA89E5
:10220000FB89808180620AC09FB7F894EE89FF89BC
:102210006083E889F98980818370806480839FBFAF
:1022200081E090E0DF91CF911F910F91FF90EF90AF
:102230000895CF93DF93EC01888D8823C9F0EA8954
:10224000FB89808185FD05C0A889B9898C9186FDAF
:102250000FC00FB607FCF5CF808185FFF2CFA889AC
:10226000B9898C9185FFEDCFCE010E94AA10E7CFEE
:10227000DF91CF91089580E090E0892B29F00E94B2
:10228000A01081110C940000089585ED8093BC008E
:102290008091BC0084FDFCCF109281040895409190
:1022A0002502262F30E0240F311D21323105DCF4C8
:1022B000209181042430C9F4FC0180E090E086176D
:1022C00058F4309125022191DC01AB5FBD4FA30F83
:1022D000B11D2C930196F3CF80912502680F609376
:1022E000250280E0089581E0089582E00895089530
:1022F00008950895E091D0018091CF01E81730F45E
:10230000F0E0E55CFB4F808190E008958FEF9FEF58
:1023100008959091D0018091CF01981750F4E92F42
:10232000F0E0E55CFB4F208130E09F5F9093D001AF
:1023300002C02FEF3FEFC90108958091CF0190E0D7
:102340002091D001821B91090895CF92DF92EF92E4
:10235000FF920F931F93CF93DF937C01CB018A01F0
:1023600020918204222389F0EB016B01C40ED51E5B
:10237000CC15DD0569F06991D701ED91FC910190D3
:10238000F081E02DC7010995F3CF642F0E944F1112
:10239000C801DF91CF911F910F91FF90EF90DF90D7
:1023A000CF900895CF93DF931F92CDB7DEB76983A7
:1023B000209182042223D1F02091A504203240F004
:1023C00021E030E0FC013383228380E090E015C0FF
:1023D00080918304E82FF0E0EC57FB4F99819083C4
:1023E0008F5F809383048093A50405C061E0CE01D4
:1023F00001960E944F1181E090E00F90DF91CF9104
:102400000895089580E090E008950E94AB2B0C940D
:1024100028021F93CF93DF93EC011FB7F89499899B
:102420008985981720F0198A9A85911108C0CE01E4
:102430000E94AE011FBFDF91CF911F9108958A893D
:102440008F5F8A8B891798F3CE010E94A40148E020
:1024500050E06AEC71E0CE0109960E94E425EACFD3
:102460001F920F920FB60F9211242F933F934F9309
:102470005F936F937F938F939F93AF93BF93EF93EC
:10248000FF93E0910401F09105010995FF91EF910F
:10249000BF91AF919F918F917F916F915F914F917C
:1024A0003F912F910F900FBE0F901F9018951F9284
:1024B0000F920FB60F9211242F933F934F935F9378
:1024C0006F937F938F939F93AF93BF93EF93FF93FC
:1024D000E0910201F09103010995FF91EF91BF9105
:1024E000AF919F918F917F916F915F914F913F91AC
:1024F0002F910F900FBE0F901F9018951F920F9263
:102500000FB60F9211242F933F934F935F936F93C6
:102510007F938F939F93AF93BF93EF93FF9388E441
:1025200092E00E94AA10FF91EF91BF91AF919F910D
:102530008F917F916F915F914F913F912F910F906C
:102540000FBE0F901F9018951F920F920FB60F920B
:1025500011242F938F939F93EF93FF93E091580251
:10256000F09159028081E0915E02F0915F0282FD5C
:1025700012C09081809161028F5F8F7320916202FF
:10258000821751F0E0916102F0E0E85BFD4F958F1A
:102590008093610201C08081FF91EF919F918F91A3
:1025A0002F910F900FBE0F901F9018951F920F92B2
:1025B0000FB60F9211242F933F934F935F936F9316
:1025C0007F938F939F93AF93BF93EF93FF938091EC
:1025D000B900887F803609F49CC068F5883209F418
:1025E0005BC090F4803109F454C038F4882309F4B6
:1025F000F6C0883009F44DC0F6C0883109F44CC0EB
:10260000803209F45DC0EFC0803409F468C048F43A
:10261000803309F455C0883309F0E5C080937F0406
:10262000D8C0803509F44FC0883509F45DC08834BE
:1026300009F0D9C0D6C0883909F4C7C0A8F48837D2
:1026400009F467C038F4883609F463C0803709F4A8
:1026500060C0C9C0883809F4B8C0803909F45FC0C7
:10266000803809F0C0C05BC0803B09F486C038F4F4
:10267000803A09F466C0883A09F47FC0B4C0803C4F
:1026800009F4A7C0883C09F4A4C0883B09F48AC0B7
:10269000AAC080915C0410C090917E0480917D045A
:1026A000981770F5E0917E0481E08E0F80937E0490
:1026B000F0E0E35AFB4F80818093BB0085EC86C03D
:1026C00080937F048EC0E0917E0481E08E0F809322
:1026D0007E048091BB00F0E0E35AFB4F8083909131
:1026E0007E0480917D046EC0E0917E0481E08E0FB7
:1026F00080937E048091BB00F0E0E35AFB4F80831F
:102700008091800481116DC081E080935B0484EA34
:1027100061C083E08093810410924702CFCF809103
:102720004702803208F051C0E091470281E08E0FED
:10273000809347028091BB00F0E0E95DFD4F80830C
:10274000BDCF85EC8093BC0010928104809147023C
:10275000803230F4E0914702F0E0E95DFD4F1082F5
:102760006091470270E0E091CB01F091CC0187E2EB
:1027700092E009951092470236C084E0809381046C
:102780001092260210922502E091CD01F091CE0127
:10279000099580912502811105C081E08093250271
:1027A00010920502E091260281E08E0F80932602AE
:1027B000F0E0EB5FFD4F80818093BB00909126029B
:1027C00080912502981708F479CF85E88093BC00A2
:1027D0000AC085EC8093BC001092810404C0109262
:1027E0007F040E944511FF91EF91BF91AF919F919E
:1027F0008F917F916F915F914F913F912F910F90AA
:102800000FBE0F901F901895DC0180E0615098F08A
:102810002D91982F9227E92FEF70F0E0E45CFE4FA6
:10282000249192959F70E92FF0E0E45BFE4FE491D4
:10283000822F8E27EBCF08951F93CF93DF93EC0168
:10284000162F60E0812F0E948F1C612F70E0FB012A
:10285000EE55FE4FE491E883FB01E257FE4FE49111
:10286000F0E0EE0FFF1FEC57FE4F859194919A8395
:1028700089831B861D861C86FE013B962396129239
:10288000EC17FD07E1F7DF91CF911F9108951F929B
:102890000F920FB60F9211248F930FB6F894A8954C
:1028A00080916000886180936000109260000FBE8C
:1028B0008F910F900FBE0F901F90189541155105E5
:1028C00029F4EAE7F0E080818F7780836A30710530
:1028D000A9F063FD02C088E001C088E26770682B40
:1028E00088E10FB6F894A895809360000FBE6093BE
:1028F0006000E0E6F0E0808180648083232BA1F417
:1029000083B7817F846083BFF89483B7816083BF7E
:1029100085B7806685BF8F7D85BF7894889583B79E
:102920008E7F83BF78940EC083B7817F846083BF1E
:10293000F89483B7816083BF7894889583B78E7F3E
:1029400083BF7894452B29F4EAE7F0E08081806822
:10295000808308951F920F920FB60F9211242F9328
:102960003F934F935F936F937F938F939F93AF9317
:10297000BF93CF93DF93EF93FF93C1EFD2E060E07B
:1029800089810E94601C1092B1006A817B818C81D8
:102990009D810E94E5266093B30081E08E83FF91C4
:1029A000EF91DF91CF91BF91AF919F918F917F91E7
:1029B0006F915F914F913F912F910F900FBE0F90AC
:1029C0001F9018954F925F926F927F92BF92CF9215
:1029D000DF92EF92FF920F931F93CF93DF93FB0150
:1029E0000581168127813085012B022B032B79F17C
:1029F0008B01BFB6F894F82EE92E0E943903009798
:102A0000C1F1EC0122972097A1F14D805E806F808B
:102A10007884F8014581568167817085CE010296E0
:102A2000441655066606770608F055C04419550940
:102A3000660977094583568367837087F82EE92EE8
:102A40000E9439030097E9F6C0E0D0E0DCCF6E5F6A
:102A50007F4F0296DF91CF911F910F91FF90EF90E2
:102A6000DF90CF90BF907F906F905F904F900C94CD
:102A70006517C0E0D0E060E070E06801F2E0CF0EE2
:102A8000D11CC6010E943203B6018F2D9E2D0E94DB
:102A90003203209789F08D819E81AF81B885F8013E
:102AA0004581568167817085841B950BA60BB70BFA
:102AB0008D839E83AF83B887BFBEDF91CF911F9177
:102AC0000F91FF90EF90DF90CF90BF907F906F902D
:102AD0005F904F900895BC01D0CFDF92EF92FF92AC
:102AE0000F931F93CF93DF938C01DFB6F8947C0193
:102AF00082E0E80EF11CC8010E9439030097C1F181
:102B0000EC012297A9F18D819E81AF81B885019753
:102B1000A109B1098D839E83AF83B8878D819E8182
:102B2000AF81B885892B8A2B8B2B11F5C8010E94A8
:102B3000BE088C81882349F0E881F9810190F081F9
:102B4000E02DB801CE01099506C0BE016E5F7F4F32
:102B5000C7010E946517C8010E943903009729F434
:102B6000C0E0D0E02097D1F603C0EC012297FACF65
:102B7000DFBEC801DF91CF911F910F91FF90EF90C1
:102B8000DF9008951F920F920FB60F9211242F938A
:102B90003F934F935F936F937F938F939F93AF93E5
:102BA000BF93EF93FF93EDEFF2E084818F5F848317
:102BB000CF010E946D15FF91EF91BF91AF919F9151
:102BC0008F917F916F915F914F913F912F910F90D6
:102BD0000FBE0F901F9018951F920F920FB60F9275
:102BE00011242F933F934F935F936F937F938F9312
:102BF0009F93AF93BF93EF93FF9382E093E00E9484
:102C00006D15FF91EF91BF91AF919F918F917F9142
:102C10006F915F914F913F912F910F900FBE0F9049
:102C20001F9018958EBD0DB407FEFDCF8EB508958B
:102C300061E08AE00C94601C8CE00E94371C8111DA
:102C4000FBCF089560E08AE00C94601CCF93DF9383
:102C5000D82FC62F0E9422160E941C168D2F8C2B57
:102C60000E94121680E00E941216C82F0E941816A9
:102C70008C2FDF91CF910895CF93C82F0E942216F9
:102C80000E941C168C2F0E941216C82F0E94181624
:102C90008C2FCF910895CF93CFEF86E30E943C16FF
:102CA000C150807731F08AE18A95F1F700C0C111F7
:102CB000F4CF8AE30E943C1689E3CF910C943C1632
:102CC00086E30E943C168DE30E943C168AE30C9436
:102CD0003C16663050F4FC01808191810196F6E04B
:102CE0006F9F800D911D1124089580E090E008955C
:102CF0000F931F93CF93DF9300D01F92CDB7DEB712
:102D00008B0143E050E0BC01CE0101960E94E42516
:102D10009A818B812981F8012083918382830F908E
:102D20000F900F90DF91CF911F910F910895BC01EB
:102D300080E090E00E94CB1C24E030E080E090E056
:102D400060E170E040917A00406440937A0042E391
:102D500050917A0056FF08C0FB013197F1F74150BE
:102D6000B9F780E090E016C040917800509179006A
:102D70005370840F951F2150310921F79C01237056
:102D8000332796958795969587952230310510F0D3
:102D9000019608950895EFE6F0E0808181608083D8
:102DA0000895EF92FF920F931F93CF93DF931F929B
:102DB000CDB7DEB77B01E80EF91E8C010E151F059D
:102DC00059F0198241E050E0B801CE0101960E940D
:102DD000FD250F5F1F4FF2CF81E00F90DF91CF9164
:102DE0001F910F91FF90EF900895CF93DF931F9263
:102DF000CDB7DEB7198241E050E0BC01CE010196AB
:102E00000E94ED2589810F90DF91CF9108950F9356
:102E10001F93CF93DF93EC018B018AE18B871E8692
:102E20001D864C871E8A6FA978ADFB01719684912F
:102E30003197E491ED8B8AA3625F7F4F42E050E0CF
:102E4000CE0146960E94E4256FA978AD6D5F7F4F55
:102E50004AE050E0CE0148960E94E42589AD8BA35C
:102E60006FA978AD6E5E7F4F42E050E0CE01849650
:102E70000E94E425BE01655F7F4FA801CE01DF916E
:102E8000CF911F910F910C949A03CF93DF93EC0194
:102E900088E10E9428028F3F59F464E070E080E0EE
:102EA00090E00E94D116E0E0F0E0DF91CF9109942C
:102EB0002AAD3BADA901480F511DCA010E94F5166C
:102EC00080FFEBCFDF91CF910895FF920F931F9377
:102ED000CF93DF93EC018B01FFB6F8940E94390386
:102EE000BC01C8010E943203B801CE010E94320326
:102EF000FFBEDF91CF911F910F91FF90089584E065
:102F000093E00E94BE08009769F0029759F0DC0137
:102F1000ED91FC910190F081E02D62E073E0099564
:102F200081E0089580E00895AF92BF92CF92DF9242
:102F3000FF920F931F93CF93DF935C01FFB6F8943A
:102F400082E093E00E9439030097A9F1EC012297F7
:102F500002E013E0209779F1CE0102966C01CA15C8
:102F6000DB05F1F4C8010E94BE08C6010E943903C6
:102F7000009709F44BC0FC01329709F447C0458122
:102F80005681678170858D819E81AF81B885840F60
:102F9000951FA61FB71F85839683A783B08736C06A
:102FA0008C010E943903009719F4C0E0D0E0D2CF21
:102FB000EC012297CFCF92E0A90EB11CDFB6F894B6
:102FC000CFB6F89484E093E00E943903EC0124E04A
:102FD00033E0209751F400E010E0CFBE0115110559
:102FE000A1F0C8010E94BE0810C0AC16BD0611F4C5
:102FF000890102C000E010E0CE010E9439039E0169
:103000000115110551F7EC01E4CFDFBEFFBEDF91E2
:10301000CF911F910F91FF90DF90CF90BF90AF9015
:103020000895FC0190810180F281E02D892F809527
:1030300060FF12C0F8942281822382838181892BD0
:103040008183A0E1B0E01197F1F78281982B928300
:1030500078948AE690E011C0F894228182238283DA
:103060008181892B8183AEE7B0E01197F1F78281EE
:10307000982B9283789486E090E00197F1F7089579
:10308000FC0190810180F281E02DF8948181892BEF
:1030900081832281892F809528232283A2E0B0E0BA
:1030A0001197F1F7218182238183A0E1B0E011978C
:1030B000F1F780817894E6E6F0E03197F1F7982314
:1030C00081E009F480E00895EF92FF920F931F933F
:1030D000CF93DF93EC01E62E08E010E0FF24F39499
:1030E00061E08E2D8F2109F460E0CE010E9411185D
:1030F000FF0C01501109A1F7F894E981FA8191813F
:103100008881809589238183E981FA8192818881F0
:103110008095892382837894DF91CF911F910F91BD
:10312000FF90EF900895DC012C911196ED91FC91A8
:103130001297F8948181922F9095892381837894B6
:103140008DE7815009F130813223D9F3F8948281DF
:10315000892382838181822B81837894ACEBB3E0D5
:103160001197F1F7F89481819823918388E890E092
:103170000197F1F78081282381E009F080E07894BD
:10318000E0E3F3E03197F1F70895833081F028F41C
:10319000813099F08230A1F008958730A9F088300D
:1031A000B9F08430D1F4809180008F7D03C080918C
:1031B00080008F7780938000089584B58F7702C058
:1031C00084B58F7D84BD08958091B0008F7703C052
:1031D0008091B0008F7D8093B0000895EF92FF92B0
:1031E0000F931F93CF93DF938C017B0165E50E94C2
:1031F0006418E70188E0E80EF11C6991C8010E949B
:103200006418CE15DF05C9F7DF91CF911F910F919B
:10321000FF90EF900895682F85EE92E00C94D21104
:10322000282F3091A504313208F04AC080918104E2
:103230008111FCCF9091A40442E04093810420933B
:1032400080042FEF20937F0410927E0430937D043E
:10325000E4E8F4E0ADE5B4E020E0321721F041917C
:103260004D932F5FFACF10925C0420915C04990F6C
:10327000922B90935C0490915B04913061F41092D6
:103280005B0490915C049093BB009091BC0093FD13
:10329000F8CF95EC01C095EE9093BC00909181041D
:1032A0009230E1F390917F049F3F79F080917F0409
:1032B000803241F080917F04803331F084E005C09A
:1032C00081E003C082E001C083E010928304109289
:1032D000A5041092820408951F93CF93DF931F9249
:1032E000CDB7DEB7162F0E9428028F3F79F060918C
:1032F0005A0370915B03680F711D198341E050E020
:10330000CE0101960E94FD2581E001C080E00F9072
:10331000DF91CF911F910895CF93DF93EC01CB0103
:103320001A82198218821B82642F04960E946916E1
:10333000009731F044E050E0BC01CE010E94ED2541
:10334000CE01DF91CF910895AF92BF92CF92DF92DD
:10335000EF92FF921F93CF93DF9300D000D0CDB7B1
:10336000DEB77C016B015A0110E0412FB601CE019E
:1033700001960E948C19B501CE0101960E940403AA
:10338000882339F0612FC60104960E9469160596BC
:1033900005C01F5F163049F780E090E0F701918388
:1033A0008083C7010F900F900F900F90DF91CF9106
:1033B0001F91FF90EF90DF90CF90BF90AF90089556
:1033C000CF93DF93EC01CB01463018F080E090E022
:1033D00005C0642F04960E94691604969983888319
:1033E000CE01DF91CF9108951F93CF93DF93D82F14
:1033F000162FC42F0E9422160E941C168D2F0E9489
:103400001216812F0E9412160E94181660E88D2F46
:103410000E942616181771F0CC2361F04FEF4C0F65
:10342000612F8D2F0E94F4198FEC97E00197F1F72F
:1034300000C00000DF91CF911F910895AF92BF921D
:10344000CF92DF92EF92FF920F931F93CF93DF9370
:10345000EC017B011C868C01005F1F4F60EC8BE34D
:103460000E942616181614F0D12C40C060E88FE395
:103470000E942616D82E49E24817B0F30E94221661
:103480000E941C168FEF0E941216C02E58018A2D22
:103490008C198D1538F480E00E941216F501819385
:1034A0005F01F5CF0E94181660E88FE30E94261690
:1034B000282F30E0082E000C990B8827990F881FC1
:1034C0009927982F8827A901481B590BCA0157FD36
:1034D000019695958795919581959109865B89834C
:1034E00060E88FE30E94261687FFBECF8AE30E9422
:1034F0003C168BE791E00197F1F700C000000E94B5
:10350000601684E30E943C16DD2019F1DF8688896D
:1035100096E79827988B91E04D2D50E0BA016150C5
:103520007109292F30E0F801E20FF31F2617370742
:103530003CF420818452822780839F5F822FF1CFC9
:103540009081898989278083B801C70101960E94EB
:10355000BD2BF701D0821F868E85882351F00E94F3
:1035600022160E941C160E94181684E30E943C1624
:103570001E86F7018081DF91CF911F910F91FF90FF
:10358000EF90DF90CF90BF90AF9008950F931F936F
:10359000CF93DF93EC018B010E949417CE010E9420
:1035A000A401B80183E0660F771F8A95E1F766539F
:1035B0007E4F48E050E0CE0109960E94E4258985BF
:1035C000882359F0198A1A8A62E073E0CE01DF91EC
:1035D000CF911F910F910C94AE01DF91CF911F916C
:1035E0000F910895EF92FF921F93CF93DF9300D036
:1035F00000D0CDB7DEB77C0110E0412FB701CE017E
:1036000001960E948C19CE0101960E94E202882345
:1036100021F01F5F163089F71FEF812F0F900F9059
:103620000F900F90DF91CF911F91FF90EF90089531
:10363000AF92BF92CF92DF92EF92FF921F93CF9300
:10364000DF9300D000D0CDB7DEB77C016B0110E076
:103650005C0184E0A80EB11C412FB701CE01019698
:103660000E948C19B601CE0101960E9404038823A2
:1036700079F01B821A8219821C82612FC5010E9477
:10368000691644E050E0BC01CE0101960E94FD2580
:103690001F5F163009F781E00F900F900F900F9089
:1036A000DF91CF911F91FF90EF90DF90CF90BF906F
:1036B000AF900895AF92BF92CF92DF92FF920F9397
:1036C0001F93CF93DF93CDB7DEB729970FB6F8944A
:1036D000DEBF0FBECDBFFC0121110DC082AD93AD89
:1036E0009A8389838AE08B8381E391E09D838C8335
:1036F00087E092E160C0662319F081AD861740F43F
:103700001A8219821B821D821C821F821E8255C052
:1037100004AD15AD213069F4F801858596859A834D
:1037200089832B8388E39AE09D838C8382E39AE0EC
:1037300042C06A012330B1F0243011F7B801675F4D
:103740007F4FCE0108960E94A419888599859A8397
:10375000898381E08B8388E29AE09D838C8382E277
:103760009AE029C0580189E0A80EB11CF12C4F2D18
:10377000B501CE0101960E948C19B601CE010196C9
:103780000E940403882339F06F2DC8010D960E9412
:103790006916049606C0F394F6E0FF12E8CF80E0C5
:1037A00090E09A83898381E08B838EE29AE09D8307
:1037B0008C8380E39AE09F838E8329813A814B81B9
:1037C0005C816D817E818F8190E029960FB6F8949F
:1037D000DEBF0FBECDBFDF91CF911F910F91FF9044
:1037E000DF90CF90BF90AF900895982F8091810483
:1037F0008111FCCF81E080938104609380042FEFDE
:1038000020937F0410927E04290F20937D048093DF
:103810005C0480915C04846980935C0480915B0407
:10382000813061F410925B0480915C048093BB0052
:103830008091BC0083FDF8CF85EC01C085EE8093BC
:10384000BC00809181048130E1F380917E0489176E
:1038500010F490917E04ADE5B4E0EBE3F4E080E099
:10386000891721F02D9121938F5FFACF0895CF937F
:10387000DF93282F30E0F901EA54FE4F8491F901DB
:10388000EE55FE4FD491F901E257FE4FC491CC237F
:1038900091F081110E94C518EC2FF0E0EE0FFF1F90
:1038A000EC57FE4FA591B491EC91ED2381E090E0AF
:1038B00021F480E002C080E090E0DF91CF91089594
:1038C0001F93CF93DF93282F30E0F901EA54FE4F86
:1038D0008491F901EE55FE4FD491F901E257FE4F64
:1038E000C491CC23C1F0162F81110E94C518EC2F72
:1038F000F0E0EE0FFF1FE658FE4FA591B4919FB781
:10390000F894111104C08C91D095D82302C0EC9189
:10391000DE2BDC939FBFDF91CF911F910895CF9352
:10392000DF9390E0FC01EE55FE4F2491FC01E2573D
:10393000FE4F8491882361F190E0880F991FFC016C
:10394000E059FE4FC591D491FC01E658FE4FA59178
:10395000B491611109C09FB7F894888120958223A2
:103960008883EC912E230BC0623061F49FB7F894EA
:103970008881322F309583238883EC912E2B2C93D2
:103980009FBF06C08FB7F894E8812E2B28838FBF86
:10399000DF91CF9108958F929F92AF92BF92CF9275
:1039A000DF92EF92FF926B017C010E94051D4B019B
:1039B0005C01C114D104E104F104F1F00E94051D81
:1039C000DC01CB0188199909AA09BB09883E9340FB
:1039D000A105B10570F321E0C21AD108E108F10890
:1039E00088EE880E83E0981EA11CB11CC114D1047E
:1039F000E104F10419F7DDCFFF90EF90DF90CF9055
:103A0000BF90AF909F908F9008953FB7F8948091AA
:103A1000AB049091AC04A091AD04B091AE0426B576
:103A2000A89B05C02F3F19F00196A11DB11D3FBFF6
:103A3000BA2FA92F982F8827820F911DA11DB11D84
:103A4000BC01CD0143E0660F771F881F991F4A957F
:103A5000D1F708951F920F920FB60F9211242F9352
:103A60003F938F939F93AF93BF938091A7049091BF
:103A7000A804A091A904B091AA043091A60426E05C
:103A8000230F2D3720F40296A11DB11D05C029E892
:103A9000230F0396A11DB11D2093A6048093A704B4
:103AA0009093A804A093A904B093AA048091AB04B6
:103AB0009091AC04A091AD04B091AE040196A11D0B
:103AC000B11D8093AB049093AC04A093AD04B0936C
:103AD000AE04BF91AF919F918F913F912F910F9025
:103AE0000FBE0F901F901895CF93DF93CDB7DEB721
:103AF0002B970FB6F894DEBF0FBECDBF789484B578
:103B0000826084BD84B5816084BD85B5826085BDD9
:103B100085B5816085BD80916E00816080936E0067
:103B20001092810080918100826080938100809159
:103B3000810081608093810080918000816080930A
:103B400080008091B10084608093B1008091B000CA
:103B500081608093B00080917A00846080937A00C5
:103B600080917A00826080937A0080917A008E7FC3
:103B700080937A0080917A00806880937A00109216
:103B8000C10080915A0390915B032C012AE0420E00
:103B9000511CE0E07724739480915903E81708F0F2
:103BA00044C181E08E0F8987F0E0EE0FFF1FE45AD9
:103BB000FC4F00811181E0E2F3E0D8011A96FC93FA
:103BC000EE9319971C968C931C971E965C924E92BE
:103BD0001D971801F9E42F0E311C51012FEFA21A85
:103BE000B20A6EE0C5010E941C14C10141969B8778
:103BF0008A8778019AE4E90EF11CD7011D968C9111
:103C0000811189C0C5010E949318882309F483C0DB
:103C100060EFC5010E946418CC24C394812C612CF0
:103C2000DD24D394C5010E944018982EC5010E943E
:103C30004018B1E09B1203C08130C9F438C0282D70
:103C400030E098121EC0F7018385D81630F4E20FD9
:103C5000F31F83818C2159F402C08D1541F0912C02
:103C6000F8E0FD1568F0D7011C96DC9209C0F70159
:103C7000E80DF11D83818C2983839924939409C0D5
:103C80006D2CF701E20FF31F93818C2D8095892312
:103C90008383692DC5010E941118D394CC0C19F4AB
:103CA0008394CC24C394B7E0B81508F0BBCFE0E40C
:103CB000ED1588F5D7011B966C921B97611003C018
:103CC000E1E01D96EC93F7018381882321F1F8014F
:103CD000E35BFF4FAA85BB85C8018B5A9F4F21919B
:103CE0002D938E179F07D9F767E08A859B850E94E1
:103CF0000414D10158969C9189130DC0F801E65A1D
:103D0000FF4F8081803109F48AC5883209F487C564
:103D1000823209F484C5D7011B961C921B971D960D
:103D20001C921D971C961C92F801EB5AFF4FC8017C
:103D3000835B9F4F1292E817F907E1F71092D001C9
:103D40001092CF01109283041092A5041092810466
:103D50007092800410925B0461E082E10E94601C1A
:103D600061E083E10E94601C8091B9008E7F8093A6
:103D7000B9008091B9008D7F8093B900B0E2B09313
:103D8000B800E5E4E093BC0087E791E19093CE01B1
:103D90008093CD01A8E7B1E1B093CC01A093CB0112
:103DA0008AE0F82E70928204BAE4B093A4041092D0
:103DB00083041092A50481E00E941019811119C09A
:103DC000F801EE59FF4F708270928204EAE4E093AA
:103DD000A404109283041092A50482E090E00E9453
:103DE0000B1983E090E00E940B1981E00E941019EA
:103DF00009C064E670E080E090E00E94CB1CFA9479
:103E0000F110D0CF84EF91E0A0E0B0E0F80185831D
:103E10009683A783B087B80182E093E00E94E21402
:103E2000F5E24F0E511CE985B7CE60E080E090E0EE
:103E30000E94C1028C01BEE1EB2EB1E0FB2EF70126
:103E40006491C8010E94C1028C01FFEFEF1AFF0AC2
:103E500028E2E21621E0F20691F7FF24F394809124
:103E600059038F1548F1C0905C03D0905D0380E04A
:103E70000E94380A682FC8010E94C1028C01B60155
:103E8000675F7F4F40E0CE0101960E94E01980E01D
:103E90000E942E0A682FC8010E94C1028C0180E096
:103EA0000E94280A682FC8010E94C10266E00E9491
:103EB000C1028C01F394D3CF44E050E060E070E0A5
:103EC000CE0105960E94ED25C801A0E0B0E0AE6FDE
:103ED000BA6C89839A83AB83BC834D815E816F8189
:103EE000788584179507A607B70709F46CC044E0E6
:103EF00050E060E070E0CE0101960E94FD256AE08E
:103F000070E080915A0390915B030E94D11685E086
:103F10000E9428028F3FC9F0082F10E080915A03B9
:103F200090915B03800F911F0E94F51660915A03D8
:103F300070915B03600F711F8F738064898341E010
:103F400050E0CE0101960E94FD256BE082E10E94C7
:103F50006C1966E084E10E946C1962E080E20E94C4
:103F60006C19882321F068E581E20E946C1960E0F9
:103F700082E20E946C19882321F060E083E20E94B3
:103F80006C1910E0809159031817E8F4E12FF0E064
:103F9000EE0FFF1FE45AFC4FE080F18065E270E015
:103FA000D7011D968D919C911E970E94D116F70105
:103FB00065857685198241E050E0CE0101960E9428
:103FC000FD251F5FDFCF8DEC93E09093230380935B
:103FD00022031B821A821982BE016F5F7F4F80917C
:103FE0005703909158030E94781689819A810E9404
:103FF000D92585E08093E20361E00E948F1C8FEC5D
:1040000093E00E94A401E89888E390E19093030173
:104010008093020181E094E09093CA018093C901EA
:1040200060E082E00E948F1C61E08AE00E948F1CA9
:1040300061E08BE00E948F1C60E08CE00E948F1C8E
:1040400061E08DE00E948F1C80E58CBD61E08AE01C
:104050000E94601C61E08DE00E94601C60E08BE0CB
:104060000E94601C0E9422160E941C160E941816B4
:10407000F5E8FA95F1F700000E9422160E941C163E
:1040800080E30E9412160E941C160E9418160AEE67
:1040900010E0EEE1EE2EE1E0FE2EF80131966491A3
:1040A000F801849143E00E94F4190E5F1F4FE0165F
:1040B000F10699F783E30E943C168FEA93EB019790
:1040C000F1F700C0000043E060EC8EE30E94F419B9
:1040D0008BE391E09093030180930201809169004A
:1040E0008C7F826080936900E89A80E180938100F0
:1040F00010928000109285001092840080E49CE968
:10410000909387008093860081E1809381000E94D4
:10411000CB1666E070E08FEC93E00E94C61A0E9416
:10412000D4256CEA7DE00E94702A8C0108511C4F56
:1041300083E094E00E9494179801A4E6B0E00E9406
:10414000692628EE33E040E050E00E9447262093A5
:1041500008043093090440930A0450930B0481E04F
:1041600080930C0463E074E082E093E00E94E21428
:1041700061E083E00E948F1C60E083E00E94601C8D
:1041800060E081E10E948F1C60E081E10E94601C80
:104190008091F5039091F603813D974030F080EDDA
:1041A00097E09093F6038093F50387E880937A0075
:1041B00010927B00E091E403F091E5030680F78123
:1041C000E02D84EE93E009959093F0038093EF0344
:1041D00080E09BEEA1E4B0E08093F1039093F203C2
:1041E000A093F303B093F4038093E9039093EA035D
:1041F000A093EB03B093EC0364EE73E082E093E0F2
:104200000E94E2148BE08093ED0389E08093EE033B
:10421000809155030CEF080F855090E004960E94A2
:10422000F516D82EE12C7EE5F72E10E0015011098D
:104230008E2D90E08017910734F404960E94F516B5
:10424000F826E394F5CFFD101BC084E090E00E94B7
:10425000F516182F85E090E00E94F516082F11231F
:1042600079F043E061E28DE00E94F41943E0612FB0
:104270008EE00E94F41943E0602F8FE00E94F41951
:1042800084E08093100362E00E948F1CE6EAF1E074
:104290008491E2E9F1E09491923059F42091010285
:1042A000282B209301022091FE01282B2093FE0150
:1042B00019C0933059F420910002282B209300025A
:1042C0002091FD01282B2093FD010CC0943051F466
:1042D0002091FF01282B2093FF012091FC01282B26
:1042E0002093FC01ECE2F1E0A4919230D1F4B0E033
:1042F000AA0FBB1FA051BE4F27E731E02D933C937F
:10430000E8E8F1E0A591B4919C919093EF012BE640
:1043100030E0309303022093020290916800916094
:1043200037C09330D1F4B0E0AA0FBB1FAD51BE4FE0
:1043300027E731E02D933C93EAE8F1E0A591B491B1
:104340009C919093E2012CE630E03093030220939D
:1043500002029091680092601BC09430D9F4B0E0E2
:10436000AA0FBB1FAE52BE4F27E731E02D933C93FF
:10437000ECE8F1E0A591B4919C919093D1012DE6E8
:1043800030E0309303022093020290916800946021
:1043900090936800A0910202B0910302EC918E2BE1
:1043A0008C9380E293E00E948E029091590381E009
:1043B000981710F08F5FFCCF11E00EE0F12C0E94F7
:1043C0007F17882319F0FF24F394F9CFF11007C069
:1043D0000E947F17882329F0FF24F394F9CFFF244C
:1043E000F3948091220390912303FC01E05CFF4F42
:1043F0002081222309F417C26BE273E0C4960E9465
:104400001E1A8A3008F40FC21B821A821982BE015A
:104410006F5F7F4F80915703909158030E947816E9
:10442000BE016F5F7F4F8FE293E00E94F102811126
:10443000FAC16BE273E080E293E00E94B50ABB240C
:10444000B39490E1A92E22E2922E36E0832E909131
:1044500059039B1508F43FC0C0905C03D0905D03E6
:10446000F601938590FF35C0E0902603E394E09237
:1044700026036091240370912503CE0101960E94CA
:104480006A02E0912203F091230385A9D6011C96CC
:104490009C9100932B03A0922E0390922D03809267
:1044A0003503E0922C039093360310923703109259
:1044B000380380933903AE014F5F5F4F6BE273E0C7
:1044C00080E293E00E949A03F60183858E7F8387C2
:1044D00081E0B394BCCFF1109FC181119DC1809147
:1044E000EF039091F00364E670E00E945C2A8091F3
:1044F000EE0390E068177907A0F480910F04811112
:1045000005C00E944B1681E080930F0420E030E04C
:1045100040E050E06AE070E084E092E00E945E14C7
:10452000F5CF80910004811166C180916F008E7F6C
:1045300080936F0082E093E00E943903009741F07E
:10454000FC01329729F0C580D680E780F08403C053
:10455000C12CD12C760184E093E00E943903892B91
:1045600009F046C1F1E0CF16D104E104F10409F4E9
:10457000DAC080910F04811104C00E944B16109381
:104580000F0421E2C21623E0D206E104F10408F090
:1045900047C081E9C81681E0D806E104F10408F0BB
:1045A00048C099ECC916D104E104F10408F04AC0EE
:1045B000A5E6CA16D104E104F10408F04BC0B3E348
:1045C000CB16D104E104F10408F04CC0EAE1CE16A8
:1045D000D104E104F10408F04DC0FDE0CF16D10490
:1045E000E104F10408F04EC027E0C216D104E10452
:1045F000F10408F04FC084E0C816D104E104F104CE
:1046000008F050C092E0C916D104E104F10408F4A6
:1046100051C060E070E0C12CD12C7601C3944FC032
:1046200069E070E0A0E2CA2EA3E0DA2EE12CF12CC2
:1046300046C068E070E0F0E9CF2EDD24D394E12C91
:10464000F12C3DC067E070E0E8ECCE2ED12CE12CDF
:10465000F12C35C066E070E054E6C52ED12CE12C7B
:10466000F12C2DC065E070E042E3C42ED12CE12C8A
:10467000F12C25C064E070E039E1C32ED12CE12C8F
:10468000F12C1DC063E070E02CE0C22ED12CE12C97
:10469000F12C15C062E070E096E0C92ED12CE12C1F
:1046A000F12C0DC061E070E083E0C82ED12CE12C2C
:1046B000F12C05C06AE070E0C12CD12C760120E01D
:1046C00030E040E050E084E092E00E945E14A1E01F
:1046D000CA1AD108E108F10882E093E00E94390388
:1046E0000097E1F0FC013297C9F085819681A7819E
:1046F000B085AC01BD014150510961097109C41671
:10470000D506E606F70610F4B701A601841B950B43
:10471000A60BB70B85839683A783B08782E093E0CF
:104720000E946D1565C00E94CB168091B10081FF7B
:1047300002C084E001C080E09091B10090FD8260F1
:104740009091B1009091B1009B7F9093B1009091B6
:10475000B1009D7F9093B1009091B1009E7F9093A6
:10476000B1009091640090649093640090917A00FD
:104770009F7790937A009091640091609093640089
:1047800090916400906290936400909164009068AE
:104790009093640093B7917F93BFF89493B791601F
:1047A00093BF7894889593B79E7F93BF78949091A8
:1047B00064009E7F9093640090917A00906890933B
:1047C0007A0081FF05C08091B10084608093B100C0
:1047D000809164008F7B80936400809164008F7D62
:1047E00080936400809164008F778093640014C08C
:1047F0000E94CB1611C080910F04882369F00E949B
:1048000022160E941C160E9418160E94601684E34D
:104810000E943C1610920F040E943B11CFCD21E064
:10482000F101208378CA80E00ACE86E093E00E94FE
:10483000351080E293E00C941602EF92FF921F93E2
:10484000CF93DF93E8E4F2E01382128288EE93E0E4
:10485000A0E0B0E084839583A683B78324E131E0B0
:104860003183208325EC30E03587248724EC30E049
:104870003787268720EC30E0318B208B21EC30E02D
:10488000338B228B22EC30E0358B248B26EC30E00E
:10489000378B268B118E128E138E148EE5EEF2E07E
:1048A0001382128284839583A683B78386E291E084
:1048B000918380831092F802EAEFF2E01282118273
:1048C0001082E2E0F3E01182108213821282EDEF97
:1048D000F2E011821082138212821482EDECF3E076
:1048E00015821482178210861186128680EB91E061
:1048F00093838283138A148A158A168A11E0168399
:10490000128E118E138E148E158E168E178E10A287
:1049100011A213A212A214A215A216A217A284EA2F
:1049200091E0908F878B88EC90E091A780A715A6E7
:1049300014A617A610AA11AA12AA8EE891E093A7AE
:1049400082A713AA16A715AA11AE10AE13AE14AE05
:1049500015AE16AE84E891E097AB86AB17AE12AFFA
:1049600010920D0410920E0410920F0480E194E056
:104970000E94D402C0E2D3E084E591E09983888369
:104980001B821A828AE593E09D838C831E8219869E
:1049900018861F821A868BE293E00E94D40280E27E
:1049A00090E09EAB8DAB2CE531E038AF2FAB19AF6B
:1049B0009BAF8AAF8FEF8EAF1092600310925F03B0
:1049C00010926103109263031092620310926503C8
:1049D000109264038CE691E09983888310927003AF
:1049E00010926F03E1E7F3E080818E7F8D7F8083FB
:1049F0001092720310927403109273031092690361
:104A00001092680310926A0380E797E1A0E0B0E09B
:104A100080936B0390936C03A0936D03B0936E032C
:104A200086E6E82E83E0F82E8AE491E0F701918390
:104A3000808385E793E00E94D4021092A003109235
:104A40009F031092A2031092A1031092A30310924D
:104A5000A4031092A5031092A6031092A70310922C
:104A6000A8031092AA031092A9031092AC0310920B
:104A7000AB031093AD031092AE031092AF0360E04E
:104A800080EB93E00E941C1482E29CEF9093BF03A2
:104A90008093BE031092C8031092C9031092CA03F8
:104AA0001092CB031092CC03FDAEECAE88E791E000
:104AB00099838883E6E0F3E01382128214821582E0
:104AC000168217821086AFE0B3E08C91887F8160F8
:104AD00088608C931286108A1786118A128A138A2C
:104AE000148A158A88E391E096878587F78BE68B91
:104AF00080EC91E091838083D18FC08F8CE291E034
:104B000094878387DF91CF911F91FF90EF90089555
:104B10008F929F92AF92BF92CF92DF92EF92FF92CD
:104B2000CF93DF93EC01688179818A819B81611544
:104B300071058105910521F464E279ED8BE597E03B
:104B40002DE133EF41E050E00E94152649015A0162
:104B50009B01AC01A7EAB1E40E9434266B017C0101
:104B6000ACEEB4EFA50194010E944226DC01CB011A
:104B70008C0D9D1DAE1DBF1DB7FF03C00197A10980
:104B8000B04888839983AA83BB839F77DF91CF91B5
:104B9000FF90EF90DF90CF90BF90AF909F908F905D
:104BA00008950E948825089586E091E00E94882556
:104BB0000895A0E0B0E08093060190930701A093D0
:104BC0000801B09309010895FB01DC0102C00590C2
:104BD0000D9241505040D8F70895DC01CB01FC0103
:104BE000F999FECF06C0F2BDE1BDF89A319600B446
:104BF0000D9241505040B8F70895DC01CB0103C03D
:104C00002D910E94082641505040D0F70895262F3C
:104C1000F999FECF1FBA92BD81BD20BD0FB6F894A1
:104C2000FA9AF99A0FBE01960895052E97FB1EF485
:104C300000940E942C2657FD07D00E94472607FCAF
:104C400003D04EF40C942C26509540953095219528
:104C50003F4F4F4F5F4F08959095809570956195A8
:104C60007F4F8F4F9F4F08950E946926A59F900DFB
:104C7000B49F900DA49F800D911D11240895B7FF3E
:104C80000C9434260E943426821B930B0895A1E2D3
:104C90001A2EAA1BBB1BFD010DC0AA1FBB1FEE1FB6
:104CA000FF1FA217B307E407F50720F0A21BB30B01
:104CB000E40BF50B661F771F881F991F1A9469F77D
:104CC00060957095809590959B01AC01BD01CF01D9
:104CD0000895A29FB001B39FC001A39F700D811DD5
:104CE0001124911DB29F700D811D1124911D0895F5
:104CF0005058BB27AA270E9490260C94A8270E94F0
:104D00009A2738F00E94A12720F039F49F3F19F428
:104D100026F40C9497270EF4E095E7FB0C94682793
:104D2000E92F0E94B92758F3BA176207730784075F
:104D3000950720F079F4A6F50C94F3270EF4E0958E
:104D40000B2EBA2FA02D0B01B90190010C01CA0145
:104D5000A0011124FF27591B99F0593F50F4503EF0
:104D600068F11A16F040A22F232F342F4427585FE2
:104D7000F3CF469537952795A795F0405395C9F7FA
:104D80007EF41F16BA0B620B730B840BBAF09150B2
:104D9000A1F0FF0FBB1F661F771F881FC2F70EC051
:104DA000BA0F621F731F841F48F487957795679524
:104DB000B795F7959E3F08F0B0CF9395880F08F010
:104DC0009927EE0F9795879508950E94C12788F03F
:104DD0009F5798F0B92F9927B751B0F0E1F0660FBF
:104DE000771F881F991F1AF0BA95C9F714C0B13000
:104DF00091F00E94F327B1E008950C94F327672FF8
:104E0000782F8827B85F39F0B93FCCF3869577952E
:104E10006795B395D9F73EF4909580957095619517
:104E20007F4F8F4F9F4F0895E89409C097FB3EF442
:104E300090958095709561957F4F8F4F9F4F9923E7
:104E4000A9F0F92F96E9BB279395F6958795779565
:104E50006795B795F111F8CFFAF4BB0F11F460FF25
:104E60001BC06F5F7F4F8F4F9F4F16C0882311F07D
:104E700096E911C0772321F09EE8872F762F05C091
:104E8000662371F096E8862F70E060E02AF09A952C
:104E9000660F771F881FDAF7880F9695879597F921
:104EA00008950E94DB2790F09F3748F4911116F087
:104EB0000C94F42760E070E080E89FEB089526F4FE
:104EC0001B16611D711D811D0C946E270C94892782
:104ED00097F99F6780E870E060E00895882371F497
:104EE000772321F09850872B762F07C0662311F483
:104EF00099270DC09051862B70E060E02AF09A95BA
:104F0000660F771F881FDAF7880F9695879597F9B0
:104F100008959F3F31F0915020F4879577956795DC
:104F2000B795880F911D9695879597F908959FEFEE
:104F300080EC089500240A94161617061806090630
:104F4000089500240A9412161306140605060895FF
:104F5000092E0394000C11F4882352F0BB0F40F487
:104F6000BF2B11F460FF04C06F5F7F4F8F4F9F4FC7
:104F7000089557FD9058440F551F59F05F3F71F049
:104F80004795880F97FB991F61F09F3F79F08795B0
:104F90000895121613061406551FF2CF4695F1DF39
:104FA00008C0161617061806991FF1CF86957105C9
:104FB0006105089408950E94C127A0F0BEE7B917C3
:104FC00088F4BB279F3860F41616B11D672F782F21
:104FD0008827985FF7CF869577956795B11D93954C
:104FE0009639C8F30895E894BB2766277727CB0145
:104FF00097F908950E940D280C94A8270E949A27DB
:1050000038F00E94A12720F0952311F00C94682716
:105010000C94972711240C94F4270E94B92770F35D
:10502000959FC1F3950F50E0551F629FF001729F4D
:10503000BB27F00DB11D639FAA27F00DB11DAA1F5C
:10504000649F6627B00DA11D661F829F2227B00DA9
:10505000A11D621F739FB00DA11D621F839FA00D34
:10506000611D221F749F3327A00D611D231F849F84
:10507000600D211D822F762F6A2F11249F575040DB
:105080009AF0F1F088234AF0EE0FFF1FBB1F661F56
:10509000771F881F91505040A9F79E3F510580F01F
:1050A0000C9468270C94F4275F3FE4F3983ED4F304
:1050B000869577956795B795F795E7959F5FC1F7C3
:1050C000FE2B880F911D9695879597F90895FA0103
:1050D000EE0FFF1F309621053105A1F16115710515
:1050E00061F48038BFE39B0749F1689490388105EB
:1050F00061F08038BFEF9B0741F099234AF5FF3FED
:10510000E1053105210519F1E8940894E795D901E5
:10511000AA2329F4AB2FBE2FF85FD0F310C0FF5F96
:1051200070F4A695E0F7F73950F019F0FF3A38F42B
:105130009F779F930DD00F9007FC9058089546F0ED
:105140000C94972760E070E080E89FE308954FE7B4
:105150009F775F934F933F932F930E9462292F91E4
:105160003F914F915F910E94FA270C94BF2829F438
:1051700016F00C9468270C94F3270C9497270E9440
:10518000C127A8F39638A0F707F80F92E8942BE30D
:105190003AEA48EB5FE70E9410280F920F920F92B5
:1051A0004DB75EB70F920E94AA29E8E6F0E00E9490
:1051B000F1284F915F91EF91FF91E595EE1FFF1F51
:1051C00049F0FE57E0684427EE0F441FFA95E1F7D7
:1051D0004195550B0E9424290F9007FE0C94182925
:1051E0000895DF93CF931F930F93FF92EF92DF9277
:1051F0007B018C01689406C0DA2EEF010E940D2815
:10520000FE01E894A5912591359145915591A6F31C
:10521000EF010E949026FE019701A801DA9469F738
:10522000DF90EF90FF900F911F91CF91DF91089544
:105230009B01AC0160E070E080E89FE30C94DE2904
:105240000C9468270C9489270E94C127D8F39923CE
:10525000C9F3940F511DA3F39150504094F059F0AD
:10526000882332F0660F771F881F91505040C1F796
:105270009E3F51052CF7880F911D9695879597F9BC
:1052800008955F3FACF0983E9CF0BB2786957795DC
:105290006795B79508F4B1609395C1F7BB0F58F7C0
:1052A00011F460FFE8CF6F5F7F4F8F4F9F4FE3CFC9
:1052B0000C94F42716F00C9489270C949727689483
:1052C0000C9468270E94C127A8F39923C1F3AEF379
:1052D000DF93CF931F930F93FF92C92FDD2788236E
:1052E0002AF02197660F771F881FDAF720E030E059
:1052F00040E85FEB9FE3883920F0803E38F021964C
:105300008F770E947926E0E9F0E004C00E947926B8
:10531000EDEBF0E00E94F1288B01BE01EC01FB2EC9
:105320006F5771097595771F880B990B0E94162787
:1053300028E132E741E35FE30E940D28AF2D980199
:10534000AE01FF900F911F91CF91DF910E949026A7
:105350000C94A827FA01DC01AA0FBB1F9B01AC012A
:10536000BF5728F4222733274427507820C0B7514D
:1053700090F4AB2F0024469537952795011CA395F3
:10538000D2F3002071F0220F331F441FB395DAF3DC
:105390000ED00C94782661307105A0E88A07B946D2
:1053A00030F49B01AC0166277727882790783096E8
:1053B00021F0208331834283538308950E94F22990
:1053C0000C94A8270E94A12758F00E949A2740F029
:1053D00029F45F3F29F00C94682751110C94F427AD
:1053E0000C9497270E94B92768F39923B1F35523AA
:1053F00091F3951B550BBB27AA27621773078407E8
:1054000038F09F5F5F4F220F331F441FAA1FA9F37D
:1054100035D00E2E3AF0E0E832D091505040E6956B
:10542000001CCAF72BD0FE2F29D0660F771F881FCC
:10543000BB1F261737074807AB07B0E809F0BB0BBF
:10544000802DBF01FF2793585F4F3AF09E3F5105D3
:1054500078F00C9468270C94F4275F3FE4F3983EAF
:10546000D4F3869577956795B795F7959F5FC9F7BC
:10547000880F911D9695879597F90895E1E0660F3D
:10548000771F881FBB1F621773078407BA0720F0B6
:10549000621B730B840BBA0BEE1F88F7E09508951F
:1054A000991B79E004C0991F961708F0961B881F76
:1054B0007A95C9F780950895AA1BBB1B51E107C0D7
:1054C000AA1FBB1FA617B70710F0A61BB70B881F94
:1054D000991F5A95A9F780959095BC01CD01089523
:1054E00097FB072E16F4009407D077FD09D00E9491
:1054F0005C2A07FC05D03EF4909581959F4F089556
:10550000709561957F4F0895EE0FFF1F0590F49100
:10551000E02D09940F931F93CF93DF938230910571
:1055200010F482E090E0E091B104F091B20420E048
:1055300030E0A0E0B0E0309719F140815181028164
:10554000138148175907C8F08417950769F4109715
:1055500031F012960C93129713961C9327C0009368
:10556000B1041093B20422C02115310519F042177D
:10557000530718F49A01BD01EF01DF01F801DBCFF9
:1055800021153105F9F0281B390B2430310580F441
:105590008A819B816115710521F0FB0193838283D0
:1055A00004C09093B2048093B104FE01329644C0CB
:1055B000FE01E20FF31F8193919322503109398349
:1055C00028833AC02091AF043091B004232B41F4DA
:1055D00020910C0130910D013093B0042093AF0461
:1055E00020910A0130910B012115310541F42DB7AD
:1055F0003EB740910E0150910F01241B350BE091F5
:10560000AF04F091B004E217F307A0F42E1B3F0B98
:105610002817390778F0AC014E5F5F4F2417350724
:1056200048F04E0F5F1F5093B0044093AF04819336
:10563000919302C0E0E0F0E0CF01DF91CF911F91A4
:105640000F910895CF93DF93009709F481C0FC0177
:10565000329713821282A091B104B091B2041097D4
:1056600081F420813181820F931F2091AF0430910A
:10567000B0042817390751F5F093B004E093AF0454
:1056800067C0ED0120E030E0CE17DF0740F44A812B
:105690005B819E0141155105F1F0EA01F5CFD383FD
:1056A000C28340815181840F951FC817D90759F4CF
:1056B00088819981840F951F0296918380838A81C6
:1056C0009B81938382832115310529F4F093B204E1
:1056D000E093B1043DC0E901FB83EA83499159910C
:1056E000C40FD51FEC17FD0761F480819181840FF1
:1056F000951F0296E90199838883828193819B8318
:105700008A83E0E0F0E012968D919C9113970097C8
:1057100019F0FD01DC01F7CF8D919C9111979D014E
:105720002E5F3F4F820F931F2091AF043091B00442
:105730002817390769F4309729F41092B2041092AF
:10574000B10402C013821282B093B004A093AF04DC
:10575000DF91CF91089581E090E0F8940C94C62BEE
:10576000FB01DC0104C08D910190801921F44150AE
:105770005040C8F7881B990B0895FB01DC0102C05B
:1057800001900D9241505040D8F7089511E0C6E0C5
:10579000D1E004C0FE010E94842A2196C730D107BF
:0657A000C9F7F894FFCFE9
:1057A600EE0038103810010000000000B30480003D
:1057B60000000000CC1039106310191194107210FB
:1057C600861000000000D211A511021279119D1158
:1057D60089117A1100000000840F00000000710A90
:1057E600E50167011B0A000000007F052702710121
:1057F60000000000E40165010112450100000000FF
:10580600E60169010112B50A00000000E70109027C
:105816000112B50A0000000016021D028E02B50A2A
:1058260000000000180A13026B0100000000180AAD
:10583600D3027501000000004701C0027301810117
:1058460000000000470114026D013E0A000000003E
:10585600091215026F010000000005120000000089
:08586600710A35103610E10F44
:00000001FF
