:100000000C9411010C941D220C94F6210C94E02404
:100010000C947D240C940C240C9463230C947A236C
:100020000C9439010C94BC230C9439010C943901C3
:100030000C9439010C94E6230C9439010C94390189
:100040000C94AC210C9439010C947A210C94542119
:100050000C9439010C94B2230C9439010C9439019D
:100060000C9444220C94390108000000BE922449EB
:10007000123EABAAAA2ABECDCCCC4C3E00000080DA
:10008000BEABAAAAAA3E00000000BF000000803F4D
:100090000000000000084178D3BB4387D1133D190D
:1000A0000E3CC3BD4282AD2B3E68EC8276BED98F3A
:1000B000E1A93E4C80EFFFBE01C4FF7F3F0000007E
:1000C000000007634236B79BD8A71A39685618AEA6
:1000D000BAAB558C1D3CB7CC5763BD6DEDFD753E7D
:1000E000F6177231BF000000803F005EBCE2613F46
:1000F000DD83C29C7E20A3FD1F41009D23BE46DB05
:1001000065F88C11AF32CA57E97400000000240072
:1001100027002A0000000000250028002B00000016
:1001200000080002010000030407000000000000B6
:100130000000002E0206030D04E905CA070C0B0699
:100140000D210E650F6A10C81193120315341703A1
:10015000181819161B431E2F1F65207823E9242A1F
:10016000251F26113E030A0B0C0512142021222301
:100170002425262728292A2B2C2D2E2F0001020387
:10018000040506070001020304050001020304053B
:10019000000000000000000002140505000000003F
:1001A00002010A0100000000000000000000000041
:1001B0000000000000000000060305010101010A23
:1001C000060101010501050A020602020000000005
:1001D00005010804040404000000000023002600B8
:1001E00029000404040404040404020202020202BA
:1001F00003030303030301020408102040800102EB
:1002000004081020010204081020A5A512554E492B
:1002100053454E5330313200F1031570010143252F
:10022000802D11241FBECFEFD8E0DEBFCDBF11E07F
:10023000A0E0B1E0E8E8F9E602C005900D92A83A26
:10024000B107D9F724E0A8EAB1E001C01D92A33DAF
:10025000B207E1F711E0C0E1D1E004C02197FE014F
:100260000E947133CF30D107C9F70E9441270C9407
:10027000B7340C940000782F8827769531F008F475
:100280008627660F08F46427F8CF08F486270895B8
:100290000895089508958FEF0895663050F4FC0195
:1002A000808191810196F5E06F9F800D911D112451
:1002B000089590E080E008950895AF92BF92CF92A4
:1002C000DF92EF92FF920F931F93CF93DF936C0116
:1002D0007B018B01040F151FEB015E01AE18BF08F7
:1002E000C017D10759F06991D601ED91FC910190A9
:1002F000F081E02DC6010995892B79F7C501DF91C1
:10030000CF911F910F91FF90EF90DF90CF90BF9012
:10031000AF900895FC01538D448D252F30E0842F3C
:1003200090E0821B930B541710F0CF96089501971D
:100330000895FC01918D828D981761F0A28DAE0F0A
:10034000BF2FB11D5D968C91928D9F5F9F73928F91
:1003500090E008958FEF9FEF0895FC01918D828DBD
:10036000981731F0828DE80FF11D858D90E008958A
:100370008FEF9FEF0895FC01918D228D892F90E0E2
:10038000805C9F4F821B91098F739927089586EA9D
:1003900092E00E94BB0121E0892B09F420E0822F2A
:1003A000089580E090E0892B29F00E94C701811117
:1003B0000C9400000895FC01A48DA80FB92FB11D65
:1003C000A35ABF4F2C91848D90E001968F7399278B
:1003D000848FA689B7892C93A089B1898C91837069
:1003E00080648C93938D848D981306C00288F38962
:1003F000E02D80818F7D80830895EF92FF920F938F
:100400001F93CF93DF93EC0181E0888F9B8D8C8DC0
:1004100098131AC0E889F989808185FF15C09FB7B4
:10042000F894EE89FF896083E889F9898081837077
:10043000806480839FBF81E090E0DF91CF911F9126
:100440000F91FF90EF900895F62E0B8D10E00F5F47
:100450001F4F0F731127E02E8C8D8E110CC00FB61D
:1004600007FCFACFE889F989808185FFF5CFCE01B5
:100470000E94DB01F1CFEB8DEC0FFD2FF11DE35A54
:10048000FF4FF0829FB7F8940B8FEA89FB89808138
:100490008062CFCFCF93DF93EC01888D8823B9F0B2
:1004A000AA89BB89E889F9898C9185FD03C080817F
:1004B00086FD0DC00FB607FCF7CF8C9185FFF2CFFC
:1004C000808185FFEDCFCE010E94DB01E9CFDF9176
:1004D000CF910895833081F028F4813099F08230F3
:1004E000A9F008958730A9F08830C9F08430B1F4BC
:1004F000809180008F7D03C0809180008F778093F2
:100500008000089584B58F7784BD089584B58F7D6C
:10051000FBCF8091B0008F778093B00008958091D9
:10052000B0008F7DF9CFCF93DF93282F30E0F90112
:10053000E25EFE4F8491F901EA50FE4FD491F90139
:10054000EE51FE4FC491CC23A1F081110E946A02AA
:10055000EC2FF0E0EE0FFF1FE852FE4FA591B49193
:10056000EC91ED2381E090E009F480E0DF91CF9100
:10057000089580E090E0FACF1F93CF93DF93282F68
:1005800030E0F901E25EFE4F8491F901EA50FE4F3E
:10059000D491F901EE51FE4FC491CC23A9F0162F4E
:1005A00081110E946A02EC2FF0E0EE0FFF1FEC5E5B
:1005B000FE4FA591B4918FB7F894EC91111108C03A
:1005C000D095DE23DC938FBFDF91CF911F910895EB
:1005D000DE2BF8CFCF93DF9390E0FC01EA50FE4F83
:1005E00024918E519E4FFC0184918823C9F090E0A4
:1005F000880F991FFC01E65FFE4FA591B491FC01A5
:10060000EC5EFE4FC591D49161110DC09FB7F89477
:100610008C91209582238C938881282328839FBFE7
:10062000DF91CF910895623051F49FB7F8943C91D7
:10063000822F809583238C93E8812E2BEFCF8FB769
:10064000F894EC912E2B2C938FBFEACF3FB7F89400
:100650008091160290911702A0911802B091190290
:1006600026B5A89B05C02F3F19F00196A11DB11D0D
:100670003FBFBA2FA92F982F8827BC01CD01620F49
:10068000711D811D911D43E0660F771F881F991F03
:100690004A95D1F708958F929F92AF92BF92CF92D1
:1006A000DF92EF92FF926B017C010E9426034B01C7
:1006B0005C01C114D104E104F104B9F00E942603E5
:1006C000681979098A099B09683E7340810591057B
:1006D00080F321E0C21AD108E108F10888EE880E03
:1006E00083E0981EA11CB11CE4CFFF90EF90DF9037
:1006F000CF90BF90AF909F908F90089580912002EF
:1007000090912102891B990B0895C3960895029632
:1007100008950F931F93CF93DF93EC010A81802FED
:100720008295880F807E0E81000F000F082B888530
:10073000082B1A85812F8295880F807E1C85110FCA
:10074000110F182B8E85182BE881F9810680F7810F
:10075000E02D4C8162EFCE010995E881F981068098
:10076000F781E02D402F64EFCE010995E881F981F2
:100770000680F781E02D412F65EFCE01DF91CF910B
:100780001F910F9109942F923F924F925F926F9217
:100790007F928F929F92AF92BF92CF92DF92EF9211
:1007A000FF920F931F93CF93DF93CDB7DEB7C5565C
:1007B000D1090FB6F894DEBF0FBECDBF1C0129963C
:1007C0007FAF6EAF29978A012B963FAF2EAF2B9745
:1007D000DC0118968D919C91019719F4C1010E943A
:1007E0008903D101ED91FC910084F185E02D28E091
:1007F000AE014F5D5F4F67EFC1010995FE01B196F4
:10080000DE0111969E01275D3F4F419150E070E05F
:1008100060E04D935D936D937D93E217F307A9F725
:10082000811133C080E090E0A0ECBFE72B96EEADE5
:10083000FFAD2B9780839183A283B383F8018083DC
:100840009183A283B3832996EEADFFAD2997808370
:100850009183A283B383CB59DF4F0FB6F894DEBFE9
:100860000FBECDBFDF91CF911F910F91FF90EF9001
:10087000DF90CF90BF90AF909F908F907F906F90C0
:100880005F904F903F902F90089589809A80AB8021
:10089000BC8064968CAE9DAEAEAEBFAE64978D80CC
:1008A0009E80AF80B88468968CAE9DAEAEAEBFAE73
:1008B000689789849A84AB84BC846C968CAE9DAE18
:1008C000AEAEBFAE6C972D853E854F855889ACE0A6
:1008D000220F331F441F551FAA95D1F789899A8982
:1008E000AB89BC8964E0880F991FAA1FBB1F6A955A
:1008F000D1F7282B392B4A2B5B2B8D899E89AF8909
:10090000B88D74E0B595A795979587957A95D1F7A9
:10091000282B392B4A2B5B2B898D9A8DAB8DBC8D67
:10092000BA2FA92F982F8827CD8CDE8CEF8CF8A0BA
:100930004C015D018C289D28AE28BF28A0968CAE66
:100940009DAEAEAEBFAEA097D10150968D919C9159
:10095000B0E0A0E069017A01F4E0F594E794D7945F
:10096000C794FA95D1F7C81AD90AEA0AFB0A63E0D4
:1009700055954795379527956A95D1F7880F991F13
:10098000AA1FBB1F281B390B4A0B5B0BF101A28965
:10099000B3890E94E6314B015C01ABE0B594A794AA
:1009A00097948794AA95D1F7A7019601C701B6013C
:1009B0000E9473319B01AC01BCE05595479537957A
:1009C0002795BA95D1F7A489B5890E94E6312EE022
:1009D00095958795779567952A95D1F77501640167
:1009E000C60ED71EE81EF91EC9AEDAAEEBAEFCAEDF
:1009F000A5E0B0E0A70196010E94DB3160587F4F6F
:100A00008F4F9F4F672F782F892F992787FD9A95B2
:100A10000E94CC2E20E030E048EC52E40E94222ECE
:100A2000D8016D937D938D939C931397F101F48D71
:100A3000A596FFAFA597D1015D96BC912E96BFAF4D
:100A40002E97F101F68DA296FFAFA297D1015F9686
:100A5000BC91BDAFF101F0A1A196FFAFA197D1016B
:100A60009196BC91BEABF101F2A1A496FFAFA49701
:100A7000D1019396BC912D96BFAF2D97F101F4A1B2
:100A8000A396FFAFA397D1019596BC912C96BFAFCB
:100A90002C97F101F6A1A696FFAFA697D1019796E4
:100AA000BC912F96BFAF2F97FF0CCC08DC2C7601A2
:100AB00029AD3AAD4BAD5CAD6C2D7C2D8C2D9C2DB4
:100AC000345F4140510961097109810991092BABDA
:100AD0003CAB4DAB552E3B014C015901C42ED52EDC
:100AE0007B018C010E94EE3121962FAF2197229637
:100AF0003FAF229723964FAF239724965FAF24975B
:100B000025966FAF259726967FAF269727968FAFAE
:100B1000279760969FAF6097F101318D208D932FBD
:100B2000990F990B492F592F692F792F892F0E94DF
:100B3000EE310CE00E941D3329A73FAB442E58AF85
:100B400069AB7AAB8EAF9FAFD1015B963C915B975F
:100B50005A962C91932F990F990B2196AFAC219710
:100B60002296BFAC22972396CFAC23972496DFAC76
:100B700024972596EFAC25972696FFAC26972796C7
:100B80000FAD279760961FAD6097492F592F692F9A
:100B9000792F892F0E94EE3108E00E943633A9A4F4
:100BA000BFA8C42CD8ACE9A8FAA80EAD1FAD0E940E
:100BB000533370588F4F9F4FD1015696ED91FC9152
:100BC0005F01D12CC12CE12CF12C8701E9A7BAA639
:100BD000CBA6DCA6EDA6FEA60FA718ABC12CD12C88
:100BE000E12CF12C00E010E00E94EE3101E20E94C5
:100BF000363329A73FAB48AF59AB6AAB7EAF8FAF57
:100C0000492EA0E00E94653309F463C2A1962FAD7E
:100C1000A1979EA9990F990B2196AFAC2197229687
:100C2000BFAC22972396CFAC23972496DFAC2497B2
:100C30002596EFAC25972696FFAC269727960FAD05
:100C4000279760961FAD60973EA9492F592F692FAE
:100C5000792F892F0E94EE312EAB21963FAF21973D
:100C600022964FAF229723965FAF239724966FAFBC
:100C7000249725967FAF259726968FAF26972796A0
:100C80009FAF2797A2962FADA2979DAD990F990B75
:100C9000ABA8BCA8CDA8D52C730184013DAD492FCC
:100CA000592F692F792F892F0E94EE3101E10E947F
:100CB0001D33AEA82196BFAC21972296CFAC2297C8
:100CC0002396DFAC23972496EFAC24972596FFACB0
:100CD000259726960FAD269727961FAD27970E943A
:100CE000533359016A017B01582E192F68964CAD78
:100CF0005DAD6EAD7FAD689734E0440F551F661F44
:100D0000771F3A95D1F76C968CAD9DADAEADBFAD6A
:100D10006C97E4E0B595A79597958795EA95D1F7F7
:100D2000842B952BA62BB72B64964CAD5DAD6EAD89
:100D30007FAD6497FCE0440F551F661F771FFA953F
:100D4000D1F7482B592B6A2B7B2B80E090E0A0E158
:100D5000B0E0841B950BA60BB70B3C014D01990C21
:100D60006608762C43019C01AD01662D762D862DFB
:100D7000962D0FE10E941D3339014A01B62FA72F8E
:100D8000F82FE92FA5962FADA5972E969FAD2E97FC
:100D9000990F990B2E963FAD2E97492F592F692FFA
:100DA000792F892F03E20E941D33052D0E945333B2
:100DB00059016A017B018C019301A4016B2F7A2FE9
:100DC0008F2F9E2F0E945C33E5E3AE2EFCE0BF2EFA
:100DD000C12CD12CE12CF12C00E010E00E94EE316E
:100DE000A9A4BFA8C8ACD9A8EAA8FEAC0FAD142D21
:100DF0000E9448322BAB3CAB4DAB59A76EAB7DAFDD
:100E00008FAB98AF0DE00E94363329AB9AABA69614
:100E10002FADA6972F969FAD2F97990F990BA9A845
:100E2000B32EC42ED52EE62EF72E082F1AA92F96F4
:100E30003FAD2F97492F592F692F792F892F0E9466
:100E4000EE310E94EE3109E10E943633ABA8BCA816
:100E5000CDA8D9A4EEA8FDAC0FA918AD0E945333BC
:100E600029AB3AAB2A013B014C01A3962FADA397C6
:100E70002C969FAD2C97990F990B2C963FAD2C97E4
:100E8000492F592F692F792F892F0E94EE3103E1C5
:100E90000E94363359016A017B018C0129A93AA9C4
:100EA000A201B301C4010E94533308E00E9436330B
:100EB00059016A017B01E82F192FA4962FADA49741
:100EC0002D969FAD2D97990F990B2D963FAD2D9790
:100ED000492F592F692F792F892F04E00E941D3344
:100EE0000E2F0E945333B901CA010E94CA2E20E07E
:100EF00030E040E85BE30E94A82F20E030E048ECBF
:100F000052E40E94222E2996AEADBFAD29976D9373
:100F10007D938D939C931397F10125A5C9ACDAAC11
:100F2000EBACFCACFCE2DF1AF1E0EF0AF108A096B2
:100F30008CAC9DACAEACBFACA0973EE0880C991CCD
:100F4000AA1CBB1C3A95D1F7D1019C968C91B0E1BB
:100F50008B02C0011124322F3F70832B092E000C0D
:100F6000AA0BBB0B44E1880F991FAA1FBB1F4A9510
:100F7000D1F7881A990AAA0ABB0AF101A6A5F0E1DD
:100F8000AF02D001112422952F70A22BA701960148
:100F90000E94E631861A970AA80AB90A00E4900E60
:100FA000A11CB11C6FE0B594A794979487946A959F
:100FB000D1F7F101A3A5B0E00E94DB312B013C0188
:100FC0007BE075946794579447947A95D1F7F0E84D
:100FD0005F0E611C711CF101A7A50A2E000CBB0B52
:100FE0000E94E631AAE09595879577956795AA9531
:100FF000D1F7A30192010E9473319B01AC01BAE0C9
:101000005595479537952795BA95D1F7405E5F4F2F
:10101000A1A5B2A50E94E631705E8F4F9F4F1EE0E2
:1010200095958795779567951A95D1F7A5019401C0
:101030000E9473316B017C010FE095958795779540
:1010400067950A95D1F79B01AC010E9473319B0112
:10105000AC0187E055954795379527958A95D1F747
:10106000A0A5B0E00E94DB3124E0959587957795A7
:1010700067952A95D1F7C61AD70AE80AF90AF7FE42
:1010800003C0C12CD12C7601C701B60161307105B6
:101090008105F9E19F0724F060E070E080E099E1CC
:1010A0002CE095958795779567952A95D1F70E94BD
:1010B000CA2E20E030E040E85AE30E94A82F2B9689
:1010C000AEADBFAD2B976D937D938D939C9313978E
:1010D000C2CB60E070E080EC9FE715CF2EE0FB0113
:1010E000DC01129601900D922A95E1F70C94890388
:1010F00020E1FB01DC01D39601900D922A95E1F7E6
:101100000C946E08CF92DF92FF920F931F93CF93B0
:10111000DF9300D000D0CDB7DEB78C01DC01ED91BC
:10112000FC910084F185E02D21E0AE014F5F5F4F1F
:1011300060ED09958981883509F45CC0803609F035
:1011400061C080E690E0F80191AB80ABD801ED91F1
:10115000FC910084F185E02D26E0A801405F5F4FFF
:1011600068E8C8010995F82ED801ED91FC9100843A
:10117000F185E02D22E1A8014A5E5F4F6EE8C801CB
:101180000995F822D801ED91FC910084F185E02DBC
:1011900021E0A801485D5F4F61EAC8010995F82286
:1011A000D801ED91FC910084F185E02D27E0A801A4
:1011B000475D5F4F61EEC8010995F822F801C484CC
:1011C000D584C114D10491F015861486C8010E94FB
:1011D00089039E012F5F3F4FA901B901C8010E94F9
:1011E000C303D8011D96DC92CE921C97C8010E94C1
:1011F00089030CC088E590E0D801D1969C938E932A
:10120000D097A4CFF80111AA10AAF12CF801F2AAE4
:101210008F2D0F900F900F900F90DF91CF911F9116
:101220000F91FF90DF90CF9008952091CE01260F6F
:101230003327331F21323105ECF420917C02FC016D
:1012400090E080E0243069F082E00895A091CE0122
:101250002191AC0142555E4FA40FB52FB11D2C93C7
:101260000196861798F38091CE01680F6093CE01A6
:1012700080E0089581E0089510927C0281E08093DF
:101280007B021092560261E082E10E94BC0261E0A2
:1012900083E10E94BC02E9EBF0E080818E7F8083D5
:1012A00080818D7F808380E28093B80085E4809385
:1012B000BC000895CF93DF9391E09093AD01882314
:1012C000B9F0C091B800D091BA008091BC008A7B7F
:1012D0008093BC0060E082E10E94BC0260E083E198
:1012E0000E94BC020E943C09D093BA00C093B8008F
:1012F000DF91CF9108958F929F92AF92BF92CF923C
:10130000DF92EF92FF920F931F93CF93DF93D091D1
:10131000A502D13208F0D7C0182FC091A4020E94B4
:1013200026036B017C0180917C0281116BC082E0FD
:1013300080937C0210937B028FEF80937A0210924D
:101340007902D0937802A4E8B2E0E8E5F2E080E028
:10135000D81391C01092570280915702CC0FC82B1E
:10136000C093570280915602813009F088C01092D4
:1013700056020E9426036B017C01809157028093E4
:10138000BB0080917E0290917F02A0918002B0917B
:101390008102892B8A2B8B2BA1F00E9426030091BE
:1013A0007E0210917F0220918002309181026C199F
:1013B0007D098E099F09061717072807390708F4C2
:1013C00042C08091BC0083FDD8CF85EC8093BC00E7
:1013D0000E9426036B017C0180917C02823009F41B
:1013E00050C080917A028F3F09F46FC080917A02D9
:1013F000803209F46CC080917A02803309F469C0AC
:1014000084E026C080917E0290917F02A0918002AC
:10141000B0918102892B8A2B8B2B09F484CF0E94F7
:10142000260380907E0290907F02A0908002B09070
:1014300081026C197D098E099F0986169706A806F8
:10144000B90608F070CF80917D020E945A0985E0AC
:10145000109283021092A50210928202DF91CF9126
:101460001F910F91FF90EF90DF90CF90BF90AF90C2
:101470009F908F9008959D9191938F5F69CF85EE96
:10148000A5CF80917E0290917F02A0918002B091C1
:101490008102892B8A2B8B2B09F49ECF0E94260375
:1014A00000917E0210917F02209180023091810292
:1014B0006C197D098E099F09061717072807390738
:1014C00008F08ACFC0CF81E0C3CF80E0C1CF82E0F7
:1014D000BFCF83E0BDCF0895E0912102809120022B
:1014E000E81730F4F0E0EF50FE4F808190E008956F
:1014F0008FEF9FEF089590912102809120022FEFAE
:101500003FEF981748F4E92FF0E0EF50FE4F2081AD
:1015100030E09F5F90932102C9010895CF92DF923E
:10152000EF92FF920F931F93CF93DF937C01CB0138
:101530008A0120918202222389F0EB016B01C40E03
:10154000D51ECC15DD0569F06991D701ED91FC91AF
:101550000190F081E02DC7010995F3CF642F0E941F
:101560001509C801DF91CF911F910F91FF90EF9066
:10157000DF90CF900895CF93DF931F92CDB7DEB762
:101580006983209182022223F9F02091A502203262
:1015900058F021E030E0FC013383228390E080E0CA
:1015A0000F90DF91CF91089580918302E82FF0E0B2
:1015B000EC57FD4F998190838F5F809383028093D6
:1015C000A50281E090E0ECCF61E0CE0101960E949F
:1015D0001509F7CFCF93C42F8F5B9F4FFC018081FC
:1015E00091E0909382028093A40210928302109261
:1015F000A50283E493E00E94BB0A6C2F83E493E08E
:101600000E94BB0A81E00E947B0981E0CF9108958E
:1016100090E080E00895DC0180E0615090F09D91C1
:101620009827E92FEF70F0E0E651FF4F2491E92F62
:10163000E295EF70F0E0E650FF4FE491822F8E27A5
:10164000ECCF0895DC012C911196ED91FC91F8946A
:101650008181822B81839281322F309593239283D3
:1016600082E090E00197F1F781818323818380E11B
:1016700090E00197F1F790817894E6E6F0E03197F9
:10168000F1F7922381E009F480E00895FC01908154
:101690000180F281E02D292F209560FF14C0F8947D
:1016A0008281822382838181892B8183A0E1B0E0C2
:1016B0001197F1F78281982B928378948AE690E0D3
:1016C0000197F1F70895F8948281822382838181C2
:1016D000892B8183AEE7B0E01197F1F78281982BD7
:1016E0009283789486E090E0EBCFEF92FF920F9395
:1016F0001F93CF93DF93EC01E62E08E010E0FF2468
:10170000F39461E08E2D8F2109F460E0CE010E94F8
:10171000460BFF0C01501109A1F7F894E981FA81F9
:1017200091818881809589238183E981FA819281E1
:1017300088818095892382837894DF91CF911F914E
:101740000F91FF90EF9008954115510529F4EAE7B4
:10175000F0E080818F7780836A307105B9F0CB012A
:10176000880F991F880F991F807267706860682BB7
:1017700088E10FB6F894A895809360000FBE60933F
:101780006000E0E6F0E0808180648083232BD9F460
:1017900083B7817F846083BFF89483B7816083BF00
:1017A00085B7806685BF8F7D85BF7894889583B720
:1017B0008E7F83BF7894452B29F4EAE7F0E080819F
:1017C00080688083089583B7817F846083BFF894A5
:1017D00083B7816083BF7894889583B78E7F83BFFA
:1017E0007894E9CF8EBD0DB407FEFDCF8EB5089578
:1017F00061E08AE00C94BC028CE00E9493028111AB
:10180000FBCF089560E08AE00C94BC02CF93DF9395
:10181000D82FC62F0E94020C0E94FC0B8D2F8C2B00
:101820000E94F20B80E00E94F20BC82F0E94F80B7E
:101830008C2FDF91CF910895CF93C82F0E94020C77
:101840000E94FC0B8C2F0E94F20BC82F0E94F80BF9
:101850008C2FCF91089586E30E941C0C8DE30E948B
:101860001C0C8AE30C941C0CFC018289938960E0B7
:10187000911101C061E00C94BC02BC0190E080E0D9
:101880000E944B0384E090E030E020E060E170E0F3
:1018900040917A00406440937A0042E350917A008C
:1018A00056FF08C0FB013197F1F74150B9F790E0BE
:1018B00080E0089540917800509179005370240F92
:1018C000351F019729F7C9019695879596958795B4
:1018D000237033272230310560F301960895EFE637
:1018E000F0E08081816080830895863130F4E82FB4
:1018F000F0E0EA59FE4F849108958FEF0895CF9359
:10190000DF93EC0180917C00807380937C00809158
:101910007C00806C80937C0080917C00816080934F
:101920007C0061E089E00E94BC02888999890E945C
:101930003D0CEC0160E089E00E94BC02209761F060
:101940009E01A0EEBBEA0E94C53120E038E240E0F3
:1019500050E00E94A331E901CE01DF91CF910895BB
:10196000FC0110860895FC01962F97706085687FB2
:10197000692B608708950895813011F08FEF0895E5
:1019800080E00895882311F08FEF089581E0089595
:10199000883011F08FEF089580E00895882311F0CA
:1019A0008FEF089588E00895FC018289938961E0B2
:1019B000911101C060E00C94BC021F93CF93DF93A0
:1019C000FC01238520FF11C0162FEC010E94020CA0
:1019D0000E94FC0B0E94F80B11110E942B0C84E357
:1019E0000E941C0C8B858E7F8B87DF91CF911F917E
:1019F00008950895E0911A02F0911B02838581FDFC
:101A000003C083858C60838708950895089580E0DE
:101A100008950F931F93CF93DF932EE531E0FC01E0
:101A2000318320838C01065C1F4F81F0EC01CA5189
:101A3000DF4F0C171D0751F0CC5AD109E881F9810D
:101A40000280F381E02DCE010995F3CFDF91CF9194
:101A50001F910F9108950895089508952AE631E0A1
:101A6000FC01318320830C94090D0895982FE6E63C
:101A7000F1E080E02491921729F08F5F3196863152
:101A8000C9F78FEF08950C94360D80917C00807318
:101A900080937C0080917C00806480937C008091A6
:101AA0007C008E6080937C0082E390E00E943D0C7D
:101AB000009751F09C0150E040E060E070E381E16C
:101AC00090E00E94A331C90108950895862728E077
:101AD000BC0176956795AC014170552780FF02C027
:101AE00041E050EACB0184279527215089F70895DA
:101AF000FC011082118212821382168215821482D6
:101B0000118610861782128613860895FC01808143
:101B1000811109C08181811106C081E092819111FA
:101B200003C080E0089581E00895DC01FB019C91F1
:101B3000808198130BC011969C9111978181981305
:101B400005C081E012962C919281291380E00895BE
:101B5000FC013381FB012381321302C00C94950DEB
:101B600080E00895CF93DF9300D000D0CDB7DEB7EB
:101B7000FC0180899485998395859A8396859B83BA
:101B80008C83882389F0BF01645F7F4FCE0101966B
:101B90000E94A80D811108C082E00F900F900F9055
:101BA0000F90DF91CF91089581E0F7CF2FB7F89490
:101BB000FC01808191812FBF0895FF920F931F93A5
:101BC000CF93DF93EC018B01FFB6F8940E94D60D02
:101BD0009C019FB7F894F801318320839FBF8FB792
:101BE000F894198308838FBFFFBEDF91CF911F91B7
:101BF0000F91FF9008956F927F928F92DF92EF92F4
:101C0000FF920F931F93CF93DF937B0122E0E20EAD
:101C1000F11CDB0115962D913D914C91232B242B2A
:101C200009F44DC0EB01DFB6F8942C8122602C83BF
:101C30008C010E94D60D009709F43EC0FC0132973A
:101C4000A1F06580768087802D813E814F81CF0114
:101C5000029662167306840650F42619370948095D
:101C60002D833E834F838C01E4CF90E080E02FB73B
:101C7000F8949B838A832FBF8FB7F894D801ED9295
:101C8000FC928FBF309761F085819681A7812D816D
:101C90003E814F81821B930BA40B85839683A78380
:101CA000DFBEDF91CF911F910F91FF90EF90DF90FA
:101CB0008F907F906F900895F0E0E0E0D8CFB7016B
:101CC0000296DF91CF911F910F91FF90EF90DF90DF
:101CD0008F907F906F900C94DD0D1F93CF93DF93C7
:101CE000EC01FB012885922F9770943079F040F435
:101CF000923051F0933039F1DF91CF911F910895D7
:101D0000953009F19630C1F711E012C023FD21C0D2
:101D10002A853B852550310913E02115310541F015
:101D200040E02D833E834F83BE01CF010E94FB0D17
:101D3000E881F9810680F781E02D612FCE01DF91E6
:101D4000CF911F91099423FDD7CF2A853B8515E0BC
:101D5000E4CF25E030E012E0E3CF0F931F93CF9361
:101D6000DF93EC018B01E88981E08E0F888BEC0F0B
:101D7000FD2FF11D228530E0A4E6B0E00E94C531C0
:101D80002AE030E040E050E00E94A3312D833E8302
:101D90004F83BE01C8010E94FB0D88898170DF91CD
:101DA000CF911F910F9108950F931F93CF93DF93BE
:101DB000EC018B01E881F9810680F781E02D09951E
:101DC0009B878A878C859D85AE858D839E83AF8317
:101DD000BE01C801DF91CF911F910F910C94FB0DB3
:101DE000EF92FF920F931F93CF93DF93EC01FFB617
:101DF000F8940E94D60D8C01892B71F0EFB6F894FF
:101E0000CE010E94D60D0E94D60D9C019FB7F8947A
:101E1000398328839FBFEFBEFFBEC801DF91CF91FA
:101E20001F910F91FF90EF900895BF92CF92DF9294
:101E3000EF92FF920F931F93CF93DF93EC01FFB6C6
:101E4000F8948C818D7F8C8380E693E00E94D60D80
:101E50000097C9F19C012250310980E693E02115D9
:101E6000310589F189010E5F1F4FC217D30709F5AC
:101E70000E94F00EC8010E94D60D009779F0FC0177
:101E8000329761F085819681A7812D813E814F81B6
:101E9000820F931FA41F85839683A783FFBEDF91C4
:101EA000CF911F910F91FF90EF90DF90CF90BF9057
:101EB0000895C8010E94D60D009729F09C01225078
:101EC0003109C801CCCF6E0182E0C80ED11CEFB63B
:101ED000F894BFB6F89482E693E00E94D60DEC0128
:101EE00022E633E0209779F010E000E0CC16DD0622
:101EF00009F48901CE010E94D60D9E01011511053C
:101F000021F4EC01EFCF10E000E0BFBE0115110598
:101F100011F4EFBEC3CFC8010E94F00EFACFEF92CA
:101F2000FF920F931F93CF93DC0118960D911C9194
:101F3000F80181850E949302D8011896CC911897D8
:101F4000C3FBEE24E0F8F12C8E151F04C9F180FBD1
:101F5000C3F91896CC93C770C33031F0C53021F067
:101F6000C130C1F4C4E007C0F801808583FF12C00E
:101F7000C33021F1C6E0C8010E94150F85E090E052
:101F8000A0E0F80185839683A783B80180E693E0FB
:101F90000E94FB0DD80118968C91189787708C17AA
:101FA00079F0ED91FC910680F781E02D6C2FC8014E
:101FB000CF911F910F91FF90EF900994C2E0DBCF7A
:101FC000CF911F910F91FF90EF90089580E793E0DC
:101FD0000E94150F60E773E080E693E00C94FB0D20
:101FE0008F929F92AF92BF92CF92DF92EF92FF9229
:101FF000CF93DF93EC014A015B0180E693E00E94FE
:10200000D60D0097B9F481E08887CE010E94150FA4
:102010008D829E82AF82BE0180E693E0DF91CF91F8
:10202000FF90EF90DF90CF90BF90AF909F908F90F8
:102030000C94FB0D0297C12CD12C7601009719F35B
:10204000FC01258136814781642FA90170E0C40E0F
:10205000D51EE61EF71EC817D90739F002960E9452
:10206000D60D009781F20297E9CFC814D904EA048B
:10207000FB0448F2DF91CF91FF90EF90DF90CF907B
:10208000BF90AF909F908F90089582E693E00E945A
:10209000F00EFC01009781F0029771F022812D7FF4
:1020A0002283DC01ED91FC910190F081E02D60E64E
:1020B00073E0099581E0089580E00895CF92DF9262
:1020C000FF920F931F93CF93DF938C01FFB6F89489
:1020D0000E94D60D009769F1EC01229751F18D8194
:1020E0009E81AF810197A1098D839E83AF83680193
:1020F00082E0C80ED11C8D819E81AF81892B8A2BF5
:10210000C1F4C8010E94F00E8C8180FF1CC08D7F3D
:102110008C83E881F9810190F081E02DB801CE0136
:102120000995C8010E94D60D009719F0EC0122977D
:1021300011F7FFBEC801DF91CF911F910F91FF9062
:10214000DF90CF900895BE016E5F7F4FC6010E9461
:10215000DD0DE7CF4F925F926F927F928F929F92A9
:10216000AF92BF92EF92FF921F93CF93DF937A01CA
:10217000122FEC01CF5BDF4F888191E090938202B8
:102180008093A402109283021092A50283E493E04C
:102190000E94BB0A81E00E947B09D8810E9426032D
:1021A0004B015C0180917C02811169C0C12F113209
:1021B00008F0C0E281E080937C0280937B029FEF75
:1021C00090937A02109279029C0F909378028093F8
:1021D000570280915702DD0FD82BD0935702809180
:1021E0005602813009F084C0109256020E942603E4
:1021F0004B015C01809157028093BB0080917E026D
:1022000090917F02A0918002B0918102892B8A2B4C
:102210008B2BA1F00E94260340907E0250907F02FB
:102220006090800270908102681979098A099B097F
:10223000461657066806790608F442C08091BC002D
:1022400083FDD8CF85EC8093BC000E9426034B0110
:102250005C0180917C02813009F44CC0809179024C
:102260008C1710F4C0917902A8E5B2E0E1EFF1E03B
:1022700080E08C1751F19D9191938F5FFACF8091FF
:102280007E0290917F02A0918002B0918102892B01
:102290008A2B8B2B09F486CF0E94260340907E0266
:1022A00050907F02609080027090810268197909D5
:1022B0008A099B09461657066806790608F072CF08
:1022C00080917D020E945A09C0E010922102C093C1
:1022D0002002D0E080912102C81771F183E493E0DD
:1022E0000E947B0AF701ED0FF11D8083DF5FF2CFC3
:1022F00085EEA9CF80917E0290917F02A09180020D
:10230000B0918102892B8A2B8B2B09F4A2CF0E94DA
:10231000260340907E0250907F0260908002709071
:102320008102681979098A099B09461657066806C9
:10233000790608F08ECFC4CF81E0D11380E0DF9121
:10234000CF911F91FF90EF90BF90AF909F908F9093
:102350007F906F905F904F900895FC019081018075
:10236000F281E02DF8948181292F209582238183A9
:1023700078943DE7315011F180818923D9F3F894A5
:102380008281822382838181892B81837894ACEB43
:10239000B3E01197F1F7F894818182238183A8E853
:1023A000B0E01197F1F78081982381E009F080E097
:1023B0007894E0E3F3E03197F1F7089580E0089531
:1023C0001F93CF93DF931F92CDB7DEB7162F0E94D6
:1023D000360D8F3F99F06091AB037091AC03680F9D
:1023E000711D198341E050E0CE0101960E949D2DA0
:1023F00081E00F90DF91CF911F91089580E0F9CF98
:10240000CF93C82F60E00E94E0118823A1F060E024
:1024100081E08C0F0E94E011882369F060E082E087
:102420008C0F0E94E011882331F060E083E08C0F74
:10243000CF910C94E01180E0CF910895EF92FF923C
:102440000F931F93CF93DF931F92CDB7DEB78C010D
:102450007B01E80EF91E198241E050E0B801CE017F
:1024600001960E949D2D0F5F1F4FE016F10699F710
:1024700081E00F90DF91CF911F910F91FF90EF902E
:1024800008951F93CF93DF93D82F162FC42F0E9448
:10249000020C0E94FC0B8D2F0E94F20B812F0E94D8
:1024A000F20B0E94F80B60E88D2F0E94060C1817A3
:1024B00099F080E0CC2361F04FEF4C0F612F8D2F0E
:1024C0000E944112EFECF7E03197F1F700C00000F5
:1024D000DF91CF911F91089581E0FACF85ED809330
:1024E000BC0080917E0290917F02A0918002B09109
:1024F00081020796A11DB11D23E0B695A79597957A
:1025000087952A95D1F72091BC0024FD03C0109235
:102510007C02089540917E0250917F02609180027A
:1025200070918102452B462B472B69F30097A1053B
:10253000B10541F02AE12A95F1F700C00197A10900
:10254000B109E1CF80917D020C945A09CF93CFEF6E
:1025500086E30E941C0CC150807731F08AE18A9595
:10256000F1F700C0C111F4CF8AE30E941C0C89E38B
:10257000CF910C941C0C0F931F93CF93DF93EC011E
:102580008B010E94150FCE010E94D40CB80183E08C
:10259000660F771F8A95E1F760577E4F48E050E05D
:1025A000CE0108960E94842D8885882389F0188A98
:1025B000198A60E673E0CE010E94AD0E8C898823F3
:1025C00039F0CE01DF91CF911F910F910C94340C13
:1025D000DF91CF911F910F9108950F931F93CF9388
:1025E000DF9300D01F92CDB7DEB78B0143E050E000
:1025F000BC01CE0101960E94842D9A818B81298194
:10260000F8012083918382830F900F900F90DF91C8
:10261000CF911F910F9108951F93CF93DF93EC01FA
:102620001FB7F89498898885981778F4CE010E948E
:10263000AD0E1FBF8823D9F08C898823F1F0CE011D
:10264000DF91CF911F910C94340C188A99859923AE
:1026500069F389898F5F898B891740F348E050E0DF
:1026600060E971E0CE0108960E94842D1FBFCE0163
:10267000DF91CF911F910C94D40CDF91CF911F91DA
:102680000895CF93DF931F92CDB7DEB7198241E053
:1026900050E0BC01CE0101960E948D2D89810F90E2
:1026A000DF91CF910895CF93DF93EC0188E10E94F1
:1026B000360D8F3F59F028813981820F932F911D5C
:1026C0000E9441138170DF91CF91089580E0FBCF8C
:1026D0008E960E945313811109C064E070E090E06F
:1026E00080E00E941E12F0E0E0E0099408950F934C
:1026F0001F93CF938C01862FC42F0E94360D8F3FDE
:1027000059F0F80120813181820F932F911DCF91D3
:102710001F910F910C9441138C2FCF911F910F910A
:102720000895EF92FF920F931F93CF93DF93EC01E5
:102730008B0140E06CE0C8010E947713F82E40E066
:102740006BE0C8010E947713E82E40E06AE0C80100
:102750000E9477138883E982FA82CE01DF91CF91BC
:102760001F910F91FF90EF9008958F929F92AF92DB
:10277000BF92CF92DF92EF92FF921F93CF93DF939E
:10278000EC01162F40E00E947713C82E61E0610F24
:1027900040E0CE010E947713D12CF12CE12CFC2CCF
:1027A000EE24DD24CC2490E0B0E0A0E0DC01992709
:1027B000882746015701880E991EAA1EBB1E62E09B
:1027C000610F40E0CE010E94771390E0B0E0A0E0FE
:1027D000CC24D82EE92EFA2EC80CD91CEA1CFB1CDE
:1027E00063E0610F40E0CE010E947713A7019601DC
:1027F000280F311D411D511DCA01B901DF91CF9133
:102800001F91FF90EF90DF90CF90BF90AF909F907F
:102810008F900895CF93DF93EC01CB011A82198238
:1028200018821B82642F04960E944D01009731F09C
:1028300044E050E0BC01CE010E948D2DCE01DF911D
:10284000CF910895EF92FF921F93CF93DF9300D023
:1028500000D0CDB7DEB77C0110E0412FB701CE012B
:1028600001960E940A14CE0101960E94860D8823CB
:1028700021F01F5F163089F71FEF812F0F900F9007
:102880000F900F90DF91CF911F91FF90EF900895DF
:10289000AF92BF92CF92DF92EF92FF921F93CF93AE
:1028A000DF9300D000D0CDB7DEB77C016B0110E024
:1028B0005C0184E0A80EB11C412FB701CE01019646
:1028C0000E940A14B601CE0101960E94A80D882329
:1028D00079F01B821A8219821C82612FC5010E9425
:1028E0004D0144E050E0BC01CE0101960E949D2DB7
:1028F0001F5F163009F781E00F900F900F900F9037
:10290000DF91CF911F91FF90EF90DF90CF90BF901C
:10291000AF900895AF92BF92CF92DF92EF92FF9265
:102920001F93CF93DF9300D000D0CDB7DEB77C01EB
:102930006B015A0110E0412FB601CE0101960E94B1
:102940000A14B501CE0101960E94A80D8823C1F09A
:10295000612FC60104960E944D010496F7019183F0
:102960008083C7010F900F900F900F90DF91CF9150
:102970001F91FF90EF90DF90CF90BF90AF900895A0
:102980001F5F1630C1F690E080E0E8CFCF93DF9371
:1029900000D000D000D01F92CDB7DEB7FC012111CE
:1029A0001FC086A597A59A83898386E18B8385E7D7
:1029B0009CE09D838C8383E49DE09F838E832981AB
:1029C0003A814B815C816D817E818F8190E0279679
:1029D0000FB6F894DEBF0FBECDBFDF91CF91089543
:1029E000662331F185A5861750F100A8F1A9E02DE5
:1029F000213069F44485558561E088EC9CE02EEC3B
:102A00003CE05A8349836B833D832C83D6CF2430AB
:102A1000B1F4BF01685F7F4FCE0101960E948A1416
:102A200049815A818CEB9CE022EC3CE061E0E9CFEB
:102A300090E080E030E020E050E040E0E2CF90E045
:102A400080E030E020E060E0F7CF0E949C34AF925D
:102A5000BF92CF92DF92EF92FF920F931F93CF938B
:102A6000DF93EC017B018B858B7F8B878E01035F6E
:102A70001F4F60EC8BE30E94060C18166CF1D12CF2
:102A80008AE30E941C0C8BE791E00197F1F700C0EC
:102A900000000E942B0C84E30E941C0CDD2009F432
:102AA00060C0DC868D8596E798279D8721E04D2DB7
:102AB00050E0BA0161507109A22FB0E0F801EA0FAD
:102AC000FB1F9081A617B7070CF043C084528927DB
:102AD00080832F5F892FF0CF60E88FE30E94060C80
:102AE000D82E4CE1481758F20E94020C0E94FC0BB1
:102AF0008FEF0E94F20BC02E58018A2D8C198D1574
:102B000038F480E00E94F20BF50181935F01F5CF6C
:102B10000E94F80B60E88FE30E94060C282F30E03B
:102B2000082E000C990B88279170A901481B590B9E
:102B3000CA0157FD019695958795919581959109C3
:102B4000865B898360E88FE30E94060C87FF97CF3E
:102B500097CF8E8589278083B801C70101960E948F
:102B6000AE34F701D0821C8660E0CE010E94DD0CFD
:102B7000F7018081DF91CF911F910F91FF90EF902E
:102B8000DF90CF90BF90AF9008952F923F924F92D9
:102B90005F926F927F928F929F92AF92BF92CF92ED
:102BA000DF92EF92FF920F931F93CF93DF93CDB7F6
:102BB000DEB7A3970FB6F894DEBF0FBECDBF6C0192
:102BC0008B01FA018081DB0117968C931797818125
:102BD00018968C931897828119968C9368E573E008
:102BE000CA010E94950D882329F0F80182818F7D0A
:102BF00084608283B8016C5F7F4FD6019A968D9175
:102C00009C910E94ED12F80182818068828346E0E7
:102C100064E1D60114968D919C910E947713B82E91
:102C2000811102C0BB24B394F601E480F58085E0F5
:102C30000E94360D8F3F09F45FC0D7012D913C9162
:102C4000820F932F911D0E944113782E72947694D7
:102C5000769443E0742241F0F6018281938162E030
:102C600070E002960E94BB1298012F5F3F4F3BA37A
:102C70002AA33AE0432E512C612CC801079699A350
:102C800088A3BB2009F487C1D6011296ED90FC9071
:102C90004701B2E38B0E911CF801828180718E8F07
:102CA0001701FFE32F0E311CD8014C9150E06AA1AF
:102CB0007BA1C1010E94AE34F8012081D701DE96CC
:102CC0002C93DE97DF968C91B6E78B27F70187AFC1
:102CD000E05CFF4F908161E02150330B462F50E0C4
:102CE000F101E40FF51F70814217530744F4845239
:102CF000872780836F5FF2CF77247394ADCF892FBE
:102D000087278083D701DE96BC91BF8FB7016C5CAB
:102D10007F4FF701A4ACAA2039F08FEC97E0019720
:102D2000F1F700C00000F5CFD70141AE52AE63AE5F
:102D3000E1E0DC96EC9380E693E00E94FB0D61E01D
:102D4000C4010E94DD0CE8982CE531E030930101CC
:102D500020930001D701DD968C91DD978260DD968E
:102D60008C9386E30E941C0C8BE30E941C0C28ECC5
:102D7000922E85E30E941C0CE7ECF0E03197F1F70E
:102D800000C000009A9491104FC086E30E941C0C72
:102D90008BE30E941C0C8DE30E941C0C84E30E94B8
:102DA0001C0C60EC85E30E94060C8D30B9F790E0B6
:102DB000D701DD968C91DD978D7FDD968C93EAEFC0
:102DC000FCE0F0930101E0930001809169008C7FA9
:102DD000826080936900E89ABA94992309F451CFEC
:102DE000D80112968C9185FFA8C088A199A10E9454
:102DF000860D882309F4A1C0CE0101960E94780DAA
:102E00008CE3F82EF60182819381DC01DD962C9112
:102E100022FD5AC0EFE1FEE43197F1F700C0000057
:102E2000FA94F110EFCF2DCF60EC85E30E94060CF1
:102E3000833109F09ECF8FE19EE40197F1F700C046
:102E400000009E8D992349F0AFE7BBE8E8E0A15070
:102E5000B040E040E1F700C000000E94020C0E9478
:102E6000FC0B8FE30E94F20B8F8D0E94F20B0E94ED
:102E7000F80B0E94020C0E94FC0B8FE70E94F20BE1
:102E80002E8E4101882DFE8D8F1B2F8D821730F4E1
:102E9000D4018D914D010E94F20BF4CF0E94F80BEA
:102EA00098EC992E60EC85E30E94060C8D3011F4AD
:102EB00091E07ECFE7ECF0E03197F1F700C0000041
:102EC0009A949110EFCFF4CFBE016F5F7F4FC296FF
:102ED0000E942715882309F49DCFD80111969C9153
:102EE0008A81981397CFBE016B5F7F4F88A199A10C
:102EF0000E94950D882309F48DCF8C81823041F496
:102F00008B85A82EA094AA1CAA24AA1C87FDB12CEC
:102F1000F801828181FD03C08B8180FF0BC0D60147
:102F200012968D919C9142E350E060E070E08996AA
:102F30000E94F00FAA2009F4A4CE11E0772049F0F6
:102F4000F6018281938111E063E070E002960E94B5
:102F5000BB12812FA3960FB6F894DEBF0FBECDBF74
:102F6000DF91CF911F910F91FF90EF90DF90CF9065
:102F7000BF90AF909F908F907F906F905F904F9099
:102F80003F902F900895D60112968D919C9110E05C
:102F900064E070E0DBCF7110F6CF10E0DACF0F9372
:102FA0001F93CF93DF93EC018B018AE18B871E8601
:102FB0001D864C871E8A6AA57BA5FB0171968491AC
:102FC0003197E491ED8B8AA3625F7F4F42E050E03E
:102FD000CE0146960E94842D6AA57BA56D5F7F4F2A
:102FE0004AE050E0CE0148960E94842D8DA58BA327
:102FF0006AA57BA56E5E7F4F42E050E0CE018496CD
:103000000E94842DBE01655F7F4FA801CE01DF9134
:10301000CF911F910F910C94C515FF920F931F93A1
:10302000CF93DF9300D01F92CDB7DEB78C01FC01A8
:103030008085282F2770962F9770887F892B80870F
:10304000623071F50789108DF801F680F394F682ED
:1030500064817581CE0101960E9491134F2DBE01AE
:103060006F5F7F4FC8010E94CF17F8018281938163
:1030700061E070E002960E94BB12F80182819381A8
:1030800040ED57E060E070E089960E94F00F0F90ED
:103090000F900F90DF91CF911F910F91FF900895A6
:1030A0006530A9F78789908D253059F48E960E9456
:1030B00053138111ECCFF8018789908D0E9468131A
:1030C000E6CFFC018281938167E070E002960E9466
:1030D000BB12DDCF2F923F924F925F926F927F9201
:1030E0008F929F92AF92BF92CF92DF92EF92FF9218
:1030F0000F931F93CF93DF93CDB7DEB7A6970FB68D
:10310000F894DEBF0FBECDBF8C017B011BA21AA2BB
:1031100019A2BE016F5D7F4FDC019A968D919C9143
:103120000E94ED122701B7E04B0E511CBE016F5DEE
:103130007F4FC2010E94950DC82E882309F474C0E8
:10314000F801C280D3805601F4E3AF0EB11CC50173
:103150000E94150F8AE090E0A0E0F60181AF92AFE7
:10316000A3AF81E084AFB50180E693E00E94FB0D40
:10317000D70112968C9186FDA8C0D70114968C9128
:103180001497F801878315968C911597808716966A
:103190008C911697818711968C911197828713963F
:1031A0008C9113971A96DC901A97813009F066C3B8
:1031B0001B963C90FAE03F129BC0D8019A966D9105
:1031C0007C916D5F7F4F4AE050E0CE0101960E94F6
:1031D000842D4AE050E0BE016F5F7F4FC7010C961F
:1031E0000E94A134892B09F079C3F801828193816F
:1031F00061E070E002960E94BB12D80112968D9198
:103200009C9140ED57E060E070E089960E94F00FDD
:10321000F7014081B7016C5F7F4FC8010E94CF1753
:10322000D12CC12C312C9AC0F701808189838181F6
:103230008A83B280BB82D380DC8284818D83858146
:103240008E8386818F838781888780858987818522
:103250008A8782858B87A384AC8681E13C96DE01D8
:103260001D9601900D928A95E1F768E573E0CE0115
:1032700008960E94950D882339F0F1E0DF1204C012
:103280002AE0A21609F45CCFB2FE05C080EC8D0DD9
:10329000823008F455CF8C2DA6960FB6F894DEBF79
:1032A0000FBECDBFDF91CF911F910F91FF90EF9097
:1032B000DF90CF90BF90AF909F908F907F906F9056
:1032C0005F904F903F902F900895B7016C5F7F4FB4
:1032D000C80107960E94950D882309F44ECFD801A6
:1032E0001A969C91F7018181981347CFC12CD3CFB7
:1032F000B1E03B12B5C0DD2009F4F0C2D8019D96C3
:103300008C919D978D1508F4E9C2D096CD90DC90F4
:10331000C7010E94B20D4701BCE08B0E911C560103
:10332000E8E0AE0EB11C813009F057C0B401C50110
:103330000E944814C5010E9422148F3F09F48DC0D9
:10334000682FC6010C960E944D0144E050E0BC017C
:10335000C4010E949D2D81E0F80184A7F7018281BC
:1033600085FF2DC0BE016F5D7F4FC2010E94950D8C
:10337000882329F1F1E03F12C5C2A7014C5F5F4FDE
:10338000C114D10409F4ADC2D8011296ED91FC919B
:1033900083A99EE0F701908392E0938312823286A4
:1033A000D6011B969C919387148615868687B70154
:1033B000C8010E94C515F60182858E7F8287D801DB
:1033C00012968D919C9142E350E060E070E0899606
:1033D0000E94F00FCC24C3945ECFD70150968C91FD
:1033E00050971C969C911C9799831D969C911D97B4
:1033F0009A831E969C919B838C83B401C5010E9485
:103400004814BE016F5F7F4FC5010E944814C5017B
:103410000E9422148F3F09F13601BCE06B0E711C33
:10342000682FC3010E944D0144E050E0BC01C4017B
:103430000E949D2DC5010E9422148F3F51F0682FDC
:10344000C3010E944D0144E050E0BC01CE01019651
:1034500080CFB401C5010E94481482E0382E7ECF8F
:10346000F2E03F1237C0DD2009F438C2D8019D9642
:103470008C919D978D1508F431C2D096CD90DC903B
:103480005601B8E0AB0EB11CB701645F7F4FC501B8
:103490000E944814982EC7010E94B20D823081F418
:1034A000F70180899485998395859A8396859B8376
:1034B0008C83BE016F5F7F4FC5010E944814982224
:1034C000992009F44BCF81E0D8019C968C9333244A
:1034D000339444CFB3E03B1270C0DD2009F4F0C058
:1034E000F80195A59D1508F49BCE60A871A8D70199
:1034F00011969C91119714962C9114972E8F1596D6
:103500002C9115972F8F16962C9128A35801BBE06C
:10351000AB0EB11C2AE1238720E1268720E2258714
:10352000858B94874801E6E18E0E911C6401212C65
:10353000312CF8E06F0E711C26E0221641F1422D6D
:10354000B301CE0101960E940A14CE0101960E9499
:10355000860D8823D1F0339484E0FE013196D601A4
:1035600001900D928A95E1F784E0C80ED11C94E099
:1035700039120BC0AE01425E5F4FB501C8010E9417
:10358000C5156401312C882311F02394D5CF84E034
:10359000D6011D928A95E9F7832D880F880F825FE7
:1035A000F801838785858F7D8587AE01425E5F4FF9
:1035B000B501C8010E94C51533CEF4E03F1282C0A8
:1035C000D70150962C91A701445F5F4F6D2DC80124
:1035D0000E94C61429833A834B835C836D837E8368
:1035E0008F83E981FA81FEA3EDA322E0322EEF2B37
:1035F00009F4B0C0D70111968C91119714969C9143
:1036000014979E8F15969C9115979F8F16969C9157
:1036100098A33801BBE06B0E711C9AE1F801938707
:1036200090E1968790E2958792E0958B84871801C8
:10363000F6E12F0E311C6101B12CA12C1CA28B8153
:103640008A151B0451F14CF1EC81FD818A2D0995FD
:10365000D6018C934601B2E08B0E911C8DA19EA1E8
:103660008A0D9B1D0E944113F6018183FCA1FF5F1F
:10367000FCA3F83059F4AE01425E5F4FB301C801BC
:103680000E94C515882339F041011CA22FEFA21A10
:10369000B20A6401D4CF61011CA2D6011C9211961A
:1036A0001C928CA18A5F880FF801838785858F7DA6
:1036B0008587AE01425E5F4FB301C8010E94C51508
:1036C000312C48C0FEE03F122CC0D801D096CD90DE
:1036D000DC90D197F70121811296ED91FC9183A99D
:1036E000D6011B969C91F801338630E1368736E08F
:1036F000358B2487968B178A108E818F82E0858781
:10370000A7014C5F5F4FB801655F7F4FC8010E9402
:10371000C515D6011A968C911A978E7F1A968C939E
:103720007FCDB5E03B1219C0F801D2AAD70150965F
:103730002C91A701445F5F4F6D2DC8010E94C614F4
:10374000F80123AB34AB45AB56AB67AB70AF81AF81
:1037500033243394D12CC12C01CEF6E03F1233C078
:10376000D8019C968C939C97D3962D913C91D4979D
:103770009E968D919C919F972817390781F41296F8
:103780008D919C9170E060E002960E94BB12D8017E
:10379000ED91FC910480F581E02DC80109958FEF32
:1037A000F80182AB8AE0D7018C9382E013968C9368
:1037B000139712968C9312971A961C92A7014C5F3E
:1037C0005F4FB701F6CEB8E03B1238C0F80182A9CE
:1037D0008D1519F0D12CC12C7ACE83A994A9892BEF
:1037E000C9F3F70180818B3008F48BE095EF992EB7
:1037F000980E5701FCE0AF0EB11C65018C2D8A19A3
:10380000891540F7D60111968C90D801D896ED9184
:10381000FC91D6018C9109958F3F61F0F80163A965
:1038200074A9680F711D898241E050E0CE010196B4
:103830000E949D2DF2E0CF0ED11CE0CF29E0321284
:103840004DC0D70111968C9194E1F801938790E1D6
:1038500096871586158A8487168A62A573A56D5F7B
:103860007F4F4AE050E0C80146960E94842DA70190
:103870004C5F5F4FB801655F7F4F9BCE813159F53B
:10388000F4E0DF1619F02AECD212CACC8AE0D70194
:103890008C9382E013968C93139712961C92129736
:1038A0001A961C92A7014C5F5F4FB701C8010E9496
:1038B000C515BAECDB120BC088E19CE00FB6F8949A
:1038C000A895809360000FBE90936000FFCFC80161
:1038D0000E946813A5CC823109F47CCFD12CC12C75
:1038E000BCCD8AE0D7018C9382E013968C9313971A
:1038F00012961C9212971A961C92B701C8010E9448
:10390000C5155DCDB2E03B125ACD8AE0F701808348
:103910003382128280E88287A7014C5F5F4FEDCF30
:103920000C9413340C9413340C9413340C941334FB
:10393000CF93DF93EC010E94090DCE01DF91CF916F
:103940000C9413340C9413340C9413340C941334DB
:10395000CF93DF93EC010E942E0DCE01DF91CF912A
:103960000C9413340C9413340C9413340C941334BB
:103970004F925F926F927F928F929F92AF92BF927F
:10398000CF92DF92EF92FF920F931F93CF93DF932B
:10399000CDB7DEB72C970FB6F894DEBF0FBECDBF04
:1039A0008C0180E090E0A0ECBFE789839A83AB8331
:1039B000BC838D839E83AF83B88789879A87AB87C3
:1039C000BC879E012B5F3F4FAE014F5F5F4FBE0133
:1039D000675F7F4FC8010B960E94C30389809A805E
:1039E000AB80BC8020E030E040E251E4C501B4018E
:1039F0000E94A82F0E94942EF80172836183C984CB
:103A0000DA84EB84FC8420E030E040E251E4C7013A
:103A1000B6010E94A82F0E949B2EF8017483638335
:103A20006185728590E080E00E94CA2E2B013C01E6
:103A3000AC019B010E946530811171C0A501940108
:103A4000C501B4010E946530811169C0A7019601CA
:103A5000C701B6010E946530811161C024EF3DEFBE
:103A600044ED5BE3C301B2010E94A82F2B013C018E
:103A7000AC019B01C501B4010E94B62D23E333E9DB
:103A800048E853E40E94B62D9B01AC01C301B2018A
:103A90000E94222E9B01AC0160E070E080E89FE371
:103AA0000E94B52D28E539E348EA50E40E9415301C
:103AB0009B01AC01C701B6010E94222E20E030E03C
:103AC00040E251E40E94A82F0E949B2EF8017683C9
:103AD000658320E030E040E251E46D817E818F819A
:103AE00098850E94A82F0E949B2EF80170876783FB
:103AF0002C960FB6F894DEBF0FBECDBFDF91CF91ED
:103B00001F910F91FF90EF90DF90CF90BF90AF90FB
:103B10009F908F907F906F905F904F90089560E09E
:103B200070E080EC9FE7CACF2F923F924F925F9256
:103B30006F927F928F929F92AF92BF92CF92DF92BD
:103B4000EF92FF920F931F93CF93DF93CDB7DEB722
:103B500066970FB6F894DEBF0FBECDBF8C017B8B8E
:103B60006A8BDC01D1961D921D921D921C92D497F6
:103B7000FC01E35AFF4F10861782168215821482C9
:103B80001382128211828081882319F0CF010E9452
:103B9000B81CF801E25AFF4F80819181F80194A787
:103BA00083A7EE59FF4F80819181D8019E969C9307
:103BB0008E939D97329680819181F80190AB87A773
:103BC000E65AFF4F2080222009F4A7C07801FDE4C7
:103BD000EF0EF11CD70111968D919C910E94AD11B1
:103BE0006CECF701818192810E94750B64E4D7012E
:103BF00011968D919C910E94750B6AE174E080E0B2
:103C000090E00E944B03312CFE013A96FF87EE872D
:103C1000E2E2FCEFD7011496FC93EE931397119612
:103C20008D919C910E94AD11D7011196AD90BC90E1
:103C300065E5C5010E94750B6701B5E0CB0ED11C8F
:103C40004701EDE08E0E911CD6016D916D01C5010D
:103C50000E94750BC814D904B9F76EEBF701818186
:103C600092810E94750BAE014F5F5F4F6A01488BD6
:103C7000D98AD70111966D907C9068E0A62EB12C60
:103C8000512C44244394C3010E94220B81115428D7
:103C9000440CB1E0AB1AB108B1F7F60151926F01D3
:103CA0004E855F854E175F0721F768E088899989FF
:103CB0000E940B0B998589132CC089819A81D701A9
:103CC00015962C91203109F022C253E0880F991FDC
:103CD0005A95E1F72885203141F42F81ECE0F0E09E
:103CE000E21BF109807F8E0F9F1FFAE0F89F900181
:103CF000F99F300D112437FF02C0215F3F4F44E090
:103D0000359527954A95E1F7D70114963C932E9364
:103D100013973394740123107BCFF801E05BFF4FBE
:103D200080819181F80194A783A70084F185E02D1B
:103D3000A281B38191968D919C91D801D9969C9343
:103D40008E93D89764E2848195810E94B5136115A2
:103D5000710541F0F80123A534A5C901860F971F0D
:103D600094A783A7D8011896ED91FC9168E284810D
:103D700095810E94B5136115710541F0F80125A5E3
:103D800036A5C901860F971F96A785A7D801189653
:103D9000ED91FC916CE2848195810E94B5136115CF
:103DA000710541F0F80127A530A9C901860F971FB9
:103DB00090AB87A7D8019B966D917C91072E000C44
:103DC000880B990B0E94CC2E20E030E040E251E4B9
:103DD0000E94222E6B017C01F80167A570A990E07A
:103DE00080E00E94CA2E20E030E040E251E40E94D0
:103DF000222E4B015C01A7019601C701B6010E946A
:103E00006530811192C1A5019401C501B4010E94E0
:103E1000653081118AC129E23CE54DE851E4C701D2
:103E2000B6010E94A82F2B013C0120E030E843E7B7
:103E300053E4C701B6010E94B62D9B01AC01C3013A
:103E4000B2010E94222E9B01AC0164E578EF8DE265
:103E500090E40E94153021E835E943EC50E40E94DB
:103E6000A82FA50194010E94A82F2BE63FE140E96D
:103E700051E40E94A82F2B013C0123E333E948E8D9
:103E800053E4C701B6010E94B62D24E138E045E0B5
:103E900051E40E94A82F9B01AC01C301B2010E9412
:103EA000222E20E030E048EC52E40E94A82F0E942D
:103EB0009B2ED801DC967C936E93DB97A70196012D
:103EC000C701B6010E946530811134C1A50194017A
:103ED000C501B4010E94653081112CC120E030E0A1
:103EE00048EC52E4C501B4010E94222E0E94602FCA
:103EF0004B015C0120E030E04DE851E4C701B60120
:103F00000E94A82F2B013C012DE33AE043E753E444
:103F1000C701B6010E94B62D9B01AC01C301B201DD
:103F20000E94222E6B017C01AC019B01C501B401F2
:103F30000E94B62D2DE33AE043E753E40E94A82FF8
:103F40002B013C01A501940160E070E08DE891E453
:103F50000E94B52DA70196010E94B52D9B01AC01D1
:103F6000C301B2010E94222E20E030E040E251E481
:103F70000E94A82F0E94942EF80176AF65AF0084AE
:103F8000F185E02D26812F5F2683D8019F968D91A4
:103F90009C9105966AE070E00E948F31462F3801AF
:103FA000BEE06B0E711CF801F5ADF88BD801DE9602
:103FB000BC91B98BF801F3ADFC8BD801DC96BC91B8
:103FC000BD8BF801E084F184D7011296ED91FC914C
:103FD000D801D896BC91BE8BD801D9962C90D99790
:103FE000D5963C90D597D1964C90D197D2965C902F
:103FF000D297D3968C90D397D4969C90D4979D9635
:10400000DC909D979E96CC909E979B96BC909B979C
:104010009C963C913F77A78C81A192A164E670E0C9
:104020000E948F31A616170611F008F03068822F13
:1040300064E10E94833184E0923009F482E299E1E4
:10404000F801968790E7918B808B308F2787B18E10
:10405000C28ED38E448F958E868E578E40A231A20B
:1040600022A24E8943A34D8944A34C8945A3498983
:1040700046A3488947A382FF62C08F7C8460808BFF
:1040800048E553E0B301C7010E94C515D801189651
:10409000ED91FC91C480D58040E060E2C6010E94B1
:1040A0007713F82E40E061E2C6010E9477132F2DAE
:1040B00030E0322F2227280F311DA4E6B0E00E9405
:1040C000C531F801658376838783B8018A899B8926
:1040D0000E94FB0D81E0D801DA968C9366960FB6AC
:1040E000F894DEBF0FBECDBFDF91CF911F910F912E
:1040F000FF90EF90DF90CF90BF90AF909F908F9008
:104100007F906F905F904F903F902F9008952D81FA
:10411000207611F4887FE9CD203211F48C7FE5CD33
:10412000203409F0E2CD8E7FE0CD60E070E080ECDD
:104130009FE7B7CE60E070E080EC9FE715CFD12C11
:10414000C12C412C580158E0A50EB11C480182E158
:10415000880E911C96E0C916D10409F498C04C2D24
:10416000B501CE010A960E940A14CE010A960E9459
:10417000860D382E882309F45EC0512C452DB501DB
:10418000CE0101960E940A14BE016F5F7F4FCE01DF
:104190000A960E94950D811106C05394A6E05A120A
:1041A000EDCF55245A945C141D040CF444C01B82BA
:1041B0001A821982BE016F5F7F4FF70182A593A516
:1041C0000E94ED12BE016F5F7F4FCE010A960E94E2
:1041D000950D8823F1F1B401D7019A968D919C91A8
:1041E0000E94ED12F8018289858B8389868B8489F0
:1041F000878B68E573E0C4010E94950D882341F028
:10420000D80150968C9150978F7D846050968C93F6
:10421000F801808985FF13C08F7D808BD701ED91D8
:10422000FC910680F781E02DB301C7010995F801E3
:1042300080898062808BBFEFCB1ADB0A8BCFD701DE
:10424000ED91FC910680F781E02DB301C70109953E
:10425000F2CFAE01465F5F4FB501CE0101960E94DD
:104260008A1489819A810E944113F801908980FF04
:104270000BC09061908BAE01465F5F4FB301C701E9
:104280000E94C515432CD7CF9F7E908BF4CF411051
:10429000FDCEF70164817581CE0101960E949113D4
:1042A000AE014F5F5F4FEECE1F920F920FB60F928F
:1042B00011242F933F934F935F936F937F938F932B
:1042C0009F93AF93BF93EF93FF9386EA92E00E9490
:1042D000DB01FF91EF91BF91AF919F918F917F9102
:1042E0006F915F914F913F912F910F900FBE0F9063
:1042F0001F9018951F920F920FB60F9211242F93B3
:104300008F939F93EF93FF93E091B602F091B702E2
:104310008081E091BC02F091BD0282FD1BC09081C2
:104320008091BF028F5F8F732091C002821741F08E
:10433000E091BF02F0E0EA55FD4F958F8093BF02F8
:10434000FF91EF919F918F912F910F900FBE0F9042
:104350001F9018958081F4CF1F920F920FB60F9285
:1043600011242F933F938F939F93AF93BF9380918B
:10437000120290911302A0911402B0911502309193
:10438000110226E0230F2D3758F50296A11DB11D0D
:10439000209311028093120290931302A0931402AF
:1043A000B09315028091160290911702A091180205
:1043B000B09119020196A11DB11D80931602909330
:1043C0001702A0931802B0931902BF91AF919F9169
:1043D0008F913F912F910F900FBE0F901F901895C6
:1043E00029E8230F0396A11DB11DD2CF1F920F9272
:1043F0000FB60F9211242F933F934F935F936F93B8
:104400007F938F939F93AF93BF93EF93FF93E0912D
:104410000201F09103010995FF91EF91BF91AF91D6
:104420009F918F917F916F915F914F913F912F91CC
:104430000F900FBE0F901F9018951F920F920FB6FE
:104440000F9211242F933F934F935F936F937F931A
:104450008F939F93AF93BF93EF93FF93E0910001EE
:10446000F09101010995FF91EF91BF91AF919F915B
:104470008F917F916F915F914F913F912F910F900D
:104480000FBE0F901F9018951F920F920FB60F92AC
:1044900011242F933F934F935F936F937F938F9349
:1044A0009F93AF93BF93EF93FF938091B900887F61
:1044B000803609F44AC0F0F5883209F4A7C018F52F
:1044C000803109F49BC0B8F4882309F4F9C088301E
:1044D00009F494C0FF91EF91BF91AF919F918F919B
:1044E0007F916F915F914F913F912F910F900FBEF0
:1044F0000F901F901895883109F488C0803251F7C9
:1045000080937A0214C0803409F49DC040F4803353
:10451000B9F38833F9F680937A0285ECB0C0803520
:1045200009F485C0883509F496C0883499F60E944C
:104530006E12D0CF883909F48CC038F5883729F04D
:1045400050F4883611F0803729F683E080937C029E
:104550001092F00157C0883809F47BC0803919F0F7
:10456000803809F0B7CF8091F001803208F071C037
:10457000E091F00181E08E0F8093F0018091BB000B
:10458000F0E0E053FE4F80833DC0803B39F0E0F423
:10459000803A09F479C0883A09F09CCF84E080938E
:1045A0007C021092CF011092CE01E0911E02F09198
:1045B0001F0209958091CE0181110FC081E0809387
:1045C000CE011092AE0109C0803C09F4A6CF883C10
:1045D00009F4A3CF883B09F07DCFE091CF0181E0C2
:1045E0008E0F8093CF01F0E0E255FE4F80818093E3
:1045F000BB009091CF018091CE0129C080915702DC
:104600008093BB0085EC8093BC0064CF90917902CD
:1046100080917802981758F5E091790281E08E0F29
:1046200080937902F0E0E85AFD4F8081E9CFE09174
:10463000790281E08E0F809379028091BB00F0E0D7
:10464000E85AFD4F80839091790280917802981703
:10465000C8F285E8D8CFE091790281E08E0F80938F
:1046600079028091BB00F0E0E85AFD4F8083809191
:104670007B0281115CCF81E08093560284EA8093B3
:10468000BC0010927C0226CF85EC8093BC00109277
:104690007C028091F001803230F4E091F001F0E092
:1046A000E053FE4F10826091F00170E0E0911C0237
:1046B000F0911D0280ED91E009951092F0010ACF72
:1046C00010927A0234CF1F920F920FB60F921124DC
:1046D0008F930FB6F894A8958091600088618093BD
:1046E0006000109260000FBE8F910F900FBE0F9070
:1046F0001F9018951F920F920FB60F9211242F93AF
:104700003F934F935F936F937F938F939F93AF9359
:10471000BF93CF93DF93EF93FF93CFE4D3E060E0B9
:1047200089810E94BC021092B1006A817B818C81D8
:104730009D810E949B2E6093B30081E08E83FF9148
:10474000EF91DF91CF91BF91AF919F918F917F9129
:104750006F915F914F913F912F910F900FBE0F90EE
:104760001F9018951F920F920FB60F9211240F9061
:104770000FBE0F901F9018951F920F920FB60F92B9
:1047800011242F933F934F935F936F937F938F9356
:104790009F93AF93BF93EF93FF93EBE5F3E0848197
:1047A0008F5F8483CF010E945E10FF91EF91BF91D4
:1047B000AF919F918F917F916F915F914F913F91B9
:1047C0002F910F900FBE0F901F9018951F920F9270
:1047D0000FB60F9211242F933F934F935F936F93D4
:1047E0007F938F939F93AF93BF93EF93FF9380E655
:1047F00093E00E945E10FF91EF91BF91AF919F9166
:104800008F917F916F915F914F913F912F910F9079
:104810000FBE0F901F9018951F920F920FB60F9218
:1048200011242F933F934F935F936F937F938F93B5
:104830009F93AF93BF93CF93EF93FF9399B1C091A1
:1048400022028091520230914F02292F209523237A
:104850008923822B20916D00C927C223C8239093FE
:104860002202CC23C1F1C0FF05C0E0912302F091E8
:1048700024020995C1FF05C0E0912502F0912602AE
:104880000995C2FF05C0E0912702F0912802099521
:10489000C3FF05C0E0912902F0912A020995C4FFE7
:1048A00005C0E0912B02F0912C020995C5FF05C0CF
:1048B000E0912D02F0912E020995C6FF05C0E0910E
:1048C0002F02F09130020995C7FF05C0E091310237
:1048D000F09132020995FF91EF91CF91BF91AF9185
:1048E0009F918F917F916F915F914F913F912F9108
:1048F0000F900FBE0F901F9018951F920F920FB63A
:104900000F9211242F933F934F935F936F937F9355
:104910008F939F93AF93BF93CF93EF93FF9396B1F2
:10492000C09133028091530230915002292F20957B
:1049300023238923822B20916C00C927C223C823FB
:1049400090933302CC2351F1C0FF05C0E0913402B3
:10495000F09135020995C1FF05C0E0913602F09152
:1049600037020995C2FF05C0E0913802F091390283
:104970000995C3FF05C0E0913A02F0913B02099509
:10498000C4FF05C0E0913C02F0913D020995C5FFCE
:1049900005C0E0913E02F0913F020995FF91EF9131
:1049A000CF91BF91AF919F918F917F916F915F91C7
:1049B0004F913F912F910F900FBE0F901F90189520
:1049C0001F920F920FB60F9211242F933F934F9384
:1049D0005F936F937F938F939F93AF93BF93CF9387
:1049E000EF93FF9393B1C0914202809154023091B2
:1049F0005102292F209523238923822B20916B009C
:104A0000C927C223C82390934202CC2351F1C0FF8F
:104A100005C0E0914302F09144020995C1FF05C031
:104A2000E0914502F09146020995C2FF05C0E09170
:104A30004702F09148020995C3FF05C0E091490281
:104A4000F0914A020995C4FF05C0E0914B02F09134
:104A50004C020995C5FF05C0E0914D02F0914E0250
:104A60000995FF91EF91CF91BF91AF919F918F9158
:104A70007F916F915F914F913F912F910F900FBE5A
:104A80000F901F901895BF92CF92DF92EF92FF92F6
:104A90000F931F93CF93DF93E6EAF2E01382128223
:104AA00088EE93E0A0E0B0E084839583A683B7838B
:104AB0002EE031E03183208325EC30E035872487F8
:104AC00024EC30E03787268720EC30E0318B208BD8
:104AD00021EC30E0338B228B22EC30E0358B248BC1
:104AE00026EC30E0378B268B118E128E138E148EAF
:104AF000E3E4F3E01382128284839583A683B78371
:104B000080E291E09183808310925603E8E5F3E020
:104B1000128211821082E0E6F3E011821082138289
:104B20001282EBE5F3E0118210821382128214826A
:104B3000EFEBF4E001E010E01183008313830283C4
:104B4000158304831783068385E0E82EF12CF18614
:104B5000E086138612861586148696E7C92ED12C18
:104B6000D786C686E3E6F4E01582148217821086A3
:104B7000118686E991E093838283128A138A148ACC
:104B8000158ABB24B394B68AB682128E118E138E08
:104B9000148E158E168E178E10A212A211A213A2B9
:104BA00014A215A216A28AE891E0908F878B88EC58
:104BB00090E090A787A314A613A616A617A610AA7E
:104BC00080E891E092A781A711AAB5A613AA17AA17
:104BD00016AA11AE12AE13AE86E791E095AB84AB88
:104BE00014AEB0AE88E085AF81EA94E00E94780D03
:104BF000CDE7D3E082E591E0998388831B821A8216
:104C00008BEA93E09D838C831E82198618861F820F
:104C10001A8688E893E00E94780D80E290E099A7D8
:104C200088A72AE032E03BA72AA71CA6BDA69FA71B
:104C30008EA78FEF8AAB1CAA1BAA1DAA1FAA1EAAA9
:104C400019AE18AE8EE591E0998388831092C00367
:104C50001092BF03E1ECF3E080818E7F8D7F808333
:104C60001092C2031092C4031092C3031DAE1CAE77
:104C70001EAE80E797E1A0E08093BC039093BD0354
:104C8000A093BE0388E491E09BAF8AAF85EC93E0EC
:104C90000E94780D1092E3031092E2031092E50354
:104CA0001092E4031092E7031092E6031092E803D7
:104CB0001092E9031092EA031092EB031092EC03B6
:104CC0001092EE031092ED031092F0031092EF0396
:104CD000B092F1031092F3031092F2031092F503D5
:104CE0001092F40360E080E10E94EA02E6E0F2E064
:104CF000E491E093F603E2EFF1E0E491F0E0EE0FEF
:104D0000FF1FE852FE4F859194919093F803809392
:104D1000F7031092010410920304109202041092FF
:104D200000041092FF031092FE031092FD031092F4
:104D3000FC031092FB031092FA031092F9031092F5
:104D40000404109206041092050482E29CEF9093F2
:104D50000804809307041092110410921404109216
:104D60001604109215041092180410921704109251
:104D70001A041092190410921C0410921B04109231
:104D80001E0410921D04109322040093210410931A
:104D90002404009323041093260400932504109305
:104DA000280400932704F0922A04E092290484E066
:104DB00090E090932C0480932B0410922E04109278
:104DC0002D041092510428E331E030932004209305
:104DD0001F0410935304009352041093550400933E
:104DE00054041093570400935604109359040093ED
:104DF0005804F0925B04E0925A0490935D0480930F
:104E00005C0410925F0410925E04D0926104C09220
:104E1000600487EB93E099AB88AB8AE691E09983D5
:104E20008883E4E6F3E013821282148215821682EC
:104E30001782ACE6B3E08C91887F816088608C93A8
:104E4000118617861686108A118A128A138A82E3BF
:104E500091E095878487F58BE48B80EA91E09183DC
:104E60008083D08FC78B8CE291E093878287DF911C
:104E7000CF911F910F91FF90EF90DF90CF90BF9057
:104E80000895CF93DF93CDB7DEB767970FB6F89449
:104E9000DEBF0FBECDBF789484B5826084BD84B57B
:104EA000816084BD85B5826085BD85B5816085BD25
:104EB00080916E00816080936E00109281008091DD
:104EC0008100826080938100809181008160809365
:104ED0008100809180008160809380008091B1008A
:104EE00084608093B1008091B00081608093B000B5
:104EF00080917A00846080937A0080917A00826049
:104F000080937A0080917A008E7F80937A008091DE
:104F10007A00806880937A001092C1008091AB0380
:104F20009091AC039C012A5E3F4F3E872D87D12C88
:104F3000CC24C39454EF452E55245394612CF09007
:104F4000AA03DF1408F073C1ED2DF0E0EE0FFF1F90
:104F5000E355FC4F00811181D394EDE7F3E0D801D4
:104F60001996FC93EE9318971B96DC921B972D8550
:104F70003E851D963C932E931C9718013DE4230E0D
:104F8000311C58018FE3A80EB11C1F86A45BBF4FD4
:104F9000B98BA88BF801E65BFF4FFB8BEA8B98017E
:104FA000255B3F4F3F8B2E8BC8018E5B9F4F9D8BA8
:104FB0008C8BA889B9898C9181112CC0C5010E9464
:104FC000AD11882339F160EFC5010E94750BEE2405
:104FD000E394812C712CFF24F394C5010E94220BD1
:104FE000982EC5010E94220BB1E09B127BC081303C
:104FF00009F09DC0E0E4EF1568F4AA89BB897C92B2
:10500000711003C0E889F989C082AC89BD898C918F
:105010008111A6C0F801E65BFF4F1082E889F9898B
:105020001082F801E55BFF4F1082329710823197B2
:105030001082319710823197108231971082319708
:105040001082319710823197108278962F852083B5
:10505000D8011896ED91FC91E480F58040E062E281
:10506000C7010E947713782E40E063E2C7010E94D7
:105070007713382E10922102109220021092830290
:105080001092A5020E943C09E9E4F1E0F0931F02AE
:10509000E0931E022AE431E030931D0220931C02AB
:1050A0003BE0232E78013DE5E30EF11C57018BE038
:1050B000A80EB11C480198E6890E911CC5010E94FA
:1050C0008208F40192A9992311F081117DC02A94DC
:1050D000222009F479C064E670E080E090E00E944C
:1050E0004B03ECCFE82DF0E0981215C0AA89BB89DC
:1050F0008C91F816D0F4D801AE0FBF1FAE5BBF4F36
:105100008C918E21A1F4912CB8E0BF1518F0AE89D6
:10511000BF89FC927F2CE00FF11FEE5BFF4F808177
:105120009E2D9095892380830CC08F11ECCFF801C0
:10513000E80DF11DEE5BFF4F80818E29808399245D
:105140009394692DC5010E94460BF394EE0C19F45B
:105150008394EE24E394B7E0B81508F03ECF4ACF2D
:10516000EC89FD89DE0111967D0181918D932A895B
:105170003B892E173F07C9F73F8531114BCF67E0B9
:10518000C7010E940B0B9885891313CF8981803149
:1051900029F0823219F0883209F00BCFD101129632
:1051A000BC92AE921197CC92F1013596BDE02B0ED8
:1051B000311CD7012D917D012193E215F305C9F72B
:1051C0001F01B1E0BF87F5CED401D0968D919C919F
:1051D0008835910549F18036910539F4F701C0828F
:1051E0006FEB74E0C5010E947808F7018081882385
:1051F00059F0872D90E0982F8827830D911D928775
:105200008187C7010E94B81CD80115964D925D9206
:105210006C92B80180E693E00E94FB0DED85FE855F
:105220007F96FE87ED878BCED701CC92D9CF60E0F9
:1052300090E080E00E94660D8C0186E6C82E81E039
:10524000D82EF6016491C8010E94660D8C01FFEF13
:10525000CF1ADF0A2CE7C21621E0D20691F7EE241E
:10526000E394FE14E8F080E00E94CE0C682FC801A1
:105270000E94660D8C0180E00E944B01682FC801DE
:105280000E94660D8C0180E00E94C20C682FC8014C
:105290000E94660D66E00E94660D8C01E394E1CFEA
:1052A00044E050E070E060E0CE0109960E948D2D50
:1052B000C801B0E0A0E0AE6FBA6C89839A83AB837B
:1052C000BC8349855A856B857C8584179507A6071D
:1052D000B70709F47DC03FEF81EE94E03150804084
:1052E0009040E1F700C0000044E050E070E060E072
:1052F000CE0101960E949D2D66E170E08091AB0386
:105300009091AC030E941E1285E00E94360D8F3FE3
:10531000C9F0082F10E08091AB039091AC03800F8F
:10532000911F0E9441136091AB037091AC03600F19
:10533000711F8F738064898341E050E0CE01019634
:105340000E949D2D68E182E10E94E01166E084E107
:105350000E94E01162E080E20E94E011882321F0C7
:1053600068E581E20E94E01160E082E20E94E011C3
:10537000882321F060E083E20E94E01184E20E9431
:10538000001288E20E9400128CE20E94001210E0DB
:105390008091AA031817E0F4E12FF0E0EE0FFF1F51
:1053A000E355FC4FE080F1806FE170E0D7011C967F
:1053B0008D919C910E941E12F7016485758519825A
:1053C00041E050E0CE0101960E949D2D1F5FE0CF8D
:1053D00083E694E09093800380937F031B821A827C
:1053E0001982BE016F5F7F4F8091A7039091A80340
:1053F0000E94ED1281E18093770461E00E94EA024D
:1054000085E694E00E94D40CE8988CE591E09093B6
:1054100001018093000185E994E090931B02809341
:105420001A0260E082E00E94EA0261E08AE00E94E3
:10543000EA0261E08BE00E94EA0260E08CE00E94F8
:10544000EA0261E08DE00E94EA0280E58CBD61E045
:105450008AE00E94BC0261E08DE00E94BC0260E034
:105460008BE00E94BC020E94020C0E94FC0B0E9476
:10547000F80BF5E8FA95F1F700000E94020C0E9483
:10548000FC0B80E30E94F20B0E94FC0B0E94F80BC5
:1054900002E311E0A6E6CA2EA1E0DA2EFF24F3947F
:1054A000F80131966491F801849143E00E94411221
:1054B000811101C0F12C0E5F1F4FC016D10681F77C
:1054C00083E30E941C0C8FEA93EB0197F1F700C075
:1054D000000043E060EC8EE30E944112FF2059F08F
:1054E0000E94020C0E94FC0B0E94F80B0E942B0CE5
:1054F00084E30E941C0C8AEF9CE09093010180934E
:105500000001809169008C7F826080936900E89A35
:1055100080E18093810010928000109285001092AB
:10552000840080E49CE9909387008093860081E169
:10553000809381000E946F0C66E070E0F11002C061
:1055400068E070E085E694E00E94BB128B8190E0F9
:1055500001962AE0289F8001299F100D112487E9D8
:1055600094E00E94150F24E630E0D8010E94D43167
:1055700028EE33E040E050E00E94A33120939C04E9
:1055800030939D0440939E0481E080939F0467E9DB
:1055900074E080E693E00E94FB0D61E089E00E94E8
:1055A000EA0260E089E00E94BC0260E08FE00E94B5
:1055B000EA0260E08FE00E94BC0280918A04909130
:1055C0008B04813D974030F080ED97E090938B0401
:1055D00080938A0487E880937A0010927B00E091A0
:1055E0007A04F0917B040680F781E02D8AE794E04D
:1055F0000995909385048093840480E09BEEA1E458
:10560000B0E08093860490938704A0938804B093BD
:10561000890480937F0490938004A09381046AE7B7
:1056200074E080E693E00E94FB0D88E180938204A1
:1056300086E1809383048091A503FCEFEF2EE80EB2
:10564000855090E004960E944113D82E00E01EE59C
:10565000EE2DE150FF0B7F01802F90E08E159F050E
:1056600034F404960E94411318270F5FF5CF1D11E3
:105670001DC084E090E00E944113182F85E090E067
:105680000E944113082F80EA810F8B3078F443E0A9
:1056900061E28DE00E94411243E0612F8EE00E94A2
:1056A000411243E0602F8FE00E94411288E0809316
:1056B0006D0362E00E94EA02EEEFF1E08491EAEE0F
:1056C000F1E09491923009F0D7C020915402282B38
:1056D0002093540220915102282B20935102E4E898
:1056E000F1E0A491923009F0D5C0B0E0AA0FBB1F41
:1056F000AD5BBD4F26EE3FE02D933C93ECEDF1E02A
:10570000A591B4919C91909342022BE630E03093A6
:10571000410220934002909168009160909368004C
:10572000A0914002B0914102EC918E2B8C9381E0CC
:105730008093A9039091AA03981708F0E4C016E09B
:105740000EE040E1B42E52E2A52EE12C0E9445105D
:10575000F82E8111DAC0E11004C00E9445108111B9
:10576000D6C080917F0390918003DC01DD962C915F
:1057700022FF23C068E873E0C2960E9427158A3092
:10578000E0F01B821A821982BE016F5F7F4F809109
:10579000A7039091A8030E94ED12BE016F5F7F4F97
:1057A0008CE893E00E94950D811107C068E873E0D2
:1057B0008DE793E00E946A18F82E882483948091E4
:1057C000AA03881508F4A5C0C090AD03D090AE031D
:1057D000F601828580FB772470F880FF4BC0E09152
:1057E0007F03F0918003F688168ACF0102960E940B
:1057F000D40C9090830393949092830360918103DF
:1058000070918203CE0101960E949113E0917F0373
:10581000F091800383A9D6011B969C910093880385
:10582000B0928B03A0928A03109392039092890303
:105830009093930310929403109295038093960390
:10584000AE014F5F5F4F68E873E08DE793E00E9421
:10585000C515F60182858E7F828780917F039091A6
:105860008003DC015696FC92F11004C002960E945F
:10587000D40CF72C8394A3CF933009F033C120913B
:105880005302282B2093530220915002282B20935F
:10589000500225CF9330D1F4B0E0AA0FBB1FAC5C0F
:1058A000BD4F26EE3FE02D933C93EEEDF1E0A59148
:1058B000B4919C91909333022CE630E030934102F6
:1058C0002093400290916800926028CF943009F0B4
:1058D00027CFB0E0AA0FBB1FAD5DBD4F26EE3FE066
:1058E0002D933C93E0EEF1E0A591B4919C919093BF
:1058F00022022DE630E03093410220934002909145
:10590000680094600BCF8F5F17CFEF2C1FCFE82E6E
:1059100024CFE110B0C0F110AEC08091840490910A
:10592000850464E670E00E948F31809183048617BD
:105930001706B9F0B0F08091A00480FD07C00E9466
:10594000A6128091A00481608093A00430E020E042
:1059500050E040E06AE070E085E592E00E94A40B30
:10596000F5CF809194048111B7C080916F008E7F34
:1059700080936F0080E693E00E94D60D009709F4B3
:1059800087C0FC01329709F483C0C580D680E780C8
:10599000F12C82E693E00E94D60D892B09F069C0B4
:1059A000B1E0CB16D104E104F10409F462C08091A6
:1059B000A00480FD07C00E94A6128091A00481600F
:1059C0008093A004E1E2CE16E3E0DE06E104F104F8
:1059D00008F062C0F5E6CF16D104E104F10408F046
:1059E00064C02DE0C216D104E104F10408F065C0E2
:1059F00032E0C316D104E104F10408F066C06AE0A5
:105A000070E0C12CD12C760130E020E050E040E085
:105A100085E592E00E94A40B80E693E00E94D60DFB
:105A2000009719F1FC01329701F181E0C81AD10801
:105A3000E108F10885819681A781AC016A2F70E0A9
:105A400041505109610971094C155D056E057F05CD
:105A500030F46C01EA2EB1E0CB1AD108E1088C19C0
:105A60009D09AE0985839683A78380E693E00E9413
:105A70005E100E946F0C80E090E0892B09F465CEE7
:105A80000E94C701882309F460CE0E9400005DCE09
:105A9000C12CD12C76017DCF69E070E030E2C32EBD
:105AA00033E0D32EE12CF12CAFCF66E070E024E69A
:105AB000C22ED12CE12CF12CA7CF63E070E09CE04A
:105AC000C92ED12CE12CF12C9FCF70E060E0C12CCD
:105AD000D12C7601C39498CF61E085E994E00E94CF
