:100000000C9435000C945D000C945D000C945D0024
:100010000C945D000C945D000C945D000C945D00EC
:100020000C945D000C945D000C945D000C945D00DC
:100030000C945D000C945D000C945D000C945D00CC
:100040000C9486020C945D000C9454020C942E02C5
:100050000C945D000C945D000C945D000C945D00AC
:100060000C945D000C945D00D20311241FBECFEFF1
:10007000D8E0DEBFCDBF11E0A0E0B1E0E4E4F8E0FD
:1000800002C005900D92AE3CB107D9F722E0AEEC6C
:10009000B1E001C01D92A437B207E1F710E0C5E35B
:1000A000D0E004C02197FE010E941504C433D1079B
:1000B000C9F70E94D0020C9420040C940000CF9247
:1000C000DF92EF92FF920F931F93CF93DF936C0118
:1000D0007A018B01C0E0D0E0CE15DF0589F0D801B0
:1000E0006D918D01D601ED91FC910190F081E02D93
:1000F000C6010995892B11F47E0102C02196ECCF2F
:10010000C701DF91CF911F910F91FF90EF90DF908A
:10011000CF900895089580E090E00895FC01538DFC
:10012000448D252F30E0842F90E0821B930B5417D1
:1001300010F0CF96089501970895FC01918D828D5E
:10014000981761F0828DDF01A80FB11D5D968C912B
:10015000928D9F5F9F73928F90E008958FEF9FEF36
:100160000895FC01918D828D981731F0828DE80FF2
:10017000F11D858D90E008958FEF9FEF0895FC01AC
:10018000918D228D892F90E0805C9F4F821B910979
:100190008F739927089587ED91E00E94BF0021E0B9
:1001A000892B09F420E0822F0895FC01848DDF0162
:1001B000A80FB11DA35ABF4F2C91848D90E00196DA
:1001C0008F739927848FA689B7892C93A089B189C9
:1001D0008C9180648C93938D848D981306C00288D3
:1001E000F389E02D80818F7D80830895EF92FF92C7
:1001F0000F931F93CF93DF93EC0181E0888F9B8D4A
:100200008C8D981305C0E889F989808185FD24C00B
:10021000F62E0B8D10E00F5F1F4F0F731127E02E8E
:100220008C8DE8120CC00FB607FCFACFE889F9896B
:10023000808185FFF5CFCE010E94D500F1CF8B8D57
:10024000FE01E80FF11DE35AFF4FF0820B8FEA89A0
:10025000FB898081806207C0EE89FF896083E8891D
:10026000F98980818064808381E090E0DF91CF9183
:100270001F910F91FF90EF900895CF93DF93EC01C2
:10028000888D8823C9F0EA89FB89808185FD05C0B6
:10029000A889B9898C9186FD0FC00FB607FCF5CFF0
:1002A000808185FFF2CFA889B9898C9185FFEDCF38
:1002B000CE010E94D500E7CFDF91CF91089580E075
:1002C00090E0892B29F00E94CB0081110C94000052
:1002D00008953FB7F8948091D3019091D401A091F3
:1002E000D501B091D60126B5A89B05C02F3F19F0C6
:1002F0000196A11DB11D3FBFBA2FA92F982F8827A6
:10030000820F911DA11DB11DBC01CD0143E0660FFF
:10031000771F881F991F4A95D1F708958F929F9252
:10032000AF92BF92CF92DF92EF92FF926B017C016E
:100330000E9469014B015C01C114D104E104F10484
:10034000F1F00E946901DC01CB0188199909AA0921
:10035000BB09883E9340A105B10570F321E0C21AA4
:10036000D108E108F10888EE880E83E0981EA11CF0
:10037000B11CC114D104E104F10419F7DDCFFF90E1
:10038000EF90DF90CF90BF90AF909F908F900895A7
:10039000009769F0FC0101900020E9F73197AF0167
:1003A000481B590BBC0187ED91E00C945F0080E085
:1003B00090E00895CF93DF930E94C801EC0182E1A1
:1003C00091E00E94C8018C0F9D1FDF91CF9108958D
:1003D0000F931F93CF93DF93CDB7DEB7A1970FB6DF
:1003E000F894DEBF0FBECDBF482F50E060E070E054
:1003F00019A2CE0181968A019B010F701127222735
:100400003327E4E07695679557954795EA95D1F7B8
:1004100001970A3011052105310510F4005D01C076
:10042000095CFC010083411551056105710519F74F
:100430000E94C8018C0182E191E00E94C801800FF6
:10044000911FA1960FB6F894DEBF0FBECDBFDF910E
:10045000CF911F910F9108950E941B041F920F923C
:100460000FB60F9211242F933F934F935F936F9387
:100470007F938F939F93AF93BF93EF93FF9387EDFA
:1004800091E00E94D500FF91EF91BF91AF919F91B4
:100490008F917F916F915F914F913F912F910F902D
:1004A0000FBE0F901F9018951F920F920FB60F92CC
:1004B00011242F938F939F93EF93FF93E091E70184
:1004C000F091E8018081E091ED01F091EE0182FD73
:1004D00012C090818091F0018F5F8F732091F101A4
:1004E000821751F0E091F001F0E0E952FE4F958F54
:1004F0008093F00101C08081FF91EF919F918F91D6
:100500002F910F900FBE0F901F9018951F920F9272
:100510000FB60F9211242F933F938F939F93AF9316
:10052000BF938091CF019091D001A091D101B09162
:10053000D2013091CE0126E0230F2D3720F4029610
:10054000A11DB11D05C029E8230F0396A11DB11DF2
:100550002093CE018093CF019093D001A093D1013D
:10056000B093D2018091D3019091D401A091D50193
:10057000B091D6010196A11DB11D8093D301909336
:10058000D401A093D501B093D601BF91AF919F91B3
:100590008F913F912F910F900FBE0F901F90189544
:1005A000789484B5826084BD84B5816084BD85B54E
:1005B000826085BD85B5816085BD80916E0081605A
:1005C00080936E0010928100809181008260809300
:1005D0008100809181008160809381008091800002
:1005E0008160809380008091B10084608093B1002D
:1005F0008091B00081608093B00080917A00846027
:1006000080937A0080917A00826080937A00809152
:100610007A008E7F80937A0080917A008068809340
:100620007A001092C10068EE73E080E090E00E94D2
:100630008E01E091E701F091E80182E08083E09192
:10064000E301F091E4011082E091E501F091E6010F
:1006500080E180831092EF01E091EB01F091EC01D9
:1006600086E08083E091E901F091EA018081806178
:100670008083E091E901F091EA01808188608083C4
:10068000E091E901F091EA01808180688083E09146
:10069000E901F091EA0180818F7D808384E191E01E
:1006A0000E94DA018CEF93E00E94FF03C82F85E1DE
:1006B00091E00E94C8018C2F0E94E8018CE391E038
:1006C0000E94C801809166000E94E8018FE491E0D9
:1006D0000E94DA0189E691E00E94DA0164EF71E09C
:1006E00080E090E00E948E0180E880936600C0E880
:1006F00087ED91E00E94BF00892B09F44AC087ED85
:1007000091E00E949D00D82F87ED91E00E949D000E
:1007100087ED91E00E949D0087ED91E00E949D0091
:1007200087ED91E00E943D01D335A1F48DE991E080
:100730000E94C801809166000E94E80160916600F5
:100740008CEF93E00E94070468EC70E080E090E09A
:100750000E948E01809166008F5F80936600809179
:100760006600893A10F0C093660068EC70E080E0A3
:1007700090E00E948E0184EC91E00E94C80180917B
:1007800066000E94E80164EF71E080E090E00E9462
:100790008E0164E670E080E090E00E948E010E948D
:1007A0005F01A6CFE7EDF1E01382128288EE93E0BD
:1007B000A0E0B0E084839583A683B78384E091E0D2
:1007C0009183808385EC90E09587848784EC90E02A
:1007D0009787868780EC90E0918B808B81EC90E00E
:1007E000938B828B82EC90E0958B848B86EC90E0EF
:1007F000978B868B118E128E138E148E0895F99915
:10080000FECF92BD81BDF89A992780B50895262F15
:10081000F999FECF1FBA92BD81BD20BD0FB6F894E5
:10082000FA9AF99A0FBE01960895EE0FFF1F0590F0
:10083000F491E02D099481E090E0F8940C94200468
:04084000F894FFCF5A
:1008440000000000F6005F008E003D01BF009D0027
:10085400B1000D0A00454550524F4D204F534343BC
:10086400414C2073746F726167652028416464721F
:10087400203078334643293A203078004465666155
:10088400756C74204F534343414C3A2030780073C5
:1008940074617274696E672077697468204F53437A
:1008A40043414C20307838300050726573732053C4
:1008B400656E64206F6E2073657269616C206D6F64
:1008C4006E69746F7220746F20696E6372656D65F2
:1008D4006E74206F6E6520737465702E0053746F90
:1008E40072696E6720454550524F4D204F53434324
:1008F400414C202841646472203078334643293ABD
:0E090400203078004F534343414C3A2000000E
:00000001FF
