:100000000C948A010C941A170C94F3160C94BE18D5
:100010000C945B180C94EA170C9441170C94581725
:100020000C94B2010C949A170C94B2010C94B20186
:100030000C94B2010C94C4170C94B2010C94B2014C
:100040000C94A9160C94B2010C9477160C945116CA
:100050000C94B2010C9490170C94B2010C94B20160
:100060000C94B2010C94B2013000303000303030CA
:100070000030303030003030303030003030303010
:10008000303000303030303030300020000D0A0089
:10009000202D200020002000200020002000200033
:1000A0000D0A002D3E2000007761697441636B3AB0
:1000B00020003C2D200000206C6F6E6772656C651F
:1000C0006173656400206C6F6E6770726573736531
:1000D0006400206465626F756E63650020707265F0
:1000E00073736564002072656C65617365640042BA
:1000F0004F4F544C4F4144455200484156452044CF
:100100004154410069676E6F726520002D3E2000EA
:100110005245534554000D0A005061636B657420CD
:10012000746F6F206269673A200043524320466132
:10013000696C65640000000000240027002A0000AC
:10014000000000250028002B00000000080002012C
:1001500000000304070000000000000000436F6E71
:1001600066696720467265713A2030783231002026
:100170002D2072656164790043432056657273696E
:100180006F6E3A2000002E0206030D04E905CA072F
:100190000C0B060D210E650F6A10C8119312031582
:1001A000341703181819161B431E2F1F65207823B8
:1001B000E9242A251F26113E033100526164696F2C
:1001C00020696E6974000D0A00496E6974205374C9
:1001D0006F726167653A20000A0B0C1420210D0A2A
:1001E00000202D2000416464726573732053706198
:1001F00063653A20004C6576656C4A657420696ECB
:100200006974000D0A000000000023002600290088
:1002100000010203040506070001020304050001B2
:100220000203040504040404040404040202020298
:1002300002020303030303030102040810204080A9
:1002400001020408102001020408102041736B53BE
:10025000696E2B2B2076352E302E33202846656292
:1002600020323620323032362031333A34303A338D
:1002700034290053746174654D616368696E65204B
:100280005265736574000D0A004352432045525273
:100290004F5200000000000000000002140505009D
:1002A00000000002010A0100000000000000000040
:1002B000000000000000000000000006030501012E
:1002C00001010A060101010501050A0206020200F8
:1002D00000000005010804040404000D0A00207257
:1002E0006561643A20002065787065637465643ADE
:1002F00020004572726F722061742000A5A6004C28
:100300004556454C4A4554303100F1041153010122
:100310002119EA1F11241FBECFEFD8E0DEBFCDBFE9
:1003200011E0A0E0B1E0E2ECF9E402C005900D922A
:10033000AC3FB107D9F724E0ACEFB1E001C01D92AA
:10034000A933B207E1F711E0C9E8D1E004C0219771
:10035000FE010E94BB20C838D107C9F70E94371A96
:100360000C94D4240C940000782F8827769531F0D3
:1003700008F48627660F08F46427F8CF08F4862768
:1003800008958FEF0895663050F4FC0180819181CB
:100390000196F5E06F9F800D911D1124089590E066
:1003A00080E008950895AF92BF92CF92DF92EF92CE
:1003B000FF920F931F93CF93DF936C017B018B010F
:1003C000040F151FEB015E01AE18BF08C017D1075F
:1003D00059F06991D601ED91FC910190F081E02DE9
:1003E000C6010995892B79F7C501DF91CF911F913E
:1003F0000F91FF90EF90DF90CF90BF90AF90089556
:10040000FC01538D448D252F30E0842F90E0821B1A
:10041000930B541710F0CF96089501970895FC019F
:10042000918D828D981761F0A28DAE0FBF2FB11DF7
:100430005D968C91928D9F5F9F73928F90E008954F
:100440008FEF9FEF0895FC01918D828D981731F009
:10045000828DE80FF11D858D90E008958FEF9FEF5D
:100460000895FC01918D228D892F90E0805C9F4F33
:10047000821B91098F73992708958FE392E00E9460
:10048000310221E0892B09F420E0822F089580E0D9
:1004900090E0892B29F00E943D0281110C9400000C
:1004A0000895FC01A48DA80FB92FB11DA35ABF4F09
:1004B0002C91848D90E001968F739927848FA68963
:1004C000B7892C93A089B1898C91837080648C93B7
:1004D000938D848D981306C00288F389E02D808166
:1004E0008F7D80830895EF92FF920F931F93CF9398
:1004F000DF93EC0181E0888F9B8D8C8D98131AC05F
:10050000E889F989808185FF15C09FB7F894EE8945
:10051000FF896083E889F9898081837080648083A2
:100520009FBF81E090E0DF91CF911F910F91FF90ED
:10053000EF900895F62E0B8D10E00F5F1F4F0F7395
:100540001127E02E8C8D8E110CC00FB607FCFACF50
:10055000E889F989808185FFF5CFCE010E9451029B
:10056000F1CFEB8DEC0FFD2FF11DE35AFF4FF08221
:100570009FB7F8940B8FEA89FB8980818062CFCF87
:100580000F931F93CF93DF938C01D0E0C0E0F8016D
:10059000EC0FFD1F6491662341F08FE392E00E940F
:1005A0007302892B11F02196F2CFCE01DF91CF910A
:1005B0001F910F910895CF93DF93EC01888D8823CD
:1005C000B9F0AA89BB89E889F9898C9185FD03C0B6
:1005D000808186FD0DC00FB607FCF7CF8C9185FF9B
:1005E000F2CF808185FFEDCFCE010E945102E9CF8D
:1005F000DF91CF910895833081F028F4813099F014
:100600008230A9F008958730A9F08830C9F084308D
:10061000B1F4809180008F7D03C0809180008F773E
:1006200080938000089584B58F7784BD089584B544
:100630008F7DFBCF8091B0008F778093B0000895BD
:100640008091B0008F7DF9CFCF93DF93282F30E0DA
:10065000F901E75BFE4F8491F901E85CFD4FD4910D
:10066000F901EC5DFD4FC491CC23A1F081110E94F2
:10067000FB02EC2FF0E0EE0FFF1FEA5FFD4FA591AC
:10068000B491EC91ED2381E090E009F480E0DF91FA
:10069000CF91089580E090E0FACF1F93CF93DF933E
:1006A000282F30E0F901E75BFE4F8491F901E85C07
:1006B000FD4FD491F901EC5DFD4FC491CC23A9F01D
:1006C000162F81110E94FB02EC2FF0E0EE0FFF1FAE
:1006D000E15CFE4FA591B4918FB7F894EC911111A4
:1006E00008C0D095DE23DC938FBFDF91CF911F919F
:1006F0000895DE2BF8CFCF93DF9390E0FC01E85C08
:10070000FD4F24918C5D9D4FFC0184918823C9F09D
:1007100090E0880F991FFC01EB5CFE4FA591B4910E
:10072000FC01E15CFE4FC591D49161110DC09FB7F2
:10073000F8948C91209582238C9388812823288398
:100740009FBFDF91CF910895623051F49FB7F89425
:100750003C91822F809583238C93E8812E2BEFCFC1
:100760008FB7F894EC912E2B2C938FBFEACF3FB725
:10077000F8948091020290910302A0910402B0913A
:10078000050226B5A89B05C02F3F19F00196A11DB3
:10079000B11D3FBFBA2FA92F982F8827BC01CD01CB
:1007A000620F711D811D911D43E0660F771F881F29
:1007B000991F4A95D1F708958EBD0DB407FEFDCF60
:1007C0008EB5089561E08AE00C944D038CE00E94A0
:1007D00024038111FBCF089560E08AE00C944D035F
:1007E000CF93C82F0E94EC030E94E6038C2F0E9437
:1007F000DC03C82F0E94E2038C2FCF91089586E37B
:100800000E94F0038DE30E94F0038AE30C94F0034E
:10081000CF93DF93D82FC62F0E94EC030E94E603EC
:100820008D2F8C2B0E94DC0380E00E94DC03C82FFC
:100830000E94E2038C2FDF91CF910895FC01828901
:10084000938960E0911101C061E00C944D03FC01BB
:10085000108608950895FC018289938961E09111C1
:1008600001C060E00C944D03E0910602F091070294
:10087000838581FD03C083858C60838708958130E3
:1008800011F08FEF089580E00895882311F08FEF25
:10089000089581E00895883011F08FEF089580E089
:1008A0000895882311F08FEF089588E00895863029
:1008B00030F4E82FF0E0E852FE4F849108958FEF76
:1008C000089508950895089580E0089508950F9378
:1008D0001F93CF93DF932CE331E0FC01318320831E
:1008E0008C01065C1F4F79F0EC01C459DF4F0C17E7
:1008F0001D0749F0E297E881F9810280F381E02D3C
:10090000CE010995F4CFDF91CF911F910F910895FA
:10091000089508950C94C0020E948A0480EA90E031
:100920000C948A040F931F93CF938C01C62F82EDF2
:1009300090E06430A1F058F485EE90E0623079F0F8
:100940008CED90E0633059F086EB90E008C085ECC8
:1009500090E0653021F087EB90E06630A9F70E94C7
:100960008C04C770F8018085887FC82BC087CF9121
:100970001F910F91089528E431E0FC013183208319
:100980000C9467040895982FE8EDF1E080E024913D
:10099000921729F08F5F31968630C9F78FEF08954F
:1009A0000C94C304862728E0BC0176956795AC01BA
:1009B0004170552780FF02C041E050EACB018427F7
:1009C0009527215089F70895FC0110821182128227
:1009D000138216821582148211861086178212865F
:1009E00013860895FC018081811109C081818111E4
:1009F00006C081E09281911103C080E0089581E0FA
:100A00000895DC01FB019C91808198130BC0119625
:100A10009C9111978181981305C081E012962C91C9
:100A20009281291380E00895CF93DF93EC01FB01BD
:100A300080818F83818188878281898765EE72E0DA
:100A4000CF010E940105882321F08A818F7D846077
:100A50008A83DF91CF910895FC013381FB012381CB
:100A6000321302C00C94010580E00895CF93DF9308
:100A700000D000D0CDB7DEB7FC0180899485998382
:100A800095859A8396859B838C83882389F0BF0103
:100A9000645F7F4FCE0101960E942C05811108C032
:100AA00082E00F900F900F900F90DF91CF910895FB
:100AB00081E0F7CF2FB7F894FC01808191812FBF9F
:100AC0000895FF920F931F93CF93DF93EC018B0157
:100AD000FFB6F8940E945A059C019FB7F894F8015C
:100AE000318320839FBF8FB7F894198308838FBF0A
:100AF000FFBEDF91CF911F910F91FF9008956F92EC
:100B00007F928F92DF92EF92FF920F931F93CF937A
:100B1000DF937B0122E0E20EF11CDB0115962D91A3
:100B20003D914C91232B242B09F44DC0EB01DFB6F2
:100B3000F8942C8122602C838C010E945A05009726
:100B400009F43EC0FC013297A1F065807680878071
:100B50002D813E814F81CF01029662167306840675
:100B600050F42619370948092D833E834F838C01A1
:100B7000E4CF90E080E02FB7F8949B838A832FBF67
:100B80008FB7F894D801ED92FC928FBF309761F047
:100B900085819681A7812D813E814F81821B930B98
:100BA000A40B85839683A783DFBEDF91CF911F912E
:100BB0000F91FF90EF90DF908F907F906F9008954E
:100BC000F0E0E0E0D8CFB7010296DF91CF911F911E
:100BD0000F91FF90EF90DF908F907F906F900C942B
:100BE00061051F93CF93DF93EC01FB012885922FC2
:100BF0009770943079F040F4923051F0933039F19D
:100C0000DF91CF911F910895953009F19630C1F78A
:100C100011E012C023FD21C02A853B8525503109F2
:100C200013E02115310541F040E02D833E834F83D1
:100C3000BE01CF010E947F05E881F9810680F7811E
:100C4000E02D612FCE01DF91CF911F91099423FDFB
:100C5000D7CF2A853B8515E0E4CF25E030E012E0D0
:100C6000E3CF0F931F93CF93DF93EC018B01E889C0
:100C700081E08E0F888BEC0FFD2FF11D228530E077
:100C8000A4E6B0E00E94A5202AE030E040E050E079
:100C90000E9483202D833E834F83BE01C8010E94A2
:100CA0007F0588898170DF91CF911F910F91089501
:100CB000EF92FF920F931F93CF93DF93EC01FFB658
:100CC000F8940E945A058C01892B71F0EFB6F894C4
:100CD000CE010E945A050E945A059C019FB7F894C4
:100CE000398328839FBFEFBEFFBEC801DF91CF913C
:100CF0001F910F91FF90EF900895BF92CF92DF92D6
:100D0000EF92FF920F931F93CF93DF93EC01FFB607
:100D1000F8948C818D7F8C838DEE92E00E945A0531
:100D20000097C9F19C01225031098DEE92E0211506
:100D3000310589F189010E5F1F4FC217D30709F5ED
:100D40000E945806C8010E945A05009779F0FC01DC
:100D5000329761F085819681A7812D813E814F81F7
:100D6000820F931FA41F85839683A783FFBEDF9105
:100D7000CF911F910F91FF90EF90DF90CF90BF9098
:100D80000895C8010E945A05009729F09C0122503D
:100D90003109C801CCCF6E0182E0C80ED11CEFB67C
:100DA000F894BFB6F8948FEE92E00E945A05EC01D9
:100DB0002FEE32E0209779F010E000E0CC16DD064F
:100DC00009F48901CE010E945A059E010115110501
:100DD00021F4EC01EFCF10E000E0BFBE01151105DA
:100DE00011F4EFBEC3CFC8010E945806FACF0F938B
:100DF0001F93CF93DF93FC01C085D18589850E9425
:100E00002403988593FB002700F910E08017110652
:100E1000C1F180FB93F99887892F8770292F28705B
:100E200093FD02C0813069F5182F833019F18530A8
:100E300009F1813079F414E0CE010E947D0685E04D
:100E400090E0A0E08D839E83AF83BE018DEE92E0A3
:100E50000E947F0588858770811799F0E881F98164
:100E60000680F781E02D612FCE01DF91CF911F9198
:100E70000F910994222371F312E08330E9F216E016
:100E8000DBCFDF91CF911F910F9108958DEF92E00D
:100E90000E947D066DEF72E08DEE92E00C947F056E
:100EA0008F929F92AF92BF92CF92DF92EF92FF927A
:100EB000CF93DF93EC014A015B018DEE92E00E943B
:100EC0005A050097B9F481E08887CE010E947D061B
:100ED0008D829E82AF82BE018DEE92E0DF91CF9136
:100EE000FF90EF90DF90CF90BF90AF909F908F904A
:100EF0000C947F050297C12CD12C7601009719F331
:100F0000FC01258136814781642FA90170E0C40E60
:100F1000D51EE61EF71EC817D90739F002960E94A3
:100F20005A05009781F20297E9CFC814D904EA0460
:100F3000FB0448F2DF91CF91FF90EF90DF90CF90CC
:100F4000BF90AF909F908F900895CF92DF92FF92C5
:100F50000F931F93CF93DF938C01FFB6F8940E94F9
:100F60005A05009769F1EC01229751F18D819E811C
:100F7000AF810197A1098D839E83AF83680182E0D1
:100F8000C80ED11C8D819E81AF81892B8A2BC1F423
:100F9000C8010E9458068C8180FF1CC08D7F8C8305
:100FA000E881F9810190F081E02DB801CE01099529
:100FB000C8010E945A05009719F0EC01229711F719
:100FC000FFBEC801DF91CF911F910F91FF90DF907D
:100FD000CF900895BE016E5F7F4FC6010E946105EC
:100FE000E7CF8F929F92AF92BF920F931F93CF93B1
:100FF000DF93CDB7DEB7A1970FB6F894DEBF0FBE73
:10100000CDBF19A2423008F44AE08E010F5D1F4F98
:10101000842E912CB12CA12CA50194010E94832037
:10102000E62FB901CA01EA3044F5E05DD801EE933C
:101030008D01232B242B252B79F790E080E010974E
:1010400069F0FD0101900020E9F73197AF014A1BDB
:101050005B0BBD018FE392E00E94D301A1960FB616
:10106000F894DEBF0FBECDBFDF91CF911F910F91DE
:10107000BF90AF909F908F900895E95CD7CFCF92AB
:10108000DF92EF92FF926B017C0180E1C816D104E0
:10109000E104F10468F483E890E00E94C00240E1BA
:1010A000C701B601FF90EF90DF90CF900C94F1074D
:1010B0008FEFC816D104E104F10409F018F48CE7AD
:1010C00090E0EBCFC11480E1D806E104F10418F4FC
:1010D00086E790E0E2CFC114D10481E0E806F10494
:1010E00018F481E790E0D9CFC114D10480E1E8067B
:1010F000F10418F48DE690E0D0CFC114D104E104DE
:1011000081E0F80618F48AE690E0C7CFC114D10454
:10111000E10480E1F80618F688E690E0BECFCF93B0
:10112000C82F803128F460E38FE392E00E947302BD
:101130006C2F70E090E080E040E1CF910C94F107DB
:10114000EF92FF920F931F93CF93DF93EC0188816F
:101150000E948F088EE990E00E948A0489810E9493
:101160008F088CE990E00E948A048A810E948F088F
:101170008AE990E00E948A048B810E948F0888E9A6
:1011800090E00E948A048C810E948F088D810E94C9
:101190008F088E810E948F0886E990E00E948A0461
:1011A0008F810E948F0888850E948F0889850E9400
:1011B0008F0884E990E00E948A04088109502A96E9
:1011C0007E0110E0C7018C1B9D0B8017910754F422
:1011D000F70181917F010E948F088BE890E00E94C7
:1011E0008A04F0CF80E990E00E948A042FB7F89437
:1011F00060913B0270913C0280913D0290913E02D1
:101200002FBF4AE00E94F1078DE890E0DF91CF9177
:101210001F910F91FF90EF900C948A04009769F052
:10122000FC0101900020E9F73197AF01481B590BF1
:10123000BC018FE392E00C94D30190E080E008952C
:101240001F93CF93DF931F92CDB7DEB7162F0E9467
:10125000C3048F3F99F06091340370913503680F98
:10126000711D198341E050E0CE0101960E940720D4
:1012700081E00F90DF91CF911F91089580E0F9CF29
:10128000EF92FF920F931F93CF93DF931F92CDB7EF
:10129000DEB78C017B01E80EF91E198241E050E0B7
:1012A000B801CE0101960E9407200F5F1F4FE01684
:1012B000F10699F781E00F90DF91CF911F910F9187
:1012C000FF90EF9008950F931F93CF93DF93D82F44
:1012D000C62F142F0E94EC030E94E6038D2F0E945C
:1012E000DC038C2F0E94DC030E94E20360E88D2F58
:1012F0000E940804082F81E0C01771F0112389F0C3
:101300004FEF410F6C2F8D2F0E946309EFECF7E038
:101310003197F1F700C00000DF91CF911F910F913D
:10132000089582EF92E00E948A048D2F0E948F0818
:1013300086EE92E00E948A048C2F0E948F088EED28
:1013400092E00E948A04802F0E948F088BED92E029
:101350000E948A0480E0E0CFCF93C8EC60EC85E384
:101360000E9408048D3049F0C15039F08FE891E0B7
:101370000197F1F700C00000F1CF81E0C11101C079
:1013800080E0CF9108950F931F93CF93DF93EC01EB
:101390008B010E947D06CE010E942B04B80183E0E0
:1013A000660F771F8A95E1F76D567D4F48E050E054
:1013B000CE0108960E94EE1F8885882389F0188A3E
:1013C000198A6DEE72E0CE010E9431068C89882365
:1013D00039F0CE01DF91CF911F910F910C941E0433
:1013E000DF91CF911F910F9108950F931F93CF938A
:1013F000DF9300D01F92CDB7DEB78B0143E050E002
:10140000BC01CE0101960E94EE1F9A818B81298139
:10141000F8012083918382830F900F900F90DF91CA
:10142000CF911F910F9108951F93CF93DF93EC01FC
:101430001FB7F89498898885981778F4CE010E9490
:1014400031061FBF8823D9F08C898823F1F0CE01A3
:10145000DF91CF911F910C941E04188A99859923CE
:1014600069F389898F5F898B891740F348E050E0E1
:1014700063E972E0CE0108960E94EE1F1FBFCE0105
:10148000DF91CF911F910C942B04DF91CF911F918D
:101490000895CF93DF931F92CDB7DEB7198241E055
:1014A00050E0BC01CE0101960E94F71F89810F9088
:1014B000DF91CF910895CF93DF93EC0188E10E94F3
:1014C000C3048F3F59F028813981820F932F911DDA
:1014D0000E94490A8170DF91CF91089580E0FBCF8F
:1014E0008A960E945B0A81110DC080E191E00E9402
:1014F0008C0464E070E090E080E00E944009F0E03D
:10150000E0E0099408950F931F93CF938C01862FE9
:10151000C42F0E94C3048F3F59F0F801208131810C
:10152000820F932F911DCF911F910F910C94490A17
:101530008C2FCF911F910F910895EF92FF920F93EF
:101540001F93CF93DF93EC018B0140E06CE0C80167
:101550000E94830AF82E40E06BE0C8010E94830AD3
:10156000E82E40E06AE0C8010E94830A8883E9828D
:10157000FA82CE01DF91CF911F910F91FF90EF90F2
:1015800008950F931F93CF938C0140E060E20E9477
:10159000830AC82F40E061E2C8010E94830A2C2F11
:1015A00030E0322F2227820F932F911DCF911F9170
:1015B0000F9108950F931F93CF938C018AE791E0C9
:1015C0000E940E0983E092E00E948A04065D1F4F8C
:1015D00046E064E1C8010E94830AC82F811101C05E
:1015E000C1E080E991E00E940E096C2F70E090E06C
:1015F00080E04AE00E94F10786E191E00E948A04BF
:10160000C8010E94C10A8C0184EA91E00E940E097F
:10161000B80190E080E04AE00E94F1078EED91E091
:10162000CF911F910F910C948A04CF93DF93EC011B
:10163000CB011A82198218821B82642F04960E94A1
:10164000C301009731F044E050E0BC01CE010E949C
:10165000F71FCE01DF91CF910895EF92FF921F9374
:10166000CF93DF9300D000D0CDB7DEB77C0110E080
:10167000412FB701CE0101960E94150BCE010196B4
:101680000E94F204882321F01F5F163089F71FEFB4
:10169000812F0F900F900F900F90DF91CF911F919E
:1016A000FF90EF900895CF92DF92EF92FF921F93F9
:1016B000CF93DF9300D000D0CDB7DEB77C016B01B4
:1016C00010E0412FB701CE0101960E94150BBE011B
:1016D0006F5F7F4FC6010E942C05811103C01F5F01
:1016E000163079F70F900F900F900F90DF91CF91F8
:1016F0001F91FF90EF90DF90CF900895AF92BF922F
:10170000CF92DF92EF92FF921F93CF93DF9300D09F
:1017100000D0CDB7DEB77C016B0110E05C0184E046
:10172000A80EB11C412FB701CE0101960E94150BE6
:10173000B601CE0101960E942C05882379F01B8208
:101740001A8219821C82612FC5010E94C30144E0E4
:1017500050E0BC01CE0101960E9407201F5F1630A9
:1017600009F781E00F900F900F900F90DF91CF91CC
:101770001F91FF90EF90DF90CF90BF90AF900895B2
:10178000AF92BF92CF92DF92EF92FF921F93CF93CF
:10179000DF9300D000D0CDB7DEB77C016B015A01DA
:1017A00010E0412FB601CE0101960E94150BB50144
:1017B000CE0101960E942C058823C1F0612FC6013D
:1017C00004960E94C3010496F70191838083C701A8
:1017D0000F900F900F900F90DF91CF911F91FF907E
:1017E000EF90DF90CF90BF90AF9008951F5F1630BD
:1017F000C1F690E080E0E8CFCF93DF9300D000D037
:1018000000D01F92CDB7DEB7FC0121111FC082A509
:1018100093A59A83898386E08B8387E594E09D83F3
:101820008C8380ED94E09F838E8329813A814B8164
:101830005C816D817E818F8190E027960FB6F89450
:10184000DEBF0FBECDBFDF91CF910895662331F18A
:1018500081A5861750F104A4F5A5E02D213069F487
:101860004485558561E08BE494E021E534E05A83BA
:1018700049836B833D832C83D6CF2430B1F4BF01E1
:10188000685F7F4FCE0101960E94C00B49815A814B
:101890008FE394E025E434E061E0E9CF90E080E07C
:1018A00030E020E050E040E0E2CF90E080E030E047
:1018B00020E060E0F7CFAF92BF92CF92DF92EF923D
:1018C000FF920F931F93CF93DF93EC016B018B85F6
:1018D0008B7F8B877E014DE0E40EF11C60EC8BE387
:1018E0000E94080418160CF040C060E88FE30E94C4
:1018F0000804182F8D3108F05DC00E94EC030E948F
:10190000E6038FEF0E94DC030E2D57018A2D801B0A
:10191000811738F480E00E94DC03F50181935F01B8
:10192000F5CF0E94E20360E88FE30E940804282FAD
:1019300030E0082E000C990B88279170A901481BF4
:10194000590BCA0157FD01969595879591958195FB
:101950009109865B898360E88FE30E94080487FD14
:1019600005C08AE291E00E948C0410E00E94FF030F
:1019700084E30E94F0030FEF010F112309F457C015
:10198000083040F51C864C858D8596E798279D8705
:1019900021E04150550B622F70E0F701E60FF71F71
:1019A000908164177507C4F48452892780832F5F60
:1019B000892FF1CF89E191E00E948A04612F70E0C4
:1019C00090E080E04AE00E94F10786E191E00E9409
:1019D0008A04CBCF1C87D7CF8E8589278083412F60
:1019E00050E0B701C60101960E94F3210830F8F4D7
:1019F000F60110821C868B8580FF0CC00E94EC03D0
:101A00000E94E6030E94E20384E30E94F0038B85B8
:101A10008E7F8B87F6018081DF91CF911F910F918F
:101A2000FF90EF90DF90CF90BF90AF900895F601B8
:101A30001083E0CF2F923F924F925F926F927F92EE
:101A40008F929F92AF92BF92CF92DF92EF92FF92CE
:101A50000F931F93CF93DF93CDB7DEB7A3970FB646
:101A6000F894DEBF0FBECDBF6C017B01BA01C70188
:101A70000E941405B7016C5F7F4FF60186A197A104
:101A80000E94F509F70182818068828346E064E163
:101A9000F601848195810E94830AB82E811102C0CB
:101AA000BB24B394F6010481158185E00E94C30430
:101AB0008F3F09F45AC0F80120813181820F932FA2
:101AC000911D0E94490A782E72947694769423E0B0
:101AD000722241F0F6018281938162E070E0029609
:101AE0000E94C309C70101969BA38AA39AE0492ECD
:101AF000512C612CF7013796F8A3EF8FBB2009F426
:101B00008BC1F60102811381F70182818071882ED9
:101B10001801FEE22F0E311CF701408150E06AA14E
:101B20007BA1C1010E94F321F70180819FEF980FF3
:101B3000F8019830E8F415A6F80125A586A5F6E782
:101B40008F27F80186A797A561E02150330B462F18
:101B500050E0F101E40FF51F70814217530754F470
:101B60008452872780836F5FF2CF77247394B2CF3C
:101B700085A7E2CF892F87278083F801F5A5FE8FFF
:101B8000B8016D5D7F4FF801A3A4AA2039F08FEC56
:101B900097E00197F1F700C00000F5CF40A651A6ED
:101BA00062A621E023A78DEE92E00E947F05F80156
:101BB00084A580FF0FC00E94EC030E94E6030E94F0
:101BC000E2030E94FF0384E30E94F003F80184A56E
:101BD0008E7F84A7E89882ED91E090930101809335
:101BE0000001F80184A5826084A786E30E94F003C7
:101BF0008BE30E94F00385E30E94F00388EC982EAB
:101C000060EC85E30E940804833109F4CBC09A9408
:101C1000992009F4B7C087EC90E00197F1F700C074
:101C20000000EECF0E94E2030E94AC09982EF8015A
:101C300084A58D7F84A784E394E090930101809331
:101C40000001809169008C7F826080936900E89A2E
:101C500082EB90E00E948A04C7010E94A008BA9417
:101C6000992009F44BCFF701828185FF28C08F8D21
:101C700098A10E94F204882311F1CE0101960E94DE
:101C8000E4041CE3F60182819381FC0124A522FD7A
:101C90003CC08FE19EE40197F1F700C000001150B5
:101CA00089F788EA90E00E948A048A2D0E948F08B2
:101CB00087EA90E00E948C04AA2009F41FCF11E06B
:101CC000772049F0F6018281938111E063E070E0B2
:101CD00002960E94C309812FA3960FB6F894DEBF27
:101CE0000FBECDBFDF91CF911F910F91FF90EF906D
:101CF000DF90CF90BF90AF909F908F907F906F902C
:101D00005F904F903F902F900895BE016F5F7F4F7F
:101D100081960E945B0C882309F4BBCF83EA90E094
:101D20000E948A04CE0101960E94A008F7019181C9
:101D30008A819813AECFBE016B5F7F4F8F8D98A1C4
:101D40000E940105882309F4A4CF8C81823041F4DC
:101D50008B85A82EA094AA1CAA24AA1C87FDB12CAE
:101D6000F701828181FD03C08B8180FF9ACFF6014C
:101D70008281938142E350E060E070E048960E94E7
:101D800050078FCF86E30E94F0038BE30E94F0039D
:101D90008DE30E94F00384E30E94F0030E94AC09EB
:101DA000912C45CF8FE19EE40197F1F700C0000030
:101DB000882049F09FE7EBE8F8E09150E040F040E0
:101DC000E1F700C000000E94EC030E94E6038FE3ED
:101DD0000E94DC038E8D0E94DC030E94E2030E94BD
:101DE000EC030E94E6038FE70E94DC0329A2410175
:101DF000882D29A1821B9E8D891708F013CFF4012D
:101E000081914F010E94DC03F3CFF601828193811F
:101E100010E064E070E05CCF7110F7CF10E05BCFB2
:101E20000F931F93CF93DF93EC018B018AE18F8394
:101E30001A86198648871A8A6EA17FA1FB017196BE
:101E400084913197E491E98B8E8F625F7F4F42E0FE
:101E500050E0CE0142960E94EE1F6EA17FA16D5F01
:101E60007F4F4AE050E0CE0144960E94EE1F89A5C4
:101E70008F8F6EA17FA16E5E7F4F42E050E0CE015A
:101E800080960E94EE1FBE01695F7F4FA801CE01C0
:101E9000DF91CF911F910F910C941A0DEF92FF9249
:101EA0000F931F93CF93DF9300D01F92CDB7DEB770
:101EB0008C01E62EFC0180858770F82EC8010E94F7
:101EC0009204F2E0EF1230C0F8010789108DF8019A
:101ED000F680F394F68264817581CE0101960E94AA
:101EE0009D0A4F2DBE016F5F7F4FC8010E94100FEA
:101EF000F8018281938161E070E002960E94C3093B
:101F0000F8018281938140ED57E060E070E04896EF
:101F10000E9450070F900F900F90DF91CF911F916B
:101F20000F91FF90EF900895F5E0EF12F3CFF801D5
:101F30008789908DF5E0FF120BC08A960E945B0A9C
:101F40008111E8CFF8018789908D0E94700AE2CF55
:101F5000FC018281938167E070E002960E94C309D0
:101F6000D9CF2F923F924F925F926F927F928F9232
:101F70009F92AF92BF92CF92DF92EF92FF920F9318
:101F80001F93CF93DF93CDB7DEB729970FB6F894A1
:101F9000DEBF0FBECDBF8C012B018091E003D801C5
:101FA0009B968C939B978091D6039091D7039D9697
:101FB0009C938E939C978091D8039091D9039F9680
:101FC0009C938E939E978091DA039091DB03D19638
:101FD0009C938E93D0971896ED91FC9126812F5F5C
:101FE00026836801BEE0CB0ED11CF801F0A8A1A9A0
:101FF00056A5E7A434A545A5B3A5822F6AE00E94A3
:10200000772084E0923009F482E291E1F80196872A
:1020100093E5918B808BB08F2787118EA28FF38EE3
:10202000E48E558F468F378FE084F18482FF37C06E
:102030008F7C8460808B45EE52E0B601C7010E9420
:102040001A0DD8011896ED91FC91848195810E941A
:10205000C10A9C01A4E6B0E00E94A520F8016583B6
:1020600076838783B801C2010E947F0529960FB647
:10207000F894DEBF0FBECDBFDF91CF911F910F91BE
:10208000FF90EF90DF90CF90BF90AF909F908F9098
:102090007F906F905F904F903F902F900895B12C5C
:1020A000A12C19864801F8E08F0E911C380182E1BD
:1020B000680E711CA6E0AA16B10409F485C04A2D69
:1020C000B401CE0105960E94150BCE0105960E9423
:1020D000F204282E882309F44BC0312C432DB4017F
:1020E000CE0101960E94150BBE016F5F7F4FCE019E
:1020F00005960E940105811106C03394B6E03B129B
:10210000EDCF33243A943A141B0494F11B821A82C3
:102110001982BE016F5F7F4FF70186A197A10E94D0
:10212000F509BE016F5F7F4FCE0105960E94010544
:10213000882361F1B301D70196968D919C910E94FD
:10214000F509B301C6010E941405F801808985FFD5
:1021500013C08F7D808BD701ED91FC910680F781B4
:10216000E02DB601C7010995F80180898062808B56
:10217000BFEFAB1ABB0A9ECFD701ED91FC91068051
:10218000F781E02DB601C7010995F2CFAE014B5F93
:102190005F4FB401CE0101960E94C00B89819A81E4
:1021A0000E94490AF801908980FF0BC09061908BD2
:1021B000AE014B5F5F4FB601C7010E941A0D298621
:1021C000D7CF9F7E908BF4CFE985E1113ACFD7012D
:1021D00014966D917C91CE0101960E949D0AAE01EC
:1021E0004F5F5F4F2ACF2F923F924F925F926F9235
:1021F0007F928F929F92AF92BF92CF92DF92EF9297
:10220000FF920F931F93CF93DF93CDB7DEB7A897BD
:102210000FB6F894DEBF0FBECDBF7C018B011BA2B1
:102220001AA219A2BE016F5D7F4FDC0196968D91B7
:102230009C910E94F509F8013796F8A7EFA3BE011B
:102240006F5D7F4FCF010E940105C82E882309F4DE
:1022500086C0D7011296CD90DC905601B3E2AB0E4A
:10226000B11CC5010E947D068AE090E0A0E0F60165
:1022700080A791A7A2A781E083A7B5018DEE92E088
:102280000E947F058CE091E00E948A04C8010E94B0
:10229000A0085801F4E0AF0EB11CB501C701C69605
:1022A0000E9401058111C9C0D80114968C91149720
:1022B000F70186AB15968C91159787AB16968C9186
:1022C000169780AF11968C9181AF64817581CE0194
:1022D00001960E949D0ABE016F5F7F4F85EE92E0DE
:1022E0000E94010591E0D82ED926D70114966D9150
:1022F0007C91CE0101960E949D0ABE016F5F7F4FC7
:10230000C5010E940105F8019381928433849130C4
:1023100009F08FC3DD2019F0882309F495C0FAE095
:102320003F1294C0D70196966D917C916D5F7F4F5F
:102330004AE050E0CE0101960E94EE1F4AE050E0D4
:10234000BE016F5F7F4FC8010C960E94E621892B6A
:1023500009F4F1C0D12CC12C82E0382EADC0D801D7
:102360008C91898311968C9111978A831296BC90D7
:102370001297BB821396DC901397DC8214968C9193
:1023800014978D8315968C9115978E8316968C9144
:1023900016978F8317968C911797888718968C912C
:1023A0001897898719968C9119978A871A968C9114
:1023B0001A978B871B96AC90AC8681E1F8013C960E
:1023C000DE011D9601900D928A95E1F765EE72E0AF
:1023D000CE0108960E940105882339F0B1E0DB1296
:1023E00004C0EAE0AE1609F434CFB2FE05C080ECBA
:1023F0008D0D823008F42DCF84E091E00E948A0494
:10240000C8010E94A0088C2DA8960FB6F894DEBFD4
:102410000FBECDBFDF91CF911F910F91FF90EF9035
:10242000DF90CF90BF90AF909F908F907F906F90F4
:102430005F904F903F902F900895D701D9969C912F
:10244000F8018181981330CFC12CDDCFB1E03B1270
:10245000D1C0992009F47ECFD70199968C91999794
:10246000891508F477CF9C96CD90DC90C8010E9426
:1024700036053801BCE06B0E711C4601E8E08E0E9B
:10248000911C813009F074C0B301C4010E947E0B1D
:10249000C4010E942D0B8F3F09F45ECF682FC60147
:1024A0000C960E94C30144E050E0BC01C3010E94AD
:1024B000072081E0F70180A7D80112968C9185FF53
:1024C0002CC0BE016F5D7F4F8FA198A50E940105B2
:1024D000882319F1B1E03B12B5C3C114D10409F44A
:1024E0009FC3D7011296ED91FC9182A19EE0F80165
:1024F000908392E0938312823286D6011B969C9140
:102500009387148615868687A501B801C7010E94A6
:102510001A0DF60182858E7F8287D70112968D91E2
:102520009C9142E350E060E070E048960E945007C2
:10253000CC24C39468CFF7018281938161E070E07D
:1025400002960E94C309D70112968D919C9140ED8D
:1025500057E060E070E048960E945007F801408123
:10256000B501C7010E94100FD12CC12C312CA4CF72
:10257000D80150968C9150971C969C911C979983EA
:102580001D969C911D979A831E969C919B838C838C
:10259000B301C4010E947E0BBE016F5F7F4FC40177
:1025A0000E947E0BC4010E942D0B8F3F09F4D4CEF4
:1025B0002601BCE04B0E511C682FC2010E94C301D2
:1025C00044E050E0BC01C3010E940720C4010E9406
:1025D0002D0B8F3F51F0682FC2010E94C30144E0D0
:1025E00050E0BC01CE01019662CFB301C4010E944C
:1025F0007E0BB2CEF2E03F1237C0992009F4AACE8A
:10260000D70199968C919997891508F4A3CE9C9639
:10261000CD90DC904601B8E08B0E911CB801645F50
:102620007F4FC4010E947E0B782EC8010E943605A0
:10263000823081F4F80180899485998395859A8305
:1026400096859B838C83BE016F5F7F4FC4010E9480
:102650007E0B7822772009F42FCF81E0D70198965E
:102660008C933324339428CFB3E03B127EC099205F
:1026700009F402C1F70181A5891508F475CF24A4D6
:1026800035A4D80111968C91119714969C911497AA
:102690009E8F15969C9115979F8F16969C9198A347
:1026A0004701B7E08B0E911C9AE1978390E19287E6
:1026B00090E2918791E0918B80873701E2E16E0E85
:1026C000711C6301412C512CF8E02F0E311C86E067
:1026D000481641F1442DB101CE0101960E94150B1F
:1026E000CE0101960E94F2048823D1F0539484E035
:1026F000FE013196D60101900D928A95E1F794E0A2
:10270000C90ED11CA4E05A120BC0AE01425E5F4F4D
:10271000B401C7010E941A0D6301512C882311F0E6
:102720004394D5CF84E0F60111928A95E9F753944A
:10273000852D880F880F99E0980F983090F4D70175
:1027400017961C92D70119968C9119978F7D19961F
:102750008C93AE01425E5F4FB401C7010E941A0D17
:1027600003CF865FF7018783EDCFB4E03B128AC0C9
:10277000F8012089A801445F5F4F692DC7010E94BD
:10278000FC0B29833A834B835C836D837E838F8329
:1027900089819A819EA38DA332E0332E892B09F47F
:1027A000B7C0D80111968C91119714969C911497EB
:1027B0009E8F15969C9115979F8F16969C9198A326
:1027C0002701B7E04B0E511C9AE1F701978390E186
:1027D000928790E2918792E0918B80871701F2E1D6
:1027E0002F0E311C6101712C612C1CA28B8186156E
:1027F000170451F14CF1EC81FD81862D0995D6012C
:102800008C934601B2E08B0E911C8DA19EA1860D8A
:10281000971D0E94490AF6018183FCA1FF5FFCA37A
:10282000F83059F4AE01425E5F4FB201C7010E9419
:102830001A0D882339F041011CA28FEF681A780A1B
:102840006401D4CF61011CA2D6011C9211961C9286
:102850008CA18A5F880F9FEF980F983078F4F7016A
:102860001782F70181858F7D8187AE01425E5F4FC0
:10287000B201C7010E941A0D312C4AC0D701179628
:102880008C93EFCFFEE03F122AC0D7019C96CD90EB
:10289000DC909D97F80121811296ED91FC9182A127
:1028A000D6011B969C91F701378230E1328736E0E2
:1028B000318B2087928B138A148A858B82E08187E3
:1028C000A501B701695F7F4FC7010E941A0DD601AC
:1028D0001A968C911A978E7F1A968C9345CEB5E0F6
:1028E0003B1219C0F70196A6D80150962C91A80169
:1028F000445F5F4F692DC7010E94FC0BF70127A7BA
:1029000030AB41AB52AB63AB74AB85AB3324339488
:10291000D12CC12CD1CDF6E03F1232C081E0D701DD
:1029200098968C9398979F962D913C91D0979A96D4
:102930008D919C919B972817390781F412968D9160
:102940009C9170E060E002960E94C309D701ED916E
:10295000FC910480F581E02DC70109958FEFF70107
:1029600086A78AE0D8018C9382E013968C93139704
:1029700012968C9312971A961C92A501B801EDCE6F
:10298000B8E03B1238C0F70186A5891519F0D12CA3
:10299000C12C67CE87A590A9892BC9F3F801808146
:1029A0008B3008F48BE025EF722E780E4801FCE0A6
:1029B0008F0E911C64018C2D8819871540F7D60164
:1029C00011966C90D701D496ED91FC91D6018C9123
:1029D00009958F3F61F0F70167A570A9680F711D18
:1029E000698241E050E0CE0101960E940720F2E0AA
:1029F000CF0ED11CE0CF89E03812ACCCD8011196B3
:102A00008C9194E1F701978390E192871186118A66
:102A10008087128A66A177A16D5F7F4F4AE050E000
:102A2000C70142960E94EE1FA501B701695F7F4F63
:102A300094CE913109F063C0DD2019F0882309F4A8
:102A400003CDF4E09F1619F08AEC981227C08AE0B3
:102A5000D8018C9382E013968C93139712961C9254
:102A600012971A961C92A501B801C7010E941A0D6F
:102A7000BAEC9B120FC08FEE90E00E948C0488E1AC
:102A80009CE00FB6F894A895809360000FBE9093D9
:102A90006000FFCFC7010E94700A66CD332009F4A1
:102AA00037CFF70181A5831508F45ECDC4A4D5A462
:102AB000F2E09F16F9F0F91568F09920B1F081E085
:102AC000981254CDD6011A968C911A9782601A9654
:102AD0008C93C7CD93E0991609F4C3CDA0E89A1260
:102AE00045CDD6011A968C9107C0F60182858D7F5F
:102AF0008287B7CDF601828581FF2ECC37CD92310A
:102B000029F48AEF90E00E948C0441CF9E3309F0B3
:102B100053C089E0838B8181848B84E0858B85859C
:102B2000868B8485978A308E818F87818983808583
:102B30008A8381858B83BE016F5F7F4FC801439677
:102B40000E941405D8015396EC915397E00FF12F92
:102B5000F11D1E968D919C911F97958B848B53969A
:102B60008C9153978E5F53968C93DD24D394F70109
:102B700081A58D1508F40BCF04A4F5A5E02D828561
:102B800081FD18C0D8015D969C915D979F73579603
:102B90008C915797898358968C9158978A83599628
:102BA0008C918B839C83BE016F5F7F4FCF01089612
:102BB0000E94530BD394DBCF9054923008F0CACBD1
:102BC00066246394712CD12CC12C92E0392EF7012C
:102BD00081A5861500F184A495A4D4011A968C9140
:102BE00081FD17C0F80182858F7394819983958147
:102BF0009A8396819B838C83BE016F5F7F4FC40154
:102C000008960E94530B882321F0739464013324A7
:102C100033946394DCCFF1E0F71508F479CE4CCC13
:102C20008AE0D8018C9382E013968C9313971296C6
:102C30001C9212971A961C92A501B801C7010E9416
:102C40001A0D6BCCB2E03B1268CC8AE0F8018083AD
:102C50003382128280E88287EFCF0C945D210C943E
:102C60005D210C945D210C945D21CF93DF93EC01E9
:102C70000E946704CE01DF91CF910C945D210C94EA
:102C80005D210C945D21CF93DF93EC010E94BB0486
:102C9000CE01DF91CF910C945D210C945D210C94B9
:102CA0005D211F920F920FB60F9211242F933F9325
:102CB0004F935F936F937F938F939F93AF93BF9344
:102CC000EF93FF938FE392E00E945102FF91EF9107
:102CD000BF91AF919F918F917F916F915F914F9134
:102CE0003F912F910F900FBE0F901F9018951F923C
:102CF0000F920FB60F9211242F938F939F93EF9300
:102D0000FF93E0914F02F09150028081E0915502D3
:102D1000F091560282FD1BC09081809158028F5F16
:102D20008F7320915902821741F0E0915802F0E030
:102D3000E15CFD4F958F80935802FF91EF919F9139
:102D40008F912F910F900FBE0F901F90189580813B
:102D5000F4CF1F920F920FB60F9211242F933F932F
:102D60008F939F93AF93BF9380913B0290913C02CE
:102D7000A0913D02B0913E023091010226E0230F66
:102D80002D3758F50296A11DB11D209301028093A5
:102D90003B0290933C02A0933D02B0933E0280918F
:102DA000020290910302A0910402B09105020196E3
:102DB000A11DB11D8093020290930302A09304020F
:102DC000B0930502BF91AF919F918F913F912F9149
:102DD0000F900FBE0F901F90189529E8230F0396B0
:102DE000A11DB11DD2CF1F920F920FB60F921124C9
:102DF0002F933F934F935F936F937F938F939F9303
:102E0000AF93BF93EF93FF93E0910201F091030121
:102E10000995FF91EF91BF91AF919F918F917F9114
:102E20006F915F914F913F912F910F900FBE0F9037
:102E30001F9018951F920F920FB60F9211242F9387
:102E40003F934F935F936F937F938F939F93AF9332
:102E5000BF93EF93FF93E0910001F0910101099579
:102E6000FF91EF91BF91AF919F918F917F916F9162
:102E70005F914F913F912F910F900FBE0F901F9038
:102E800018951F920F920FB60F9211248F930FB6C1
:102E9000F894A895809160008861809360001092FA
:102EA00060000FBE8F910F900FBE0F901F9018956E
:102EB0001F920F920FB60F9211242F933F934F93AF
:102EC0005F936F937F938F939F93AF93BF93CF93B2
:102ED000DF93EF93FF93CCEDD2E060E089810E9415
:102EE0004D031092B1006A817B818C819D810E948B
:102EF0001F206093B30081E08E83FF91EF91DF91FB
:102F0000CF91BF91AF919F918F917F916F915F9181
:102F10004F913F912F910F900FBE0F901F901895DA
:102F20001F920F920FB60F9211240F900FBE0F90A9
:102F30001F9018951F920F920FB60F9211242F9386
:102F40003F934F935F936F937F938F939F93AF9331
:102F5000BF93EF93FF93E8EEF2E084818F5F848369
:102F6000CF010E94A507FF91EF91BF91AF919F9173
:102F70008F917F916F915F914F913F912F910F9022
:102F80000FBE0F901F9018951F920F920FB60F92C1
:102F900011242F933F934F935F936F937F938F935E
:102FA0009F93AF93BF93EF93FF938DEE92E00E94B8
:102FB000A507FF91EF91BF91AF919F918F917F9165
:102FC0006F915F914F913F912F910F900FBE0F9096
:102FD0001F9018951F920F920FB60F9211242F93E6
:102FE0003F934F935F936F937F938F939F93AF9391
:102FF000BF93CF93EF93FF9399B1C0910802809153
:10300000380230913502292F209523238923822BE2
:1030100020916D00C927C223C82390930802CC23B6
:10302000C1F1C0FF05C0E0910902F0910A020995C3
:10303000C1FF05C0E0910B02F0910C020995C2FF9F
:1030400005C0E0910D02F0910E020995C3FF05C085
:10305000E0910F02F09110020995C4FF05C0E091C4
:103060001102F09112020995C5FF05C0E09113020B
:10307000F09114020995C6FF05C0E0911502F09188
:1030800016020995C7FF05C0E0911702F0911802DA
:103090000995FF91EF91CF91BF91AF919F918F9142
:1030A0007F916F915F914F913F912F910F900FBE44
:1030B0000F901F9018951F920F920FB60F92112428
:1030C0002F933F934F935F936F937F938F939F9330
:1030D000AF93BF93CF93EF93FF9396B1C091190233
:1030E0008091390230913602292F2095232389239C
:1030F000822B20916C00C927C223C8239093190208
:10310000CC2351F1C0FF05C0E0911A02F0911B02DF
:103110000995C1FF05C0E0911C02F0911D020995BF
:10312000C2FF05C0E0911E02F0911F020995C3FF86
:1031300005C0E0912002F09121020995C4FF05C06D
:10314000E0912202F09123020995C5FF05C0E091AC
:103150002402F09125020995FF91EF91CF91BF9143
:10316000AF919F918F917F916F915F914F913F911F
:103170002F910F900FBE0F901F9018951F920F92D6
:103180000FB60F9211242F933F934F935F936F933A
:103190007F938F939F93AF93BF93CF93EF93FF93BF
:1031A00093B1C091280280913A0230913702292FC1
:1031B000209523238923822B20916B00C927C223CA
:1031C000C82390932802CC2351F1C0FF05C0E091A1
:1031D0002902F0912A020995C1FF05C0E0912B0256
:1031E000F0912C020995C2FF05C0E0912D02F091EB
:1031F0002E020995C3FF05C0E0912F02F091300225
:103200000995C4FF05C0E0913102F09132020995A1
:10321000C5FF05C0E0913302F09134020995FF919A
:10322000EF91CF91BF91AF919F918F917F916F91CE
:103230005F914F913F912F910F900FBE0F901F9074
:1032400018951F93CF93DF93EFE3F2E0138212827E
:1032500088EE93E0A0E0B0E084839583A683B783F3
:103260008EE091E09183808385EC90E09587848760
:1032700084EC90E09787868780EC90E0918B808B40
:1032800081EC90E0938B828B82EC90E0958B848B29
:1032900086EC90E0978B868B118E128E138E148E97
:1032A0001092E302E5EEF2E0128211821082EDEE5E
:1032B000F2E01182108213821282E8EEF2E01182B3
:1032C0001082138212821482E1ECF3E010821182E8
:1032D000168A158A108E178A128E118E148E138EEE
:1032E000168E158E178E10A211A212A213A2E6E757
:1032F000F3E01582148217821086118688E691E029
:1033000093838283128A138A148A158A11E0168B9A
:103310001683138E128E158E168E178E8EE591E003
:10332000918F808F10A2148F12A216A215A210A640
:1033300011A612A684E591E094A383A313A617A374
:1033400088E084A783EA93E00E94E404CAE0D3E023
:1033500080E391E0998388831B821A8284E393E05F
:103360009D838C831E8281E193E00E94E40480E2CD
:1033700090E09DA38CA32CEF32E03FA32EA318A6D0
:1033800019A79BA78AA78FEF8EA718AA1FA619AA0D
:103390001BAA1AAA1DAA1CAA18AE1FAA1EAA8CE351
:1033A00091E09983888310924D0310924C03EEE4D0
:1033B000F3E080818E7F8D7F808310924F03109287
:1033C0005103109250031DAE1CAE1EAE80E797E174
:1033D000A0E08093490390934A03A0934B0386E2B5
:1033E00091E09BAF8AAF82E593E00E94E4041092E3
:1033F0006F03109271031092700310927303109276
:103400007203109275031092740384E493E09DA7F5
:103410008CA788E491E099838883E1EFF2E013823E
:1034200012821482158216821782A9EFB2E08C9163
:10343000887F816088608C93118617861686108A33
:10344000118A128A138A80E291E095878487F58B2E
:10345000E48B82E791E091838083D08FC78B8CE2ED
:1034600091E093878287DF91CF911F910895CF9349
:10347000DF93CDB7DEB728970FB6F894DEBF0FBE47
:10348000CDBF789484B5826084BD84B5816084BDED
:1034900085B5826085BD85B5816085BD80916E00F2
:1034A000816080936E001092810080918100826023
:1034B0008093810080918100816080938100809160
:1034C00080008160809380008091B100846080934F
:1034D000B1008091B00081608093B00080917A004B
:1034E000846080937A0080917A00826080937A0071
:1034F00080917A008E7F80937A0080917A00806834
:1035000080937A001092C100E0914F02F091500236
:1035100082E08083E0914B02F0914C021082E091B6
:103520004D02F0914E0283E3808310925702E091A6
:103530005302F091540286E08083E0915102F091B1
:103540005202808180618083E0915102F0915202A9
:10355000808188608083E0915102F09152028081E5
:1035600080688083E0915102F091520280818F7DCA
:1035700080838CE492E00E948C04009134031091CB
:1035800035030A5F1F4FD12C9AE0A92E93E0B92E84
:1035900020ED622E27E0722E812C80913303D81605
:1035A00068F5ED2DF0E0EE0FFF1FEA5CFC4FE080C8
:1035B000F180D394D7011996BC92AE9218971B96BE
:1035C000DC921B971D961C930E931C9785EF91E040
:1035D0000E948C048FEA91E00E940E0983E092E041
:1035E0000E948A04F701658276828782B7018DEE98
:1035F00092E00E947F05015E1F4FCFCF85EE91E0E4
:103600000E948A0460912E0370912F0390E080E065
:103610004AE00E94F10781EE91E00E948A04E09165
:103620003603F091370364857585615E7F4F90E0C6
:1036300080E04AE00E94F1078EED91E00E948A044A
:1036400060E090E080E00E94D2048C01B8EDEB2EA7
:10365000B1E0FB2EF7016491C8010E94D2048C01F5
:10366000FFEFEF1AFF0A2EEDE21621E0F20691F7C6
:10367000FF24F394809133038F15E8F080E00E94DB
:103680005104682FC8010E94D2048C0180E00E947E
:10369000C101682FC8010E94D2048C0180E00E9401
:1036A0004504682FC8010E94D20466E00E94D2043B
:1036B0008C01F394DFCF44E050E070E060E0CE0195
:1036C00005960E94F71F30E020E02E6F3A6C0983C8
:1036D0001A832B833C836D817E818F8198850617A9
:1036E00017072807390709F45CC00E943F0886ECD9
:1036F00091E00E948A0489EC91E00E948A04698129
:103700007A818B819C810E943F0886EC91E00E9427
:103710008A043FEF81EE94E0315080409040E1F721
:1037200000C0000044E050E070E060E0CE0101968F
:103730000E94072066E070E0809134039091350389
:103740000E94400966E084E10E94200968E380E26B
:103750000E942009882321F060E481E20E94200970
:1037600010E0809133031817E0F4E12FF0E0EE0F42
:10377000FF1FEA5CFC4FE080F1806FE170E0D70151
:103780001C968D919C910E944009F7016485758576
:10379000198241E050E0CE0101960E9407201F5F90
:1037A000E0CF86E793E090930D0380930C031B8298
:1037B0001A821982BE016F5F7F4F80913003909112
:1037C00031030E94F50987E080938A0361E00E943B
:1037D0007B0388E793E00E942B04E89882ED91E058
:1037E000909301018093000187E993E09093070291
:1037F000809306028BEB91E00E948A0460E082E0F5
:103800000E947B0389EB91E00E948C0461E08AE0D6
:103810000E947B0361E08BE00E947B0360E08CE010
:103820000E947B0361E08DE00E947B0380E58CBDFC
:1038300061E08AE00E944D0361E08DE00E944D034B
:1038400060E08BE00E944D030E94EC030E94E603BF
:103850000E94E203F5E8FA95F1F700000E94EC03FC
:103860000E94E60380E30E94DC030E94E6030E94BC
:10387000E20305E811E0E9EBCE2EE1E0DE2EFF24C5
:10388000F394F80131966491F801849143E00E9429
:103890006309811101C0F12C0E5F1F4FC016D106C4
:1038A00081F788E791E00E948A0460EC81E30E943E
:1038B00008040E948F088BED92E00E948A0483E343
:1038C0000E94F0038FEA93EB0197F1F700C000002C
:1038D00043E060EC8EE30E9463098FE691E00E9472
:1038E0008C04FF2059F00E94EC030E94E6030E9422
:1038F000E2030E94FF0384E30E94F00384E394E068
:103900009093010180930001809169008C7F826017
:1039100080936900E89A80E1809381001092800092
:10392000109285001092840080E49CE990938700B7
:103930008093860081E18093810080916F00816097
:1039400080936F0066E070E0F11002C068E070E004
:1039500088E793E00E94C3098B8190E001962AE0FA
:10396000289F8001299F100D112489E993E00E946E
:103970007D0624E630E0D8010E94B42028EE33E032
:1039800040E050E00E94832020939E0330939F03E9
:103990004093A00381E08093A10369E973E08DEE79
:1039A00092E00E947F0580912E037CEFE72EE80EC7
:1039B000855090E004960E94490AD82E00E01EE54A
:1039C000AE2DA150BB0B7D01802F90E08E159F0581
:1039D00034F404960E94490A18270F5FF5CF1D1191
:1039E0002BC084E090E00E94490A182F85E090E007
:1039F0000E94490A082F80EA810F8B30E8F48DE598
:103A000091E00E948A04812F0E948F08802F0E94DB
:103A10008F088BED92E00E948A0443E061E28DE022
:103A20000E94630943E0612F8EE00E94630943E036
:103A3000602F8FE00E94630985E08093FA0262E0C4
:103A40000E947B03EDE3F2E08491E9E2F2E09491DD
:103A5000923009F06CC020913A02282B20933A0250
:103A600020913702282B20933702E5E1F2E0A49160
:103A7000923009F06AC0B0E0AA0FBB1FA75DBD4F2E
:103A800026E437E02D933C93EAE0F2E0A591B4916F
:103A90009C91909328022BE630E0309327022093EC
:103AA000260290916800916090936800A091260290
:103AB000B0912702EC918E2B8C9381E0809332039E
:103AC0008AE093E00E94DA0A9091330381E098172C
:103AD00008F074C08DECA82E83E0B82E91ECE92E8E
:103AE00091E0F92E25EEC22E23E0D22E34EC832E67
:103AF00033E0932E06E0302E412C8FEE92E00E94B0
:103B00005806FC01009709F45BC0029709F458C0FD
:103B100022812D7F2283DC01ED91FC910190F081C7
:103B2000E02D6DEE72E0099544244394E6CF933086
:103B300009F042C220913902282B209339022091AA
:103B40003602282B2093360290CF9330D1F4B0E088
:103B5000AA0FBB1FA65EBD4F26E437E02D933C9312
:103B6000ECE0F2E0A591B4919C91909319022CE6BF
:103B700030E03093270220932602909168009260F3
:103B800093CF943009F092CFB0E0AA0FBB1FA75F8C
:103B9000BD4F26E437E02D933C93EEE0F2E0A59193
:103BA000B4919C91909308022DE630E03093270267
:103BB0002093260290916800946076CF8F5F87CF24
:103BC00080910C0390910D03FC0124A522FD65C09A
:103BD000712C5524539480913303851508F482C0C9
:103BE0000091360310913703D8011A968C9180FB0F
:103BF000222420F880FF4FC0E0910C03F0910D03C8
:103C00007688168ACF0102960E942B0460901003DA
:103C100063946092100360910E0370910F03CE01C4
:103C200001960E949D0AE0910C03F0910D0382A180
:103C3000F8019385FEE0F093110320E12093140333
:103C400032E23093130330921B036092120390937D
:103C50001C0310921D0310921E0380931F03AE01DC
:103C60004F5F5F4F61E173E08AE093E00E941A0DBD
:103C7000D8011A968C911A978E7F1A968C93809100
:103C80000C0390910D03FC01768A711004C002961A
:103C90000E942B04722C53949ECF61E173E08196B5
:103CA0000E945B0C8A3008F493CF1B821A8219821F
:103CB000BE016F5F7F4F80913003909131030E946E
:103CC000F509BE016F5F7F4F85E193E00E9401051A
:103CD00081117ECF61E173E08AE093E00E94F310EE
:103CE000782E77CF41105FC071105DC08FE392E0F6
:103CF0000E9431021816190684F48FE392E00E94A4
:103D00000F021092C2039091C103913009F464C074
:103D100008F456C0923009F475C02FB7F89480911A
:103D20003B0290913C02A0913D02B0913E022FBF18
:103D30004091E1035091E2036091E3037091E40349
:103D4000841B950BA60BB70B85369105A105B10514
:103D5000D8F02FB7F89480913B0290913C02A0914B
:103D60003D02B0913E022FBF8093E1039093E203A6
:103D7000A093E303B093E4038091C2038F5F883084
:103D800008F00CC18093C2030E94B7032B013C01D1
:103D90000E94B7036419750986099709683E734044
:103DA00081059105A8F380E090E0892B09F4A4CE69
:103DB0000E943D02882309F49DCE0E9400009ACE05
:103DC0008111ABCFF1E0F093C1039092D4038092C4
:103DD000D3031092C303A1CF803109F0CEC092E08B
:103DE0009093C103E091D303F091D4039F012F5F1F
:103DF0003F4F3093D4032093D30380838AE0809392
:103E0000D5038BCFE091D303F091D4039F012F5FB3
:103E10003F4F3093D4032093D30380838091D50305
:103E200081508093D503811178CFE3ECF3E080E0FB
:103E300090E0DC0121918827822B28E0880F991FD0
:103E4000AA1FBB1FB0FF03C035E09327A058215025
:103E5000A9F7AE16BF0671F7882728E0880F991FCB
:103E6000AA1FBB1FB0FF03C0E5E09E27A05821504A
:103E7000A9F728E0880F991FAA1FBB1FB0FF03C036
:103E8000F5E09F27A0582150A9F70A2F10E030E055
:103E900020E04091CE0350E070E060E00417150789
:103EA0002607370709F06CC0492F50E070E060E04A
:103EB0008091CD0390E0B0E0A0E0481759076A0771
:103EC0007B0709F05DC08091DC039091DD030196D2
:103ED0009093DD038093DC038091C60390E0982FDC
:103EE00088272091C503820F911D9093D70380935B
:103EF000D6032091C80330E0322F22274091C70318
:103F0000240F311D3093D9032093D8034091CA0365
:103F100050E0542F44276091C903460F511DEAE039
:103F2000E49FB001E59F700D11247093DB03609353
:103F3000DA034091CB034093E0031F924F937F93AA
:103F40006F933F932F939F938F931F921F921F9274
:103F500021E02F93FF92EF92DF92CF920E94FC21FB
:103F600085EE93E00E940E0986E892E00E948A04A2
:103F70000FB6F894DEBF0FBECDBF1092C103CDCEF9
:103F80008091DE039091DF0301969093DF0380938D
:103F9000DE0389E892E00E948C04EFCF1092C20306
:103FA0008091C103882309F4EFCE1092C10383E707
:103FB00092E00E948C04E8CE943009F056CD209116
:103FC0003802282B2093380220913502282B209389
:103FD00035024BCD8AE093E00C94BB04FB01DC017D
:103FE00002C005900D9241505040D8F70895DC0171
:103FF000CB01FC01F999FECF06C0F2BDE1BDF89AF4
:10400000319600B40D9241505040B8F70895DC014C
:10401000CB0103C02D910E94122041505040D0F797
:104020000895262FF999FECF1FBA92BD81BD20BDFC
:104030000FB6F894FA9AF99A0FBE019608950E9465
:10404000562088F09F5798F0B92F9927B751B0F0B4
:10405000E1F0660F771F881F991F1AF0BA95C9F70C
:1040600014C0B13091F00E947020B1E008950C941A
:104070007020672F782F8827B85F39F0B93FCCF3CD
:10408000869577956795B395D9F73EF49095809589
:10409000709561957F4F8F4F9F4F089557FD9058B2
:1040A000440F551F59F05F3F71F04795880F97FBFC
:1040B000991F61F09F3F79F08795089512161306B6
:1040C0001406551FF2CF4695F1DF08C016161706E5
:1040D0001806991FF1CF869571056105089408951A
:1040E000E894BB2766277727CB0197F90895991B9A
:1040F00079E004C0991F961708F0961B881F7A95DF
:10410000C9F780950895A1E21A2EAA1BBB1BFD01D9
:104110000DC0AA1FBB1FEE1FFF1FA217B307E407A6
:10412000F50720F0A21BB30BE40BF50B661F771FFE
:10413000881F991F1A9469F76095709580959095DE
:104140009B01AC01BD01CF010895A29FB001B39FB7
:10415000C001A39F700D811D1124911DB29F700D90
:10416000811D1124911D08950E94A520B7FF089577
:10417000821B930B0895EE0FFF1F0590F491E02D25
:1041800009940F931F93CF93DF938230910510F41E
:1041900082E090E0E0913704F091380430E020E0D4
:1041A000B0E0A0E0309799F42115310509F44AC038
:1041B000281B390B24303105D8F58A819B81611584
:1041C000710589F1FB0193838283FE0111C0408157
:1041D00051810281138148175907E0F048175907A8
:1041E00099F4109761F012960C93129713961C9302
:1041F0003296CF01DF91CF911F910F9108950093D7
:10420000370410933804F4CF2115310551F04217CB
:10421000530738F0A901DB019A01BD01DF01F80164
:10422000C1CFEF01F9CF9093380480933704CDCFFD
:10423000FE01E20FF31F81939193225031093983DC
:104240002883D7CF2091350430913604232B41F4B5
:1042500020910601309107013093360420933504F4
:1042600020910401309105012115310541F42DB74C
:104270003EB74091080150910901241B350BE09194
:104280003504F0913604E217F307A0F42E1B3F0B20
:104290002817390778F0AC014E5F5F4F24173507B8
:1042A00048F04E0F5F1F50933604409335048193BE
:1042B00091939FCFF0E0E0E09CCFCF93DF93009706
:1042C000E9F0FC01329713821282A0913704B09179
:1042D0003804ED0130E020E01097A1F42081318115
:1042E000820F931F20913504309136042817390727
:1042F00009F061C0F0933604E0933504DF91CF916B
:104300000895EA01CE17DF07E8F54A815B819E0137
:1043100041155105B1F7E901FB83EA8349915991B0
:10432000C40FD51FEC17FD0761F4808191810296BF
:10433000840F951FE90199838883828193819B83F0
:104340008A83F0E0E0E012968D919C91139700979C
:10435000B9F52D913C911197CD010296820F931FD3
:1043600020913504309136042817390739F63097F3
:1043700051F51092380410923704B0933604A0938C
:104380003504BCCFD383C28340815181840F951FF4
:10439000C817D90761F44E5F5F4F88819981480F34
:1043A000591F518340838A819B8193838283211586
:1043B000310509F0B0CFF0933804E09337049ECF75
:1043C000FD01DC01C0CF13821282D7CFFB01DC01DB
:1043D00004C08D910190801921F441505040C8F7DC
:1043E000881B990B0895FB01DC0102C001900D921E
:1043F00041505040D8F70895AEE0B0E0E2E0F2E27C
:104400000C94AB240D891E8986E08C831A83098362
:104410008FEF9FE79E838D83AE01475E5F4F6F896D
:10442000788DCE0101960E941F222F813885020FC0
:10443000131FF80110822E96E4E00C94C724ABE021
:10444000B0E0E5E2F2E20C949D247C013B018A019C
:10445000FC0117821682838181FFC8C1CE010196BB
:104460005C01F7019381F30193FD859193FF8191A5
:104470003F01882309F453C1853239F493FD8591B6
:1044800093FF81913F01853229F4B70190E00E94AA
:104490000F24E7CF912C212C312CFFE1F31538F0BC
:1044A0008B3211F190F4803209F1833229F137FC1B
:1044B0003CC020ED280F2A3050F536FE20C08AE09F
:1044C000989E200D1124922E06C08D3291F08033DB
:1044D00071F7689430F8F30193FD859193FF819112
:1044E0003F018111DACF21C0689431F8689432F825
:1044F000F2CF689433F8EFCF689434F8ECCFEAE069
:104500002E9E200D1124222E689435F8E4CF8E3291
:1045100029F436FC04C1689436F8DDCF8C3619F4E2
:10452000689437F8D8CF8836B1F2982F9F7D95548C
:104530009330E0F08336A1F18337C1F1833509F080
:1045400063C02801F2E04F0E511CF801C080D180F9
:10455000692D70E036FC02C06FEF7FEFC6010E944C
:10456000F9234C01689437F882010AC00C5F1F4F91
:10457000FFE3F98388248394912C6501E89437F84C
:1045800033FE2DC0522C8114910471F5552009F48D
:1045900068CFB70180E290E00E940F245A94F6CFD2
:1045A000F801808189830E5F1F4FE4CF2801F2E07C
:1045B0004F0E511CF801C080D180692D70E036FC8F
:1045C00002C06FEF7FEFC6010E9404244C018201FC
:1045D000D5CFB70180E290E00E940F242A942814DE
:1045E000190409F0B0F7CECFF60137FC859137FEFC
:1045F00081916F01B70190E00E940F2451105A94ED
:10460000F1E08F1A9108BFCF843619F0893609F08E
:1046100077C0F80137FE6BC0608171818281938120
:104620000C5F1F4FF32DFF763F2E97FF09C090952B
:104630008095709561957F4F8F4F9F4F689437F8A5
:104640002AE030E0A5010E943F24C82ECA188C2C15
:10465000432C36FE0CC0E89440F8C91440F434FEF4
:1046600005C032FC03C0F32DFE7E4F2E892C44FE84
:1046700095C0FE01EC0DF11D8081803309F087C0EB
:10468000242D297E422E842D8870582E43FC95C0FF
:1046900040FE8FC09C2C821418F42C0C922C98187D
:1046A00044FE91C0B70180E390E00E940F2442FED7
:1046B00009C088E790E041FE02C088E590E0B701BC
:1046C0000E940F24C91408F48AC0CA94D12C9FEF09
:1046D000C91AD90ACA0CDB1CF60182916F01B70115
:1046E00090E00E940F24AC14BD04B1F74FCF60815D
:1046F0007181072E000C880B990B0E5F1F4F92CF14
:10470000D32CE894D4F82AE030E0853739F1232D12
:10471000297FD22E8F3601F148F48835A9F0F701B0
:10472000868197812B96E2E10C94B924803749F079
:104730008837A9F7D4FE02C06894D2F820E130E0AF
:104740000DC06894D4F8F6CF34FE03C0822F866083
:10475000D82E20E132E002C028E030E0F801D7FE98
:104760000FC060817181828193810C5F1F4FA50111
:104770000E943F24C82ECA183D2CE89437F867CF12
:104780006081718190E080E00E5F1F4FF0CF42FCAE
:1047900002C0839478CF8394839475CF842D8678D8
:1047A00009F471CFF6CFB70180E290E00E940F24A8
:1047B00083948214C0F3512C73CF522C5818821456
:1047C00008F46ECFF8CF842D867809F47BCF8BE286
:1047D00041FE80E247FC8DE2B70190E071CFB70166
:1047E00080E390E00E940F249A946CCF8FEF9FEFAC
:1047F00099CFFC010590615070400110D8F7809569
:1048000090958E0F9F1F0895FC016150704001909C
:104810000110D8F7809590958E0F9F1F08950F93E4
:104820001F93CF93DF93182F092FEB018B8181FD0D
:1048300009C01FEF0FEF812F902FDF91CF911F91B4
:104840000F91089582FF14C02E813F818C819D813C
:10485000281739073CF4E881F981CF010196998343
:10486000888310838E819F8101969F838E83E3CFFF
:10487000E885F985812F0995892BA1F3DACFFA0113
:10488000AA27283051F1203181F1E8946F936E7F8F
:104890006E5F7F4F8F4F9F4FAF4FB1E03ED0B4E080
:1048A0003CD0670F781F891F9A1FA11D680F791FC1
:1048B0008A1F911DA11D6A0F711D811D911DA11DD2
:1048C00020D009F468943F912AE0269F11243019E2
:1048D000305D3193DEF6CF010895462F4770405D7D
:1048E0004193B3E00FD0C9F7F6CF462F4F70405D2C
:1048F0004A3318F0495D31FD4052419302D0A9F787
:10490000EACFB4E0A6959795879577956795BA9580
:10491000C9F700976105710508959B01AC010A2E46
:1049200006945795479537952795BA95C9F7620F1D
:10493000731F841F951FA01D08952F923F924F92C1
:104940005F926F927F928F929F92AF92BF92CF921F
:10495000DF92EF92FF920F931F93CF93DF93CDB728
:10496000DEB7CA1BDB0B0FB6F894DEBF0FBECDBFA0
:1049700009942A88398848885F846E847D848C8471
:104980009B84AA84B984C884DF80EE80FD800C817A
:104990001B81AA81B981CE0FD11D0FB6F894DEBF5D
:1049A0000FBECDBFED01089511E0C9E8D1E004C00C
:1049B000FE010E94BB202196CA38D107C9F7F8949E
:0249C000FFCF27
:1049C200D201D2010000390480000000000073020D
:1049D200D3010002DB0231020F02230200000000B9
:1049E200F70600000000B10FC2044D1600000000DF
:1049F20061042F1666046404000000006704351683
:104A02006604F31000000000BB044316DA0AF31038
:104A120000000000270488043F160000000027045D
:104A220088044F1600000000140A89044116000091
:104A32000000F1052A042D164E0F436F6E6669675A
:104A4200204368616E6765643A204C697374300074
:104A52007472616E736D69744465765472794D61D6
:104A6200783A20007570644379636C653A2000538C
:104A7200656E736F7220736574757020646F6E65F6
:104A820000435243204F4B2C20436667202564206D
:104A920025642C2044697374616E63652025642C3F
:104AA200204C6576656C2025642C20566F6C756DE4
:0C4AB200652025642028256425252900A6
:00000001FF
