:100000000C94B1000C94F8180C94D1180C94FC1BAF
:100010000C94991B0C94281B0C941F190C943619E2
:100020000C94D9000C94BD190C94D9000C94D900EF
:100030000C94D9000C94E7190C94D9000C94D900B5
:100040000C9487180C94D9000C9455180C942F1804
:100050000C94D9000C946E190C94D9000C94D9000E
:100060000C940D1A0C94D900012E2E060DE9CAFF2E
:100070000C450000060021656AC8930322F8340786
:100080000318166C4340912F65785610E92A1F110A
:1000900000000000240027002A00000000002500C6
:1000A00028002B00000000080002010000030407E4
:1000B000000000000000000004080900000000002B
:1000C000000000021405050000000002010A010002
:1000D0000000000000000000000000000000000020
:1000E000000000060305010101010A0601010105E6
:1000F00001050A02060202000000000501080404CE
:100100000404000000000023002600290000010272
:1001100003040506070001020304050001020304AD
:10012000050404040404040404020202020202039B
:1001300003030303030102040810204080010204AA
:10014000081020010204081020A5A9014A504252BB
:100150004338303030310000DA10400000005F1CBE
:10016000532111241FBECFEFD8E0DEBFCDBF11E079
:10017000A0E0B1E0E4EAF6E402C005900D92A438F4
:10018000B107D9F724E0A4E8B1E001C01D92A93D70
:10019000B207E1F710E0C0EBD0E004C02197FE0108
:1001A0000E940422CF3AD107C9F70E94081E0C947E
:1001B00045230C9400009EEF980F923008F48CC0F9
:1001C00090E0FC01EB5CFE4F2491FC01EF5DFE4FE3
:1001D0003491323089F540912F02422B40932F0207
:1001E00040912C02422B40932C02835F9E4FFC01D6
:1001F000A491323079F5B0E0AA0FBB1FA25EBD4FCB
:100200006D937C93E7E0F1E0A591B4918C9180939C
:100210001D028BE690E090931C0280931B0280915C
:100220006800816080936800A0911B02B0911C025D
:10023000EC912E2B2C930895333009F03FC0409160
:100240002E02422B40932E0240912B02422B4093D0
:100250002B02CBCF3330C1F4B0E0AA0FBB1FA15F9C
:10026000BD4F6D937C93E9E0F1E0A591B4918C9141
:1002700080930E028CE690E090931C0280931B0208
:10028000809168008260CECF343071F6B0E0AA0F62
:10029000BB1FA250BE4F6D937C93EBE0F1E0A591A4
:1002A000B4918C918093FD018DE690E090931C02B7
:1002B00080931B02809168008460B4CF343009F0D1
:1002C00094CF40912D02422B40932D0240912A025F
:1002D000422B40932A0289CF0895089520917800F7
:1002E0003091790050E040E060E070E381E190E01F
:1002F0000E94CC21C90108950895AF92BF92CF9278
:10030000DF92EF92FF920F931F93CF93DF936C01D5
:100310007B018B01040F151FEB015E01AE18BF08B6
:10032000C017D10759F06991D601ED91FC91019068
:10033000F081E02DC6010995892B79F7C501DF9180
:10034000CF911F910F91FF90EF90DF90CF90BF90D2
:10035000AF900895FC01538D448D252F30E0842FFC
:1003600090E0821B930B541710F0CF9608950197DD
:100370000895FC01918D828D981761F0A28DAE0FCA
:10038000BF2FB11D5D968C91928D9F5F9F73928F51
:1003900090E008958FEF9FEF0895FC01918D828D7D
:1003A000981731F0828DE80FF11D858D90E008954A
:1003B0008FEF9FEF0895FC01918D228D892F90E0A2
:1003C000805C9F4F821B91098F739927089580E865
:1003D00092E00E94DB0121E0892B09F420E0822FCA
:1003E000089580E090E0892B29F00E94E7018111B7
:1003F0000C9400000895FC01A48DA80FB92FB11D25
:10040000A35ABF4F2C91848D90E001968F7399274A
:10041000848FA689B7892C93A089B1898C91837028
:1004200080648C93938D848D981306C00288F38921
:10043000E02D80818F7D80830895EF92FF920F934E
:100440001F93CF93DF93EC0181E0888F9B8D8C8D80
:1004500098131AC0E889F989808185FF15C09FB774
:10046000F894EE89FF896083E889F9898081837037
:10047000806480839FBF81E090E0DF91CF911F91E6
:100480000F91FF90EF900895F62E0B8D10E00F5F07
:100490001F4F0F731127E02E8C8D8E110CC00FB6DD
:1004A00007FCFACFE889F989808185FFF5CFCE0175
:1004B0000E94FB01F1CFEB8DEC0FFD2FF11DE35AF4
:1004C000FF4FF0829FB7F8940B8FEA89FB898081F8
:1004D0008062CFCFCF93DF93EC01888D8823B9F072
:1004E000AA89BB89E889F9898C9185FD03C080813F
:1004F00086FD0DC00FB607FCF7CF8C9185FFF2CFBC
:10050000808185FFEDCFCE010E94FB01E9CFDF9115
:10051000CF910895833081F028F4813099F08230B2
:10052000A9F008958730A9F08830C9F08430B1F47B
:10053000809180008F7D03C0809180008F778093B1
:100540008000089584B58F7784BD089584B58F7D2C
:10055000FBCF8091B0008F778093B0000895809199
:10056000B0008F7DF9CFCF93DF93282F30E0F901D2
:10057000EC55FF4F8491F901EB5CFE4FD491F901EA
:10058000EF5DFE4FC491CC23A1F081110E948A023D
:10059000EC2FF0E0EE0FFF1FED5FFE4FA591B49141
:1005A000EC91ED2381E090E009F480E0DF91CF91C0
:1005B000089580E090E0FACF1F93CF93DF93282F28
:1005C00030E0F901EC55FF4F8491F901EB5CFE4FEF
:1005D000D491F901EF5DFE4FC491CC23A9F0162F01
:1005E00081110E948A02EC2FF0E0EE0FFF1FE65609
:1005F000FF4FA591B4918FB7F894EC91111108C0F9
:10060000D095DE23DC938FBFDF91CF911F910895AA
:10061000DE2BF8CFCF93DF9390E0FC01EB5CFE4F35
:1006200024918F5D9E4FFC0184918823C9F090E056
:10063000880F991FFC01E057FF4FA591B491FC0171
:10064000E656FF4FC591D49161110DC09FB7F89444
:100650008C91209582238C938881282328839FBFA7
:10066000DF91CF910895623051F49FB7F8943C9197
:10067000822F809583238C93E8812E2BEFCF8FB729
:10068000F894EC912E2B2C938FBFEACF3FB7F894C0
:100690008091D0019091D101A091D201B091D3016C
:1006A00026B5A89B05C02F3F19F00196A11DB11DCD
:1006B0003FBFBA2FA92F982F8827BC01CD01620F09
:1006C000711D811D911D43E0660F771F881F991FC3
:1006D0004A95D1F708954115510529F4EAE7F0E06C
:1006E00080818F7780836A307105B9F0CB01880FE4
:1006F000991F880F991F807267706860682B88E166
:100700000FB6F894A895809360000FBE60936000C8
:10071000E0E6F0E0808180648083232BD9F483B706
:10072000817F846083BFF89483B7816083BF85B77E
:10073000806685BF8F7D85BF7894889583B78E7FCF
:1007400083BF7894452B29F4EAE7F0E08081806844
:100750008083089583B7817F846083BFF89483B7D3
:10076000816083BF7894889583B78E7F83BF7894A8
:10077000E9CF1F93CF93DF93C1E0C0938701882314
:1007800099F1D091B8001091BA008091BC008A7B99
:100790008093BC0060E082E10E94DC0260E083E1C3
:1007A0000E94DC0210925602C09355021092300251
:1007B00061E082E10E94DC0261E083E10E94DC02F0
:1007C0008091B9008E7F8093B9008091B9008D7FB0
:1007D0008093B90080E28093B80085E48093BC00E8
:1007E0001093BA00D093B800DF91CF911F91089574
:1007F0008F929F92AF92BF92CF92DF92EF92FF9231
:100800000F931F93CF93DF93D0917F02D13208F0E3
:10081000D7C0182FC0917E020E9446036B017C0155
:100820008091560281116BC082E080935602109332
:1008300055028FEF8093540210925302D0935202CC
:10084000AEE5B2E0E2E3F2E080E0D81391C01092AE
:10085000310280913102CC0FC82BC09331028091BC
:100860003002813009F088C0109230020E944603A5
:100870006B017C01809131028093BB008091580212
:1008800090915902A0915A02B0915B02892B8A2B58
:100890008B2BA1F00E94460300915802109159023F
:1008A00020915A0230915B026C197D098E099F09D3
:1008B000061717072807390708F442C08091BC00C3
:1008C00083FDD8CF85EC8093BC000E9446036B016A
:1008D0007C0180915602823009F450C0809154020C
:1008E0008F3F09F46FC080915402803209F46CC0CC
:1008F00080915402803309F469C084E026C080915D
:10090000580290915902A0915A02B0915B02892B32
:100910008A2B8B2B09F484CF0E94460380905802C7
:1009200090905902A0905A02B0905B026C197D0918
:100930008E099F0986169706A806B90608F070CF9B
:10094000809157020E94B90385E010925D021092D7
:100950007F0210925C02DF91CF911F910F91FF9067
:10096000EF90DF90CF90BF90AF909F908F900895C1
:100970009D9191938F5F69CF85EEA5CF80915802AD
:1009800090915902A0915A02B0915B02892B8A2B57
:100990008B2B09F49ECF0E944603009158021091C0
:1009A000590220915A0230915B026C197D098E091F
:1009B0009F09061717072807390708F08ACFC0CF05
:1009C00081E0C3CF80E0C1CF82E0BFCF83E0BDCF65
:1009D000CF92DF92EF92FF920F931F93CF93C82F86
:1009E000813208F096C00E9446036B017C01809121
:1009F0005602811169C081E08093560280935502AE
:100A00009FEF90935402109253029C0F90935202C6
:100A10008093310280913102806A8093310280910B
:100A20003002813009F077C0109230020E944603F4
:100A30006B017C01809131028093BB008091580250
:100A400090915902A0915A02B0915B02892B8A2B96
:100A50008B2BA1F00E94460300915802109159027D
:100A600020915A0230915B026C197D098E099F0911
:100A7000061717072807390708F447C08091BC00FC
:100A800083FDD8CF85EC8093BC000E9446036B01A8
:100A90007C0180915602813009F43FC0809153025D
:100AA0008C1710F4C0915302A2E3B2E0EDEDF1E037
:100AB00080E08C1354C08C2FCF911F910F91FF9029
:100AC000EF90DF90CF900895809158029091590255
:100AD000A0915A02B0915B02892B8A2B8B2B09F4CF
:100AE00086CF0E944603009158021091590220912E
:100AF0005A0230915B026C197D098E099F09061715
:100B000017072807390708F072CF809157020E9413
:100B1000B903C0E0D0CF85EEB6CF80915802909156
:100B20005902A0915A02B0915B02892B8A2B8B2B20
:100B300009F4AFCF0E944603009158021091590268
:100B400020915A0230915B026C197D098E099F0930
:100B5000061717072807390708F09BCFD6CF9D91B6
:100B600091938F5FA6CF2091A801260F3327331FC3
:100B700021323105ECF420915602FC0190E080E036
:100B8000243069F082E00895A091A8012191AC0180
:100B900048575E4FA40FB52FB11D2C9301968617B1
:100BA00098F38091A801680F6093A80180E00895F0
:100BB00081E008950895E091DC018091DB01E81760
:100BC00030F4F0E0E352FE4F808190E008958FEF23
:100BD0009FEF08959091DC018091DB012FEF3FEFB3
:100BE000981748F4E92FF0E0E352FE4F208130E0FF
:100BF0009F5F9093DC01C90108958091DB01909182
:100C0000DC01891B990B0895CF92DF92EF92FF923E
:100C10000F931F93CF93DF937C01CB018A01209127
:100C20005C02222389F0EB016B01C40ED51ECC15AA
:100C3000DD0569F06991D701ED91FC910190F0819A
:100C4000E02DC7010995F3CF642F0E94B305C801B9
:100C5000DF91CF911F910F91FF90EF90DF90CF9098
:100C60000895CF93DF931F92CDB7DEB769832091AC
:100C70005C022223F9F020917F02203258F021E01B
:100C800030E0FC013383228390E080E00F90DF911D
:100C9000CF91089580915D02E82FF0E0E25AFD4F78
:100CA000998190838F5F80935D0280937F0281E0C2
:100CB00090E0ECCF61E0CE0101960E94B305F7CF42
:100CC000682F82E393E00C94310690E080E0089571
:100CD0006A3050F4FC01808191810396F5E06F9FAA
:100CE000800D911D1124089590E080E0089561E049
:100CF0008AE00C94DC028EBD0DB407FEFDCF8EB5EC
:100D000008958CE00E94B3028111FBCF089560E04A
:100D10008AE00C94DC02CF93DF93D82FC62F0E9479
:100D200087060E9481068D2F8C2B0E947B0680E017
:100D30000E947B06C82F0E9477068C2FDF91CF91EF
:100D40000895CF93DF93D82FC62F0E9487060E9465
:100D500081068D2F0E947B068C2F0E947B06DF91DF
:100D6000CF910C947706CF93C82F0E9487060E94DC
:100D700081068C2F0E947B06C82F0E9477068C2F3D
:100D8000CF91089586E30E94B3068DE30E94B306D7
:100D90008AE30C94B306FC01862F608362E00C9416
:100DA0000A03811104C0E8E6F0E0849108958FEF12
:100DB0000895833030F4E82FF0E0E854FF4F849139
:100DC00008958FEF089582508B3030F4E82FF0E0D3
:100DD000E25FFE4F808108958FEF0895843030F4F4
:100DE000E82FF0E0E65FFE4F808108958FEF0895D1
:100DF000FC01962F97706085687F692B6087089546
:100E0000FC01108608950F931F93CF93DF932DE578
:100E100031E0FC01318320838C01085B1F4F79F0A6
:100E2000EC01C05CDE4F0C171D0749F06F97E8819D
:100E3000F9810280F381E02DCE010995F4CFDF9195
:100E4000CF911F910F910895FC018289938960E0F1
:100E5000911101C061E00C94DC02E091D401F091A9
:100E6000D501838581FD03C083858C6083870895C8
:100E700080E0089508950895FC018289938961E0D6
:100E8000911101C060E00C94DC020895089508956A
:100E90000895982FFB0180E02491291729F08F5F96
:100EA00031964813F9CF8FEF089541E068E670E07E
:100EB0000C94490743E068EB70E00C944907FC018F
:100EC0008081811109C08181811106C081E09281F8
:100ED000911103C080E0089581E00895DC01FB01D9
:100EE0009C91808198130BC011969C9111978181E0
:100EF000981305C081E012962C919281291380E00D
:100F00000895CF93DF93EC01FB0180818F83818172
:100F100088878281898766E273E0CF010E946E072D
:100F2000882321F08A818F7D84608A83DF91CF912D
:100F30000895FC013381FB012381321302C00C941C
:100F40006E0780E00895CF93DF9300D000D0CDB737
:100F5000DEB7FC0180899485998395859A8396856F
:100F60009B838C83882389F0BF01645F7F4FCE0110
:100F700001960E949907811108C082E00F900F909E
:100F80000F900F90DF91CF91089581E0F7CF2FB7A9
:100F9000F894FC01808191812FBF0895FF920F93F7
:100FA0001F93CF93DF93EC018B01FFB6F8940E945F
:100FB000C7079C019FB7F894F801318320839FBF36
:100FC0008FB7F894198308838FBFFFBEDF91CF914D
:100FD0001F910F91FF9008956F927F928F92DF92F1
:100FE000EF92FF920F931F93CF93DF937B0122E049
:100FF000E20EF11CDB0115962D913D914C91232BB6
:10100000242B09F44DC0EB01DFB6F8942C8122604B
:101010002C838C010E94C707009709F43EC0FC0195
:101020003297A1F06580768087802D813E814F8147
:10103000CF01029662167306840650F4261937090A
:1010400048092D833E834F838C01E4CF90E080E0FC
:101050002FB7F8949B838A832FBF8FB7F894D8015A
:10106000ED92FC928FBF309761F085819681A781C8
:101070002D813E814F81821B930BA40B8583968328
:10108000A783DFBEDF91CF911F910F91FF90EF906B
:10109000DF908F907F906F900895F0E0E0E0D8CFE0
:1010A000B7010296DF91CF911F910F91FF90EF90C2
:1010B000DF908F907F906F900C94CE071F93CF930B
:1010C000DF93EC01FB012885922F9770943079F023
:1010D00040F4923051F0933039F1DF91CF911F916C
:1010E0000895953009F19630C1F711E012C023FD43
:1010F00021C02A853B852550310913E02115310592
:1011000041F040E02D833E834F83BE01CF010E941A
:10111000EC07E881F9810680F781E02D612FCE018F
:10112000DF91CF911F91099423FDD7CF2A853B856D
:1011300015E0E4CF25E030E012E0E3CF0F931F93FA
:10114000CF93DF93EC018B01E88981E08E0F888BD0
:10115000EC0FFD2FF11D228530E0A4E6B0E00E94E7
:10116000EE212AE030E040E050E00E94CC212D83C7
:101170003E834F83BE01C8010E94EC0788898170BD
:10118000DF91CF911F910F910895EF92FF920F93EE
:101190001F93CF93DF93EC01FFB6F8940E94C7072B
:1011A0008C01892B71F0EFB6F894CE010E94C7072D
:1011B0000E94C7079C019FB7F894398328839FBF7B
:1011C000EFBEFFBEC801DF91CF911F910F91FF903D
:1011D000EF900895BF92CF92DF92EF92FF920F931C
:1011E0001F93CF93DF93EC01FFB6F8948C818D7F32
:1011F0008C838EE293E00E94C7070097C9F19C019F
:10120000225031098EE293E02115310589F18901DF
:101210000E5F1F4FC217D30709F50E94C508C8010A
:101220000E94C707009779F0FC01329761F0858131
:101230009681A7812D813E814F81820F931FA41F2C
:1012400085839683A783FFBEDF91CF911F910F9176
:10125000FF90EF90DF90CF90BF900895C8010E945B
:10126000C707009729F09C0122503109C801CCCF53
:101270006E0182E0C80ED11CEFB6F894BFB6F894A8
:1012800080E393E00E94C707EC0120E333E020975E
:1012900079F010E000E0CC16DD0609F48901CE01FA
:1012A0000E94C7079E010115110521F4EC01EFCF43
:1012B00010E000E0BFBE0115110511F4EFBEC3CF71
:1012C000C8010E94C508FACFEF92FF920F931F93B7
:1012D000CF93DC0118960D911C91F80181850E9435
:1012E000B302D8011896CC911897C3FBEE24E0F80E
:1012F000F12C8E151F04C9F180FBC3F91896CC930D
:10130000C770C33031F0C53021F0C130C1F4C4E042
:1013100007C0F801808583FF12C0C33021F1C6E009
:10132000C8010E94EA0885E090E0A0E0F80185830A
:101330009683A783B8018EE293E00E94EC07D80160
:1013400018968C91189787708C1779F0ED91FC9115
:101350000680F781E02D6C2FC801CF911F910F916E
:10136000FF90EF900994C2E0DBCFCF911F910F91D6
:10137000FF90EF900895CF93DF93EC012C96CE0170
:101380000E94EA08BE018EE293E0DF91CF910C94B7
:10139000EC078091790390917A030C94BB098091BA
:1013A0007B0390917C030C94BB0980917D03909109
:1013B0007E030C94BB0980917F03909180030C9471
:1013C000BB0980918103909182030C94BB098091A9
:1013D0008303909184030C94BB09809185039091C1
:1013E00086030C94BB0980918703909188030C9429
:1013F000BB098F929F92AF92BF92CF92DF92EF92F2
:10140000FF92CF93DF93EC014A015B018EE293E000
:101410000E94C7070097B9F481E08887CE010E9437
:10142000EA088D829E82AF82BE018EE293E0DF9158
:10143000CF91FF90EF90DF90CF90BF90AF909F90B3
:101440008F900C94EC070297C12CD12C7601009759
:1014500019F3FC01258136814781642FA90170E0D1
:10146000C40ED51EE61EF71EC817D90739F002961E
:101470000E94C707009781F20297E9CFC814D904E8
:10148000EA04FB0448F2DF91CF91FF90EF90DF90E8
:10149000CF90BF90AF909F908F900895CF92DF92A2
:1014A000FF920F931F93CF93DF938C01FFB6F894B5
:1014B0000E94C707009769F1EC01229751F18D81D5
:1014C0009E81AF810197A1098D839E83AF836801BF
:1014D00082E0C80ED11C8D819E81AF81892B8A2B21
:1014E000C1F4C8010E94C5088C8180FF1CC08D7F9B
:1014F0008C83E881F9810190F081E02DB801CE0163
:101500000995C8010E94C707009719F0EC012297BE
:1015100011F7FFBEC801DF91CF911F910F91FF908E
:10152000DF90CF900895BE016E5F7F4FC6010E948D
:10153000CE07E7CF4F925F926F927F928F929F92EA
:10154000AF92BF92CF92DF92EF92FF920F931F93D1
:10155000CF93DF937C01B62E772E84E0C82ED12C5A
:1015600090E2892E912C6624639420E5522EC701C7
:101570008F719927E401C81BD90BC6012FE1C21650
:10158000D10410F08EE190E08C179D0708F4EC0177
:1015900060925C0250927E0210925D0210927F0275
:1015A0008F2D90E00E946006C70199270E94600677
:1015B00081E00E94F803A82E81111FC08C2F0E9489
:1015C000E8041092DC018093DB014B2C0B2D172DCE
:1015D000B02E712E802F84198C171D0670F482E3B3
:1015E00093E00E94EA05F80181938F01F1CFC114C5
:1015F000D10409F0BCCF81E007C0CC1ADD0AEC0EA3
:10160000FD1EAA20A1F380E0DF91CF911F910F91E1
:10161000FF90EF90DF90CF90BF90AF909F908F9012
:101620007F906F905F904F900895CF93DF93EC0180
:10163000CB011A82198218821B82642F04960E94A1
:101640006806009719F0BE010E949A0ACE01DF9148
:10165000CF910895CF92DF92EF92FF921F93CF9395
:10166000DF9300D000D0CDB7DEB77C016B0110E076
:10167000412FB701CE0101960E94150BBE016F5F8D
:101680007F4FC6010E946E07811104C01F5F1A3090
:1016900079F71FEF812F0F900F900F900F90DF9130
:1016A000CF911F91FF90EF90DF90CF900895CF9250
:1016B000DF92EF92FF921F93CF93DF9300D000D081
:1016C000CDB7DEB77C016B0110E0412FB701CE0131
:1016D00001960E94150BB601CE0101960E94990752
:1016E000882391F0612FC70104960E946806049632
:1016F0000F900F900F900F90DF91CF911F91FF905F
:10170000EF90DF90CF9008951F5F1A30F1F690E0D0
:1017100080E0EECFCF93DF9300D000D000D01F92B7
:10172000CDB7DEB7211120C0FC0186A597A59A830D
:10173000898384E08B838EEE96E09D838C8383EE99
:1017400096E09F838E8329813A814B815C816D81F4
:101750007E818F8190E027960FB6F894DEBF0FBE92
:10176000CDBFDF91CF910895662359F1FC0135A5D6
:10177000361770F1E62FF0E07796EE0FFF1FE80FB7
:10178000F91F80819181213081F4FC01838D948D3A
:101790002AE537E049ED56E063E09A8389836B835D
:1017A0005D834C833F832E83CECF243089F4BA01EE
:1017B00047960E94570B25E537E041ED56E061E082
:1017C000ECCF30E020E050E040E090E080E0E5CF7A
:1017D00030E020E050E040E060E0F7CFEF92FF9291
:1017E0001F93CF93DF9300D000D0CDB7DEB77C013D
:1017F00010E0412FB701CE0101960E94150BCE01DA
:1018000001960E945F07882321F01F5F1A3089F735
:101810001FEF812F0F900F900F900F90DF91CF91BE
:101820001F91FF90EF900895CF93DF93EC0181E03B
:1018300080935C0280E580937E0210925D0210929C
:101840007F028D2F90E00E946006CE0199270E94B2
:10185000600681E00E94F80381110EC081E00E94C1
:10186000E8041092DC018093DB0182E393E00E94A4
:10187000EA05DF91CF91089580E0FBCFCF93DF930E
:10188000EC0141E068E670E081E00E9449078F3F8B
:1018900059F028813981820F932F911D0E94140CD9
:1018A0008170DF91CF91089580E0FBCF0F931F935C
:1018B000CF93DF93EC010B8D1C8D43E068EB70E060
:1018C00084E00E9449078F3FF9F0800F912F911D0E
:1018D0000E94140C82958F7094E6899FD001112488
:1018E000A45DBE4F24E630E00E94FD2128EE33E0E7
:1018F00040E050E00E94CC213B872A8781E0DF91C5
:10190000CF911F910F91089581E0E6CFEF92FF9262
:101910000F931F93CF93DF93EC018B01FB01808129
:10192000918103960E94140CF82EF8018081918118
:1019300002960E94140CE82EF80180819181019694
:101940000E94140C8883E982FA82CE01DF91CF9144
:101950001F910F91FF90EF9008950F931F93CF93D6
:10196000DF93EC018B010E94EA08CE010E943C0744
:10197000B80183E0660F771F8A95E1F765547F4FC2
:1019800048E050E0CE0108960E94572188858823C0
:1019900071F0188A198A6EE273E0CE010E949E08E7
:1019A000CE01DF91CF911F910F910C942407DF910D
:1019B000CF911F910F9108950F931F93CF93DF93B2
:1019C00000D01F92CDB7DEB78B0143E050E0BC01E1
:1019D000CE0101960E9457219A818B812981F801BD
:1019E0002083918382830F900F900F90DF91CF918E
:1019F0001F910F9108951F93CF93DF93EC011FB7B1
:101A0000F89498898885981760F4CE010E949E0802
:101A10001FBF8823C1F0CE01DF91CF911F910C949D
:101A20002407188A9985992381F389898F5F898B87
:101A3000891758F348E050E06BEB70E0CE01089650
:101A40000E9457211FBFCE01DF91CF911F910C94AF
:101A50003C0785ED8093BC0080915802909159021B
:101A6000A0915A02B0915B020796A11DB11D23E01F
:101A7000B695A795979587952A95D1F72091BC00A3
:101A800024FD03C0109256020895409158025091CF
:101A9000590260915A0270915B02452B462B472BED
:101AA00069F30097A105B10541F02AE12A95F1F704
:101AB00000C00197A109B109E1CF809157020C94B0
:101AC000B9030F931F93CF9361E085E00E940A034F
:101AD00060E085E00E94DC028FE99FE00197F1F76A
:101AE00000C0000061E08AE00E940A0361E08BE030
:101AF0000E940A0360E08CE00E940A0361E08DE02E
:101B00000E940A0380E58CBD61E08AE00E94DC024D
:101B100061E08DE00E94DC0260E08BE00E94DC026C
:101B20000E9487060E9481060E94770695E89A9592
:101B3000F1F700000E9487060E94810680E30E9460
:101B40007B060E9481060E94770609E610E0C0E04D
:101B5000F80164918C2F0E94A106CF5F0F5F1F4F89
:101B6000C732B1F783E30E94B3068FEA93EB019784
:101B7000F1F700C0000060EC8EE30E94A10681E056
:101B8000CF911F910F910895CF93C82F0E94610D9F
:101B90000E9487060E9481060E947706C1110E945A
:101BA000C20684E3CF910C94B3061F93CF93DF93C7
:101BB000C9E1D1E010E58FE99FE00197F1F700C09E
:101BC0000000D0935C0210937E0210925D0210928E
:101BD0007F0260E082E393E00E94310660E082E3EE
:101BE00093E00E94310681E00E94F803882339F0D7
:101BF000C15009F780E0DF91CF911F91089581E0F6
:101C0000FACF5F926F927F928F929F92AF92BF9224
:101C1000CF92DF92EF92FF920F931F93CF93DF93B8
:101C20008C016B0184E0E82EF12C90E2A92EB12CFE
:101C30007724739420E5622EC8018F719927E501FE
:101C4000C81BD90BC7012FE1E216F10410F08EE199
:101C500090E08C179D0708F4EC0170925C02609292
:101C60007E0210925D0210927F02812F90E00E940E
:101C70006006C80199270E9460065C2C4601640139
:101C8000882D85198C171D0650F48FEF881A980A35
:101C9000F601608182E393E00E943106F0CF81E09B
:101CA0000E94F80381111CC00E94D50DEC1AFD0A98
:101CB0000C0F1D1F882321F0E114F10409F0BCCFA3
:101CC000DF91CF911F910F91FF90EF90DF90CF9018
:101CD000BF90AF909F908F907F906F905F9008958E
:101CE00080E0E4CFAF92BF92CF92DF92EF92FF926B
:101CF0001F93CF93DF9300D000D0CDB7DEB77C0128
:101D00006B0110E05C0184E0A80EB11C412FB7010B
:101D1000CE0101960E94150BB601CE0101960E94DC
:101D20009907882369F01B821A8219821C82612F0D
:101D3000C5010E946806BE016F5F7F4F0E94010EC1
:101D40001F5F1A3019F781E00F900F900F900F90DE
:101D5000DF91CF911F91FF90EF90DF90CF90BF90D8
:101D6000AF9008959F92AF92BF92CF92DF92EF9281
:101D7000FF920F931F93CF93DF938C017B0180E23F
:101D8000A82EB12CCC24C39490E5992EC8018F7154
:101D90009927E501C81BD90BC7012FE1E216F10411
:101DA00010F08EE190E08C179D0708F4EC01C092D2
:101DB0005C0290927E0210925D0210927F02812F4F
:101DC00090E00E946006C80199270E946006D12C0D
:101DD000DC161D0638F4D39460E082E393E00E94A1
:101DE0003106F6CF81E00E94F803811117C00E94EE
:101DF000D50DEC1AFD0A0C0F1D1F882319F0E114F4
:101E0000F10421F6DF91CF911F910F91FF90EF9098
:101E1000DF90CF90BF90AF909F90089580E0E9CF82
:101E20001F93CF93DF93142FFC01C081D181C60F84
:101E3000D11D81E080935C0280E580937E02109248
:101E40005D0210927F028D2F90E00E946006CE010D
:101E500099270E946006612F82E393E00E94310679
:101E600081E00E94F803811105C0DF91CF911F919D
:101E70000C94D50D80E0DF91CF911F910895CF9301
:101E80008BE894E00E943C078091B60480FD28C056
:101E9000CFEF86E30E94B306C150807731F08AE12C
:101EA0008A95F1F700C0C111F4CF8AE30E94B3060E
:101EB00089E30E94B30660E08AE00E940A0360E0C2
:101EC0008BE00E940A0360E08DE00E940A0361E05B
:101ED00085E00E94DC028091B60481608093B604A4
:101EE00030E020E050E040E06AE070E086E891E019
:101EF000CF910C946B03AF92BF92CF92DF92EF928F
:101F0000FF920F931F93CF93DF93EC017B018B859F
:101F10008B7F8B878E01035F1F4F60EC8BE30E94EA
:101F20008B0618166CF1D12C8AE30E94B3068BE75E
:101F300091E00197F1F700C000000E94C20684E31F
:101F40000E94B306DD2009F460C0DC868D8596E72B
:101F500098279D8721E04D2D50E0BA01615071090D
:101F6000A22FB0E0F801EA0FFB1F9081A617B70778
:101F70000CF043C08452892780832F5F892FF0CFD4
:101F800060E88FE30E948B06D82E4CE1481758F288
:101F90000E9487060E9481068FEF0E947B06C02E5A
:101FA00058018A2D8C198D1538F480E00E947B062B
:101FB000F50181935F01F5CF0E94770660E88FE31A
:101FC0000E948B06282F30E0082E000C990B8827E2
:101FD0009170A901481B590BCA0157FD01969595AF
:101FE0008795919581959109865B898360E88FE358
:101FF0000E948B0687FF97CF97CF8E858927808396
:10200000B801C70101960E943C23F701D0821C86CB
:102010008B8580FF06C080E00E94C40D8B858E7F7B
:102020008B87F7018081DF91CF911F910F91FF90F6
:10203000EF90DF90CF90BF90AF9008952F923F9296
:102040004F925F926F927F928F929F92AF92BF92C8
:10205000CF92DF92EF92FF920F931F93CF93DF9374
:10206000CDB7DEB7A2970FB6F894DEBF0FBECDBFD7
:102070006C017B01BA01C7010E948107B7016C5F47
:102080007F4FF60182A593A50E94DC0CF7018281A7
:1020900080688283F6018281938162E070E002961B
:1020A0000E94AD0C26E0722EC701019699A388A369
:1020B0003AE0432E512C612C470197E0890E911C88
:1020C000F60102811381F70182818071282E580167
:1020D000FFE2AF0EB11CF701408150E068A179A189
:1020E000C5010E943C23F7012081F80126A787A59E
:1020F000F6E78F27F80187A790A961E02150330BFD
:10210000462F50E0F501E40FF51F70814217530789
:102110002CF48452872780836F5FF2CF892F872723
:102120008083F801F6A5FF8FB8016C5D7F4FF80141
:10213000F4A5FE8FFF2339F08FEC97E00197F1F7BC
:1021400000C00000F4CFF80141A652A663A621E02A
:1021500024A78EE293E00E94EC07F80185A580FF9A
:1021600007C081E00E94C40DF80185A58E7F85A778
:10217000F80185A5826085A786E30E94B3068BE3FC
:102180000E94B30698EC392E85E30E94B30687ECD3
:1021900090E00197F1F700C000003A94311043C07D
:1021A00086E30E94B3068BE30E94B3068DE30E9490
:1021B000B30684E30E94B30660EC85E30E948B06BD
:1021C0008D30B9F790E0F80185A58D7F85A77A94C9
:1021D000992309F491C0F701828185FD6BC0F60156
:1021E00082819381F1E0FE8F63E070E002960E94AD
:1021F000AD0C8E8DA2960FB6F894DEBF0FBECDBF8C
:10220000DF91CF911F910F91FF90EF90DF90CF90D2
:10221000BF90AF909F908F907F906F905F904F9006
:102220003F902F90089560EC85E30E948B068331E8
:1022300009F0AACFEFE1FEE43197F1F700C000000A
:10224000222049F0FFE72BE888E0F1502040804051
:10225000E1F700C000006F8D8FE30E94A1060E948D
:1022600087060E9481068FE70E947B06AAA21501BD
:10227000822D9AA1891BEF8D8E1730F4F101819187
:102280001F010E947B06F4CF0E94770688ECB82ECF
:1022900060EC85E30E948B068D3011F491E093CFC2
:1022A00087EC90E00197F1F700C00000BA94B110FC
:1022B000EFCFF4CFC4010E945F07882309F48FCFCA
:1022C00019821A821B821C821F821E821D821A861C
:1022D000198618861B861C861CE3F6018281938171
:1022E000FC0125A522FD10C08FE19EE40197F1F7C6
:1022F00000C00000115089F77110E2CEF601828112
:10230000938164E070E072CFBE016F5F7F4F829671
:102310000E947B0F882341F3F70191818A819813F2
:10232000E3CFBE016B5F7F4FC4010E946E0788231D
:10233000D9F28C8110E0823041F48B85182F1095F2
:10234000111F1127111F87FD712CF701828181FD5B
:1023500003C08B8180FF0AC0F6018281938142E332
:1023600050E060E070E049960E94F909112321F2E3
:1023700036CF2F923F924F925F926F927F928F92C1
:102380009F92AF92BF92CF92DF92EF92FF920F9304
:102390001F93CF93DF93CDB7DEB729970FB6F8948D
:1023A000DEBF0FBECDBF7C01262F962F9770D701C1
:1023B00018968C911897887F892B18968C9318976C
:1023C00057960D911C915801BBE0AB0EB11C80914A
:1023D000D9019091DA01C29664E670E00E94B821BA
:1023E000D8011296ED91FC9113975689F701458D0E
:1023F000828D16969C9116979F5F16969C933BEF45
:10240000320F323008F07FC030E4651708F43068CE
:102410005BE0D8011B965C931B9750E41E965C937F
:102420001E9752E21D965C931D978F73832B5596D2
:102430008C9355971C969C931C9756964C93822F81
:102440008B7F823009F0B9C0F701C788D08C912CFE
:10245000812C212C3701F7E16F0E711C28018FE0D0
:10246000480E511CAAE08A16910409F476C0482D42
:10247000B301CE0101960E94150BCE0101960E9478
:102480005F07382E8823D9F1BE016F5F7F4FC301EC
:102490000E942A0B8815190494F11F821E821D8246
:1024A000BE016B5F7F4FF60182A593A50E94DC0CF5
:1024B000BE016B5F7F4FCE0101960E946E0788239D
:1024C00071F1B201D6019A968D919C910E94DC0C1B
:1024D000B201C5010E948107F801858585FF15C0FD
:1024E0008F7D8587D601ED91FC910680F781E02DE7
:1024F000B501C6010995F801858580628587BFEF22
:102500008B1A9B0AAFCF30E080CFD601ED91FC91C2
:102510000680F781E02DB501C6010995F0CFBE0117
:102520006F5F7F4FC3010E94570B9E838D83CE0147
:1025300005960E943E0CF8019585882359F090611C
:102540009587AE014F5F5F4FB501C6010E941E1017
:10255000232CD5CF9F7E9587F4CF21100EC0F60196
:1025600064817581CE0101960E94860CAE014F5F99
:102570005F4FB501C6010E941E10D7015D968C9178
:102580005D978F5F5D968C9329960FB6F894DEBFAA
:102590000FBECDBFDF91CF911F910F91FF90EF90B4
:1025A000DF90CF90BF90AF909F908F907F906F9073
:1025B0005F904F903F902F900895253029F7F701B5
:1025C000C788D08C4801FFE08F0E911CB401D60162
:1025D0009A968D919C910E94DC0CF80185858F7DE7
:1025E0008587F7E1EF0EF11CB401C7010E942A0BA9
:1025F0008A3068F4B401C5010E948107D601ED91CB
:10260000FC910680F781E02DB501C60109951F8276
:102610001E821D82612C712C472DB701CE010196BF
:102620000E94150BCE0101960E945F07882309F1D5
:10263000BE016F5F7F4FC4010E946E07811119C0F8
:10264000CE0105960E945F07811106C089818D83A6
:102650008A818E838B818F83BE016F5F7F4FC7011D
:102660000E94570B99878887CE0108960E943E0CDE
:10267000682A7394BAE07B12CFCFCE0105960E94F0
:102680005F0781110DC0F60164817581CE0101964D
:102690000E94860C89818D838A818E838B818F83B2
:1026A000D8011D968C911D97662091F080611D9632
:1026B0008C93D8011D968C911D9784601D968C93E8
:1026C000AE014B5F5F4FB501C6010E941E105CCF8B
:1026D0008F7EF8018587EDCF0F931F93CF93DF9304
:1026E000EC018B018AE18B871E861D864C871E8A32
:1026F0006AA57BA5FB01719684913197E491ED8BDE
:102700008AA3625F7F4F42E050E0CE0146960E946E
:1027100057216AA57BA56D5F7F4F4AE050E0CE014F
:1027200048960E9457218DA58BA36AA57BA56E5E56
:102730007F4F42E050E0CE0184960E945721BE01B7
:10274000655F7F4FA801CE01DF91CF911F910F915F
:102750000C941E102F923F924F925F926F927F9235
:102760008F929F92AF92BF92CF92DF92EF92FF92A1
:102770000F931F93CF93DF93CDB7DEB7A6970FB616
:10278000F894DEBF0FBECDBF7C018B011BA21AA245
:1027900019A2BE016F5D7F4FDC019A968D919C91CD
:1027A0000E94DC0C2801B7E04B0E511CBE016F5D8E
:1027B0007F4FC2010E946E07C82E882309F474C09F
:1027C000F701C280D3805601F4E2AF0EB11CC501FF
:1027D0000E94EA088AE090E0A0E0F60181A792A7B3
:1027E000A3A781E084A7B5018EE293E00E94EC07E5
:1027F000D80112968C9186FDA8C0D80114968C91B0
:102800001497F701878315968C91159780871696F4
:102810008C911697818711968C91119782871396C8
:102820008C9113971A96BC901A97813009F0A5C322
:102830001B963C90FAE03F129BC0D7019A966D918F
:102840007C916D5F7F4F4AE050E0CE0101960E947F
:1028500057214AE050E0BE016F5F7F4FC8010C96E0
:102860000E942F23892B09F0BEC3F7018281938137
:1028700061E070E002960E94AD0CD70112968D9136
:102880009C9140ED57E060E070E049960E94F909A4
:10289000F8014081B8016C5F7F4FC7010E946C1343
:1028A000D12CC12C312C9FC0F8018081898381817A
:1028B0008A83B280BB82D380DC8284818D838581D0
:1028C0008E8386818F8387818887808589878185AC
:1028D0008A8782858B87A384AC8681E13C96DE0162
:1028E0001D9601900D928A95E1F766E273E0CE01A4
:1028F00008960E946E07882339F0F1E0DF1204C0C9
:102900002AE0A21609F45CCFB2FE05C080EC8D0D62
:10291000823008F455CF8C2DA6960FB6F894DEBF02
:102920000FBECDBFDF91CF911F910F91FF90EF9020
:10293000DF90CF90BF90AF909F908F907F906F90DF
:102940005F904F903F902F900895B8016C5F7F4F3C
:10295000C70107960E946E07882309F44ECFD7015E
:102960001A969C91F8018181981347CFC12CD3CF3F
:10297000B1E03B12B6C0BB2009F435C3D7019D9628
:102980008C918B1508F42FC3EB2DF0E07796EE0FAA
:10299000FF1FEE0DFF1DC080D180C8010E94A3075C
:1029A0004801BCE08B0E911C5601E7E1AE0EB11C54
:1029B000813009F058C0B401C5010E94720EC501F2
:1029C0000E94EE0B8F3F09F489C0682FC6014B9619
:1029D0000E946806B4010E94010E81E0F70184A7FD
:1029E000C6010E94560CD80112968C9185FF2DC00D
:1029F000BE016F5D7F4FC2010E946E07882329F1DF
:102A0000B1E03B1204C3A8014C5F5F4FC114D10475
:102A100009F4ECC2D7011296ED91FC9183A19EE0DE
:102A2000F801908392E0938312823286D6015A96FF
:102A30009C919387148615868687B801C7010E94EA
:102A40001E10F601818D8E7F818FD70112968D9198
:102A50009C9142E350E060E070E049960E94F909E1
:102A6000CC24C39458CFD80150968C9150971C9683
:102A70009C911C9799831D969C911D979A831E96F5
:102A80009C919B838C83B401C5010E94720EBE0190
:102A90006F5F7F4FC5010E94720EC5010E94EE0B51
:102AA0008F3FE1F03601BBE16B0E711C682FC30153
:102AB0000E946806B4010E94010EC5010E94EE0B3F
:102AC0008F3F41F0682FC3010E946806BE016F5F0F
:102AD0007F4F81CFB401C5010E94720E82E0382E73
:102AE00082CFF2E03F123FC0BB2009F47CC2D70185
:102AF0009D968C918B1508F476C2EB2DF0E07796BD
:102B0000EE0FFF1FEE0DFF1DC080D1805601B7E113
:102B1000AB0EB11CB801645F7F4FC5010E94720EFD
:102B2000982EC8010E94A307823081F4F8018089A1
:102B30009485998395859A8396859B838C83BE0122
:102B40006F5F7F4FC5010E94720E9822992009F491
:102B50004ACF81E0D7019C968C93C6010E94560C07
:102B60003324339440CFB3E03B1278C0BB2009F448
:102B7000F8C0F70195A59B1508F492CEEB2DF0E077
:102B80007796EE0FFF1FEE0DFF1D60807180D8015C
:102B900011969C91119714962C9114972E8F15963F
:102BA0002C9115972F8F16962C9128A35701BBE0D7
:102BB000AB0EB11C2AE1F701238720E1268720E232
:102BC0002587858B94874701F6E18F0E911C640160
:102BD000212C312C27E1620E711C4AE0241641F1B0
:102BE000422DB301CE0101960E94150BCE01019634
:102BF0000E945F078823D1F0339484E0FE01319670
:102C0000D60101900D928A95E1F754E0C50ED11CD2
:102C100084E038120BC0AE01425E5F4FB501C701C0
:102C20000E941E106401312C882311F02394D5CF0B
:102C300084E0D6011D928A95E9F7832D880F880FCD
:102C4000825FF701838785858F7D8587AE01425E30
:102C50005F4FB501C7010E941E1022CEF4E03F1263
:102C600082C0D80150962C91A801445F5F4F6B2D14
:102C7000C7010E948A0B29833A834B835C836D834F
:102C80007E838F83E981FA81FEA3EDA342E0342E97
:102C9000EF2B09F4CCC0D80111968C9111971496A2
:102CA0009C9114979E8F15969C9115979F8F1696C1
:102CB0009C9198A33701BBE06B0E711C9AE1F70160
:102CC000938790E1968790E2958792E0958B848731
:102CD0001701F6E12F0E311C6101B12CA12C1CA2B1
:102CE0008B818A151B0451F14CF1EC81FD818A2DF9
:102CF0000995D6018C934601B2E08B0E911C8DA1F3
:102D00009EA18A0D9B1D0E94140CF6018183FCA1DB
:102D1000FF5FFCA3F83059F4AE01425E5F4FB30190
:102D2000C7010E941E10882339F041011CA22FEF19
:102D3000A21AB20A6401D4CF61011CA2D6011C926E
:102D400011961C928CA18A5F880FF7018387858575
:102D50008F7D8587AE01425E5F4FB301C7010E9440
:102D60001E10312C64C0FEE03F1242C0EB2DF0E09B
:102D70007796EE0FFF1FEE0DFF1DC080D180D801AA
:102D800011962C91D7011296ED91FC91139783A186
:102D9000F601928D1B963C921B9730E11E963C9358
:102DA0001E9736E055963C9355971C962C931C978E
:102DB00056969C93569757961C92579758961C92E6
:102DC000589759968C93599782E01D968C93A80139
:102DD0004C5F5F4FB701655F7F4FC7010E941E10B8
:102DE000D60159968C9159978E7F59968C9358CDD0
:102DF000B5E03B121FC0F701E05CFF4FB0826701F6
:102E0000E1E4CE0ED11CD80150962C91A801445F6C
:102E10005F4F6B2DC7010E948A0BF601208331831F
:102E20004283538364837583868333243394D12C04
:102E3000C12CD9CDF6E03F1242C0D7019C968C93AD
:102E4000F701EF5BFF4F20813181F70186A597A540
:102E5000A701405C5F4F6A012817390719F5828185
:102E6000938170E060E002960E94AD0CD701ED9175
:102E7000FC910480F581E02DC70109958FEFF601E3
:102E800080838AE0D8018C9382E013968C93139709
:102E900012968C9312971A961C92A8014C5F5F4F62
:102EA000B801D8CEDA01EC91F0E07796EE0FFF1F73
:102EB000EE0DFF1D808191810E94560CDFCFB8E09E
:102EC0003B123BC0F701E05CFF4F80818B1519F08E
:102ED000D12CC12C45CE5701E1E4AE0EB11CD50179
:102EE0008D919C91892BA1F3F80180818B3008F49E
:102EF0008BE095EF392E380E4801FCE08F0E911CC7
:102F00006401370126E4620E711C8C2D881983152B
:102F1000F8F6D60111962C90D301ED91FC91D601D3
:102F20008C9109958F3F29F0422D682FC5010E9491
:102F3000100FB2E0CB0ED11CE8CFE9E03E1253C037
:102F4000D80111968C9194E1F701938790E19687CF
:102F50001586158A8487168A62A573A56D5F7F4FD3
:102F60004AE050E0C70146960E945721A8014C5FF5
:102F70005F4FB701655F7F4F6DCE813189F5F4E01A
:102F8000BF1619F02AECB2128BCC8AE0D8018C93D0
:102F900082E013968C93139712961C9212971A96AE
:102FA0001C92A8014C5F5F4FB801C7010E941E1020
:102FB000BAECBB120BC088E19CE00FB6F894A89560
:102FC000809360000FBE90936000FFCF64E070E0DC
:102FD00090E080E00E94B20EF0E0E0E0099560CC65
:102FE000823109F475CFD12CC12C78CD8AE0D8017B
:102FF0008C9382E013968C93139712961C921297DF
:103000001A961C92B801C7010E941E101ECDB2E094
:103010003B121BCD8AE0F80180833382128280E864
:103020008287A8014C5F5F4FEDCF0C94A622CF930F
:10303000DF93EC010E940307CE01DF91CF910C9446
:10304000A6220C94A6220C94A6220C94A6220C94E0
:10305000A6220C94A6220C94A6220C94A6221F92BF
:103060000F920FB60F9211242F933F934F935F93BC
:103070006F937F938F939F93AF93BF93EF93FF9340
:1030800080E892E00E94FB01FF91EF91BF91AF9128
:103090009F918F917F916F915F914F913F912F9170
:1030A0000F900FBE0F901F9018951F920F920FB6A2
:1030B0000F9211242F938F939F93EF93FF93E0919F
:1030C0009002F09191028081E0919602F091970236
:1030D00082FD1BC09081809199028F5F8F73209138
:1030E0009A02821741F0E0919902F0E0E058FD4F1A
:1030F000958F80939902FF91EF919F918F912F91DE
:103100000F900FBE0F901F9018958081F4CF1F92E3
:103110000F920FB60F9211242F933F938F939F938B
:10312000AF93BF938091CC019091CD01A091CE013E
:10313000B091CF013091CB0126E0230F2D3758F508
:103140000296A11DB11D2093CB018093CC019093D9
:10315000CD01A093CE01B093CF018091D001909189
:10316000D101A091D201B091D3010196A11DB11D51
:103170008093D0019093D101A093D201B093D30159
:10318000BF91AF919F918F913F912F910F900FBE63
:103190000F901F90189529E8230F0396A11DB11DCC
:1031A000D2CF1F920F920FB60F9211242F933F93FD
:1031B0004F935F936F937F938F939F93AF93BF933F
:1031C000EF93FF93E0910201F09103010995FF91C4
:1031D000EF91BF91AF919F918F917F916F915F918F
:1031E0004F913F912F910F900FBE0F901F90189508
:1031F0001F920F920FB60F9211242F933F934F936C
:103200005F936F937F938F939F93AF93BF93EF934E
:10321000FF93E0910001F09101010995FF91EF9179
:10322000BF91AF919F918F917F916F915F914F91DE
:103230003F912F910F900FBE0F901F9018951F92E6
:103240000F920FB60F9211248F930FB6F894A89592
:1032500080916000886180936000109260000FBED2
:103260008F910F900FBE0F901F9018951F920F9285
:103270000FB60F9211242F933F934F935F936F9349
:103280007F938F939F93AF93BF93CF93DF93EF93EE
:10329000FF93CDE1D3E060E089810E94DC021092CF
:1032A000B1006A817B818C819D810E946021609345
:1032B000B30081E08E83FF91EF91DF91CF91BF91B9
:1032C000AF919F918F917F916F915F914F913F91BE
:1032D0002F910F900FBE0F901F9018951F920F9275
:1032E0000FB60F9211242F933F934F935F936F93D9
:1032F0007F938F939F93AF93BF93EF93FF93E0914F
:10330000D601F091D701309739F19091D8019F5FA4
:103310009093D8018091D8018B30C8F00995209105
:10332000D9013091DA01232B29F49093DA018093AB
:10333000D90107C02091D9013091DA018217930792
:10334000A0F38091D6019091D701892B29F080912B
:103350007A00806480937A00FF91EF91BF91AF91E2
:103360009F918F917F916F915F914F913F912F919D
:103370000F900FBE0F901F9018951F920F920FB6CF
:103380000F9211242F933F934F935F936F937F93EB
:103390008F939F93AF93BF93EF93FF93E9E2F3E093
:1033A00084818F5F8483CF010E944E0AFF91EF9149
:1033B000BF91AF919F918F917F916F915F914F914D
:1033C0003F912F910F900FBE0F901F9018951F9255
:1033D0000F920FB60F9211242F933F934F935F9349
:1033E0006F937F938F939F93AF93BF93EF93FF93CD
:1033F0008EE293E00E944E0AFF91EF91BF91AF9150
:103400009F918F917F916F915F914F913F912F91FC
:103410000F900FBE0F901F9018951F920F920FB62E
:103420000F9211242F933F934F935F936F937F934A
:103430008F939F93AF93BF93EF93FF938091B900C6
:10344000887F803609F44AC0F0F5883209F4A5C0B7
:1034500018F5803109F499C0B8F4882309F4F5C04F
:10346000883009F492C0FF91EF91BF91AF919F9185
:103470008F917F916F915F914F913F912F910F901D
:103480000FBE0F901F901895883109F486C08032C6
:1034900051F78093540214C0803409F49BC040F467
:1034A0008033B9F38833F9F68093540285ECAEC0CB
:1034B000803509F483C0883509F494C0883499F6BE
:1034C0000E94290DD0CF883909F48AC038F5883791
:1034D00029F050F4883611F0803729F683E0809384
:1034E00056021092CA0155C0883809F479C0803953
:1034F00019F0803809F0B7CF8091CA01803208F006
:103500006FC0E091CA0181E08E0F8093CA01809163
:10351000BB00F0E0E655FE4F80833BC0803B39F0B6
:10352000D0F4803A09F477C0883A09F09CCF84E05F
:10353000809356021092A9011092A801F0E0E0E0F9
:1035400009958091A80181110FC081E08093A801A5
:103550001092880109C0803C09F4A8CF883C09F486
:10356000A5CF883B09F07FCFE091A90181E08E0FC4
:103570008093A901F0E0E857FE4F80818093BB0063
:103580009091A9018091A80129C080913102809376
:10359000BB0085EC8093BC0066CF90915302809174
:1035A0005202981758F5E091530281E08E0F8093F4
:1035B0005302F0E0EE5CFD4F8081E9CFE0915302D1
:1035C00081E08E0F809353028091BB00F0E0EE5CAF
:1035D000FD4F808390915302809152029817C8F258
:1035E00085E8D8CFE091530281E08E0F809353029B
:1035F0008091BB00F0E0EE5CFD4F8083809155022E
:1036000081115ECF81E08093300284EA8093BC0018
:103610001092560228CF85EC8093BC00109256027F
:103620008091CA01803230F4E091CA01F0E0E655A1
:10363000FE4F10826091CA0170E08AEA91E0F0E0EA
:10364000E0E009951092CA010ECF1092540238CFD3
:103650001F920F920FB60F9211242F933F934F9307
:103660005F936F937F938F939F93AF93BF93CF930A
:10367000EF93FF9399B1C091FD0180912D0230919C
:103680002A02292F209523238923822B20916D0044
:10369000C927C223C8239093FD01CC23C1F1C0FFE9
:1036A00005C0E091FE01F091FF010995C1FF05C041
:1036B000E0910002F09101020995C2FF05C0E0917E
:1036C0000202F09103020995C3FF05C0E0910402D4
:1036D000F09105020995C4FF05C0E0910602F09142
:1036E00007020995C5FF05C0E0910802F0910902A3
:1036F0000995C6FF05C0E0910A02F0910B020995F9
:10370000C7FF05C0E0910C02F0910D020995FF91F1
:10371000EF91CF91BF91AF919F918F917F916F91D9
:103720005F914F913F912F910F900FBE0F901F907F
:1037300018951F920F920FB60F9211242F933F935B
:103740004F935F936F937F938F939F93AF93BF93A9
:10375000CF93EF93FF9396B1C0910E0280912E020A
:1037600030912B02292F209523238923822B20910E
:103770006C00C927C223C82390930E02CC2351F1B9
:10378000C0FF05C0E0910F02F09110020995C1FF42
:1037900005C0E0911102F09112020995C2FF05C027
:1037A000E0911302F09114020995C3FF05C0E09166
:1037B0001502F09116020995C4FF05C0E0911702A9
:1037C000F09118020995C5FF05C0E0911902F0912A
:1037D0001A020995FF91EF91CF91BF91AF919F91FF
:1037E0008F917F916F915F914F913F912F910F90AA
:1037F0000FBE0F901F9018951F920F920FB60F9249
:1038000011242F933F934F935F936F937F938F93E5
:103810009F93AF93BF93CF93EF93FF9393B1C091D7
:103820001D0280912F0230912C02292F20952323F5
:103830008923822B20916B00C927C223C823909330
:103840001D02CC2351F1C0FF05C0E0911E02F09192
:103850001F020995C1FF05C0E0912002F0912102ED
:103860000995C2FF05C0E0912202F091230209955B
:10387000C3FF05C0E0912402F09125020995C4FF21
:1038800005C0E0912602F09127020995C5FF05C009
:10389000E0912802F09129020995FF91EF91CF91D3
:1038A000BF91AF919F918F917F916F915F914F9158
:1038B0003F912F910F900FBE0F901F90189510926F
:1038C00083021092820288EE93E0A0E0B0E0809341
:1038D000840290938502A0938602B09387022DE123
:1038E00031E0309381022093800225EC30E0309368
:1038F0008D0220938C0224EC30E030938F022093D1
:103900008E0220EC30E0309391022093900221EC63
:1039100030E0309393022093920222EC30E0309317
:1039200095022093940226EC30E030939702209386
:1039300096021092990210929A0210929B02109293
:103940009C021092240310922803109227031092D5
:10395000260310922F0310922E031092310310921F
:10396000300310922A031092290310922C03109214
:103970002B0310922D031092350310923403809381
:10398000360390933703A0933803B09339038FE243
:1039900091E0909333038093320389E894E090930D
:1039A0003F0380933E0310928E0410928D04109278
:1039B000900410929104109292048DE791E09093FC
:1039C0008C0480938B0410929B0410929C041092A0
:1039D0009D0410929E0481E080938F0410929F04B6
:1039E0001092A0041092A1041092A5041092A404B5
:1039F0001092A7041092A8041092A90423E731E0C2
:103A00003093A3042093A2041092AA048093A604E6
:103A10001092AC041092B0041092AF041092B20451
:103A20001092B3041092B40429E631E03093AE044E
:103A30002093AD041092B5048093B10428E0209344
:103A4000B6041092B7041092B8041092B904109200
:103A5000BA041092BD041092BC041092BB041092E0
:103A6000C0041092BF041092BE041092C1041092C0
:103A7000C20410924C0310924B0387E793E090939B
:103A80004E0380934D0310924F03109252031092F5
:103A9000510310925003109253031092540310924A
:103AA0005503109256031092570310925A03109226
:103AB00059031092580310925D0310925C03109208
:103AC0005B0310925E0310925F0380E290E090939C
:103AD00072038093710349E451E05093740340935F
:103AE0007303109275032093760390937803809369
:103AF00077038FEF8093890310928B0310928A03D0
:103B000010928C0310928E0310928D0310929003EA
:103B100010928F038DE591E090934A0380934903BF
:103B2000E1E9F3E029E834E0A8E2B0E06BE471E019
:103B300041E551E0108E178A818D8E7F8D7F818FB8
:103B4000128E148E138E13821282148215821682A4
:103B500017828085887F8160886080871186B3871F
:103B6000A28717861686108A118A128A138A758789
:103B70006487F58BE48B51834083158E168E7F9678
:103B80002E173F07B9F681E993E090937A0380936B
:103B9000790380EB93E090937C0380937B038FEC1D
:103BA00093E090937E0380937D038EEE93E0909359
:103BB000800380937F038DE094E090938203809351
:103BC00081038CE294E090938403809383038BE4DD
:103BD00094E090938603809385038AE694E0909323
:103BE000880380938703109243031092420310923C
:103BF000440310924503109246031092470381E458
:103C000091E09093410380934003109248030895FC
:103C1000CF93DF93CDB7DEB728970FB6F894DEBF0A
:103C20000FBECDBF789484B5826084BD84B58160B9
:103C300084BD85B5826085BD85B5816085BD809177
:103C40006E00816080936E001092810080918100EF
:103C500082608093810080918100816080938100E7
:103C6000809180008160809380008091B1008460A9
:103C70008093B1008091B00081608093B00080910A
:103C80007A00846080937A0080917A0082608093C9
:103C90007A0080917A008E7F80937A0080917A00FA
:103CA000806880937A001092C10080917703909190
:103CB0007803049620E049E453E03091760323171B
:103CC00088F4E22FF0E0EE0FFF1FE758FC4F019061
:103CD000F081E02D2F5F508F478B228F948F838F41
:103CE000C596EBCFBE016B5F7F4F90E080E00E94F6
:103CF0009A0A80E090E0AEEFBAEC89839A83AB83B6
:103D0000BC838D819E81AF81B8850097AE4FBA4C40
:103D100009F456C0BE016F5F7F4F90E080E00E94C3
:103D2000010E41E060E087E793E00E94100F40E061
:103D300061E087E793E00E94100F40E062E087E7D0
:103D400093E00E94100F40E063E087E793E00E9459
:103D5000100F10E080917603181790F5E12FF0E036
:103D6000EE0FFF1FE758FC4FE080F18065E370E045
:103D7000D7015B968D919C910E94B20EF701838DC5
:103D8000948D9A83898363E070E00E94B20E43E0D1
:103D900068EB70E084E00E944907082F8F3F71F0C4
:103DA00089819A81800F911D0E94140C8F70482F79
:103DB0004061602FCE0101960E94100F1F5FCACF95
:103DC00089E894E090934C0380934B031B821A8202
:103DD0001982BE016F5F7F4F8091730390917403CE
:103DE0000E94DC0C88E080939D0461E00E940A033D
:103DF0008BE894E00E943C07E8988CE791E0909370
:103E00000101809300018BEA94E09093D5018093A7
:103E1000D40160E082E00E940A030E94610D182F25
:103E2000882319F081E00E94C40D8DE297E0909301
:103E3000010180930001809169008C7F82608093F2
:103E40006900E89A80E180938100109280001092CE
:103E500085001092840080E49CE990938700809311
:103E6000860081E18093810080916F008160809362
:103E70006F0068E070E0112311F066E070E08BE8FD
:103E800094E00E94AD0C8B8190E001962AE0289F7F
:103E90008001299F100D11248DEA94E00E94EA0808
:103EA00024E630E0D8010E94FD2128EE33E040E016
:103EB00050E00E94CC212093B2043093B30440938D
:103EC000B40481E08093B5046DEA74E08EE293E07F
:103ED0000E94EC0780917103BCEFEB2EE80E855039
:103EE00090E004960E94140CD82E00E01EE58E2D62
:103EF0008150990B7C01802F90E08E159F0534F442
:103F000004960E94140C18270F5FF5CF1D111AC0DC
:103F100084E090E00E94140C182F85E090E00E944D
:103F2000140C082F80EA810F8B3060F461E28DE081
:103F30000E94A106612F8EE00E94A106602F8FE0F3
:103F40000E94A1068FB7F8941092D8012EE631E0B6
:103F50003093D7012093D6018FBF80917C0080736E
:103F600080937C0080917C00806480937C008091B1
:103F70007C008E6080937C0080917A008F608093BB
:103F80007A0080917A00806480937A0087E1809340
:103F90009F0484E18093A0048091790390917A0337
:103FA00060E009960E94CB0669EC79E080E00E940F
:103FB000DB0080917B0390917C036EE009960E9468
:103FC000CB066FEC79E08EE00E94DB0080917D03F0
:103FD00090917E036FE009960E94CB0665ED79E033
:103FE0008FE00E94DB0080917F039091800360E16D
:103FF00009960E94CB066BED79E080E10E94DB0020
:10400000809181039091820361E109960E94CB0621
:1040100061EE79E081E10E94DB0080918303909161
:10402000840364E009960E94CB0667EE79E084E0A1
:104030000E94DB00809185039091860366E00996DB
:104040000E94CB066DEE79E086E00E94DB00809155
:1040500087039091880367E009960E94CB0663EF7F
:1040600079E087E00E94DB0024E630E08091D9010E
:104070009091DA01C296B9010E94B8216623B1F38A
:1040800081E08093750311E080917603811760F0E1
:10409000E12FF0E0EE0FFF1FE958FC4F8081918186
:1040A0000E94560C1F5FF0CF10914F031F5F1093BB
:1040B0004F0360914D0370914E03CE0101960E9413
:1040C000860C412FBE016F5F7F4F89E493E00E9411
:1040D0006C1380914B0390914C0361E070E0029669
:1040E0000E94AD0C80914B0390914C0340ED57E042
:1040F00060E070E049960E94F90920E0C22E20E0BD
:10410000D22E3EE0B32E40E1A42E52E2952E66E080
:10411000562E7CE2672E77247394812C00E080E396
:1041200093E00E94C508FC01009781F0029771F0AE
:1041300022812D7F2283DC01ED91FC910190F081A1
:10414000E02D6EE273E0099501E0E9CF80914B0329
:1041500090914C03FC0125A522FD50C080E011E0A8
:1041600090917603911708F46DC0E12FF0E0EE0F07
:10417000FF1FE958FC4FE080F180D70159969C91D0
:1041800090FB332430F890FF37C040904F034394A6
:1041900040924F0360914D0370914E03CE01019602
:1041A0000E94860CE0914B03F0914C0383A1F70130
:1041B000928DB0925403A09257039092560350925E
:1041C0005E034092550390935F0310926003109238
:1041D000610380936203AE014F5F5F4F64E573E05C
:1041E00089E493E00E941E10D70159968C9159974B
:1041F0008E7F59968C93832D1F5FB2CF64E573E059
:1042000082960E947B0F8A3008F4A8CF1B821A8204
:104210001982BE016F5F7F4F809173039091740389
:104220000E94DC0CBE016F5F7F4F88E593E00E9427
:104230006E07811193CF64E573E089E493E00E94F7
:10424000AA138DCF9091AA04911127C0011125C006
:10425000811123C080914803811111C080E493E053
:104260000E94EA08609245037092460380924703D9
:1042700060E473E08EE293E00E94EC0781E08093BB
:104280004803C114D10409F449CF0E94E7018823EF
:1042900009F444CF0E94000041CF80E493E00E94E3
:1042A000EA0880E0ECCF89E493E00C940307FB017B
:1042B000DC0102C005900D9241505040D8F708959E
:1042C0000E94972188F09F5798F0B92F9927B751EE
:1042D000B0F0E1F0660F771F881F991F1AF0BA95AA
:1042E000C9F714C0B13091F00E94B121B1E0089536
:1042F0000C94B121672F782F8827B85F39F0B93F28
:10430000CCF3869577956795B395D9F73EF490955C
:104310008095709561957F4F8F4F9F4F089557FD02
:104320009058440F551F59F05F3F71F04795880F23
:1043300097FB991F61F09F3F79F0879508951216BA
:1043400013061406551FF2CF4695F1DF08C0161666
:1043500017061806991FF1CF869571056105089417
:104360000895E894BB2766277727CB0197F908952E
:10437000AA1BBB1B51E107C0AA1FBB1FA617B7078B
:1043800010F0A61BB70B881F991F5A95A9F78095A7
:104390009095BC01CD010895A1E21A2EAA1BBB1B6A
:1043A000FD010DC0AA1FBB1FEE1FFF1FA217B30701
:1043B000E407F50720F0A21BB30BE40BF50B661F17
:1043C000771F881F991F1A9469F7609570958095DB
:1043D00090959B01AC01BD01CF010895A29FB00152
:1043E000B39FC001A39F700D811D1124911DB29F29
:1043F000700D811D1124911D08950E94EE21B7FFBB
:104400000895821B930B0895EE0FFF1F0590F49102
:10441000E02D09940F931F93CF93DF938230910582
:1044200010F482E090E0E091D704F091D80430E0FD
:1044300020E0B0E0A0E0309799F42115310509F4AF
:104440004AC0281B390B24303105D8F58A819B815D
:104450006115710589F1FB0193838283FE0111C00F
:10446000408151810281138148175907E0F04817B4
:10447000590799F4109761F012960C9312971396BE
:104480001C933296CF01DF91CF911F910F91089528
:104490000093D7041093D804F4CF2115310551F0BF
:1044A0004217530738F0A901DB019A01BD01DF0172
:1044B000F801C1CFEF01F9CF9093D8048093D704CE
:1044C000CDCFFE01E20FF31F81939193225031096A
:1044D00039832883D7CF2091D5043091D604232B5C
:1044E00041F420910601309107013093D6042093C6
:1044F000D50420910401309105012115310541F4C5
:104500002DB73EB74091080150910901241B350B8E
:10451000E091D504F091D604E217F307A0F42E1B26
:104520003F0B2817390778F0AC014E5F5F4F241717
:10453000350748F04E0F5F1F5093D6044093D504C3
:10454000819391939FCFF0E0E0E09CCFCF93DF93F6
:104550000097E9F0FC01329713821282A091D704F0
:10456000B091D804ED0130E020E01097A1F4208153
:104570003181820F931F2091D5043091D6042817E2
:10458000390709F061C0F093D604E093D504DF91B8
:10459000CF910895EA01CE17DF07E8F54A815B81E4
:1045A0009E0141155105B1F7E901FB83EA83499169
:1045B0005991C40FD51FEC17FD0761F480819181DB
:1045C0000296840F951FE9019983888382819381E4
:1045D0009B838A83F0E0E0E012968D919C91139783
:1045E0000097B9F52D913C911197CD010296820F5C
:1045F000931F2091D5043091D6042817390739F636
:10460000309751F51092D8041092D704B093D60485
:10461000A093D504BCCFD383C28340815181840F42
:10462000951FC817D90761F44E5F5F4F8881998144
:10463000480F591F518340838A819B8193838283D2
:104640002115310509F0B0CFF093D804E093D704D9
:104650009ECFFD01DC01C0CF13821282D7CFFB01B8
:10466000DC0104C08D910190801921F4415050402B
:10467000C8F7881B990B0895FB01DC0102C001906B
:104680000D9241505040D8F7089510E0C0EBD0E0B3
:1046900004C0FE010E9404222196C13BD107C9F744
:0446A000F894FFCFBC
:1046A4007C017C010000D9048000020A0B0C00FF8D
:1046B400FFFFFFFFFFFF010203000000001D027D5A
:1046C40001AA016A02DB01B901CD01000000003139
:1046D4000604066506DA05FD05EA05DB05000000AB
:1046E400003F0F47072B180000000064090000007A
:1046F400005E0845071518B91100000000030717EC
:10470400186D01AA130000000000074707271800CE
:10471400000000000747072D1800000000FB0C48AC
:044724000729180049
:00000001FF
