:100000000C94202B0C94167A0C94417A0C946C7AF4
:100010000C941E300C9493300C9408310C947D3168
:100020000C94B9790C945B780C944A2B0C9431772E
:100030000C944A2B0C944A2B0C944A2B0C94017769
:100040000C944A2B0C944A2B0C94977A0C944A2BC0
:100050000C948B7D0C94C17D0C944A2B0C944A2BF0
:100060000C940D780C944A2B0C944A2B0C944A2B2C
:100070000C944A2B0C944A2B0C944A2B0C944A2B2C
:100080000C944A2B0C944A2B0C944A2B2D3E2000A6
:100090005061636B657420746F6F206269673A20EA
:1000A00000435243204661696C65640000776169D2
:1000B0007441636B3A20003C2D200020726561641E
:1000C0003A20002065787065637465643A200045C5
:1000D00072726F722061742000202D20726561643D
:1000E000790043432056657273696F6E3A200000B1
:1000F0002E0206030D04E905CA070C0B060D210E9E
:10010000650F6A10C81193120315341703181819D4
:10011000161B431E2F1F65207823E9242A251F263E
:10012000113E03436F6E66696720467265713A201F
:100130003078323100496E69742053746F72616790
:10014000653A2000202D200041646472657373209D
:1001500053706163653A200000206C6F6E677265B2
:100160006C656173656400206C6F6E677072657397
:1001700073656400206465626F756E63650020704E
:10018000726573736564002072656C656173656484
:1001900000524553455400424F4F544C4F41444543
:1001A00052003100434320696E6974000A000A005E
:1001B00069676E6F7265200048415645204441547E
:1001C00041002D3E20000A000A000A000A000A0031
:1001D000202053657269616C3A200049443A20003E
:1001E00041736B53696E2B2B2056342E312E3320E6
:1001F000284E6F7620313220323032302031393A79
:1002000033393A34322900506F77657255704B6537
:10021000792020202020203A2000506F77657255E9
:10022000704D6F646520202020203A2000526566C2
:10023000726573685761697454696D65203A20006E
:10024000646973706C6179496E76657274696E6702
:100250003A20006C65644D6F6465202020202020CA
:100260002020203A200063726974426174202020AB
:100270002020202020203A20006C6F7742617420DB
:100280002020202020202020203A2000434F4E46CE
:100290004947204C49535430204348414E47454438
:1002A00000200049434F4E204E756D626572206FED
:1002B0007574206F662072616E67652E2000202D98
:1002C00020416C69676E203D2000202D204C696E16
:1002D0006520203D2000202D205445585432203DDB
:1002E0002000202D205445585431203D2000080482
:1002F00009363738393A3B3C3D3E3F404142434462
:1003000045464748494A4B4C4D4E4F505152535425
:100310005590910A0B0C14051206073435F343006F
:100320004A50444953455030303000F343114001A6
:1003300001FFFFFFFFFFFFFFE7FFFE667FFE667F17
:10034000F2244FF1248FF8001FCC0033C00003F0DB
:10035000000FFC003FFFFFFFFF00FFFF81FFFFC317
:10036000FFFFE7FFFFE7FFFFE7FFFFC3FFFFC3FF5D
:10037000FFE7FFFFFFFFFFFFFFFFFFFFFFFFFFFFA5
:10038000FFFFFFFFFFF9CE7FF0003FF0003FF9CE07
:100390007FFFCFFFFFCFFFCFCFFFCFCFFFC0000F3B
:1003A000C00007C00003C00003C00003CFFF83CF1D
:1003B000FF83FFFF83FFFFFFFFFFFFFFFFFFFFFF45
:1003C000FFFFFFFFFFFFFFFFC1FFFF80FFFF9CFF5D
:1003D000FF987FFF987FFF9FFFFF9FFF80000180B6
:1003E0000001C00003C00003C00003E00007E000FC
:1003F00007E00007F0000FF8001FF3FFCFF3FFCF77
:10040000FFFFFFFFFFFFFFFFFFFFFFFFFFFFFFFCFF
:100410007FC7F87F87F9FF9FF9FF9FF9001FF90059
:100420001FF9FF9FF9FF9FF9001FF9001FF9FF9FB8
:10043000F9FF9FF9001FF9001FF9FF9FF9FF9FF9CE
:10044000001FF9001FF9FF9FF9FF9FFFFFFFFFFF4C
:10045000FFF79E79E30C31C10C30810020000000D1
:10046000000000C10C20C10C30C10C30C10C30C1E7
:100470000C30C10C30C10C30C10C30C10C30C10C7F
:1004800030C10C30800000000000000000C10C20D2
:10049000C10C30E38C31F7DE7BFFFFFFFFFFFFFF76
:1004A000FFFFFFFFFFFFFFFFFFFFFFC0000FC800C0
:1004B0004FCFFFEFC81FEFC81FE3C81FE3C81FE3FC
:1004C000C81FE3C81FEFCFFFEFC8004FC0000FFFEA
:1004D000FFFFFFFFFFFFFFFFFFFFFFFFFFFFFFFF2C
:1004E000FFFFFFFFFFFFFFFFC3FFFF81FFFF99FF3C
:1004F000FF99FFFF807FFF807FFF99FFFF99FFFF3C
:10050000987FFF987FFF99FFFF3CFFFE7E7FFE7E76
:100510007FFE7E7FFE7E7FFF3CFFFF00FFFFC3FF6D
:10052000FFFFFFFFFFFFFFFFFFF8FF1FFAFF5F82E4
:100530000041820041800001800001FFFFFF800038
:10054000018000018000018366C18366C1800001D3
:100550008366C18366C18366C18000018366C183EF
:1005600066C1800001800001800001800001FFFF62
:10057000FFFFFFFFFFFFFFFFE7FFFFE7FFFFC3FFF7
:10058000FF00FFFE007FFE007FFC003FFC003FFC01
:10059000003FFC003FFC003FFC003FFC003FFC0034
:1005A0003FFC003FF8001FF0000FFFFFFFFFC3FFFD
:1005B000FFE7FFFFFFFFFFFFFFFFFFFFFFFFFFFF63
:1005C000FFFFF0000FE00007E00007E00007E08118
:1005D00007E1C387E0E707E07E07E03C07E03C0770
:1005E000E07E07E0E707E1C387E08107E00007E07E
:1005F0000007E00007F0000FFFFFFFFFFFFFFFFF16
:10060000FFFFFFFFFFFFFFFFFFFFFFE7FFFFC3FF4E
:10061000FFC3FFFF81FFFF00FFFF00FFFE187FFE0B
:10062000187FFC183FF8181FF8181FF0000FF00093
:100630000FE01807C01803C00003C00003C0000388
:10064000FFFFFFFFFFFFFFFFFFFFEFFFFFEFFFFFDA
:10065000ADFFFF83FFFFC7DFFBEFDFDBEFD3E3EF90
:100660008FF1EF8FC66E63FFA9FFFFC3FFFFC3FFCC
:10067000FF2CFFC4EE63F1EF9FE3EFC7DBEFDBFB83
:10068000E7DFFFC3FFFF89FFFFADFFFFEFFFFFFFC6
:10069000FFFFFFFFFFFFFFFF81FFFF81FFFF81FFE4
:1006A000FF81FFFF81FFFF81FFFF81FFFF81FFFFD0
:1006B00081FFFF81FFFF81FFFF81FFFF81FFF000CE
:1006C0000FF8001FFC003FFE007FFF00FFFF81FFCF
:1006D000FFC3FFFFE7FFFFFFFFFFFFFFFFE7FFFF96
:1006E000C3FFFF81FFFF00FFFE007FFC003FF8001B
:1006F0001FF0000FFF81FFFF81FFFF81FFFF81FFE0
:10070000FF81FFFF81FFFF81FFFF81FFFF81FFFF6F
:1007100081FFFF81FFFF81FFFF81FFFFFFFFFFFFE1
:10072000FFFFFFFFFFFFFFFFFFFFC00001C000034F
:10073000FFFFFFC00001C00003FFFFFFC00001C0BA
:100740000003FBFFCFFBFFCBFBFFCFFB81CFFBC346
:10075000CBFBE7CFFBFFCFFBFFCBF9FF9FF8001FE1
:10076000FFFFFFFFFFFFFFFFFFFFFFFFFFFFFFFF99
:10077000FFFFC00001C00003FFFFFFC00001C00079
:1007800003FFFFFFC00001C00003FBFFCFFBFFCB57
:10079000FBE7CFFBC3CFFB81CBFB81CFFBFFCFFBC5
:1007A000FFCBF9FF9FF8001FFFFFFFFFFFFFFFFFD9
:1007B000FFFFFFFFFFFFFFFFFFFFC00001C00003BF
:1007C000FFFFFFC00001C00003FFFFFFC00001C02A
:1007D0000003FBFFCFFBFFCBFBFFCFFBFFCFFBFFFC
:1007E000CBFBFFCFFBFFCFFBFFCBF9FF9FF8001F39
:1007F000FFFFFFFFFFFFFFFFFFFFFFFFFFC7FFFF41
:1008000081FFFF00FFFE007FF8003FF0000FE000D7
:100810000780000380FF01C1FF83C18183C101C341
:10082000C700E3CFFFF3C7FFE3C67EE3C67E63C71F
:10083000FFE3C7C5E3C700E3C00003FFFFFFFFFFFF
:10084000FFFFFFFFFF79FFFE00FFFE001FE0000F2C
:10085000E07C0FE1FF0FE3FF8787FFC107FFC10FB8
:10086000FFE38FFFE3CFFFE3CFFFE18FFFE187FFE0
:10087000C187FFC7E3FF87E1FF07E07C07F0000FB8
:10088000FE007FFF08FFFF1FFF8000010000000740
:10089000FFE023FFC431FF8C38FF1C3E3C7C3F1837
:1008A000FC3F81FC3FC3FC3FFFFC3FFFFC3FFFFCE4
:1008B0003FFFFC3FFFFC3FFFFC3FFFFC00000080D0
:1008C0000001C682008282FEFEC68282828282820D
:1008D000828282828282828282FEFFFFF8FFFFC8CC
:1008E000FFFF88FFFF88FFFF18FFFF18FFFE38FF9C
:1008F000FE38FFFC78FFFC789FF8F88FF0F887F15E
:10090000F8C7E1F8C3E3F8E3C3F8F1C7F8F0C7F8B4
:10091000F88FF8FC0FF8FC1FF8FE1FF8FE3FF8FFF9
:10092000FFF8FFFFFF9FFFF18FFFE187FFC1C3FFCC
:1009300083E1FF07F0FF0FF87E1FFC3C3FFE187FAE
:10094000FF00FFFF81FFFFC3FFFF81FFFF00FFFEEE
:10095000187FFC3C3FF87E0FF0FF07E1FF83C3FFE9
:10096000C187FFE18FFFF1FFFFFFFE0FE0F001E025
:10097000E000E0E1F0E0C3F860C7FC60C7FC60C7DE
:10098000FC60C7FC60C00060800020000000000028
:100990000000400000E00001F00000E00000E00086
:1009A0000040000040000000000000000000008047
:1009B0000020FE3FC0F80FC0F003C0F1E1C0E3F03B
:1009C000C0E3F8C0F7FC40FFFC40FFFCC0FFF8C0EC
:1009D00080004000000000000000000001E0000175
:1009E000E00001E00000C00000C00000C000000006
:1009F00000000000000000800040FFFFFEFFE7FE57
:100A0000FFE7FEF7E7EEF3FFCEF9C7BEFF00FEFEFD
:100A10003C7EFC5E7E849F22843F22FC3F3EFC3F66
:100A20003EFCFF3EFC7E7EFE7C7EFF3CFEFF3DFEEC
:100A3000FF39FEFF01FEFF99FEFF81FEFF83FEFFEF
:100A4000FFFEFFFFFEFFE7F2FFE7E6F7E7C6F3FF73
:100A50008EF9C79EFF003EFE3C7EFC5C7E849822A1
:100A6000843322FC233EFC073EFC8F3EFC1E7EFEB0
:100A70003C7EFE3CFEFC3DFEF839FEF901FEF3999A
:100A8000FEE781FECF83FEFFFFFE01695663633AF6
:100A90002000202D20002000200020002000200029
:100AA00020000A000A0020003000303000303030D2
:100AB00000303030300030303030300030303030C6
:100AC000303000303030303030300000010203046C
:100AD00005060700010203040506070001020304DE
:100AE00005060700010203040506070000000000D8
:100AF0003E5B4F5B3E3E6B4F6B3E1C3E7C3E1C188C
:100B00003C7E3C181C577D571C1C5E7F5E1C0018E9
:100B10003C1800FFE7C3E7FF0018241800FFE7DBDD
:100B2000E7FF30483A060E2629792926407F050539
:100B300007407F05253F5A3CE73C5A7F3E1C1C0876
:100B4000081C1C3E7F14227F22145F5F005F5F063B
:100B5000097F017F006689956A606060606094A289
:100B6000FFA29408047E040810207E201008082AA2
:100B70001C08081C2A08081E101010100C1E0C1E41
:100B80000C30383E3830060E3E0E060000000000E5
:100B900000005F00000007000700147F147F14248A
:100BA0002A7F2A122313086462364956205000080F
:100BB000070300001C2241000041221C002A1C7F68
:100BC0001C2A08083E080800807030000808080841
:100BD00008000060600020100804023E5149453EB4
:100BE00000427F400072494949462141494D33182E
:100BF00014127F1027454545393C4A494931412166
:100C00001109073649494936464949291E00001449
:100C10000000004034000000081422411414141491
:100C200014004122140802015909063E415D594E43
:100C30007C1211127C7F494949363E414141227F55
:100C40004141413E7F494949417F090909013E41EE
:100C50004151737F0808087F00417F4100204041D7
:100C60003F017F081422417F404040407F021C0228
:100C70007F7F0408107F3E4141413E7F09090906FC
:100C80003E4151215E7F09192946264949493203CF
:100C9000017F01033F4040403F1F2040201F3F4055
:100CA00038403F631408146303047804036159490E
:100CB0004D43007F41414102040810200041414161
:100CC0007F04020102044040404040000307080046
:100CD00020545478407F28444438384444442838C9
:100CE0004444287F385454541800087E090218A43C
:100CF000A49C787F0804047800447D400020404094
:100D00003D007F1028440000417F40007C047804AF
:100D1000787C080404783844444438FC18242418A7
:100D200018242418FC7C080404084854545424044F
:100D3000043F44243C4040207C1C2040201C3C407C
:100D400030403C44281028444C9090907C4464549B
:100D50004C4400083641000000770000004136088E
:100D60000002010204023C2623263C1EA1A16112BE
:100D70003A4040207A3854545559215555794122EA
:100D800054547842215554784020545579400C1ED3
:100D9000527212395555555939545454593955547C
:100DA00054580000457C410002457D420001457CCD
:100DB000407D1211127DF0282528F07C5455450005
:100DC0002054547C547C0A097F4932494949323ABB
:100DD0004444443A324A4848303A4141217A3A42FE
:100DE000402078009DA0A07D3D4242423D3D4040D4
:100DF000403D3C24FF2424487E4943662B2FFC2F92
:100E00002BFF0929F620C0887E090320545479411C
:100E10000000447D413048484A32384040227A0040
:100E20007A0A0A727D0D19317D2629292F28262953
:100E300029292630484D40203808080808080808A5
:100E400008382F10C8ACBA2F102834FA00007B00E5
:100E50000008142A142222142A140855005500559B
:100E6000AA55AA55AAFF55FF55FF000000FF001024
:100E70001010FF00141414FF001010FF00FF1010DA
:100E8000F010F0141414FC001414F700FF0000FF1D
:100E900000FF1414F404FC141417101F10101F107A
:100EA0001F1414141F00101010F0000000001F1079
:100EB0001010101F10101010F010000000FF101084
:100EC00010101010101010FF10000000FF14000090
:100ED000FF00FF00001F10170000FC04F41414179B
:100EE00010171414F404F40000FF00F71414141481
:100EF000141414F700F7141414171410101F101FF3
:100F0000141414F4141010F010F000001F101F003F
:100F100000001F14000000FC140000F010F010107E
:100F2000FF10FF141414FF141010101F0000000015
:100F3000F010FFFFFFFFFFF0F0F0F0F0FFFFFF0009
:100F400000000000FFFF0F0F0F0F0F38444438441C
:100F5000FC4A4A4A347E02020606027E027E026390
:100F6000554941633844443C04407E201E2006021B
:100F70007E020299A5E7A5991C2A492A1C4C7201F8
:100F8000724C304A4D4D303048784830BC625A4639
:100F90003D3E494949007E0101017E2A2A2A2A2A2A
:100FA00044445F444440514A444040444A51400014
:100FB00000FF0103E080FF000008086B6B08361299
:100FC000362436060F090F0600001818000000101E
:100FD00010003040FF0101001F01011E00191D1704
:100FE00012003C3C3C3C0000000000BF0003020437
:100FF000040305050E11FFFD0BFD0BFD019E039D76
:101000000B0F2005008C142107B186140745220719
:1010100033C51589252315A7847849988449344C0C
:10102000499844C39484499864002417E77478E18C
:10103000A0449114496192AE491849915419C43899
:10104000032519BB843C63944559299C722C8772F3
:1010500028C7A231CA4A59142E002613A8855A6AF5
:101060001446A95C89922C294659126D0127063134
:10107000C51303280CE36D55499444FD16650129F9
:101080000DE36D15599445FD122511002A0A55B539
:101090005795CAD214012B0B778D79716D18B2B8A0
:1010A000062C0742743315052D0613A414032E06CF
:1010B000218513022F0CB48474A5AC9495B21A0048
:1010C000300CB685384312FAC76448003108B3863D
:1010D0005843D43F320DB6853843128A69D86B3AEB
:1010E0000C3310B6853843128A69694E453119129E
:1010F000003412B785B8A99864512D099330198628
:1011000034AE00350FB6851887B43AC8692A8AC943
:101110009000360FB685384312AA9545131D9321CA
:1011200001370EB68518D7300DD3300DD3220038D5
:101130000FB6853843123A2643123A264302391035
:10114000B6853843123A26839A8A623224003A07D7
:10115000818513A2003B0AA2743475284914003C0F
:101160000856959892D9003D07369D19E7613E08CB
:10117000569518B2C9083F0DB68558A6514CC3768E
:1011800030CD00401DCB7D9D432A4A395253122D4C
:101190008AA42C92B2488A949AA2E5989A0E1A00D0
:1011A0004116B9849939302771926661568D86212E
:1011B0004A931CD081004211B78519977035268358
:1011C0001426A9711814004313B8857A9B25D5817C
:1011D0001CC8811CC89134D1B4094410B8851A8345
:1011E000162A6912FB9A84CAA001450DB785190712
:1011F000B97958E2E66108460CB7851807B97958FD
:10120000E2CE004715B9857B43262AB18EE44838E3
:10121000E8800E2471A29D02480BB8851AB1E7E15F
:10122000107B0E4907B186140F024A0BB684B7FD36
:101230002A8AC990004B14B8851969124659294C5D
:10124000D2350AB362942671004C09B6861869FF3C
:101250003A0C4D1BBB841C39B403430E2C69A2A469
:1012600089944552166949A62599188A054E14B8DD
:10127000851AAA122AA1944999166991988889BA5F
:101280000A4F16B9857BA326A5490EE8800EE88093
:101290000E2469A4891B00500DB785199770350E6F
:1012A000831277065116B9857BA326A5490EE880DF
:1012B0000E68991825A1A4895300520FB8851A8782
:1012C000249DADC930A549EC1C5310B7855993B680
:1012D000EA800EE880AC6ED2045415B984198F39B7
:1012E0009223399223399223399223391202550CD1
:1012F000B8851AB17F4EC26C88005616B984193968
:10130000A003491AA591A615B33489931CC891105E
:101310005720BD841D69AAA662122659924559928A
:1013200045599255B2244CB2244CB2242DA7190031
:101330005817B984193990A45935C9811CC9812419
:10134000CDAA519AE440005915B9841939B02A69D7
:1013500056CCD224DE811CC9911C09015A0EB785D6
:10136000198738ADAA55B53C0C015B09E36D1443F0
:10137000D4FF345C0BB48414599815B362565D09DC
:10138000E36C1453FFD3105E0A55B5575912253537
:101390002D5F07186C180701600722CD15510061F9
:1013A0001087853843648E06454BC244921601620D
:1013B0000DB6851769CB228D8ED3B200630D86855D
:1013C000374322AD8D93322400640CB685B82DA727
:1013D000D171529600650F86853843228DC3A0A631
:1013E00092322400660BB484544A164D599F00670C
:1013F0000EB66D38A7D171529674528604680BB63A
:10140000851869CB228D3E066908B18513CA30085C
:101410006A0AE36B53D5A83F2D006B10B685176998
:101420005B12553231C9A25A12066C07B185130FEF
:10143000026D1189851B89A448B64CCBB44CCBB442
:101440004C2B6E0A868518C9228D3E066F0D868547
:101450003843228D8E93322400700EB66D18C92247
:101460008D8ED3B2A45500710CB66D38A7D17152D0
:1014700096B401720A848515C91065BD01730B8588
:1014800085374B368EB66401740AA48434593465AA
:101490003D0A750A868517A18F93B204761087845A
:1014A00017A99A64511665953049330077108984DD
:1014B0001A59A6655A25EA4B5B318B00780E878452
:1014C000179A9255D2384DB28A267911B76C17E91E
:1014D00098645156CA92548D5351047A09868417E0
:1014E000D7B0D7617B0BE56C7552D8562D76157C3D
:1014F00007E16D131F047D0CE56C156AD85A2B7635
:10150000D2007E09369D3892625200A005008C14EC
:10151000A108B16D14CA3008A211A67DB8C99048BF
:1015200053972C892665485200A30FB784585B292E
:101530004E0731AEC6DAB200A40C6695186132448B
:101540009D86240CA513B78417A935C9A2AC120D2A
:1015500043960D43166700A607E16D13A761A71117
:10156000E56E388BB28D4BB46953326E8BB200A8E6
:101570000715CC158A00A919BA857C43684AA6A428
:10158000962C59A4C44A16495B1247A2386400AA93
:101590000B74A5166332444B3804AB0C5695589522
:1015A0002889B2288B02AC0847951987B801AD0687
:1015B00013A41403AE17BA857C43684AA6242A49AB
:1015C0002569934A524B1C89E29001AF0714CC1451
:1015D0004300B00A44BD364A24250A00B10E97855F
:1015E00079716D18B2B88E0D4300B20A64AC354AF9
:1015F0009445A521B30A64AC354A54941205B40746
:1016000022CE350A00B50BB66D18A18FD362AD029C
:10161000B61DE76C5883B22443920C493224D19210
:1016200029611226611226611226619200B7061204
:10163000A51402B809346C5549942800B90762AD65
:10164000354B07BA0A74A5364A644AD421BB0D56F5
:1016500095185116655112255104BC19BA853C6183
:1016600026D6D22C8DE2284B23314AC224CAA2416D
:101670004A1300BD15B9853C612466C52C8CD2285F
:101680001193280BB38ED110BE1CBB843C6216652F
:10169000699603511825B194C5911A25691285D10F
:1016A000A0A50900BF0CB66D78690E760DC5C904FA
:1016B000C019E984793994D372604EE224CDC2AC6A
:1016C0001A0D43942639A00301C119E984B9399050
:1016D000D372604EE224CDC2AC1A0D43942639A0D9
:1016E0000301C219E9849972945372604EE224CDC9
:1016F000C2AC1A0D43942639A00301C31AE98479B8
:101700004A98E8A41C98933849B330AB46C310A557
:10171000490EE84000C418D984598A4EC9813989D4
:1017200093340BB36A340C519AE4800E04C519E962
:101730008499729446B10EC8499CA4599855A361E6
:1017400088D224077420C619BC857EC32DCA91286F
:1017500007B21CC872201B96610EE3306D1D06C7D0
:1017600016E86D7A9B25D5811CC8811CC89134D19F
:10177000B4398D520DC811E78559399063C32037AC
:101780000F4BDC3C0C01C910E78599698E0D83DC99
:101790003C2C71F33004CA11E78579629423C3208D
:1017A000370F4BDC3C0C01CB0FD78539766418E43E
:1017B000E661899B8721CC09E285145196F41FCDFF
:1017C00009E286345AD27F01CE0BE485344A94660E
:1017D000FD2700CF0BD584148A0E84FD2700D01678
:1017E000B9843A83184A691427F1202671122769AF
:1017F000144A8306D118E8857A4A96E898AA844A5A
:10180000286552A6455A242662A2AE02D219E9855D
:101810007B399493464D4A931CD0011DD0011D483D
:10182000D248133700D319E985BB399093464D4A06
:10183000931CD0011DD0011D48D248133700D41984
:10184000E9859B729413464D4A931CD0011DD0012B
:101850001D48D248133700D519E9857B4A98E8948A
:101860005193D224077440077440079234D2C40DB8
:10187000D617D9855B7678D4A434C9011DD0011D53
:10188000D081248D347103D70D778D19699255D28B
:101890004A564903D818BB849B5BA46D69962651B0
:1018A00018D54AC52849B334DBA46C04D90FE885A0
:1018B0007A399283B17F4EC26C8800DA0EE885BA1D
:1018C000710EC6FE3909B32102DB0FE8857A6A94EE
:1018D00063B17F4EC26C8800DC0ED8853A920EC58B
:1018E000FE3909B32102DD18E984B93990C339B052
:1018F0002A6956CCD224DE811CC9911C0901DE0F55
:10190000B78519713C2CE16A1C06252E03DF0DB545
:1019100085374BE6A24449E64501E013B7855839BF
:10192000908343648E06454BC244921601E112B780
:101930008578698E0E91391A142D0913495A04E2DB
:1019400013B7855862946343648E06454BC2449234
:101950001601E313B785584A94E8D81099A341D1EA
:10196000923091A445E413B785385116E5D8109903
:10197000A341D1923091A445E513C785586214EA7A
:10198000E01099A341D1923091A445E6168B853D94
:101990004332249AA486C9F09686A9342943322476
:1019A00000E710B66D384322AD8D933284599449C7
:1019B00000E811B68558710E0D89340E839A4ACA13
:1019C0009000E911B68578618E0D89340E839A4AAC
:1019D000CA9000EA12B685585A942343228DC3A0B8
:1019E000A692322400EB11B68538513B3224D2380E
:1019F0000C6A2A294302EC09B2851351A55F00ED58
:101A000009B285335AD22F00EE0AB484334A946661
:101A1000FD04EF0AB38413891246FD02F010B68567
:101A2000188A34D586441A1D27654800F10DB685FD
:101A3000384A454792451A7D0CF20FB68558710E0B
:101A40000D89343A4ECA9000F30FB68578618E0D39
:101A500089343A4ECA9000F410B685585A942343FC
:101A6000228D8E93322400F510B685384A4587863C
:101A7000441A1D27654800F60FB68538513B3224BD
:101A8000D2E838294302F70D778D79718E0D438E98
:101A9000C51900F814888458439268512655A22429
:101AA0008AB42853922102F90CB68558718E843E6F
:101AB0004ECA12FA0CB68578610E853E4ECA12FBEC
:101AC0000DB685585A9403A18F93B204FC0DB685C8
:101AD00038513B10FA38294B00FD13E76C97698E9B
:101AE000A563924559294B52354E4511FE0FE66DBF
:101AF0001869CB228D8ED3B2A45500FF14E76C5722
:101B0000B52847D231C9A2AC9425A91AA7A20800CA
:101B1000000004FFFF0000BF0004040506040607E0
:101B20002026FFF919F919FA03D3085319D9200609
:101B300000C03009210E255B70093F503164BE7D25
:101B4000A00022102B51180A64F01B12A2848812E4
:101B50000100233F32C36F6A640692193886E01889
:101B60007264C891194866D003110F443C10F140CB
:101B700010998183060E1A3886D003110F443C1049
:101B8000F140D0187264C891194866E018826388E1
:101B900001243090CB4E7AC2C52263E3C284884AC6
:101BA00084A41192464C127109136A89309D907277
:101BB00062D0884123448990124EDC2C342C5C3A4C
:101BC00000254AFA4AB04B63051E1C974EE0986107
:101BD000E3468D12386AD0C05163468E1A3374CCF6
:101BE000B469449F190F6094A8F100C69C169376BF
:101BF000CCB462468D1C336AA4A05103078D1A37FA
:101C00006CCCC061E9061E143B0800263534531025
:101C10006BA593AE5C498660198265481621A9368A
:101C20002DE2B36A88AC2152C990324A4825217608
:101C3000865CA172650CA179308445A134A58A0225
:101C4000270C245118090F5A08110100281DE84BD0
:101C50006D5983C810224388D020DA10A23F2A444D
:101C60005784488D22358AD400291FE84B6D09A37B
:101C700028224588D428425411A2BF294388A24172
:101C8000140D223488D028002A186AC9B6490245A2
:101C90000511126284881688489941324DA02000AF
:101CA0002B10104A706A84E9D9831F10234CCF008F
:101CB0002C0E65512D090FD44832629240002D0739
:101CC000A9C873093F2E08A55030090F142F1A28F0
:101CD00043306972254CAA51C2A41A254C2A61527C
:101CE0008D12269530C900301D0F4B504AE752AD7A
:101CF0006952A64429ADD2E1EF526955A24C913602
:101D0000ABD21D023110EA52507AC3489579F0E007
:101D100018FDFF01321E104B504AE716B57161C61F
:101D200044A965E9D215355AD4A485179AB4E98334
:101D30001F103325104B504AE716B56952AA04B15B
:101D400012E44890235BB4E049A368AD4D97D9AA4B
:101D5000224E1AAD3B05003426104B508A658B9AF3
:101D6000BC101D0972438811213686141942148D46
:101D700022438ACC30320F7E409230DD00351E0F78
:101D80004B502A6C7833962E4AB169D28490D16A2E
:101D9000C9224BA6A8481346EA4C0136250F4B50E2
:101DA0005AE614B16951A80431B494142281C4854F
:101DB0000B33ABD2E12E55893245DAAC4A580A00D2
:101DC000371A104B500A7F40966C596ACB922D4BB4
:101DD000B62CD96AC9D6B46C0D01382A1143505AB1
:101DE0000757352A5355117244C8112147A45499F5
:101DF000AA96AD6A53AA44B99458A62B61C688A383
:101E0000560B4F0139250F4B505A0553AD6952A659
:101E100044A974B84BB5C68427284811214B16191C
:101E2000894245D8B04A580A003A0C255A70090F21
:101E3000D443F540013B12E55A6D090FD443F540F8
:101E40008D2423260904003C18104A70EA624B1EB8
:101E500053B4848DB29327D52D5CA7F26C71013DEC
:101E60000A8F51710A7F0F077F3E18104A700AC20D
:101E7000099F54B78E9DCACBD43059A4EC2461E19C
:101E8000003F203053904AE716B57161C644A965FA
:101E9000E9D2153569F2E0499365C9560F75D93A0B
:101EA000034060DDCB2DCCE701357F10D8D8C9B217
:101EB000E58813230F82D47830D4951833D99A212A
:101EC000C388181A318A10A943C446991A37CA1010
:101ED000B95186C68D3A346ED48841E3468D184494
:101EE0008AD0103284CA9019F46010A123C7461515
:101EF00022481E2C79B0E5412223FD20F87B104AB0
:101F00000141343643F08AE6419807801C6BC5DAFC
:101F100016295AA46891928548162A58A85C3172ED
:101F2000C58A3D08F620D483410F06152C53B448CA
:101F3000D1124617174232335B100BAE1E84792044
:101F4000E4819072260A962858A260898225CA15D3
:101F50007910E6419807421E8C2858A2A43E7C9036
:101F6000E2C18807421E014336354B107B68193A9F
:101F70007B10E89A82454A9A285AA2A87A10E5412D
:101F80009407511E447910E541940752B444D1128C
:101F9000068D142C73E8D083600ED92203442D35AE
:101FA00053100B0D1F847A20E8C19872474A1629F6
:101FB00069A26889A26BF5A74B4B943451B248B91A
:101FC000230FC63C10F42054430045213253D00A5D
:101FD0000F443C10F140C40311A5EBF583200F82A0
:101FE0003C08F22048E9FAFAC10F18461130539024
:101FF0000A7F90B6DEBEF845D9FA6F014733364BFB
:10200000308B88193E7B20EAD01983458C9628BBFB
:102010001E447920E581940752EE0FC296285BC2D8
:10202000680993464E217950E6C52826C3120D480B
:10203000103353F00A25F55F3EF88395FA5F164991
:102040000925533009FF07054A132F4B50AAF5FF06
:10205000A92ABD5AF3A0489B6587004B373453101B
:102060000B054D143451CE483133A50C153255C6ED
:1020700058997245CC9530B872254386ED8C182B53
:1020800064AA90A952868A992957A69C9182264AC9
:10209000AE344C0E3053900A65EBFFFFF6C10F08CB
:1020A0004D473753700B275DBE7B10EE41B807E1FB
:1020B0001E887A30CAC5A8112A468D504186840AE6
:1020C0003224549021A164CC102524882821414435
:1020D0000909224A48105133628C9A336ACEA839D2
:1020E000A3A890A2428A2A4E273353100B25172EFD
:1020F00064C7AE5933578F541052514609192545BC
:10210000D4105153421109559E75C7E196054F2DC4
:10211000374B307B895BBE7B200A0D2273664C1ADD
:10212000295BA46C89D2FA7589B245CA163169C691
:102130009C2134A81E887BD9381D0050203253D0F2
:102140000AADDE3C08F240443113E516EADD3213F5
:102150000F443C08E28859E9FA6B00513457CB4FE1
:102160007B895BBE7B200A0D2273664C1A295BC2F9
:10217000EC6AFD32CCBA21258A9520624A8D294429
:10218000888C3D18F660D8837149C88312020052CA
:10219000333353100B8F1E087930E2C188822BF540
:1021A000B04439130F843C08F320CC0321E54C14D0
:1021B0002C51B044C112054B142C51B044C112052E
:1021C0005716532B334BD06A47D7B57A54C84CB9FE
:1021D00022048B902452FCB4CA760ED92237AE5218
:1021E000658982254C997910C819CB6300540E3348
:1021F00043900AFF205CF1FAFFBF035516335310DA
:102200000B25F5FFBF5C67E2CC9107625E354C059C
:10221000005634344BD00A4595962858A4609182D4
:102220006508122A56A8582962C40A152B548E1024
:10223000414204099124429408512244D522C6DA2D
:10224000B8F500080257523D4BF00BC58C2DB382F8
:1022500098B122C48C152166AC482144650A212A14
:102260005308512142880A111A328854116A4815BC
:10227000A1A418114A8A11A11D914143C811193412
:10228000842022948850224279ECA831B3C6CC1A1B
:10229000334C90344172005833344BD00A068B18BB
:1022A0003362AC9055858A192958A46089A24A13D3
:1022B000233E6EFA34DAB42A4B983352AE8C29435B
:1022C000A54A993156C49C0983065934344BD00A27
:1022D0000619163166A658211B152B54CC48C1226D
:1022E00005972A4D8CF8F4F1F200CA03280FA03CA0
:1022F00080F200CA03280FA03C80F2000A025A1B99
:10230000314B900A7F80B8AC516BCB1AB5D6A8B5CB
:10231000658D5A6BD4EC831F205B0EE8536D090F5B
:102320001AD1FFFF1F3D485C1F29433009E2C48DCD
:10233000936ED83871C3C6891B364EBA61E3C40D9B
:102340001B276ED838095D0EE8436D090F12D1FFC7
:10235000FF1F3D685E19CED1745A240D5A870C15A3
:10236000114244084D4388082122C330235F08529C
:10237000404D0A1F18600CA5507A0943880C213281
:1023800000611F4F4A504AA8983429A42C19C14310
:102390004B5A9C49960C99A2070F4CA420628600C8
:1023A00062213053900A84E92786482471F2C25092
:1023B0008962E912E25D3A55255E382181864C2119
:1023C00000631C4F4A505AE614B16152A804A97424
:1023D00068E92E19894225DAAC526708006420307A
:1023E0004B90CAF4232364501071F1A2D0B284F848
:1023F00030598942269EA4208382501902651E50BE
:102400004A505A0655B17152A844B1740F3E604CFF
:10241000B8189142451AB14A590C0066142A437003
:102420005985CC9C29458C9A076F88D1FF37006766
:102430002930CB8C4A46C8A020E2E245A165CA12E9
:10244000E23099B212854C3C7183829011C2C994DA
:10245000953062C40D33440068162F53900A64E926
:102460003784482071E1C290B264E8F0BF23690C60
:10247000245330090F023EF883006A1106C42C2948
:10248000744E84FEFF4F1E982801006B282F537056
:102490000A64E967A94A102A42A60C9142244A25F7
:1024A00053A56AD1A22265C89421548414115225DF
:1024B00088252B6C0924533009FF81026D30585256
:1024C000D00B644895218122C503140FDE9C515521
:1024D0000A193164C4901143460C193164C4901137
:1024E00043460C193164C490114346016E144F5297
:1024F000900A64CA9048E1E2812165E8F07F4700D4
:102500006F1D514A905A0757B57952AA4439752917
:1025100071994E5D895245DEB45A780A00702330B5
:10252000D38C0A640A9140E3E485A112C59425C4C2
:102530006132658B4ABC7042020D994284E96300A6
:10254000711F30CB8C5A45C8A020E2E245A1650935
:10255000F161B212854C3C7192829011C2F4037207
:10256000134A52B009848CA078F02050A952C4E8D4
:102570009F017320504A705AE71635295484580930
:102580006225CA265CB74EE9BA74244A9570C30C1A
:1025900011007413C94A7029A468F3800929FAAF9D
:1025A0008E9C31540075144F52900AE4F07F974A84
:1025B000D103132E529029430076285142700AE528
:1025C000D4952855A45419528448112A538A0C31A1
:1025D00032C4C890234190044112248F5E5BB81826
:1025E0000077405942500BA54AA9AA825429228556
:1025F0002A2973A60C993384C89C214466C41842C6
:10260000444810214562CC086224C68C204662CC26
:10261000086268D0993268CAA02993E48892230599
:10262000007823504A700AC516992854A648A1225A
:10263000C4D4A1344BD6E44974AA8A902A52A65035
:102640000943CB0A792730CB6C0AC5342342AA4808
:10265000A122856854A4501162448811219610C3A8
:10266000A39696ADB4E449A34689027A114E4A3046
:102670000A3F5858A1391BD6E5830F167B1909D498
:10268000AC49658C1C29448AFE512142E34895A23D
:10269000FFEA8CA1027C09E35B2D09FFC1007D1AD2
:1026A00009D4AC0985CC1C2A45FF5529728308152D
:1026B0002245FFE4889942007E0FCED0722A434D16
:1026C0002D31B2CAE81000A00600C03009A10E05E5
:1026D000536D090FD40E99170F3E50A22E0FCB4EFB
:1026E000AAC1438B3CA68849932221D404492204E1
:1026F0008D3032C2888823228E8898148148982988
:10270000D166553A93A2830705A3271143506A0661
:1027100057357262A848B112C54A942351D87051F6
:10272000560C4BD3B8301564843CF88088302300B5
:10273000A420EF49520A234F947840A20DAD888C13
:102740001B326EC8B821A4C850D3E20189122707F2
:10275000A5261243500A051596285686182942C404
:1027600008912342900849A4684D9374E492384933
:10277000472E89D33B00A60DE35B2D091FA407F369
:10278000E08101A73510CC4C4AE8542D3252A610F6
:102790009942648C1E45896E519B31280831DB8C2F
:1027A000C42112488A34529812A9D922C48810230D
:1027B00052A80C23560A4D01A80A8AC07A0944700F
:1027C0004200A9503A43109BE801342657B028B97B
:1027D000E1A3C6831833CC989851A8468C22424A6C
:1027E000C4A061834A0D1B45683C0042E301101AF6
:1027F0000F80D07800A4868D2A346C90292284869C
:102800000843356498A941E3010C234BB05C51E7C0
:102810002A01AA1709CA9429654E8C2934C60413C3
:1028200033665890180FE60103AB22AC59514AC1E8
:10283000C28812326804193424060D1934840C89B4
:102840002225C81019344694A06001AC0A50497280
:102850000A7F40983EAD07A9C873093FAE503A437E
:10286000108BE901342657902CB9E1A3C6241A3302
:102870004891984183C88C18359188511389103636
:102880006A50B141A38A252B86AED89861C5C690FF
:10289000323568948851D30C19348AC844C3460C25
:1028A0001A0F6018E18105893A570900AF076AC01D
:1028B0007A091FB0144951B729658E8811218A56AB
:1028C00022C40839530400B114D04A706A84E9D98B
:1028D000831F10234CEF217CF00302B216EAC1746F
:1028E00029665010396468DC305214152236ECC168
:1028F00003B319EAC1743984501039646818A152BD
:10290000E5C819327484049A3200B40CA6607A299E
:1029100024884C330600B5152FD38C0AE4F07F973A
:102920004AD1830F42A0208296BE05B64BF1434D9B
:102930004A6D9C9C118446101A3169C4A4119346B7
:102940004C1A316904A1118446D4195167C49511F8
:102950002A46A818A162848A112A46A818A162846E
:102960008A112A46A818A162848A112A46A818A1A9
:1029700062848A110300B70AA4D03519225888004E
:10298000B80E07D16C29A2242A4428451100B90C9D
:10299000E6D17439431E8499FF01BA150ACA9429F5
:1029A00066904C31C88E460C1982C63CB8070FBBE6
:1029B000218CD9510AC1028912336808192264880E
:1029C0000C1A326804193424060D112526582000EB
:1029D000BC461A4390FB60860A1D4974D8C971072A
:1029E000070F1C3C6EF4B8D1C3860F1B3E6AD84457
:1029F000C3880D1A556CCCB0C2A3448C1D2564EC61
:102A0000A02143478919394AD0C851CB862D1B3C98
:102A10006EF4B8D14300BD42194B90FB20868A1C4E
:102A20003A729CC18106C78E1B3C6CF4B0D1A38660
:102A30008F1A3E6890A94182108D194384CC904131
:102A4000130E9A6E2CB9A1E486921B4A7024C19190
:102A50002407AA19A966A402BE4C194B702B66075D
:102A6000A11C4484E0A0E9460D1A3698D8D06263D0
:102A70008B8D35341EC0989183C60C1A3268C820DD
:102A800022940C228364502133630C8F1931769089
:102A900090B163C40C1D33E9987583D60D1D38764B
:102AA000E0D82100BF1E104B8D6A656B0F35616A3F
:102AB0004B9A3C78D2D272D9A92A61E4849B36CC55
:102AC0001001C040F643F06AE4019107441E1079FA
:102AD00040E421340FC23C00E4582BD6B648D12242
:102AE000458B942C44B250C142E58A912B56EC415F
:102AF000B007A11E0C7A30A86099A2458A9630BA18
:102B0000B800C140F643F0CAE4819007421E08793C
:102B100020E421350FC23C00E4582BD6B648D12220
:102B2000458B942C44B250C142E58A912B56EC411E
:102B3000B007A11E0C7A30A86099A2458A9630BAD7
:102B4000B800C241F643F0AAE2019107621EC090AC
:102B5000D183C643661E847900C8B156AC6D91A27C
:102B6000458A1629598864A18285CA152357ACD88D
:102B700083600F423D18F46050C132458B142D61C3
:102B8000747101C33CD643F08A6404AB552C863C77
:102B900074E6419807801C6BC5DA16295AA468911F
:102BA000928548162A58A85C3172C58A3D08F620DD
:102BB000D483410F06152C53B448D112461717C4BD
:102BC0003FF643F06A440813214C843011F2B036CA
:102BD0000FC23C00E4582BD6B648D122458B942C2A
:102BE00044B250C142E58A912B56EC41B007A11E78
:102BF0000C7A30A86099A2458A9630BAB800C543CD
:102C0000F643F09AE481480F2250781081C2831075
:102C1000221E087928CD03408EB5626D8B142D528B
:102C2000B448C942240B152C54AE18B962C51E0411
:102C30007B10EAC1A007830A96295AA46809A38BCE
:102C40000BC64B3F43108C0F4E3E38F9E0E0038437
:102C500045C88322431E5019F280CA9007443D980C
:102C600042E4C114220FA6D0B352CF4A3D2BF5AA9D
:102C7000187910EF41BC07F0203C8007E101942354
:102C80005EF08188820F4E3E38F94000C74515CC72
:102C9000EC7A68193A7B10E89A82454A16295AA2BA
:102CA000A87A10E5419407511E447910E541940734
:102CB00052B444D112068D142C73E8D083600ED91F
:102CC0009E07211E907830E5018D0733DC3C809211
:102CD00000C82CF253D03AE4019007401E0079005E
:102CE000E4813E10F140C403110F4494AED70F822B
:102CF0003C08F220C88320A5EBEB073F60C925F212
:102D000053D09AA4E91EF003110F443C10F1404443
:102D1000E97AFD20C883200F823C0852BABE7EF0BB
:102D20000306CA2BF253D08AE20190363B64E4A03A
:102D3000F1E01E887820E2818807224AD7EB07411C
:102D40001E047910E44190D2F5F5831F30CB2AF2AE
:102D500053D03AD4912147861C19F2903E10F1408D
:102D6000C403110F4494AED70F823C08F220C883ED
:102D700020A5EBEB073F60CC0FE8433009A4E8B493
:102D80004CFDFFFF0500CD0FE853304964E8B84C17
:102D9000FDFFFF0D00CE14EA433049E24899193295
:102DA00062D0E052F5FFFF3700CF11EA433009440B
:102DB00070421E5CA9FAFFFF1B00D03C373BF03A83
:102DC0002E1F847B20ECC1A852A80A1A2A68A86486
:102DD000A192668A9629FA40D803610F8495295AF0
:102DE000A6689992854A162A59A860A962A71E0862
:102DF0007B20ECA13300D12FD353106B64442A54B1
:102E000029863CD0920B17B263D7AC99AB472A08FE
:102E1000A928A3848C92226A88A829A188842ACF11
:102E2000BAE370CB02D238F74B307BE441910745CF
:102E30001E147950E4214CDCF2DD03516810993303
:102E400063D248D922654B94D6AF4B942D52B688A5
:102E50004933E60CA141F540DCCBC6E900D338F795
:102E60004B30DBE4C19007431E0C7930E4214DDC8C
:102E7000F2DD03516810993363D248D922654B942F
:102E8000D6AF4B942D52B6884933E60CA141F5409C
:102E9000DCCBC6E900D439F74B30BBE24191076384
:102EA0001EC490E183C64396B8E5BB07A2D020328A
:102EB00067C6A491B245CA9628AD5F97285BA46CFB
:102EC000119366CC194283EA81B8978DD301D53529
:102ED000D74B309B64442B562D863C74895BBE7B5C
:102EE000200A0D2273664C1A295BA46C89D2FA75EC
:102EF00089B245CA163169C69C2134A81E887BD97F
:102F0000381D00D637F74B307B444813214D8434AD
:102F100011F2304FDCF2DD03516810993363D2486F
:102F2000D922654B94D6AF4B942D52B6884933E6DF
:102F30000CA141F540DCCBC6E900D7200F52702A26
:102F400021C38C1B516A8D096B56A53B782ED51A6F
:102F500013D6AC2A316E4CC82000D849384B307B90
:102F6000A9463519F560D483516850192C64F04C8A
:102F70004134E548102938A444B931258A0D2A5135
:102F80006A548942C34A941957A2CCB82225C695DF
:102F90004158E6A02173A6D0A07A30EC81B011CDC3
:102FA000062504D921F353105BE4419007411E0428
:102FB0007910E48196D4FFFF729D8933471E88798A
:102FC000D5301500DA19F35310BBC4E91E7049FD62
:102FD000FF2FD7993873E48198570D5301DB20F305
:102FE00053109BE24110373C64E8A0F1004BEAFF2C
:102FF0007FB9CEC499230FC4BC6A980A00DC20F3C1
:1030000053104B6408922148862019F21097D4FF80
:10301000FF729D8933471E8879D5301500DD40F455
:103020004BD0BAE4019007401E007900E4811B6494
:1030300068C2989962856C54AC503123058B145C3E
:10304000AA3431E2D3C7CB03280FA03C80F200CAD8
:1030500003280FA03C80F200CA03280800DE2232B9
:1030600053D00AA5AB6EF5E6419007228A9928B79E
:1030700050EF96997820E24190378E4AD76B00DF67
:10308000333153904A2695B57153C848A922C48A52
:10309000102B42AA0C2133640C9139430609A91361
:1030A000E44A9053983B6526C8A4208384CC193207
:1030B000A500E0252F4B504A84098F9E1E42544C98
:1030C0009A1452968C1CA2252DCE2443874CD18372
:1030D00007265210314300E1242F4B509A44C9CEA9
:1030E0001E52544C9A1452968C1CA2252DCE244369
:1030F000874CD18307265210314300E2282F4B50D2
:103100007A82891A1C326CD078C850316952485979
:1031100032728896B438930C1D32450F1E98484180
:10312000C40C01E3270F4B505A6444295225863CB6
:1031300074A8983429A42C1939444B5A9C49860EFA
:1031400099A2070F4CA420628600E4290F4B503A45
:103150004448112145841411F290A162D2A490B286
:1031600064E4102D697126193A648A1E3C309182FC
:10317000881902E52B2F4B506A4485880C14325075
:10318000482142C98344C5A4492165C9C8215AD2EE
:10319000E24CB264C8143D78602205113304E63570
:1031A0007A4AB05BA60AAA48F5E0D08333850C15AD
:1031B0002146093162458B957A60E4418A072A4AA3
:1031C000912D46B618B145861E3C08B262519A74DC
:1031D000C54C01E7252FCB4C5AE614B16152A80427
:1031E000B16468695B2C19894225DAAC526754B422
:1031F000E0D283079A2C0600E825304B504AA449B8
:103200000F9F1E6283AAD8382954A21809720F3E54
:10321000604CB818914245DCB04A590C00E92430A2
:103220004B509A6409CF1E7283AAD8382954A21829
:1032300009720F3E604CB818914245DCB04A590CF7
:1032400000EA28304B507AA2C99A1C326ED07848D6
:103250000DAA62E3A450896224C83DF88031E1627E
:10326000440A1571C32A653100EB29104B503A44CA
:1032700088112146841811F2901A54C5C649A1122A
:10328000C548907BF00163C2C588142AE28655CAFE
:103290006200EC10274B300984088D9A1E0819FA39
:1032A000FF07ED112653302944A619321E0011FAEA
:1032B000FF2700EE142A3B3049E24899193262D0C8
:1032C0007880C4E8FFDF00EF100A3B300944704209
:1032D0001E2031FAFF3700F02B514B902AC249854E
:1032E0002B422EE5C97443CC0532998C519B27A5FE
:1032F0004A94539712CB74EA56993063E44DAB85E8
:10330000A700F11C0F53904A6444295225863C447F
:1033100044CC9040E2E2812155E9F07F4700F2235E
:10332000314B905AC4890FA71EF283ABDA3C295562
:10333000A29CBA94B84CA7AE44A9226F5A2D3C0562
:1033400000F323314B909A84494F4D1E160757B511
:103350007952AA4439752971994E5D895245DEB476
:103360005A780A00F426314B908AC2091B1D32702C
:10337000D078880FAE6AF3A4548972EA52E2329D83
:10338000BA12A58ABC69B5F01400F525114B905A04
:1033900064C4295327863CE40757B57952AA4439B7
:1033A000752971994E5D895245DEB45A780A00F646
:1033B00026114B903A94912146861819F2101F5C01
:1033C000D5E649A912E5D4A5C4653A75254A15790B
:1033D000D36AE12900F712104A706A84690FE18309
:1033E0001F90879030CD00F82E553A907A8746ADE1
:1033F00018F5991953C50C953A446A0421424308BB
:10340000911943A8C49842A70A99B2C6D8AB5723CA
:10341000560D3A0700F9192F53903A84098F9E1ED2
:103420002A72F8BF4BA5E881091729C89421FA1818
:103430002F53908A44C9CE1E3A72F8BF4BA5E8813B
:10344000091729C89421FB1D2F53906A82891A1CE1
:10345000326CD07868C8E1FF2E95A207265CA420C4
:10346000538600FC1E2F53902A6408912144861035
:1034700019F2302187FFBB548A1E987091824C1933
:1034800002FD2B10CC6C9A64299E1ECA629A95206C
:1034900046A4509142F4A808A922C488104B971062
:1034A000E1514BCB565AF2A451A34401FE2410D44F
:1034B0008C0A84E92786482479F1C2D032650971E3
:1034C000984CD9A2122F9C904043A61061FA180084
:1034D000FF35F0CB6C3A4488112146841811F25024
:1034E00015D3AC04A922858A1422538850914245F1
:1034F000481521468458BA84088F5A5AB6D2922762
:103500008D1A250A0000000004FFFF0000BF000420
:10351000030505030606181DFFFB13FB13FB02F151
:103520000630133F200600303401210A631A3CE1C3
:103530002FD41D08220BC5B84D418217231100233B
:103540002B4C167449444C444C444C444C44E68047
:10355000E28046444C444C444C44E680E28046447D
:103560004C444C444C444C4408002427ACD26B4B94
:10357000EEE860824262898889C885985D25659DEC
:1035800099C48988898889C88504C5C1D09DA81433
:103590000025315512B47BAE6CEC686C669994C80A
:1035A0009C94C8DCCCC4E4C968C93CCC3CC84CE998
:1035B000C8E1C8CCDC8894D88C94D8CCAAA9B3B183
:1035C00012002626501694A9F490826E666E666EDE
:1035D000667062B4E9C90C05C5CCCCC954CDD8D04D
:1035E000540DCD039121A3012709C2B835E1800212
:1035F0000028160677434966646664664666FF914E
:10360000D0CCD0CCD0900029160677434168CDD0DD
:10361000CC90D0CCFE8DCC9299911921002A10E843
:103620009455474C4642E2608446440B002B0E8C76
:10363000357C4B5457070FA64475052C0BC3B83B7C
:10364000E140428202002D0767D044E1032E086367
:10365000183CE140002F136716444B232945521AAA
:103660004929925224A50A00301B4C126CC7EA204B
:1036700086846468646862CC3F9B181A191A617367
:10368000106503310C471A6C69CDC101D1FE1F32A0
:103690001B4C126CA7EA406686626A62CC6C727040
:1036A000908E59191DC3C9830703331F4C126CA791
:1036B000EA4066C9D4C4D4C4D4E4E058DDE5E8A443
:1036C0009915C50CC9C1900D00341B4C126C6F903C
:1036D0005D3389A989299121996D844686460E1EFC
:1036E000CC4D6E02351E4C126CE360E4606472CB0C
:1036F00083A0039919CAD1C94933AB83189203290E
:103700001B0036204C126CA9EA40846664CACC7255
:1037100005D1C1480905D1C498B389A11136075113
:10372000360037184C126CE18341C2958393839322
:103730008393838493838493730038234C126C891E
:10374000EC20686466686468646864686664CAEAF1
:1037500020666862CCB389A19183211B0039204C7B
:10376000126CC7E8408684826862CCB3230A928ACE
:10377000039A8AC949AB09929203A922003A0BC362
:10378000193CE1401EF240003B0E23BA3BE1401ED3
:10379000F240428202003C0E8D317C75B0AC334A5F
:1037A000DAD24E073D0BAAB874E181E9C181013E2E
:1037B0000D8D357461B4B794643D1C053F186B1AC8
:1037C0007CC7E64084E420C8CA886E8E8C6EE1F621
:1037D000080617014041D696C3EF40F6C0B0AC8A48
:1037E00094867884A8426462E840E4668DCDD08CEB
:1037F0008DD090C9D0CCC4C890D0C4C8CC92354B21
:1038000066462668480EAA662AE6E881E881AA4646
:103810000F8A0F020141257016948D98D6D47244F8
:10382000726470646E686C686C686A6C686CE8A03E
:10383000E6E06470647062D4E90042256F1A94E196
:1038400080E8C0648C6470627062706270626EE462
:10385000A0E6C0647062D28767150726074400435C
:103860001D701694EBEE80A8A6848E62F2787A5FC3
:10387000534E4C4ED091D4141DD01D01441E701ACD
:103880009CE180EAC066AC6490627262F2D4BFBC14
:103890009C18A4182B39B039A00245166D1A84E182
:1038A000A0E2A062744F0F480E4846F7E9C18302B8
:1038B00046116C1A7CE103CBBD3CA038A098DC5FBC
:1038C00002472371169CEBF080AAA6868E64728252
:1038D0007A7CB303B2035ADBD389490ABA929A07B6
:1038E00013532703480F6F1A9C61D2BF3CF841A4C1
:1038F000FF72004908631A3CE17F104A116B16748D
:1039000071FF432BAF2666280E644E004B276E1ABC
:103910009461EE8C628A6488668668846A82ECEEC2
:10392000411805D5CCD4D0229AA999B191318AB940
:103930008939024C0D6C1A7C6172FF7F79F060004E
:103940004D32731ABC61FAF620F640F260F280EE56
:1039500040424EC2626AC2444AC46466C46466C4D9
:10396000468DCDC48CCDC48C51915191D594D594B4
:10397000D5024E276F1A9C61F2F041DC41DC819840
:10398000C594C594C990CD8CCD8CD1889588D584AB
:10399000D981DC41DC41E0E5004F1D71169CEBF064
:1039A00080AAA6868E647282F2D6DF5E524C8ED0DA
:1039B000D1B43A20BC0250176E1A8CE180E6C06286
:1039C0006E62D0771307160725B3FB5B0051239176
:1039D000F69BEBF080AAA6868E647282F2D6DF9EFA
:1039E00085504C4D8C50D914511DD45DCC038400AE
:1039F000521B6E1A8CE180E6C0626E62D0771307AC
:103A00001607256314731383FE700053206E1A8CFF
:103A1000C9EC6086A6826C626E6296B6F420F2B43F
:103A200096D6D0DD814CC901D51100540D6F127CA2
:103A3000E10762C3FBFF330055136F1A9C61D2FF8D
:103A40002FEF28E6466A6A0EC88E00562470169438
:103A500061D4F4906270848C666C686C88D5D0D820
:103A6000D01809DDC8E0C8E0C8A4A92D313300573B
:103A70003E7516BC616CCC6CCC6CCC6CC550D1C89E
:103A800050D1C89084D0C8CCC4CC8CCCC48CD0C805
:103A9000C4C8D0888CC8D0C4CCC494C4CC8498C4C6
:103AA000CC8458555955DDC2B9C1B921005826708A
:103AB000169461F490828C666C6A686E64F020D211
:103AC0009698D6F22070646E688A88686C667082F8
:103AD000F07400591E6F168C61F270626E846C6611
:103AE0006A88686A666C666E627062B2B476789F45
:103AF000015A156E1684E1A7949C5232A5644A4976
:103B00003A4A497AF0015B0D057743E1C064FFFF53
:103B10009383015C12671244414A99943229CDA4DF
:103B200094492993525D0D057B43E16064FFFF9347
:103B300003035E132B55756970AE4C426A6266C909
:103B4000CCC494D5005F074E7073E107600886F41B
:103B500045616803611FCC1574C7EA2066866468F6
:103B600072CCE640A4648268626A628882A4E480BF
:103B7000A46400621B6C1A7C61722F6A0E464A288C
:103B80008826C6FCEC68A284E26064A20600631585
:103B9000CB156CC7E82084C590E15E0E4D90901C5B
:103BA000049900641A6C167C736F2A460E26482A04
:103BB00086CEFC6C628882A4E460A66200651BCCA1
:103BC000157489EC208684646862CCECE003C9D16A
:103BD000A9091A9203A91A00661067164C87A464F3
:103BE00068C9C1C9D0FE2700671F6C767BA762E455
:103BF0006082A462E8CCCF268628484A0E662A2630
:103C0000CD8E460E866C0068116B1A7C61702F6831
:103C10000E266826A6FC5F0D690A631A3CE140EC9B
:103C2000E00F6A0E05733B65E391FDFFE4A002001F
:103C30006B1F6B1A7461708F266628464826688E43
:103C4000AC8E2668466646486628862686AE066C92
:103C500008631A3CE17F106D24D119AC6182A4E4A1
:103C6000E04082A4E468C868C868C868C868C868D2
:103C7000C868C868C868C868C868016E10CB197C75
:103C800061A2E460826662CAFFD5006F17CC15742A
:103C900089EC208684646862CCCF268646D81C8452
:103CA0001101701B6C7A7B61A2E660A48482686259
:103CB000CCCF8E264A280E46266A267709711A6CC2
:103CC000767BA762E46082A462E8CCCF268628488F
:103CD0004A0E662A26F700720DC7195461E2E0CD3C
:103CE000D0FE11007319CB156CC5E82084C5D0C473
:103CF000A0D94198E195D50DC581CC0900740F4735
:103D0000164C6568938393A1FDA31A027510CB1915
:103D10007C61CAFF11C54885C5CCC800761ACC1590
:103D20007461CCD9C4D0C8D0C8D0CCC8D0C8D0C891
:103D300094991D212300772BD3119C616ACA6A854F
:103D4000D494C84CCDC84CCD8C0A1921918911A1AD
:103D500089AD246424C46ACA6AEAA606A706A786AF
:103D600000781ACB156C61EA866266C5D055DD5CB9
:103D700059D5C40C05C9CC04CDD50079206D767B0E
:103D800061CE6E626C82686668868468646A64CCA0
:103D9000CEB09074E5E8E460211D007A13CB156C79
:103DA000E183B8756474736474EBE80E1E047B10D1
:103DB0000777536966D17EB3686AD17EB5007C0807
:103DC000027F3BE11F187D11077B53616AD17EB5ED
:103DD0006866D17EB308007E0E8BB47483E660C241
:103DE000E260860200A00600303401A10C637A3B39
:103DF000E1404E42E2E007A2264BD6734F52CAE89A
:103E00002084A26244A246664468446844684468C8
:103E1000426A4264A282E240E64A520C00A31E4D6E
:103E20001674C7EC2068CDD0CC28E9ECDCC1CCC13D
:103E3000D8E8CAD1C99383039B0A00A41E8C757469
:103E400041B08262E260666466686468646864685F
:103E50006664E6606282A25000A5204D127461CEB5
:103E60006E626A646A66D1CCD4C4D8C4D001C90178
:103E7000D9D801C901D9E8AE00A60B027F3BE18188
:103E8000E1C18101A72E0C7773C7EA20868464689C
:103E900084668692EC888266866488626A646A8236
:103EA0006884668662CA8E926686646884CD419410
:103EB0000D00A80947144E61C26200A93173129C1B
:103EC000AFF6808E8A6A72667644A848626662A6F9
:103ED000464A86469446944694464AA66662664298
:103EE000A848647666728ADD016D1D00AA1788F500
:103EF00054A3E4424688C462444246E2208242F02F
:103F0000E04000AB160A756C6762646264626462CA
:103F1000666268626862686200AC09EC947CE18366
:103F2000513DAD0767D044E103AE3573129CEDF40B
:103F3000806E8C6A7266E46444466644624648A4B5
:103F4000480D918C109115918814918C508D2209F7
:103F5000192191896199D121BAB103D23300AF07F8
:103F600047344EE101B010E8704D854644428891D7
:103F700084880C0900B110AB197C6970A3830741D8
:103F800083DB037C10B21146113D83E22044486676
:103F9000826246E8A000B31246113D83E220444805
:103FA00064668AE420820200B40986F44567641BD3
:103FB00000B5126B7A7B61CAFFD141C84185858803
:103FC000E10E01B6360B776BE9E440A244A444C28B
:103FD00044C244C244C244C244A444A44486446883
:103FE000444A444A444A444A444A444A444A444A61
:103FF000444A444A444A440200B70863D83CE1407A
:1040000000B80DC67443638668E640820200B90AB0
:1040100044153D45E460441FBA1288F55485C662D4
:10402000A48851C9840DE9C18100BB170A756C6170
:1040300062686268626862666264626462646206A0
:1040400000BC2F51169C454E4C4E884C8A4C4E4A13
:10405000504A504852485246488DCCA00CA10C9D65
:104060008C849C88329983209983184129411100BE
:10407000BD2950169C454E4A4E864C884C959C94C2
:104080009C90A090A08C088D0A331165AAC4A684C8
:10409000A884E684E4A46CA40CBE3151169C834C25
:1040A000C84A48444852486E48704854444E449D5B
:1040B00085900C89CCA00CA10C9D8C849C88329995
:1040C00083209983184129411100BF196B7A7B69BC
:1040D000703D82C1EDE6C8E8E688AC8C0E42480E21
:1040E000646C00C028101794697C7B68625A53CBBB
:1040F00011C991C191B9A1B1A1B1A1A9B1A1B1A1B8
:10410000839A8393C191C18951A703C12810179441
:1041100073787B70625A53CB11C991C191B9A1B127
:10412000A1B1A1A9B1A1B1A1839A8393C191C18980
:1041300051A703C22C1017946FB8746270661E9456
:1041400098D6D47244726470646E686C686C686AE5
:104150006C686CE8A0E6E06470647062D4E900C347
:104160002CF016948B44EE404E841E9698D6D47252
:1041700044726470646E686C686C686A6C686CE841
:10418000A0E6E06470647062D4E900C429F016947B
:10419000696470641E315B53CB11C991C191B9A19F
:1041A000B1A1B1A1A9B1A1B1A1839A8393C191C1D8
:1041B0008951A703C52C1017948D564434285444B4
:1041C0009698ADA9E588E4C8E0C8DCD0D8D0D8D0AE
:1041D000D4D8D0D8D041CDC1C9E0C8E0C4A8D3015B
:1041E000C6327616C4EDE020EEE0206C621E6062FE
:1041F0007C647C647C647A667AE6806AE68068F136
:10420000D0F0C1EC01EDD4ECD4E8D8E8D8C181D825
:104210008101C722107793EBEE80A8A6848E62F20C
:10422000787A5F534E4C4ED091D4141DD09D924F4E
:104230008FDA9201C8190D1B8465767B98838A8377
:104240008AD13D3D20392019DDA7070F0AC9190D74
:104250001B846F727BA0838A838AD13D3D203920E5
:1042600019DDA7070F0ACA1D0D1B846BB26E626AA7
:10427000661EE0A0E2A062744F0F480E4846F7E9C0
:10428000C18302CB1BED1A84656668661EFAA0E244
:10429000A062744F0F480E4846F7E9C18302CC0D67
:1042A00006133C6168C399FDFF1700CD0D06173C4E
:1042B0006764D399FDFF2700CE10090F3C67AA66FB
:1042C00062CDF0D8FEFF1B00CF0FE7123C61C26247
:1042D0001E6268FFFF0900D02D730E9CE780F0C0BE
:1042E0006CAC6A9068726892667466F4C0ECC06CDC
:1042F00066746674667466926672689068ACEAC0AA
:10430000EC800A00D12EEF1A9C8944EC404C841EAC
:1043100068F2F041DC41DC8198C594C594C990CD28
:104320008CCD8CD1889588D584D981DC41DC41E065
:10433000E500D22511179C691E601E601E601EFCE0
:10434000F080AAA6868E647282F2D6DF5E524C8E10
:10435000D0D1B43A20BC02D32111179C757A7BF0DE
:10436000C303AA9A1A3A92C909CA5B7F7B493139B9
:104370004247D3EA80F00A00D42411179C6FBA7622
:104380006272661EF6F080AAA6868E647282F2D6EB
:10439000DF5E524C8ED0D1B43A20BC02D524F11647
:1043A0009C8B44F04050841EF8F080AAA6868E6450
:1043B0007282F2D6DF5E524C8ED0D1B43A20BC026B
:1043C000D622F1169C696670661EF5E101554D0D09
:1043D0001DC9E404E5ADBFBDA4981CA1A369754047
:1043E0007805D71B8C357C2330626C62686664CAA2
:1043F0008E90CE6A646668626C22300200D8337395
:10440000129CED48E88062A6E68670689086CE64CD
:104410006E62646C64D5CCC8D09299A9916523135F
:10442000732376348443743437351307444267006A
:10443000D9160F1B9C697A7BA849FFBFBCA3981BA8
:10444000A9A939203B02DA160F1B9C73767BB04971
:10445000FFBFBCA3981BA9A939203B02DB1A0F1B85
:104460009C6DB672626E661E66D2FF2FEF28E6461E
:104470006A6A0EC88E00DC17EF1A9C67D9CC3C9A8A
:1044800049FFBFBCA3981BA9A939203B02DD200F1F
:10449000178C73767BB0C93B8AB9112A9AA9211A65
:1044A000AA99310ABA89C1CBD2DAE17D06DE196E4A
:1044B0001A8C6176DB039A038BB98941DF4D1C5856
:1044C0001C94CCEE1600DF246B1A7487EA208464F7
:1044D000D1C4D0C4D0C4D0C4CCC804CD44C90CC548
:1044E000D0C4948F26262C264A00E0226C167467CE
:1044F000747B18AB83981992A1C9319B03919209DF
:10450000A289A989210A929203929201E1226C1652
:10451000746F707B28AB83981992A1C9319B03916A
:104520009209A289A989210A929203929201E22614
:104530006C16746BB06C6268661EC2EA2066866494
:104540006872CCE640A4648268626A628882A4E4ED
:1045500080A46400E3266C16748544E64046841EFD
:1045600081D541CC0CC9D0E498CD8148C904D1C4CF
:10457000D4C4100549C90149C900E4234C16746527
:10458000D1C83CB8D541CC0CC9D0E498CD8148C93C
:1045900004D1C4D4C4100549C90149C900E5276C38
:1045A00016746B50422E264E4270CEEA2066866408
:1045B0006872CCE640A4648268626A628882A4E47D
:1045C00080A46400E62AD415B4C786ECE04066C631
:1045D00084648868726CCA6CE4E080A2E4E040689D
:1045E000726A72A8EAE486E2E440A6AA0600E71A24
:1045F0006B766BC7E82084C590E15E0E4D90901CF1
:104600000459510E4E991101E81E6C167467747BA3
:1046100020B283181292A18931B3830F2447A726B1
:1046200068480EA46A00E91E6C16746D707B38B27F
:1046300083181292A18931B3830F2447A7266848B3
:104640000EA46A00EA226C16746BB06C6268661E77
:1046500084EC208684646862CCECE003C9D1A909AB
:104660001A9203A91A00EB1F4C167465D1C83C02BC
:10467000B283181292A18931B3830F2447A7266809
:10468000480EA46A00EC0C66123C6168C399FDBF39
:1046900000ED0C66163C6764D399FD3F01EE0F698F
:1046A0000E3C67AA6662CDF0D8FEDF00EF0E47121F
:1046B0003C61C2621E6268FF4F00F01E6C1674639C
:1046C00076626EAE4A48CEE8208684646862CCCFBB
:1046D000268646D81C841101F1176B1A7C8544E4A8
:1046E0004044841E72A2E460826662CAFFD500F272
:1046F0001A6C167467747B20B283181292A18931E8
:104700003F9B181A6173104604F31A6C16746D708F
:104710007B38B283181292A189313F9B181A6173BA
:10472000104604F41E6C167469B06C6268661E86CE
:10473000EC208684646862CCCF268646D81C84111F
:1047400001F51E6C16748544E64046841E05D94169
:104750000C09C9D0C4989F4D0C8DB039082302F6BE
:104760001B4C167465D1C83C02B283181292A18901
:10477000313F9B181A6173104604F7108B397C691E
:10478000703DECC18378D8C14500F824CE11748BFC
:1047900046E68084A4666866A864C664C5C8C4C8C2
:1047A00088CD48D1CCD04C09C9018D0C1500F91227
:1047B0006B1A7C6572F329FF471423151633230304
:1047C000FA136B1A7C6D6E7B8829FF47142315162C
:1047D000332303FB156B1A7C69AE6A6266F194FFA2
:1047E000238A910A8B999101FC144B1A7C65CDC8E0
:1047F0003CE094FF238A910A8B999101FD230D7768
:104800007B71727B9839BB89B109A299A11912A257
:1048100091A991313BC342D295A39383857400FE45
:104820001D0C7B7B61722F6A0E464A288826C6FCC7
:10483000EC68A284E26064A266729700FF25ED76C0
:104840007B67646A641E7ACE6E626C826866688674
:104850008468646A64CCCEB09074E5E8E460211D9D
:104860000000000004FFFF0000BF00030304050375
:1048700005060F14FFFC0CFC0CFD01EB042D0CF0E5
:10488000200500184B2109C20C4D1C2C6904220A7A
:10489000458A51485824A100231BC908D3498412D2
:1048A000A14474881C4212A14474881C4212A14481
:1048B0002891012414E7FAD2052B074984122372A8
:1048C0008B5022074931062521CD085D4983B4A0CC
:1048D00048141449C2A43840148786E48010392251
:1048E00012861463C4A808002616CA0A59518D22DC
:1048F000A1484A9E499A2AB2916C76888D0627076C
:10490000428A495802280CF4DA4C49264AFA9B6834
:1049100024290EF4D84C88463291FE229988002A28
:104920000B55784DA5A48C26B1002B0D880AD5898E
:10493000D50E0799580D002C0952DA485022120062
:104940002D0724384B1C022E06220A49102F0FC4B3
:1049500008CB25896221512C248AA501300FC80873
:1049600053D12CA3221F4B131B0900310AC50A5334
:10497000C60E35FD01320FC80853D12CA322513A7F
:10498000DCF170103312C80853D12CA3A274462452
:10499000174B131B09003413C808530E69129944AE
:1049A000A48B4C723848C52A003511C80853398980
:1049B000A535536C2C2E4D6C24003612C80853D1EB
:1049C0002CA3B26474191589A5898D04370FC80802
:1049D000533C48C552B154AC2A56043813C8085346
:1049E000D12CA3A24424A35946C5D2C446023912ED
:1049F000C80853D12CA322B134394DC4A5898D04E4
:104A00003A08820C4BD021043B0BB2DC4AD02194F3
:104A10008804003C0D880A550B49A4E91C40260B6C
:104A20003D0B681A553CC8910E07013E0D880A558A
:104A300088D901D311A318003F10C70AD5540E32EC
:104A40009A543854954395004023EDEA605A8732D2
:104A5000392414AB906421594CA426528B89944874
:104A600021519A482687CEE48022004119CB08596B
:104A7000CE21734059229D0C65B225A9E82039D872
:104A8000017480004214C90A579C0E11619578A0E8
:104A90001C22C22AF14039014317CA0AD9154FB363
:104AA00089B40E9043E49039442A998D8E250044B0
:104AB00015CA0A59180F21E1442A919659AB12E1FF
:104AC000E4103202450EC80A553C90952F17B1F2FA
:104AD000E120460DC80A553C90952F17B1CE0047EE
:104AE00017CA0AD9154FB389B40E904384378A5434
:104AF000321B1D621401480CCA0A5988391F1EC690
:104B00007C164907C20A497C184A0CC70AD3EA57DF
:104B10001AED20A9004B19CB0A594827C2916C26DF
:104B20001A4AA665AB68289B0947D28978004C0BC6
:104B3000C80A5588F5CF8783004D19CB0A5B4C5DB9
:104B40006F87982516A1A8505448911069441AD12E
:104B500062024E15CA0A594C8D468A8C2223894816
:104B6000229A842621BA0E4F16CB0ADB556F4B5280
:104B7000C9B40EA003AA13A96836BBD6005014C945
:104B80000A579C0E116195F14039C90172801C20B1
:104B9000075119DBFADA556F4B52C9B40EA0036AFC
:104BA0002189A834A25DEFA010005219CA0A591C2D
:104BB000420789542295082787D021249C482552F2
:104BC00089B43A5312C90A57D52EB3AAD95A0754F1
:104BD0006B935B09005419CA08553C18E510394419
:104BE0000E9143E41039440E9143E4102100550D19
:104BF000CA0A5988F9E7E2E41033015619CA08577E
:104C000088C912A1482812CA444291502425D301D0
:104C100072881000571ECE085F088544215145A6B2
:104C20002422299164925044482292A842B1502CE7
:104C300094015814C90A57486B13998AB03A9E16C2
:104C40002532955955005919CA0857888B13A14C1C
:104C5000241449C974801C2287C821728810005A04
:104C60000FC80A553C48A7AAC3A9EAF470105B0B09
:104C7000F4DA4C1C46FA4F87005C0DC4084BC46242
:104C8000B234599A2C035D0BF4D84C1C42FA4F876E
:104C9000015E0D785AD589A53491162151005F0720
:104CA00019D8521C04600833AC4D8464016111981A
:104CB0000AD3942E32E9C83292C824A7C9006211DF
:104CC000C80A5588B58C2EA32263E930918C006305
:104CD0000E980A53D12CA3B2F268622301640FC864
:104CE0000A556BB21C4645C6D2E43411650F980ACA
:104CF00055D12CC2C3C13C9AD84800660DC40A4D98
:104D00004926924344A42F006713D8CA544D2487E0
:104D10005191B134394DC4A5898D04680DC80A5527
:104D200088B5500E34221F056909C20A49900E0742
:104D3000026A0B03CBCA284AF42F17006B14C80A67
:104D40005388B595269251CD3411892632896C004D
:104D50006C07C20A497C186D169C0A5D482893C3EB
:104D60002134A2C968329A8C26A3C9680A6E0C98AD
:104D70000A554828071A918F026F0E980A55D12CB0
:104D8000A32263696223017012D8CA54484697511E
:104D900091B17498484662CD007110D8CA544D2420
:104DA000875191B134394DC43A720B950A4D480E72
:104DB0002399DE00730E970AD3540E3263B57690B2
:104DC0005400740DB40ACD8824878848A7910075D3
:104DD0000B980A5508F9ED40A108760F980853087A
:104DE000891291DE8854B10C0077159C085BC86469
:104DF000341591BE506487E0682A128B6400780FE6
:104E0000970A53C86812A5DAAC2451A3097915D8BA
:104E1000C85208891299442493C82432EA54AC3801
:104E200095027A0C9708513CCE86C2D9EC707B0E65
:104E3000F4DA4C4926225D64229D46027C0701CBB0
:104E4000483C087D0EF4DA4C88467A938874998839
:104E5000007E0A383AD5CC446A1300A00500184BEE
:104E6000A10AC2DA4CD022918301A213B8F8D2066B
:104E7000699689292691498294898D1805A313C8BA
:104E800008D30D4B32894C2207488B6271F87008A9
:104E9000A40F772A534426918A8C4D52894C02A53F
:104EA00011C808530889129136AAD028348AD5002F
:104EB000A60701CD4A9C0EA714F8D852D14C9A8966
:104EC0001659D1243192454A361200A80825A84D1A
:104ED000482802A920CC0859924733B128448A288F
:104EE00049467180280E9888249210292407C446C8
:104EF000632200AA0C755ACD889226A110B500AB8A
:104F00000E682853A98824226D22994800AC0858BD
:104F100028553C8835AD0724384B1C02AE1CCC0804
:104F200059924733B128528A2849469A881325490D
:104F3000442924968DC64400AF0615A84D14B00B25
:104F4000547ACF48424A110900B10FB80AD589D521
:104F50000E0799581D783808B20C7558CD4C24149A
:104F600091D26100B30C7558CD4CD444428A64028E
:104F7000B40833AA4D454600B50DC8DA5408F9ED1A
:104F80007090909501B620F8D8D21C481152841424
:104F9000214548A15130140C0543C15030140C0573
:104FA00043C1500400B706224A4B10B80B45C84C09
:104FB000052521C90400B908745A4D1D463ABA0B9B
:104FC0007558CD4C24B389645CBB0F682A53886440
:104FD0002299488B48221201BC1FCD0A5D0965C485
:104FE000204D2C8B03446AA2D04C22218722528967
:104FF0006AC82615862500BD1CCC085D09633419D6
:105000002D2C128BE20089642689284A14836AD2E7
:10501000584956BE20CD08DD4C631299581696C9E2
:1050200001A29044CB6814214B22E288AAC418152F
:105030004A2500BF11C7DA5449E55045E1502AA37B
:105040001D241500C01E0B09D9C56172601C790EA4
:105050009903CA12E96428932D494507C9C10EA0D6
:105060000304C11E0B0959C74172481CC31C3207F7
:105070009425D2C950265B928A0E92831D40070860
:10508000C21F0B09D9C64173402C8E3887CC0165ED
:1050900089743294C996A4A283E46007D00102C344
:1050A0001DFB08594EA29139E21C32079425D2C942
:1050B00050265B928A0E92831D400708C41DFB0890
:1050C00059C9843239DA1C32079425D2C950265B7B
:1050D000928A0E92831D400708C5210B0959CA21E7
:1050E000A138201487C84173C81C5096482743999B
:1050F0006C492A3A480E76001D20C61DCE08DF1DD9
:1051000068079A440E11C92122394474929DEE8099
:10511000B3502C3C0C0F01C71D0ACBD8154FB389D7
:10512000B40E9043E49039442A998D8E75401C2426
:105130000E896700C814080B55C50172481C7838E1
:1051400090952F17B1F2E120C913080BD586A571F0
:10515000E8E14056BE5CC4CA878300CA14080B55F8
:105160008687B138E870202B5F2E62E5C34100CB03
:1051700012F80AD588B4830E07B2F2E522563E1C17
:1051800004CC0B03094984644189FE07CD0B030B52
:105190004945A612FD2F00CE0D050949C526B1B01F
:1051A0004CFF1300CF0DF606498848728850FF1354
:1051B00000D019CC0859990F41E14C2A931E8487DD
:1051C000A0483A92CA84B343D008D11AFA0AD94DFA
:1051D000829139786A3452641419494412D12434C2
:1051E00009D17500D21B0B0B5BC66172601CB17AD2
:1051F0005B924AA675001D509D4845B3D9B506D3AC
:105200001C0B0BDB03E22039248E5ABD2D4925D31C
:105210003A800EA84EA4A2D9EC5A03D41C0B0BDB87
:10522000C64173402C8E56BD2D4925D33A800EA819
:105230004EA4A2D9EC5A03D51BFB0A5B4EA29139AE
:105240005AF5B624954CEB003AA03A918A66B36BB6
:105250000D00D61BFB0ADB89A4223952F5B6249532
:105260004CEB003AA03A918A66B36B0D00D71299C5
:1052700008D54423B3C95A755A9BAC4DA21100D826
:105280001CCB0ADB954287D050249CCC2434114996
:1052900046914D8622E1E8100AD500D9130A0BD9B0
:1052A000C54172581C41CC3F172787980900DA1373
:1052B0000A0B59C72172401C45CC3F172787980914
:1052C00000DB120A0BD9C621E3581C2AE69F8B93F8
:1052D00043CC04DC11FA0A59298AE45031FF5C9C62
:1052E0001C622600DD1E0A0957C72172401C455C5E
:1052F0009C086522A1484AA603E41039440E914354
:105300008400DE14C90A57C801A7434458653C50BD
:105310004E72801C2007DF14C80AD5942E32894CA7
:1053200022194928425E28921100E016D80A53C576
:105330000172481C5ABAC8A423CB4822939C260366
:10534000E114D80AD386A57170E922938E2C2389A3
:105350004C729A0CE215D80AD38587B138B0749193
:10536000494796914426394D06E315C80A534D42E4
:105370009139B07491494796914426394D06E41409
:10538000C80AD3A849E4C0D245261D59461299E45B
:105390003419E516D80AD34943C1505458BAC8A4A1
:1053A00023CB4822939C2603E6179D0ADF544887A7
:1053B0008A4C283C480E879058443A1C424C00E7DF
:1053C00013D8CA52D12CA3B2F26862A3C601C2900C
:1053D0007006E814D80A55C50172481C4CB3080F72
:1053E00007F368622301E913D80AD586A571049AE8
:1053F0004578389847131B0900EA13D80A55868761
:10540000B1389066111E0EE6D1C44602EB13C80AED
:1054100055496412399066111E0EE6D1C44602EC5D
:105420000BD3084984644189FE00ED0BD30A49453A
:10543000A612FD0500EE0CD50849C526B1B04C7F7B
:1054400002EF0BC5084948286299FE04F011C80A0A
:10545000D5884BE5996554642C4D6C2400F110C837
:105460000A554D4291394C4239D0887C14F213D8F8
:105470000A55C50172481C4CB38C8A8CA5898D04D1
:10548000F312D80A5586A571149A6554642C4D6C94
:105490002400F413D80AD58587B1389466191519F4
:1054A0004B131B0900F513C80A554D4291399466F8
:1054B0001915194B131B0900F612C80AD5A849E49F
:1054C000509A6554642C4D6C2400F70E880AD589D7
:1054D000E5C0C3410E14CB00F812980A555122873B
:1054E00051C92231950E93080900F910D80A55C503
:1054F0000172481C28E4B7038522FA0FD80A5586A2
:10550000A571B090DF0E148A00FB10D80AD58587EC
:10551000B1384CC86F070A4500FC0FC80AD5A84926
:10552000E43021BF1D281401FD1918C9D286A571C8
:10553000A8902891494432894C22A34EC58A532908
:1055400000FE1308CB5488B58C2EA32263E930915A
:105550008CC49A01FF1A08C9524964123948489408
:10556000C824229944269151A762C5A914000000BD
:105570000004FFFF00000000000000000000021413
:1055800005050000000002010A0100000000000003
:105590000000000000000000000000000000060302
:1055A00005010101010A060101010501050A0206C2
:1055B0000202000000000000000203000A0B0000CD
:1055C00000000504090800000000000000000000C1
:1055D00000000000000001020408102040800102C9
:1055E00004081020408001020408102040800102BD
:1055F0000408102040800202020202020202040497
:105600000404040404040303030303030303010168
:1056100001010101010100002000230026002900F2
:1056200000002200250028002B000000210024009B
:1056300027002A00FB56FF773A788578F57DD15709
:1056400011241FBECFEFD0E4DEBFCDBF16E0A0E037
:10565000B1E0ECEEFFE001E00BBF02C007900D925D
:10566000A230B107D9F72FE1A2E0B6E001C01D9248
:10567000AB3AB207E1F71BE2CFE1DBE204C02197CE
:10568000FE010E945A84CA31D107C9F70E9487835C
:105690000C94E9870C940000CF92DF92EF92FF9276
:1056A0000F931F93CF93DF936C01EB017B01E40E0B
:1056B000F51E10E000E0CE15DF0561F06991D6011E
:1056C000ED91FC910190F081E02DC6010995080F44
:1056D000191FF1CFC801DF91CF911F910F91FF905A
:1056E000EF90DF90CF90089508950895FC01108603
:1056F000089508950895089508950F931F93CF93E3
:10570000DF932AE033E0FC01318320838C01065AC9
:105710001F4F79F0EC01C656DE4F0C171D0749F0FC
:10572000A097E881F9810190F081E02DCE010995E3
:10573000F4CFDF91CF911F910F91089508950895AF
:1057400008950895089508950895E091F01EF09148
:10575000F11E8485811102C081E083870895FC01D8
:10576000718F608F438F358F248F089580E390E091
:105770000895FC01838D0895FC01848D958D089515
:1057800088E00895FC01828D81700895FC01228DCE
:1057900060FB20F9228F0895FC01228D60FB21F926
:1057A000228F0895FC01828D869581700895089559
:1057B000FFCFFFCFFFCF80E0089508950895CF93E6
:1057C000DF9300D000D000D01F92CDB7DEB7FC0130
:1057D000248D858D8A8346E65CE25D834C8388EC6C
:1057E00093E39F838E833A81542F6D81782F40E01D
:1057F0008F8190E027960FB6F894DEBF0FBECDBF25
:10580000DF91CF91089581E0089581E00895FC0132
:10581000718F608F438F358F248F089585E590E0D9
:105820000895FC01838D0895FC01848D958D089564
:1058300088E00895FC01828D81700895FC01228D1D
:1058400060FB20F9228F0895FC01228D60FB21F975
:10585000228F0895FC01828D8695817008950895A8
:1058600080E0089580E0089580E0089580E0089544
:1058700080E008950895CF93DF9300D000D000D04A
:105880001F92CDB7DEB7FC01248D858D8A8344E756
:105890005CE25D834C8383E195E39F838E833A8151
:1058A000542F6D81782F45E28F8190E027960FB6B7
:1058B000F894DEBF0FBECDBFDF91CF91089581E098
:1058C000089581E00895FC01108608958FEF0895F2
:1058D0008FEF08958FEF0895811104C0EAE8FAE090
:1058E000849108958FEF0895853230F4E82FF0E029
:1058F000E251FD4F849108958FEF08951F93CF9348
:10590000DF93EC01FB012885922F9770943079F09A
:1059100040F4923051F0933039F1DF91CF911F91E3
:105920000895953009F19630C1F711E012C023FDBA
:1059300021C02A853B852550310913E02115310509
:1059400041F040E02D833E834F83BE01CF010E9492
:105950005977E881F9810680F781E02D612FCE012A
:10596000DF91CF911F91099423FDD7CF2A853B85E5
:1059700015E0E4CF25E030E012E0E3CFEF92FF92B4
:105980000F931F93CF93DC0118960D911C91F80192
:1059900081850E94357CD8011896CC911897C3FB5D
:1059A000EE24E0F8F12C8E151F04D9F180FBC3F929
:1059B0001896CC93C770C33031F0C53021F0C13098
:1059C000D1F4C4E007C0F801808583FF14C0C33060
:1059D00031F1C6E0B80188EE9EE10E94327685E0A2
:1059E00090E0A0E0F80185839683A783B80188EE54
:1059F0009EE10E945977D80118968C91189787706C
:105A00008C1779F0ED91FC910680F781E02D6C2FD9
:105A1000C801CF911F910F91FF90EF900994C2E0C0
:105A2000D9CFCF911F910F91FF90EF9008950C94D3
:105A300096830C9496830C9496830C9496830C9482
:105A400096830C9496830C9496830C9496830C9472
:105A500096830C949683CF93DF93EC010E947D2B69
:105A6000CE01DF91CF910C9496830C9496830C9485
:105A700096830C949683CF93DF93EC010E9461751B
:105A80008A309105B1F41AAA19AA88A5082E000C2B
:105A9000990B29A5821B910927FD93952BA93CA958
:105AA000820F931F9CAB8BAB81E090E0DF91CF9195
:105AB00008958D30910519F41AAA19AAF5CF8E3FD1
:105AC0002FEF920788F74BA95CA969A97AA99C01D5
:105AD000CE0104960E943375288D213099F058F03C
