:107800000C94343C0C94513C0C94513C0C94513CE1
:107810000C94513C0C94513C0C94513C0C94513CB4
:107820000C94513C0C94513C0C94513C0C94513CA4
:107830000C94513C0C94513C0C94513C0C94513C94
:107840000C94513C0C94513C0C94513C0C94513C84
:107850000C94513C0C94513C0C94513C0C94513C74
:107860000C94513C0C94513C11241FBECFEFD8E036
:10787000DEBFCDBF11E0A0E0B1E0EEE9FFE702C05E
:1078800005900D92A230B107D9F712E0A2E0B1E065
:1078900001C01D92AD30B107E1F70E942D3D0C945F
:1078A000CD3F0C94003C982F959595959595959581
:1078B000905D8F708A307CF0282F295A8091C0000B
:1078C00085FFFCCF9093C6008091C00085FFFCCF60
:1078D0002093C6000895282F205DF0CF982F809127
:1078E000C00085FFFCCF9093C6000895EF92FF92F1
:1078F0000F931F93EE24FF2487018091C00087FD22
:1079000017C00894E11CF11C011D111D81E2E8164D
:1079100081EAF80687E0080780E0180770F3E09135
:107920000401F091050109958091C00087FFE9CF1E
:107930008091C6001F910F91FF90EF9008950E94D3
:10794000763C982F8091C00085FFFCCF9093C600B5
:1079500091362CF490330CF09053892F089597555D
:10796000892F08951F930E949F3C182F0E949F3CCF
:107970001295107F810F1F9108951F93182F882350
:1079800021F00E94763C1150E1F71F9108951F935A
:10799000182F0E94763C803249F0809103018F5F5E
:1079A000809303018530C1F01F9108958091C0003C
:1079B00085FFFCCF84E18093C6008091C00085FFE5
:1079C000FCCF1093C6008091C00085FFFCCF80E102
:1079D0008093C6001F910895E0910401F091050184
:1079E00009951F9108950E94763C803241F0809164
:1079F00003018F5F80930301853081F008958091AA
:107A0000C00085FFFCCF84E18093C6008091C00058
:107A100085FFFCCF80E18093C6000895E0910401CA
:107A2000F09105010995089548EC50E08823A1F0F4
:107A30002D9A28EE33E0FA013197F1F721503040CA
:107A4000D1F72D9828EE33E0FA013197F1F7215064
:107A50003040D1F7815061F708953F924F925F9285
:107A60006F927F928F929F92AF92BF92CF92DF924E
:107A7000EF92FF920F931F93CF93DF9394B714BEAF
:107A8000809160008861809360001092600091FF97
:107A90000AC282E08093C00080E18093C40010920B
:107AA000C50088E18093C10086E08093C2005098B1
:107AB000589A259A81E00E94143D44E1F42E3EE15B
:107AC000E32E25E9D22E9FE0C92E80E1B82EAA240C
:107AD000A39401E4902E16E5812EB2E57B2EA0E260
:107AE0006A2EF9E45F2EE3E54E2E70E5372E0E94F4
:107AF000763C8033B9F18133C1F1803409F470C030
:107B0000813409F477C0823409F486C0853409F4DD
:107B100089C0803539F1823529F1813509F4A2C156
:107B2000853509F485C0863509F48DC0843609F49D
:107B30002EC1843709F4C1C0853709F490C0863757
:107B400009F466C0809103018F5F80930301853043
:107B500071F6E0910401F091050109950E94763CCF
:107B6000803349F60E94F33CC2CF0E94763C8032BB
:107B700049F78091C00085FFFCCFF092C60080914C
:107B8000C00085FFFCCF9092C6008091C00085FFA9
:107B9000FCCF8092C6008091C00085FFFCCF709220
:107BA000C6008091C00085FFFCCF6092C600809126
:107BB000C00085FFFCCF5092C6008091C00085FFB9
:107BC000FCCF4092C6008091C00085FFFCCF309270
:107BD000C6008091C00085FFFCCFB092C60087CF61
:107BE0000E94763C863808F4BDCF0E94763C0E9405
:107BF000F33C7DCF0E94763C803809F45AC081382E
:107C000009F453C0823809F433C1883909F449C0F2
:107C100080E00E94C73C6BCF84E10E94BD3C0E9483
:107C2000F33C65CF85E00E94BD3C0E94F33C5FCFF2
:107C30000E94763C809306010E94763C8093070167
:107C40000E94F33C54CF0E94763C803309F414C167
:107C500083E00E94BD3C80E00E94C73C48CF0E9468
:107C6000763C803209F06ECF8091C00085FFFCCF5A
:107C7000F092C6008091C00085FFFCCFE092C60064
:107C80008091C00085FFFCCFD092C6008091C000DB
:107C900085FFFCCFC092C6008091C00085FFFCCF5D
:107CA0009CCF83E00E94C73C22CF81E00E94C73C6A
:107CB0001ECF82E00E94C73C1ACF0E94763C809380
:107CC00009020E94763C80930802809106019091FF
:107CD0000701880F991F90930701809306010E9466
:107CE000763C853409F4D9C080910C028E7F809354
:107CF0000C020E94763C803209F0F9CE8091C000DF
:107D000085FFFCCFF092C600009108021091090295
:107D100001151105B9F180910C02B82FB170A82F8F
:107D2000A695A170E0910601F09107019F012F5FD8
:107D30003F4FB90140E050E0BB23A9F4AA2339F436
:107D400094918091C00085FFFCCF9093C6004F5F57
:107D50005F4FCB010196F9014017510778F4BC0140
:107D60002F5F3F4FE9CFF999FECFF2BDE1BDF89A01
:107D700090B58091C00085FFFCCFE7CF70930701DD
:107D8000609306018091C00085FFFCCF26CF0E9442
:107D9000763C809309020E94763C80930802809191
:107DA0000C028E7F80930C020E94763C853429F46D
:107DB00080910C02816080930C0280910802909166
:107DC0000902892B89F000E010E00E94763CF8015E
:107DD000E85FFE4F80830F5F1F4F809108029091F4
:107DE00009020817190788F30E94763C803209F0CF
:107DF000A9CE80910C0280FF5CC040910601509199
:107E00000701440F551F50930701409306016091ED
:107E100008027091090261157105C9F0E8E0F1E00E
:107E20009A01DB01AE0FBF1FF999FECF32BD21BD14
:107E3000819180BDFA9AF99A2F5F3F4FEA17FB07AD
:107E400099F7460F571F5093070140930601809101
:107E5000C00085FFFCCFF092C6008091C00085FF76
:107E6000FCCFBBCE0E94F33C88E080936000FFCF44
:107E700080E10E94C73C3BCE0E94763C0E94763C4B
:107E8000182F0E94763C112309F483C0113009F4A5
:107E90007CC08FE00E94C73C2ACE80910C0281609A
:107EA00080930C0226CFE0910401F0910501099521
:107EB000F0CD809107018823880F880B8A21809359
:107EC0000B028091060190910701880F991F9093F2
:107ED0000701809306018091080280FF09C080910C
:107EE000080290910902019690930902809308027A
:107EF000F894F999FECF1127E0910601F09107015E
:107F0000C8E0D1E08091080290910902103091F40C
:107F10000091570001700130D9F303E0009357003E
:107F2000E8950091570001700130D9F301E1009309
:107F30005700E895099019900091570001700130A1
:107F4000D9F301E000935700E8951395103498F0A9
:107F500011270091570001700130D9F305E000931B
:107F60005700E8950091570001700130D9F301E105
:107F700000935700E8953296029709F0C7CF10306A
:107F800011F00296E5CF112462CF85E90E94C73C2B
:0E7F9000AECD8EE10E94C73CAACDF894FFCF83
:027F9E00800061
:040000030000780081
:00000001FF
